{
  "_format": "hh-sol-artifact-1",
  "contractName": "NFTMarketplace",
  "sourceName": "contracts/NFTMarketplace.sol",
  "abi": [
    {
      "inputs": [],
      "stateMutability": "nonpayable",
      "type": "constructor"
    },
    {
      "inputs": [
        {
          "internalType": "address",
          "name": "owner",
          "type": "address"
        }
      ],
      "name": "OwnableInvalidOwner",
      "type": "error"
    },
    {
      "inputs": [
        {
          "internalType": "address",
          "name": "account",
          "type": "address"
        }
      ],
      "name": "OwnableUnauthorizedAccount",
      "type": "error"
    },
    {
      "inputs": [],
      "name": "ReentrancyGuardReentrantCall",
      "type": "error"
    },
    {
      "anonymous": false,
      "inputs": [
        {
          "indexed": true,
          "internalType": "uint256",
          "name": "auctionId",
          "type": "uint256"
        },
        {
          "indexed": true,
          "internalType": "address",
          "name": "seller",
          "type": "address"
        },
        {
          "indexed": false,
          "internalType": "address",
          "name": "nftContract",
          "type": "address"
        },
        {
          "indexed": false,
          "internalType": "uint256",
          "name": "tokenId",
          "type": "uint256"
        },
        {
          "indexed": false,
          "internalType": "uint256",
          "name": "startPrice",
          "type": "uint256"
        },
        {
          "indexed": false,
          "internalType": "uint256",
          "name": "endTime",
          "type": "uint256"
        }
      ],
      "name": "AuctionCreated",
      "type": "event"
    },
    {
      "anonymous": false,
      "inputs": [
        {
          "indexed": true,
          "internalType": "uint256",
          "name": "auctionId",
          "type": "uint256"
        },
        {
          "indexed": true,
          "internalType": "address",
          "name": "winner",
          "type": "address"
        },
        {
          "indexed": false,
          "internalType": "uint256",
          "name": "amount",
          "type": "uint256"
        }
      ],
      "name": "AuctionEnded",
      "type": "event"
    },
    {
      "anonymous": false,
      "inputs": [
        {
          "indexed": true,
          "internalType": "uint256",
          "name": "auctionId",
          "type": "uint256"
        },
        {
          "indexed": true,
          "internalType": "address",
          "name": "bidder",
          "type": "address"
        },
        {
          "indexed": false,
          "internalType": "uint256",
          "name": "amount",
          "type": "uint256"
        }
      ],
      "name": "BidPlaced",
      "type": "event"
    },
    {
      "anonymous": false,
      "inputs": [
        {
          "indexed": true,
          "internalType": "uint256",
          "name": "listingId",
          "type": "uint256"
        },
        {
          "indexed": true,
          "internalType": "address",
          "name": "seller",
          "type": "address"
        },
        {
          "indexed": false,
          "internalType": "address",
          "name": "nftContract",
          "type": "address"
        },
        {
          "indexed": false,
          "internalType": "uint256",
          "name": "tokenId",
          "type": "uint256"
        },
        {
          "indexed": false,
          "internalType": "uint256",
          "name": "price",
          "type": "uint256"
        }
      ],
      "name": "Listed",
      "type": "event"
    },
    {
      "anonymous": false,
      "inputs": [
        {
          "indexed": true,
          "internalType": "uint256",
          "name": "listingId",
          "type": "uint256"
        }
      ],
      "name": "ListingCancelled",
      "type": "event"
    },
    {
      "anonymous": false,
      "inputs": [
        {
          "indexed": true,
          "internalType": "address",
          "name": "previousOwner",
          "type": "address"
        },
        {
          "indexed": true,
          "internalType": "address",
          "name": "newOwner",
          "type": "address"
        }
      ],
      "name": "OwnershipTransferred",
      "type": "event"
    },
    {
      "anonymous": false,
      "inputs": [
        {
          "indexed": false,
          "internalType": "uint256",
          "name": "newFeeBps",
          "type": "uint256"
        }
      ],
      "name": "PlatformFeeUpdated",
      "type": "event"
    },
    {
      "anonymous": false,
      "inputs": [
        {
          "indexed": true,
          "internalType": "uint256",
          "name": "listingId",
          "type": "uint256"
        },
        {
          "indexed": true,
          "internalType": "address",
          "name": "buyer",
          "type": "address"
        },
        {
          "indexed": false,
          "internalType": "uint256",
          "name": "price",
          "type": "uint256"
        }
      ],
      "name": "Sold",
      "type": "event"
    },
    {
      "inputs": [],
      "name": "MAX_FEE",
      "outputs": [
        {
          "internalType": "uint256",
          "name": "",
          "type": "uint256"
        }
      ],
      "stateMutability": "view",
      "type": "function"
    },
    {
      "inputs": [
        {
          "internalType": "uint256",
          "name": "",
          "type": "uint256"
        }
      ],
      "name": "auctions",
      "outputs": [
        {
          "internalType": "address",
          "name": "seller",
          "type": "address"
        },
        {
          "internalType": "address",
          "name": "nftContract",
          "type": "address"
        },
        {
          "internalType": "uint256",
          "name": "tokenId",
          "type": "uint256"
        },
        {
          "internalType": "uint256",
          "name": "startPrice",
          "type": "uint256"
        },
        {
          "internalType": "uint256",
          "name": "highestBid",
          "type": "uint256"
        },
        {
          "internalType": "address",
          "name": "highestBidder",
          "type": "address"
        },
        {
          "internalType": "uint256",
          "name": "endTime",
          "type": "uint256"
        },
        {
          "internalType": "bool",
          "name": "ended",
          "type": "bool"
        }
      ],
      "stateMutability": "view",
      "type": "function"
    },
    {
      "inputs": [
        {
          "internalType": "uint256",
          "name": "listingId",
          "type": "uint256"
        }
      ],
      "name": "buyNFT",
      "outputs": [],
      "stateMutability": "payable",
      "type": "function"
    },
    {
      "inputs": [
        {
          "internalType": "uint256",
          "name": "listingId",
          "type": "uint256"
        }
      ],
      "name": "cancelListing",
      "outputs": [],
      "stateMutability": "nonpayable",
      "type": "function"
    },
    {
      "inputs": [
        {
          "internalType": "address",
          "name": "nftContract",
          "type": "address"
        },
        {
          "internalType": "uint256",
          "name": "tokenId",
          "type": "uint256"
        },
        {
          "internalType": "uint256",
          "name": "startPrice",
          "type": "uint256"
        },
        {
          "internalType": "uint256",
          "name": "duration",
          "type": "uint256"
        }
      ],
      "name": "createAuction",
      "outputs": [
        {
          "internalType": "uint256",
          "name": "",
          "type": "uint256"
        }
      ],
      "stateMutability": "nonpayable",
      "type": "function"
    },
    {
      "inputs": [
        {
          "internalType": "uint256",
          "name": "auctionId",
          "type": "uint256"
        }
      ],
      "name": "endAuction",
      "outputs": [],
      "stateMutability": "nonpayable",
      "type": "function"
    },
    {
      "inputs": [],
      "name": "getAuctionCount",
      "outputs": [
        {
          "internalType": "uint256",
          "name": "",
          "type": "uint256"
        }
      ],
      "stateMutability": "view",
      "type": "function"
    },
    {
      "inputs": [],
      "name": "getListingCount",
      "outputs": [
        {
          "internalType": "uint256",
          "name": "",
          "type": "uint256"
        }
      ],
      "stateMutability": "view",
      "type": "function"
    },
    {
      "inputs": [
        {
          "internalType": "address",
          "name": "nftContract",
          "type": "address"
        },
        {
          "internalType": "uint256",
          "name": "tokenId",
          "type": "uint256"
        },
        {
          "internalType": "uint256",
          "name": "price",
          "type": "uint256"
        }
      ],
      "name": "listNFT",
      "outputs": [
        {
          "internalType": "uint256",
          "name": "",
          "type": "uint256"
        }
      ],
      "stateMutability": "nonpayable",
      "type": "function"
    },
    {
      "inputs": [
        {
          "internalType": "uint256",
          "name": "",
          "type": "uint256"
        }
      ],
      "name": "listings",
      "outputs": [
        {
          "internalType": "address",
          "name": "seller",
          "type": "address"
        },
        {
          "internalType": "address",
          "name": "nftContract",
          "type": "address"
        },
        {
          "internalType": "uint256",
          "name": "tokenId",
          "type": "uint256"
        },
        {
          "internalType": "uint256",
          "name": "price",
          "type": "uint256"
        },
        {
          "internalType": "bool",
          "name": "active",
          "type": "bool"
        }
      ],
      "stateMutability": "view",
      "type": "function"
    },
    {
      "inputs": [],
      "name": "owner",
      "outputs": [
        {
          "internalType": "address",
          "name": "",
          "type": "address"
        }
      ],
      "stateMutability": "view",
      "type": "function"
    },
    {
      "inputs": [
        {
          "internalType": "address",
          "name": "",
          "type": "address"
        }
      ],
      "name": "pendingWithdrawals",
      "outputs": [
        {
          "internalType": "uint256",
          "name": "",
          "type": "uint256"
        }
      ],
      "stateMutability": "view",
      "type": "function"
    },
    {
      "inputs": [
        {
          "internalType": "uint256",
          "name": "auctionId",
          "type": "uint256"
        }
      ],
      "name": "placeBid",
      "outputs": [],
      "stateMutability": "payable",
      "type": "function"
    },
    {
      "inputs": [],
      "name": "platformFeeBps",
      "outputs": [
        {
          "internalType": "uint256",
          "name": "",
          "type": "uint256"
        }
      ],
      "stateMutability": "view",
      "type": "function"
    },
    {
      "inputs": [],
      "name": "renounceOwnership",
      "outputs": [],
      "stateMutability": "nonpayable",
      "type": "function"
    },
    {
      "inputs": [
        {
          "internalType": "uint256",
          "name": "feeBps",
          "type": "uint256"
        }
      ],
      "name": "setPlatformFee",
      "outputs": [],
      "stateMutability": "nonpayable",
      "type": "function"
    },
    {
      "inputs": [
        {
          "internalType": "address",
          "name": "newOwner",
          "type": "address"
        }
      ],
      "name": "transferOwnership",
      "outputs": [],
      "stateMutability": "nonpayable",
      "type": "function"
    },
    {
      "inputs": [],
      "name": "withdraw",
      "outputs": [],
      "stateMutability": "nonpayable",
      "type": "function"
    }
  ],
  "bytecode": "0x608060405260fa6001553480156013575f5ffd5b503380603857604051631e4fbdf760e01b81525f600482015260240160405180910390fd5b603f816068565b5060017f9b779b17422d0df92223018b32b4d1fa46e071723d6817e2486d003becc55f005560b7565b5f80546001600160a01b038381166001600160a01b0319831681178455604051919092169283917f8be0079c531659141344cd1fd0a4f28419497f9722a3daafe3b4186f6b6457e09190a35050565b611a4c806100c45f395ff3fe608060405260043610610105575f3560e01c80638da5cb5b11610092578063bc063e1a11610062578063bc063e1a14610315578063c44e66401461032a578063de74e57b1461033e578063f2fde38b146103cb578063f3f43703146103ea575f5ffd5b80638da5cb5b1461029e5780639979ef45146102c4578063ad05f1b4146102d7578063b9a2de3a146102f6575f5ffd5b806351ed8288116100d857806351ed828814610185578063571a26a01461019857806361beb1d714610257578063715018a61461027657806387ed92d71461028a575f5ffd5b806312e8e2c31461010957806322dcd13e1461012a578063305a67a8146101525780633ccfd60b14610171575b5f5ffd5b348015610114575f5ffd5b50610128610123366004611827565b610415565b005b348015610135575f5ffd5b5061013f60015481565b6040519081526020015b60405180910390f35b34801561015d575f5ffd5b5061012861016c366004611827565b61049e565b34801561017c575f5ffd5b5061012861057a565b610128610193366004611827565b610684565b3480156101a3575f5ffd5b506102076101b2366004611827565b600560208190525f9182526040909120805460018201546002830154600384015460048501549585015460068601546007909601546001600160a01b0395861697948616969395929493919092169160ff1688565b604080516001600160a01b03998a16815297891660208901528701959095526060860193909352608085019190915290931660a083015260c082019290925290151560e082015261010001610149565b348015610262575f5ffd5b5061013f610271366004611852565b610883565b348015610281575f5ffd5b50610128610cc7565b348015610295575f5ffd5b5060025461013f565b3480156102a9575f5ffd5b505f546040516001600160a01b039091168152602001610149565b6101286102d2366004611827565b610cd8565b3480156102e2575f5ffd5b5061013f6102f136600461188a565b610eec565b348015610301575f5ffd5b50610128610310366004611827565b611200565b348015610320575f5ffd5b5061013f6103e881565b348015610335575f5ffd5b5060035461013f565b348015610349575f5ffd5b50610396610358366004611827565b600460208190525f9182526040909120805460018201546002830154600384015493909401546001600160a01b039283169492909116929060ff1685565b604080516001600160a01b0396871681529590941660208601529284019190915260608301521515608082015260a001610149565b3480156103d6575f5ffd5b506101286103e53660046118bc565b61146d565b3480156103f5575f5ffd5b5061013f6104043660046118bc565b60066020525f908152604090205481565b61041d6114a7565b6103e88111156104635760405162461bcd60e51b815260206004820152600c60248201526b08ccaca40e8dede40d0d2ced60a31b60448201526064015b60405180910390fd5b60018190556040518181527f45610d581145924dd7090a5017e5f2b1d6f42213bb2e95707ff86846bbfcb1ca9060200160405180910390a150565b5f8181526004602081905260409091209081015460ff166104f65760405162461bcd60e51b81526020600482015260126024820152714c697374696e67206e6f742061637469766560701b604482015260640161045a565b80546001600160a01b031633146105405760405162461bcd60e51b815260206004820152600e60248201526d2737ba103a34329039b2b63632b960911b604482015260640161045a565b60048101805460ff1916905560405182907f411aee90354c51b1b04cd563fcab2617142a9d50da19232d888547c8a1b7fd8a905f90a25050565b6105826114d3565b335f90815260066020526040902054806105d45760405162461bcd60e51b81526020600482015260136024820152724e6f7468696e6720746f20776974686472617760681b604482015260640161045a565b335f818152600660205260408082208290555190919083908381818185875af1925050503d805f8114610622576040519150601f19603f3d011682016040523d82523d5f602084013e610627565b606091505b505090508061066a5760405162461bcd60e51b815260206004820152600f60248201526e151c985b9cd9995c8819985a5b1959608a1b604482015260640161045a565b505061068260015f5160206119f75f395f51905f5255565b565b61068c6114d3565b5f8181526004602081905260409091209081015460ff166106e45760405162461bcd60e51b81526020600482015260126024820152714c697374696e67206e6f742061637469766560701b604482015260640161045a565b806003015434146107295760405162461bcd60e51b815260206004820152600f60248201526e496e636f727265637420707269636560881b604482015260640161045a565b80546001600160a01b031633036107825760405162461bcd60e51b815260206004820152601960248201527f53656c6c65722063616e6e6f7420627579206f776e204e465400000000000000604482015260640161045a565b60048101805460ff1916905560018101546002820154825460038401546107b7936001600160a01b03908116939216906114ee565b600181015481546002830154604051632142170760e11b81526001600160a01b03938416936342842e0e936107f4939116913391906004016118de565b5f604051808303815f87803b15801561080b575f5ffd5b505af115801561081d573d5f5f3e3d5ffd5b50505050336001600160a01b0316827f66f5cd880edf48cdde6c966e5da0784fcc4c5e85572b8b3b62c4357798d447d7836003015460405161086191815260200190565b60405180910390a35061088060015f5160206119f75f395f51905f5255565b50565b5f5f83116108d35760405162461bcd60e51b815260206004820152601760248201527f5374617274207072696365206d757374206265203e2030000000000000000000604482015260640161045a565b610e1082101580156108e8575062093a808211155b6109275760405162461bcd60e51b815260206004820152601060248201526f24b73b30b634b210323ab930ba34b7b760811b604482015260640161045a565b6040516331a9108f60e11b815260048101859052859033906001600160a01b03831690636352211e90602401602060405180830381865afa15801561096e573d5f5f3e3d5ffd5b505050506040513d601f19601f820116820180604052508101906109929190611902565b6001600160a01b0316146109d85760405162461bcd60e51b815260206004820152600d60248201526c2737ba103a34329037bbb732b960991b604482015260640161045a565b60405163020604bf60e21b81526004810186905230906001600160a01b0383169063081812fc90602401602060405180830381865afa158015610a1d573d5f5f3e3d5ffd5b505050506040513d601f19601f82011682018060405250810190610a419190611902565b6001600160a01b03161480610abd575060405163e985e9c560e01b81523360048201523060248201526001600160a01b0382169063e985e9c590604401602060405180830381865afa158015610a99573d5f5f3e3d5ffd5b505050506040513d601f19601f82011682018060405250810190610abd919061191d565b610b045760405162461bcd60e51b815260206004820152601860248201527713585c9ad95d1c1b1858d9481b9bdd08185c1c1c9bdd995960421b604482015260640161045a565b6040516323b872dd60e01b81526001600160a01b038216906323b872dd90610b3490339030908a906004016118de565b5f604051808303815f87803b158015610b4b575f5ffd5b505af1158015610b5d573d5f5f3e3d5ffd5b5050600380545f9350915082610b7283611950565b9091555060408051610100810182523381526001600160a01b038a166020820152908101889052606081018790525f6080820181905260a082015290915060c08101610bbe8642611968565b81525f60209182018190528381526005808352604091829020845181546001600160a01b03199081166001600160a01b03928316178355948601516001830180548716918316919091179055928501516002820155606085015160038201556080850151600482015560a08501519181018054909416919092161790915560c0820151600682015560e0909101516007909101805460ff191691151591909117905533817f06b9e486c68303eb64052e0493f906f3d93a1b7149b6b8dcff221aebd16c3513898989610c908a42611968565b604080516001600160a01b039095168552602085019390935291830152606082015260800160405180910390a39695505050505050565b610ccf6114a7565b6106825f6117a9565b610ce06114d3565b5f818152600560205260409020600781015460ff1615610d325760405162461bcd60e51b815260206004820152600d60248201526c105d58dd1a5bdb88195b991959609a1b604482015260640161045a565b80600601544210610d775760405162461bcd60e51b815260206004820152600f60248201526e105d58dd1a5bdb88195e1c1a5c9959608a1b604482015260640161045a565b80546001600160a01b03163303610dc45760405162461bcd60e51b815260206004820152601160248201527014d95b1b195c8818d85b9b9bdd08189a59607a1b604482015260640161045a565b8060030154341015610e105760405162461bcd60e51b81526020600482015260156024820152744269642062656c6f7720737461727420707269636560581b604482015260640161045a565b80600401543411610e515760405162461bcd60e51b815260206004820152600b60248201526a42696420746f6f206c6f7760a81b604482015260640161045a565b60058101546001600160a01b031615610e9a57600481015460058201546001600160a01b03165f9081526006602052604081208054909190610e94908490611968565b90915550505b34600482018190556005820180546001600160a01b031916339081179091556040519182529083907f0e54eff26401bf69b81b26f60bd85ef47f5d85275c1d268d84f68d6897431c4790602001610861565b5f5f8211610f305760405162461bcd60e51b815260206004820152601160248201527005072696365206d757374206265203e203607c1b604482015260640161045a565b6040516331a9108f60e11b815260048101849052849033906001600160a01b03831690636352211e90602401602060405180830381865afa158015610f77573d5f5f3e3d5ffd5b505050506040513d601f19601f82011682018060405250810190610f9b9190611902565b6001600160a01b031614610fe15760405162461bcd60e51b815260206004820152600d60248201526c2737ba103a34329037bbb732b960991b604482015260640161045a565b60405163020604bf60e21b81526004810185905230906001600160a01b0383169063081812fc90602401602060405180830381865afa158015611026573d5f5f3e3d5ffd5b505050506040513d601f19601f8201168201806040525081019061104a9190611902565b6001600160a01b031614806110c6575060405163e985e9c560e01b81523360048201523060248201526001600160a01b0382169063e985e9c590604401602060405180830381865afa1580156110a2573d5f5f3e3d5ffd5b505050506040513d601f19601f820116820180604052508101906110c6919061191d565b61110d5760405162461bcd60e51b815260206004820152601860248201527713585c9ad95d1c1b1858d9481b9bdd08185c1c1c9bdd995960421b604482015260640161045a565b600280545f918261111d83611950565b909155506040805160a081018252338082526001600160a01b038a811660208085018281528587018d815260608088018e8152600160808a018181525f8d81526004808952908d90209b518c54908b166001600160a01b0319918216178d559651928c01805493909a169290961691909117909755915160028901559051600388015593519501805495151560ff199096169590951790945584519081529283018a905292820188905292935083917f723f73331eaee88eec7fc68ef60ab6ed15e4b90d0472b55eb92fa43910bab6dd910160405180910390a395945050505050565b6112086114d3565b5f818152600560205260409020600781015460ff161561125a5760405162461bcd60e51b815260206004820152600d60248201526c105b1c9958591e48195b991959609a1b604482015260640161045a565b80600601544210156112ae5760405162461bcd60e51b815260206004820152601760248201527f41756374696f6e206e6f74207965742065787069726564000000000000000000604482015260640161045a565b60078101805460ff1916600117905560058101546001600160a01b0316156113b75760018101546002820154825460048401546112f9936001600160a01b03908116939216906114ee565b600181015460058201546002830154604051632142170760e11b81526001600160a01b03938416936342842e0e9361133a93309392909116916004016118de565b5f604051808303815f87803b158015611351575f5ffd5b505af1158015611363573d5f5f3e3d5ffd5b50505050600581015460048201546040519081526001600160a01b039091169083907fd2aa34a4fdbbc6dff6a3e56f46e0f3ae2a31d7785ff3487aa5c95c642acea5019060200160405180910390a3611456565b600181015481546002830154604051632142170760e11b81526001600160a01b03938416936342842e0e936113f593309392909116916004016118de565b5f604051808303815f87803b15801561140c575f5ffd5b505af115801561141e573d5f5f3e3d5ffd5b50506040515f80825292508491507fd2aa34a4fdbbc6dff6a3e56f46e0f3ae2a31d7785ff3487aa5c95c642acea50190602001610861565b5061088060015f5160206119f75f395f51905f5255565b6114756114a7565b6001600160a01b03811661149e57604051631e4fbdf760e01b81525f600482015260240161045a565b610880816117a9565b5f546001600160a01b031633146106825760405163118cdaa760e01b815233600482015260240161045a565b6114db6117f8565b60025f5160206119f75f395f51905f5255565b5f612710600154836115009190611981565b61150a9190611998565b60405163152a902d60e11b815260048101869052602481018490529091505f9081906001600160a01b03881690632a55205a906044016040805180830381865afa925050508015611578575060408051601f3d908101601f19168201909252611575918101906119b7565b60015b1561158257925090505b5f8261158e85876119e3565b61159891906119e3565b90508315611642575f80546040516001600160a01b039091169086908381818185875af1925050503d805f81146115ea576040519150601f19603f3d011682016040523d82523d5f602084013e6115ef565b606091505b50509050806116405760405162461bcd60e51b815260206004820152601c60248201527f506c6174666f726d20666565207472616e73666572206661696c656400000000604482015260640161045a565b505b5f8311801561165957506001600160a01b03821615155b156116ff575f826001600160a01b0316846040515f6040518083038185875af1925050503d805f81146116a7576040519150601f19603f3d011682016040523d82523d5f602084013e6116ac565b606091505b50509050806116fd5760405162461bcd60e51b815260206004820152601760248201527f526f79616c7479207472616e73666572206661696c6564000000000000000000604482015260640161045a565b505b801561179f575f866001600160a01b0316826040515f6040518083038185875af1925050503d805f811461174e576040519150601f19603f3d011682016040523d82523d5f602084013e611753565b606091505b505090508061179d5760405162461bcd60e51b815260206004820152601660248201527514d95b1b195c881d1c985b9cd9995c8819985a5b195960521b604482015260640161045a565b505b5050505050505050565b5f80546001600160a01b038381166001600160a01b0319831681178455604051919092169283917f8be0079c531659141344cd1fd0a4f28419497f9722a3daafe3b4186f6b6457e09190a35050565b5f5160206119f75f395f51905f525460020361068257604051633ee5aeb560e01b815260040160405180910390fd5b5f60208284031215611837575f5ffd5b5035919050565b6001600160a01b0381168114610880575f5ffd5b5f5f5f5f60808587031215611865575f5ffd5b84356118708161183e565b966020860135965060408601359560600135945092505050565b5f5f5f6060848603121561189c575f5ffd5b83356118a78161183e565b95602085013595506040909401359392505050565b5f602082840312156118cc575f5ffd5b81356118d78161183e565b9392505050565b6001600160a01b039384168152919092166020820152604081019190915260600190565b5f60208284031215611912575f5ffd5b81516118d78161183e565b5f6020828403121561192d575f5ffd5b815180151581146118d7575f5ffd5b634e487b7160e01b5f52601160045260245ffd5b5f600182016119615761196161193c565b5060010190565b8082018082111561197b5761197b61193c565b92915050565b808202811582820484141761197b5761197b61193c565b5f826119b257634e487b7160e01b5f52601260045260245ffd5b500490565b5f5f604083850312156119c8575f5ffd5b82516119d38161183e565b6020939093015192949293505050565b8181038181111561197b5761197b61193c56fe9b779b17422d0df92223018b32b4d1fa46e071723d6817e2486d003becc55f00a2646970667358221220a68d4154b9e01872e23f671fb4b500296ef1fe0b5b3568b63a60936dea73330464736f6c634300081c0033",
  "linkReferences": {},
  "deployedLinkReferences": {}
}