{
  "_format": "hh-sol-artifact-1",
  "contractName": "NFTMarketplace",
  "sourceName": "contracts/NFTMarketplace.sol",
  "abi": [
    {
      "inputs": [],
      "stateMutability": "nonpayable",
      "type": "constructor"
    },
    {
      "inputs": [],
      "name": "ArrayLengthMismatch",
      "type": "error"
    },
    {
      "inputs": [],
      "name": "AuctionAlreadyEnded",
      "type": "error"
    },
    {
      "inputs": [],
      "name": "AuctionExpired",
      "type": "error"
    },
    {
      "inputs": [],
      "name": "AuctionHasBids",
      "type": "error"
    },
    {
      "inputs": [],
      "name": "AuctionNotExpired",
      "type": "error"
    },
    {
      "inputs": [],
      "name": "BatchTooLarge",
      "type": "error"
    },
    {
      "inputs": [],
      "name": "BidBelowStartPrice",
      "type": "error"
    },
    {
      "inputs": [],
      "name": "BidIncrementTooLow",
      "type": "error"
    },
    {
      "inputs": [],
      "name": "BidTooLow",
      "type": "error"
    },
    {
      "inputs": [],
      "name": "DutchAuctionEnded",
      "type": "error"
    },
    {
      "inputs": [],
      "name": "EndPriceTooHigh",
      "type": "error"
    },
    {
      "inputs": [],
      "name": "EnforcedPause",
      "type": "error"
    },
    {
      "inputs": [],
      "name": "ExcessivePayment",
      "type": "error"
    },
    {
      "inputs": [],
      "name": "ExpectedPause",
      "type": "error"
    },
    {
      "inputs": [],
      "name": "FeeTooHigh",
      "type": "error"
    },
    {
      "inputs": [],
      "name": "InsufficientPayment",
      "type": "error"
    },
    {
      "inputs": [],
      "name": "InvalidDuration",
      "type": "error"
    },
    {
      "inputs": [],
      "name": "ListingExpiredError",
      "type": "error"
    },
    {
      "inputs": [],
      "name": "ListingNotActive",
      "type": "error"
    },
    {
      "inputs": [],
      "name": "MarketplaceNotApproved",
      "type": "error"
    },
    {
      "inputs": [],
      "name": "NotCounterparty",
      "type": "error"
    },
    {
      "inputs": [],
      "name": "NotTheSeller",
      "type": "error"
    },
    {
      "inputs": [],
      "name": "NotTokenOwner",
      "type": "error"
    },
    {
      "inputs": [],
      "name": "NothingToWithdraw",
      "type": "error"
    },
    {
      "inputs": [],
      "name": "OfferExpired",
      "type": "error"
    },
    {
      "inputs": [],
      "name": "OfferNotActive",
      "type": "error"
    },
    {
      "inputs": [],
      "name": "OracleNotSet",
      "type": "error"
    },
    {
      "inputs": [
        {
          "internalType": "address",
          "name": "owner",
          "type": "address"
        }
      ],
      "name": "OwnableInvalidOwner",
      "type": "error"
    },
    {
      "inputs": [
        {
          "internalType": "address",
          "name": "account",
          "type": "address"
        }
      ],
      "name": "OwnableUnauthorizedAccount",
      "type": "error"
    },
    {
      "inputs": [],
      "name": "PriceZero",
      "type": "error"
    },
    {
      "inputs": [],
      "name": "ReentrancyGuardReentrantCall",
      "type": "error"
    },
    {
      "inputs": [],
      "name": "SellerCannotBid",
      "type": "error"
    },
    {
      "inputs": [],
      "name": "SellerCannotBuy",
      "type": "error"
    },
    {
      "inputs": [],
      "name": "SwapExpired",
      "type": "error"
    },
    {
      "inputs": [],
      "name": "SwapNotActive",
      "type": "error"
    },
    {
      "inputs": [],
      "name": "TransferFailed",
      "type": "error"
    },
    {
      "anonymous": false,
      "inputs": [
        {
          "indexed": true,
          "internalType": "uint256",
          "name": "auctionId",
          "type": "uint256"
        }
      ],
      "name": "AuctionCancelled",
      "type": "event"
    },
    {
      "anonymous": false,
      "inputs": [
        {
          "indexed": true,
          "internalType": "uint256",
          "name": "auctionId",
          "type": "uint256"
        },
        {
          "indexed": true,
          "internalType": "address",
          "name": "seller",
          "type": "address"
        },
        {
          "indexed": true,
          "internalType": "address",
          "name": "nftContract",
          "type": "address"
        },
        {
          "indexed": false,
          "internalType": "uint256",
          "name": "tokenId",
          "type": "uint256"
        },
        {
          "indexed": false,
          "internalType": "uint256",
          "name": "startPrice",
          "type": "uint256"
        },
        {
          "indexed": false,
          "internalType": "uint256",
          "name": "endTime",
          "type": "uint256"
        }
      ],
      "name": "AuctionCreated",
      "type": "event"
    },
    {
      "anonymous": false,
      "inputs": [
        {
          "indexed": true,
          "internalType": "uint256",
          "name": "auctionId",
          "type": "uint256"
        },
        {
          "indexed": true,
          "internalType": "address",
          "name": "winner",
          "type": "address"
        },
        {
          "indexed": false,
          "internalType": "uint256",
          "name": "amount",
          "type": "uint256"
        }
      ],
      "name": "AuctionEnded",
      "type": "event"
    },
    {
      "anonymous": false,
      "inputs": [
        {
          "indexed": true,
          "internalType": "uint256",
          "name": "auctionId",
          "type": "uint256"
        },
        {
          "indexed": false,
          "internalType": "uint256",
          "name": "newEndTime",
          "type": "uint256"
        }
      ],
      "name": "AuctionExtended",
      "type": "event"
    },
    {
      "anonymous": false,
      "inputs": [
        {
          "indexed": false,
          "internalType": "uint256[]",
          "name": "listingIds",
          "type": "uint256[]"
        },
        {
          "indexed": true,
          "internalType": "address",
          "name": "seller",
          "type": "address"
        }
      ],
      "name": "BatchListed",
      "type": "event"
    },
    {
      "anonymous": false,
      "inputs": [
        {
          "indexed": true,
          "internalType": "uint256",
          "name": "auctionId",
          "type": "uint256"
        },
        {
          "indexed": true,
          "internalType": "address",
          "name": "bidder",
          "type": "address"
        },
        {
          "indexed": false,
          "internalType": "uint256",
          "name": "amount",
          "type": "uint256"
        }
      ],
      "name": "BidPlaced",
      "type": "event"
    },
    {
      "anonymous": false,
      "inputs": [
        {
          "indexed": true,
          "internalType": "uint256",
          "name": "auctionId",
          "type": "uint256"
        }
      ],
      "name": "DutchAuctionCancelled",
      "type": "event"
    },
    {
      "anonymous": false,
      "inputs": [
        {
          "indexed": true,
          "internalType": "uint256",
          "name": "auctionId",
          "type": "uint256"
        },
        {
          "indexed": true,
          "internalType": "address",
          "name": "seller",
          "type": "address"
        },
        {
          "indexed": false,
          "internalType": "uint256",
          "name": "startPriceUsdCents",
          "type": "uint256"
        },
        {
          "indexed": false,
          "internalType": "uint256",
          "name": "endPriceUsdCents",
          "type": "uint256"
        },
        {
          "indexed": false,
          "internalType": "uint256",
          "name": "endTime",
          "type": "uint256"
        }
      ],
      "name": "DutchAuctionCreated",
      "type": "event"
    },
    {
      "anonymous": false,
      "inputs": [
        {
          "indexed": true,
          "internalType": "uint256",
          "name": "auctionId",
          "type": "uint256"
        },
        {
          "indexed": true,
          "internalType": "address",
          "name": "buyer",
          "type": "address"
        },
        {
          "indexed": false,
          "internalType": "uint256",
          "name": "priceUsdCents",
          "type": "uint256"
        },
        {
          "indexed": false,
          "internalType": "uint256",
          "name": "paidWei",
          "type": "uint256"
        }
      ],
      "name": "DutchAuctionSold",
      "type": "event"
    },
    {
      "anonymous": false,
      "inputs": [
        {
          "indexed": true,
          "internalType": "uint256",
          "name": "listingId",
          "type": "uint256"
        },
        {
          "indexed": true,
          "internalType": "address",
          "name": "seller",
          "type": "address"
        },
        {
          "indexed": true,
          "internalType": "address",
          "name": "nftContract",
          "type": "address"
        },
        {
          "indexed": false,
          "internalType": "uint256",
          "name": "tokenId",
          "type": "uint256"
        },
        {
          "indexed": false,
          "internalType": "uint256",
          "name": "priceUsdCents",
          "type": "uint256"
        },
        {
          "indexed": false,
          "internalType": "uint256",
          "name": "expiration",
          "type": "uint256"
        }
      ],
      "name": "Listed",
      "type": "event"
    },
    {
      "anonymous": false,
      "inputs": [
        {
          "indexed": true,
          "internalType": "uint256",
          "name": "listingId",
          "type": "uint256"
        }
      ],
      "name": "ListingCancelled",
      "type": "event"
    },
    {
      "anonymous": false,
      "inputs": [
        {
          "indexed": true,
          "internalType": "uint256",
          "name": "listingId",
          "type": "uint256"
        },
        {
          "indexed": false,
          "internalType": "uint256",
          "name": "oldPrice",
          "type": "uint256"
        },
        {
          "indexed": false,
          "internalType": "uint256",
          "name": "newPrice",
          "type": "uint256"
        }
      ],
      "name": "ListingPriceUpdated",
      "type": "event"
    },
    {
      "anonymous": false,
      "inputs": [
        {
          "indexed": true,
          "internalType": "uint256",
          "name": "offerId",
          "type": "uint256"
        },
        {
          "indexed": true,
          "internalType": "address",
          "name": "seller",
          "type": "address"
        }
      ],
      "name": "OfferAccepted",
      "type": "event"
    },
    {
      "anonymous": false,
      "inputs": [
        {
          "indexed": true,
          "internalType": "uint256",
          "name": "offerId",
          "type": "uint256"
        }
      ],
      "name": "OfferCancelled",
      "type": "event"
    },
    {
      "anonymous": false,
      "inputs": [
        {
          "indexed": true,
          "internalType": "uint256",
          "name": "offerId",
          "type": "uint256"
        },
        {
          "indexed": true,
          "internalType": "address",
          "name": "buyer",
          "type": "address"
        },
        {
          "indexed": false,
          "internalType": "address",
          "name": "nftContract",
          "type": "address"
        },
        {
          "indexed": false,
          "internalType": "uint256",
          "name": "tokenId",
          "type": "uint256"
        },
        {
          "indexed": false,
          "internalType": "uint256",
          "name": "amount",
          "type": "uint256"
        },
        {
          "indexed": false,
          "internalType": "uint256",
          "name": "expiration",
          "type": "uint256"
        }
      ],
      "name": "OfferMade",
      "type": "event"
    },
    {
      "anonymous": false,
      "inputs": [
        {
          "indexed": true,
          "internalType": "address",
          "name": "newOracle",
          "type": "address"
        }
      ],
      "name": "OracleUpdated",
      "type": "event"
    },
    {
      "anonymous": false,
      "inputs": [
        {
          "indexed": true,
          "internalType": "address",
          "name": "previousOwner",
          "type": "address"
        },
        {
          "indexed": true,
          "internalType": "address",
          "name": "newOwner",
          "type": "address"
        }
      ],
      "name": "OwnershipTransferred",
      "type": "event"
    },
    {
      "anonymous": false,
      "inputs": [
        {
          "indexed": false,
          "internalType": "address",
          "name": "account",
          "type": "address"
        }
      ],
      "name": "Paused",
      "type": "event"
    },
    {
      "anonymous": false,
      "inputs": [
        {
          "indexed": false,
          "internalType": "uint256",
          "name": "newFeeBps",
          "type": "uint256"
        }
      ],
      "name": "PlatformFeeUpdated",
      "type": "event"
    },
    {
      "anonymous": false,
      "inputs": [
        {
          "indexed": true,
          "internalType": "uint256",
          "name": "listingId",
          "type": "uint256"
        },
        {
          "indexed": true,
          "internalType": "address",
          "name": "buyer",
          "type": "address"
        },
        {
          "indexed": false,
          "internalType": "uint256",
          "name": "paidWei",
          "type": "uint256"
        }
      ],
      "name": "Sold",
      "type": "event"
    },
    {
      "anonymous": false,
      "inputs": [
        {
          "indexed": true,
          "internalType": "uint256",
          "name": "swapId",
          "type": "uint256"
        }
      ],
      "name": "SwapCancelled",
      "type": "event"
    },
    {
      "anonymous": false,
      "inputs": [
        {
          "indexed": true,
          "internalType": "uint256",
          "name": "swapId",
          "type": "uint256"
        }
      ],
      "name": "SwapExecuted",
      "type": "event"
    },
    {
      "anonymous": false,
      "inputs": [
        {
          "indexed": true,
          "internalType": "uint256",
          "name": "swapId",
          "type": "uint256"
        },
        {
          "indexed": true,
          "internalType": "address",
          "name": "proposer",
          "type": "address"
        },
        {
          "indexed": true,
          "internalType": "address",
          "name": "counterparty",
          "type": "address"
        }
      ],
      "name": "SwapProposed",
      "type": "event"
    },
    {
      "anonymous": false,
      "inputs": [
        {
          "indexed": false,
          "internalType": "address",
          "name": "account",
          "type": "address"
        }
      ],
      "name": "Unpaused",
      "type": "event"
    },
    {
      "anonymous": false,
      "inputs": [
        {
          "indexed": true,
          "internalType": "address",
          "name": "payee",
          "type": "address"
        },
        {
          "indexed": false,
          "internalType": "uint256",
          "name": "amount",
          "type": "uint256"
        }
      ],
      "name": "Withdrawn",
      "type": "event"
    },
    {
      "inputs": [],
      "name": "ANTI_SNIPE_DURATION",
      "outputs": [
        {
          "internalType": "uint256",
          "name": "",
          "type": "uint256"
        }
      ],
      "stateMutability": "view",
      "type": "function"
    },
    {
      "inputs": [],
      "name": "BPS_DENOMINATOR",
      "outputs": [
        {
          "internalType": "uint256",
          "name": "",
          "type": "uint256"
        }
      ],
      "stateMutability": "view",
      "type": "function"
    },
    {
      "inputs": [],
      "name": "MAX_AUCTION_DURATION",
      "outputs": [
        {
          "internalType": "uint256",
          "name": "",
          "type": "uint256"
        }
      ],
      "stateMutability": "view",
      "type": "function"
    },
    {
      "inputs": [],
      "name": "MAX_BATCH_SIZE",
      "outputs": [
        {
          "internalType": "uint256",
          "name": "",
          "type": "uint256"
        }
      ],
      "stateMutability": "view",
      "type": "function"
    },
    {
      "inputs": [],
      "name": "MAX_FEE",
      "outputs": [
        {
          "internalType": "uint256",
          "name": "",
          "type": "uint256"
        }
      ],
      "stateMutability": "view",
      "type": "function"
    },
    {
      "inputs": [],
      "name": "MIN_AUCTION_DURATION",
      "outputs": [
        {
          "internalType": "uint256",
          "name": "",
          "type": "uint256"
        }
      ],
      "stateMutability": "view",
      "type": "function"
    },
    {
      "inputs": [],
      "name": "MIN_BID_INCREMENT_BPS",
      "outputs": [
        {
          "internalType": "uint256",
          "name": "",
          "type": "uint256"
        }
      ],
      "stateMutability": "view",
      "type": "function"
    },
    {
      "inputs": [],
      "name": "SLIPPAGE_BPS",
      "outputs": [
        {
          "internalType": "uint256",
          "name": "",
          "type": "uint256"
        }
      ],
      "stateMutability": "view",
      "type": "function"
    },
    {
      "inputs": [],
      "name": "USD_WEI_FACTOR",
      "outputs": [
        {
          "internalType": "uint256",
          "name": "",
          "type": "uint256"
        }
      ],
      "stateMutability": "view",
      "type": "function"
    },
    {
      "inputs": [
        {
          "internalType": "uint256",
          "name": "offerId",
          "type": "uint256"
        }
      ],
      "name": "acceptOffer",
      "outputs": [],
      "stateMutability": "nonpayable",
      "type": "function"
    },
    {
      "inputs": [
        {
          "internalType": "uint256",
          "name": "swapId",
          "type": "uint256"
        }
      ],
      "name": "acceptSwap",
      "outputs": [],
      "stateMutability": "nonpayable",
      "type": "function"
    },
    {
      "inputs": [
        {
          "internalType": "uint256",
          "name": "",
          "type": "uint256"
        }
      ],
      "name": "auctions",
      "outputs": [
        {
          "internalType": "address",
          "name": "seller",
          "type": "address"
        },
        {
          "internalType": "address",
          "name": "nftContract",
          "type": "address"
        },
        {
          "internalType": "uint256",
          "name": "tokenId",
          "type": "uint256"
        },
        {
          "internalType": "uint256",
          "name": "startPrice",
          "type": "uint256"
        },
        {
          "internalType": "uint256",
          "name": "highestBid",
          "type": "uint256"
        },
        {
          "internalType": "address",
          "name": "highestBidder",
          "type": "address"
        },
        {
          "internalType": "uint256",
          "name": "endTime",
          "type": "uint256"
        },
        {
          "internalType": "bool",
          "name": "ended",
          "type": "bool"
        }
      ],
      "stateMutability": "view",
      "type": "function"
    },
    {
      "inputs": [
        {
          "internalType": "address",
          "name": "nftContract",
          "type": "address"
        },
        {
          "internalType": "uint256[]",
          "name": "tokenIds",
          "type": "uint256[]"
        },
        {
          "internalType": "uint256[]",
          "name": "pricesUsdCents",
          "type": "uint256[]"
        },
        {
          "internalType": "uint256[]",
          "name": "durations",
          "type": "uint256[]"
        }
      ],
      "name": "batchListNFT",
      "outputs": [
        {
          "internalType": "uint256[]",
          "name": "",
          "type": "uint256[]"
        }
      ],
      "stateMutability": "nonpayable",
      "type": "function"
    },
    {
      "inputs": [
        {
          "internalType": "uint256",
          "name": "auctionId",
          "type": "uint256"
        }
      ],
      "name": "buyDutchAuction",
      "outputs": [],
      "stateMutability": "payable",
      "type": "function"
    },
    {
      "inputs": [
        {
          "internalType": "uint256",
          "name": "listingId",
          "type": "uint256"
        }
      ],
      "name": "buyNFT",
      "outputs": [],
      "stateMutability": "payable",
      "type": "function"
    },
    {
      "inputs": [
        {
          "internalType": "uint256",
          "name": "auctionId",
          "type": "uint256"
        }
      ],
      "name": "cancelAuction",
      "outputs": [],
      "stateMutability": "nonpayable",
      "type": "function"
    },
    {
      "inputs": [
        {
          "internalType": "uint256",
          "name": "auctionId",
          "type": "uint256"
        }
      ],
      "name": "cancelDutchAuction",
      "outputs": [],
      "stateMutability": "nonpayable",
      "type": "function"
    },
    {
      "inputs": [
        {
          "internalType": "uint256",
          "name": "listingId",
          "type": "uint256"
        }
      ],
      "name": "cancelListing",
      "outputs": [],
      "stateMutability": "nonpayable",
      "type": "function"
    },
    {
      "inputs": [
        {
          "internalType": "uint256",
          "name": "offerId",
          "type": "uint256"
        }
      ],
      "name": "cancelOffer",
      "outputs": [],
      "stateMutability": "nonpayable",
      "type": "function"
    },
    {
      "inputs": [
        {
          "internalType": "uint256",
          "name": "swapId",
          "type": "uint256"
        }
      ],
      "name": "cancelSwap",
      "outputs": [],
      "stateMutability": "nonpayable",
      "type": "function"
    },
    {
      "inputs": [
        {
          "internalType": "address",
          "name": "nftContract",
          "type": "address"
        },
        {
          "internalType": "uint256",
          "name": "tokenId",
          "type": "uint256"
        },
        {
          "internalType": "uint256",
          "name": "startPrice",
          "type": "uint256"
        },
        {
          "internalType": "uint256",
          "name": "duration",
          "type": "uint256"
        }
      ],
      "name": "createAuction",
      "outputs": [
        {
          "internalType": "uint256",
          "name": "",
          "type": "uint256"
        }
      ],
      "stateMutability": "nonpayable",
      "type": "function"
    },
    {
      "inputs": [
        {
          "internalType": "address",
          "name": "nftContract",
          "type": "address"
        },
        {
          "internalType": "uint256",
          "name": "tokenId",
          "type": "uint256"
        },
        {
          "internalType": "uint256",
          "name": "startPriceUsdCents",
          "type": "uint256"
        },
        {
          "internalType": "uint256",
          "name": "endPriceUsdCents",
          "type": "uint256"
        },
        {
          "internalType": "uint256",
          "name": "duration",
          "type": "uint256"
        }
      ],
      "name": "createDutchAuction",
      "outputs": [
        {
          "internalType": "uint256",
          "name": "",
          "type": "uint256"
        }
      ],
      "stateMutability": "nonpayable",
      "type": "function"
    },
    {
      "inputs": [
        {
          "internalType": "uint256",
          "name": "",
          "type": "uint256"
        }
      ],
      "name": "dutchAuctions",
      "outputs": [
        {
          "internalType": "address",
          "name": "seller",
          "type": "address"
        },
        {
          "internalType": "address",
          "name": "nftContract",
          "type": "address"
        },
        {
          "internalType": "uint256",
          "name": "tokenId",
          "type": "uint256"
        },
        {
          "internalType": "uint256",
          "name": "startPriceUsdCents",
          "type": "uint256"
        },
        {
          "internalType": "uint256",
          "name": "endPriceUsdCents",
          "type": "uint256"
        },
        {
          "internalType": "uint256",
          "name": "startTime",
          "type": "uint256"
        },
        {
          "internalType": "uint256",
          "name": "endTime",
          "type": "uint256"
        },
        {
          "internalType": "bool",
          "name": "sold",
          "type": "bool"
        }
      ],
      "stateMutability": "view",
      "type": "function"
    },
    {
      "inputs": [
        {
          "internalType": "uint256",
          "name": "auctionId",
          "type": "uint256"
        }
      ],
      "name": "endAuction",
      "outputs": [],
      "stateMutability": "nonpayable",
      "type": "function"
    },
    {
      "inputs": [],
      "name": "getAuctionCount",
      "outputs": [
        {
          "internalType": "uint256",
          "name": "",
          "type": "uint256"
        }
      ],
      "stateMutability": "view",
      "type": "function"
    },
    {
      "inputs": [],
      "name": "getDutchAuctionCount",
      "outputs": [
        {
          "internalType": "uint256",
          "name": "",
          "type": "uint256"
        }
      ],
      "stateMutability": "view",
      "type": "function"
    },
    {
      "inputs": [
        {
          "internalType": "uint256",
          "name": "auctionId",
          "type": "uint256"
        }
      ],
      "name": "getDutchAuctionCurrentPrice",
      "outputs": [
        {
          "internalType": "uint256",
          "name": "",
          "type": "uint256"
        }
      ],
      "stateMutability": "view",
      "type": "function"
    },
    {
      "inputs": [
        {
          "internalType": "uint256",
          "name": "auctionId",
          "type": "uint256"
        }
      ],
      "name": "getDutchAuctionPriceInWei",
      "outputs": [
        {
          "internalType": "uint256",
          "name": "requiredWei",
          "type": "uint256"
        },
        {
          "internalType": "uint256",
          "name": "maxWei",
          "type": "uint256"
        }
      ],
      "stateMutability": "view",
      "type": "function"
    },
    {
      "inputs": [],
      "name": "getListingCount",
      "outputs": [
        {
          "internalType": "uint256",
          "name": "",
          "type": "uint256"
        }
      ],
      "stateMutability": "view",
      "type": "function"
    },
    {
      "inputs": [
        {
          "internalType": "uint256",
          "name": "listingId",
          "type": "uint256"
        }
      ],
      "name": "getListingPriceInWei",
      "outputs": [
        {
          "internalType": "uint256",
          "name": "requiredWei",
          "type": "uint256"
        },
        {
          "internalType": "uint256",
          "name": "maxWei",
          "type": "uint256"
        }
      ],
      "stateMutability": "view",
      "type": "function"
    },
    {
      "inputs": [],
      "name": "getOfferCount",
      "outputs": [
        {
          "internalType": "uint256",
          "name": "",
          "type": "uint256"
        }
      ],
      "stateMutability": "view",
      "type": "function"
    },
    {
      "inputs": [],
      "name": "getSwapCount",
      "outputs": [
        {
          "internalType": "uint256",
          "name": "",
          "type": "uint256"
        }
      ],
      "stateMutability": "view",
      "type": "function"
    },
    {
      "inputs": [
        {
          "internalType": "uint256",
          "name": "listingId",
          "type": "uint256"
        }
      ],
      "name": "isListingExpired",
      "outputs": [
        {
          "internalType": "bool",
          "name": "",
          "type": "bool"
        }
      ],
      "stateMutability": "view",
      "type": "function"
    },
    {
      "inputs": [
        {
          "internalType": "address",
          "name": "nftContract",
          "type": "address"
        },
        {
          "internalType": "uint256",
          "name": "tokenId",
          "type": "uint256"
        },
        {
          "internalType": "uint256",
          "name": "priceUsdCents",
          "type": "uint256"
        },
        {
          "internalType": "uint256",
          "name": "duration",
          "type": "uint256"
        }
      ],
      "name": "listNFT",
      "outputs": [
        {
          "internalType": "uint256",
          "name": "",
          "type": "uint256"
        }
      ],
      "stateMutability": "nonpayable",
      "type": "function"
    },
    {
      "inputs": [
        {
          "internalType": "uint256",
          "name": "",
          "type": "uint256"
        }
      ],
      "name": "listings",
      "outputs": [
        {
          "internalType": "address",
          "name": "seller",
          "type": "address"
        },
        {
          "internalType": "address",
          "name": "nftContract",
          "type": "address"
        },
        {
          "internalType": "uint256",
          "name": "tokenId",
          "type": "uint256"
        },
        {
          "internalType": "uint256",
          "name": "priceUsdCents",
          "type": "uint256"
        },
        {
          "internalType": "bool",
          "name": "active",
          "type": "bool"
        },
        {
          "internalType": "uint256",
          "name": "expiration",
          "type": "uint256"
        }
      ],
      "stateMutability": "view",
      "type": "function"
    },
    {
      "inputs": [
        {
          "internalType": "address",
          "name": "nftContract",
          "type": "address"
        },
        {
          "internalType": "uint256",
          "name": "tokenId",
          "type": "uint256"
        },
        {
          "internalType": "uint256",
          "name": "duration",
          "type": "uint256"
        }
      ],
      "name": "makeOffer",
      "outputs": [
        {
          "internalType": "uint256",
          "name": "",
          "type": "uint256"
        }
      ],
      "stateMutability": "payable",
      "type": "function"
    },
    {
      "inputs": [
        {
          "internalType": "uint256",
          "name": "",
          "type": "uint256"
        }
      ],
      "name": "offers",
      "outputs": [
        {
          "internalType": "address",
          "name": "buyer",
          "type": "address"
        },
        {
          "internalType": "address",
          "name": "nftContract",
          "type": "address"
        },
        {
          "internalType": "uint256",
          "name": "tokenId",
          "type": "uint256"
        },
        {
          "internalType": "uint256",
          "name": "amount",
          "type": "uint256"
        },
        {
          "internalType": "uint256",
          "name": "expiration",
          "type": "uint256"
        },
        {
          "internalType": "bool",
          "name": "active",
          "type": "bool"
        }
      ],
      "stateMutability": "view",
      "type": "function"
    },
    {
      "inputs": [
        {
          "internalType": "address",
          "name": "",
          "type": "address"
        },
        {
          "internalType": "address",
          "name": "",
          "type": "address"
        },
        {
          "internalType": "uint256",
          "name": "",
          "type": "uint256"
        },
        {
          "internalType": "bytes",
          "name": "",
          "type": "bytes"
        }
      ],
      "name": "onERC721Received",
      "outputs": [
        {
          "internalType": "bytes4",
          "name": "",
          "type": "bytes4"
        }
      ],
      "stateMutability": "pure",
      "type": "function"
    },
    {
      "inputs": [],
      "name": "oracle",
      "outputs": [
        {
          "internalType": "contract ISimpleOracle",
          "name": "",
          "type": "address"
        }
      ],
      "stateMutability": "view",
      "type": "function"
    },
    {
      "inputs": [],
      "name": "owner",
      "outputs": [
        {
          "internalType": "address",
          "name": "",
          "type": "address"
        }
      ],
      "stateMutability": "view",
      "type": "function"
    },
    {
      "inputs": [],
      "name": "pause",
      "outputs": [],
      "stateMutability": "nonpayable",
      "type": "function"
    },
    {
      "inputs": [],
      "name": "paused",
      "outputs": [
        {
          "internalType": "bool",
          "name": "",
          "type": "bool"
        }
      ],
      "stateMutability": "view",
      "type": "function"
    },
    {
      "inputs": [
        {
          "internalType": "address",
          "name": "",
          "type": "address"
        }
      ],
      "name": "pendingWithdrawals",
      "outputs": [
        {
          "internalType": "uint256",
          "name": "",
          "type": "uint256"
        }
      ],
      "stateMutability": "view",
      "type": "function"
    },
    {
      "inputs": [
        {
          "internalType": "uint256",
          "name": "auctionId",
          "type": "uint256"
        }
      ],
      "name": "placeBid",
      "outputs": [],
      "stateMutability": "payable",
      "type": "function"
    },
    {
      "inputs": [],
      "name": "platformFeeBps",
      "outputs": [
        {
          "internalType": "uint256",
          "name": "",
          "type": "uint256"
        }
      ],
      "stateMutability": "view",
      "type": "function"
    },
    {
      "inputs": [
        {
          "internalType": "address",
          "name": "counterparty",
          "type": "address"
        },
        {
          "internalType": "address",
          "name": "proposerNftContract",
          "type": "address"
        },
        {
          "internalType": "uint256",
          "name": "proposerTokenId",
          "type": "uint256"
        },
        {
          "internalType": "address",
          "name": "counterpartyNftContract",
          "type": "address"
        },
        {
          "internalType": "uint256",
          "name": "counterpartyTokenId",
          "type": "uint256"
        },
        {
          "internalType": "uint256",
          "name": "duration",
          "type": "uint256"
        }
      ],
      "name": "proposeSwap",
      "outputs": [
        {
          "internalType": "uint256",
          "name": "",
          "type": "uint256"
        }
      ],
      "stateMutability": "payable",
      "type": "function"
    },
    {
      "inputs": [],
      "name": "renounceOwnership",
      "outputs": [],
      "stateMutability": "nonpayable",
      "type": "function"
    },
    {
      "inputs": [
        {
          "internalType": "address",
          "name": "_oracle",
          "type": "address"
        }
      ],
      "name": "setOracle",
      "outputs": [],
      "stateMutability": "nonpayable",
      "type": "function"
    },
    {
      "inputs": [
        {
          "internalType": "uint256",
          "name": "feeBps",
          "type": "uint256"
        }
      ],
      "name": "setPlatformFee",
      "outputs": [],
      "stateMutability": "nonpayable",
      "type": "function"
    },
    {
      "inputs": [
        {
          "internalType": "uint256",
          "name": "",
          "type": "uint256"
        }
      ],
      "name": "swaps",
      "outputs": [
        {
          "internalType": "address",
          "name": "proposer",
          "type": "address"
        },
        {
          "internalType": "address",
          "name": "counterparty",
          "type": "address"
        },
        {
          "internalType": "address",
          "name": "proposerNftContract",
          "type": "address"
        },
        {
          "internalType": "uint256",
          "name": "proposerTokenId",
          "type": "uint256"
        },
        {
          "internalType": "address",
          "name": "counterpartyNftContract",
          "type": "address"
        },
        {
          "internalType": "uint256",
          "name": "counterpartyTokenId",
          "type": "uint256"
        },
        {
          "internalType": "uint256",
          "name": "ethTopUp",
          "type": "uint256"
        },
        {
          "internalType": "uint256",
          "name": "expiration",
          "type": "uint256"
        },
        {
          "internalType": "bool",
          "name": "active",
          "type": "bool"
        }
      ],
      "stateMutability": "view",
      "type": "function"
    },
    {
      "inputs": [
        {
          "internalType": "address",
          "name": "newOwner",
          "type": "address"
        }
      ],
      "name": "transferOwnership",
      "outputs": [],
      "stateMutability": "nonpayable",
      "type": "function"
    },
    {
      "inputs": [],
      "name": "unpause",
      "outputs": [],
      "stateMutability": "nonpayable",
      "type": "function"
    },
    {
      "inputs": [
        {
          "internalType": "uint256",
          "name": "listingId",
          "type": "uint256"
        },
        {
          "internalType": "uint256",
          "name": "newPriceUsdCents",
          "type": "uint256"
        }
      ],
      "name": "updateListingPrice",
      "outputs": [],
      "stateMutability": "nonpayable",
      "type": "function"
    },
    {
      "inputs": [],
      "name": "withdraw",
      "outputs": [],
      "stateMutability": "nonpayable",
      "type": "function"
    }
  ],
  "bytecode": "0x608060405260fa6002553480156013575f5ffd5b503380603857604051631e4fbdf760e01b81525f600482015260240160405180910390fd5b603f816068565b5060017f9b779b17422d0df92223018b32b4d1fa46e071723d6817e2486d003becc55f005560b7565b5f80546001600160a01b038381166001600160a01b0319831681178455604051919092169283917f8be0079c531659141344cd1fd0a4f28419497f9722a3daafe3b4186f6b6457e09190a35050565b613e87806100c45f395ff3fe608060405260043610610327575f3560e01c806395eae396116101a3578063c4604943116100f2578063de74e57b11610092578063f09c58291161006d578063f09c582914610a4a578063f2ab2fc014610b1c578063f2fde38b14610bd0578063f3f4370314610bef575f5ffd5b8063de74e57b1461097d578063e1a4521814610a16578063ef706adf14610a2b575f5ffd5b8063cfdbf254116100cd578063cfdbf25414610922578063d048db3714610936578063d81671bc1461094a578063ddee84331461095e575f5ffd5b8063c4604943146108c5578063c815729d146108e4578063cb91ec4f14610903575f5ffd5b8063adb1fd061161015d578063bc063e1a11610138578063bc063e1a14610873578063bcc872aa14610888578063c2f50a7a1461089c578063c44e6640146108b1575f5ffd5b8063adb1fd0614610809578063b50250a314610835578063b9a2de3a14610854575f5ffd5b806395eae3961461075e57806396b5a755146107735780639979ef45146107925780639f720c62146107a5578063a1f0f438146107c2578063a7cd11f0146107f6575f5ffd5b806351ed8288116102795780637adbf973116102195780638456cb59116101f45780638456cb591461068257806387ed92d7146106965780638a72ea6a146106aa5780638da5cb5b14610742575f5ffd5b80637adbf973146106195780637dc0d1d0146106385780637de3bd071461066f575f5ffd5b80635c975abb116102545780635c975abb146105a957806361beb1d7146105d2578063715018a6146105f157806377f8bb6d14610605575f5ffd5b806351ed8288146104b957806354d6a2b7146104cc578063571a26a0146104eb575f5ffd5b806322dcd13e116102e45780633c44a5f0116102bf5780633c44a5f01461045c5780633ccfd60b1461047b5780633f4ba83a1461048f5780633fb35178146104a3575f5ffd5b806322dcd13e1461041557806325481f5f1461042a578063305a67a81461043d575f5ffd5b8063065da6981461032b57806312e8e2c31461035d57806314414cc01461037e578063150b7a02146103935780631be66284146103d75780631bf33004146103f6575b5f5ffd5b348015610336575f5ffd5b5061034a61034536600461399e565b610c1a565b6040519081526020015b60405180910390f35b348015610368575f5ffd5b5061037c6103773660046139de565b610ff8565b005b348015610389575f5ffd5b5061034a6101f481565b34801561039e575f5ffd5b506103be6103ad3660046139f5565b630a85bd0160e11b95945050505050565b6040516001600160e01b03199091168152602001610354565b3480156103e2575f5ffd5b5061034a6103f13660046139de565b61105e565b348015610401575f5ffd5b5061037c6104103660046139de565b6110f1565b348015610420575f5ffd5b5061034a60025481565b61037c6104383660046139de565b611490565b348015610448575f5ffd5b5061037c6104573660046139de565b61165f565b348015610467575f5ffd5b5061034a610476366004613a8e565b6116fd565b348015610486575f5ffd5b5061037c61171d565b34801561049a575f5ffd5b5061037c611819565b3480156104ae575f5ffd5b5061034a62093a8081565b61037c6104c73660046139de565b611829565b3480156104d7575f5ffd5b5061037c6104e63660046139de565b611a45565b3480156104f6575f5ffd5b506105596105053660046139de565b60096020525f9081526040902080546001820154600283015460038401546004850154600586015460068701546007909701546001600160a01b039687169795871696949593949293919092169160ff1688565b604080516001600160a01b03998a16815297891660208901528701959095526060860193909352608085019190915290931660a083015260c082019290925290151560e082015261010001610354565b3480156105b4575f5ffd5b505f54600160a01b900460ff165b6040519015158152602001610354565b3480156105dd575f5ffd5b5061034a6105ec366004613a8e565b611b83565b3480156105fc575f5ffd5b5061037c611f40565b348015610610575f5ffd5b5061034a60c881565b348015610624575f5ffd5b5061037c610633366004613ac6565b611f51565b348015610643575f5ffd5b50600154610657906001600160a01b031681565b6040516001600160a01b039091168152602001610354565b61034a61067d366004613ae1565b611fc9565b34801561068d575f5ffd5b5061037c612158565b3480156106a1575f5ffd5b5060035461034a565b3480156106b5575f5ffd5b506107086106c43660046139de565b600b6020525f90815260409020805460018201546002830154600384015460048501546005909501546001600160a01b039485169593909416939192909160ff1686565b604080516001600160a01b0397881681529690951660208701529385019290925260608401526080830152151560a082015260c001610354565b34801561074d575f5ffd5b505f546001600160a01b0316610657565b348015610769575f5ffd5b5061034a61012c81565b34801561077e575f5ffd5b5061037c61078d3660046139de565b612168565b61037c6107a03660046139de565b61229b565b3480156107b0575f5ffd5b5061034a69d3c21bcecceda100000081565b3480156107cd575f5ffd5b506107e16107dc3660046139de565b6124c4565b60408051928352602083019190915201610354565b61034a610804366004613b13565b612507565b348015610814575f5ffd5b50610828610823366004613bbc565b6128bc565b6040516103549190613c6d565b348015610840575f5ffd5b506105c261084f3660046139de565b612a2e565b34801561085f575f5ffd5b5061037c61086e3660046139de565b612a58565b34801561087e575f5ffd5b5061034a6103e881565b348015610893575f5ffd5b5060055461034a565b3480156108a7575f5ffd5b5061034a610e1081565b3480156108bc575f5ffd5b5060045461034a565b3480156108d0575f5ffd5b5061037c6108df366004613caf565b612c77565b3480156108ef575f5ffd5b5061037c6108fe3660046139de565b612d46565b34801561090e575f5ffd5b506107e161091d3660046139de565b61303c565b34801561092d575f5ffd5b5061034a601481565b348015610941575f5ffd5b5060065461034a565b348015610955575f5ffd5b5060075461034a565b348015610969575f5ffd5b5061037c6109783660046139de565b61305a565b348015610988575f5ffd5b506109dc6109973660046139de565b60086020525f90815260409020805460018201546002830154600384015460048501546005909501546001600160a01b039485169594909316939192909160ff169086565b604080516001600160a01b0397881681529690951660208701529385019290925260608401521515608083015260a082015260c001610354565b348015610a21575f5ffd5b5061034a61271081565b348015610a36575f5ffd5b5061037c610a453660046139de565b613161565b348015610a55575f5ffd5b50610ac1610a643660046139de565b600c6020525f90815260409020805460018201546002830154600384015460048501546005860154600687015460078801546008909801546001600160a01b03978816989688169795861696949590931693919290919060ff1689565b604080516001600160a01b039a8b168152988a1660208a015296891696880196909652606087019490945295909116608085015260a084015260c083019390935260e082019290925290151561010082015261012001610354565b348015610b27575f5ffd5b50610b88610b363660046139de565b600a6020525f9081526040902080546001820154600283015460038401546004850154600586015460068701546007909701546001600160a01b03968716979590961695939492939192909160ff1688565b604080516001600160a01b03998a168152989097166020890152958701949094526060860192909252608085015260a084015260c0830152151560e082015261010001610354565b348015610bdb575f5ffd5b5061037c610bea366004613ac6565b61321f565b348015610bfa575f5ffd5b5061034a610c09366004613ac6565b600d6020525f908152604090205481565b5f610c2361325e565b610c2b613279565b835f03610c4b57604051637294708f60e11b815260040160405180910390fd5b838310610c6b57604051635e9e0dfd60e01b815260040160405180910390fd5b610e10821080610c7d575062093a8082115b15610c9b57604051637616640160e01b815260040160405180910390fd5b6040516331a9108f60e11b815260048101869052869033906001600160a01b03831690636352211e90602401602060405180830381865afa158015610ce2573d5f5f3e3d5ffd5b505050506040513d601f19601f82011682018060405250810190610d069190613ccf565b6001600160a01b031614610d2d576040516359dc379f60e01b815260040160405180910390fd5b60405163020604bf60e21b81526004810187905230906001600160a01b0383169063081812fc90602401602060405180830381865afa158015610d72573d5f5f3e3d5ffd5b505050506040513d601f19601f82011682018060405250810190610d969190613ccf565b6001600160a01b031614158015610e16575060405163e985e9c560e01b81523360048201523060248201526001600160a01b0382169063e985e9c590604401602060405180830381865afa158015610df0573d5f5f3e3d5ffd5b505050506040513d601f19601f82011682018060405250810190610e149190613cea565b155b15610e345760405163a9248d2560e01b815260040160405180910390fd5b6040516323b872dd60e01b81526001600160a01b038216906323b872dd90610e6490339030908b90600401613d09565b5f604051808303815f87803b158015610e7b575f5ffd5b505af1158015610e8d573d5f5f3e3d5ffd5b5050600580545f9350915082610ea283613d41565b919050559050604051806101000160405280336001600160a01b03168152602001896001600160a01b031681526020018881526020018781526020018681526020014281526020018542610ef69190613d59565b81525f6020918201819052838152600a8252604090819020835181546001600160a01b03199081166001600160a01b03928316178355938501516001830180549095169116179092558201516002820155606082015160038201556080820151600482015560a0820151600582015560c0820151600682015560e0909101516007909101805460ff191691151591909117905533817f35fcdd210845c48febf8dc54033b59cadf5f93c028fb1230842033e4ea6897998888610fb88942613d59565b6040805193845260208401929092529082015260600160405180910390a3915050610fef60015f516020613e325f395f51905f5255565b95945050505050565b6110006132a3565b6103e88111156110235760405163cd4e616760e01b815260040160405180910390fd5b60028190556040518181527f45610d581145924dd7090a5017e5f2b1d6f42213bb2e95707ff86846bbfcb1ca9060200160405180910390a150565b5f818152600a6020526040812060068101544210611080576004015492915050565b5f8160050154426110919190613d72565b90505f826005015483600601546110a89190613d72565b90505f8183856004015486600301546110c19190613d72565b6110cb9190613d85565b6110d59190613d9c565b90508084600301546110e79190613d72565b9695505050505050565b6110f961325e565b611101613279565b5f818152600c60205260409020600881015460ff166111335760405163cac0f49d60e01b815260040160405180910390fd5b60018101546001600160a01b03163314611160576040516389f5ad6160e01b815260040160405180910390fd5b806007015442111561118557604051632b32713d60e01b815260040160405180910390fd5b60048181015460058301546040516331a9108f60e11b8152928301526001600160a01b03169033908290636352211e90602401602060405180830381865afa1580156111d3573d5f5f3e3d5ffd5b505050506040513d601f19601f820116820180604052508101906111f79190613ccf565b6001600160a01b03161461121e576040516359dc379f60e01b815260040160405180910390fd5b600582015460405163020604bf60e21b815230916001600160a01b0384169163081812fc916112539160040190815260200190565b602060405180830381865afa15801561126e573d5f5f3e3d5ffd5b505050506040513d601f19601f820116820180604052508101906112929190613ccf565b6001600160a01b031614158015611312575060405163e985e9c560e01b81523360048201523060248201526001600160a01b0382169063e985e9c590604401602060405180830381865afa1580156112ec573d5f5f3e3d5ffd5b505050506040513d601f19601f820116820180604052508101906113109190613cea565b155b156113305760405163a9248d2560e01b815260040160405180910390fd5b60088201805460ff19169055600682015415611372576004820154600583015460018401546006850154611372936001600160a01b03908116939216906132cf565b600282015460018301546003840154604051632142170760e11b81526001600160a01b03938416936342842e0e936113b39330939290911691600401613d09565b5f604051808303815f87803b1580156113ca575f5ffd5b505af11580156113dc573d5f5f3e3d5ffd5b505050600183015483546005850154604051632142170760e11b81526001600160a01b0380871695506342842e0e9461141e9490821693911691600401613d09565b5f604051808303815f87803b158015611435575f5ffd5b505af1158015611447573d5f5f3e3d5ffd5b50506040518592507f8d92c805c252261fcfff21ee60740eb8a38922469a7e6ee396976d57c22fc1c991505f90a2505061148d60015f516020613e325f395f51905f5255565b50565b61149861325e565b6114a0613279565b5f818152600a60205260409020600781015460ff16156114d357604051634b74dc9760e11b815260040160405180910390fd5b80546001600160a01b031633036114fd57604051632aa3c9e960e01b815260040160405180910390fd5b5f6115078361105e565b90505f61151382613478565b9050803410156115365760405163cd1c886760e01b815260040160405180910390fd5b60078301805460ff191660019081179091558301546002840154845461156a926001600160a01b03908116929116846132cf565b5f6115758234613d72565b905080156115a157335f908152600d60205260408120805483929061159b908490613d59565b90915550505b60018401546002850154604051632142170760e11b81526001600160a01b03909216916342842e0e916115da9130913391600401613d09565b5f604051808303815f87803b1580156115f1575f5ffd5b505af1158015611603573d5f5f3e3d5ffd5b505060408051868152602081018690523393508892507f08af6336c121868adf8c691a0ff68a8d1f4a926efdeca3b662fbc6c7931b370a91015b60405180910390a35050505061148d60015f516020613e325f395f51905f5255565b611667613279565b5f818152600860205260409020600481015460ff16611699576040516366cb03e960e01b815260040160405180910390fd5b80546001600160a01b031633146116c3576040516322087f4960e11b815260040160405180910390fd5b60048101805460ff1916905560405182907f411aee90354c51b1b04cd563fcab2617142a9d50da19232d888547c8a1b7fd8a905f90a25050565b5f611706613279565b61171285858585613563565b90505b949350505050565b61172561325e565b335f908152600d60205260408120549081900361175557604051630686827b60e51b815260040160405180910390fd5b335f818152600d60205260408082208290555190919083908381818185875af1925050503d805f81146117a3576040519150601f19603f3d011682016040523d82523d5f602084013e6117a8565b606091505b50509050806117ca576040516312171d8360e31b815260040160405180910390fd5b60405182815233907f7084f5476618d8e60b11ef0d7d3f06914655adb8793e28ff7f018d4c76d505d59060200160405180910390a2505061181760015f516020613e325f395f51905f5255565b565b6118216132a3565b61181761384d565b61183161325e565b611839613279565b5f818152600860205260409020600481015460ff1661186b576040516366cb03e960e01b815260040160405180910390fd5b6005810154158015906118815750806005015442115b1561189f57604051632eb19f9d60e01b815260040160405180910390fd5b80546001600160a01b031633036118c957604051632aa3c9e960e01b815260040160405180910390fd5b5f6118d78260030154613478565b9050803410156118fa5760405163cd1c886760e01b815260040160405180910390fd5b5f61271061190960c884613d85565b6119139190613d9c565b61191d9083613d59565b90508034111561194057604051631e33487360e11b815260040160405180910390fd5b60048301805460ff19169055600183015460028401548454611970926001600160a01b03908116929116856132cf565b5f61197b8334613d72565b905080156119a757335f908152600d6020526040812080548392906119a1908490613d59565b90915550505b600184015484546002860154604051632142170760e11b81526001600160a01b03938416936342842e0e936119e493911691339190600401613d09565b5f604051808303815f87803b1580156119fb575f5ffd5b505af1158015611a0d573d5f5f3e3d5ffd5b50506040518581523392508791507f66f5cd880edf48cdde6c966e5da0784fcc4c5e85572b8b3b62c4357798d447d79060200161163d565b5f818152600c60205260409020600881015460ff16611a775760405163cac0f49d60e01b815260040160405180910390fd5b80546001600160a01b03163314611aa1576040516322087f4960e11b815260040160405180910390fd5b60088101805460ff19169055600281015481546003830154604051632142170760e11b81526001600160a01b03938416936342842e0e93611aeb9330939290911691600401613d09565b5f604051808303815f87803b158015611b02575f5ffd5b505af1158015611b14573d5f5f3e3d5ffd5b50505050600681015415611b5557600681015481546001600160a01b03165f908152600d602052604081208054909190611b4f908490613d59565b90915550505b60405182907ff6b6b4f7a13f02512c1b3aa8dcc4a07d7775a6a4becbd439efcbd37c5408e67f905f90a25050565b5f611b8c61325e565b611b94613279565b825f03611bb457604051637294708f60e11b815260040160405180910390fd5b610e10821080611bc6575062093a8082115b15611be457604051637616640160e01b815260040160405180910390fd5b6040516331a9108f60e11b815260048101859052859033906001600160a01b03831690636352211e90602401602060405180830381865afa158015611c2b573d5f5f3e3d5ffd5b505050506040513d601f19601f82011682018060405250810190611c4f9190613ccf565b6001600160a01b031614611c76576040516359dc379f60e01b815260040160405180910390fd5b60405163020604bf60e21b81526004810186905230906001600160a01b0383169063081812fc90602401602060405180830381865afa158015611cbb573d5f5f3e3d5ffd5b505050506040513d601f19601f82011682018060405250810190611cdf9190613ccf565b6001600160a01b031614158015611d5f575060405163e985e9c560e01b81523360048201523060248201526001600160a01b0382169063e985e9c590604401602060405180830381865afa158015611d39573d5f5f3e3d5ffd5b505050506040513d601f19601f82011682018060405250810190611d5d9190613cea565b155b15611d7d5760405163a9248d2560e01b815260040160405180910390fd5b6040516323b872dd60e01b81526001600160a01b038216906323b872dd90611dad90339030908a90600401613d09565b5f604051808303815f87803b158015611dc4575f5ffd5b505af1158015611dd6573d5f5f3e3d5ffd5b5050600480545f9350915082611deb83613d41565b9091555060408051610100810182523381526001600160a01b038a166020820152908101889052606081018790525f6080820181905260a082015290915060c08101611e378642613d59565b81525f602091820181905283815260098252604090819020835181546001600160a01b03199081166001600160a01b03928316178355938501516001830180548616918316919091179055918401516002820155606084015160038201556080840151600482015560a08401516005820180549094169083161790925560c0830151600683015560e0909201516007909101805460ff1916911515919091179055871633827f06b9e486c68303eb64052e0493f906f3d93a1b7149b6b8dcff221aebd16c35138989611f098a42613d59565b6040805193845260208401929092529082015260600160405180910390a491505061171560015f516020613e325f395f51905f5255565b611f486132a3565b6118175f6138a1565b611f596132a3565b6001600160a01b038116611f8057604051633e1e538160e21b815260040160405180910390fd5b600180546001600160a01b0319166001600160a01b0383169081179091556040517f3df77beb5db05fcdd70a30fc8adf3f83f9501b68579455adbd100b8180940394905f90a250565b5f611fd2613279565b345f03611ff257604051637294708f60e11b815260040160405180910390fd5b610e10821080612004575062093a8082115b1561202257604051637616640160e01b815260040160405180910390fd5b600680545f918261203283613d41565b909155506040805160c0810182523381526001600160a01b03881660208201529081018690523460608201529091506080810161206f8542613d59565b8152600160209182018190525f848152600b8352604090819020845181546001600160a01b03199081166001600160a01b03928316178355948601519382018054909516931692909217909255908201516002820155606082015160038201556080820151600482015560a0909101516005909101805460ff191691151591909117905533817f1a8e4806e9c3198b224bf5fd328ba7488ee72334ba823076cf52dbfce562ffae8787346121238942613d59565b604080516001600160a01b039095168552602085019390935291830152606082015260800160405180910390a3949350505050565b6121606132a3565b6118176138f0565b5f818152600960205260409020600781015460ff161561219b5760405163d02e774d60e01b815260040160405180910390fd5b80546001600160a01b031633146121c5576040516322087f4960e11b815260040160405180910390fd5b60058101546001600160a01b0316156121f1576040516335473acb60e01b815260040160405180910390fd5b60078101805460ff1916600190811790915581015481546002830154604051632142170760e11b81526001600160a01b03938416936342842e0e93612240933093919092169190600401613d09565b5f604051808303815f87803b158015612257575f5ffd5b505af1158015612269573d5f5f3e3d5ffd5b50506040518492507f2809c7e17bf978fbc7194c0a694b638c4215e9140cacc6c38ca36010b45697df91505f90a25050565b6122a361325e565b6122ab613279565b5f818152600960205260409020600781015460ff16156122de5760405163d02e774d60e01b815260040160405180910390fd5b8060060154421061230257604051630129799f60e21b815260040160405180910390fd5b80546001600160a01b0316330361232c5760405163ef02588960e01b815260040160405180910390fd5b806003015434101561235157604051636cdfbd7360e01b815260040160405180910390fd5b6004810154156123af575f6127106101f483600401546123719190613d85565b61237b9190613d9c565b826004015461238a9190613d59565b9050803410156123ad57604051630ec4b5eb60e31b815260040160405180910390fd5b505b60058101546001600160a01b0316156123f857600481015460058201546001600160a01b03165f908152600d6020526040812080549091906123f2908490613d59565b90915550505b3460048201556005810180546001600160a01b03191633179055600681015461012c90612426904290613d72565b10156124755761243861012c42613d59565b6006820181905560405190815282907f6e912a3a9105bdd2af817ba5adc14e6c127c1035b5b648faa29ca0d58ab8ff4e9060200160405180910390a25b604051348152339083907f0e54eff26401bf69b81b26f60bd85ef47f5d85275c1d268d84f68d6897431c47906020015b60405180910390a35061148d60015f516020613e325f395f51905f5255565b5f5f5f6124d08461105e565b90506124db81613478565b92506127106124eb60c885613d85565b6124f59190613d9c565b6124ff9084613d59565b915050915091565b5f61251061325e565b612518613279565b610e1082108061252a575062093a8082115b1561254857604051637616640160e01b815260040160405180910390fd5b6040516331a9108f60e11b815260048101869052869033906001600160a01b03831690636352211e90602401602060405180830381865afa15801561258f573d5f5f3e3d5ffd5b505050506040513d601f19601f820116820180604052508101906125b39190613ccf565b6001600160a01b0316146125da576040516359dc379f60e01b815260040160405180910390fd5b60405163020604bf60e21b81526004810187905230906001600160a01b0383169063081812fc90602401602060405180830381865afa15801561261f573d5f5f3e3d5ffd5b505050506040513d601f19601f820116820180604052508101906126439190613ccf565b6001600160a01b0316141580156126c3575060405163e985e9c560e01b81523360048201523060248201526001600160a01b0382169063e985e9c590604401602060405180830381865afa15801561269d573d5f5f3e3d5ffd5b505050506040513d601f19601f820116820180604052508101906126c19190613cea565b155b156126e15760405163a9248d2560e01b815260040160405180910390fd5b6040516323b872dd60e01b81526001600160a01b038216906323b872dd9061271190339030908b90600401613d09565b5f604051808303815f87803b158015612728575f5ffd5b505af115801561273a573d5f5f3e3d5ffd5b5050600780545f935091508261274f83613d41565b919050559050604051806101200160405280336001600160a01b031681526020018a6001600160a01b03168152602001896001600160a01b03168152602001888152602001876001600160a01b0316815260200186815260200134815260200185426127bb9190613d59565b8152600160209182018190525f848152600c83526040808220855181546001600160a01b03199081166001600160a01b039283161783559587015194820180548716958216959095179094558582015160028201805487169186169190911790556060860151600382015560808601516004820180549096169085161790945560a0850151600585015560c0850151600685015560e08501516007850155610100909401516008909301805460ff1916931515939093179092559151918b1691339184917f39d8683e02d07786a66eb86f938b372fd826475e504c6ce2819a6316fda997899190a49150506110e760015f516020613e325f395f51905f5255565b60606128c6613279565b8584811415806128d65750808314155b156128f45760405163512509d360e11b815260040160405180910390fd5b6014811115612916576040516305beb17160e11b815260040160405180910390fd5b5f8167ffffffffffffffff81111561293057612930613dbb565b604051908082528060200260200182016040528015612959578160200160208202803683370190505b5090505f5b828110156129df576129ba8b8b8b8481811061297c5761297c613dcf565b905060200201358a8a8581811061299557612995613dcf565b905060200201358989868181106129ae576129ae613dcf565b90506020020135613563565b8282815181106129cc576129cc613dcf565b602090810291909101015260010161295e565b50336001600160a01b03167f20bab890e3c2b44bebb771f1dfd0de19c2b0e5635e15c42d1c08e7ab45795cc382604051612a199190613c6d565b60405180910390a29998505050505050505050565b5f818152600860205260408120600581015415801590612a515750806005015442115b9392505050565b612a6061325e565b5f818152600960205260409020600781015460ff1615612a935760405163d02e774d60e01b815260040160405180910390fd5b8060060154421015612ab857604051639eafe1b760e01b815260040160405180910390fd5b60078101805460ff1916600117905560058101546001600160a01b031615612bc1576001810154600282015482546004840154612b03936001600160a01b03908116939216906132cf565b600181015460058201546002830154604051632142170760e11b81526001600160a01b03938416936342842e0e93612b449330939290911691600401613d09565b5f604051808303815f87803b158015612b5b575f5ffd5b505af1158015612b6d573d5f5f3e3d5ffd5b50505050600581015460048201546040519081526001600160a01b039091169083907fd2aa34a4fdbbc6dff6a3e56f46e0f3ae2a31d7785ff3487aa5c95c642acea5019060200160405180910390a3612c60565b600181015481546002830154604051632142170760e11b81526001600160a01b03938416936342842e0e93612bff9330939290911691600401613d09565b5f604051808303815f87803b158015612c16575f5ffd5b505af1158015612c28573d5f5f3e3d5ffd5b50506040515f80825292508491507fd2aa34a4fdbbc6dff6a3e56f46e0f3ae2a31d7785ff3487aa5c95c642acea501906020016124a5565b5061148d60015f516020613e325f395f51905f5255565b612c7f613279565b5f828152600860205260409020600481015460ff16612cb1576040516366cb03e960e01b815260040160405180910390fd5b80546001600160a01b03163314612cdb576040516322087f4960e11b815260040160405180910390fd5b815f03612cfb57604051637294708f60e11b815260040160405180910390fd5b60038101805490839055604080518281526020810185905285917f36cfe22dfcf2d3781d9de6b307d67a5431b45492dad5e70e53dd4af34c25b849910160405180910390a250505050565b612d4e61325e565b612d56613279565b5f818152600b60205260409020600581015460ff16612d8857604051634d80826b60e11b815260040160405180910390fd5b8060040154421115612dad57604051639cb1308760e01b815260040160405180910390fd5b600181015460028201546040516331a9108f60e11b81526001600160a01b039092169133918391636352211e91612dea9160040190815260200190565b602060405180830381865afa158015612e05573d5f5f3e3d5ffd5b505050506040513d601f19601f82011682018060405250810190612e299190613ccf565b6001600160a01b031614612e50576040516359dc379f60e01b815260040160405180910390fd5b600282015460405163020604bf60e21b815230916001600160a01b0384169163081812fc91612e859160040190815260200190565b602060405180830381865afa158015612ea0573d5f5f3e3d5ffd5b505050506040513d601f19601f82011682018060405250810190612ec49190613ccf565b6001600160a01b031614158015612f44575060405163e985e9c560e01b81523360048201523060248201526001600160a01b0382169063e985e9c590604401602060405180830381865afa158015612f1e573d5f5f3e3d5ffd5b505050506040513d601f19601f82011682018060405250810190612f429190613cea565b155b15612f625760405163a9248d2560e01b815260040160405180910390fd5b60058201805460ff19169055600182015460028301546003840154612f93926001600160a01b0316919033906132cf565b81546002830154604051632142170760e11b81526001600160a01b03848116936342842e0e93612fcb93339390921691600401613d09565b5f604051808303815f87803b158015612fe2575f5ffd5b505af1158015612ff4573d5f5f3e3d5ffd5b50506040513392508591507fa7a40af5a1d0c10a3eb94af90cb008170915e8a71a6aaff052794cd762c72fc0905f90a3505061148d60015f516020613e325f395f51905f5255565b5f81815260086020526040812060038101548291906124db90613478565b5f818152600a60205260409020600781015460ff161561308d57604051634b74dc9760e11b815260040160405180910390fd5b80546001600160a01b031633146130b7576040516322087f4960e11b815260040160405180910390fd5b60078101805460ff1916600190811790915581015481546002830154604051632142170760e11b81526001600160a01b03938416936342842e0e93613106933093919092169190600401613d09565b5f604051808303815f87803b15801561311d575f5ffd5b505af115801561312f573d5f5f3e3d5ffd5b50506040518492507f2e78756868081fae5204bbe1e151c8934c2d7dcf6f4cdba38a18c3ee09f9767091505f90a25050565b5f818152600b60205260409020600581015460ff1661319357604051634d80826b60e11b815260040160405180910390fd5b80546001600160a01b031633146131bd576040516322087f4960e11b815260040160405180910390fd5b60058101805460ff191690556003810154335f908152600d6020526040812080549091906131ec908490613d59565b909155505060405182907fc28b4aed030bfacc245c0501326e1beb8c0ef0d60e4edc21067fdeb52da2a7aa905f90a25050565b6132276132a3565b6001600160a01b03811661325557604051631e4fbdf760e01b81525f60048201526024015b60405180910390fd5b61148d816138a1565b613266613932565b60025f516020613e325f395f51905f5255565b5f54600160a01b900460ff16156118175760405163d93c066560e01b815260040160405180910390fd5b5f546001600160a01b031633146118175760405163118cdaa760e01b815233600482015260240161324c565b5f612710600254836132e19190613d85565b6132eb9190613d9c565b60405163152a902d60e11b815260048101869052602481018490529091505f9081906001600160a01b03881690632a55205a906044016040805180830381865afa925050508015613359575060408051601f3d908101601f1916820190925261335691810190613de3565b60015b1561336357925090505b6001600160a01b038116613375575f91505b836133808385613d59565b111561338c57505f9050805b5f826133988587613d72565b6133a29190613d72565b905083156133f25783600d5f6133bf5f546001600160a01b031690565b6001600160a01b03166001600160a01b031681526020019081526020015f205f8282546133ec9190613d59565b90915550505b5f8311801561340957506001600160a01b03821615155b1561343b576001600160a01b0382165f908152600d602052604081208054859290613435908490613d59565b90915550505b801561346e576001600160a01b0386165f908152600d602052604081208054839290613468908490613d59565b90915550505b5050505050505050565b6001545f906001600160a01b03166134a357604051633e1e538160e21b815260040160405180910390fd5b60015460408051638e15f47360e01b815281515f936001600160a01b031692638e15f47392600480820193918290030181865afa1580156134e6573d5f5f3e3d5ffd5b505050506040513d601f19601f8201168201806040525081019061350a9190613e0f565b509050805f0361352d57604051633e1e538160e21b815260040160405180910390fd5b8060018161354569d3c21bcecceda100000087613d85565b61354f9190613d59565b6135599190613d72565b612a519190613d9c565b5f825f0361358457604051637294708f60e11b815260040160405180910390fd5b6040516331a9108f60e11b815260048101859052859033906001600160a01b03831690636352211e90602401602060405180830381865afa1580156135cb573d5f5f3e3d5ffd5b505050506040513d601f19601f820116820180604052508101906135ef9190613ccf565b6001600160a01b031614613616576040516359dc379f60e01b815260040160405180910390fd5b60405163020604bf60e21b81526004810186905230906001600160a01b0383169063081812fc90602401602060405180830381865afa15801561365b573d5f5f3e3d5ffd5b505050506040513d601f19601f8201168201806040525081019061367f9190613ccf565b6001600160a01b0316141580156136ff575060405163e985e9c560e01b81523360048201523060248201526001600160a01b0382169063e985e9c590604401602060405180830381865afa1580156136d9573d5f5f3e3d5ffd5b505050506040513d601f19601f820116820180604052508101906136fd9190613cea565b155b1561371d5760405163a9248d2560e01b815260040160405180910390fd5b5f83156137335761372e8442613d59565b613735565b5f5b600380549192505f91908261374983613d41565b909155506040805160c081018252338082526001600160a01b038c811660208085018281528587018f8152606087018f815260016080890181815260a08a018e81525f8d81526008909752958b902099518a549089166001600160a01b0319918216178b559451918a01805492909816919094161790955551600287015592516003860155915160048501805491151560ff19909216919091179055905160059093019290925591519293509183907f1d2286580411f12056775bf9e0fd10101148b09a6fca67c9f426fb113a28d1f89061383a908c908c9089909283526020830191909152604082015260600190565b60405180910390a4979650505050505050565b613855613961565b5f805460ff60a01b191690557f5db9ee0a495bf2e6ff9c91a7834c1ba4fdd244a5e8aa4e537bd38aeae4b073aa335b6040516001600160a01b03909116815260200160405180910390a1565b5f80546001600160a01b038381166001600160a01b0319831681178455604051919092169283917f8be0079c531659141344cd1fd0a4f28419497f9722a3daafe3b4186f6b6457e09190a35050565b6138f8613279565b5f805460ff60a01b1916600160a01b1790557f62e78cea01bee320cd4e420270b5ea74000d11b0c9f74754ebdbfc544b05a2586138843390565b5f516020613e325f395f51905f525460020361181757604051633ee5aeb560e01b815260040160405180910390fd5b5f54600160a01b900460ff1661181757604051638dfc202b60e01b815260040160405180910390fd5b6001600160a01b038116811461148d575f5ffd5b5f5f5f5f5f60a086880312156139b2575f5ffd5b85356139bd8161398a565b97602087013597506040870135966060810135965060800135945092505050565b5f602082840312156139ee575f5ffd5b5035919050565b5f5f5f5f5f60808688031215613a09575f5ffd5b8535613a148161398a565b94506020860135613a248161398a565b935060408601359250606086013567ffffffffffffffff811115613a46575f5ffd5b8601601f81018813613a56575f5ffd5b803567ffffffffffffffff811115613a6c575f5ffd5b886020828401011115613a7d575f5ffd5b959894975092955050506020019190565b5f5f5f5f60808587031215613aa1575f5ffd5b8435613aac8161398a565b966020860135965060408601359560600135945092505050565b5f60208284031215613ad6575f5ffd5b8135612a518161398a565b5f5f5f60608486031215613af3575f5ffd5b8335613afe8161398a565b95602085013595506040909401359392505050565b5f5f5f5f5f5f60c08789031215613b28575f5ffd5b8635613b338161398a565b95506020870135613b438161398a565b9450604087013593506060870135613b5a8161398a565b9598949750929560808101359460a0909101359350915050565b5f5f83601f840112613b84575f5ffd5b50813567ffffffffffffffff811115613b9b575f5ffd5b6020830191508360208260051b8501011115613bb5575f5ffd5b9250929050565b5f5f5f5f5f5f5f6080888a031215613bd2575f5ffd5b8735613bdd8161398a565b9650602088013567ffffffffffffffff811115613bf8575f5ffd5b613c048a828b01613b74565b909750955050604088013567ffffffffffffffff811115613c23575f5ffd5b613c2f8a828b01613b74565b909550935050606088013567ffffffffffffffff811115613c4e575f5ffd5b613c5a8a828b01613b74565b989b979a50959850939692959293505050565b602080825282518282018190525f918401906040840190835b81811015613ca4578351835260209384019390920191600101613c86565b509095945050505050565b5f5f60408385031215613cc0575f5ffd5b50508035926020909101359150565b5f60208284031215613cdf575f5ffd5b8151612a518161398a565b5f60208284031215613cfa575f5ffd5b81518015158114612a51575f5ffd5b6001600160a01b039384168152919092166020820152604081019190915260600190565b634e487b7160e01b5f52601160045260245ffd5b5f60018201613d5257613d52613d2d565b5060010190565b80820180821115613d6c57613d6c613d2d565b92915050565b81810381811115613d6c57613d6c613d2d565b8082028115828204841417613d6c57613d6c613d2d565b5f82613db657634e487b7160e01b5f52601260045260245ffd5b500490565b634e487b7160e01b5f52604160045260245ffd5b634e487b7160e01b5f52603260045260245ffd5b5f5f60408385031215613df4575f5ffd5b8251613dff8161398a565b6020939093015192949293505050565b5f5f60408385031215613e20575f5ffd5b50508051602090910151909290915056fe9b779b17422d0df92223018b32b4d1fa46e071723d6817e2486d003becc55f00a2646970667358221220705e5992ab1d63374d3da50bd281fcdc5bd7a5c3c4b256f9bebdbfd6cf4203b364736f6c634300081c0033",
  "linkReferences": {},
  "deployedLinkReferences": {}
}