{
  "_format": "hh-sol-artifact-1",
  "contractName": "NFTMarketplace",
  "sourceName": "contracts/NFTMarketplace.sol",
  "abi": [
    {
      "inputs": [],
      "stateMutability": "nonpayable",
      "type": "constructor"
    },
    {
      "inputs": [],
      "name": "AuctionAlreadyEnded",
      "type": "error"
    },
    {
      "inputs": [],
      "name": "AuctionExpired",
      "type": "error"
    },
    {
      "inputs": [],
      "name": "AuctionHasBids",
      "type": "error"
    },
    {
      "inputs": [],
      "name": "AuctionNotExpired",
      "type": "error"
    },
    {
      "inputs": [],
      "name": "BidBelowStartPrice",
      "type": "error"
    },
    {
      "inputs": [],
      "name": "BidIncrementTooLow",
      "type": "error"
    },
    {
      "inputs": [],
      "name": "BidTooLow",
      "type": "error"
    },
    {
      "inputs": [],
      "name": "EnforcedPause",
      "type": "error"
    },
    {
      "inputs": [],
      "name": "ExpectedPause",
      "type": "error"
    },
    {
      "inputs": [],
      "name": "FeeTooHigh",
      "type": "error"
    },
    {
      "inputs": [],
      "name": "IncorrectPrice",
      "type": "error"
    },
    {
      "inputs": [],
      "name": "InvalidDuration",
      "type": "error"
    },
    {
      "inputs": [],
      "name": "ListingExpiredError",
      "type": "error"
    },
    {
      "inputs": [],
      "name": "ListingNotActive",
      "type": "error"
    },
    {
      "inputs": [],
      "name": "MarketplaceNotApproved",
      "type": "error"
    },
    {
      "inputs": [],
      "name": "NotTheSeller",
      "type": "error"
    },
    {
      "inputs": [],
      "name": "NotTokenOwner",
      "type": "error"
    },
    {
      "inputs": [],
      "name": "NothingToWithdraw",
      "type": "error"
    },
    {
      "inputs": [
        {
          "internalType": "address",
          "name": "owner",
          "type": "address"
        }
      ],
      "name": "OwnableInvalidOwner",
      "type": "error"
    },
    {
      "inputs": [
        {
          "internalType": "address",
          "name": "account",
          "type": "address"
        }
      ],
      "name": "OwnableUnauthorizedAccount",
      "type": "error"
    },
    {
      "inputs": [],
      "name": "PriceZero",
      "type": "error"
    },
    {
      "inputs": [],
      "name": "ReentrancyGuardReentrantCall",
      "type": "error"
    },
    {
      "inputs": [],
      "name": "SellerCannotBid",
      "type": "error"
    },
    {
      "inputs": [],
      "name": "SellerCannotBuy",
      "type": "error"
    },
    {
      "inputs": [],
      "name": "TransferFailed",
      "type": "error"
    },
    {
      "anonymous": false,
      "inputs": [
        {
          "indexed": true,
          "internalType": "uint256",
          "name": "auctionId",
          "type": "uint256"
        }
      ],
      "name": "AuctionCancelled",
      "type": "event"
    },
    {
      "anonymous": false,
      "inputs": [
        {
          "indexed": true,
          "internalType": "uint256",
          "name": "auctionId",
          "type": "uint256"
        },
        {
          "indexed": true,
          "internalType": "address",
          "name": "seller",
          "type": "address"
        },
        {
          "indexed": false,
          "internalType": "address",
          "name": "nftContract",
          "type": "address"
        },
        {
          "indexed": false,
          "internalType": "uint256",
          "name": "tokenId",
          "type": "uint256"
        },
        {
          "indexed": false,
          "internalType": "uint256",
          "name": "startPrice",
          "type": "uint256"
        },
        {
          "indexed": false,
          "internalType": "uint256",
          "name": "endTime",
          "type": "uint256"
        }
      ],
      "name": "AuctionCreated",
      "type": "event"
    },
    {
      "anonymous": false,
      "inputs": [
        {
          "indexed": true,
          "internalType": "uint256",
          "name": "auctionId",
          "type": "uint256"
        },
        {
          "indexed": true,
          "internalType": "address",
          "name": "winner",
          "type": "address"
        },
        {
          "indexed": false,
          "internalType": "uint256",
          "name": "amount",
          "type": "uint256"
        }
      ],
      "name": "AuctionEnded",
      "type": "event"
    },
    {
      "anonymous": false,
      "inputs": [
        {
          "indexed": true,
          "internalType": "uint256",
          "name": "auctionId",
          "type": "uint256"
        },
        {
          "indexed": true,
          "internalType": "address",
          "name": "bidder",
          "type": "address"
        },
        {
          "indexed": false,
          "internalType": "uint256",
          "name": "amount",
          "type": "uint256"
        }
      ],
      "name": "BidPlaced",
      "type": "event"
    },
    {
      "anonymous": false,
      "inputs": [
        {
          "indexed": true,
          "internalType": "uint256",
          "name": "listingId",
          "type": "uint256"
        },
        {
          "indexed": true,
          "internalType": "address",
          "name": "seller",
          "type": "address"
        },
        {
          "indexed": false,
          "internalType": "address",
          "name": "nftContract",
          "type": "address"
        },
        {
          "indexed": false,
          "internalType": "uint256",
          "name": "tokenId",
          "type": "uint256"
        },
        {
          "indexed": false,
          "internalType": "uint256",
          "name": "price",
          "type": "uint256"
        },
        {
          "indexed": false,
          "internalType": "uint256",
          "name": "expiration",
          "type": "uint256"
        }
      ],
      "name": "Listed",
      "type": "event"
    },
    {
      "anonymous": false,
      "inputs": [
        {
          "indexed": true,
          "internalType": "uint256",
          "name": "listingId",
          "type": "uint256"
        }
      ],
      "name": "ListingCancelled",
      "type": "event"
    },
    {
      "anonymous": false,
      "inputs": [
        {
          "indexed": true,
          "internalType": "uint256",
          "name": "listingId",
          "type": "uint256"
        },
        {
          "indexed": false,
          "internalType": "uint256",
          "name": "oldPrice",
          "type": "uint256"
        },
        {
          "indexed": false,
          "internalType": "uint256",
          "name": "newPrice",
          "type": "uint256"
        }
      ],
      "name": "ListingPriceUpdated",
      "type": "event"
    },
    {
      "anonymous": false,
      "inputs": [
        {
          "indexed": true,
          "internalType": "address",
          "name": "previousOwner",
          "type": "address"
        },
        {
          "indexed": true,
          "internalType": "address",
          "name": "newOwner",
          "type": "address"
        }
      ],
      "name": "OwnershipTransferred",
      "type": "event"
    },
    {
      "anonymous": false,
      "inputs": [
        {
          "indexed": false,
          "internalType": "address",
          "name": "account",
          "type": "address"
        }
      ],
      "name": "Paused",
      "type": "event"
    },
    {
      "anonymous": false,
      "inputs": [
        {
          "indexed": false,
          "internalType": "uint256",
          "name": "newFeeBps",
          "type": "uint256"
        }
      ],
      "name": "PlatformFeeUpdated",
      "type": "event"
    },
    {
      "anonymous": false,
      "inputs": [
        {
          "indexed": true,
          "internalType": "uint256",
          "name": "listingId",
          "type": "uint256"
        },
        {
          "indexed": true,
          "internalType": "address",
          "name": "buyer",
          "type": "address"
        },
        {
          "indexed": false,
          "internalType": "uint256",
          "name": "price",
          "type": "uint256"
        }
      ],
      "name": "Sold",
      "type": "event"
    },
    {
      "anonymous": false,
      "inputs": [
        {
          "indexed": false,
          "internalType": "address",
          "name": "account",
          "type": "address"
        }
      ],
      "name": "Unpaused",
      "type": "event"
    },
    {
      "anonymous": false,
      "inputs": [
        {
          "indexed": true,
          "internalType": "address",
          "name": "payee",
          "type": "address"
        },
        {
          "indexed": false,
          "internalType": "uint256",
          "name": "amount",
          "type": "uint256"
        }
      ],
      "name": "Withdrawn",
      "type": "event"
    },
    {
      "inputs": [],
      "name": "MAX_FEE",
      "outputs": [
        {
          "internalType": "uint256",
          "name": "",
          "type": "uint256"
        }
      ],
      "stateMutability": "view",
      "type": "function"
    },
    {
      "inputs": [],
      "name": "MIN_BID_INCREMENT_BPS",
      "outputs": [
        {
          "internalType": "uint256",
          "name": "",
          "type": "uint256"
        }
      ],
      "stateMutability": "view",
      "type": "function"
    },
    {
      "inputs": [
        {
          "internalType": "uint256",
          "name": "",
          "type": "uint256"
        }
      ],
      "name": "auctions",
      "outputs": [
        {
          "internalType": "address",
          "name": "seller",
          "type": "address"
        },
        {
          "internalType": "address",
          "name": "nftContract",
          "type": "address"
        },
        {
          "internalType": "uint256",
          "name": "tokenId",
          "type": "uint256"
        },
        {
          "internalType": "uint256",
          "name": "startPrice",
          "type": "uint256"
        },
        {
          "internalType": "uint256",
          "name": "highestBid",
          "type": "uint256"
        },
        {
          "internalType": "address",
          "name": "highestBidder",
          "type": "address"
        },
        {
          "internalType": "uint256",
          "name": "endTime",
          "type": "uint256"
        },
        {
          "internalType": "bool",
          "name": "ended",
          "type": "bool"
        }
      ],
      "stateMutability": "view",
      "type": "function"
    },
    {
      "inputs": [
        {
          "internalType": "uint256",
          "name": "listingId",
          "type": "uint256"
        }
      ],
      "name": "buyNFT",
      "outputs": [],
      "stateMutability": "payable",
      "type": "function"
    },
    {
      "inputs": [
        {
          "internalType": "uint256",
          "name": "auctionId",
          "type": "uint256"
        }
      ],
      "name": "cancelAuction",
      "outputs": [],
      "stateMutability": "nonpayable",
      "type": "function"
    },
    {
      "inputs": [
        {
          "internalType": "uint256",
          "name": "listingId",
          "type": "uint256"
        }
      ],
      "name": "cancelListing",
      "outputs": [],
      "stateMutability": "nonpayable",
      "type": "function"
    },
    {
      "inputs": [
        {
          "internalType": "address",
          "name": "nftContract",
          "type": "address"
        },
        {
          "internalType": "uint256",
          "name": "tokenId",
          "type": "uint256"
        },
        {
          "internalType": "uint256",
          "name": "startPrice",
          "type": "uint256"
        },
        {
          "internalType": "uint256",
          "name": "duration",
          "type": "uint256"
        }
      ],
      "name": "createAuction",
      "outputs": [
        {
          "internalType": "uint256",
          "name": "",
          "type": "uint256"
        }
      ],
      "stateMutability": "nonpayable",
      "type": "function"
    },
    {
      "inputs": [
        {
          "internalType": "uint256",
          "name": "auctionId",
          "type": "uint256"
        }
      ],
      "name": "endAuction",
      "outputs": [],
      "stateMutability": "nonpayable",
      "type": "function"
    },
    {
      "inputs": [],
      "name": "getAuctionCount",
      "outputs": [
        {
          "internalType": "uint256",
          "name": "",
          "type": "uint256"
        }
      ],
      "stateMutability": "view",
      "type": "function"
    },
    {
      "inputs": [],
      "name": "getListingCount",
      "outputs": [
        {
          "internalType": "uint256",
          "name": "",
          "type": "uint256"
        }
      ],
      "stateMutability": "view",
      "type": "function"
    },
    {
      "inputs": [
        {
          "internalType": "uint256",
          "name": "listingId",
          "type": "uint256"
        }
      ],
      "name": "isListingExpired",
      "outputs": [
        {
          "internalType": "bool",
          "name": "",
          "type": "bool"
        }
      ],
      "stateMutability": "view",
      "type": "function"
    },
    {
      "inputs": [
        {
          "internalType": "address",
          "name": "nftContract",
          "type": "address"
        },
        {
          "internalType": "uint256",
          "name": "tokenId",
          "type": "uint256"
        },
        {
          "internalType": "uint256",
          "name": "price",
          "type": "uint256"
        },
        {
          "internalType": "uint256",
          "name": "duration",
          "type": "uint256"
        }
      ],
      "name": "listNFT",
      "outputs": [
        {
          "internalType": "uint256",
          "name": "",
          "type": "uint256"
        }
      ],
      "stateMutability": "nonpayable",
      "type": "function"
    },
    {
      "inputs": [
        {
          "internalType": "uint256",
          "name": "",
          "type": "uint256"
        }
      ],
      "name": "listings",
      "outputs": [
        {
          "internalType": "address",
          "name": "seller",
          "type": "address"
        },
        {
          "internalType": "address",
          "name": "nftContract",
          "type": "address"
        },
        {
          "internalType": "uint256",
          "name": "tokenId",
          "type": "uint256"
        },
        {
          "internalType": "uint256",
          "name": "price",
          "type": "uint256"
        },
        {
          "internalType": "bool",
          "name": "active",
          "type": "bool"
        },
        {
          "internalType": "uint256",
          "name": "expiration",
          "type": "uint256"
        }
      ],
      "stateMutability": "view",
      "type": "function"
    },
    {
      "inputs": [],
      "name": "owner",
      "outputs": [
        {
          "internalType": "address",
          "name": "",
          "type": "address"
        }
      ],
      "stateMutability": "view",
      "type": "function"
    },
    {
      "inputs": [],
      "name": "pause",
      "outputs": [],
      "stateMutability": "nonpayable",
      "type": "function"
    },
    {
      "inputs": [],
      "name": "paused",
      "outputs": [
        {
          "internalType": "bool",
          "name": "",
          "type": "bool"
        }
      ],
      "stateMutability": "view",
      "type": "function"
    },
    {
      "inputs": [
        {
          "internalType": "address",
          "name": "",
          "type": "address"
        }
      ],
      "name": "pendingWithdrawals",
      "outputs": [
        {
          "internalType": "uint256",
          "name": "",
          "type": "uint256"
        }
      ],
      "stateMutability": "view",
      "type": "function"
    },
    {
      "inputs": [
        {
          "internalType": "uint256",
          "name": "auctionId",
          "type": "uint256"
        }
      ],
      "name": "placeBid",
      "outputs": [],
      "stateMutability": "payable",
      "type": "function"
    },
    {
      "inputs": [],
      "name": "platformFeeBps",
      "outputs": [
        {
          "internalType": "uint256",
          "name": "",
          "type": "uint256"
        }
      ],
      "stateMutability": "view",
      "type": "function"
    },
    {
      "inputs": [],
      "name": "renounceOwnership",
      "outputs": [],
      "stateMutability": "nonpayable",
      "type": "function"
    },
    {
      "inputs": [
        {
          "internalType": "uint256",
          "name": "feeBps",
          "type": "uint256"
        }
      ],
      "name": "setPlatformFee",
      "outputs": [],
      "stateMutability": "nonpayable",
      "type": "function"
    },
    {
      "inputs": [
        {
          "internalType": "address",
          "name": "newOwner",
          "type": "address"
        }
      ],
      "name": "transferOwnership",
      "outputs": [],
      "stateMutability": "nonpayable",
      "type": "function"
    },
    {
      "inputs": [],
      "name": "unpause",
      "outputs": [],
      "stateMutability": "nonpayable",
      "type": "function"
    },
    {
      "inputs": [
        {
          "internalType": "uint256",
          "name": "listingId",
          "type": "uint256"
        },
        {
          "internalType": "uint256",
          "name": "newPrice",
          "type": "uint256"
        }
      ],
      "name": "updateListingPrice",
      "outputs": [],
      "stateMutability": "nonpayable",
      "type": "function"
    },
    {
      "inputs": [],
      "name": "withdraw",
      "outputs": [],
      "stateMutability": "nonpayable",
      "type": "function"
    }
  ],
  "bytecode": "0x608060405260fa6001553480156013575f5ffd5b503380603857604051631e4fbdf760e01b81525f600482015260240160405180910390fd5b603f816068565b5060017f9b779b17422d0df92223018b32b4d1fa46e071723d6817e2486d003becc55f005560b7565b5f80546001600160a01b038381166001600160a01b0319831681178455604051919092169283917f8be0079c531659141344cd1fd0a4f28419497f9722a3daafe3b4186f6b6457e09190a35050565b611b8b806100c45f395ff3fe608060405260043610610161575f3560e01c80638456cb59116100cd578063b9a2de3a11610087578063c460494311610062578063c46049431461043e578063de74e57b1461045d578063f2fde38b146104f8578063f3f4370314610517575f5ffd5b8063b9a2de3a146103f6578063bc063e1a14610415578063c44e66401461042a575f5ffd5b80638456cb591461035757806387ed92d71461036b5780638da5cb5b1461037f57806396b5a755146103a55780639979ef45146103c4578063b50250a3146103d7575f5ffd5b80633f4ba83a1161011e5780633f4ba83a1461021557806351ed828814610229578063571a26a01461023c5780635c975abb146102fb57806361beb1d714610324578063715018a614610343575f5ffd5b806312e8e2c31461016557806314414cc01461018657806322dcd13e146101ae578063305a67a8146101c35780633c44a5f0146101e25780633ccfd60b14610201575b5f5ffd5b348015610170575f5ffd5b5061018461017f36600461197f565b610542565b005b348015610191575f5ffd5b5061019b6101f481565b6040519081526020015b60405180910390f35b3480156101b9575f5ffd5b5061019b60015481565b3480156101ce575f5ffd5b506101846101dd36600461197f565b6105a8565b3480156101ed575f5ffd5b5061019b6101fc3660046119aa565b610648565b34801561020c575f5ffd5b5061018461094e565b348015610220575f5ffd5b50610184610a4a565b61018461023736600461197f565b610a5a565b348015610247575f5ffd5b506102ab61025636600461197f565b600560208190525f9182526040909120805460018201546002830154600384015460048501549585015460068601546007909601546001600160a01b0395861697948616969395929493919092169160ff1688565b604080516001600160a01b03998a16815297891660208901528701959095526060860193909352608085019190915290931660a083015260c082019290925290151560e0820152610100016101a5565b348015610306575f5ffd5b505f54600160a01b900460ff165b60405190151581526020016101a5565b34801561032f575f5ffd5b5061019b61033e3660046119aa565b610c21565b34801561034e575f5ffd5b50610184610fd6565b348015610362575f5ffd5b50610184610fe7565b348015610376575f5ffd5b5060025461019b565b34801561038a575f5ffd5b505f546040516001600160a01b0390911681526020016101a5565b3480156103b0575f5ffd5b506101846103bf36600461197f565b610ff7565b6101846103d236600461197f565b611132565b3480156103e2575f5ffd5b506103146103f136600461197f565b6112e1565b348015610401575f5ffd5b5061018461041036600461197f565b61130b565b348015610420575f5ffd5b5061019b6103e881565b348015610435575f5ffd5b5060035461019b565b348015610449575f5ffd5b506101846104583660046119e2565b61152a565b348015610468575f5ffd5b506104be61047736600461197f565b600460208190525f91825260409091208054600182015460028301546003840154948401546005909401546001600160a01b03938416959290931693909260ff9091169086565b604080516001600160a01b0397881681529690951660208701529385019290925260608401521515608083015260a082015260c0016101a5565b348015610503575f5ffd5b50610184610512366004611a02565b6115fb565b348015610522575f5ffd5b5061019b610531366004611a02565b60066020525f908152604090205481565b61054a61163a565b6103e881111561056d5760405163cd4e616760e01b815260040160405180910390fd5b60018190556040518181527f45610d581145924dd7090a5017e5f2b1d6f42213bb2e95707ff86846bbfcb1ca9060200160405180910390a150565b6105b0611666565b5f8181526004602081905260409091209081015460ff166105e4576040516366cb03e960e01b815260040160405180910390fd5b80546001600160a01b0316331461060e576040516322087f4960e11b815260040160405180910390fd5b60048101805460ff1916905560405182907f411aee90354c51b1b04cd563fcab2617142a9d50da19232d888547c8a1b7fd8a905f90a25050565b5f610651611666565b825f0361067157604051637294708f60e11b815260040160405180910390fd5b6040516331a9108f60e11b815260048101859052859033906001600160a01b03831690636352211e90602401602060405180830381865afa1580156106b8573d5f5f3e3d5ffd5b505050506040513d601f19601f820116820180604052508101906106dc9190611a1d565b6001600160a01b031614610703576040516359dc379f60e01b815260040160405180910390fd5b60405163020604bf60e21b81526004810186905230906001600160a01b0383169063081812fc90602401602060405180830381865afa158015610748573d5f5f3e3d5ffd5b505050506040513d601f19601f8201168201806040525081019061076c9190611a1d565b6001600160a01b0316141580156107ec575060405163e985e9c560e01b81523360048201523060248201526001600160a01b0382169063e985e9c590604401602060405180830381865afa1580156107c6573d5f5f3e3d5ffd5b505050506040513d601f19601f820116820180604052508101906107ea9190611a38565b155b1561080a5760405163a9248d2560e01b815260040160405180910390fd5b5f83156108205761081b8442611a6b565b610822565b5f5b600280549192505f91908261083683611a84565b909155506040805160c081018252338082526001600160a01b038c811660208085019182528486018e8152606086018e815260016080880181815260a089018d81525f8c81526004968790528b902099518a549089166001600160a01b0319918216178b559651928a018054939098169290961691909117909555905160028701555160038601559151918401805492151560ff19909316929092179091555160059092019190915590519192509082907f1d2286580411f12056775bf9e0fd10101148b09a6fca67c9f426fb113a28d1f89061093b908c908c908c9089906001600160a01b0394909416845260208401929092526040830152606082015260800190565b60405180910390a3979650505050505050565b610956611690565b335f908152600660205260408120549081900361098657604051630686827b60e51b815260040160405180910390fd5b335f818152600660205260408082208290555190919083908381818185875af1925050503d805f81146109d4576040519150601f19603f3d011682016040523d82523d5f602084013e6109d9565b606091505b50509050806109fb576040516312171d8360e31b815260040160405180910390fd5b60405182815233907f7084f5476618d8e60b11ef0d7d3f06914655adb8793e28ff7f018d4c76d505d59060200160405180910390a25050610a4860015f516020611b365f395f51905f5255565b565b610a5261163a565b610a486116ab565b610a62611690565b610a6a611666565b5f8181526004602081905260409091209081015460ff16610a9e576040516366cb03e960e01b815260040160405180910390fd5b600581015415801590610ab45750806005015442115b15610ad257604051632eb19f9d60e01b815260040160405180910390fd5b80600301543414610af6576040516399b5cb1d60e01b815260040160405180910390fd5b80546001600160a01b03163303610b2057604051632aa3c9e960e01b815260040160405180910390fd5b60048101805460ff191690556001810154600282015482546003840154610b55936001600160a01b03908116939216906116ff565b600181015481546002830154604051632142170760e11b81526001600160a01b03938416936342842e0e93610b9293911691339190600401611a9c565b5f604051808303815f87803b158015610ba9575f5ffd5b505af1158015610bbb573d5f5f3e3d5ffd5b50505050336001600160a01b0316827f66f5cd880edf48cdde6c966e5da0784fcc4c5e85572b8b3b62c4357798d447d78360030154604051610bff91815260200190565b60405180910390a350610c1e60015f516020611b365f395f51905f5255565b50565b5f610c2a611666565b825f03610c4a57604051637294708f60e11b815260040160405180910390fd5b610e10821080610c5c575062093a8082115b15610c7a57604051637616640160e01b815260040160405180910390fd5b6040516331a9108f60e11b815260048101859052859033906001600160a01b03831690636352211e90602401602060405180830381865afa158015610cc1573d5f5f3e3d5ffd5b505050506040513d601f19601f82011682018060405250810190610ce59190611a1d565b6001600160a01b031614610d0c576040516359dc379f60e01b815260040160405180910390fd5b60405163020604bf60e21b81526004810186905230906001600160a01b0383169063081812fc90602401602060405180830381865afa158015610d51573d5f5f3e3d5ffd5b505050506040513d601f19601f82011682018060405250810190610d759190611a1d565b6001600160a01b031614158015610df5575060405163e985e9c560e01b81523360048201523060248201526001600160a01b0382169063e985e9c590604401602060405180830381865afa158015610dcf573d5f5f3e3d5ffd5b505050506040513d601f19601f82011682018060405250810190610df39190611a38565b155b15610e135760405163a9248d2560e01b815260040160405180910390fd5b6040516323b872dd60e01b81526001600160a01b038216906323b872dd90610e4390339030908a90600401611a9c565b5f604051808303815f87803b158015610e5a575f5ffd5b505af1158015610e6c573d5f5f3e3d5ffd5b5050600380545f9350915082610e8183611a84565b9091555060408051610100810182523381526001600160a01b038a166020820152908101889052606081018790525f6080820181905260a082015290915060c08101610ecd8642611a6b565b81525f60209182018190528381526005808352604091829020845181546001600160a01b03199081166001600160a01b03928316178355948601516001830180548716918316919091179055928501516002820155606085015160038201556080850151600482015560a08501519181018054909416919092161790915560c0820151600682015560e0909101516007909101805460ff191691151591909117905533817f06b9e486c68303eb64052e0493f906f3d93a1b7149b6b8dcff221aebd16c3513898989610f9f8a42611a6b565b604080516001600160a01b039095168552602085019390935291830152606082015260800160405180910390a39695505050505050565b610fde61163a565b610a485f611896565b610fef61163a565b610a486118e5565b610fff611666565b5f818152600560205260409020600781015460ff16156110325760405163d02e774d60e01b815260040160405180910390fd5b80546001600160a01b0316331461105c576040516322087f4960e11b815260040160405180910390fd5b60058101546001600160a01b031615611088576040516335473acb60e01b815260040160405180910390fd5b60078101805460ff1916600190811790915581015481546002830154604051632142170760e11b81526001600160a01b03938416936342842e0e936110d7933093919092169190600401611a9c565b5f604051808303815f87803b1580156110ee575f5ffd5b505af1158015611100573d5f5f3e3d5ffd5b50506040518492507f2809c7e17bf978fbc7194c0a694b638c4215e9140cacc6c38ca36010b45697df91505f90a25050565b61113a611690565b611142611666565b5f818152600560205260409020600781015460ff16156111755760405163d02e774d60e01b815260040160405180910390fd5b8060060154421061119957604051630129799f60e21b815260040160405180910390fd5b80546001600160a01b031633036111c35760405163ef02588960e01b815260040160405180910390fd5b80600301543410156111e857604051636cdfbd7360e01b815260040160405180910390fd5b600481015415611246575f6127106101f483600401546112089190611ac0565b6112129190611ad7565b82600401546112219190611a6b565b90508034101561124457604051630ec4b5eb60e31b815260040160405180910390fd5b505b60058101546001600160a01b03161561128f57600481015460058201546001600160a01b03165f9081526006602052604081208054909190611289908490611a6b565b90915550505b34600482018190556005820180546001600160a01b031916339081179091556040519182529083907f0e54eff26401bf69b81b26f60bd85ef47f5d85275c1d268d84f68d6897431c4790602001610bff565b5f8181526004602052604081206005810154158015906113045750806005015442115b9392505050565b611313611690565b5f818152600560205260409020600781015460ff16156113465760405163d02e774d60e01b815260040160405180910390fd5b806006015442101561136b57604051639eafe1b760e01b815260040160405180910390fd5b60078101805460ff1916600117905560058101546001600160a01b0316156114745760018101546002820154825460048401546113b6936001600160a01b03908116939216906116ff565b600181015460058201546002830154604051632142170760e11b81526001600160a01b03938416936342842e0e936113f79330939290911691600401611a9c565b5f604051808303815f87803b15801561140e575f5ffd5b505af1158015611420573d5f5f3e3d5ffd5b50505050600581015460048201546040519081526001600160a01b039091169083907fd2aa34a4fdbbc6dff6a3e56f46e0f3ae2a31d7785ff3487aa5c95c642acea5019060200160405180910390a3611513565b600181015481546002830154604051632142170760e11b81526001600160a01b03938416936342842e0e936114b29330939290911691600401611a9c565b5f604051808303815f87803b1580156114c9575f5ffd5b505af11580156114db573d5f5f3e3d5ffd5b50506040515f80825292508491507fd2aa34a4fdbbc6dff6a3e56f46e0f3ae2a31d7785ff3487aa5c95c642acea50190602001610bff565b50610c1e60015f516020611b365f395f51905f5255565b611532611666565b5f8281526004602081905260409091209081015460ff16611566576040516366cb03e960e01b815260040160405180910390fd5b80546001600160a01b03163314611590576040516322087f4960e11b815260040160405180910390fd5b815f036115b057604051637294708f60e11b815260040160405180910390fd5b60038101805490839055604080518281526020810185905285917f36cfe22dfcf2d3781d9de6b307d67a5431b45492dad5e70e53dd4af34c25b849910160405180910390a250505050565b61160361163a565b6001600160a01b03811661163157604051631e4fbdf760e01b81525f60048201526024015b60405180910390fd5b610c1e81611896565b5f546001600160a01b03163314610a485760405163118cdaa760e01b8152336004820152602401611628565b5f54600160a01b900460ff1615610a485760405163d93c066560e01b815260040160405180910390fd5b611698611927565b60025f516020611b365f395f51905f5255565b6116b3611956565b5f805460ff60a01b191690557f5db9ee0a495bf2e6ff9c91a7834c1ba4fdd244a5e8aa4e537bd38aeae4b073aa335b6040516001600160a01b03909116815260200160405180910390a1565b5f612710600154836117119190611ac0565b61171b9190611ad7565b60405163152a902d60e11b815260048101869052602481018490529091505f9081906001600160a01b03881690632a55205a906044016040805180830381865afa925050508015611789575060408051601f3d908101601f1916820190925261178691810190611af6565b60015b1561179357925090505b8361179e8385611a6b565b11156117aa57505f9050805b5f826117b68587611b22565b6117c09190611b22565b90508315611810578360065f6117dd5f546001600160a01b031690565b6001600160a01b03166001600160a01b031681526020019081526020015f205f82825461180a9190611a6b565b90915550505b5f8311801561182757506001600160a01b03821615155b15611859576001600160a01b0382165f9081526006602052604081208054859290611853908490611a6b565b90915550505b801561188c576001600160a01b0386165f9081526006602052604081208054839290611886908490611a6b565b90915550505b5050505050505050565b5f80546001600160a01b038381166001600160a01b0319831681178455604051919092169283917f8be0079c531659141344cd1fd0a4f28419497f9722a3daafe3b4186f6b6457e09190a35050565b6118ed611666565b5f805460ff60a01b1916600160a01b1790557f62e78cea01bee320cd4e420270b5ea74000d11b0c9f74754ebdbfc544b05a2586116e23390565b5f516020611b365f395f51905f5254600203610a4857604051633ee5aeb560e01b815260040160405180910390fd5b5f54600160a01b900460ff16610a4857604051638dfc202b60e01b815260040160405180910390fd5b5f6020828403121561198f575f5ffd5b5035919050565b6001600160a01b0381168114610c1e575f5ffd5b5f5f5f5f608085870312156119bd575f5ffd5b84356119c881611996565b966020860135965060408601359560600135945092505050565b5f5f604083850312156119f3575f5ffd5b50508035926020909101359150565b5f60208284031215611a12575f5ffd5b813561130481611996565b5f60208284031215611a2d575f5ffd5b815161130481611996565b5f60208284031215611a48575f5ffd5b81518015158114611304575f5ffd5b634e487b7160e01b5f52601160045260245ffd5b80820180821115611a7e57611a7e611a57565b92915050565b5f60018201611a9557611a95611a57565b5060010190565b6001600160a01b039384168152919092166020820152604081019190915260600190565b8082028115828204841417611a7e57611a7e611a57565b5f82611af157634e487b7160e01b5f52601260045260245ffd5b500490565b5f5f60408385031215611b07575f5ffd5b8251611b1281611996565b6020939093015192949293505050565b81810381811115611a7e57611a7e611a5756fe9b779b17422d0df92223018b32b4d1fa46e071723d6817e2486d003becc55f00a2646970667358221220286bfbc42d7ac50c26ddd037d35a98fbf7af127e0252e4f4716c9169f0c268d364736f6c634300081c0033",
  "linkReferences": {},
  "deployedLinkReferences": {}
}