{
  "_format": "hh-sol-artifact-1",
  "contractName": "NFTMarketplace",
  "sourceName": "contracts/NFTMarketplace.sol",
  "abi": [
    {
      "inputs": [],
      "stateMutability": "nonpayable",
      "type": "constructor"
    },
    {
      "inputs": [],
      "name": "AlreadyRated",
      "type": "error"
    },
    {
      "inputs": [],
      "name": "ArrayLengthMismatch",
      "type": "error"
    },
    {
      "inputs": [],
      "name": "AuctionAlreadyEnded",
      "type": "error"
    },
    {
      "inputs": [],
      "name": "AuctionExpired",
      "type": "error"
    },
    {
      "inputs": [],
      "name": "AuctionHasBids",
      "type": "error"
    },
    {
      "inputs": [],
      "name": "AuctionNotExpired",
      "type": "error"
    },
    {
      "inputs": [],
      "name": "BatchTooLarge",
      "type": "error"
    },
    {
      "inputs": [],
      "name": "BidBelowStartPrice",
      "type": "error"
    },
    {
      "inputs": [],
      "name": "BidIncrementTooLow",
      "type": "error"
    },
    {
      "inputs": [],
      "name": "BidTooLow",
      "type": "error"
    },
    {
      "inputs": [],
      "name": "DutchAuctionEnded",
      "type": "error"
    },
    {
      "inputs": [],
      "name": "EndPriceTooHigh",
      "type": "error"
    },
    {
      "inputs": [],
      "name": "EnforcedPause",
      "type": "error"
    },
    {
      "inputs": [],
      "name": "ExcessivePayment",
      "type": "error"
    },
    {
      "inputs": [],
      "name": "ExpectedPause",
      "type": "error"
    },
    {
      "inputs": [],
      "name": "FeeTooHigh",
      "type": "error"
    },
    {
      "inputs": [],
      "name": "InsufficientPayment",
      "type": "error"
    },
    {
      "inputs": [],
      "name": "InvalidDuration",
      "type": "error"
    },
    {
      "inputs": [],
      "name": "InvalidRating",
      "type": "error"
    },
    {
      "inputs": [],
      "name": "ListingExpiredError",
      "type": "error"
    },
    {
      "inputs": [],
      "name": "ListingNotActive",
      "type": "error"
    },
    {
      "inputs": [],
      "name": "MarketplaceNotApproved",
      "type": "error"
    },
    {
      "inputs": [],
      "name": "NotCounterparty",
      "type": "error"
    },
    {
      "inputs": [],
      "name": "NotTheSeller",
      "type": "error"
    },
    {
      "inputs": [],
      "name": "NotTokenOwner",
      "type": "error"
    },
    {
      "inputs": [],
      "name": "NotTxParticipant",
      "type": "error"
    },
    {
      "inputs": [],
      "name": "NothingToWithdraw",
      "type": "error"
    },
    {
      "inputs": [],
      "name": "OfferExpired",
      "type": "error"
    },
    {
      "inputs": [],
      "name": "OfferNotActive",
      "type": "error"
    },
    {
      "inputs": [],
      "name": "OracleNotSet",
      "type": "error"
    },
    {
      "inputs": [
        {
          "internalType": "address",
          "name": "owner",
          "type": "address"
        }
      ],
      "name": "OwnableInvalidOwner",
      "type": "error"
    },
    {
      "inputs": [
        {
          "internalType": "address",
          "name": "account",
          "type": "address"
        }
      ],
      "name": "OwnableUnauthorizedAccount",
      "type": "error"
    },
    {
      "inputs": [],
      "name": "PriceZero",
      "type": "error"
    },
    {
      "inputs": [],
      "name": "ReentrancyGuardReentrantCall",
      "type": "error"
    },
    {
      "inputs": [],
      "name": "RentalDurationInvalid",
      "type": "error"
    },
    {
      "inputs": [],
      "name": "RentalListingNotActive",
      "type": "error"
    },
    {
      "inputs": [],
      "name": "SellerCannotBid",
      "type": "error"
    },
    {
      "inputs": [],
      "name": "SellerCannotBuy",
      "type": "error"
    },
    {
      "inputs": [],
      "name": "SwapExpired",
      "type": "error"
    },
    {
      "inputs": [],
      "name": "SwapNotActive",
      "type": "error"
    },
    {
      "inputs": [],
      "name": "TransferFailed",
      "type": "error"
    },
    {
      "inputs": [],
      "name": "TxNotFound",
      "type": "error"
    },
    {
      "anonymous": false,
      "inputs": [
        {
          "indexed": true,
          "internalType": "uint256",
          "name": "auctionId",
          "type": "uint256"
        }
      ],
      "name": "AuctionCancelled",
      "type": "event"
    },
    {
      "anonymous": false,
      "inputs": [
        {
          "indexed": true,
          "internalType": "uint256",
          "name": "auctionId",
          "type": "uint256"
        },
        {
          "indexed": true,
          "internalType": "address",
          "name": "seller",
          "type": "address"
        },
        {
          "indexed": true,
          "internalType": "address",
          "name": "nftContract",
          "type": "address"
        },
        {
          "indexed": false,
          "internalType": "uint256",
          "name": "tokenId",
          "type": "uint256"
        },
        {
          "indexed": false,
          "internalType": "uint256",
          "name": "startPrice",
          "type": "uint256"
        },
        {
          "indexed": false,
          "internalType": "uint256",
          "name": "endTime",
          "type": "uint256"
        }
      ],
      "name": "AuctionCreated",
      "type": "event"
    },
    {
      "anonymous": false,
      "inputs": [
        {
          "indexed": true,
          "internalType": "uint256",
          "name": "auctionId",
          "type": "uint256"
        },
        {
          "indexed": true,
          "internalType": "address",
          "name": "winner",
          "type": "address"
        },
        {
          "indexed": false,
          "internalType": "uint256",
          "name": "amount",
          "type": "uint256"
        }
      ],
      "name": "AuctionEnded",
      "type": "event"
    },
    {
      "anonymous": false,
      "inputs": [
        {
          "indexed": true,
          "internalType": "uint256",
          "name": "auctionId",
          "type": "uint256"
        },
        {
          "indexed": false,
          "internalType": "uint256",
          "name": "newEndTime",
          "type": "uint256"
        }
      ],
      "name": "AuctionExtended",
      "type": "event"
    },
    {
      "anonymous": false,
      "inputs": [
        {
          "indexed": false,
          "internalType": "uint256[]",
          "name": "listingIds",
          "type": "uint256[]"
        },
        {
          "indexed": true,
          "internalType": "address",
          "name": "seller",
          "type": "address"
        }
      ],
      "name": "BatchListed",
      "type": "event"
    },
    {
      "anonymous": false,
      "inputs": [
        {
          "indexed": true,
          "internalType": "uint256",
          "name": "auctionId",
          "type": "uint256"
        },
        {
          "indexed": true,
          "internalType": "address",
          "name": "bidder",
          "type": "address"
        },
        {
          "indexed": false,
          "internalType": "uint256",
          "name": "amount",
          "type": "uint256"
        }
      ],
      "name": "BidPlaced",
      "type": "event"
    },
    {
      "anonymous": false,
      "inputs": [
        {
          "indexed": true,
          "internalType": "uint256",
          "name": "auctionId",
          "type": "uint256"
        }
      ],
      "name": "DutchAuctionCancelled",
      "type": "event"
    },
    {
      "anonymous": false,
      "inputs": [
        {
          "indexed": true,
          "internalType": "uint256",
          "name": "auctionId",
          "type": "uint256"
        },
        {
          "indexed": true,
          "internalType": "address",
          "name": "seller",
          "type": "address"
        },
        {
          "indexed": false,
          "internalType": "uint256",
          "name": "startPriceUsdCents",
          "type": "uint256"
        },
        {
          "indexed": false,
          "internalType": "uint256",
          "name": "endPriceUsdCents",
          "type": "uint256"
        },
        {
          "indexed": false,
          "internalType": "uint256",
          "name": "endTime",
          "type": "uint256"
        }
      ],
      "name": "DutchAuctionCreated",
      "type": "event"
    },
    {
      "anonymous": false,
      "inputs": [
        {
          "indexed": true,
          "internalType": "uint256",
          "name": "auctionId",
          "type": "uint256"
        },
        {
          "indexed": true,
          "internalType": "address",
          "name": "buyer",
          "type": "address"
        },
        {
          "indexed": false,
          "internalType": "uint256",
          "name": "priceUsdCents",
          "type": "uint256"
        },
        {
          "indexed": false,
          "internalType": "uint256",
          "name": "paidWei",
          "type": "uint256"
        }
      ],
      "name": "DutchAuctionSold",
      "type": "event"
    },
    {
      "anonymous": false,
      "inputs": [
        {
          "indexed": true,
          "internalType": "uint256",
          "name": "listingId",
          "type": "uint256"
        },
        {
          "indexed": true,
          "internalType": "address",
          "name": "seller",
          "type": "address"
        },
        {
          "indexed": true,
          "internalType": "address",
          "name": "nftContract",
          "type": "address"
        },
        {
          "indexed": false,
          "internalType": "uint256",
          "name": "tokenId",
          "type": "uint256"
        },
        {
          "indexed": false,
          "internalType": "uint256",
          "name": "priceUsdCents",
          "type": "uint256"
        },
        {
          "indexed": false,
          "internalType": "uint256",
          "name": "expiration",
          "type": "uint256"
        }
      ],
      "name": "Listed",
      "type": "event"
    },
    {
      "anonymous": false,
      "inputs": [
        {
          "indexed": true,
          "internalType": "uint256",
          "name": "listingId",
          "type": "uint256"
        }
      ],
      "name": "ListingCancelled",
      "type": "event"
    },
    {
      "anonymous": false,
      "inputs": [
        {
          "indexed": true,
          "internalType": "uint256",
          "name": "listingId",
          "type": "uint256"
        },
        {
          "indexed": false,
          "internalType": "uint256",
          "name": "oldPrice",
          "type": "uint256"
        },
        {
          "indexed": false,
          "internalType": "uint256",
          "name": "newPrice",
          "type": "uint256"
        }
      ],
      "name": "ListingPriceUpdated",
      "type": "event"
    },
    {
      "anonymous": false,
      "inputs": [
        {
          "indexed": true,
          "internalType": "uint256",
          "name": "rentalId",
          "type": "uint256"
        },
        {
          "indexed": true,
          "internalType": "address",
          "name": "renter",
          "type": "address"
        },
        {
          "indexed": false,
          "internalType": "uint256",
          "name": "days_",
          "type": "uint256"
        },
        {
          "indexed": false,
          "internalType": "uint256",
          "name": "paidWei",
          "type": "uint256"
        }
      ],
      "name": "NFTRented",
      "type": "event"
    },
    {
      "anonymous": false,
      "inputs": [
        {
          "indexed": true,
          "internalType": "uint256",
          "name": "offerId",
          "type": "uint256"
        },
        {
          "indexed": true,
          "internalType": "address",
          "name": "seller",
          "type": "address"
        }
      ],
      "name": "OfferAccepted",
      "type": "event"
    },
    {
      "anonymous": false,
      "inputs": [
        {
          "indexed": true,
          "internalType": "uint256",
          "name": "offerId",
          "type": "uint256"
        }
      ],
      "name": "OfferCancelled",
      "type": "event"
    },
    {
      "anonymous": false,
      "inputs": [
        {
          "indexed": true,
          "internalType": "uint256",
          "name": "offerId",
          "type": "uint256"
        },
        {
          "indexed": true,
          "internalType": "address",
          "name": "buyer",
          "type": "address"
        },
        {
          "indexed": false,
          "internalType": "address",
          "name": "nftContract",
          "type": "address"
        },
        {
          "indexed": false,
          "internalType": "uint256",
          "name": "tokenId",
          "type": "uint256"
        },
        {
          "indexed": false,
          "internalType": "uint256",
          "name": "amount",
          "type": "uint256"
        },
        {
          "indexed": false,
          "internalType": "uint256",
          "name": "expiration",
          "type": "uint256"
        }
      ],
      "name": "OfferMade",
      "type": "event"
    },
    {
      "anonymous": false,
      "inputs": [
        {
          "indexed": true,
          "internalType": "address",
          "name": "newOracle",
          "type": "address"
        }
      ],
      "name": "OracleUpdated",
      "type": "event"
    },
    {
      "anonymous": false,
      "inputs": [
        {
          "indexed": true,
          "internalType": "address",
          "name": "previousOwner",
          "type": "address"
        },
        {
          "indexed": true,
          "internalType": "address",
          "name": "newOwner",
          "type": "address"
        }
      ],
      "name": "OwnershipTransferred",
      "type": "event"
    },
    {
      "anonymous": false,
      "inputs": [
        {
          "indexed": false,
          "internalType": "address",
          "name": "account",
          "type": "address"
        }
      ],
      "name": "Paused",
      "type": "event"
    },
    {
      "anonymous": false,
      "inputs": [
        {
          "indexed": false,
          "internalType": "uint256",
          "name": "newFeeBps",
          "type": "uint256"
        }
      ],
      "name": "PlatformFeeUpdated",
      "type": "event"
    },
    {
      "anonymous": false,
      "inputs": [
        {
          "indexed": true,
          "internalType": "uint256",
          "name": "rentalId",
          "type": "uint256"
        }
      ],
      "name": "RentalCancelled",
      "type": "event"
    },
    {
      "anonymous": false,
      "inputs": [
        {
          "indexed": true,
          "internalType": "uint256",
          "name": "rentalId",
          "type": "uint256"
        },
        {
          "indexed": true,
          "internalType": "address",
          "name": "owner",
          "type": "address"
        },
        {
          "indexed": false,
          "internalType": "address",
          "name": "nftContract",
          "type": "address"
        },
        {
          "indexed": false,
          "internalType": "uint256",
          "name": "tokenId",
          "type": "uint256"
        },
        {
          "indexed": false,
          "internalType": "uint256",
          "name": "dailyPriceUsdCents",
          "type": "uint256"
        },
        {
          "indexed": false,
          "internalType": "uint256",
          "name": "maxDays",
          "type": "uint256"
        }
      ],
      "name": "RentalListed",
      "type": "event"
    },
    {
      "anonymous": false,
      "inputs": [
        {
          "indexed": true,
          "internalType": "uint256",
          "name": "listingId",
          "type": "uint256"
        },
        {
          "indexed": true,
          "internalType": "address",
          "name": "buyer",
          "type": "address"
        },
        {
          "indexed": false,
          "internalType": "uint256",
          "name": "paidWei",
          "type": "uint256"
        }
      ],
      "name": "Sold",
      "type": "event"
    },
    {
      "anonymous": false,
      "inputs": [
        {
          "indexed": true,
          "internalType": "uint256",
          "name": "swapId",
          "type": "uint256"
        }
      ],
      "name": "SwapCancelled",
      "type": "event"
    },
    {
      "anonymous": false,
      "inputs": [
        {
          "indexed": true,
          "internalType": "uint256",
          "name": "swapId",
          "type": "uint256"
        }
      ],
      "name": "SwapExecuted",
      "type": "event"
    },
    {
      "anonymous": false,
      "inputs": [
        {
          "indexed": true,
          "internalType": "uint256",
          "name": "swapId",
          "type": "uint256"
        },
        {
          "indexed": true,
          "internalType": "address",
          "name": "proposer",
          "type": "address"
        },
        {
          "indexed": true,
          "internalType": "address",
          "name": "counterparty",
          "type": "address"
        }
      ],
      "name": "SwapProposed",
      "type": "event"
    },
    {
      "anonymous": false,
      "inputs": [
        {
          "indexed": true,
          "internalType": "uint256",
          "name": "txId",
          "type": "uint256"
        },
        {
          "indexed": false,
          "internalType": "address",
          "name": "buyer",
          "type": "address"
        },
        {
          "indexed": false,
          "internalType": "address",
          "name": "seller",
          "type": "address"
        },
        {
          "indexed": false,
          "internalType": "uint8",
          "name": "txType",
          "type": "uint8"
        }
      ],
      "name": "TransactionCompleted",
      "type": "event"
    },
    {
      "anonymous": false,
      "inputs": [
        {
          "indexed": true,
          "internalType": "uint256",
          "name": "txId",
          "type": "uint256"
        },
        {
          "indexed": true,
          "internalType": "address",
          "name": "rater",
          "type": "address"
        },
        {
          "indexed": false,
          "internalType": "uint8",
          "name": "score",
          "type": "uint8"
        }
      ],
      "name": "TransactionRated",
      "type": "event"
    },
    {
      "anonymous": false,
      "inputs": [
        {
          "indexed": false,
          "internalType": "address",
          "name": "account",
          "type": "address"
        }
      ],
      "name": "Unpaused",
      "type": "event"
    },
    {
      "anonymous": false,
      "inputs": [
        {
          "indexed": true,
          "internalType": "address",
          "name": "payee",
          "type": "address"
        },
        {
          "indexed": false,
          "internalType": "uint256",
          "name": "amount",
          "type": "uint256"
        }
      ],
      "name": "Withdrawn",
      "type": "event"
    },
    {
      "inputs": [],
      "name": "ANTI_SNIPE_DURATION",
      "outputs": [
        {
          "internalType": "uint256",
          "name": "",
          "type": "uint256"
        }
      ],
      "stateMutability": "view",
      "type": "function"
    },
    {
      "inputs": [],
      "name": "BPS_DENOMINATOR",
      "outputs": [
        {
          "internalType": "uint256",
          "name": "",
          "type": "uint256"
        }
      ],
      "stateMutability": "view",
      "type": "function"
    },
    {
      "inputs": [],
      "name": "MAX_AUCTION_DURATION",
      "outputs": [
        {
          "internalType": "uint256",
          "name": "",
          "type": "uint256"
        }
      ],
      "stateMutability": "view",
      "type": "function"
    },
    {
      "inputs": [],
      "name": "MAX_BATCH_SIZE",
      "outputs": [
        {
          "internalType": "uint256",
          "name": "",
          "type": "uint256"
        }
      ],
      "stateMutability": "view",
      "type": "function"
    },
    {
      "inputs": [],
      "name": "MAX_FEE",
      "outputs": [
        {
          "internalType": "uint256",
          "name": "",
          "type": "uint256"
        }
      ],
      "stateMutability": "view",
      "type": "function"
    },
    {
      "inputs": [],
      "name": "MIN_AUCTION_DURATION",
      "outputs": [
        {
          "internalType": "uint256",
          "name": "",
          "type": "uint256"
        }
      ],
      "stateMutability": "view",
      "type": "function"
    },
    {
      "inputs": [],
      "name": "MIN_BID_INCREMENT_BPS",
      "outputs": [
        {
          "internalType": "uint256",
          "name": "",
          "type": "uint256"
        }
      ],
      "stateMutability": "view",
      "type": "function"
    },
    {
      "inputs": [],
      "name": "SLIPPAGE_BPS",
      "outputs": [
        {
          "internalType": "uint256",
          "name": "",
          "type": "uint256"
        }
      ],
      "stateMutability": "view",
      "type": "function"
    },
    {
      "inputs": [],
      "name": "USD_WEI_FACTOR",
      "outputs": [
        {
          "internalType": "uint256",
          "name": "",
          "type": "uint256"
        }
      ],
      "stateMutability": "view",
      "type": "function"
    },
    {
      "inputs": [
        {
          "internalType": "uint256",
          "name": "offerId",
          "type": "uint256"
        }
      ],
      "name": "acceptOffer",
      "outputs": [],
      "stateMutability": "nonpayable",
      "type": "function"
    },
    {
      "inputs": [
        {
          "internalType": "uint256",
          "name": "swapId",
          "type": "uint256"
        }
      ],
      "name": "acceptSwap",
      "outputs": [],
      "stateMutability": "nonpayable",
      "type": "function"
    },
    {
      "inputs": [
        {
          "internalType": "uint256",
          "name": "",
          "type": "uint256"
        }
      ],
      "name": "auctions",
      "outputs": [
        {
          "internalType": "address",
          "name": "seller",
          "type": "address"
        },
        {
          "internalType": "address",
          "name": "nftContract",
          "type": "address"
        },
        {
          "internalType": "uint256",
          "name": "tokenId",
          "type": "uint256"
        },
        {
          "internalType": "uint256",
          "name": "startPrice",
          "type": "uint256"
        },
        {
          "internalType": "uint256",
          "name": "highestBid",
          "type": "uint256"
        },
        {
          "internalType": "address",
          "name": "highestBidder",
          "type": "address"
        },
        {
          "internalType": "uint256",
          "name": "endTime",
          "type": "uint256"
        },
        {
          "internalType": "bool",
          "name": "ended",
          "type": "bool"
        }
      ],
      "stateMutability": "view",
      "type": "function"
    },
    {
      "inputs": [
        {
          "internalType": "address",
          "name": "nftContract",
          "type": "address"
        },
        {
          "internalType": "uint256[]",
          "name": "tokenIds",
          "type": "uint256[]"
        },
        {
          "internalType": "uint256[]",
          "name": "pricesUsdCents",
          "type": "uint256[]"
        },
        {
          "internalType": "uint256[]",
          "name": "durations",
          "type": "uint256[]"
        }
      ],
      "name": "batchListNFT",
      "outputs": [
        {
          "internalType": "uint256[]",
          "name": "",
          "type": "uint256[]"
        }
      ],
      "stateMutability": "nonpayable",
      "type": "function"
    },
    {
      "inputs": [
        {
          "internalType": "uint256",
          "name": "auctionId",
          "type": "uint256"
        }
      ],
      "name": "buyDutchAuction",
      "outputs": [],
      "stateMutability": "payable",
      "type": "function"
    },
    {
      "inputs": [
        {
          "internalType": "uint256",
          "name": "listingId",
          "type": "uint256"
        }
      ],
      "name": "buyNFT",
      "outputs": [],
      "stateMutability": "payable",
      "type": "function"
    },
    {
      "inputs": [
        {
          "internalType": "uint256",
          "name": "auctionId",
          "type": "uint256"
        }
      ],
      "name": "cancelAuction",
      "outputs": [],
      "stateMutability": "nonpayable",
      "type": "function"
    },
    {
      "inputs": [
        {
          "internalType": "uint256",
          "name": "auctionId",
          "type": "uint256"
        }
      ],
      "name": "cancelDutchAuction",
      "outputs": [],
      "stateMutability": "nonpayable",
      "type": "function"
    },
    {
      "inputs": [
        {
          "internalType": "uint256",
          "name": "listingId",
          "type": "uint256"
        }
      ],
      "name": "cancelListing",
      "outputs": [],
      "stateMutability": "nonpayable",
      "type": "function"
    },
    {
      "inputs": [
        {
          "internalType": "uint256",
          "name": "offerId",
          "type": "uint256"
        }
      ],
      "name": "cancelOffer",
      "outputs": [],
      "stateMutability": "nonpayable",
      "type": "function"
    },
    {
      "inputs": [
        {
          "internalType": "uint256",
          "name": "rentalId",
          "type": "uint256"
        }
      ],
      "name": "cancelRentalListing",
      "outputs": [],
      "stateMutability": "nonpayable",
      "type": "function"
    },
    {
      "inputs": [
        {
          "internalType": "uint256",
          "name": "swapId",
          "type": "uint256"
        }
      ],
      "name": "cancelSwap",
      "outputs": [],
      "stateMutability": "nonpayable",
      "type": "function"
    },
    {
      "inputs": [
        {
          "internalType": "uint256",
          "name": "",
          "type": "uint256"
        }
      ],
      "name": "completedTxs",
      "outputs": [
        {
          "internalType": "address",
          "name": "buyer",
          "type": "address"
        },
        {
          "internalType": "address",
          "name": "seller",
          "type": "address"
        },
        {
          "internalType": "address",
          "name": "nftContract",
          "type": "address"
        },
        {
          "internalType": "uint256",
          "name": "tokenId",
          "type": "uint256"
        },
        {
          "internalType": "uint8",
          "name": "txType",
          "type": "uint8"
        },
        {
          "internalType": "uint256",
          "name": "timestamp",
          "type": "uint256"
        }
      ],
      "stateMutability": "view",
      "type": "function"
    },
    {
      "inputs": [
        {
          "internalType": "address",
          "name": "nftContract",
          "type": "address"
        },
        {
          "internalType": "uint256",
          "name": "tokenId",
          "type": "uint256"
        },
        {
          "internalType": "uint256",
          "name": "startPrice",
          "type": "uint256"
        },
        {
          "internalType": "uint256",
          "name": "duration",
          "type": "uint256"
        }
      ],
      "name": "createAuction",
      "outputs": [
        {
          "internalType": "uint256",
          "name": "",
          "type": "uint256"
        }
      ],
      "stateMutability": "nonpayable",
      "type": "function"
    },
    {
      "inputs": [
        {
          "internalType": "address",
          "name": "nftContract",
          "type": "address"
        },
        {
          "internalType": "uint256",
          "name": "tokenId",
          "type": "uint256"
        },
        {
          "internalType": "uint256",
          "name": "startPriceUsdCents",
          "type": "uint256"
        },
        {
          "internalType": "uint256",
          "name": "endPriceUsdCents",
          "type": "uint256"
        },
        {
          "internalType": "uint256",
          "name": "duration",
          "type": "uint256"
        }
      ],
      "name": "createDutchAuction",
      "outputs": [
        {
          "internalType": "uint256",
          "name": "",
          "type": "uint256"
        }
      ],
      "stateMutability": "nonpayable",
      "type": "function"
    },
    {
      "inputs": [
        {
          "internalType": "uint256",
          "name": "",
          "type": "uint256"
        }
      ],
      "name": "dutchAuctions",
      "outputs": [
        {
          "internalType": "address",
          "name": "seller",
          "type": "address"
        },
        {
          "internalType": "address",
          "name": "nftContract",
          "type": "address"
        },
        {
          "internalType": "uint256",
          "name": "tokenId",
          "type": "uint256"
        },
        {
          "internalType": "uint256",
          "name": "startPriceUsdCents",
          "type": "uint256"
        },
        {
          "internalType": "uint256",
          "name": "endPriceUsdCents",
          "type": "uint256"
        },
        {
          "internalType": "uint256",
          "name": "startTime",
          "type": "uint256"
        },
        {
          "internalType": "uint256",
          "name": "endTime",
          "type": "uint256"
        },
        {
          "internalType": "bool",
          "name": "sold",
          "type": "bool"
        }
      ],
      "stateMutability": "view",
      "type": "function"
    },
    {
      "inputs": [
        {
          "internalType": "uint256",
          "name": "auctionId",
          "type": "uint256"
        }
      ],
      "name": "endAuction",
      "outputs": [],
      "stateMutability": "nonpayable",
      "type": "function"
    },
    {
      "inputs": [],
      "name": "getAuctionCount",
      "outputs": [
        {
          "internalType": "uint256",
          "name": "",
          "type": "uint256"
        }
      ],
      "stateMutability": "view",
      "type": "function"
    },
    {
      "inputs": [],
      "name": "getCompletedTxCount",
      "outputs": [
        {
          "internalType": "uint256",
          "name": "",
          "type": "uint256"
        }
      ],
      "stateMutability": "view",
      "type": "function"
    },
    {
      "inputs": [],
      "name": "getDutchAuctionCount",
      "outputs": [
        {
          "internalType": "uint256",
          "name": "",
          "type": "uint256"
        }
      ],
      "stateMutability": "view",
      "type": "function"
    },
    {
      "inputs": [
        {
          "internalType": "uint256",
          "name": "auctionId",
          "type": "uint256"
        }
      ],
      "name": "getDutchAuctionCurrentPrice",
      "outputs": [
        {
          "internalType": "uint256",
          "name": "",
          "type": "uint256"
        }
      ],
      "stateMutability": "view",
      "type": "function"
    },
    {
      "inputs": [
        {
          "internalType": "uint256",
          "name": "auctionId",
          "type": "uint256"
        }
      ],
      "name": "getDutchAuctionPriceInWei",
      "outputs": [
        {
          "internalType": "uint256",
          "name": "requiredWei",
          "type": "uint256"
        },
        {
          "internalType": "uint256",
          "name": "maxWei",
          "type": "uint256"
        }
      ],
      "stateMutability": "view",
      "type": "function"
    },
    {
      "inputs": [],
      "name": "getListingCount",
      "outputs": [
        {
          "internalType": "uint256",
          "name": "",
          "type": "uint256"
        }
      ],
      "stateMutability": "view",
      "type": "function"
    },
    {
      "inputs": [
        {
          "internalType": "uint256",
          "name": "listingId",
          "type": "uint256"
        }
      ],
      "name": "getListingPriceInWei",
      "outputs": [
        {
          "internalType": "uint256",
          "name": "requiredWei",
          "type": "uint256"
        },
        {
          "internalType": "uint256",
          "name": "maxWei",
          "type": "uint256"
        }
      ],
      "stateMutability": "view",
      "type": "function"
    },
    {
      "inputs": [],
      "name": "getOfferCount",
      "outputs": [
        {
          "internalType": "uint256",
          "name": "",
          "type": "uint256"
        }
      ],
      "stateMutability": "view",
      "type": "function"
    },
    {
      "inputs": [],
      "name": "getRentalListingCount",
      "outputs": [
        {
          "internalType": "uint256",
          "name": "",
          "type": "uint256"
        }
      ],
      "stateMutability": "view",
      "type": "function"
    },
    {
      "inputs": [
        {
          "internalType": "address",
          "name": "user",
          "type": "address"
        }
      ],
      "name": "getReputation",
      "outputs": [
        {
          "internalType": "uint256",
          "name": "avgScore100",
          "type": "uint256"
        },
        {
          "internalType": "uint256",
          "name": "totalRatings",
          "type": "uint256"
        }
      ],
      "stateMutability": "view",
      "type": "function"
    },
    {
      "inputs": [],
      "name": "getSwapCount",
      "outputs": [
        {
          "internalType": "uint256",
          "name": "",
          "type": "uint256"
        }
      ],
      "stateMutability": "view",
      "type": "function"
    },
    {
      "inputs": [
        {
          "internalType": "uint256",
          "name": "listingId",
          "type": "uint256"
        }
      ],
      "name": "isListingExpired",
      "outputs": [
        {
          "internalType": "bool",
          "name": "",
          "type": "bool"
        }
      ],
      "stateMutability": "view",
      "type": "function"
    },
    {
      "inputs": [
        {
          "internalType": "address",
          "name": "nftContract",
          "type": "address"
        },
        {
          "internalType": "uint256",
          "name": "tokenId",
          "type": "uint256"
        },
        {
          "internalType": "uint256",
          "name": "dailyPriceUsdCents",
          "type": "uint256"
        },
        {
          "internalType": "uint256",
          "name": "maxDays",
          "type": "uint256"
        }
      ],
      "name": "listForRent",
      "outputs": [
        {
          "internalType": "uint256",
          "name": "",
          "type": "uint256"
        }
      ],
      "stateMutability": "nonpayable",
      "type": "function"
    },
    {
      "inputs": [
        {
          "internalType": "address",
          "name": "nftContract",
          "type": "address"
        },
        {
          "internalType": "uint256",
          "name": "tokenId",
          "type": "uint256"
        },
        {
          "internalType": "uint256",
          "name": "priceUsdCents",
          "type": "uint256"
        },
        {
          "internalType": "uint256",
          "name": "duration",
          "type": "uint256"
        }
      ],
      "name": "listNFT",
      "outputs": [
        {
          "internalType": "uint256",
          "name": "",
          "type": "uint256"
        }
      ],
      "stateMutability": "nonpayable",
      "type": "function"
    },
    {
      "inputs": [
        {
          "internalType": "uint256",
          "name": "",
          "type": "uint256"
        }
      ],
      "name": "listings",
      "outputs": [
        {
          "internalType": "address",
          "name": "seller",
          "type": "address"
        },
        {
          "internalType": "address",
          "name": "nftContract",
          "type": "address"
        },
        {
          "internalType": "uint256",
          "name": "tokenId",
          "type": "uint256"
        },
        {
          "internalType": "uint256",
          "name": "priceUsdCents",
          "type": "uint256"
        },
        {
          "internalType": "bool",
          "name": "active",
          "type": "bool"
        },
        {
          "internalType": "uint256",
          "name": "expiration",
          "type": "uint256"
        }
      ],
      "stateMutability": "view",
      "type": "function"
    },
    {
      "inputs": [
        {
          "internalType": "address",
          "name": "nftContract",
          "type": "address"
        },
        {
          "internalType": "uint256",
          "name": "tokenId",
          "type": "uint256"
        },
        {
          "internalType": "uint256",
          "name": "duration",
          "type": "uint256"
        }
      ],
      "name": "makeOffer",
      "outputs": [
        {
          "internalType": "uint256",
          "name": "",
          "type": "uint256"
        }
      ],
      "stateMutability": "payable",
      "type": "function"
    },
    {
      "inputs": [
        {
          "internalType": "uint256",
          "name": "",
          "type": "uint256"
        }
      ],
      "name": "offers",
      "outputs": [
        {
          "internalType": "address",
          "name": "buyer",
          "type": "address"
        },
        {
          "internalType": "address",
          "name": "nftContract",
          "type": "address"
        },
        {
          "internalType": "uint256",
          "name": "tokenId",
          "type": "uint256"
        },
        {
          "internalType": "uint256",
          "name": "amount",
          "type": "uint256"
        },
        {
          "internalType": "uint256",
          "name": "expiration",
          "type": "uint256"
        },
        {
          "internalType": "bool",
          "name": "active",
          "type": "bool"
        }
      ],
      "stateMutability": "view",
      "type": "function"
    },
    {
      "inputs": [
        {
          "internalType": "address",
          "name": "",
          "type": "address"
        },
        {
          "internalType": "address",
          "name": "",
          "type": "address"
        },
        {
          "internalType": "uint256",
          "name": "",
          "type": "uint256"
        },
        {
          "internalType": "bytes",
          "name": "",
          "type": "bytes"
        }
      ],
      "name": "onERC721Received",
      "outputs": [
        {
          "internalType": "bytes4",
          "name": "",
          "type": "bytes4"
        }
      ],
      "stateMutability": "pure",
      "type": "function"
    },
    {
      "inputs": [],
      "name": "oracle",
      "outputs": [
        {
          "internalType": "contract ISimpleOracle",
          "name": "",
          "type": "address"
        }
      ],
      "stateMutability": "view",
      "type": "function"
    },
    {
      "inputs": [],
      "name": "owner",
      "outputs": [
        {
          "internalType": "address",
          "name": "",
          "type": "address"
        }
      ],
      "stateMutability": "view",
      "type": "function"
    },
    {
      "inputs": [],
      "name": "pause",
      "outputs": [],
      "stateMutability": "nonpayable",
      "type": "function"
    },
    {
      "inputs": [],
      "name": "paused",
      "outputs": [
        {
          "internalType": "bool",
          "name": "",
          "type": "bool"
        }
      ],
      "stateMutability": "view",
      "type": "function"
    },
    {
      "inputs": [
        {
          "internalType": "address",
          "name": "",
          "type": "address"
        }
      ],
      "name": "pendingWithdrawals",
      "outputs": [
        {
          "internalType": "uint256",
          "name": "",
          "type": "uint256"
        }
      ],
      "stateMutability": "view",
      "type": "function"
    },
    {
      "inputs": [
        {
          "internalType": "uint256",
          "name": "auctionId",
          "type": "uint256"
        }
      ],
      "name": "placeBid",
      "outputs": [],
      "stateMutability": "payable",
      "type": "function"
    },
    {
      "inputs": [],
      "name": "platformFeeBps",
      "outputs": [
        {
          "internalType": "uint256",
          "name": "",
          "type": "uint256"
        }
      ],
      "stateMutability": "view",
      "type": "function"
    },
    {
      "inputs": [
        {
          "internalType": "address",
          "name": "counterparty",
          "type": "address"
        },
        {
          "internalType": "address",
          "name": "proposerNftContract",
          "type": "address"
        },
        {
          "internalType": "uint256",
          "name": "proposerTokenId",
          "type": "uint256"
        },
        {
          "internalType": "address",
          "name": "counterpartyNftContract",
          "type": "address"
        },
        {
          "internalType": "uint256",
          "name": "counterpartyTokenId",
          "type": "uint256"
        },
        {
          "internalType": "uint256",
          "name": "duration",
          "type": "uint256"
        }
      ],
      "name": "proposeSwap",
      "outputs": [
        {
          "internalType": "uint256",
          "name": "",
          "type": "uint256"
        }
      ],
      "stateMutability": "payable",
      "type": "function"
    },
    {
      "inputs": [
        {
          "internalType": "uint256",
          "name": "txId",
          "type": "uint256"
        },
        {
          "internalType": "uint8",
          "name": "score",
          "type": "uint8"
        }
      ],
      "name": "rateTransaction",
      "outputs": [],
      "stateMutability": "nonpayable",
      "type": "function"
    },
    {
      "inputs": [
        {
          "internalType": "address",
          "name": "",
          "type": "address"
        }
      ],
      "name": "ratingCount",
      "outputs": [
        {
          "internalType": "uint256",
          "name": "",
          "type": "uint256"
        }
      ],
      "stateMutability": "view",
      "type": "function"
    },
    {
      "inputs": [],
      "name": "renounceOwnership",
      "outputs": [],
      "stateMutability": "nonpayable",
      "type": "function"
    },
    {
      "inputs": [
        {
          "internalType": "uint256",
          "name": "rentalId",
          "type": "uint256"
        },
        {
          "internalType": "uint256",
          "name": "days_",
          "type": "uint256"
        }
      ],
      "name": "rentNFT",
      "outputs": [],
      "stateMutability": "payable",
      "type": "function"
    },
    {
      "inputs": [
        {
          "internalType": "uint256",
          "name": "",
          "type": "uint256"
        }
      ],
      "name": "rentalListings",
      "outputs": [
        {
          "internalType": "address",
          "name": "owner",
          "type": "address"
        },
        {
          "internalType": "address",
          "name": "nftContract",
          "type": "address"
        },
        {
          "internalType": "uint256",
          "name": "tokenId",
          "type": "uint256"
        },
        {
          "internalType": "uint256",
          "name": "dailyPriceUsdCents",
          "type": "uint256"
        },
        {
          "internalType": "uint256",
          "name": "maxDays",
          "type": "uint256"
        },
        {
          "internalType": "bool",
          "name": "active",
          "type": "bool"
        }
      ],
      "stateMutability": "view",
      "type": "function"
    },
    {
      "inputs": [
        {
          "internalType": "address",
          "name": "",
          "type": "address"
        }
      ],
      "name": "reputationScore",
      "outputs": [
        {
          "internalType": "uint256",
          "name": "",
          "type": "uint256"
        }
      ],
      "stateMutability": "view",
      "type": "function"
    },
    {
      "inputs": [
        {
          "internalType": "address",
          "name": "_oracle",
          "type": "address"
        }
      ],
      "name": "setOracle",
      "outputs": [],
      "stateMutability": "nonpayable",
      "type": "function"
    },
    {
      "inputs": [
        {
          "internalType": "uint256",
          "name": "feeBps",
          "type": "uint256"
        }
      ],
      "name": "setPlatformFee",
      "outputs": [],
      "stateMutability": "nonpayable",
      "type": "function"
    },
    {
      "inputs": [
        {
          "internalType": "uint256",
          "name": "",
          "type": "uint256"
        }
      ],
      "name": "swaps",
      "outputs": [
        {
          "internalType": "address",
          "name": "proposer",
          "type": "address"
        },
        {
          "internalType": "address",
          "name": "counterparty",
          "type": "address"
        },
        {
          "internalType": "address",
          "name": "proposerNftContract",
          "type": "address"
        },
        {
          "internalType": "uint256",
          "name": "proposerTokenId",
          "type": "uint256"
        },
        {
          "internalType": "address",
          "name": "counterpartyNftContract",
          "type": "address"
        },
        {
          "internalType": "uint256",
          "name": "counterpartyTokenId",
          "type": "uint256"
        },
        {
          "internalType": "uint256",
          "name": "ethTopUp",
          "type": "uint256"
        },
        {
          "internalType": "uint256",
          "name": "expiration",
          "type": "uint256"
        },
        {
          "internalType": "bool",
          "name": "active",
          "type": "bool"
        }
      ],
      "stateMutability": "view",
      "type": "function"
    },
    {
      "inputs": [
        {
          "internalType": "address",
          "name": "newOwner",
          "type": "address"
        }
      ],
      "name": "transferOwnership",
      "outputs": [],
      "stateMutability": "nonpayable",
      "type": "function"
    },
    {
      "inputs": [
        {
          "internalType": "uint256",
          "name": "",
          "type": "uint256"
        },
        {
          "internalType": "address",
          "name": "",
          "type": "address"
        }
      ],
      "name": "txRatings",
      "outputs": [
        {
          "internalType": "uint8",
          "name": "",
          "type": "uint8"
        }
      ],
      "stateMutability": "view",
      "type": "function"
    },
    {
      "inputs": [],
      "name": "unpause",
      "outputs": [],
      "stateMutability": "nonpayable",
      "type": "function"
    },
    {
      "inputs": [
        {
          "internalType": "uint256",
          "name": "listingId",
          "type": "uint256"
        },
        {
          "internalType": "uint256",
          "name": "newPriceUsdCents",
          "type": "uint256"
        }
      ],
      "name": "updateListingPrice",
      "outputs": [],
      "stateMutability": "nonpayable",
      "type": "function"
    },
    {
      "inputs": [],
      "name": "withdraw",
      "outputs": [],
      "stateMutability": "nonpayable",
      "type": "function"
    }
  ],
  "bytecode": "0x608060405260fa6002553480156013575f5ffd5b503380603857604051631e4fbdf760e01b81525f600482015260240160405180910390fd5b603f816068565b5060017f9b779b17422d0df92223018b32b4d1fa46e071723d6817e2486d003becc55f005560b7565b5f80546001600160a01b038381166001600160a01b0319831681178455604051919092169283917f8be0079c531659141344cd1fd0a4f28419497f9722a3daafe3b4186f6b6457e09190a35050565b614ccc806100c45f395ff3fe6080604052600436106103c9575f3560e01c80638da5cb5b116101f4578063c460494311610113578063de74e57b116100a8578063f09c582911610078578063f09c582914610d26578063f2ab2fc014610df8578063f2fde38b14610eac578063f3f4370314610ecb578063f65a56da14610ef6575f5ffd5b8063de74e57b14610c0e578063e1a4521814610ca7578063eb1b0c9714610cbc578063ef706adf14610d07575f5ffd5b8063d048db37116100e3578063d048db3714610bb3578063d12314ae14610bc7578063d81671bc14610bdb578063ddee843314610bef575f5ffd5b8063c460494314610b42578063c815729d14610b61578063cb91ec4f14610b80578063cfdbf25414610b9f575f5ffd5b8063a7cd11f011610189578063bc063e1a11610159578063bc063e1a14610af0578063bcc872aa14610b05578063c2f50a7a14610b19578063c44e664014610b2e575f5ffd5b8063a7cd11f014610a73578063adb1fd0614610a86578063b50250a314610ab2578063b9a2de3a14610ad1575f5ffd5b80639979ef45116101c45780639979ef45146109f05780639c89a0e214610a035780639f720c6214610a37578063a1f0f43814610a54575f5ffd5b80638da5cb5b1461098d57806393b2d6a0146109a957806395eae396146109bc57806396b5a755146109d1575f5ffd5b806351ed8288116102eb57806377f8bb6d116102805780637de3bd07116102505780637de3bd07146108d55780638456cb59146108e857806385ad53cd146108fc57806387ed92d71461091b5780638a72ea6a1461092f575f5ffd5b806377f8bb6d146107c85780637adbf973146107dc5780637c6e5fba146107fb5780637dc0d1d01461089e575f5ffd5b806361beb1d7116102bb57806361beb1d7146107625780636941c81014610781578063715018a6146107a0578063722d7154146107b4575f5ffd5b806351ed82881461064957806354d6a2b71461065c578063571a26a01461067b5780635c975abb14610739575f5ffd5b806325481f5f116103615780633f4ba83a116103315780633f4ba83a1461055c5780633fb35178146105705780634934f4a11461058657806350d061cb1461061e575f5ffd5b806325481f5f146104f7578063305a67a81461050a5780633c44a5f0146105295780633ccfd60b14610548575f5ffd5b80631be662841161039c5780631be66284146104795780631bf330041461049857806322dcd13e146104b75780632404165e146104cc575f5ffd5b8063065da698146103cd57806312e8e2c3146103ff57806314414cc014610420578063150b7a0214610435575b5f5ffd5b3480156103d8575f5ffd5b506103ec6103e73660046147ad565b610f15565b6040519081526020015b60405180910390f35b34801561040a575f5ffd5b5061041e6104193660046147ed565b6112e5565b005b34801561042b575f5ffd5b506103ec6101f481565b348015610440575f5ffd5b5061046061044f366004614804565b630a85bd0160e11b95945050505050565b6040516001600160e01b031990911681526020016103f6565b348015610484575f5ffd5b506103ec6104933660046147ed565b61134b565b3480156104a3575f5ffd5b5061041e6104b23660046147ed565b6113de565b3480156104c2575f5ffd5b506103ec60025481565b3480156104d7575f5ffd5b506103ec6104e636600461489d565b60136020525f908152604090205481565b61041e6105053660046147ed565b61179c565b348015610515575f5ffd5b5061041e6105243660046147ed565b611986565b348015610534575f5ffd5b506103ec6105433660046148b8565b611a24565b348015610553575f5ffd5b5061041e611a44565b348015610567575f5ffd5b5061041e611b32565b34801561057b575f5ffd5b506103ec62093a8081565b348015610591575f5ffd5b506105e46105a03660046147ed565b600f6020525f90815260409020805460018201546002830154600384015460048501546005909501546001600160a01b039485169593909416939192909160ff1686565b604080516001600160a01b0397881681529690951660208701529385019290925260608401526080830152151560a082015260c0016103f6565b348015610629575f5ffd5b506103ec61063836600461489d565b60126020525f908152604090205481565b61041e6106573660046147ed565b611b42565b348015610667575f5ffd5b5061041e6106763660046147ed565b611d86565b348015610686575f5ffd5b506106e96106953660046147ed565b600b6020525f9081526040902080546001820154600283015460038401546004850154600586015460068701546007909701546001600160a01b039687169795871696949593949293919092169160ff1688565b604080516001600160a01b03998a16815297891660208901528701959095526060860193909352608085019190915290931660a083015260c082019290925290151560e0820152610100016103f6565b348015610744575f5ffd5b505f54600160a01b900460ff165b60405190151581526020016103f6565b34801561076d575f5ffd5b506103ec61077c3660046148b8565b611ed1565b34801561078c575f5ffd5b5061041e61079b3660046148f0565b612280565b3480156107ab575f5ffd5b5061041e612451565b3480156107bf575f5ffd5b506008546103ec565b3480156107d3575f5ffd5b506103ec60c881565b3480156107e7575f5ffd5b5061041e6107f636600461489d565b612462565b348015610806575f5ffd5b5061085d6108153660046147ed565b60106020525f90815260409020805460018201546002830154600384015460048501546005909501546001600160a01b03948516959385169490921692909160ff9091169086565b604080516001600160a01b03978816815295871660208701529390951692840192909252606083015260ff16608082015260a081019190915260c0016103f6565b3480156108a9575f5ffd5b506001546108bd906001600160a01b031681565b6040516001600160a01b0390911681526020016103f6565b6103ec6108e3366004614923565b6124da565b3480156108f3575f5ffd5b5061041e612669565b348015610907575f5ffd5b506103ec6109163660046148b8565b612679565b348015610926575f5ffd5b506003546103ec565b34801561093a575f5ffd5b506105e46109493660046147ed565b600d6020525f90815260409020805460018201546002830154600384015460048501546005909501546001600160a01b039485169593909416939192909160ff1686565b348015610998575f5ffd5b505f546001600160a01b03166108bd565b61041e6109b7366004614955565b61297d565b3480156109c7575f5ffd5b506103ec61012c81565b3480156109dc575f5ffd5b5061041e6109eb3660046147ed565b612bfe565b61041e6109fe3660046147ed565b612d31565b348015610a0e575f5ffd5b50610a22610a1d36600461489d565b612f4c565b604080519283526020830191909152016103f6565b348015610a42575f5ffd5b506103ec69d3c21bcecceda100000081565b348015610a5f575f5ffd5b50610a22610a6e3660046147ed565b612fab565b6103ec610a81366004614975565b612fee565b348015610a91575f5ffd5b50610aa5610aa0366004614a1e565b613395565b6040516103f69190614acf565b348015610abd575f5ffd5b50610752610acc3660046147ed565b613507565b348015610adc575f5ffd5b5061041e610aeb3660046147ed565b613531565b348015610afb575f5ffd5b506103ec6103e881565b348015610b10575f5ffd5b506005546103ec565b348015610b24575f5ffd5b506103ec610e1081565b348015610b39575f5ffd5b506004546103ec565b348015610b4d575f5ffd5b5061041e610b5c366004614955565b61376f565b348015610b6c575f5ffd5b5061041e610b7b3660046147ed565b61383e565b348015610b8b575f5ffd5b50610a22610b9a3660046147ed565b613b4f565b348015610baa575f5ffd5b506103ec601481565b348015610bbe575f5ffd5b506006546103ec565b348015610bd2575f5ffd5b506009546103ec565b348015610be6575f5ffd5b506007546103ec565b348015610bfa575f5ffd5b5061041e610c093660046147ed565b613b6d565b348015610c19575f5ffd5b50610c6d610c283660046147ed565b600a6020525f90815260409020805460018201546002830154600384015460048501546005909501546001600160a01b039485169594909316939192909160ff169086565b604080516001600160a01b0397881681529690951660208701529385019290925260608401521515608083015260a082015260c0016103f6565b348015610cb2575f5ffd5b506103ec61271081565b348015610cc7575f5ffd5b50610cf5610cd6366004614b11565b601160209081525f928352604080842090915290825290205460ff1681565b60405160ff90911681526020016103f6565b348015610d12575f5ffd5b5061041e610d213660046147ed565b613c81565b348015610d31575f5ffd5b50610d9d610d403660046147ed565b600e6020525f90815260409020805460018201546002830154600384015460048501546005860154600687015460078801546008909801546001600160a01b03978816989688169795861696949590931693919290919060ff1689565b604080516001600160a01b039a8b168152988a1660208a015296891696880196909652606087019490945295909116608085015260a084015260c083019390935260e0820192909252901515610100820152610120016103f6565b348015610e03575f5ffd5b50610e64610e123660046147ed565b600c6020525f9081526040902080546001820154600283015460038401546004850154600586015460068701546007909701546001600160a01b03968716979590961695939492939192909160ff1688565b604080516001600160a01b03998a168152989097166020890152958701949094526060860192909252608085015260a084015260c0830152151560e0820152610100016103f6565b348015610eb7575f5ffd5b5061041e610ec636600461489d565b613d3f565b348015610ed6575f5ffd5b506103ec610ee536600461489d565b60146020525f908152604090205481565b348015610f01575f5ffd5b5061041e610f103660046147ed565b613d7e565b5f610f1e613e14565b610f26613e42565b835f03610f4657604051637294708f60e11b815260040160405180910390fd5b838310610f6657604051635e9e0dfd60e01b815260040160405180910390fd5b610e10821080610f78575062093a8082115b15610f9657604051637616640160e01b815260040160405180910390fd5b6040516331a9108f60e11b815260048101869052869033906001600160a01b03831690636352211e90602401602060405180830381865afa158015610fdd573d5f5f3e3d5ffd5b505050506040513d601f19601f820116820180604052508101906110019190614b34565b6001600160a01b031614611028576040516359dc379f60e01b815260040160405180910390fd5b60405163020604bf60e21b81526004810187905230906001600160a01b0383169063081812fc90602401602060405180830381865afa15801561106d573d5f5f3e3d5ffd5b505050506040513d601f19601f820116820180604052508101906110919190614b34565b6001600160a01b031614158015611111575060405163e985e9c560e01b81523360048201523060248201526001600160a01b0382169063e985e9c590604401602060405180830381865afa1580156110eb573d5f5f3e3d5ffd5b505050506040513d601f19601f8201168201806040525081019061110f9190614b4f565b155b1561112f5760405163a9248d2560e01b815260040160405180910390fd5b6040516323b872dd60e01b81526001600160a01b038216906323b872dd9061115f90339030908b90600401614b6e565b5f604051808303815f87803b158015611176575f5ffd5b505af1158015611188573d5f5f3e3d5ffd5b5050600580545f935091508261119d83614ba6565b919050559050604051806101000160405280336001600160a01b03168152602001896001600160a01b0316815260200188815260200187815260200186815260200142815260200185426111f19190614bbe565b81525f6020918201819052838152600c8252604090819020835181546001600160a01b03199081166001600160a01b03928316178355938501516001830180549095169116179092558201516002820155606082015160038201556080820151600482015560a0820151600582015560c0820151600682015560e0909101516007909101805460ff191691151591909117905533817f35fcdd210845c48febf8dc54033b59cadf5f93c028fb1230842033e4ea68979988886112b38942614bbe565b6040805193845260208401929092529082015260600160405180910390a39150506112dc613e6c565b95945050505050565b6112ed613e92565b6103e88111156113105760405163cd4e616760e01b815260040160405180910390fd5b60028190556040518181527f45610d581145924dd7090a5017e5f2b1d6f42213bb2e95707ff86846bbfcb1ca9060200160405180910390a150565b5f818152600c602052604081206006810154421061136d576004015492915050565b5f81600501544261137e9190614bd7565b90505f826005015483600601546113959190614bd7565b90505f8183856004015486600301546113ae9190614bd7565b6113b89190614bea565b6113c29190614c01565b90508084600301546113d49190614bd7565b9695505050505050565b6113e6613e14565b6113ee613e42565b5f818152600e60205260409020600881015460ff166114205760405163cac0f49d60e01b815260040160405180910390fd5b60018101546001600160a01b0316331461144d576040516389f5ad6160e01b815260040160405180910390fd5b806007015442111561147257604051632b32713d60e01b815260040160405180910390fd5b60048181015460058301546040516331a9108f60e11b8152928301526001600160a01b03169033908290636352211e90602401602060405180830381865afa1580156114c0573d5f5f3e3d5ffd5b505050506040513d601f19601f820116820180604052508101906114e49190614b34565b6001600160a01b03161461150b576040516359dc379f60e01b815260040160405180910390fd5b600582015460405163020604bf60e21b815230916001600160a01b0384169163081812fc916115409160040190815260200190565b602060405180830381865afa15801561155b573d5f5f3e3d5ffd5b505050506040513d601f19601f8201168201806040525081019061157f9190614b34565b6001600160a01b0316141580156115ff575060405163e985e9c560e01b81523360048201523060248201526001600160a01b0382169063e985e9c590604401602060405180830381865afa1580156115d9573d5f5f3e3d5ffd5b505050506040513d601f19601f820116820180604052508101906115fd9190614b4f565b155b1561161d5760405163a9248d2560e01b815260040160405180910390fd5b60088201805460ff1916905560068201541561165f57600482015460058301546001840154600685015461165f936001600160a01b0390811693921690613ebe565b600282015460018301546003840154604051632142170760e11b81526001600160a01b03938416936342842e0e936116a09330939290911691600401614b6e565b5f604051808303815f87803b1580156116b7575f5ffd5b505af11580156116c9573d5f5f3e3d5ffd5b505050600183015483546005850154604051632142170760e11b81526001600160a01b0380871695506342842e0e9461170b9490821693911691600401614b6e565b5f604051808303815f87803b158015611722575f5ffd5b505af1158015611734573d5f5f3e3d5ffd5b505050506001820154825460028401546003850154611765936001600160a01b039081169381169216906004614163565b60405183907f8d92c805c252261fcfff21ee60740eb8a38922469a7e6ee396976d57c22fc1c9905f90a25050611799613e6c565b50565b6117a4613e14565b6117ac613e42565b5f818152600c60205260409020600781015460ff16156117df57604051634b74dc9760e11b815260040160405180910390fd5b80546001600160a01b0316330361180957604051632aa3c9e960e01b815260040160405180910390fd5b5f6118138361134b565b90505f61181f82614274565b9050803410156118425760405163cd1c886760e01b815260040160405180910390fd5b60078301805460ff1916600190811790915583015460028401548454611876926001600160a01b0390811692911684613ebe565b5f6118818234614bd7565b905080156118ad57335f90815260146020526040812080548392906118a7908490614bbe565b90915550505b60018401546002850154604051632142170760e11b81526001600160a01b03909216916342842e0e916118e69130913391600401614b6e565b5f604051808303815f87803b1580156118fd575f5ffd5b505af115801561190f573d5f5f3e3d5ffd5b50508554600187015460028089015461193c95503394506001600160a01b03938416939092169190614163565b6040805184815260208101849052339187917f08af6336c121868adf8c691a0ff68a8d1f4a926efdeca3b662fbc6c7931b370a91015b60405180910390a350505050611799613e6c565b61198e613e42565b5f818152600a60205260409020600481015460ff166119c0576040516366cb03e960e01b815260040160405180910390fd5b80546001600160a01b031633146119ea576040516322087f4960e11b815260040160405180910390fd5b60048101805460ff1916905560405182907f411aee90354c51b1b04cd563fcab2617142a9d50da19232d888547c8a1b7fd8a905f90a25050565b5f611a2d613e42565b611a398585858561435f565b90505b949350505050565b611a4c613e14565b335f9081526014602052604081205490819003611a7c57604051630686827b60e51b815260040160405180910390fd5b335f818152601460205260408082208290555190919083908381818185875af1925050503d805f8114611aca576040519150601f19603f3d011682016040523d82523d5f602084013e611acf565b606091505b5050905080611af1576040516312171d8360e31b815260040160405180910390fd5b60405182815233907f7084f5476618d8e60b11ef0d7d3f06914655adb8793e28ff7f018d4c76d505d59060200160405180910390a25050611b30613e6c565b565b611b3a613e92565b611b30614649565b611b4a613e14565b611b52613e42565b5f818152600a60205260409020600481015460ff16611b84576040516366cb03e960e01b815260040160405180910390fd5b600581015415801590611b9a5750806005015442115b15611bb857604051632eb19f9d60e01b815260040160405180910390fd5b80546001600160a01b03163303611be257604051632aa3c9e960e01b815260040160405180910390fd5b5f611bf08260030154614274565b905080341015611c135760405163cd1c886760e01b815260040160405180910390fd5b5f612710611c2260c884614bea565b611c2c9190614c01565b611c369083614bbe565b905080341115611c5957604051631e33487360e11b815260040160405180910390fd5b60048301805460ff19169055600183015460028401548454611c89926001600160a01b0390811692911685613ebe565b5f611c948334614bd7565b90508015611cc057335f9081526014602052604081208054839290611cba908490614bbe565b90915550505b600184015484546002860154604051632142170760e11b81526001600160a01b03938416936342842e0e93611cfd93911691339190600401614b6e565b5f604051808303815f87803b158015611d14575f5ffd5b505af1158015611d26573d5f5f3e3d5ffd5b5050855460018701546002880154611d5294503393506001600160a01b0392831692909116905f614163565b604051838152339086907f66f5cd880edf48cdde6c966e5da0784fcc4c5e85572b8b3b62c4357798d447d790602001611972565b611d8e613e14565b5f818152600e60205260409020600881015460ff16611dc05760405163cac0f49d60e01b815260040160405180910390fd5b80546001600160a01b03163314611dea576040516322087f4960e11b815260040160405180910390fd5b60088101805460ff19169055600281015481546003830154604051632142170760e11b81526001600160a01b03938416936342842e0e93611e349330939290911691600401614b6e565b5f604051808303815f87803b158015611e4b575f5ffd5b505af1158015611e5d573d5f5f3e3d5ffd5b50505050600681015415611e9e57600681015481546001600160a01b03165f9081526014602052604081208054909190611e98908490614bbe565b90915550505b60405182907ff6b6b4f7a13f02512c1b3aa8dcc4a07d7775a6a4becbd439efcbd37c5408e67f905f90a250611799613e6c565b5f611eda613e14565b611ee2613e42565b825f03611f0257604051637294708f60e11b815260040160405180910390fd5b610e10821080611f14575062093a8082115b15611f3257604051637616640160e01b815260040160405180910390fd5b6040516331a9108f60e11b815260048101859052859033906001600160a01b03831690636352211e90602401602060405180830381865afa158015611f79573d5f5f3e3d5ffd5b505050506040513d601f19601f82011682018060405250810190611f9d9190614b34565b6001600160a01b031614611fc4576040516359dc379f60e01b815260040160405180910390fd5b60405163020604bf60e21b81526004810186905230906001600160a01b0383169063081812fc90602401602060405180830381865afa158015612009573d5f5f3e3d5ffd5b505050506040513d601f19601f8201168201806040525081019061202d9190614b34565b6001600160a01b0316141580156120ad575060405163e985e9c560e01b81523360048201523060248201526001600160a01b0382169063e985e9c590604401602060405180830381865afa158015612087573d5f5f3e3d5ffd5b505050506040513d601f19601f820116820180604052508101906120ab9190614b4f565b155b156120cb5760405163a9248d2560e01b815260040160405180910390fd5b6040516323b872dd60e01b81526001600160a01b038216906323b872dd906120fb90339030908a90600401614b6e565b5f604051808303815f87803b158015612112575f5ffd5b505af1158015612124573d5f5f3e3d5ffd5b5050600480545f935091508261213983614ba6565b9091555060408051610100810182523381526001600160a01b038a166020820152908101889052606081018790525f6080820181905260a082015290915060c081016121858642614bbe565b81525f6020918201819052838152600b8252604090819020835181546001600160a01b03199081166001600160a01b03928316178355938501516001830180548616918316919091179055918401516002820155606084015160038201556080840151600482015560a08401516005820180549094169083161790925560c0830151600683015560e0909201516007909101805460ff1916911515919091179055871633827f06b9e486c68303eb64052e0493f906f3d93a1b7149b6b8dcff221aebd16c351389896122578a42614bbe565b6040805193845260208401929092529082015260600160405180910390a4915050611a3c613e6c565b60095482106122a2576040516371a2de7360e11b815260040160405180910390fd5b60018160ff1610806122b7575060058160ff16115b156122d55760405163d29df2dd60e01b815260040160405180910390fd5b5f82815260106020526040902080546001600160a01b03163314801590612309575060018101546001600160a01b03163314155b1561232757604051633a77c79560e01b815260040160405180910390fd5b5f83815260116020908152604080832033845290915290205460ff161561236157604051630894b2e960e31b815260040160405180910390fd5b5f8381526011602090815260408083203380855292528220805460ff191660ff861617905582546001600160a01b0316146123a65781546001600160a01b03166123b5565b60018201546001600160a01b03165b6001600160a01b0381165f908152601260205260408120805492935060ff8616929091906123e4908490614bbe565b90915550506001600160a01b0381165f90815260136020526040812080549161240c83614ba6565b909155505060405160ff84168152339085907f083b6602b03e2f268ed881c9e0005168ddaf87439d1c711f59c4b50aaf799dba9060200160405180910390a350505050565b612459613e92565b611b305f61469d565b61246a613e92565b6001600160a01b03811661249157604051633e1e538160e21b815260040160405180910390fd5b600180546001600160a01b0319166001600160a01b0383169081179091556040517f3df77beb5db05fcdd70a30fc8adf3f83f9501b68579455adbd100b8180940394905f90a250565b5f6124e3613e42565b345f0361250357604051637294708f60e11b815260040160405180910390fd5b610e10821080612515575062093a8082115b1561253357604051637616640160e01b815260040160405180910390fd5b600680545f918261254383614ba6565b909155506040805160c0810182523381526001600160a01b0388166020820152908101869052346060820152909150608081016125808542614bbe565b8152600160209182018190525f848152600d8352604090819020845181546001600160a01b03199081166001600160a01b03928316178355948601519382018054909516931692909217909255908201516002820155606082015160038201556080820151600482015560a0909101516005909101805460ff191691151591909117905533817f1a8e4806e9c3198b224bf5fd328ba7488ee72334ba823076cf52dbfce562ffae8787346126348942614bbe565b604080516001600160a01b039095168552602085019390935291830152606082015260800160405180910390a3949350505050565b612671613e92565b611b306146ec565b5f612682613e42565b825f036126a257604051637294708f60e11b815260040160405180910390fd5b815f036126c257604051631ee1890760e11b815260040160405180910390fd5b6040516331a9108f60e11b815260048101859052859033906001600160a01b03831690636352211e90602401602060405180830381865afa158015612709573d5f5f3e3d5ffd5b505050506040513d601f19601f8201168201806040525081019061272d9190614b34565b6001600160a01b031614612754576040516359dc379f60e01b815260040160405180910390fd5b60405163020604bf60e21b81526004810186905230906001600160a01b0383169063081812fc90602401602060405180830381865afa158015612799573d5f5f3e3d5ffd5b505050506040513d601f19601f820116820180604052508101906127bd9190614b34565b6001600160a01b03161415801561283d575060405163e985e9c560e01b81523360048201523060248201526001600160a01b0382169063e985e9c590604401602060405180830381865afa158015612817573d5f5f3e3d5ffd5b505050506040513d601f19601f8201168201806040525081019061283b9190614b4f565b155b1561285b5760405163a9248d2560e01b815260040160405180910390fd5b600880545f918261286b83614ba6565b909155506040805160c081018252338082526001600160a01b038b811660208085019182528486018d8152606086018d8152608087018d8152600160a089018181525f8c8152600f909652948a9020985189549088166001600160a01b0319918216178a55955190890180549190971695169490941790945551600286015591516003850155516004840155516005909201805492151560ff199093169290921790915590519192509082907ff151287b445d27402a6fedc75b6fda02b446255392606788f176a0abc6e801849061296b908b908b908b908b906001600160a01b0394909416845260208401929092526040830152606082015260800190565b60405180910390a39695505050505050565b612985613e14565b61298d613e42565b5f828152600f60205260409020600581015460ff166129bf57604051632486874760e01b815260040160405180910390fd5b8115806129cf5750806004015482115b156129ed57604051631ee1890760e11b815260040160405180910390fd5b80546001600160a01b03163303612a1757604051632aa3c9e960e01b815260040160405180910390fd5b5f828260030154612a289190614bea565b90505f612a3482614274565b905080341015612a575760405163cd1c886760e01b815260040160405180910390fd5b5f612710612a6660c884614bea565b612a709190614c01565b612a7a9083614bbe565b905080341115612a9d57604051631e33487360e11b815260040160405180910390fd5b5f612aab8662015180614bea565b612ab59042614bbe565b600186015460028701546040516370182b2f60e11b8152600481019190915233602482015267ffffffffffffffff831660448201529192506001600160a01b03169063e030565e906064015f604051808303815f87803b158015612b17575f5ffd5b505af1158015612b29573d5f5f3e3d5ffd5b505050600186015460028701548754612b5093506001600160a01b03928316921686613ebe565b5f612b5b8434614bd7565b90508015612b8757335f9081526014602052604081208054839290612b81908490614bbe565b90915550505b855460018701546002880154612baf9233926001600160a01b03918216929116906005614163565b604080518881526020810186905233918a917f540e39b4120dc879102357b1015e8bd642c62615c854e26df377834ebcd23657910160405180910390a3505050505050612bfa613e6c565b5050565b5f818152600b60205260409020600781015460ff1615612c315760405163d02e774d60e01b815260040160405180910390fd5b80546001600160a01b03163314612c5b576040516322087f4960e11b815260040160405180910390fd5b60058101546001600160a01b031615612c87576040516335473acb60e01b815260040160405180910390fd5b60078101805460ff1916600190811790915581015481546002830154604051632142170760e11b81526001600160a01b03938416936342842e0e93612cd6933093919092169190600401614b6e565b5f604051808303815f87803b158015612ced575f5ffd5b505af1158015612cff573d5f5f3e3d5ffd5b50506040518492507f2809c7e17bf978fbc7194c0a694b638c4215e9140cacc6c38ca36010b45697df91505f90a25050565b612d39613e14565b612d41613e42565b5f818152600b60205260409020600781015460ff1615612d745760405163d02e774d60e01b815260040160405180910390fd5b80600601544210612d9857604051630129799f60e21b815260040160405180910390fd5b80546001600160a01b03163303612dc25760405163ef02588960e01b815260040160405180910390fd5b8060030154341015612de757604051636cdfbd7360e01b815260040160405180910390fd5b600481015415612e45575f6127106101f48360040154612e079190614bea565b612e119190614c01565b8260040154612e209190614bbe565b905080341015612e4357604051630ec4b5eb60e31b815260040160405180910390fd5b505b60058101546001600160a01b031615612e8e57600481015460058201546001600160a01b03165f9081526014602052604081208054909190612e88908490614bbe565b90915550505b3460048201556005810180546001600160a01b03191633179055600681015461012c90612ebc904290614bd7565b1015612f0b57612ece61012c42614bbe565b6006820181905560405190815282907f6e912a3a9105bdd2af817ba5adc14e6c127c1035b5b648faa29ca0d58ab8ff4e9060200160405180910390a25b604051348152339083907f0e54eff26401bf69b81b26f60bd85ef47f5d85275c1d268d84f68d6897431c47906020015b60405180910390a350611799613e6c565b6001600160a01b0381165f90815260136020526040812054808203612f7557505f928392509050565b6001600160a01b0383165f908152601260205260409020548190612f9a906064614bea565b612fa49190614c01565b9150915091565b5f5f5f612fb78461134b565b9050612fc281614274565b9250612710612fd260c885614bea565b612fdc9190614c01565b612fe69084614bbe565b915050915091565b5f612ff7613e14565b612fff613e42565b610e10821080613011575062093a8082115b1561302f57604051637616640160e01b815260040160405180910390fd5b6040516331a9108f60e11b815260048101869052869033906001600160a01b03831690636352211e90602401602060405180830381865afa158015613076573d5f5f3e3d5ffd5b505050506040513d601f19601f8201168201806040525081019061309a9190614b34565b6001600160a01b0316146130c1576040516359dc379f60e01b815260040160405180910390fd5b60405163020604bf60e21b81526004810187905230906001600160a01b0383169063081812fc90602401602060405180830381865afa158015613106573d5f5f3e3d5ffd5b505050506040513d601f19601f8201168201806040525081019061312a9190614b34565b6001600160a01b0316141580156131aa575060405163e985e9c560e01b81523360048201523060248201526001600160a01b0382169063e985e9c590604401602060405180830381865afa158015613184573d5f5f3e3d5ffd5b505050506040513d601f19601f820116820180604052508101906131a89190614b4f565b155b156131c85760405163a9248d2560e01b815260040160405180910390fd5b6040516323b872dd60e01b81526001600160a01b038216906323b872dd906131f890339030908b90600401614b6e565b5f604051808303815f87803b15801561320f575f5ffd5b505af1158015613221573d5f5f3e3d5ffd5b5050600780545f935091508261323683614ba6565b919050559050604051806101200160405280336001600160a01b031681526020018a6001600160a01b03168152602001896001600160a01b03168152602001888152602001876001600160a01b0316815260200186815260200134815260200185426132a29190614bbe565b8152600160209182018190525f848152600e83526040808220855181546001600160a01b03199081166001600160a01b039283161783559587015194820180548716958216959095179094558582015160028201805487169186169190911790556060860151600382015560808601516004820180549096169085161790945560a0850151600585015560c0850151600685015560e08501516007850155610100909401516008909301805460ff1916931515939093179092559151918b1691339184917f39d8683e02d07786a66eb86f938b372fd826475e504c6ce2819a6316fda997899190a49150506113d4613e6c565b606061339f613e42565b8584811415806133af5750808314155b156133cd5760405163512509d360e11b815260040160405180910390fd5b60148111156133ef576040516305beb17160e11b815260040160405180910390fd5b5f8167ffffffffffffffff81111561340957613409614c20565b604051908082528060200260200182016040528015613432578160200160208202803683370190505b5090505f5b828110156134b8576134938b8b8b8481811061345557613455614c34565b905060200201358a8a8581811061346e5761346e614c34565b9050602002013589898681811061348757613487614c34565b9050602002013561435f565b8282815181106134a5576134a5614c34565b6020908102919091010152600101613437565b50336001600160a01b03167f20bab890e3c2b44bebb771f1dfd0de19c2b0e5635e15c42d1c08e7ab45795cc3826040516134f29190614acf565b60405180910390a29998505050505050505050565b5f818152600a6020526040812060058101541580159061352a5750806005015442115b9392505050565b613539613e14565b5f818152600b60205260409020600781015460ff161561356c5760405163d02e774d60e01b815260040160405180910390fd5b806006015442101561359157604051639eafe1b760e01b815260040160405180910390fd5b60078101805460ff1916600117905560058101546001600160a01b0316156136c75760018101546002820154825460048401546135dc936001600160a01b0390811693921690613ebe565b600181015460058201546002830154604051632142170760e11b81526001600160a01b03938416936342842e0e9361361d9330939290911691600401614b6e565b5f604051808303815f87803b158015613634575f5ffd5b505af1158015613646573d5f5f3e3d5ffd5b50505050600581015481546001808401546002850154613677946001600160a01b0390811694811693921691614163565b600581015460048201546040519081526001600160a01b039091169083907fd2aa34a4fdbbc6dff6a3e56f46e0f3ae2a31d7785ff3487aa5c95c642acea5019060200160405180910390a3613766565b600181015481546002830154604051632142170760e11b81526001600160a01b03938416936342842e0e936137059330939290911691600401614b6e565b5f604051808303815f87803b15801561371c575f5ffd5b505af115801561372e573d5f5f3e3d5ffd5b50506040515f80825292508491507fd2aa34a4fdbbc6dff6a3e56f46e0f3ae2a31d7785ff3487aa5c95c642acea50190602001612f3b565b50611799613e6c565b613777613e42565b5f828152600a60205260409020600481015460ff166137a9576040516366cb03e960e01b815260040160405180910390fd5b80546001600160a01b031633146137d3576040516322087f4960e11b815260040160405180910390fd5b815f036137f357604051637294708f60e11b815260040160405180910390fd5b60038101805490839055604080518281526020810185905285917f36cfe22dfcf2d3781d9de6b307d67a5431b45492dad5e70e53dd4af34c25b849910160405180910390a250505050565b613846613e14565b61384e613e42565b5f818152600d60205260409020600581015460ff1661388057604051634d80826b60e11b815260040160405180910390fd5b80600401544211156138a557604051639cb1308760e01b815260040160405180910390fd5b600181015460028201546040516331a9108f60e11b81526001600160a01b039092169133918391636352211e916138e29160040190815260200190565b602060405180830381865afa1580156138fd573d5f5f3e3d5ffd5b505050506040513d601f19601f820116820180604052508101906139219190614b34565b6001600160a01b031614613948576040516359dc379f60e01b815260040160405180910390fd5b600282015460405163020604bf60e21b815230916001600160a01b0384169163081812fc9161397d9160040190815260200190565b602060405180830381865afa158015613998573d5f5f3e3d5ffd5b505050506040513d601f19601f820116820180604052508101906139bc9190614b34565b6001600160a01b031614158015613a3c575060405163e985e9c560e01b81523360048201523060248201526001600160a01b0382169063e985e9c590604401602060405180830381865afa158015613a16573d5f5f3e3d5ffd5b505050506040513d601f19601f82011682018060405250810190613a3a9190614b4f565b155b15613a5a5760405163a9248d2560e01b815260040160405180910390fd5b60058201805460ff19169055600182015460028301546003840154613a8b926001600160a01b031691903390613ebe565b81546002830154604051632142170760e11b81526001600160a01b03848116936342842e0e93613ac393339390921691600401614b6e565b5f604051808303815f87803b158015613ada575f5ffd5b505af1158015613aec573d5f5f3e3d5ffd5b5050835460018501546002860154613b1994506001600160a01b0392831693503392909116906003614163565b604051339084907fa7a40af5a1d0c10a3eb94af90cb008170915e8a71a6aaff052794cd762c72fc0905f90a35050611799613e6c565b5f818152600a602052604081206003810154829190612fc290614274565b613b75613e14565b5f818152600c60205260409020600781015460ff1615613ba857604051634b74dc9760e11b815260040160405180910390fd5b80546001600160a01b03163314613bd2576040516322087f4960e11b815260040160405180910390fd5b60078101805460ff1916600190811790915581015481546002830154604051632142170760e11b81526001600160a01b03938416936342842e0e93613c21933093919092169190600401614b6e565b5f604051808303815f87803b158015613c38575f5ffd5b505af1158015613c4a573d5f5f3e3d5ffd5b50506040518492507f2e78756868081fae5204bbe1e151c8934c2d7dcf6f4cdba38a18c3ee09f9767091505f90a250611799613e6c565b5f818152600d60205260409020600581015460ff16613cb357604051634d80826b60e11b815260040160405180910390fd5b80546001600160a01b03163314613cdd576040516322087f4960e11b815260040160405180910390fd5b60058101805460ff191690556003810154335f9081526014602052604081208054909190613d0c908490614bbe565b909155505060405182907fc28b4aed030bfacc245c0501326e1beb8c0ef0d60e4edc21067fdeb52da2a7aa905f90a25050565b613d47613e92565b6001600160a01b038116613d7557604051631e4fbdf760e01b81525f60048201526024015b60405180910390fd5b6117998161469d565b5f818152600f60205260409020600581015460ff16613db057604051632486874760e01b815260040160405180910390fd5b80546001600160a01b03163314613dda576040516322087f4960e11b815260040160405180910390fd5b60058101805460ff1916905560405182907fba6bf99531d1f4be033f1b60c3438d405a32ba8003a13be82ccbc5aef6b80a57905f90a25050565b613e1c61472e565b60027f9b779b17422d0df92223018b32b4d1fa46e071723d6817e2486d003becc55f0055565b5f54600160a01b900460ff1615611b305760405163d93c066560e01b815260040160405180910390fd5b60017f9b779b17422d0df92223018b32b4d1fa46e071723d6817e2486d003becc55f0055565b5f546001600160a01b03163314611b305760405163118cdaa760e01b8152336004820152602401613d6c565b5f61271060025483613ed09190614bea565b613eda9190614c01565b60405163152a902d60e11b815260048101869052602481018490529091505f9081906001600160a01b03881690632a55205a906044016040805180830381865afa925050508015613f48575060408051601f3d908101601f19168201909252613f4591810190614c48565b60015b15613f5257925090505b6001600160a01b038116613f64575f91505b83613f6f8385614bbe565b1115613f7b57505f9050805b5f82613f878587614bd7565b613f919190614bd7565b90508315613fe1578360145f613fae5f546001600160a01b031690565b6001600160a01b03166001600160a01b031681526020019081526020015f205f828254613fdb9190614bbe565b90915550505b5f83118015613ff857506001600160a01b03821615155b156141265760405163c484f31160e01b8152600481018890526001600160a01b0389169063c484f31190602401602060405180830381865afa92505050801561405e575060408051601f3d908101601f1916820190925261405b91810190614b4f565b60015b614094576001600160a01b0382165f9081526014602052604081208054859290614089908490614bbe565b909155506141269050565b80156140f757604051634cc575a960e01b8152600481018990526001600160a01b038a1690634cc575a99086906024015f604051808303818588803b1580156140db575f5ffd5b505af11580156140ed573d5f5f3e3d5ffd5b5050505050614124565b6001600160a01b0383165f908152601460205260408120805486929061411e908490614bbe565b90915550505b505b8015614159576001600160a01b0386165f9081526014602052604081208054839290614153908490614bbe565b90915550505b5050505050505050565b600980545f918261417383614ba6565b909155506040805160c0810182526001600160a01b0389811680835289821660208085018281528b851686880190815260608088018d815260ff8d811660808b018181524260a08d019081525f8f815260108a528e90209c518d54908d166001600160a01b0319918216178e55975160018e018054918e16918a16919091179055955160028d01805491909c16971696909617909955905160038a015592516004890180549190941660ff19909116179092555160059096019590955585519283528201529283015291925082917ff3b44e28d69c0a0d474484b9345eb23e108b3e437fb66da405f5b82401da499e910160405180910390a2505050505050565b6001545f906001600160a01b031661429f57604051633e1e538160e21b815260040160405180910390fd5b60015460408051638e15f47360e01b815281515f936001600160a01b031692638e15f47392600480820193918290030181865afa1580156142e2573d5f5f3e3d5ffd5b505050506040513d601f19601f820116820180604052508101906143069190614c74565b509050805f0361432957604051633e1e538160e21b815260040160405180910390fd5b8060018161434169d3c21bcecceda100000087614bea565b61434b9190614bbe565b6143559190614bd7565b61352a9190614c01565b5f825f0361438057604051637294708f60e11b815260040160405180910390fd5b6040516331a9108f60e11b815260048101859052859033906001600160a01b03831690636352211e90602401602060405180830381865afa1580156143c7573d5f5f3e3d5ffd5b505050506040513d601f19601f820116820180604052508101906143eb9190614b34565b6001600160a01b031614614412576040516359dc379f60e01b815260040160405180910390fd5b60405163020604bf60e21b81526004810186905230906001600160a01b0383169063081812fc90602401602060405180830381865afa158015614457573d5f5f3e3d5ffd5b505050506040513d601f19601f8201168201806040525081019061447b9190614b34565b6001600160a01b0316141580156144fb575060405163e985e9c560e01b81523360048201523060248201526001600160a01b0382169063e985e9c590604401602060405180830381865afa1580156144d5573d5f5f3e3d5ffd5b505050506040513d601f19601f820116820180604052508101906144f99190614b4f565b155b156145195760405163a9248d2560e01b815260040160405180910390fd5b5f831561452f5761452a8442614bbe565b614531565b5f5b600380549192505f91908261454583614ba6565b909155506040805160c081018252338082526001600160a01b038c811660208085018281528587018f8152606087018f815260016080890181815260a08a018e81525f8d8152600a909752958b902099518a549089166001600160a01b0319918216178b559451918a01805492909816919094161790955551600287015592516003860155915160048501805491151560ff19909216919091179055905160059093019290925591519293509183907f1d2286580411f12056775bf9e0fd10101148b09a6fca67c9f426fb113a28d1f890614636908c908c9089909283526020830191909152604082015260600190565b60405180910390a4979650505050505050565b614651614770565b5f805460ff60a01b191690557f5db9ee0a495bf2e6ff9c91a7834c1ba4fdd244a5e8aa4e537bd38aeae4b073aa335b6040516001600160a01b03909116815260200160405180910390a1565b5f80546001600160a01b038381166001600160a01b0319831681178455604051919092169283917f8be0079c531659141344cd1fd0a4f28419497f9722a3daafe3b4186f6b6457e09190a35050565b6146f4613e42565b5f805460ff60a01b1916600160a01b1790557f62e78cea01bee320cd4e420270b5ea74000d11b0c9f74754ebdbfc544b05a2586146803390565b7f9b779b17422d0df92223018b32b4d1fa46e071723d6817e2486d003becc55f0054600203611b3057604051633ee5aeb560e01b815260040160405180910390fd5b5f54600160a01b900460ff16611b3057604051638dfc202b60e01b815260040160405180910390fd5b6001600160a01b0381168114611799575f5ffd5b5f5f5f5f5f60a086880312156147c1575f5ffd5b85356147cc81614799565b97602087013597506040870135966060810135965060800135945092505050565b5f602082840312156147fd575f5ffd5b5035919050565b5f5f5f5f5f60808688031215614818575f5ffd5b853561482381614799565b9450602086013561483381614799565b935060408601359250606086013567ffffffffffffffff811115614855575f5ffd5b8601601f81018813614865575f5ffd5b803567ffffffffffffffff81111561487b575f5ffd5b88602082840101111561488c575f5ffd5b959894975092955050506020019190565b5f602082840312156148ad575f5ffd5b813561352a81614799565b5f5f5f5f608085870312156148cb575f5ffd5b84356148d681614799565b966020860135965060408601359560600135945092505050565b5f5f60408385031215614901575f5ffd5b82359150602083013560ff81168114614918575f5ffd5b809150509250929050565b5f5f5f60608486031215614935575f5ffd5b833561494081614799565b95602085013595506040909401359392505050565b5f5f60408385031215614966575f5ffd5b50508035926020909101359150565b5f5f5f5f5f5f60c0878903121561498a575f5ffd5b863561499581614799565b955060208701356149a581614799565b94506040870135935060608701356149bc81614799565b9598949750929560808101359460a0909101359350915050565b5f5f83601f8401126149e6575f5ffd5b50813567ffffffffffffffff8111156149fd575f5ffd5b6020830191508360208260051b8501011115614a17575f5ffd5b9250929050565b5f5f5f5f5f5f5f6080888a031215614a34575f5ffd5b8735614a3f81614799565b9650602088013567ffffffffffffffff811115614a5a575f5ffd5b614a668a828b016149d6565b909750955050604088013567ffffffffffffffff811115614a85575f5ffd5b614a918a828b016149d6565b909550935050606088013567ffffffffffffffff811115614ab0575f5ffd5b614abc8a828b016149d6565b989b979a50959850939692959293505050565b602080825282518282018190525f918401906040840190835b81811015614b06578351835260209384019390920191600101614ae8565b509095945050505050565b5f5f60408385031215614b22575f5ffd5b82359150602083013561491881614799565b5f60208284031215614b44575f5ffd5b815161352a81614799565b5f60208284031215614b5f575f5ffd5b8151801515811461352a575f5ffd5b6001600160a01b039384168152919092166020820152604081019190915260600190565b634e487b7160e01b5f52601160045260245ffd5b5f60018201614bb757614bb7614b92565b5060010190565b80820180821115614bd157614bd1614b92565b92915050565b81810381811115614bd157614bd1614b92565b8082028115828204841417614bd157614bd1614b92565b5f82614c1b57634e487b7160e01b5f52601260045260245ffd5b500490565b634e487b7160e01b5f52604160045260245ffd5b634e487b7160e01b5f52603260045260245ffd5b5f5f60408385031215614c59575f5ffd5b8251614c6481614799565b6020939093015192949293505050565b5f5f60408385031215614c85575f5ffd5b50508051602090910151909290915056fea2646970667358221220253f36c3344c8fbe94fabc37ae1e8466f3a15f81ce47589ff4360384fbf7c2f664736f6c634300081c0033",
  "linkReferences": {},
  "deployedLinkReferences": {}
}