{
  "_format": "hh-sol-artifact-1",
  "contractName": "SimpleOracle",
  "sourceName": "contracts/SimpleOracle.sol",
  "abi": [
    {
      "inputs": [],
      "stateMutability": "nonpayable",
      "type": "constructor"
    },
    {
      "inputs": [],
      "name": "AlreadySubmitted",
      "type": "error"
    },
    {
      "inputs": [],
      "name": "NoPrice",
      "type": "error"
    },
    {
      "inputs": [],
      "name": "NotAuthorizedReporter",
      "type": "error"
    },
    {
      "inputs": [
        {
          "internalType": "address",
          "name": "owner",
          "type": "address"
        }
      ],
      "name": "OwnableInvalidOwner",
      "type": "error"
    },
    {
      "inputs": [
        {
          "internalType": "address",
          "name": "account",
          "type": "address"
        }
      ],
      "name": "OwnableUnauthorizedAccount",
      "type": "error"
    },
    {
      "inputs": [],
      "name": "StalePrice",
      "type": "error"
    },
    {
      "anonymous": false,
      "inputs": [
        {
          "indexed": true,
          "internalType": "address",
          "name": "previousOwner",
          "type": "address"
        },
        {
          "indexed": true,
          "internalType": "address",
          "name": "newOwner",
          "type": "address"
        }
      ],
      "name": "OwnershipTransferred",
      "type": "event"
    },
    {
      "anonymous": false,
      "inputs": [
        {
          "indexed": true,
          "internalType": "uint256",
          "name": "roundId",
          "type": "uint256"
        },
        {
          "indexed": true,
          "internalType": "address",
          "name": "reporter",
          "type": "address"
        },
        {
          "indexed": false,
          "internalType": "uint256",
          "name": "price",
          "type": "uint256"
        }
      ],
      "name": "PriceSubmitted",
      "type": "event"
    },
    {
      "anonymous": false,
      "inputs": [
        {
          "indexed": true,
          "internalType": "uint256",
          "name": "roundId",
          "type": "uint256"
        },
        {
          "indexed": false,
          "internalType": "uint256",
          "name": "price",
          "type": "uint256"
        },
        {
          "indexed": false,
          "internalType": "uint256",
          "name": "timestamp",
          "type": "uint256"
        }
      ],
      "name": "PriceUpdated",
      "type": "event"
    },
    {
      "anonymous": false,
      "inputs": [
        {
          "indexed": true,
          "internalType": "address",
          "name": "reporter",
          "type": "address"
        }
      ],
      "name": "ReporterAdded",
      "type": "event"
    },
    {
      "anonymous": false,
      "inputs": [
        {
          "indexed": true,
          "internalType": "address",
          "name": "reporter",
          "type": "address"
        }
      ],
      "name": "ReporterRemoved",
      "type": "event"
    },
    {
      "inputs": [],
      "name": "DECIMALS",
      "outputs": [
        {
          "internalType": "uint256",
          "name": "",
          "type": "uint256"
        }
      ],
      "stateMutability": "view",
      "type": "function"
    },
    {
      "inputs": [],
      "name": "MIN_REPORTERS",
      "outputs": [
        {
          "internalType": "uint256",
          "name": "",
          "type": "uint256"
        }
      ],
      "stateMutability": "view",
      "type": "function"
    },
    {
      "inputs": [],
      "name": "STALENESS_THRESHOLD",
      "outputs": [
        {
          "internalType": "uint256",
          "name": "",
          "type": "uint256"
        }
      ],
      "stateMutability": "view",
      "type": "function"
    },
    {
      "inputs": [
        {
          "internalType": "address",
          "name": "reporter",
          "type": "address"
        }
      ],
      "name": "addReporter",
      "outputs": [],
      "stateMutability": "nonpayable",
      "type": "function"
    },
    {
      "inputs": [
        {
          "internalType": "address",
          "name": "",
          "type": "address"
        }
      ],
      "name": "authorizedReporters",
      "outputs": [
        {
          "internalType": "bool",
          "name": "",
          "type": "bool"
        }
      ],
      "stateMutability": "view",
      "type": "function"
    },
    {
      "inputs": [],
      "name": "currentRoundId",
      "outputs": [
        {
          "internalType": "uint256",
          "name": "",
          "type": "uint256"
        }
      ],
      "stateMutability": "view",
      "type": "function"
    },
    {
      "inputs": [],
      "name": "getCurrentRoundSubmissions",
      "outputs": [
        {
          "internalType": "uint256",
          "name": "",
          "type": "uint256"
        }
      ],
      "stateMutability": "view",
      "type": "function"
    },
    {
      "inputs": [],
      "name": "getLatestPrice",
      "outputs": [
        {
          "internalType": "uint256",
          "name": "price",
          "type": "uint256"
        },
        {
          "internalType": "uint256",
          "name": "timestamp",
          "type": "uint256"
        }
      ],
      "stateMutability": "view",
      "type": "function"
    },
    {
      "inputs": [],
      "name": "getLatestPriceUnsafe",
      "outputs": [
        {
          "internalType": "uint256",
          "name": "price",
          "type": "uint256"
        },
        {
          "internalType": "uint256",
          "name": "timestamp",
          "type": "uint256"
        },
        {
          "internalType": "uint256",
          "name": "reporters",
          "type": "uint256"
        }
      ],
      "stateMutability": "view",
      "type": "function"
    },
    {
      "inputs": [],
      "name": "latestRound",
      "outputs": [
        {
          "internalType": "uint256",
          "name": "price",
          "type": "uint256"
        },
        {
          "internalType": "uint256",
          "name": "timestamp",
          "type": "uint256"
        },
        {
          "internalType": "uint256",
          "name": "reporterCount",
          "type": "uint256"
        }
      ],
      "stateMutability": "view",
      "type": "function"
    },
    {
      "inputs": [],
      "name": "owner",
      "outputs": [
        {
          "internalType": "address",
          "name": "",
          "type": "address"
        }
      ],
      "stateMutability": "view",
      "type": "function"
    },
    {
      "inputs": [
        {
          "internalType": "address",
          "name": "reporter",
          "type": "address"
        }
      ],
      "name": "removeReporter",
      "outputs": [],
      "stateMutability": "nonpayable",
      "type": "function"
    },
    {
      "inputs": [],
      "name": "renounceOwnership",
      "outputs": [],
      "stateMutability": "nonpayable",
      "type": "function"
    },
    {
      "inputs": [],
      "name": "reporterCount",
      "outputs": [
        {
          "internalType": "uint256",
          "name": "",
          "type": "uint256"
        }
      ],
      "stateMutability": "view",
      "type": "function"
    },
    {
      "inputs": [
        {
          "internalType": "uint256",
          "name": "price",
          "type": "uint256"
        }
      ],
      "name": "submitPrice",
      "outputs": [],
      "stateMutability": "nonpayable",
      "type": "function"
    },
    {
      "inputs": [
        {
          "internalType": "address",
          "name": "newOwner",
          "type": "address"
        }
      ],
      "name": "transferOwnership",
      "outputs": [],
      "stateMutability": "nonpayable",
      "type": "function"
    }
  ],
  "bytecode": "0x6080604052348015600e575f5ffd5b503380603357604051631e4fbdf760e01b81525f600482015260240160405180910390fd5b603a81603f565b50608e565b5f80546001600160a01b038381166001600160a01b0319831681178455604051919092169283917f8be0079c531659141344cd1fd0a4f28419497f9722a3daafe3b4186f6b6457e09190a35050565b6108eb8061009b5f395ff3fe608060405234801561000f575f5ffd5b50600436106100fb575f3560e01c80638da5cb5b116100935780639cbe5efd116100635780639cbe5efd14610208578063dd8755f214610211578063f2fde38b14610224578063fe9bd8cc14610237575f5ffd5b80638da5cb5b146101b65780638e15f473146101d0578063986fcbe9146101ed578063999ad67d14610200575f5ffd5b8063715018a6116100ce578063715018a61461018e5780637215b0bf14610196578063850e3c481461019f578063867df156146101a8575f5ffd5b80632e0f2625146100ff5780633a41429a1461011a5780635de5c2121461014c578063668a0f0214610161575b5f5ffd5b610107600881565b6040519081526020015b60405180910390f35b61013c6101283660046107e4565b60016020525f908152604090205460ff1681565b6040519015158152602001610111565b61015f61015a3660046107e4565b61023f565b005b60035460045460055461017392919083565b60408051938452602084019290925290820152606001610111565b61015f6102d0565b610107610e1081565b61010760025481565b600354600454600554610173565b5f546040516001600160a01b039091168152602001610111565b6101d86102e3565b60408051928352602083019190915201610111565b61015f6101fb366004610811565b610346565b610107600381565b61010760065481565b61015f61021f3660046107e4565b610469565b61015f6102323660046107e4565b6104fd565b600854610107565b61024761053c565b6001600160a01b0381165f9081526001602052604090205460ff16156102cd576001600160a01b0381165f908152600160205260408120805460ff1916905560028054916102948361083c565b90915550506040516001600160a01b038216907ff125aa5e6cb22c17ea0de4e1f86d2ff289ddd6a37e791b9ad29d0091cba06ac8905f90a25b50565b6102d861053c565b6102e15f610568565b565b5f5f6003600101545f0361030a5760405163c149905d60e01b815260040160405180910390fd5b600454610e109061031b9042610851565b111561033a57604051630cd5fa0760e11b815260040160405180910390fd5b50506003546004549091565b335f9081526001602052604090205460ff1661037557604051631c833d8160e21b815260040160405180910390fd5b6006545f90815260076020908152604080832033845290915290205460ff16156103b257604051639fbfc58960e01b815260040160405180910390fd5b6006545f9081526007602090815260408083203384529091528120805460ff1916600190811790915560098054918201815582527f6e1540171b6c0c960b71a7020d9f60077f6af931a8bbf590da0223dacf75c7af0182905560088054916104198361086a565b90915550506006546040518281523391907f2655941ef0e01e05d55a873609115593db7df65cd101451b9f7e89ede1613ec99060200160405180910390a36003600854106102cd576102cd6105b7565b61047161053c565b6001600160a01b0381165f9081526001602052604090205460ff166102cd576001600160a01b0381165f9081526001602081905260408220805460ff1916909117905560028054916104c28361086a565b90915550506040516001600160a01b038216907f52824c4a4d431c73d6d24a91f775d722860111c6d30da30b0b21e062fb4c7365905f90a250565b61050561053c565b6001600160a01b03811661053357604051631e4fbdf760e01b81525f60048201526024015b60405180910390fd5b6102cd81610568565b5f546001600160a01b031633146102e15760405163118cdaa760e01b815233600482015260240161052a565b5f80546001600160a01b038381166001600160a01b0319831681178455604051919092169283917f8be0079c531659141344cd1fd0a4f28419497f9722a3daafe3b4186f6b6457e09190a35050565b5f600980548060200260200160405190810160405280929190818152602001828054801561060257602002820191905f5260205f20905b8154815260200190600101908083116105ee575b50505050509050610612816106d7565b5f81600283516106229190610882565b81518110610632576106326108a1565b6020908102919091018101516040805160608101825282815242938101849052600854908201819052600383905560048490556005556006549051919350917f15819dd2fd9f6418b142e798d08a18d0bf06ea368f4480b7b0d3f75bd966bc48916106a591858252602082015260400190565b60405180910390a260068054905f6106bc8361086a565b90915550505f60088190556106d3906009906107b6565b5050565b60015b81518110156106d3575f8282815181106106f6576106f66108a1565b602002602001015190505f8290505b5f811180156107365750818461071c600184610851565b8151811061072c5761072c6108a1565b6020026020010151115b1561078e5783610747600183610851565b81518110610757576107576108a1565b6020026020010151848281518110610771576107716108a1565b6020908102919091010152806107868161083c565b915050610705565b818482815181106107a1576107a16108a1565b602090810291909101015250506001016106da565b5080545f8255905f5260205f20908101906102cd91905b808211156107e0575f81556001016107cd565b5090565b5f602082840312156107f4575f5ffd5b81356001600160a01b038116811461080a575f5ffd5b9392505050565b5f60208284031215610821575f5ffd5b5035919050565b634e487b7160e01b5f52601160045260245ffd5b5f8161084a5761084a610828565b505f190190565b8181038181111561086457610864610828565b92915050565b5f6001820161087b5761087b610828565b5060010190565b5f8261089c57634e487b7160e01b5f52601260045260245ffd5b500490565b634e487b7160e01b5f52603260045260245ffdfea2646970667358221220ccb3827157740dcf946365e32d80df7cadc255dd6373aeeac8f260e7e7fca77764736f6c634300081c0033",
  "linkReferences": {},
  "deployedLinkReferences": {}
}