{
  "_format": "hh-sol-artifact-1",
  "contractName": "SimpleOracle",
  "sourceName": "contracts/SimpleOracle.sol",
  "abi": [
    {
      "inputs": [],
      "stateMutability": "nonpayable",
      "type": "constructor"
    },
    {
      "inputs": [],
      "name": "AlreadySubmitted",
      "type": "error"
    },
    {
      "inputs": [],
      "name": "NoPrice",
      "type": "error"
    },
    {
      "inputs": [],
      "name": "NotAuthorizedReporter",
      "type": "error"
    },
    {
      "inputs": [
        {
          "internalType": "address",
          "name": "owner",
          "type": "address"
        }
      ],
      "name": "OwnableInvalidOwner",
      "type": "error"
    },
    {
      "inputs": [
        {
          "internalType": "address",
          "name": "account",
          "type": "address"
        }
      ],
      "name": "OwnableUnauthorizedAccount",
      "type": "error"
    },
    {
      "inputs": [],
      "name": "PriceDeviationTooHigh",
      "type": "error"
    },
    {
      "inputs": [],
      "name": "RoundTooFrequent",
      "type": "error"
    },
    {
      "inputs": [],
      "name": "StalePrice",
      "type": "error"
    },
    {
      "anonymous": false,
      "inputs": [
        {
          "indexed": false,
          "internalType": "uint256",
          "name": "price",
          "type": "uint256"
        },
        {
          "indexed": false,
          "internalType": "uint256",
          "name": "timestamp",
          "type": "uint256"
        }
      ],
      "name": "EmergencyPriceSet",
      "type": "event"
    },
    {
      "anonymous": false,
      "inputs": [
        {
          "indexed": false,
          "internalType": "uint256",
          "name": "newInterval",
          "type": "uint256"
        }
      ],
      "name": "MinRoundIntervalUpdated",
      "type": "event"
    },
    {
      "anonymous": false,
      "inputs": [
        {
          "indexed": true,
          "internalType": "address",
          "name": "previousOwner",
          "type": "address"
        },
        {
          "indexed": true,
          "internalType": "address",
          "name": "newOwner",
          "type": "address"
        }
      ],
      "name": "OwnershipTransferred",
      "type": "event"
    },
    {
      "anonymous": false,
      "inputs": [
        {
          "indexed": true,
          "internalType": "uint256",
          "name": "roundId",
          "type": "uint256"
        },
        {
          "indexed": true,
          "internalType": "address",
          "name": "reporter",
          "type": "address"
        },
        {
          "indexed": false,
          "internalType": "uint256",
          "name": "price",
          "type": "uint256"
        }
      ],
      "name": "PriceSubmitted",
      "type": "event"
    },
    {
      "anonymous": false,
      "inputs": [
        {
          "indexed": true,
          "internalType": "uint256",
          "name": "roundId",
          "type": "uint256"
        },
        {
          "indexed": false,
          "internalType": "uint256",
          "name": "price",
          "type": "uint256"
        },
        {
          "indexed": false,
          "internalType": "uint256",
          "name": "timestamp",
          "type": "uint256"
        }
      ],
      "name": "PriceUpdated",
      "type": "event"
    },
    {
      "anonymous": false,
      "inputs": [
        {
          "indexed": true,
          "internalType": "address",
          "name": "reporter",
          "type": "address"
        }
      ],
      "name": "ReporterAdded",
      "type": "event"
    },
    {
      "anonymous": false,
      "inputs": [
        {
          "indexed": true,
          "internalType": "address",
          "name": "reporter",
          "type": "address"
        }
      ],
      "name": "ReporterRemoved",
      "type": "event"
    },
    {
      "inputs": [],
      "name": "DECIMALS",
      "outputs": [
        {
          "internalType": "uint256",
          "name": "",
          "type": "uint256"
        }
      ],
      "stateMutability": "view",
      "type": "function"
    },
    {
      "inputs": [],
      "name": "MAX_HISTORY",
      "outputs": [
        {
          "internalType": "uint256",
          "name": "",
          "type": "uint256"
        }
      ],
      "stateMutability": "view",
      "type": "function"
    },
    {
      "inputs": [],
      "name": "MIN_REPORTERS",
      "outputs": [
        {
          "internalType": "uint256",
          "name": "",
          "type": "uint256"
        }
      ],
      "stateMutability": "view",
      "type": "function"
    },
    {
      "inputs": [],
      "name": "STALENESS_THRESHOLD",
      "outputs": [
        {
          "internalType": "uint256",
          "name": "",
          "type": "uint256"
        }
      ],
      "stateMutability": "view",
      "type": "function"
    },
    {
      "inputs": [
        {
          "internalType": "address",
          "name": "reporter",
          "type": "address"
        }
      ],
      "name": "addReporter",
      "outputs": [],
      "stateMutability": "nonpayable",
      "type": "function"
    },
    {
      "inputs": [
        {
          "internalType": "address",
          "name": "",
          "type": "address"
        }
      ],
      "name": "authorizedReporters",
      "outputs": [
        {
          "internalType": "bool",
          "name": "",
          "type": "bool"
        }
      ],
      "stateMutability": "view",
      "type": "function"
    },
    {
      "inputs": [],
      "name": "currentRoundId",
      "outputs": [
        {
          "internalType": "uint256",
          "name": "",
          "type": "uint256"
        }
      ],
      "stateMutability": "view",
      "type": "function"
    },
    {
      "inputs": [],
      "name": "emergencyPriceActive",
      "outputs": [
        {
          "internalType": "bool",
          "name": "",
          "type": "bool"
        }
      ],
      "stateMutability": "view",
      "type": "function"
    },
    {
      "inputs": [
        {
          "internalType": "uint256",
          "name": "price",
          "type": "uint256"
        }
      ],
      "name": "emergencySetPrice",
      "outputs": [],
      "stateMutability": "nonpayable",
      "type": "function"
    },
    {
      "inputs": [],
      "name": "forceAdvanceRound",
      "outputs": [],
      "stateMutability": "nonpayable",
      "type": "function"
    },
    {
      "inputs": [],
      "name": "getCurrentRoundSubmissions",
      "outputs": [
        {
          "internalType": "uint256",
          "name": "",
          "type": "uint256"
        }
      ],
      "stateMutability": "view",
      "type": "function"
    },
    {
      "inputs": [],
      "name": "getLatestPrice",
      "outputs": [
        {
          "internalType": "uint256",
          "name": "price",
          "type": "uint256"
        },
        {
          "internalType": "uint256",
          "name": "timestamp",
          "type": "uint256"
        }
      ],
      "stateMutability": "view",
      "type": "function"
    },
    {
      "inputs": [],
      "name": "getLatestPriceUnsafe",
      "outputs": [
        {
          "internalType": "uint256",
          "name": "price",
          "type": "uint256"
        },
        {
          "internalType": "uint256",
          "name": "timestamp",
          "type": "uint256"
        },
        {
          "internalType": "uint256",
          "name": "reporters",
          "type": "uint256"
        }
      ],
      "stateMutability": "view",
      "type": "function"
    },
    {
      "inputs": [],
      "name": "getPriceHistory",
      "outputs": [
        {
          "components": [
            {
              "internalType": "uint256",
              "name": "price",
              "type": "uint256"
            },
            {
              "internalType": "uint256",
              "name": "timestamp",
              "type": "uint256"
            },
            {
              "internalType": "uint256",
              "name": "reporterCount",
              "type": "uint256"
            }
          ],
          "internalType": "struct SimpleOracle.PriceRound[]",
          "name": "",
          "type": "tuple[]"
        }
      ],
      "stateMutability": "view",
      "type": "function"
    },
    {
      "inputs": [],
      "name": "getPriceHistoryLength",
      "outputs": [
        {
          "internalType": "uint256",
          "name": "",
          "type": "uint256"
        }
      ],
      "stateMutability": "view",
      "type": "function"
    },
    {
      "inputs": [],
      "name": "getTWAP",
      "outputs": [
        {
          "internalType": "uint256",
          "name": "twapPrice",
          "type": "uint256"
        },
        {
          "internalType": "uint256",
          "name": "sampleCount",
          "type": "uint256"
        }
      ],
      "stateMutability": "view",
      "type": "function"
    },
    {
      "inputs": [],
      "name": "getVolatility",
      "outputs": [
        {
          "internalType": "uint256",
          "name": "volatilityBps",
          "type": "uint256"
        },
        {
          "internalType": "uint256",
          "name": "sampleCount",
          "type": "uint256"
        }
      ],
      "stateMutability": "view",
      "type": "function"
    },
    {
      "inputs": [
        {
          "internalType": "address",
          "name": "reporter",
          "type": "address"
        }
      ],
      "name": "hasSubmitted",
      "outputs": [
        {
          "internalType": "bool",
          "name": "",
          "type": "bool"
        }
      ],
      "stateMutability": "view",
      "type": "function"
    },
    {
      "inputs": [],
      "name": "latestRound",
      "outputs": [
        {
          "internalType": "uint256",
          "name": "price",
          "type": "uint256"
        },
        {
          "internalType": "uint256",
          "name": "timestamp",
          "type": "uint256"
        },
        {
          "internalType": "uint256",
          "name": "reporterCount",
          "type": "uint256"
        }
      ],
      "stateMutability": "view",
      "type": "function"
    },
    {
      "inputs": [],
      "name": "minRoundInterval",
      "outputs": [
        {
          "internalType": "uint256",
          "name": "",
          "type": "uint256"
        }
      ],
      "stateMutability": "view",
      "type": "function"
    },
    {
      "inputs": [],
      "name": "owner",
      "outputs": [
        {
          "internalType": "address",
          "name": "",
          "type": "address"
        }
      ],
      "stateMutability": "view",
      "type": "function"
    },
    {
      "inputs": [
        {
          "internalType": "uint256",
          "name": "",
          "type": "uint256"
        }
      ],
      "name": "priceHistory",
      "outputs": [
        {
          "internalType": "uint256",
          "name": "price",
          "type": "uint256"
        },
        {
          "internalType": "uint256",
          "name": "timestamp",
          "type": "uint256"
        },
        {
          "internalType": "uint256",
          "name": "reporterCount",
          "type": "uint256"
        }
      ],
      "stateMutability": "view",
      "type": "function"
    },
    {
      "inputs": [
        {
          "internalType": "address",
          "name": "reporter",
          "type": "address"
        }
      ],
      "name": "removeReporter",
      "outputs": [],
      "stateMutability": "nonpayable",
      "type": "function"
    },
    {
      "inputs": [],
      "name": "renounceOwnership",
      "outputs": [],
      "stateMutability": "nonpayable",
      "type": "function"
    },
    {
      "inputs": [],
      "name": "reporterCount",
      "outputs": [
        {
          "internalType": "uint256",
          "name": "",
          "type": "uint256"
        }
      ],
      "stateMutability": "view",
      "type": "function"
    },
    {
      "inputs": [
        {
          "internalType": "address",
          "name": "",
          "type": "address"
        }
      ],
      "name": "reporterSubmissions",
      "outputs": [
        {
          "internalType": "uint256",
          "name": "",
          "type": "uint256"
        }
      ],
      "stateMutability": "view",
      "type": "function"
    },
    {
      "inputs": [
        {
          "internalType": "uint256",
          "name": "interval",
          "type": "uint256"
        }
      ],
      "name": "setMinRoundInterval",
      "outputs": [],
      "stateMutability": "nonpayable",
      "type": "function"
    },
    {
      "inputs": [
        {
          "internalType": "uint256",
          "name": "price",
          "type": "uint256"
        }
      ],
      "name": "submitPrice",
      "outputs": [],
      "stateMutability": "nonpayable",
      "type": "function"
    },
    {
      "inputs": [
        {
          "internalType": "address",
          "name": "newOwner",
          "type": "address"
        }
      ],
      "name": "transferOwnership",
      "outputs": [],
      "stateMutability": "nonpayable",
      "type": "function"
    }
  ],
  "bytecode": "0x6080604052348015600e575f5ffd5b503380603357604051631e4fbdf760e01b81525f600482015260240160405180910390fd5b603a81603f565b50608e565b5f80546001600160a01b038381166001600160a01b0319831681178455604051919092169283917f8be0079c531659141344cd1fd0a4f28419497f9722a3daafe3b4186f6b6457e09190a35050565b6112428061009b5f395ff3fe608060405234801561000f575f5ffd5b50600436106101c6575f3560e01c8063850e3c48116100fe5780639cbe5efd1161009e578063dd8755f21161006e578063dd8755f2146103b7578063f2fde38b146103ca578063f42e9808146103dd578063fe9bd8cc146103e6575f5ffd5b80639cbe5efd14610380578063a524c7ea14610389578063b27a048414610391578063dc044784146103a4575f5ffd5b80638e15f473116100d95780638e15f47314610348578063929f037914610350578063986fcbe914610365578063999ad67d14610378575f5ffd5b8063850e3c4814610317578063867df156146103205780638da5cb5b1461032e575f5ffd5b80633d17ad3a1161016957806361dc8ecb1161014457806361dc8ecb146102d1578063668a0f02146102d9578063715018a6146103065780637215b0bf1461030e575f5ffd5b80633d17ad3a1461028a578063514454fb1461029f5780635de5c212146102be575f5ffd5b80632e0f2625116101a45780632e0f26251461021f578063388044b3146102275780633a41429a146102605780633af2888b14610282575f5ffd5b806305ecd003146101ca57806313545a02146101ec578063163b4cd414610202575b5f5ffd5b6101d26103ee565b604080519283526020830191909152015b60405180910390f35b6101f4600a81565b6040519081526020016101e3565b600c5461020f9060ff1681565b60405190151581526020016101e3565b6101f4600881565b61020f610235366004611098565b6006545f9081526008602090815260408083206001600160a01b039094168352929052205460ff1690565b61020f61026e366004611098565b60016020525f908152604090205460ff1681565b6101d26105e4565b61029d6102983660046110c5565b6106a5565b005b6101f46102ad366004611098565b600b6020525f908152604090205481565b61029d6102cc366004611098565b610827565b61029d6108b8565b6003546004546005546102eb92919083565b604080519384526020840192909252908201526060016101e3565b61029d6108e8565b6101f4610e1081565b6101f460025481565b6003546004546005546102eb565b5f546040516001600160a01b0390911681526020016101e3565b6101d26108f9565b61035861095c565b6040516101e391906110dc565b61029d6103733660046110c5565b6109d5565b6101f4600381565b6101f460065481565b6007546101f4565b6102eb61039f3660046110c5565b610b7d565b61029d6103b23660046110c5565b610bae565b61029d6103c5366004611098565b610beb565b61029d6103d8366004611098565b610c7f565b6101f4600d5481565b6009546101f4565b6007545f908082036104135760405163c149905d60e01b815260040160405180910390fd5b806001036104475760075f8154811061042e5761042e61113a565b905f5260205f2090600302015f01546001915091509091565b5f80805b610456600185611162565b81101561050a575f600782815481106104715761047161113a565b905f5260205f209060030201600101546007836001610490919061117b565b815481106104a0576104a061113a565b905f5260205f209060030201600101546104ba9190611162565b905080600783815481106104d0576104d061113a565b905f5260205f2090600302015f01546104e9919061118e565b6104f3908561117b565b93506104ff818461117b565b92505060010161044b565b505f6007610519600186611162565b815481106105295761052961113a565b905f5260205f20906003020160010154426105449190611162565b9050806007610554600187611162565b815481106105645761056461113a565b905f5260205f2090600302015f015461057d919061118e565b610587908461117b565b9250610593818361117b565b9150815f036105d15760076105a9600186611162565b815481106105b9576105b961113a565b905f5260205f2090600302015f015494505050509091565b6105db82846111b9565b94505050509091565b6007545f9060028110156105f9575f91509091565b5f195f80805b84811015610659575f6007828154811061061b5761061b61113a565b905f5260205f2090600302015f0154905084811015610638578094505b83811115610644578093505b61064e818461117b565b9250506001016105ff565b505f61066585836111b9565b9050805f03610679575f9550505050509091565b806127106106878686611162565b610691919061118e565b61069b91906111b9565b9550505050509091565b6106ad610cbe565b805f036106cd5760405163c149905d60e01b815260040160405180910390fd5b6040805160608101825282815242602082018190525f919092018190526003839055600491909155600555600c805460ff19166001179055600754600a11156107a057600780546001810182555f919091526003805491027fa66cc928b5edb82af9bd49922954155ab7b0942694bea4ce44661d9a8736c6888101919091556004547fa66cc928b5edb82af9bd49922954155ab7b0942694bea4ce44661d9a8736c6898201556005547fa66cc928b5edb82af9bd49922954155ab7b0942694bea4ce44661d9a8736c68a909101556107eb565b60036007600a6006546107b391906111cc565b815481106107c3576107c361113a565b5f91825260209091208254600390920201908155600180830154908201556002918201549101555b604080518281524260208201527f0cdb493324e99e83676e2826356d9387f491cb8b0d60a6d0cdbf3f28166d7b6591015b60405180910390a150565b61082f610cbe565b6001600160a01b0381165f9081526001602052604090205460ff16156108b5576001600160a01b0381165f908152600160205260408120805460ff19169055600280549161087c836111df565b90915550506040516001600160a01b038216907ff125aa5e6cb22c17ea0de4e1f86d2ff289ddd6a37e791b9ad29d0091cba06ac8905f90a25b50565b6108c0610cbe565b60068054905f6108cf836111f4565b90915550505f60098190556108e690600a9061106a565b565b6108f0610cbe565b6108e65f610cea565b5f5f6003600101545f036109205760405163c149905d60e01b815260040160405180910390fd5b600454610e10906109319042611162565b111561095057604051630cd5fa0760e11b815260040160405180910390fd5b50506003546004549091565b60606007805480602002602001604051908101604052809291908181526020015f905b828210156109cc578382905f5260205f2090600302016040518060600160405290815f8201548152602001600182015481526020016002820154815250508152602001906001019061097f565b50505050905090565b335f9081526001602052604090205460ff16610a0457604051631c833d8160e21b815260040160405180910390fd5b6006545f90815260086020908152604080832033845290915290205460ff1615610a4157604051639fbfc58960e01b815260040160405180910390fd5b60045415610aa7576003545f818311610a6357610a5e8383611162565b610a6d565b610a6d8284611162565b9050610a7a82603261118e565b610a8582606461118e565b1115610aa4576040516369e2517960e11b815260040160405180910390fd5b50505b6006545f9081526008602090815260408083203384529091528120805460ff19166001908117909155600a8054918201815582527fc65a7bb8d6351c1cf70c95a316cc6a92839c986682d98bc35f958f4883f9d2a8018290556009805491610b0e836111f4565b9091555050335f908152600b60205260408120805491610b2d836111f4565b90915550506006546040518281523391907f2655941ef0e01e05d55a873609115593db7df65cd101451b9f7e89ede1613ec99060200160405180910390a36003600954106108b5576108b5610d39565b60078181548110610b8c575f80fd5b5f91825260209091206003909102018054600182015460029092015490925083565b610bb6610cbe565b600d8190556040518181527f60123b8789d68d6a3a4b1592f2b8be4211b24c63398e83e66ab7748a5feb3f9e9060200161081c565b610bf3610cbe565b6001600160a01b0381165f9081526001602052604090205460ff166108b5576001600160a01b0381165f9081526001602081905260408220805460ff191690911790556002805491610c44836111f4565b90915550506040516001600160a01b038216907f52824c4a4d431c73d6d24a91f775d722860111c6d30da30b0b21e062fb4c7365905f90a250565b610c87610cbe565b6001600160a01b038116610cb557604051631e4fbdf760e01b81525f60048201526024015b60405180910390fd5b6108b581610cea565b5f546001600160a01b031633146108e65760405163118cdaa760e01b8152336004820152602401610cac565b5f80546001600160a01b038381166001600160a01b0319831681178455604051919092169283917f8be0079c531659141344cd1fd0a4f28419497f9722a3daafe3b4186f6b6457e09190a35050565b5f600d54118015610d4b575060045415155b15610d7f57600d54600454610d609042611162565b1015610d7f576040516307bc94db60e51b815260040160405180910390fd5b5f600a805480602002602001604051908101604052809291908181526020018280548015610dca57602002820191905f5260205f20905b815481526020019060010190808311610db6575b50505050509050610dda81610f8b565b5f8160028351610dea91906111b9565b81518110610dfa57610dfa61113a565b602090810291909101810151604080516060810182528281524293810184905260095491018190526003829055600492909255600591909155600754909150600a1115610ed157600780546001810182555f919091526003805491027fa66cc928b5edb82af9bd49922954155ab7b0942694bea4ce44661d9a8736c6888101919091556004547fa66cc928b5edb82af9bd49922954155ab7b0942694bea4ce44661d9a8736c6898201556005547fa66cc928b5edb82af9bd49922954155ab7b0942694bea4ce44661d9a8736c68a90910155610f1c565b60036007600a600654610ee491906111cc565b81548110610ef457610ef461113a565b5f91825260209091208254600390920201908155600180830154908201556002918201549101555b600c805460ff19169055600654604080518381524260208201527f15819dd2fd9f6418b142e798d08a18d0bf06ea368f4480b7b0d3f75bd966bc48910160405180910390a260068054905f610f70836111f4565b90915550505f6009819055610f8790600a9061106a565b5050565b60015b8151811015610f87575f828281518110610faa57610faa61113a565b602002602001015190505f8290505b5f81118015610fea57508184610fd0600184611162565b81518110610fe057610fe061113a565b6020026020010151115b156110425783610ffb600183611162565b8151811061100b5761100b61113a565b60200260200101518482815181106110255761102561113a565b60209081029190910101528061103a816111df565b915050610fb9565b818482815181106110555761105561113a565b60209081029190910101525050600101610f8e565b5080545f8255905f5260205f20908101906108b591905b80821115611094575f8155600101611081565b5090565b5f602082840312156110a8575f5ffd5b81356001600160a01b03811681146110be575f5ffd5b9392505050565b5f602082840312156110d5575f5ffd5b5035919050565b602080825282518282018190525f918401906040840190835b8181101561112f578351805184526020810151602085015260408101516040850152506060830192506020840193506001810190506110f5565b509095945050505050565b634e487b7160e01b5f52603260045260245ffd5b634e487b7160e01b5f52601160045260245ffd5b818103818111156111755761117561114e565b92915050565b808201808211156111755761117561114e565b80820281158282048414176111755761117561114e565b634e487b7160e01b5f52601260045260245ffd5b5f826111c7576111c76111a5565b500490565b5f826111da576111da6111a5565b500690565b5f816111ed576111ed61114e565b505f190190565b5f600182016112055761120561114e565b506001019056fea2646970667358221220fdee72ae834d1770946308aa40c54929cf694e8a70c27aa951ced206006f378c64736f6c634300081c0033",
  "linkReferences": {},
  "deployedLinkReferences": {}
}