{"contracts/SimpleOracle.sol":{"SimpleOracle":{"abi":[{"inputs":[],"stateMutability":"nonpayable","type":"constructor"},{"inputs":[],"name":"AlreadySubmitted","type":"error"},{"inputs":[],"name":"NoPrice","type":"error"},{"inputs":[],"name":"NotAuthorizedReporter","type":"error"},{"inputs":[{"internalType":"address","name":"owner","type":"address"}],"name":"OwnableInvalidOwner","type":"error"},{"inputs":[{"internalType":"address","name":"account","type":"address"}],"name":"OwnableUnauthorizedAccount","type":"error"},{"inputs":[],"name":"PriceDeviationTooHigh","type":"error"},{"inputs":[],"name":"RoundTooFrequent","type":"error"},{"inputs":[],"name":"StalePrice","type":"error"},{"anonymous":false,"inputs":[{"indexed":false,"internalType":"uint256","name":"price","type":"uint256"},{"indexed":false,"internalType":"uint256","name":"timestamp","type":"uint256"}],"name":"EmergencyPriceSet","type":"event"},{"anonymous":false,"inputs":[{"indexed":false,"internalType":"uint256","name":"newInterval","type":"uint256"}],"name":"MinRoundIntervalUpdated","type":"event"},{"anonymous":false,"inputs":[{"indexed":true,"internalType":"address","name":"previousOwner","type":"address"},{"indexed":true,"internalType":"address","name":"newOwner","type":"address"}],"name":"OwnershipTransferred","type":"event"},{"anonymous":false,"inputs":[{"indexed":true,"internalType":"uint256","name":"roundId","type":"uint256"},{"indexed":true,"internalType":"address","name":"reporter","type":"address"},{"indexed":false,"internalType":"uint256","name":"price","type":"uint256"}],"name":"PriceSubmitted","type":"event"},{"anonymous":false,"inputs":[{"indexed":true,"internalType":"uint256","name":"roundId","type":"uint256"},{"indexed":false,"internalType":"uint256","name":"price","type":"uint256"},{"indexed":false,"internalType":"uint256","name":"timestamp","type":"uint256"}],"name":"PriceUpdated","type":"event"},{"anonymous":false,"inputs":[{"indexed":true,"internalType":"address","name":"reporter","type":"address"}],"name":"ReporterAdded","type":"event"},{"anonymous":false,"inputs":[{"indexed":true,"internalType":"address","name":"reporter","type":"address"}],"name":"ReporterRemoved","type":"event"},{"inputs":[],"name":"DECIMALS","outputs":[{"internalType":"uint256","name":"","type":"uint256"}],"stateMutability":"view","type":"function"},{"inputs":[],"name":"MAX_HISTORY","outputs":[{"internalType":"uint256","name":"","type":"uint256"}],"stateMutability":"view","type":"function"},{"inputs":[],"name":"MIN_REPORTERS","outputs":[{"internalType":"uint256","name":"","type":"uint256"}],"stateMutability":"view","type":"function"},{"inputs":[],"name":"STALENESS_THRESHOLD","outputs":[{"internalType":"uint256","name":"","type":"uint256"}],"stateMutability":"view","type":"function"},{"inputs":[{"internalType":"address","name":"reporter","type":"address"}],"name":"addReporter","outputs":[],"stateMutability":"nonpayable","type":"function"},{"inputs":[{"internalType":"address","name":"","type":"address"}],"name":"authorizedReporters","outputs":[{"internalType":"bool","name":"","type":"bool"}],"stateMutability":"view","type":"function"},{"inputs":[],"name":"currentRoundId","outputs":[{"internalType":"uint256","name":"","type":"uint256"}],"stateMutability":"view","type":"function"},{"inputs":[],"name":"emergencyPriceActive","outputs":[{"internalType":"bool","name":"","type":"bool"}],"stateMutability":"view","type":"function"},{"inputs":[{"internalType":"uint256","name":"price","type":"uint256"}],"name":"emergencySetPrice","outputs":[],"stateMutability":"nonpayable","type":"function"},{"inputs":[],"name":"forceAdvanceRound","outputs":[],"stateMutability":"nonpayable","type":"function"},{"inputs":[],"name":"getCurrentRoundSubmissions","outputs":[{"internalType":"uint256","name":"","type":"uint256"}],"stateMutability":"view","type":"function"},{"inputs":[],"name":"getLatestPrice","outputs":[{"internalType":"uint256","name":"price","type":"uint256"},{"internalType":"uint256","name":"timestamp","type":"uint256"}],"stateMutability":"view","type":"function"},{"inputs":[],"name":"getLatestPriceUnsafe","outputs":[{"internalType":"uint256","name":"price","type":"uint256"},{"internalType":"uint256","name":"timestamp","type":"uint256"},{"internalType":"uint256","name":"reporters","type":"uint256"}],"stateMutability":"view","type":"function"},{"inputs":[],"name":"getPriceHistory","outputs":[{"components":[{"internalType":"uint256","name":"price","type":"uint256"},{"internalType":"uint256","name":"timestamp","type":"uint256"},{"internalType":"uint256","name":"reporterCount","type":"uint256"}],"internalType":"struct SimpleOracle.PriceRound[]","name":"","type":"tuple[]"}],"stateMutability":"view","type":"function"},{"inputs":[],"name":"getPriceHistoryLength","outputs":[{"internalType":"uint256","name":"","type":"uint256"}],"stateMutability":"view","type":"function"},{"inputs":[],"name":"getTWAP","outputs":[{"internalType":"uint256","name":"twapPrice","type":"uint256"},{"internalType":"uint256","name":"sampleCount","type":"uint256"}],"stateMutability":"view","type":"function"},{"inputs":[],"name":"getVolatility","outputs":[{"internalType":"uint256","name":"volatilityBps","type":"uint256"},{"internalType":"uint256","name":"sampleCount","type":"uint256"}],"stateMutability":"view","type":"function"},{"inputs":[{"internalType":"address","name":"reporter","type":"address"}],"name":"hasSubmitted","outputs":[{"internalType":"bool","name":"","type":"bool"}],"stateMutability":"view","type":"function"},{"inputs":[],"name":"latestRound","outputs":[{"internalType":"uint256","name":"price","type":"uint256"},{"internalType":"uint256","name":"timestamp","type":"uint256"},{"internalType":"uint256","name":"reporterCount","type":"uint256"}],"stateMutability":"view","type":"function"},{"inputs":[],"name":"minRoundInterval","outputs":[{"internalType":"uint256","name":"","type":"uint256"}],"stateMutability":"view","type":"function"},{"inputs":[],"name":"owner","outputs":[{"internalType":"address","name":"","type":"address"}],"stateMutability":"view","type":"function"},{"inputs":[{"internalType":"uint256","name":"","type":"uint256"}],"name":"priceHistory","outputs":[{"internalType":"uint256","name":"price","type":"uint256"},{"internalType":"uint256","name":"timestamp","type":"uint256"},{"internalType":"uint256","name":"reporterCount","type":"uint256"}],"stateMutability":"view","type":"function"},{"inputs":[{"internalType":"address","name":"reporter","type":"address"}],"name":"removeReporter","outputs":[],"stateMutability":"nonpayable","type":"function"},{"inputs":[],"name":"renounceOwnership","outputs":[],"stateMutability":"nonpayable","type":"function"},{"inputs":[],"name":"reporterCount","outputs":[{"internalType":"uint256","name":"","type":"uint256"}],"stateMutability":"view","type":"function"},{"inputs":[{"internalType":"address","name":"","type":"address"}],"name":"reporterSubmissions","outputs":[{"internalType":"uint256","name":"","type":"uint256"}],"stateMutability":"view","type":"function"},{"inputs":[{"internalType":"uint256","name":"interval","type":"uint256"}],"name":"setMinRoundInterval","outputs":[],"stateMutability":"nonpayable","type":"function"},{"inputs":[{"internalType":"uint256","name":"price","type":"uint256"}],"name":"submitPrice","outputs":[],"stateMutability":"nonpayable","type":"function"},{"inputs":[{"internalType":"address","name":"newOwner","type":"address"}],"name":"transferOwnership","outputs":[],"stateMutability":"nonpayable","type":"function"}],"evm":{"bytecode":{"linkReferences":{},"object":"6080604052348015600e575f5ffd5b503380603357604051631e4fbdf760e01b81525f600482015260240160405180910390fd5b603a81603f565b50608e565b5f80546001600160a01b038381166001600160a01b0319831681178455604051919092169283917f8be0079c531659141344cd1fd0a4f28419497f9722a3daafe3b4186f6b6457e09190a35050565b6112428061009b5f395ff3fe608060405234801561000f575f5ffd5b50600436106101c6575f3560e01c8063850e3c48116100fe5780639cbe5efd1161009e578063dd8755f21161006e578063dd8755f2146103b7578063f2fde38b146103ca578063f42e9808146103dd578063fe9bd8cc146103e6575f5ffd5b80639cbe5efd14610380578063a524c7ea14610389578063b27a048414610391578063dc044784146103a4575f5ffd5b80638e15f473116100d95780638e15f47314610348578063929f037914610350578063986fcbe914610365578063999ad67d14610378575f5ffd5b8063850e3c4814610317578063867df156146103205780638da5cb5b1461032e575f5ffd5b80633d17ad3a1161016957806361dc8ecb1161014457806361dc8ecb146102d1578063668a0f02146102d9578063715018a6146103065780637215b0bf1461030e575f5ffd5b80633d17ad3a1461028a578063514454fb1461029f5780635de5c212146102be575f5ffd5b80632e0f2625116101a45780632e0f26251461021f578063388044b3146102275780633a41429a146102605780633af2888b14610282575f5ffd5b806305ecd003146101ca57806313545a02146101ec578063163b4cd414610202575b5f5ffd5b6101d26103ee565b604080519283526020830191909152015b60405180910390f35b6101f4600a81565b6040519081526020016101e3565b600c5461020f9060ff1681565b60405190151581526020016101e3565b6101f4600881565b61020f610235366004611098565b6006545f9081526008602090815260408083206001600160a01b039094168352929052205460ff1690565b61020f61026e366004611098565b60016020525f908152604090205460ff1681565b6101d26105e4565b61029d6102983660046110c5565b6106a5565b005b6101f46102ad366004611098565b600b6020525f908152604090205481565b61029d6102cc366004611098565b610827565b61029d6108b8565b6003546004546005546102eb92919083565b604080519384526020840192909252908201526060016101e3565b61029d6108e8565b6101f4610e1081565b6101f460025481565b6003546004546005546102eb565b5f546040516001600160a01b0390911681526020016101e3565b6101d26108f9565b61035861095c565b6040516101e391906110dc565b61029d6103733660046110c5565b6109d5565b6101f4600381565b6101f460065481565b6007546101f4565b6102eb61039f3660046110c5565b610b7d565b61029d6103b23660046110c5565b610bae565b61029d6103c5366004611098565b610beb565b61029d6103d8366004611098565b610c7f565b6101f4600d5481565b6009546101f4565b6007545f908082036104135760405163c149905d60e01b815260040160405180910390fd5b806001036104475760075f8154811061042e5761042e61113a565b905f5260205f2090600302015f01546001915091509091565b5f80805b610456600185611162565b81101561050a575f600782815481106104715761047161113a565b905f5260205f209060030201600101546007836001610490919061117b565b815481106104a0576104a061113a565b905f5260205f209060030201600101546104ba9190611162565b905080600783815481106104d0576104d061113a565b905f5260205f2090600302015f01546104e9919061118e565b6104f3908561117b565b93506104ff818461117b565b92505060010161044b565b505f6007610519600186611162565b815481106105295761052961113a565b905f5260205f20906003020160010154426105449190611162565b9050806007610554600187611162565b815481106105645761056461113a565b905f5260205f2090600302015f015461057d919061118e565b610587908461117b565b9250610593818361117b565b9150815f036105d15760076105a9600186611162565b815481106105b9576105b961113a565b905f5260205f2090600302015f015494505050509091565b6105db82846111b9565b94505050509091565b6007545f9060028110156105f9575f91509091565b5f195f80805b84811015610659575f6007828154811061061b5761061b61113a565b905f5260205f2090600302015f0154905084811015610638578094505b83811115610644578093505b61064e818461117b565b9250506001016105ff565b505f61066585836111b9565b9050805f03610679575f9550505050509091565b806127106106878686611162565b610691919061118e565b61069b91906111b9565b9550505050509091565b6106ad610cbe565b805f036106cd5760405163c149905d60e01b815260040160405180910390fd5b6040805160608101825282815242602082018190525f919092018190526003839055600491909155600555600c805460ff19166001179055600754600a11156107a057600780546001810182555f919091526003805491027fa66cc928b5edb82af9bd49922954155ab7b0942694bea4ce44661d9a8736c6888101919091556004547fa66cc928b5edb82af9bd49922954155ab7b0942694bea4ce44661d9a8736c6898201556005547fa66cc928b5edb82af9bd49922954155ab7b0942694bea4ce44661d9a8736c68a909101556107eb565b60036007600a6006546107b391906111cc565b815481106107c3576107c361113a565b5f91825260209091208254600390920201908155600180830154908201556002918201549101555b604080518281524260208201527f0cdb493324e99e83676e2826356d9387f491cb8b0d60a6d0cdbf3f28166d7b6591015b60405180910390a150565b61082f610cbe565b6001600160a01b0381165f9081526001602052604090205460ff16156108b5576001600160a01b0381165f908152600160205260408120805460ff19169055600280549161087c836111df565b90915550506040516001600160a01b038216907ff125aa5e6cb22c17ea0de4e1f86d2ff289ddd6a37e791b9ad29d0091cba06ac8905f90a25b50565b6108c0610cbe565b60068054905f6108cf836111f4565b90915550505f60098190556108e690600a9061106a565b565b6108f0610cbe565b6108e65f610cea565b5f5f6003600101545f036109205760405163c149905d60e01b815260040160405180910390fd5b600454610e10906109319042611162565b111561095057604051630cd5fa0760e11b815260040160405180910390fd5b50506003546004549091565b60606007805480602002602001604051908101604052809291908181526020015f905b828210156109cc578382905f5260205f2090600302016040518060600160405290815f8201548152602001600182015481526020016002820154815250508152602001906001019061097f565b50505050905090565b335f9081526001602052604090205460ff16610a0457604051631c833d8160e21b815260040160405180910390fd5b6006545f90815260086020908152604080832033845290915290205460ff1615610a4157604051639fbfc58960e01b815260040160405180910390fd5b60045415610aa7576003545f818311610a6357610a5e8383611162565b610a6d565b610a6d8284611162565b9050610a7a82603261118e565b610a8582606461118e565b1115610aa4576040516369e2517960e11b815260040160405180910390fd5b50505b6006545f9081526008602090815260408083203384529091528120805460ff19166001908117909155600a8054918201815582527fc65a7bb8d6351c1cf70c95a316cc6a92839c986682d98bc35f958f4883f9d2a8018290556009805491610b0e836111f4565b9091555050335f908152600b60205260408120805491610b2d836111f4565b90915550506006546040518281523391907f2655941ef0e01e05d55a873609115593db7df65cd101451b9f7e89ede1613ec99060200160405180910390a36003600954106108b5576108b5610d39565b60078181548110610b8c575f80fd5b5f91825260209091206003909102018054600182015460029092015490925083565b610bb6610cbe565b600d8190556040518181527f60123b8789d68d6a3a4b1592f2b8be4211b24c63398e83e66ab7748a5feb3f9e9060200161081c565b610bf3610cbe565b6001600160a01b0381165f9081526001602052604090205460ff166108b5576001600160a01b0381165f9081526001602081905260408220805460ff191690911790556002805491610c44836111f4565b90915550506040516001600160a01b038216907f52824c4a4d431c73d6d24a91f775d722860111c6d30da30b0b21e062fb4c7365905f90a250565b610c87610cbe565b6001600160a01b038116610cb557604051631e4fbdf760e01b81525f60048201526024015b60405180910390fd5b6108b581610cea565b5f546001600160a01b031633146108e65760405163118cdaa760e01b8152336004820152602401610cac565b5f80546001600160a01b038381166001600160a01b0319831681178455604051919092169283917f8be0079c531659141344cd1fd0a4f28419497f9722a3daafe3b4186f6b6457e09190a35050565b5f600d54118015610d4b575060045415155b15610d7f57600d54600454610d609042611162565b1015610d7f576040516307bc94db60e51b815260040160405180910390fd5b5f600a805480602002602001604051908101604052809291908181526020018280548015610dca57602002820191905f5260205f20905b815481526020019060010190808311610db6575b50505050509050610dda81610f8b565b5f8160028351610dea91906111b9565b81518110610dfa57610dfa61113a565b602090810291909101810151604080516060810182528281524293810184905260095491018190526003829055600492909255600591909155600754909150600a1115610ed157600780546001810182555f919091526003805491027fa66cc928b5edb82af9bd49922954155ab7b0942694bea4ce44661d9a8736c6888101919091556004547fa66cc928b5edb82af9bd49922954155ab7b0942694bea4ce44661d9a8736c6898201556005547fa66cc928b5edb82af9bd49922954155ab7b0942694bea4ce44661d9a8736c68a90910155610f1c565b60036007600a600654610ee491906111cc565b81548110610ef457610ef461113a565b5f91825260209091208254600390920201908155600180830154908201556002918201549101555b600c805460ff19169055600654604080518381524260208201527f15819dd2fd9f6418b142e798d08a18d0bf06ea368f4480b7b0d3f75bd966bc48910160405180910390a260068054905f610f70836111f4565b90915550505f6009819055610f8790600a9061106a565b5050565b60015b8151811015610f87575f828281518110610faa57610faa61113a565b602002602001015190505f8290505b5f81118015610fea57508184610fd0600184611162565b81518110610fe057610fe061113a565b6020026020010151115b156110425783610ffb600183611162565b8151811061100b5761100b61113a565b60200260200101518482815181106110255761102561113a565b60209081029190910101528061103a816111df565b915050610fb9565b818482815181106110555761105561113a565b60209081029190910101525050600101610f8e565b5080545f8255905f5260205f20908101906108b591905b80821115611094575f8155600101611081565b5090565b5f602082840312156110a8575f5ffd5b81356001600160a01b03811681146110be575f5ffd5b9392505050565b5f602082840312156110d5575f5ffd5b5035919050565b602080825282518282018190525f918401906040840190835b8181101561112f578351805184526020810151602085015260408101516040850152506060830192506020840193506001810190506110f5565b509095945050505050565b634e487b7160e01b5f52603260045260245ffd5b634e487b7160e01b5f52601160045260245ffd5b818103818111156111755761117561114e565b92915050565b808201808211156111755761117561114e565b80820281158282048414176111755761117561114e565b634e487b7160e01b5f52601260045260245ffd5b5f826111c7576111c76111a5565b500490565b5f826111da576111da6111a5565b500690565b5f816111ed576111ed61114e565b505f190190565b5f600182016112055761120561114e565b506001019056fea2646970667358221220fdee72ae834d1770946308aa40c54929cf694e8a70c27aa951ced206006f378c64736f6c634300081c0033","opcodes":"PUSH1 0x80 PUSH1 0x40 MSTORE CALLVALUE DUP1 ISZERO PUSH1 0xE JUMPI PUSH0 PUSH0 REVERT JUMPDEST POP CALLER DUP1 PUSH1 0x33 JUMPI PUSH1 0x40 MLOAD PUSH4 0x1E4FBDF7 PUSH1 0xE0 SHL DUP2 MSTORE PUSH0 PUSH1 0x4 DUP3 ADD MSTORE PUSH1 0x24 ADD PUSH1 0x40 MLOAD DUP1 SWAP2 SUB SWAP1 REVERT JUMPDEST PUSH1 0x3A DUP2 PUSH1 0x3F JUMP JUMPDEST POP PUSH1 0x8E JUMP JUMPDEST PUSH0 DUP1 SLOAD PUSH1 0x1 PUSH1 0x1 PUSH1 0xA0 SHL SUB DUP4 DUP2 AND PUSH1 0x1 PUSH1 0x1 PUSH1 0xA0 SHL SUB NOT DUP4 AND DUP2 OR DUP5 SSTORE PUSH1 0x40 MLOAD SWAP2 SWAP1 SWAP3 AND SWAP3 DUP4 SWAP2 PUSH32 0x8BE0079C531659141344CD1FD0A4F28419497F9722A3DAAFE3B4186F6B6457E0 SWAP2 SWAP1 LOG3 POP POP JUMP JUMPDEST PUSH2 0x1242 DUP1 PUSH2 0x9B PUSH0 CODECOPY PUSH0 RETURN INVALID PUSH1 0x80 PUSH1 0x40 MSTORE CALLVALUE DUP1 ISZERO PUSH2 0xF JUMPI PUSH0 PUSH0 REVERT JUMPDEST POP PUSH1 0x4 CALLDATASIZE LT PUSH2 0x1C6 JUMPI PUSH0 CALLDATALOAD PUSH1 0xE0 SHR DUP1 PUSH4 0x850E3C48 GT PUSH2 0xFE JUMPI DUP1 PUSH4 0x9CBE5EFD GT PUSH2 0x9E JUMPI DUP1 PUSH4 0xDD8755F2 GT PUSH2 0x6E JUMPI DUP1 PUSH4 0xDD8755F2 EQ PUSH2 0x3B7 JUMPI DUP1 PUSH4 0xF2FDE38B EQ PUSH2 0x3CA JUMPI DUP1 PUSH4 0xF42E9808 EQ PUSH2 0x3DD JUMPI DUP1 PUSH4 0xFE9BD8CC EQ PUSH2 0x3E6 JUMPI PUSH0 PUSH0 REVERT JUMPDEST DUP1 PUSH4 0x9CBE5EFD EQ PUSH2 0x380 JUMPI DUP1 PUSH4 0xA524C7EA EQ PUSH2 0x389 JUMPI DUP1 PUSH4 0xB27A0484 EQ PUSH2 0x391 JUMPI DUP1 PUSH4 0xDC044784 EQ PUSH2 0x3A4 JUMPI PUSH0 PUSH0 REVERT JUMPDEST DUP1 PUSH4 0x8E15F473 GT PUSH2 0xD9 JUMPI DUP1 PUSH4 0x8E15F473 EQ PUSH2 0x348 JUMPI DUP1 PUSH4 0x929F0379 EQ PUSH2 0x350 JUMPI DUP1 PUSH4 0x986FCBE9 EQ PUSH2 0x365 JUMPI DUP1 PUSH4 0x999AD67D EQ PUSH2 0x378 JUMPI PUSH0 PUSH0 REVERT JUMPDEST DUP1 PUSH4 0x850E3C48 EQ PUSH2 0x317 JUMPI DUP1 PUSH4 0x867DF156 EQ PUSH2 0x320 JUMPI DUP1 PUSH4 0x8DA5CB5B EQ PUSH2 0x32E JUMPI PUSH0 PUSH0 REVERT JUMPDEST DUP1 PUSH4 0x3D17AD3A GT PUSH2 0x169 JUMPI DUP1 PUSH4 0x61DC8ECB GT PUSH2 0x144 JUMPI DUP1 PUSH4 0x61DC8ECB EQ PUSH2 0x2D1 JUMPI DUP1 PUSH4 0x668A0F02 EQ PUSH2 0x2D9 JUMPI DUP1 PUSH4 0x715018A6 EQ PUSH2 0x306 JUMPI DUP1 PUSH4 0x7215B0BF EQ PUSH2 0x30E JUMPI PUSH0 PUSH0 REVERT JUMPDEST DUP1 PUSH4 0x3D17AD3A EQ PUSH2 0x28A JUMPI DUP1 PUSH4 0x514454FB EQ PUSH2 0x29F JUMPI DUP1 PUSH4 0x5DE5C212 EQ PUSH2 0x2BE JUMPI PUSH0 PUSH0 REVERT JUMPDEST DUP1 PUSH4 0x2E0F2625 GT PUSH2 0x1A4 JUMPI DUP1 PUSH4 0x2E0F2625 EQ PUSH2 0x21F JUMPI DUP1 PUSH4 0x388044B3 EQ PUSH2 0x227 JUMPI DUP1 PUSH4 0x3A41429A EQ PUSH2 0x260 JUMPI DUP1 PUSH4 0x3AF2888B EQ PUSH2 0x282 JUMPI PUSH0 PUSH0 REVERT JUMPDEST DUP1 PUSH4 0x5ECD003 EQ PUSH2 0x1CA JUMPI DUP1 PUSH4 0x13545A02 EQ PUSH2 0x1EC JUMPI DUP1 PUSH4 0x163B4CD4 EQ PUSH2 0x202 JUMPI JUMPDEST PUSH0 PUSH0 REVERT JUMPDEST PUSH2 0x1D2 PUSH2 0x3EE JUMP JUMPDEST PUSH1 0x40 DUP1 MLOAD SWAP3 DUP4 MSTORE PUSH1 0x20 DUP4 ADD SWAP2 SWAP1 SWAP2 MSTORE ADD JUMPDEST PUSH1 0x40 MLOAD DUP1 SWAP2 SUB SWAP1 RETURN JUMPDEST PUSH2 0x1F4 PUSH1 0xA DUP2 JUMP JUMPDEST PUSH1 0x40 MLOAD SWAP1 DUP2 MSTORE PUSH1 0x20 ADD PUSH2 0x1E3 JUMP JUMPDEST PUSH1 0xC SLOAD PUSH2 0x20F SWAP1 PUSH1 0xFF AND DUP2 JUMP JUMPDEST PUSH1 0x40 MLOAD SWAP1 ISZERO ISZERO DUP2 MSTORE PUSH1 0x20 ADD PUSH2 0x1E3 JUMP JUMPDEST PUSH2 0x1F4 PUSH1 0x8 DUP2 JUMP JUMPDEST PUSH2 0x20F PUSH2 0x235 CALLDATASIZE PUSH1 0x4 PUSH2 0x1098 JUMP JUMPDEST PUSH1 0x6 SLOAD PUSH0 SWAP1 DUP2 MSTORE PUSH1 0x8 PUSH1 0x20 SWAP1 DUP2 MSTORE PUSH1 0x40 DUP1 DUP4 KECCAK256 PUSH1 0x1 PUSH1 0x1 PUSH1 0xA0 SHL SUB SWAP1 SWAP5 AND DUP4 MSTORE SWAP3 SWAP1 MSTORE KECCAK256 SLOAD PUSH1 0xFF AND SWAP1 JUMP JUMPDEST PUSH2 0x20F PUSH2 0x26E CALLDATASIZE PUSH1 0x4 PUSH2 0x1098 JUMP JUMPDEST PUSH1 0x1 PUSH1 0x20 MSTORE PUSH0 SWAP1 DUP2 MSTORE PUSH1 0x40 SWAP1 KECCAK256 SLOAD PUSH1 0xFF AND DUP2 JUMP JUMPDEST PUSH2 0x1D2 PUSH2 0x5E4 JUMP JUMPDEST PUSH2 0x29D PUSH2 0x298 CALLDATASIZE PUSH1 0x4 PUSH2 0x10C5 JUMP JUMPDEST PUSH2 0x6A5 JUMP JUMPDEST STOP JUMPDEST PUSH2 0x1F4 PUSH2 0x2AD CALLDATASIZE PUSH1 0x4 PUSH2 0x1098 JUMP JUMPDEST PUSH1 0xB PUSH1 0x20 MSTORE PUSH0 SWAP1 DUP2 MSTORE PUSH1 0x40 SWAP1 KECCAK256 SLOAD DUP2 JUMP JUMPDEST PUSH2 0x29D PUSH2 0x2CC CALLDATASIZE PUSH1 0x4 PUSH2 0x1098 JUMP JUMPDEST PUSH2 0x827 JUMP JUMPDEST PUSH2 0x29D PUSH2 0x8B8 JUMP JUMPDEST PUSH1 0x3 SLOAD PUSH1 0x4 SLOAD PUSH1 0x5 SLOAD PUSH2 0x2EB SWAP3 SWAP2 SWAP1 DUP4 JUMP JUMPDEST PUSH1 0x40 DUP1 MLOAD SWAP4 DUP5 MSTORE PUSH1 0x20 DUP5 ADD SWAP3 SWAP1 SWAP3 MSTORE SWAP1 DUP3 ADD MSTORE PUSH1 0x60 ADD PUSH2 0x1E3 JUMP JUMPDEST PUSH2 0x29D PUSH2 0x8E8 JUMP JUMPDEST PUSH2 0x1F4 PUSH2 0xE10 DUP2 JUMP JUMPDEST PUSH2 0x1F4 PUSH1 0x2 SLOAD DUP2 JUMP JUMPDEST PUSH1 0x3 SLOAD PUSH1 0x4 SLOAD PUSH1 0x5 SLOAD PUSH2 0x2EB JUMP JUMPDEST PUSH0 SLOAD PUSH1 0x40 MLOAD PUSH1 0x1 PUSH1 0x1 PUSH1 0xA0 SHL SUB SWAP1 SWAP2 AND DUP2 MSTORE PUSH1 0x20 ADD PUSH2 0x1E3 JUMP JUMPDEST PUSH2 0x1D2 PUSH2 0x8F9 JUMP JUMPDEST PUSH2 0x358 PUSH2 0x95C JUMP JUMPDEST PUSH1 0x40 MLOAD PUSH2 0x1E3 SWAP2 SWAP1 PUSH2 0x10DC JUMP JUMPDEST PUSH2 0x29D PUSH2 0x373 CALLDATASIZE PUSH1 0x4 PUSH2 0x10C5 JUMP JUMPDEST PUSH2 0x9D5 JUMP JUMPDEST PUSH2 0x1F4 PUSH1 0x3 DUP2 JUMP JUMPDEST PUSH2 0x1F4 PUSH1 0x6 SLOAD DUP2 JUMP JUMPDEST PUSH1 0x7 SLOAD PUSH2 0x1F4 JUMP JUMPDEST PUSH2 0x2EB PUSH2 0x39F CALLDATASIZE PUSH1 0x4 PUSH2 0x10C5 JUMP JUMPDEST PUSH2 0xB7D JUMP JUMPDEST PUSH2 0x29D PUSH2 0x3B2 CALLDATASIZE PUSH1 0x4 PUSH2 0x10C5 JUMP JUMPDEST PUSH2 0xBAE JUMP JUMPDEST PUSH2 0x29D PUSH2 0x3C5 CALLDATASIZE PUSH1 0x4 PUSH2 0x1098 JUMP JUMPDEST PUSH2 0xBEB JUMP JUMPDEST PUSH2 0x29D PUSH2 0x3D8 CALLDATASIZE PUSH1 0x4 PUSH2 0x1098 JUMP JUMPDEST PUSH2 0xC7F JUMP JUMPDEST PUSH2 0x1F4 PUSH1 0xD SLOAD DUP2 JUMP JUMPDEST PUSH1 0x9 SLOAD PUSH2 0x1F4 JUMP JUMPDEST PUSH1 0x7 SLOAD PUSH0 SWAP1 DUP1 DUP3 SUB PUSH2 0x413 JUMPI PUSH1 0x40 MLOAD PUSH4 0xC149905D PUSH1 0xE0 SHL DUP2 MSTORE PUSH1 0x4 ADD PUSH1 0x40 MLOAD DUP1 SWAP2 SUB SWAP1 REVERT JUMPDEST DUP1 PUSH1 0x1 SUB PUSH2 0x447 JUMPI PUSH1 0x7 PUSH0 DUP2 SLOAD DUP2 LT PUSH2 0x42E JUMPI PUSH2 0x42E PUSH2 0x113A JUMP JUMPDEST SWAP1 PUSH0 MSTORE PUSH1 0x20 PUSH0 KECCAK256 SWAP1 PUSH1 0x3 MUL ADD PUSH0 ADD SLOAD PUSH1 0x1 SWAP2 POP SWAP2 POP SWAP1 SWAP2 JUMP JUMPDEST PUSH0 DUP1 DUP1 JUMPDEST PUSH2 0x456 PUSH1 0x1 DUP6 PUSH2 0x1162 JUMP JUMPDEST DUP2 LT ISZERO PUSH2 0x50A JUMPI PUSH0 PUSH1 0x7 DUP3 DUP2 SLOAD DUP2 LT PUSH2 0x471 JUMPI PUSH2 0x471 PUSH2 0x113A JUMP JUMPDEST SWAP1 PUSH0 MSTORE PUSH1 0x20 PUSH0 KECCAK256 SWAP1 PUSH1 0x3 MUL ADD PUSH1 0x1 ADD SLOAD PUSH1 0x7 DUP4 PUSH1 0x1 PUSH2 0x490 SWAP2 SWAP1 PUSH2 0x117B JUMP JUMPDEST DUP2 SLOAD DUP2 LT PUSH2 0x4A0 JUMPI PUSH2 0x4A0 PUSH2 0x113A JUMP JUMPDEST SWAP1 PUSH0 MSTORE PUSH1 0x20 PUSH0 KECCAK256 SWAP1 PUSH1 0x3 MUL ADD PUSH1 0x1 ADD SLOAD PUSH2 0x4BA SWAP2 SWAP1 PUSH2 0x1162 JUMP JUMPDEST SWAP1 POP DUP1 PUSH1 0x7 DUP4 DUP2 SLOAD DUP2 LT PUSH2 0x4D0 JUMPI PUSH2 0x4D0 PUSH2 0x113A JUMP JUMPDEST SWAP1 PUSH0 MSTORE PUSH1 0x20 PUSH0 KECCAK256 SWAP1 PUSH1 0x3 MUL ADD PUSH0 ADD SLOAD PUSH2 0x4E9 SWAP2 SWAP1 PUSH2 0x118E JUMP JUMPDEST PUSH2 0x4F3 SWAP1 DUP6 PUSH2 0x117B JUMP JUMPDEST SWAP4 POP PUSH2 0x4FF DUP2 DUP5 PUSH2 0x117B JUMP JUMPDEST SWAP3 POP POP PUSH1 0x1 ADD PUSH2 0x44B JUMP JUMPDEST POP PUSH0 PUSH1 0x7 PUSH2 0x519 PUSH1 0x1 DUP7 PUSH2 0x1162 JUMP JUMPDEST DUP2 SLOAD DUP2 LT PUSH2 0x529 JUMPI PUSH2 0x529 PUSH2 0x113A JUMP JUMPDEST SWAP1 PUSH0 MSTORE PUSH1 0x20 PUSH0 KECCAK256 SWAP1 PUSH1 0x3 MUL ADD PUSH1 0x1 ADD SLOAD TIMESTAMP PUSH2 0x544 SWAP2 SWAP1 PUSH2 0x1162 JUMP JUMPDEST SWAP1 POP DUP1 PUSH1 0x7 PUSH2 0x554 PUSH1 0x1 DUP8 PUSH2 0x1162 JUMP JUMPDEST DUP2 SLOAD DUP2 LT PUSH2 0x564 JUMPI PUSH2 0x564 PUSH2 0x113A JUMP JUMPDEST SWAP1 PUSH0 MSTORE PUSH1 0x20 PUSH0 KECCAK256 SWAP1 PUSH1 0x3 MUL ADD PUSH0 ADD SLOAD PUSH2 0x57D SWAP2 SWAP1 PUSH2 0x118E JUMP JUMPDEST PUSH2 0x587 SWAP1 DUP5 PUSH2 0x117B JUMP JUMPDEST SWAP3 POP PUSH2 0x593 DUP2 DUP4 PUSH2 0x117B JUMP JUMPDEST SWAP2 POP DUP2 PUSH0 SUB PUSH2 0x5D1 JUMPI PUSH1 0x7 PUSH2 0x5A9 PUSH1 0x1 DUP7 PUSH2 0x1162 JUMP JUMPDEST DUP2 SLOAD DUP2 LT PUSH2 0x5B9 JUMPI PUSH2 0x5B9 PUSH2 0x113A JUMP JUMPDEST SWAP1 PUSH0 MSTORE PUSH1 0x20 PUSH0 KECCAK256 SWAP1 PUSH1 0x3 MUL ADD PUSH0 ADD SLOAD SWAP5 POP POP POP POP SWAP1 SWAP2 JUMP JUMPDEST PUSH2 0x5DB DUP3 DUP5 PUSH2 0x11B9 JUMP JUMPDEST SWAP5 POP POP POP POP SWAP1 SWAP2 JUMP JUMPDEST PUSH1 0x7 SLOAD PUSH0 SWAP1 PUSH1 0x2 DUP2 LT ISZERO PUSH2 0x5F9 JUMPI PUSH0 SWAP2 POP SWAP1 SWAP2 JUMP JUMPDEST PUSH0 NOT PUSH0 DUP1 DUP1 JUMPDEST DUP5 DUP2 LT ISZERO PUSH2 0x659 JUMPI PUSH0 PUSH1 0x7 DUP3 DUP2 SLOAD DUP2 LT PUSH2 0x61B JUMPI PUSH2 0x61B PUSH2 0x113A JUMP JUMPDEST SWAP1 PUSH0 MSTORE PUSH1 0x20 PUSH0 KECCAK256 SWAP1 PUSH1 0x3 MUL ADD PUSH0 ADD SLOAD SWAP1 POP DUP5 DUP2 LT ISZERO PUSH2 0x638 JUMPI DUP1 SWAP5 POP JUMPDEST DUP4 DUP2 GT ISZERO PUSH2 0x644 JUMPI DUP1 SWAP4 POP JUMPDEST PUSH2 0x64E DUP2 DUP5 PUSH2 0x117B JUMP JUMPDEST SWAP3 POP POP PUSH1 0x1 ADD PUSH2 0x5FF JUMP JUMPDEST POP PUSH0 PUSH2 0x665 DUP6 DUP4 PUSH2 0x11B9 JUMP JUMPDEST SWAP1 POP DUP1 PUSH0 SUB PUSH2 0x679 JUMPI PUSH0 SWAP6 POP POP POP POP POP SWAP1 SWAP2 JUMP JUMPDEST DUP1 PUSH2 0x2710 PUSH2 0x687 DUP7 DUP7 PUSH2 0x1162 JUMP JUMPDEST PUSH2 0x691 SWAP2 SWAP1 PUSH2 0x118E JUMP JUMPDEST PUSH2 0x69B SWAP2 SWAP1 PUSH2 0x11B9 JUMP JUMPDEST SWAP6 POP POP POP POP POP SWAP1 SWAP2 JUMP JUMPDEST PUSH2 0x6AD PUSH2 0xCBE JUMP JUMPDEST DUP1 PUSH0 SUB PUSH2 0x6CD JUMPI PUSH1 0x40 MLOAD PUSH4 0xC149905D PUSH1 0xE0 SHL DUP2 MSTORE PUSH1 0x4 ADD PUSH1 0x40 MLOAD DUP1 SWAP2 SUB SWAP1 REVERT JUMPDEST PUSH1 0x40 DUP1 MLOAD PUSH1 0x60 DUP2 ADD DUP3 MSTORE DUP3 DUP2 MSTORE TIMESTAMP PUSH1 0x20 DUP3 ADD DUP2 SWAP1 MSTORE PUSH0 SWAP2 SWAP1 SWAP3 ADD DUP2 SWAP1 MSTORE PUSH1 0x3 DUP4 SWAP1 SSTORE PUSH1 0x4 SWAP2 SWAP1 SWAP2 SSTORE PUSH1 0x5 SSTORE PUSH1 0xC DUP1 SLOAD PUSH1 0xFF NOT AND PUSH1 0x1 OR SWAP1 SSTORE PUSH1 0x7 SLOAD PUSH1 0xA GT ISZERO PUSH2 0x7A0 JUMPI PUSH1 0x7 DUP1 SLOAD PUSH1 0x1 DUP2 ADD DUP3 SSTORE PUSH0 SWAP2 SWAP1 SWAP2 MSTORE PUSH1 0x3 DUP1 SLOAD SWAP2 MUL PUSH32 0xA66CC928B5EDB82AF9BD49922954155AB7B0942694BEA4CE44661D9A8736C688 DUP2 ADD SWAP2 SWAP1 SWAP2 SSTORE PUSH1 0x4 SLOAD PUSH32 0xA66CC928B5EDB82AF9BD49922954155AB7B0942694BEA4CE44661D9A8736C689 DUP3 ADD SSTORE PUSH1 0x5 SLOAD PUSH32 0xA66CC928B5EDB82AF9BD49922954155AB7B0942694BEA4CE44661D9A8736C68A SWAP1 SWAP2 ADD SSTORE PUSH2 0x7EB JUMP JUMPDEST PUSH1 0x3 PUSH1 0x7 PUSH1 0xA PUSH1 0x6 SLOAD PUSH2 0x7B3 SWAP2 SWAP1 PUSH2 0x11CC JUMP JUMPDEST DUP2 SLOAD DUP2 LT PUSH2 0x7C3 JUMPI PUSH2 0x7C3 PUSH2 0x113A JUMP JUMPDEST PUSH0 SWAP2 DUP3 MSTORE PUSH1 0x20 SWAP1 SWAP2 KECCAK256 DUP3 SLOAD PUSH1 0x3 SWAP1 SWAP3 MUL ADD SWAP1 DUP2 SSTORE PUSH1 0x1 DUP1 DUP4 ADD SLOAD SWAP1 DUP3 ADD SSTORE PUSH1 0x2 SWAP2 DUP3 ADD SLOAD SWAP2 ADD SSTORE JUMPDEST PUSH1 0x40 DUP1 MLOAD DUP3 DUP2 MSTORE TIMESTAMP PUSH1 0x20 DUP3 ADD MSTORE PUSH32 0xCDB493324E99E83676E2826356D9387F491CB8B0D60A6D0CDBF3F28166D7B65 SWAP2 ADD JUMPDEST PUSH1 0x40 MLOAD DUP1 SWAP2 SUB SWAP1 LOG1 POP JUMP JUMPDEST PUSH2 0x82F PUSH2 0xCBE JUMP JUMPDEST PUSH1 0x1 PUSH1 0x1 PUSH1 0xA0 SHL SUB DUP2 AND PUSH0 SWAP1 DUP2 MSTORE PUSH1 0x1 PUSH1 0x20 MSTORE PUSH1 0x40 SWAP1 KECCAK256 SLOAD PUSH1 0xFF AND ISZERO PUSH2 0x8B5 JUMPI PUSH1 0x1 PUSH1 0x1 PUSH1 0xA0 SHL SUB DUP2 AND PUSH0 SWAP1 DUP2 MSTORE PUSH1 0x1 PUSH1 0x20 MSTORE PUSH1 0x40 DUP2 KECCAK256 DUP1 SLOAD PUSH1 0xFF NOT AND SWAP1 SSTORE PUSH1 0x2 DUP1 SLOAD SWAP2 PUSH2 0x87C DUP4 PUSH2 0x11DF JUMP JUMPDEST SWAP1 SWAP2 SSTORE POP POP PUSH1 0x40 MLOAD PUSH1 0x1 PUSH1 0x1 PUSH1 0xA0 SHL SUB DUP3 AND SWAP1 PUSH32 0xF125AA5E6CB22C17EA0DE4E1F86D2FF289DDD6A37E791B9AD29D0091CBA06AC8 SWAP1 PUSH0 SWAP1 LOG2 JUMPDEST POP JUMP JUMPDEST PUSH2 0x8C0 PUSH2 0xCBE JUMP JUMPDEST PUSH1 0x6 DUP1 SLOAD SWAP1 PUSH0 PUSH2 0x8CF DUP4 PUSH2 0x11F4 JUMP JUMPDEST SWAP1 SWAP2 SSTORE POP POP PUSH0 PUSH1 0x9 DUP2 SWAP1 SSTORE PUSH2 0x8E6 SWAP1 PUSH1 0xA SWAP1 PUSH2 0x106A JUMP JUMPDEST JUMP JUMPDEST PUSH2 0x8F0 PUSH2 0xCBE JUMP JUMPDEST PUSH2 0x8E6 PUSH0 PUSH2 0xCEA JUMP JUMPDEST PUSH0 PUSH0 PUSH1 0x3 PUSH1 0x1 ADD SLOAD PUSH0 SUB PUSH2 0x920 JUMPI PUSH1 0x40 MLOAD PUSH4 0xC149905D PUSH1 0xE0 SHL DUP2 MSTORE PUSH1 0x4 ADD PUSH1 0x40 MLOAD DUP1 SWAP2 SUB SWAP1 REVERT JUMPDEST PUSH1 0x4 SLOAD PUSH2 0xE10 SWAP1 PUSH2 0x931 SWAP1 TIMESTAMP PUSH2 0x1162 JUMP JUMPDEST GT ISZERO PUSH2 0x950 JUMPI PUSH1 0x40 MLOAD PUSH4 0xCD5FA07 PUSH1 0xE1 SHL DUP2 MSTORE PUSH1 0x4 ADD PUSH1 0x40 MLOAD DUP1 SWAP2 SUB SWAP1 REVERT JUMPDEST POP POP PUSH1 0x3 SLOAD PUSH1 0x4 SLOAD SWAP1 SWAP2 JUMP JUMPDEST PUSH1 0x60 PUSH1 0x7 DUP1 SLOAD DUP1 PUSH1 0x20 MUL PUSH1 0x20 ADD PUSH1 0x40 MLOAD SWAP1 DUP2 ADD PUSH1 0x40 MSTORE DUP1 SWAP3 SWAP2 SWAP1 DUP2 DUP2 MSTORE PUSH1 0x20 ADD PUSH0 SWAP1 JUMPDEST DUP3 DUP3 LT ISZERO PUSH2 0x9CC JUMPI DUP4 DUP3 SWAP1 PUSH0 MSTORE PUSH1 0x20 PUSH0 KECCAK256 SWAP1 PUSH1 0x3 MUL ADD PUSH1 0x40 MLOAD DUP1 PUSH1 0x60 ADD PUSH1 0x40 MSTORE SWAP1 DUP2 PUSH0 DUP3 ADD SLOAD DUP2 MSTORE PUSH1 0x20 ADD PUSH1 0x1 DUP3 ADD SLOAD DUP2 MSTORE PUSH1 0x20 ADD PUSH1 0x2 DUP3 ADD SLOAD DUP2 MSTORE POP POP DUP2 MSTORE PUSH1 0x20 ADD SWAP1 PUSH1 0x1 ADD SWAP1 PUSH2 0x97F JUMP JUMPDEST POP POP POP POP SWAP1 POP SWAP1 JUMP JUMPDEST CALLER PUSH0 SWAP1 DUP2 MSTORE PUSH1 0x1 PUSH1 0x20 MSTORE PUSH1 0x40 SWAP1 KECCAK256 SLOAD PUSH1 0xFF AND PUSH2 0xA04 JUMPI PUSH1 0x40 MLOAD PUSH4 0x1C833D81 PUSH1 0xE2 SHL DUP2 MSTORE PUSH1 0x4 ADD PUSH1 0x40 MLOAD DUP1 SWAP2 SUB SWAP1 REVERT JUMPDEST PUSH1 0x6 SLOAD PUSH0 SWAP1 DUP2 MSTORE PUSH1 0x8 PUSH1 0x20 SWAP1 DUP2 MSTORE PUSH1 0x40 DUP1 DUP4 KECCAK256 CALLER DUP5 MSTORE SWAP1 SWAP2 MSTORE SWAP1 KECCAK256 SLOAD PUSH1 0xFF AND ISZERO PUSH2 0xA41 JUMPI PUSH1 0x40 MLOAD PUSH4 0x9FBFC589 PUSH1 0xE0 SHL DUP2 MSTORE PUSH1 0x4 ADD PUSH1 0x40 MLOAD DUP1 SWAP2 SUB SWAP1 REVERT JUMPDEST PUSH1 0x4 SLOAD ISZERO PUSH2 0xAA7 JUMPI PUSH1 0x3 SLOAD PUSH0 DUP2 DUP4 GT PUSH2 0xA63 JUMPI PUSH2 0xA5E DUP4 DUP4 PUSH2 0x1162 JUMP JUMPDEST PUSH2 0xA6D JUMP JUMPDEST PUSH2 0xA6D DUP3 DUP5 PUSH2 0x1162 JUMP JUMPDEST SWAP1 POP PUSH2 0xA7A DUP3 PUSH1 0x32 PUSH2 0x118E JUMP JUMPDEST PUSH2 0xA85 DUP3 PUSH1 0x64 PUSH2 0x118E JUMP JUMPDEST GT ISZERO PUSH2 0xAA4 JUMPI PUSH1 0x40 MLOAD PUSH4 0x69E25179 PUSH1 0xE1 SHL DUP2 MSTORE PUSH1 0x4 ADD PUSH1 0x40 MLOAD DUP1 SWAP2 SUB SWAP1 REVERT JUMPDEST POP POP JUMPDEST PUSH1 0x6 SLOAD PUSH0 SWAP1 DUP2 MSTORE PUSH1 0x8 PUSH1 0x20 SWAP1 DUP2 MSTORE PUSH1 0x40 DUP1 DUP4 KECCAK256 CALLER DUP5 MSTORE SWAP1 SWAP2 MSTORE DUP2 KECCAK256 DUP1 SLOAD PUSH1 0xFF NOT AND PUSH1 0x1 SWAP1 DUP2 OR SWAP1 SWAP2 SSTORE PUSH1 0xA DUP1 SLOAD SWAP2 DUP3 ADD DUP2 SSTORE DUP3 MSTORE PUSH32 0xC65A7BB8D6351C1CF70C95A316CC6A92839C986682D98BC35F958F4883F9D2A8 ADD DUP3 SWAP1 SSTORE PUSH1 0x9 DUP1 SLOAD SWAP2 PUSH2 0xB0E DUP4 PUSH2 0x11F4 JUMP JUMPDEST SWAP1 SWAP2 SSTORE POP POP CALLER PUSH0 SWAP1 DUP2 MSTORE PUSH1 0xB PUSH1 0x20 MSTORE PUSH1 0x40 DUP2 KECCAK256 DUP1 SLOAD SWAP2 PUSH2 0xB2D DUP4 PUSH2 0x11F4 JUMP JUMPDEST SWAP1 SWAP2 SSTORE POP POP PUSH1 0x6 SLOAD PUSH1 0x40 MLOAD DUP3 DUP2 MSTORE CALLER SWAP2 SWAP1 PUSH32 0x2655941EF0E01E05D55A873609115593DB7DF65CD101451B9F7E89EDE1613EC9 SWAP1 PUSH1 0x20 ADD PUSH1 0x40 MLOAD DUP1 SWAP2 SUB SWAP1 LOG3 PUSH1 0x3 PUSH1 0x9 SLOAD LT PUSH2 0x8B5 JUMPI PUSH2 0x8B5 PUSH2 0xD39 JUMP JUMPDEST PUSH1 0x7 DUP2 DUP2 SLOAD DUP2 LT PUSH2 0xB8C JUMPI PUSH0 DUP1 REVERT JUMPDEST PUSH0 SWAP2 DUP3 MSTORE PUSH1 0x20 SWAP1 SWAP2 KECCAK256 PUSH1 0x3 SWAP1 SWAP2 MUL ADD DUP1 SLOAD PUSH1 0x1 DUP3 ADD SLOAD PUSH1 0x2 SWAP1 SWAP3 ADD SLOAD SWAP1 SWAP3 POP DUP4 JUMP JUMPDEST PUSH2 0xBB6 PUSH2 0xCBE JUMP JUMPDEST PUSH1 0xD DUP2 SWAP1 SSTORE PUSH1 0x40 MLOAD DUP2 DUP2 MSTORE PUSH32 0x60123B8789D68D6A3A4B1592F2B8BE4211B24C63398E83E66AB7748A5FEB3F9E SWAP1 PUSH1 0x20 ADD PUSH2 0x81C JUMP JUMPDEST PUSH2 0xBF3 PUSH2 0xCBE JUMP JUMPDEST PUSH1 0x1 PUSH1 0x1 PUSH1 0xA0 SHL SUB DUP2 AND PUSH0 SWAP1 DUP2 MSTORE PUSH1 0x1 PUSH1 0x20 MSTORE PUSH1 0x40 SWAP1 KECCAK256 SLOAD PUSH1 0xFF AND PUSH2 0x8B5 JUMPI PUSH1 0x1 PUSH1 0x1 PUSH1 0xA0 SHL SUB DUP2 AND PUSH0 SWAP1 DUP2 MSTORE PUSH1 0x1 PUSH1 0x20 DUP2 SWAP1 MSTORE PUSH1 0x40 DUP3 KECCAK256 DUP1 SLOAD PUSH1 0xFF NOT AND SWAP1 SWAP2 OR SWAP1 SSTORE PUSH1 0x2 DUP1 SLOAD SWAP2 PUSH2 0xC44 DUP4 PUSH2 0x11F4 JUMP JUMPDEST SWAP1 SWAP2 SSTORE POP POP PUSH1 0x40 MLOAD PUSH1 0x1 PUSH1 0x1 PUSH1 0xA0 SHL SUB DUP3 AND SWAP1 PUSH32 0x52824C4A4D431C73D6D24A91F775D722860111C6D30DA30B0B21E062FB4C7365 SWAP1 PUSH0 SWAP1 LOG2 POP JUMP JUMPDEST PUSH2 0xC87 PUSH2 0xCBE JUMP JUMPDEST PUSH1 0x1 PUSH1 0x1 PUSH1 0xA0 SHL SUB DUP2 AND PUSH2 0xCB5 JUMPI PUSH1 0x40 MLOAD PUSH4 0x1E4FBDF7 PUSH1 0xE0 SHL DUP2 MSTORE PUSH0 PUSH1 0x4 DUP3 ADD MSTORE PUSH1 0x24 ADD JUMPDEST PUSH1 0x40 MLOAD DUP1 SWAP2 SUB SWAP1 REVERT JUMPDEST PUSH2 0x8B5 DUP2 PUSH2 0xCEA JUMP JUMPDEST PUSH0 SLOAD PUSH1 0x1 PUSH1 0x1 PUSH1 0xA0 SHL SUB AND CALLER EQ PUSH2 0x8E6 JUMPI PUSH1 0x40 MLOAD PUSH4 0x118CDAA7 PUSH1 0xE0 SHL DUP2 MSTORE CALLER PUSH1 0x4 DUP3 ADD MSTORE PUSH1 0x24 ADD PUSH2 0xCAC JUMP JUMPDEST PUSH0 DUP1 SLOAD PUSH1 0x1 PUSH1 0x1 PUSH1 0xA0 SHL SUB DUP4 DUP2 AND PUSH1 0x1 PUSH1 0x1 PUSH1 0xA0 SHL SUB NOT DUP4 AND DUP2 OR DUP5 SSTORE PUSH1 0x40 MLOAD SWAP2 SWAP1 SWAP3 AND SWAP3 DUP4 SWAP2 PUSH32 0x8BE0079C531659141344CD1FD0A4F28419497F9722A3DAAFE3B4186F6B6457E0 SWAP2 SWAP1 LOG3 POP POP JUMP JUMPDEST PUSH0 PUSH1 0xD SLOAD GT DUP1 ISZERO PUSH2 0xD4B JUMPI POP PUSH1 0x4 SLOAD ISZERO ISZERO JUMPDEST ISZERO PUSH2 0xD7F JUMPI PUSH1 0xD SLOAD PUSH1 0x4 SLOAD PUSH2 0xD60 SWAP1 TIMESTAMP PUSH2 0x1162 JUMP JUMPDEST LT ISZERO PUSH2 0xD7F JUMPI PUSH1 0x40 MLOAD PUSH4 0x7BC94DB PUSH1 0xE5 SHL DUP2 MSTORE PUSH1 0x4 ADD PUSH1 0x40 MLOAD DUP1 SWAP2 SUB SWAP1 REVERT JUMPDEST PUSH0 PUSH1 0xA DUP1 SLOAD DUP1 PUSH1 0x20 MUL PUSH1 0x20 ADD PUSH1 0x40 MLOAD SWAP1 DUP2 ADD PUSH1 0x40 MSTORE DUP1 SWAP3 SWAP2 SWAP1 DUP2 DUP2 MSTORE PUSH1 0x20 ADD DUP3 DUP1 SLOAD DUP1 ISZERO PUSH2 0xDCA JUMPI PUSH1 0x20 MUL DUP3 ADD SWAP2 SWAP1 PUSH0 MSTORE PUSH1 0x20 PUSH0 KECCAK256 SWAP1 JUMPDEST DUP2 SLOAD DUP2 MSTORE PUSH1 0x20 ADD SWAP1 PUSH1 0x1 ADD SWAP1 DUP1 DUP4 GT PUSH2 0xDB6 JUMPI JUMPDEST POP POP POP POP POP SWAP1 POP PUSH2 0xDDA DUP2 PUSH2 0xF8B JUMP JUMPDEST PUSH0 DUP2 PUSH1 0x2 DUP4 MLOAD PUSH2 0xDEA SWAP2 SWAP1 PUSH2 0x11B9 JUMP JUMPDEST DUP2 MLOAD DUP2 LT PUSH2 0xDFA JUMPI PUSH2 0xDFA PUSH2 0x113A JUMP JUMPDEST PUSH1 0x20 SWAP1 DUP2 MUL SWAP2 SWAP1 SWAP2 ADD DUP2 ADD MLOAD PUSH1 0x40 DUP1 MLOAD PUSH1 0x60 DUP2 ADD DUP3 MSTORE DUP3 DUP2 MSTORE TIMESTAMP SWAP4 DUP2 ADD DUP5 SWAP1 MSTORE PUSH1 0x9 SLOAD SWAP2 ADD DUP2 SWAP1 MSTORE PUSH1 0x3 DUP3 SWAP1 SSTORE PUSH1 0x4 SWAP3 SWAP1 SWAP3 SSTORE PUSH1 0x5 SWAP2 SWAP1 SWAP2 SSTORE PUSH1 0x7 SLOAD SWAP1 SWAP2 POP PUSH1 0xA GT ISZERO PUSH2 0xED1 JUMPI PUSH1 0x7 DUP1 SLOAD PUSH1 0x1 DUP2 ADD DUP3 SSTORE PUSH0 SWAP2 SWAP1 SWAP2 MSTORE PUSH1 0x3 DUP1 SLOAD SWAP2 MUL PUSH32 0xA66CC928B5EDB82AF9BD49922954155AB7B0942694BEA4CE44661D9A8736C688 DUP2 ADD SWAP2 SWAP1 SWAP2 SSTORE PUSH1 0x4 SLOAD PUSH32 0xA66CC928B5EDB82AF9BD49922954155AB7B0942694BEA4CE44661D9A8736C689 DUP3 ADD SSTORE PUSH1 0x5 SLOAD PUSH32 0xA66CC928B5EDB82AF9BD49922954155AB7B0942694BEA4CE44661D9A8736C68A SWAP1 SWAP2 ADD SSTORE PUSH2 0xF1C JUMP JUMPDEST PUSH1 0x3 PUSH1 0x7 PUSH1 0xA PUSH1 0x6 SLOAD PUSH2 0xEE4 SWAP2 SWAP1 PUSH2 0x11CC JUMP JUMPDEST DUP2 SLOAD DUP2 LT PUSH2 0xEF4 JUMPI PUSH2 0xEF4 PUSH2 0x113A JUMP JUMPDEST PUSH0 SWAP2 DUP3 MSTORE PUSH1 0x20 SWAP1 SWAP2 KECCAK256 DUP3 SLOAD PUSH1 0x3 SWAP1 SWAP3 MUL ADD SWAP1 DUP2 SSTORE PUSH1 0x1 DUP1 DUP4 ADD SLOAD SWAP1 DUP3 ADD SSTORE PUSH1 0x2 SWAP2 DUP3 ADD SLOAD SWAP2 ADD SSTORE JUMPDEST PUSH1 0xC DUP1 SLOAD PUSH1 0xFF NOT AND SWAP1 SSTORE PUSH1 0x6 SLOAD PUSH1 0x40 DUP1 MLOAD DUP4 DUP2 MSTORE TIMESTAMP PUSH1 0x20 DUP3 ADD MSTORE PUSH32 0x15819DD2FD9F6418B142E798D08A18D0BF06EA368F4480B7B0D3F75BD966BC48 SWAP2 ADD PUSH1 0x40 MLOAD DUP1 SWAP2 SUB SWAP1 LOG2 PUSH1 0x6 DUP1 SLOAD SWAP1 PUSH0 PUSH2 0xF70 DUP4 PUSH2 0x11F4 JUMP JUMPDEST SWAP1 SWAP2 SSTORE POP POP PUSH0 PUSH1 0x9 DUP2 SWAP1 SSTORE PUSH2 0xF87 SWAP1 PUSH1 0xA SWAP1 PUSH2 0x106A JUMP JUMPDEST POP POP JUMP JUMPDEST PUSH1 0x1 JUMPDEST DUP2 MLOAD DUP2 LT ISZERO PUSH2 0xF87 JUMPI PUSH0 DUP3 DUP3 DUP2 MLOAD DUP2 LT PUSH2 0xFAA JUMPI PUSH2 0xFAA PUSH2 0x113A JUMP JUMPDEST PUSH1 0x20 MUL PUSH1 0x20 ADD ADD MLOAD SWAP1 POP PUSH0 DUP3 SWAP1 POP JUMPDEST PUSH0 DUP2 GT DUP1 ISZERO PUSH2 0xFEA JUMPI POP DUP2 DUP5 PUSH2 0xFD0 PUSH1 0x1 DUP5 PUSH2 0x1162 JUMP JUMPDEST DUP2 MLOAD DUP2 LT PUSH2 0xFE0 JUMPI PUSH2 0xFE0 PUSH2 0x113A JUMP JUMPDEST PUSH1 0x20 MUL PUSH1 0x20 ADD ADD MLOAD GT JUMPDEST ISZERO PUSH2 0x1042 JUMPI DUP4 PUSH2 0xFFB PUSH1 0x1 DUP4 PUSH2 0x1162 JUMP JUMPDEST DUP2 MLOAD DUP2 LT PUSH2 0x100B JUMPI PUSH2 0x100B PUSH2 0x113A JUMP JUMPDEST PUSH1 0x20 MUL PUSH1 0x20 ADD ADD MLOAD DUP5 DUP3 DUP2 MLOAD DUP2 LT PUSH2 0x1025 JUMPI PUSH2 0x1025 PUSH2 0x113A JUMP JUMPDEST PUSH1 0x20 SWAP1 DUP2 MUL SWAP2 SWAP1 SWAP2 ADD ADD MSTORE DUP1 PUSH2 0x103A DUP2 PUSH2 0x11DF JUMP JUMPDEST SWAP2 POP POP PUSH2 0xFB9 JUMP JUMPDEST DUP2 DUP5 DUP3 DUP2 MLOAD DUP2 LT PUSH2 0x1055 JUMPI PUSH2 0x1055 PUSH2 0x113A JUMP JUMPDEST PUSH1 0x20 SWAP1 DUP2 MUL SWAP2 SWAP1 SWAP2 ADD ADD MSTORE POP POP PUSH1 0x1 ADD PUSH2 0xF8E JUMP JUMPDEST POP DUP1 SLOAD PUSH0 DUP3 SSTORE SWAP1 PUSH0 MSTORE PUSH1 0x20 PUSH0 KECCAK256 SWAP1 DUP2 ADD SWAP1 PUSH2 0x8B5 SWAP2 SWAP1 JUMPDEST DUP1 DUP3 GT ISZERO PUSH2 0x1094 JUMPI PUSH0 DUP2 SSTORE PUSH1 0x1 ADD PUSH2 0x1081 JUMP JUMPDEST POP SWAP1 JUMP JUMPDEST PUSH0 PUSH1 0x20 DUP3 DUP5 SUB SLT ISZERO PUSH2 0x10A8 JUMPI PUSH0 PUSH0 REVERT JUMPDEST DUP2 CALLDATALOAD PUSH1 0x1 PUSH1 0x1 PUSH1 0xA0 SHL SUB DUP2 AND DUP2 EQ PUSH2 0x10BE JUMPI PUSH0 PUSH0 REVERT JUMPDEST SWAP4 SWAP3 POP POP POP JUMP JUMPDEST PUSH0 PUSH1 0x20 DUP3 DUP5 SUB SLT ISZERO PUSH2 0x10D5 JUMPI PUSH0 PUSH0 REVERT JUMPDEST POP CALLDATALOAD SWAP2 SWAP1 POP JUMP JUMPDEST PUSH1 0x20 DUP1 DUP3 MSTORE DUP3 MLOAD DUP3 DUP3 ADD DUP2 SWAP1 MSTORE PUSH0 SWAP2 DUP5 ADD SWAP1 PUSH1 0x40 DUP5 ADD SWAP1 DUP4 JUMPDEST DUP2 DUP2 LT ISZERO PUSH2 0x112F JUMPI DUP4 MLOAD DUP1 MLOAD DUP5 MSTORE PUSH1 0x20 DUP2 ADD MLOAD PUSH1 0x20 DUP6 ADD MSTORE PUSH1 0x40 DUP2 ADD MLOAD PUSH1 0x40 DUP6 ADD MSTORE POP PUSH1 0x60 DUP4 ADD SWAP3 POP PUSH1 0x20 DUP5 ADD SWAP4 POP PUSH1 0x1 DUP2 ADD SWAP1 POP PUSH2 0x10F5 JUMP JUMPDEST POP SWAP1 SWAP6 SWAP5 POP POP POP POP POP JUMP JUMPDEST PUSH4 0x4E487B71 PUSH1 0xE0 SHL PUSH0 MSTORE PUSH1 0x32 PUSH1 0x4 MSTORE PUSH1 0x24 PUSH0 REVERT JUMPDEST PUSH4 0x4E487B71 PUSH1 0xE0 SHL PUSH0 MSTORE PUSH1 0x11 PUSH1 0x4 MSTORE PUSH1 0x24 PUSH0 REVERT JUMPDEST DUP2 DUP2 SUB DUP2 DUP2 GT ISZERO PUSH2 0x1175 JUMPI PUSH2 0x1175 PUSH2 0x114E JUMP JUMPDEST SWAP3 SWAP2 POP POP JUMP JUMPDEST DUP1 DUP3 ADD DUP1 DUP3 GT ISZERO PUSH2 0x1175 JUMPI PUSH2 0x1175 PUSH2 0x114E JUMP JUMPDEST DUP1 DUP3 MUL DUP2 ISZERO DUP3 DUP3 DIV DUP5 EQ OR PUSH2 0x1175 JUMPI PUSH2 0x1175 PUSH2 0x114E JUMP JUMPDEST PUSH4 0x4E487B71 PUSH1 0xE0 SHL PUSH0 MSTORE PUSH1 0x12 PUSH1 0x4 MSTORE PUSH1 0x24 PUSH0 REVERT JUMPDEST PUSH0 DUP3 PUSH2 0x11C7 JUMPI PUSH2 0x11C7 PUSH2 0x11A5 JUMP JUMPDEST POP DIV SWAP1 JUMP JUMPDEST PUSH0 DUP3 PUSH2 0x11DA JUMPI PUSH2 0x11DA PUSH2 0x11A5 JUMP JUMPDEST POP MOD SWAP1 JUMP JUMPDEST PUSH0 DUP2 PUSH2 0x11ED JUMPI PUSH2 0x11ED PUSH2 0x114E JUMP JUMPDEST POP PUSH0 NOT ADD SWAP1 JUMP JUMPDEST PUSH0 PUSH1 0x1 DUP3 ADD PUSH2 0x1205 JUMPI PUSH2 0x1205 PUSH2 0x114E JUMP JUMPDEST POP PUSH1 0x1 ADD SWAP1 JUMP INVALID LOG2 PUSH5 0x6970667358 0x22 SLT KECCAK256 REVERT 0xEE PUSH19 0xAE834D1770946308AA40C54929CF694E8A70C2 PUSH27 0xA951CED206006F378C64736F6C634300081C003300000000000000 "},"methodIdentifiers":{"DECIMALS()":"2e0f2625","MAX_HISTORY()":"13545a02","MIN_REPORTERS()":"999ad67d","STALENESS_THRESHOLD()":"7215b0bf","addReporter(address)":"dd8755f2","authorizedReporters(address)":"3a41429a","currentRoundId()":"9cbe5efd","emergencyPriceActive()":"163b4cd4","emergencySetPrice(uint256)":"3d17ad3a","forceAdvanceRound()":"61dc8ecb","getCurrentRoundSubmissions()":"fe9bd8cc","getLatestPrice()":"8e15f473","getLatestPriceUnsafe()":"867df156","getPriceHistory()":"929f0379","getPriceHistoryLength()":"a524c7ea","getTWAP()":"05ecd003","getVolatility()":"3af2888b","hasSubmitted(address)":"388044b3","latestRound()":"668a0f02","minRoundInterval()":"f42e9808","owner()":"8da5cb5b","priceHistory(uint256)":"b27a0484","removeReporter(address)":"5de5c212","renounceOwnership()":"715018a6","reporterCount()":"850e3c48","reporterSubmissions(address)":"514454fb","setMinRoundInterval(uint256)":"dc044784","submitPrice(uint256)":"986fcbe9","transferOwnership(address)":"f2fde38b"}}}}}