{"contracts/NFTMarketplace.sol":{"NFTMarketplace":{"abi":[{"inputs":[],"stateMutability":"nonpayable","type":"constructor"},{"inputs":[],"name":"AlreadyRated","type":"error"},{"inputs":[],"name":"ArrayLengthMismatch","type":"error"},{"inputs":[],"name":"AuctionAlreadyEnded","type":"error"},{"inputs":[],"name":"AuctionExpired","type":"error"},{"inputs":[],"name":"AuctionHasBids","type":"error"},{"inputs":[],"name":"AuctionNotExpired","type":"error"},{"inputs":[],"name":"BatchTooLarge","type":"error"},{"inputs":[],"name":"BidBelowStartPrice","type":"error"},{"inputs":[],"name":"BidIncrementTooLow","type":"error"},{"inputs":[],"name":"BidTooLow","type":"error"},{"inputs":[],"name":"DutchAuctionEnded","type":"error"},{"inputs":[],"name":"EndPriceTooHigh","type":"error"},{"inputs":[],"name":"EnforcedPause","type":"error"},{"inputs":[],"name":"ExcessivePayment","type":"error"},{"inputs":[],"name":"ExpectedPause","type":"error"},{"inputs":[],"name":"FeeTooHigh","type":"error"},{"inputs":[],"name":"InsufficientPayment","type":"error"},{"inputs":[],"name":"InvalidDuration","type":"error"},{"inputs":[],"name":"InvalidRating","type":"error"},{"inputs":[],"name":"ListingExpiredError","type":"error"},{"inputs":[],"name":"ListingNotActive","type":"error"},{"inputs":[],"name":"MarketplaceNotApproved","type":"error"},{"inputs":[],"name":"NotCounterparty","type":"error"},{"inputs":[],"name":"NotTheSeller","type":"error"},{"inputs":[],"name":"NotTokenOwner","type":"error"},{"inputs":[],"name":"NotTxParticipant","type":"error"},{"inputs":[],"name":"NothingToWithdraw","type":"error"},{"inputs":[],"name":"OfferExpired","type":"error"},{"inputs":[],"name":"OfferNotActive","type":"error"},{"inputs":[],"name":"OracleNotSet","type":"error"},{"inputs":[{"internalType":"address","name":"owner","type":"address"}],"name":"OwnableInvalidOwner","type":"error"},{"inputs":[{"internalType":"address","name":"account","type":"address"}],"name":"OwnableUnauthorizedAccount","type":"error"},{"inputs":[],"name":"PriceZero","type":"error"},{"inputs":[],"name":"ReentrancyGuardReentrantCall","type":"error"},{"inputs":[],"name":"RentalDurationInvalid","type":"error"},{"inputs":[],"name":"RentalListingNotActive","type":"error"},{"inputs":[],"name":"SellerCannotBid","type":"error"},{"inputs":[],"name":"SellerCannotBuy","type":"error"},{"inputs":[],"name":"SwapExpired","type":"error"},{"inputs":[],"name":"SwapNotActive","type":"error"},{"inputs":[],"name":"TransferFailed","type":"error"},{"inputs":[],"name":"TxNotFound","type":"error"},{"anonymous":false,"inputs":[{"indexed":true,"internalType":"uint256","name":"auctionId","type":"uint256"}],"name":"AuctionCancelled","type":"event"},{"anonymous":false,"inputs":[{"indexed":true,"internalType":"uint256","name":"auctionId","type":"uint256"},{"indexed":true,"internalType":"address","name":"seller","type":"address"},{"indexed":true,"internalType":"address","name":"nftContract","type":"address"},{"indexed":false,"internalType":"uint256","name":"tokenId","type":"uint256"},{"indexed":false,"internalType":"uint256","name":"startPrice","type":"uint256"},{"indexed":false,"internalType":"uint256","name":"endTime","type":"uint256"}],"name":"AuctionCreated","type":"event"},{"anonymous":false,"inputs":[{"indexed":true,"internalType":"uint256","name":"auctionId","type":"uint256"},{"indexed":true,"internalType":"address","name":"winner","type":"address"},{"indexed":false,"internalType":"uint256","name":"amount","type":"uint256"}],"name":"AuctionEnded","type":"event"},{"anonymous":false,"inputs":[{"indexed":true,"internalType":"uint256","name":"auctionId","type":"uint256"},{"indexed":false,"internalType":"uint256","name":"newEndTime","type":"uint256"}],"name":"AuctionExtended","type":"event"},{"anonymous":false,"inputs":[{"indexed":false,"internalType":"uint256[]","name":"listingIds","type":"uint256[]"},{"indexed":true,"internalType":"address","name":"seller","type":"address"}],"name":"BatchListed","type":"event"},{"anonymous":false,"inputs":[{"indexed":true,"internalType":"uint256","name":"auctionId","type":"uint256"},{"indexed":true,"internalType":"address","name":"bidder","type":"address"},{"indexed":false,"internalType":"uint256","name":"amount","type":"uint256"}],"name":"BidPlaced","type":"event"},{"anonymous":false,"inputs":[{"indexed":true,"internalType":"uint256","name":"auctionId","type":"uint256"}],"name":"DutchAuctionCancelled","type":"event"},{"anonymous":false,"inputs":[{"indexed":true,"internalType":"uint256","name":"auctionId","type":"uint256"},{"indexed":true,"internalType":"address","name":"seller","type":"address"},{"indexed":false,"internalType":"uint256","name":"startPriceUsdCents","type":"uint256"},{"indexed":false,"internalType":"uint256","name":"endPriceUsdCents","type":"uint256"},{"indexed":false,"internalType":"uint256","name":"endTime","type":"uint256"}],"name":"DutchAuctionCreated","type":"event"},{"anonymous":false,"inputs":[{"indexed":true,"internalType":"uint256","name":"auctionId","type":"uint256"},{"indexed":true,"internalType":"address","name":"buyer","type":"address"},{"indexed":false,"internalType":"uint256","name":"priceUsdCents","type":"uint256"},{"indexed":false,"internalType":"uint256","name":"paidWei","type":"uint256"}],"name":"DutchAuctionSold","type":"event"},{"anonymous":false,"inputs":[{"indexed":true,"internalType":"uint256","name":"listingId","type":"uint256"},{"indexed":true,"internalType":"address","name":"seller","type":"address"},{"indexed":true,"internalType":"address","name":"nftContract","type":"address"},{"indexed":false,"internalType":"uint256","name":"tokenId","type":"uint256"},{"indexed":false,"internalType":"uint256","name":"priceUsdCents","type":"uint256"},{"indexed":false,"internalType":"uint256","name":"expiration","type":"uint256"}],"name":"Listed","type":"event"},{"anonymous":false,"inputs":[{"indexed":true,"internalType":"uint256","name":"listingId","type":"uint256"}],"name":"ListingCancelled","type":"event"},{"anonymous":false,"inputs":[{"indexed":true,"internalType":"uint256","name":"listingId","type":"uint256"},{"indexed":false,"internalType":"uint256","name":"oldPrice","type":"uint256"},{"indexed":false,"internalType":"uint256","name":"newPrice","type":"uint256"}],"name":"ListingPriceUpdated","type":"event"},{"anonymous":false,"inputs":[{"indexed":true,"internalType":"uint256","name":"rentalId","type":"uint256"},{"indexed":true,"internalType":"address","name":"renter","type":"address"},{"indexed":false,"internalType":"uint256","name":"days_","type":"uint256"},{"indexed":false,"internalType":"uint256","name":"paidWei","type":"uint256"}],"name":"NFTRented","type":"event"},{"anonymous":false,"inputs":[{"indexed":true,"internalType":"uint256","name":"offerId","type":"uint256"},{"indexed":true,"internalType":"address","name":"seller","type":"address"}],"name":"OfferAccepted","type":"event"},{"anonymous":false,"inputs":[{"indexed":true,"internalType":"uint256","name":"offerId","type":"uint256"}],"name":"OfferCancelled","type":"event"},{"anonymous":false,"inputs":[{"indexed":true,"internalType":"uint256","name":"offerId","type":"uint256"},{"indexed":true,"internalType":"address","name":"buyer","type":"address"},{"indexed":false,"internalType":"address","name":"nftContract","type":"address"},{"indexed":false,"internalType":"uint256","name":"tokenId","type":"uint256"},{"indexed":false,"internalType":"uint256","name":"amount","type":"uint256"},{"indexed":false,"internalType":"uint256","name":"expiration","type":"uint256"}],"name":"OfferMade","type":"event"},{"anonymous":false,"inputs":[{"indexed":true,"internalType":"address","name":"newOracle","type":"address"}],"name":"OracleUpdated","type":"event"},{"anonymous":false,"inputs":[{"indexed":true,"internalType":"address","name":"previousOwner","type":"address"},{"indexed":true,"internalType":"address","name":"newOwner","type":"address"}],"name":"OwnershipTransferred","type":"event"},{"anonymous":false,"inputs":[{"indexed":false,"internalType":"address","name":"account","type":"address"}],"name":"Paused","type":"event"},{"anonymous":false,"inputs":[{"indexed":false,"internalType":"uint256","name":"newFeeBps","type":"uint256"}],"name":"PlatformFeeUpdated","type":"event"},{"anonymous":false,"inputs":[{"indexed":true,"internalType":"uint256","name":"rentalId","type":"uint256"}],"name":"RentalCancelled","type":"event"},{"anonymous":false,"inputs":[{"indexed":true,"internalType":"uint256","name":"rentalId","type":"uint256"},{"indexed":true,"internalType":"address","name":"owner","type":"address"},{"indexed":false,"internalType":"address","name":"nftContract","type":"address"},{"indexed":false,"internalType":"uint256","name":"tokenId","type":"uint256"},{"indexed":false,"internalType":"uint256","name":"dailyPriceUsdCents","type":"uint256"},{"indexed":false,"internalType":"uint256","name":"maxDays","type":"uint256"}],"name":"RentalListed","type":"event"},{"anonymous":false,"inputs":[{"indexed":true,"internalType":"uint256","name":"listingId","type":"uint256"},{"indexed":true,"internalType":"address","name":"buyer","type":"address"},{"indexed":false,"internalType":"uint256","name":"paidWei","type":"uint256"}],"name":"Sold","type":"event"},{"anonymous":false,"inputs":[{"indexed":true,"internalType":"uint256","name":"swapId","type":"uint256"}],"name":"SwapCancelled","type":"event"},{"anonymous":false,"inputs":[{"indexed":true,"internalType":"uint256","name":"swapId","type":"uint256"}],"name":"SwapExecuted","type":"event"},{"anonymous":false,"inputs":[{"indexed":true,"internalType":"uint256","name":"swapId","type":"uint256"},{"indexed":true,"internalType":"address","name":"proposer","type":"address"},{"indexed":true,"internalType":"address","name":"counterparty","type":"address"}],"name":"SwapProposed","type":"event"},{"anonymous":false,"inputs":[{"indexed":true,"internalType":"uint256","name":"txId","type":"uint256"},{"indexed":false,"internalType":"address","name":"buyer","type":"address"},{"indexed":false,"internalType":"address","name":"seller","type":"address"},{"indexed":false,"internalType":"uint8","name":"txType","type":"uint8"}],"name":"TransactionCompleted","type":"event"},{"anonymous":false,"inputs":[{"indexed":true,"internalType":"uint256","name":"txId","type":"uint256"},{"indexed":true,"internalType":"address","name":"rater","type":"address"},{"indexed":false,"internalType":"uint8","name":"score","type":"uint8"}],"name":"TransactionRated","type":"event"},{"anonymous":false,"inputs":[{"indexed":false,"internalType":"address","name":"account","type":"address"}],"name":"Unpaused","type":"event"},{"anonymous":false,"inputs":[{"indexed":true,"internalType":"address","name":"payee","type":"address"},{"indexed":false,"internalType":"uint256","name":"amount","type":"uint256"}],"name":"Withdrawn","type":"event"},{"inputs":[],"name":"ANTI_SNIPE_DURATION","outputs":[{"internalType":"uint256","name":"","type":"uint256"}],"stateMutability":"view","type":"function"},{"inputs":[],"name":"BPS_DENOMINATOR","outputs":[{"internalType":"uint256","name":"","type":"uint256"}],"stateMutability":"view","type":"function"},{"inputs":[],"name":"MAX_AUCTION_DURATION","outputs":[{"internalType":"uint256","name":"","type":"uint256"}],"stateMutability":"view","type":"function"},{"inputs":[],"name":"MAX_BATCH_SIZE","outputs":[{"internalType":"uint256","name":"","type":"uint256"}],"stateMutability":"view","type":"function"},{"inputs":[],"name":"MAX_FEE","outputs":[{"internalType":"uint256","name":"","type":"uint256"}],"stateMutability":"view","type":"function"},{"inputs":[],"name":"MIN_AUCTION_DURATION","outputs":[{"internalType":"uint256","name":"","type":"uint256"}],"stateMutability":"view","type":"function"},{"inputs":[],"name":"MIN_BID_INCREMENT_BPS","outputs":[{"internalType":"uint256","name":"","type":"uint256"}],"stateMutability":"view","type":"function"},{"inputs":[],"name":"SLIPPAGE_BPS","outputs":[{"internalType":"uint256","name":"","type":"uint256"}],"stateMutability":"view","type":"function"},{"inputs":[],"name":"USD_WEI_FACTOR","outputs":[{"internalType":"uint256","name":"","type":"uint256"}],"stateMutability":"view","type":"function"},{"inputs":[{"internalType":"uint256","name":"offerId","type":"uint256"}],"name":"acceptOffer","outputs":[],"stateMutability":"nonpayable","type":"function"},{"inputs":[{"internalType":"uint256","name":"swapId","type":"uint256"}],"name":"acceptSwap","outputs":[],"stateMutability":"nonpayable","type":"function"},{"inputs":[{"internalType":"uint256","name":"","type":"uint256"}],"name":"auctions","outputs":[{"internalType":"address","name":"seller","type":"address"},{"internalType":"address","name":"nftContract","type":"address"},{"internalType":"uint256","name":"tokenId","type":"uint256"},{"internalType":"uint256","name":"startPrice","type":"uint256"},{"internalType":"uint256","name":"highestBid","type":"uint256"},{"internalType":"address","name":"highestBidder","type":"address"},{"internalType":"uint256","name":"endTime","type":"uint256"},{"internalType":"bool","name":"ended","type":"bool"}],"stateMutability":"view","type":"function"},{"inputs":[{"internalType":"address","name":"nftContract","type":"address"},{"internalType":"uint256[]","name":"tokenIds","type":"uint256[]"},{"internalType":"uint256[]","name":"pricesUsdCents","type":"uint256[]"},{"internalType":"uint256[]","name":"durations","type":"uint256[]"}],"name":"batchListNFT","outputs":[{"internalType":"uint256[]","name":"","type":"uint256[]"}],"stateMutability":"nonpayable","type":"function"},{"inputs":[{"internalType":"uint256","name":"auctionId","type":"uint256"}],"name":"buyDutchAuction","outputs":[],"stateMutability":"payable","type":"function"},{"inputs":[{"internalType":"uint256","name":"listingId","type":"uint256"}],"name":"buyNFT","outputs":[],"stateMutability":"payable","type":"function"},{"inputs":[{"internalType":"uint256","name":"auctionId","type":"uint256"}],"name":"cancelAuction","outputs":[],"stateMutability":"nonpayable","type":"function"},{"inputs":[{"internalType":"uint256","name":"auctionId","type":"uint256"}],"name":"cancelDutchAuction","outputs":[],"stateMutability":"nonpayable","type":"function"},{"inputs":[{"internalType":"uint256","name":"listingId","type":"uint256"}],"name":"cancelListing","outputs":[],"stateMutability":"nonpayable","type":"function"},{"inputs":[{"internalType":"uint256","name":"offerId","type":"uint256"}],"name":"cancelOffer","outputs":[],"stateMutability":"nonpayable","type":"function"},{"inputs":[{"internalType":"uint256","name":"rentalId","type":"uint256"}],"name":"cancelRentalListing","outputs":[],"stateMutability":"nonpayable","type":"function"},{"inputs":[{"internalType":"uint256","name":"swapId","type":"uint256"}],"name":"cancelSwap","outputs":[],"stateMutability":"nonpayable","type":"function"},{"inputs":[{"internalType":"uint256","name":"","type":"uint256"}],"name":"completedTxs","outputs":[{"internalType":"address","name":"buyer","type":"address"},{"internalType":"address","name":"seller","type":"address"},{"internalType":"address","name":"nftContract","type":"address"},{"internalType":"uint256","name":"tokenId","type":"uint256"},{"internalType":"uint8","name":"txType","type":"uint8"},{"internalType":"uint256","name":"timestamp","type":"uint256"}],"stateMutability":"view","type":"function"},{"inputs":[{"internalType":"address","name":"nftContract","type":"address"},{"internalType":"uint256","name":"tokenId","type":"uint256"},{"internalType":"uint256","name":"startPrice","type":"uint256"},{"internalType":"uint256","name":"duration","type":"uint256"}],"name":"createAuction","outputs":[{"internalType":"uint256","name":"","type":"uint256"}],"stateMutability":"nonpayable","type":"function"},{"inputs":[{"internalType":"address","name":"nftContract","type":"address"},{"internalType":"uint256","name":"tokenId","type":"uint256"},{"internalType":"uint256","name":"startPriceUsdCents","type":"uint256"},{"internalType":"uint256","name":"endPriceUsdCents","type":"uint256"},{"internalType":"uint256","name":"duration","type":"uint256"}],"name":"createDutchAuction","outputs":[{"internalType":"uint256","name":"","type":"uint256"}],"stateMutability":"nonpayable","type":"function"},{"inputs":[{"internalType":"uint256","name":"","type":"uint256"}],"name":"dutchAuctions","outputs":[{"internalType":"address","name":"seller","type":"address"},{"internalType":"address","name":"nftContract","type":"address"},{"internalType":"uint256","name":"tokenId","type":"uint256"},{"internalType":"uint256","name":"startPriceUsdCents","type":"uint256"},{"internalType":"uint256","name":"endPriceUsdCents","type":"uint256"},{"internalType":"uint256","name":"startTime","type":"uint256"},{"internalType":"uint256","name":"endTime","type":"uint256"},{"internalType":"bool","name":"sold","type":"bool"}],"stateMutability":"view","type":"function"},{"inputs":[{"internalType":"uint256","name":"auctionId","type":"uint256"}],"name":"endAuction","outputs":[],"stateMutability":"nonpayable","type":"function"},{"inputs":[],"name":"getAuctionCount","outputs":[{"internalType":"uint256","name":"","type":"uint256"}],"stateMutability":"view","type":"function"},{"inputs":[],"name":"getCompletedTxCount","outputs":[{"internalType":"uint256","name":"","type":"uint256"}],"stateMutability":"view","type":"function"},{"inputs":[],"name":"getDutchAuctionCount","outputs":[{"internalType":"uint256","name":"","type":"uint256"}],"stateMutability":"view","type":"function"},{"inputs":[{"internalType":"uint256","name":"auctionId","type":"uint256"}],"name":"getDutchAuctionCurrentPrice","outputs":[{"internalType":"uint256","name":"","type":"uint256"}],"stateMutability":"view","type":"function"},{"inputs":[{"internalType":"uint256","name":"auctionId","type":"uint256"}],"name":"getDutchAuctionPriceInWei","outputs":[{"internalType":"uint256","name":"requiredWei","type":"uint256"},{"internalType":"uint256","name":"maxWei","type":"uint256"}],"stateMutability":"view","type":"function"},{"inputs":[],"name":"getListingCount","outputs":[{"internalType":"uint256","name":"","type":"uint256"}],"stateMutability":"view","type":"function"},{"inputs":[{"internalType":"uint256","name":"listingId","type":"uint256"}],"name":"getListingPriceInWei","outputs":[{"internalType":"uint256","name":"requiredWei","type":"uint256"},{"internalType":"uint256","name":"maxWei","type":"uint256"}],"stateMutability":"view","type":"function"},{"inputs":[],"name":"getOfferCount","outputs":[{"internalType":"uint256","name":"","type":"uint256"}],"stateMutability":"view","type":"function"},{"inputs":[],"name":"getRentalListingCount","outputs":[{"internalType":"uint256","name":"","type":"uint256"}],"stateMutability":"view","type":"function"},{"inputs":[{"internalType":"address","name":"user","type":"address"}],"name":"getReputation","outputs":[{"internalType":"uint256","name":"avgScore100","type":"uint256"},{"internalType":"uint256","name":"totalRatings","type":"uint256"}],"stateMutability":"view","type":"function"},{"inputs":[],"name":"getSwapCount","outputs":[{"internalType":"uint256","name":"","type":"uint256"}],"stateMutability":"view","type":"function"},{"inputs":[{"internalType":"uint256","name":"listingId","type":"uint256"}],"name":"isListingExpired","outputs":[{"internalType":"bool","name":"","type":"bool"}],"stateMutability":"view","type":"function"},{"inputs":[{"internalType":"address","name":"nftContract","type":"address"},{"internalType":"uint256","name":"tokenId","type":"uint256"},{"internalType":"uint256","name":"dailyPriceUsdCents","type":"uint256"},{"internalType":"uint256","name":"maxDays","type":"uint256"}],"name":"listForRent","outputs":[{"internalType":"uint256","name":"","type":"uint256"}],"stateMutability":"nonpayable","type":"function"},{"inputs":[{"internalType":"address","name":"nftContract","type":"address"},{"internalType":"uint256","name":"tokenId","type":"uint256"},{"internalType":"uint256","name":"priceUsdCents","type":"uint256"},{"internalType":"uint256","name":"duration","type":"uint256"}],"name":"listNFT","outputs":[{"internalType":"uint256","name":"","type":"uint256"}],"stateMutability":"nonpayable","type":"function"},{"inputs":[{"internalType":"uint256","name":"","type":"uint256"}],"name":"listings","outputs":[{"internalType":"address","name":"seller","type":"address"},{"internalType":"address","name":"nftContract","type":"address"},{"internalType":"uint256","name":"tokenId","type":"uint256"},{"internalType":"uint256","name":"priceUsdCents","type":"uint256"},{"internalType":"bool","name":"active","type":"bool"},{"internalType":"uint256","name":"expiration","type":"uint256"}],"stateMutability":"view","type":"function"},{"inputs":[{"internalType":"address","name":"nftContract","type":"address"},{"internalType":"uint256","name":"tokenId","type":"uint256"},{"internalType":"uint256","name":"duration","type":"uint256"}],"name":"makeOffer","outputs":[{"internalType":"uint256","name":"","type":"uint256"}],"stateMutability":"payable","type":"function"},{"inputs":[{"internalType":"uint256","name":"","type":"uint256"}],"name":"offers","outputs":[{"internalType":"address","name":"buyer","type":"address"},{"internalType":"address","name":"nftContract","type":"address"},{"internalType":"uint256","name":"tokenId","type":"uint256"},{"internalType":"uint256","name":"amount","type":"uint256"},{"internalType":"uint256","name":"expiration","type":"uint256"},{"internalType":"bool","name":"active","type":"bool"}],"stateMutability":"view","type":"function"},{"inputs":[{"internalType":"address","name":"","type":"address"},{"internalType":"address","name":"","type":"address"},{"internalType":"uint256","name":"","type":"uint256"},{"internalType":"bytes","name":"","type":"bytes"}],"name":"onERC721Received","outputs":[{"internalType":"bytes4","name":"","type":"bytes4"}],"stateMutability":"pure","type":"function"},{"inputs":[],"name":"oracle","outputs":[{"internalType":"contract ISimpleOracle","name":"","type":"address"}],"stateMutability":"view","type":"function"},{"inputs":[],"name":"owner","outputs":[{"internalType":"address","name":"","type":"address"}],"stateMutability":"view","type":"function"},{"inputs":[],"name":"pause","outputs":[],"stateMutability":"nonpayable","type":"function"},{"inputs":[],"name":"paused","outputs":[{"internalType":"bool","name":"","type":"bool"}],"stateMutability":"view","type":"function"},{"inputs":[{"internalType":"address","name":"","type":"address"}],"name":"pendingWithdrawals","outputs":[{"internalType":"uint256","name":"","type":"uint256"}],"stateMutability":"view","type":"function"},{"inputs":[{"internalType":"uint256","name":"auctionId","type":"uint256"}],"name":"placeBid","outputs":[],"stateMutability":"payable","type":"function"},{"inputs":[],"name":"platformFeeBps","outputs":[{"internalType":"uint256","name":"","type":"uint256"}],"stateMutability":"view","type":"function"},{"inputs":[{"internalType":"address","name":"counterparty","type":"address"},{"internalType":"address","name":"proposerNftContract","type":"address"},{"internalType":"uint256","name":"proposerTokenId","type":"uint256"},{"internalType":"address","name":"counterpartyNftContract","type":"address"},{"internalType":"uint256","name":"counterpartyTokenId","type":"uint256"},{"internalType":"uint256","name":"duration","type":"uint256"}],"name":"proposeSwap","outputs":[{"internalType":"uint256","name":"","type":"uint256"}],"stateMutability":"payable","type":"function"},{"inputs":[{"internalType":"uint256","name":"txId","type":"uint256"},{"internalType":"uint8","name":"score","type":"uint8"}],"name":"rateTransaction","outputs":[],"stateMutability":"nonpayable","type":"function"},{"inputs":[{"internalType":"address","name":"","type":"address"}],"name":"ratingCount","outputs":[{"internalType":"uint256","name":"","type":"uint256"}],"stateMutability":"view","type":"function"},{"inputs":[],"name":"renounceOwnership","outputs":[],"stateMutability":"nonpayable","type":"function"},{"inputs":[{"internalType":"uint256","name":"rentalId","type":"uint256"},{"internalType":"uint256","name":"days_","type":"uint256"}],"name":"rentNFT","outputs":[],"stateMutability":"payable","type":"function"},{"inputs":[{"internalType":"uint256","name":"","type":"uint256"}],"name":"rentalListings","outputs":[{"internalType":"address","name":"owner","type":"address"},{"internalType":"address","name":"nftContract","type":"address"},{"internalType":"uint256","name":"tokenId","type":"uint256"},{"internalType":"uint256","name":"dailyPriceUsdCents","type":"uint256"},{"internalType":"uint256","name":"maxDays","type":"uint256"},{"internalType":"bool","name":"active","type":"bool"}],"stateMutability":"view","type":"function"},{"inputs":[{"internalType":"address","name":"","type":"address"}],"name":"reputationScore","outputs":[{"internalType":"uint256","name":"","type":"uint256"}],"stateMutability":"view","type":"function"},{"inputs":[{"internalType":"address","name":"_oracle","type":"address"}],"name":"setOracle","outputs":[],"stateMutability":"nonpayable","type":"function"},{"inputs":[{"internalType":"uint256","name":"feeBps","type":"uint256"}],"name":"setPlatformFee","outputs":[],"stateMutability":"nonpayable","type":"function"},{"inputs":[{"internalType":"uint256","name":"","type":"uint256"}],"name":"swaps","outputs":[{"internalType":"address","name":"proposer","type":"address"},{"internalType":"address","name":"counterparty","type":"address"},{"internalType":"address","name":"proposerNftContract","type":"address"},{"internalType":"uint256","name":"proposerTokenId","type":"uint256"},{"internalType":"address","name":"counterpartyNftContract","type":"address"},{"internalType":"uint256","name":"counterpartyTokenId","type":"uint256"},{"internalType":"uint256","name":"ethTopUp","type":"uint256"},{"internalType":"uint256","name":"expiration","type":"uint256"},{"internalType":"bool","name":"active","type":"bool"}],"stateMutability":"view","type":"function"},{"inputs":[{"internalType":"address","name":"newOwner","type":"address"}],"name":"transferOwnership","outputs":[],"stateMutability":"nonpayable","type":"function"},{"inputs":[{"internalType":"uint256","name":"","type":"uint256"},{"internalType":"address","name":"","type":"address"}],"name":"txRatings","outputs":[{"internalType":"uint8","name":"","type":"uint8"}],"stateMutability":"view","type":"function"},{"inputs":[],"name":"unpause","outputs":[],"stateMutability":"nonpayable","type":"function"},{"inputs":[{"internalType":"uint256","name":"listingId","type":"uint256"},{"internalType":"uint256","name":"newPriceUsdCents","type":"uint256"}],"name":"updateListingPrice","outputs":[],"stateMutability":"nonpayable","type":"function"},{"inputs":[],"name":"withdraw","outputs":[],"stateMutability":"nonpayable","type":"function"}],"evm":{"bytecode":{"linkReferences":{},"object":"608060405260fa6002553480156013575f5ffd5b503380603857604051631e4fbdf760e01b81525f600482015260240160405180910390fd5b603f816068565b5060017f9b779b17422d0df92223018b32b4d1fa46e071723d6817e2486d003becc55f005560b7565b5f80546001600160a01b038381166001600160a01b0319831681178455604051919092169283917f8be0079c531659141344cd1fd0a4f28419497f9722a3daafe3b4186f6b6457e09190a35050565b614ccc806100c45f395ff3fe6080604052600436106103c9575f3560e01c80638da5cb5b116101f4578063c460494311610113578063de74e57b116100a8578063f09c582911610078578063f09c582914610d26578063f2ab2fc014610df8578063f2fde38b14610eac578063f3f4370314610ecb578063f65a56da14610ef6575f5ffd5b8063de74e57b14610c0e578063e1a4521814610ca7578063eb1b0c9714610cbc578063ef706adf14610d07575f5ffd5b8063d048db37116100e3578063d048db3714610bb3578063d12314ae14610bc7578063d81671bc14610bdb578063ddee843314610bef575f5ffd5b8063c460494314610b42578063c815729d14610b61578063cb91ec4f14610b80578063cfdbf25414610b9f575f5ffd5b8063a7cd11f011610189578063bc063e1a11610159578063bc063e1a14610af0578063bcc872aa14610b05578063c2f50a7a14610b19578063c44e664014610b2e575f5ffd5b8063a7cd11f014610a73578063adb1fd0614610a86578063b50250a314610ab2578063b9a2de3a14610ad1575f5ffd5b80639979ef45116101c45780639979ef45146109f05780639c89a0e214610a035780639f720c6214610a37578063a1f0f43814610a54575f5ffd5b80638da5cb5b1461098d57806393b2d6a0146109a957806395eae396146109bc57806396b5a755146109d1575f5ffd5b806351ed8288116102eb57806377f8bb6d116102805780637de3bd07116102505780637de3bd07146108d55780638456cb59146108e857806385ad53cd146108fc57806387ed92d71461091b5780638a72ea6a1461092f575f5ffd5b806377f8bb6d146107c85780637adbf973146107dc5780637c6e5fba146107fb5780637dc0d1d01461089e575f5ffd5b806361beb1d7116102bb57806361beb1d7146107625780636941c81014610781578063715018a6146107a0578063722d7154146107b4575f5ffd5b806351ed82881461064957806354d6a2b71461065c578063571a26a01461067b5780635c975abb14610739575f5ffd5b806325481f5f116103615780633f4ba83a116103315780633f4ba83a1461055c5780633fb35178146105705780634934f4a11461058657806350d061cb1461061e575f5ffd5b806325481f5f146104f7578063305a67a81461050a5780633c44a5f0146105295780633ccfd60b14610548575f5ffd5b80631be662841161039c5780631be66284146104795780631bf330041461049857806322dcd13e146104b75780632404165e146104cc575f5ffd5b8063065da698146103cd57806312e8e2c3146103ff57806314414cc014610420578063150b7a0214610435575b5f5ffd5b3480156103d8575f5ffd5b506103ec6103e73660046147ad565b610f15565b6040519081526020015b60405180910390f35b34801561040a575f5ffd5b5061041e6104193660046147ed565b6112e5565b005b34801561042b575f5ffd5b506103ec6101f481565b348015610440575f5ffd5b5061046061044f366004614804565b630a85bd0160e11b95945050505050565b6040516001600160e01b031990911681526020016103f6565b348015610484575f5ffd5b506103ec6104933660046147ed565b61134b565b3480156104a3575f5ffd5b5061041e6104b23660046147ed565b6113de565b3480156104c2575f5ffd5b506103ec60025481565b3480156104d7575f5ffd5b506103ec6104e636600461489d565b60136020525f908152604090205481565b61041e6105053660046147ed565b61179c565b348015610515575f5ffd5b5061041e6105243660046147ed565b611986565b348015610534575f5ffd5b506103ec6105433660046148b8565b611a24565b348015610553575f5ffd5b5061041e611a44565b348015610567575f5ffd5b5061041e611b32565b34801561057b575f5ffd5b506103ec62093a8081565b348015610591575f5ffd5b506105e46105a03660046147ed565b600f6020525f90815260409020805460018201546002830154600384015460048501546005909501546001600160a01b039485169593909416939192909160ff1686565b604080516001600160a01b0397881681529690951660208701529385019290925260608401526080830152151560a082015260c0016103f6565b348015610629575f5ffd5b506103ec61063836600461489d565b60126020525f908152604090205481565b61041e6106573660046147ed565b611b42565b348015610667575f5ffd5b5061041e6106763660046147ed565b611d86565b348015610686575f5ffd5b506106e96106953660046147ed565b600b6020525f9081526040902080546001820154600283015460038401546004850154600586015460068701546007909701546001600160a01b039687169795871696949593949293919092169160ff1688565b604080516001600160a01b03998a16815297891660208901528701959095526060860193909352608085019190915290931660a083015260c082019290925290151560e0820152610100016103f6565b348015610744575f5ffd5b505f54600160a01b900460ff165b60405190151581526020016103f6565b34801561076d575f5ffd5b506103ec61077c3660046148b8565b611ed1565b34801561078c575f5ffd5b5061041e61079b3660046148f0565b612280565b3480156107ab575f5ffd5b5061041e612451565b3480156107bf575f5ffd5b506008546103ec565b3480156107d3575f5ffd5b506103ec60c881565b3480156107e7575f5ffd5b5061041e6107f636600461489d565b612462565b348015610806575f5ffd5b5061085d6108153660046147ed565b60106020525f90815260409020805460018201546002830154600384015460048501546005909501546001600160a01b03948516959385169490921692909160ff9091169086565b604080516001600160a01b03978816815295871660208701529390951692840192909252606083015260ff16608082015260a081019190915260c0016103f6565b3480156108a9575f5ffd5b506001546108bd906001600160a01b031681565b6040516001600160a01b0390911681526020016103f6565b6103ec6108e3366004614923565b6124da565b3480156108f3575f5ffd5b5061041e612669565b348015610907575f5ffd5b506103ec6109163660046148b8565b612679565b348015610926575f5ffd5b506003546103ec565b34801561093a575f5ffd5b506105e46109493660046147ed565b600d6020525f90815260409020805460018201546002830154600384015460048501546005909501546001600160a01b039485169593909416939192909160ff1686565b348015610998575f5ffd5b505f546001600160a01b03166108bd565b61041e6109b7366004614955565b61297d565b3480156109c7575f5ffd5b506103ec61012c81565b3480156109dc575f5ffd5b5061041e6109eb3660046147ed565b612bfe565b61041e6109fe3660046147ed565b612d31565b348015610a0e575f5ffd5b50610a22610a1d36600461489d565b612f4c565b604080519283526020830191909152016103f6565b348015610a42575f5ffd5b506103ec69d3c21bcecceda100000081565b348015610a5f575f5ffd5b50610a22610a6e3660046147ed565b612fab565b6103ec610a81366004614975565b612fee565b348015610a91575f5ffd5b50610aa5610aa0366004614a1e565b613395565b6040516103f69190614acf565b348015610abd575f5ffd5b50610752610acc3660046147ed565b613507565b348015610adc575f5ffd5b5061041e610aeb3660046147ed565b613531565b348015610afb575f5ffd5b506103ec6103e881565b348015610b10575f5ffd5b506005546103ec565b348015610b24575f5ffd5b506103ec610e1081565b348015610b39575f5ffd5b506004546103ec565b348015610b4d575f5ffd5b5061041e610b5c366004614955565b61376f565b348015610b6c575f5ffd5b5061041e610b7b3660046147ed565b61383e565b348015610b8b575f5ffd5b50610a22610b9a3660046147ed565b613b4f565b348015610baa575f5ffd5b506103ec601481565b348015610bbe575f5ffd5b506006546103ec565b348015610bd2575f5ffd5b506009546103ec565b348015610be6575f5ffd5b506007546103ec565b348015610bfa575f5ffd5b5061041e610c093660046147ed565b613b6d565b348015610c19575f5ffd5b50610c6d610c283660046147ed565b600a6020525f90815260409020805460018201546002830154600384015460048501546005909501546001600160a01b039485169594909316939192909160ff169086565b604080516001600160a01b0397881681529690951660208701529385019290925260608401521515608083015260a082015260c0016103f6565b348015610cb2575f5ffd5b506103ec61271081565b348015610cc7575f5ffd5b50610cf5610cd6366004614b11565b601160209081525f928352604080842090915290825290205460ff1681565b60405160ff90911681526020016103f6565b348015610d12575f5ffd5b5061041e610d213660046147ed565b613c81565b348015610d31575f5ffd5b50610d9d610d403660046147ed565b600e6020525f90815260409020805460018201546002830154600384015460048501546005860154600687015460078801546008909801546001600160a01b03978816989688169795861696949590931693919290919060ff1689565b604080516001600160a01b039a8b168152988a1660208a015296891696880196909652606087019490945295909116608085015260a084015260c083019390935260e0820192909252901515610100820152610120016103f6565b348015610e03575f5ffd5b50610e64610e123660046147ed565b600c6020525f9081526040902080546001820154600283015460038401546004850154600586015460068701546007909701546001600160a01b03968716979590961695939492939192909160ff1688565b604080516001600160a01b03998a168152989097166020890152958701949094526060860192909252608085015260a084015260c0830152151560e0820152610100016103f6565b348015610eb7575f5ffd5b5061041e610ec636600461489d565b613d3f565b348015610ed6575f5ffd5b506103ec610ee536600461489d565b60146020525f908152604090205481565b348015610f01575f5ffd5b5061041e610f103660046147ed565b613d7e565b5f610f1e613e14565b610f26613e42565b835f03610f4657604051637294708f60e11b815260040160405180910390fd5b838310610f6657604051635e9e0dfd60e01b815260040160405180910390fd5b610e10821080610f78575062093a8082115b15610f9657604051637616640160e01b815260040160405180910390fd5b6040516331a9108f60e11b815260048101869052869033906001600160a01b03831690636352211e90602401602060405180830381865afa158015610fdd573d5f5f3e3d5ffd5b505050506040513d601f19601f820116820180604052508101906110019190614b34565b6001600160a01b031614611028576040516359dc379f60e01b815260040160405180910390fd5b60405163020604bf60e21b81526004810187905230906001600160a01b0383169063081812fc90602401602060405180830381865afa15801561106d573d5f5f3e3d5ffd5b505050506040513d601f19601f820116820180604052508101906110919190614b34565b6001600160a01b031614158015611111575060405163e985e9c560e01b81523360048201523060248201526001600160a01b0382169063e985e9c590604401602060405180830381865afa1580156110eb573d5f5f3e3d5ffd5b505050506040513d601f19601f8201168201806040525081019061110f9190614b4f565b155b1561112f5760405163a9248d2560e01b815260040160405180910390fd5b6040516323b872dd60e01b81526001600160a01b038216906323b872dd9061115f90339030908b90600401614b6e565b5f604051808303815f87803b158015611176575f5ffd5b505af1158015611188573d5f5f3e3d5ffd5b5050600580545f935091508261119d83614ba6565b919050559050604051806101000160405280336001600160a01b03168152602001896001600160a01b0316815260200188815260200187815260200186815260200142815260200185426111f19190614bbe565b81525f6020918201819052838152600c8252604090819020835181546001600160a01b03199081166001600160a01b03928316178355938501516001830180549095169116179092558201516002820155606082015160038201556080820151600482015560a0820151600582015560c0820151600682015560e0909101516007909101805460ff191691151591909117905533817f35fcdd210845c48febf8dc54033b59cadf5f93c028fb1230842033e4ea68979988886112b38942614bbe565b6040805193845260208401929092529082015260600160405180910390a39150506112dc613e6c565b95945050505050565b6112ed613e92565b6103e88111156113105760405163cd4e616760e01b815260040160405180910390fd5b60028190556040518181527f45610d581145924dd7090a5017e5f2b1d6f42213bb2e95707ff86846bbfcb1ca9060200160405180910390a150565b5f818152600c602052604081206006810154421061136d576004015492915050565b5f81600501544261137e9190614bd7565b90505f826005015483600601546113959190614bd7565b90505f8183856004015486600301546113ae9190614bd7565b6113b89190614bea565b6113c29190614c01565b90508084600301546113d49190614bd7565b9695505050505050565b6113e6613e14565b6113ee613e42565b5f818152600e60205260409020600881015460ff166114205760405163cac0f49d60e01b815260040160405180910390fd5b60018101546001600160a01b0316331461144d576040516389f5ad6160e01b815260040160405180910390fd5b806007015442111561147257604051632b32713d60e01b815260040160405180910390fd5b60048181015460058301546040516331a9108f60e11b8152928301526001600160a01b03169033908290636352211e90602401602060405180830381865afa1580156114c0573d5f5f3e3d5ffd5b505050506040513d601f19601f820116820180604052508101906114e49190614b34565b6001600160a01b03161461150b576040516359dc379f60e01b815260040160405180910390fd5b600582015460405163020604bf60e21b815230916001600160a01b0384169163081812fc916115409160040190815260200190565b602060405180830381865afa15801561155b573d5f5f3e3d5ffd5b505050506040513d601f19601f8201168201806040525081019061157f9190614b34565b6001600160a01b0316141580156115ff575060405163e985e9c560e01b81523360048201523060248201526001600160a01b0382169063e985e9c590604401602060405180830381865afa1580156115d9573d5f5f3e3d5ffd5b505050506040513d601f19601f820116820180604052508101906115fd9190614b4f565b155b1561161d5760405163a9248d2560e01b815260040160405180910390fd5b60088201805460ff1916905560068201541561165f57600482015460058301546001840154600685015461165f936001600160a01b0390811693921690613ebe565b600282015460018301546003840154604051632142170760e11b81526001600160a01b03938416936342842e0e936116a09330939290911691600401614b6e565b5f604051808303815f87803b1580156116b7575f5ffd5b505af11580156116c9573d5f5f3e3d5ffd5b505050600183015483546005850154604051632142170760e11b81526001600160a01b0380871695506342842e0e9461170b9490821693911691600401614b6e565b5f604051808303815f87803b158015611722575f5ffd5b505af1158015611734573d5f5f3e3d5ffd5b505050506001820154825460028401546003850154611765936001600160a01b039081169381169216906004614163565b60405183907f8d92c805c252261fcfff21ee60740eb8a38922469a7e6ee396976d57c22fc1c9905f90a25050611799613e6c565b50565b6117a4613e14565b6117ac613e42565b5f818152600c60205260409020600781015460ff16156117df57604051634b74dc9760e11b815260040160405180910390fd5b80546001600160a01b0316330361180957604051632aa3c9e960e01b815260040160405180910390fd5b5f6118138361134b565b90505f61181f82614274565b9050803410156118425760405163cd1c886760e01b815260040160405180910390fd5b60078301805460ff1916600190811790915583015460028401548454611876926001600160a01b0390811692911684613ebe565b5f6118818234614bd7565b905080156118ad57335f90815260146020526040812080548392906118a7908490614bbe565b90915550505b60018401546002850154604051632142170760e11b81526001600160a01b03909216916342842e0e916118e69130913391600401614b6e565b5f604051808303815f87803b1580156118fd575f5ffd5b505af115801561190f573d5f5f3e3d5ffd5b50508554600187015460028089015461193c95503394506001600160a01b03938416939092169190614163565b6040805184815260208101849052339187917f08af6336c121868adf8c691a0ff68a8d1f4a926efdeca3b662fbc6c7931b370a91015b60405180910390a350505050611799613e6c565b61198e613e42565b5f818152600a60205260409020600481015460ff166119c0576040516366cb03e960e01b815260040160405180910390fd5b80546001600160a01b031633146119ea576040516322087f4960e11b815260040160405180910390fd5b60048101805460ff1916905560405182907f411aee90354c51b1b04cd563fcab2617142a9d50da19232d888547c8a1b7fd8a905f90a25050565b5f611a2d613e42565b611a398585858561435f565b90505b949350505050565b611a4c613e14565b335f9081526014602052604081205490819003611a7c57604051630686827b60e51b815260040160405180910390fd5b335f818152601460205260408082208290555190919083908381818185875af1925050503d805f8114611aca576040519150601f19603f3d011682016040523d82523d5f602084013e611acf565b606091505b5050905080611af1576040516312171d8360e31b815260040160405180910390fd5b60405182815233907f7084f5476618d8e60b11ef0d7d3f06914655adb8793e28ff7f018d4c76d505d59060200160405180910390a25050611b30613e6c565b565b611b3a613e92565b611b30614649565b611b4a613e14565b611b52613e42565b5f818152600a60205260409020600481015460ff16611b84576040516366cb03e960e01b815260040160405180910390fd5b600581015415801590611b9a5750806005015442115b15611bb857604051632eb19f9d60e01b815260040160405180910390fd5b80546001600160a01b03163303611be257604051632aa3c9e960e01b815260040160405180910390fd5b5f611bf08260030154614274565b905080341015611c135760405163cd1c886760e01b815260040160405180910390fd5b5f612710611c2260c884614bea565b611c2c9190614c01565b611c369083614bbe565b905080341115611c5957604051631e33487360e11b815260040160405180910390fd5b60048301805460ff19169055600183015460028401548454611c89926001600160a01b0390811692911685613ebe565b5f611c948334614bd7565b90508015611cc057335f9081526014602052604081208054839290611cba908490614bbe565b90915550505b600184015484546002860154604051632142170760e11b81526001600160a01b03938416936342842e0e93611cfd93911691339190600401614b6e565b5f604051808303815f87803b158015611d14575f5ffd5b505af1158015611d26573d5f5f3e3d5ffd5b5050855460018701546002880154611d5294503393506001600160a01b0392831692909116905f614163565b604051838152339086907f66f5cd880edf48cdde6c966e5da0784fcc4c5e85572b8b3b62c4357798d447d790602001611972565b611d8e613e14565b5f818152600e60205260409020600881015460ff16611dc05760405163cac0f49d60e01b815260040160405180910390fd5b80546001600160a01b03163314611dea576040516322087f4960e11b815260040160405180910390fd5b60088101805460ff19169055600281015481546003830154604051632142170760e11b81526001600160a01b03938416936342842e0e93611e349330939290911691600401614b6e565b5f604051808303815f87803b158015611e4b575f5ffd5b505af1158015611e5d573d5f5f3e3d5ffd5b50505050600681015415611e9e57600681015481546001600160a01b03165f9081526014602052604081208054909190611e98908490614bbe565b90915550505b60405182907ff6b6b4f7a13f02512c1b3aa8dcc4a07d7775a6a4becbd439efcbd37c5408e67f905f90a250611799613e6c565b5f611eda613e14565b611ee2613e42565b825f03611f0257604051637294708f60e11b815260040160405180910390fd5b610e10821080611f14575062093a8082115b15611f3257604051637616640160e01b815260040160405180910390fd5b6040516331a9108f60e11b815260048101859052859033906001600160a01b03831690636352211e90602401602060405180830381865afa158015611f79573d5f5f3e3d5ffd5b505050506040513d601f19601f82011682018060405250810190611f9d9190614b34565b6001600160a01b031614611fc4576040516359dc379f60e01b815260040160405180910390fd5b60405163020604bf60e21b81526004810186905230906001600160a01b0383169063081812fc90602401602060405180830381865afa158015612009573d5f5f3e3d5ffd5b505050506040513d601f19601f8201168201806040525081019061202d9190614b34565b6001600160a01b0316141580156120ad575060405163e985e9c560e01b81523360048201523060248201526001600160a01b0382169063e985e9c590604401602060405180830381865afa158015612087573d5f5f3e3d5ffd5b505050506040513d601f19601f820116820180604052508101906120ab9190614b4f565b155b156120cb5760405163a9248d2560e01b815260040160405180910390fd5b6040516323b872dd60e01b81526001600160a01b038216906323b872dd906120fb90339030908a90600401614b6e565b5f604051808303815f87803b158015612112575f5ffd5b505af1158015612124573d5f5f3e3d5ffd5b5050600480545f935091508261213983614ba6565b9091555060408051610100810182523381526001600160a01b038a166020820152908101889052606081018790525f6080820181905260a082015290915060c081016121858642614bbe565b81525f6020918201819052838152600b8252604090819020835181546001600160a01b03199081166001600160a01b03928316178355938501516001830180548616918316919091179055918401516002820155606084015160038201556080840151600482015560a08401516005820180549094169083161790925560c0830151600683015560e0909201516007909101805460ff1916911515919091179055871633827f06b9e486c68303eb64052e0493f906f3d93a1b7149b6b8dcff221aebd16c351389896122578a42614bbe565b6040805193845260208401929092529082015260600160405180910390a4915050611a3c613e6c565b60095482106122a2576040516371a2de7360e11b815260040160405180910390fd5b60018160ff1610806122b7575060058160ff16115b156122d55760405163d29df2dd60e01b815260040160405180910390fd5b5f82815260106020526040902080546001600160a01b03163314801590612309575060018101546001600160a01b03163314155b1561232757604051633a77c79560e01b815260040160405180910390fd5b5f83815260116020908152604080832033845290915290205460ff161561236157604051630894b2e960e31b815260040160405180910390fd5b5f8381526011602090815260408083203380855292528220805460ff191660ff861617905582546001600160a01b0316146123a65781546001600160a01b03166123b5565b60018201546001600160a01b03165b6001600160a01b0381165f908152601260205260408120805492935060ff8616929091906123e4908490614bbe565b90915550506001600160a01b0381165f90815260136020526040812080549161240c83614ba6565b909155505060405160ff84168152339085907f083b6602b03e2f268ed881c9e0005168ddaf87439d1c711f59c4b50aaf799dba9060200160405180910390a350505050565b612459613e92565b611b305f61469d565b61246a613e92565b6001600160a01b03811661249157604051633e1e538160e21b815260040160405180910390fd5b600180546001600160a01b0319166001600160a01b0383169081179091556040517f3df77beb5db05fcdd70a30fc8adf3f83f9501b68579455adbd100b8180940394905f90a250565b5f6124e3613e42565b345f0361250357604051637294708f60e11b815260040160405180910390fd5b610e10821080612515575062093a8082115b1561253357604051637616640160e01b815260040160405180910390fd5b600680545f918261254383614ba6565b909155506040805160c0810182523381526001600160a01b0388166020820152908101869052346060820152909150608081016125808542614bbe565b8152600160209182018190525f848152600d8352604090819020845181546001600160a01b03199081166001600160a01b03928316178355948601519382018054909516931692909217909255908201516002820155606082015160038201556080820151600482015560a0909101516005909101805460ff191691151591909117905533817f1a8e4806e9c3198b224bf5fd328ba7488ee72334ba823076cf52dbfce562ffae8787346126348942614bbe565b604080516001600160a01b039095168552602085019390935291830152606082015260800160405180910390a3949350505050565b612671613e92565b611b306146ec565b5f612682613e42565b825f036126a257604051637294708f60e11b815260040160405180910390fd5b815f036126c257604051631ee1890760e11b815260040160405180910390fd5b6040516331a9108f60e11b815260048101859052859033906001600160a01b03831690636352211e90602401602060405180830381865afa158015612709573d5f5f3e3d5ffd5b505050506040513d601f19601f8201168201806040525081019061272d9190614b34565b6001600160a01b031614612754576040516359dc379f60e01b815260040160405180910390fd5b60405163020604bf60e21b81526004810186905230906001600160a01b0383169063081812fc90602401602060405180830381865afa158015612799573d5f5f3e3d5ffd5b505050506040513d601f19601f820116820180604052508101906127bd9190614b34565b6001600160a01b03161415801561283d575060405163e985e9c560e01b81523360048201523060248201526001600160a01b0382169063e985e9c590604401602060405180830381865afa158015612817573d5f5f3e3d5ffd5b505050506040513d601f19601f8201168201806040525081019061283b9190614b4f565b155b1561285b5760405163a9248d2560e01b815260040160405180910390fd5b600880545f918261286b83614ba6565b909155506040805160c081018252338082526001600160a01b038b811660208085019182528486018d8152606086018d8152608087018d8152600160a089018181525f8c8152600f909652948a9020985189549088166001600160a01b0319918216178a55955190890180549190971695169490941790945551600286015591516003850155516004840155516005909201805492151560ff199093169290921790915590519192509082907ff151287b445d27402a6fedc75b6fda02b446255392606788f176a0abc6e801849061296b908b908b908b908b906001600160a01b0394909416845260208401929092526040830152606082015260800190565b60405180910390a39695505050505050565b612985613e14565b61298d613e42565b5f828152600f60205260409020600581015460ff166129bf57604051632486874760e01b815260040160405180910390fd5b8115806129cf5750806004015482115b156129ed57604051631ee1890760e11b815260040160405180910390fd5b80546001600160a01b03163303612a1757604051632aa3c9e960e01b815260040160405180910390fd5b5f828260030154612a289190614bea565b90505f612a3482614274565b905080341015612a575760405163cd1c886760e01b815260040160405180910390fd5b5f612710612a6660c884614bea565b612a709190614c01565b612a7a9083614bbe565b905080341115612a9d57604051631e33487360e11b815260040160405180910390fd5b5f612aab8662015180614bea565b612ab59042614bbe565b600186015460028701546040516370182b2f60e11b8152600481019190915233602482015267ffffffffffffffff831660448201529192506001600160a01b03169063e030565e906064015f604051808303815f87803b158015612b17575f5ffd5b505af1158015612b29573d5f5f3e3d5ffd5b505050600186015460028701548754612b5093506001600160a01b03928316921686613ebe565b5f612b5b8434614bd7565b90508015612b8757335f9081526014602052604081208054839290612b81908490614bbe565b90915550505b855460018701546002880154612baf9233926001600160a01b03918216929116906005614163565b604080518881526020810186905233918a917f540e39b4120dc879102357b1015e8bd642c62615c854e26df377834ebcd23657910160405180910390a3505050505050612bfa613e6c565b5050565b5f818152600b60205260409020600781015460ff1615612c315760405163d02e774d60e01b815260040160405180910390fd5b80546001600160a01b03163314612c5b576040516322087f4960e11b815260040160405180910390fd5b60058101546001600160a01b031615612c87576040516335473acb60e01b815260040160405180910390fd5b60078101805460ff1916600190811790915581015481546002830154604051632142170760e11b81526001600160a01b03938416936342842e0e93612cd6933093919092169190600401614b6e565b5f604051808303815f87803b158015612ced575f5ffd5b505af1158015612cff573d5f5f3e3d5ffd5b50506040518492507f2809c7e17bf978fbc7194c0a694b638c4215e9140cacc6c38ca36010b45697df91505f90a25050565b612d39613e14565b612d41613e42565b5f818152600b60205260409020600781015460ff1615612d745760405163d02e774d60e01b815260040160405180910390fd5b80600601544210612d9857604051630129799f60e21b815260040160405180910390fd5b80546001600160a01b03163303612dc25760405163ef02588960e01b815260040160405180910390fd5b8060030154341015612de757604051636cdfbd7360e01b815260040160405180910390fd5b600481015415612e45575f6127106101f48360040154612e079190614bea565b612e119190614c01565b8260040154612e209190614bbe565b905080341015612e4357604051630ec4b5eb60e31b815260040160405180910390fd5b505b60058101546001600160a01b031615612e8e57600481015460058201546001600160a01b03165f9081526014602052604081208054909190612e88908490614bbe565b90915550505b3460048201556005810180546001600160a01b03191633179055600681015461012c90612ebc904290614bd7565b1015612f0b57612ece61012c42614bbe565b6006820181905560405190815282907f6e912a3a9105bdd2af817ba5adc14e6c127c1035b5b648faa29ca0d58ab8ff4e9060200160405180910390a25b604051348152339083907f0e54eff26401bf69b81b26f60bd85ef47f5d85275c1d268d84f68d6897431c47906020015b60405180910390a350611799613e6c565b6001600160a01b0381165f90815260136020526040812054808203612f7557505f928392509050565b6001600160a01b0383165f908152601260205260409020548190612f9a906064614bea565b612fa49190614c01565b9150915091565b5f5f5f612fb78461134b565b9050612fc281614274565b9250612710612fd260c885614bea565b612fdc9190614c01565b612fe69084614bbe565b915050915091565b5f612ff7613e14565b612fff613e42565b610e10821080613011575062093a8082115b1561302f57604051637616640160e01b815260040160405180910390fd5b6040516331a9108f60e11b815260048101869052869033906001600160a01b03831690636352211e90602401602060405180830381865afa158015613076573d5f5f3e3d5ffd5b505050506040513d601f19601f8201168201806040525081019061309a9190614b34565b6001600160a01b0316146130c1576040516359dc379f60e01b815260040160405180910390fd5b60405163020604bf60e21b81526004810187905230906001600160a01b0383169063081812fc90602401602060405180830381865afa158015613106573d5f5f3e3d5ffd5b505050506040513d601f19601f8201168201806040525081019061312a9190614b34565b6001600160a01b0316141580156131aa575060405163e985e9c560e01b81523360048201523060248201526001600160a01b0382169063e985e9c590604401602060405180830381865afa158015613184573d5f5f3e3d5ffd5b505050506040513d601f19601f820116820180604052508101906131a89190614b4f565b155b156131c85760405163a9248d2560e01b815260040160405180910390fd5b6040516323b872dd60e01b81526001600160a01b038216906323b872dd906131f890339030908b90600401614b6e565b5f604051808303815f87803b15801561320f575f5ffd5b505af1158015613221573d5f5f3e3d5ffd5b5050600780545f935091508261323683614ba6565b919050559050604051806101200160405280336001600160a01b031681526020018a6001600160a01b03168152602001896001600160a01b03168152602001888152602001876001600160a01b0316815260200186815260200134815260200185426132a29190614bbe565b8152600160209182018190525f848152600e83526040808220855181546001600160a01b03199081166001600160a01b039283161783559587015194820180548716958216959095179094558582015160028201805487169186169190911790556060860151600382015560808601516004820180549096169085161790945560a0850151600585015560c0850151600685015560e08501516007850155610100909401516008909301805460ff1916931515939093179092559151918b1691339184917f39d8683e02d07786a66eb86f938b372fd826475e504c6ce2819a6316fda997899190a49150506113d4613e6c565b606061339f613e42565b8584811415806133af5750808314155b156133cd5760405163512509d360e11b815260040160405180910390fd5b60148111156133ef576040516305beb17160e11b815260040160405180910390fd5b5f8167ffffffffffffffff81111561340957613409614c20565b604051908082528060200260200182016040528015613432578160200160208202803683370190505b5090505f5b828110156134b8576134938b8b8b8481811061345557613455614c34565b905060200201358a8a8581811061346e5761346e614c34565b9050602002013589898681811061348757613487614c34565b9050602002013561435f565b8282815181106134a5576134a5614c34565b6020908102919091010152600101613437565b50336001600160a01b03167f20bab890e3c2b44bebb771f1dfd0de19c2b0e5635e15c42d1c08e7ab45795cc3826040516134f29190614acf565b60405180910390a29998505050505050505050565b5f818152600a6020526040812060058101541580159061352a5750806005015442115b9392505050565b613539613e14565b5f818152600b60205260409020600781015460ff161561356c5760405163d02e774d60e01b815260040160405180910390fd5b806006015442101561359157604051639eafe1b760e01b815260040160405180910390fd5b60078101805460ff1916600117905560058101546001600160a01b0316156136c75760018101546002820154825460048401546135dc936001600160a01b0390811693921690613ebe565b600181015460058201546002830154604051632142170760e11b81526001600160a01b03938416936342842e0e9361361d9330939290911691600401614b6e565b5f604051808303815f87803b158015613634575f5ffd5b505af1158015613646573d5f5f3e3d5ffd5b50505050600581015481546001808401546002850154613677946001600160a01b0390811694811693921691614163565b600581015460048201546040519081526001600160a01b039091169083907fd2aa34a4fdbbc6dff6a3e56f46e0f3ae2a31d7785ff3487aa5c95c642acea5019060200160405180910390a3613766565b600181015481546002830154604051632142170760e11b81526001600160a01b03938416936342842e0e936137059330939290911691600401614b6e565b5f604051808303815f87803b15801561371c575f5ffd5b505af115801561372e573d5f5f3e3d5ffd5b50506040515f80825292508491507fd2aa34a4fdbbc6dff6a3e56f46e0f3ae2a31d7785ff3487aa5c95c642acea50190602001612f3b565b50611799613e6c565b613777613e42565b5f828152600a60205260409020600481015460ff166137a9576040516366cb03e960e01b815260040160405180910390fd5b80546001600160a01b031633146137d3576040516322087f4960e11b815260040160405180910390fd5b815f036137f357604051637294708f60e11b815260040160405180910390fd5b60038101805490839055604080518281526020810185905285917f36cfe22dfcf2d3781d9de6b307d67a5431b45492dad5e70e53dd4af34c25b849910160405180910390a250505050565b613846613e14565b61384e613e42565b5f818152600d60205260409020600581015460ff1661388057604051634d80826b60e11b815260040160405180910390fd5b80600401544211156138a557604051639cb1308760e01b815260040160405180910390fd5b600181015460028201546040516331a9108f60e11b81526001600160a01b039092169133918391636352211e916138e29160040190815260200190565b602060405180830381865afa1580156138fd573d5f5f3e3d5ffd5b505050506040513d601f19601f820116820180604052508101906139219190614b34565b6001600160a01b031614613948576040516359dc379f60e01b815260040160405180910390fd5b600282015460405163020604bf60e21b815230916001600160a01b0384169163081812fc9161397d9160040190815260200190565b602060405180830381865afa158015613998573d5f5f3e3d5ffd5b505050506040513d601f19601f820116820180604052508101906139bc9190614b34565b6001600160a01b031614158015613a3c575060405163e985e9c560e01b81523360048201523060248201526001600160a01b0382169063e985e9c590604401602060405180830381865afa158015613a16573d5f5f3e3d5ffd5b505050506040513d601f19601f82011682018060405250810190613a3a9190614b4f565b155b15613a5a5760405163a9248d2560e01b815260040160405180910390fd5b60058201805460ff19169055600182015460028301546003840154613a8b926001600160a01b031691903390613ebe565b81546002830154604051632142170760e11b81526001600160a01b03848116936342842e0e93613ac393339390921691600401614b6e565b5f604051808303815f87803b158015613ada575f5ffd5b505af1158015613aec573d5f5f3e3d5ffd5b5050835460018501546002860154613b1994506001600160a01b0392831693503392909116906003614163565b604051339084907fa7a40af5a1d0c10a3eb94af90cb008170915e8a71a6aaff052794cd762c72fc0905f90a35050611799613e6c565b5f818152600a602052604081206003810154829190612fc290614274565b613b75613e14565b5f818152600c60205260409020600781015460ff1615613ba857604051634b74dc9760e11b815260040160405180910390fd5b80546001600160a01b03163314613bd2576040516322087f4960e11b815260040160405180910390fd5b60078101805460ff1916600190811790915581015481546002830154604051632142170760e11b81526001600160a01b03938416936342842e0e93613c21933093919092169190600401614b6e565b5f604051808303815f87803b158015613c38575f5ffd5b505af1158015613c4a573d5f5f3e3d5ffd5b50506040518492507f2e78756868081fae5204bbe1e151c8934c2d7dcf6f4cdba38a18c3ee09f9767091505f90a250611799613e6c565b5f818152600d60205260409020600581015460ff16613cb357604051634d80826b60e11b815260040160405180910390fd5b80546001600160a01b03163314613cdd576040516322087f4960e11b815260040160405180910390fd5b60058101805460ff191690556003810154335f9081526014602052604081208054909190613d0c908490614bbe565b909155505060405182907fc28b4aed030bfacc245c0501326e1beb8c0ef0d60e4edc21067fdeb52da2a7aa905f90a25050565b613d47613e92565b6001600160a01b038116613d7557604051631e4fbdf760e01b81525f60048201526024015b60405180910390fd5b6117998161469d565b5f818152600f60205260409020600581015460ff16613db057604051632486874760e01b815260040160405180910390fd5b80546001600160a01b03163314613dda576040516322087f4960e11b815260040160405180910390fd5b60058101805460ff1916905560405182907fba6bf99531d1f4be033f1b60c3438d405a32ba8003a13be82ccbc5aef6b80a57905f90a25050565b613e1c61472e565b60027f9b779b17422d0df92223018b32b4d1fa46e071723d6817e2486d003becc55f0055565b5f54600160a01b900460ff1615611b305760405163d93c066560e01b815260040160405180910390fd5b60017f9b779b17422d0df92223018b32b4d1fa46e071723d6817e2486d003becc55f0055565b5f546001600160a01b03163314611b305760405163118cdaa760e01b8152336004820152602401613d6c565b5f61271060025483613ed09190614bea565b613eda9190614c01565b60405163152a902d60e11b815260048101869052602481018490529091505f9081906001600160a01b03881690632a55205a906044016040805180830381865afa925050508015613f48575060408051601f3d908101601f19168201909252613f4591810190614c48565b60015b15613f5257925090505b6001600160a01b038116613f64575f91505b83613f6f8385614bbe565b1115613f7b57505f9050805b5f82613f878587614bd7565b613f919190614bd7565b90508315613fe1578360145f613fae5f546001600160a01b031690565b6001600160a01b03166001600160a01b031681526020019081526020015f205f828254613fdb9190614bbe565b90915550505b5f83118015613ff857506001600160a01b03821615155b156141265760405163c484f31160e01b8152600481018890526001600160a01b0389169063c484f31190602401602060405180830381865afa92505050801561405e575060408051601f3d908101601f1916820190925261405b91810190614b4f565b60015b614094576001600160a01b0382165f9081526014602052604081208054859290614089908490614bbe565b909155506141269050565b80156140f757604051634cc575a960e01b8152600481018990526001600160a01b038a1690634cc575a99086906024015f604051808303818588803b1580156140db575f5ffd5b505af11580156140ed573d5f5f3e3d5ffd5b5050505050614124565b6001600160a01b0383165f908152601460205260408120805486929061411e908490614bbe565b90915550505b505b8015614159576001600160a01b0386165f9081526014602052604081208054839290614153908490614bbe565b90915550505b5050505050505050565b600980545f918261417383614ba6565b909155506040805160c0810182526001600160a01b0389811680835289821660208085018281528b851686880190815260608088018d815260ff8d811660808b018181524260a08d019081525f8f815260108a528e90209c518d54908d166001600160a01b0319918216178e55975160018e018054918e16918a16919091179055955160028d01805491909c16971696909617909955905160038a015592516004890180549190941660ff19909116179092555160059096019590955585519283528201529283015291925082917ff3b44e28d69c0a0d474484b9345eb23e108b3e437fb66da405f5b82401da499e910160405180910390a2505050505050565b6001545f906001600160a01b031661429f57604051633e1e538160e21b815260040160405180910390fd5b60015460408051638e15f47360e01b815281515f936001600160a01b031692638e15f47392600480820193918290030181865afa1580156142e2573d5f5f3e3d5ffd5b505050506040513d601f19601f820116820180604052508101906143069190614c74565b509050805f0361432957604051633e1e538160e21b815260040160405180910390fd5b8060018161434169d3c21bcecceda100000087614bea565b61434b9190614bbe565b6143559190614bd7565b61352a9190614c01565b5f825f0361438057604051637294708f60e11b815260040160405180910390fd5b6040516331a9108f60e11b815260048101859052859033906001600160a01b03831690636352211e90602401602060405180830381865afa1580156143c7573d5f5f3e3d5ffd5b505050506040513d601f19601f820116820180604052508101906143eb9190614b34565b6001600160a01b031614614412576040516359dc379f60e01b815260040160405180910390fd5b60405163020604bf60e21b81526004810186905230906001600160a01b0383169063081812fc90602401602060405180830381865afa158015614457573d5f5f3e3d5ffd5b505050506040513d601f19601f8201168201806040525081019061447b9190614b34565b6001600160a01b0316141580156144fb575060405163e985e9c560e01b81523360048201523060248201526001600160a01b0382169063e985e9c590604401602060405180830381865afa1580156144d5573d5f5f3e3d5ffd5b505050506040513d601f19601f820116820180604052508101906144f99190614b4f565b155b156145195760405163a9248d2560e01b815260040160405180910390fd5b5f831561452f5761452a8442614bbe565b614531565b5f5b600380549192505f91908261454583614ba6565b909155506040805160c081018252338082526001600160a01b038c811660208085018281528587018f8152606087018f815260016080890181815260a08a018e81525f8d8152600a909752958b902099518a549089166001600160a01b0319918216178b559451918a01805492909816919094161790955551600287015592516003860155915160048501805491151560ff19909216919091179055905160059093019290925591519293509183907f1d2286580411f12056775bf9e0fd10101148b09a6fca67c9f426fb113a28d1f890614636908c908c9089909283526020830191909152604082015260600190565b60405180910390a4979650505050505050565b614651614770565b5f805460ff60a01b191690557f5db9ee0a495bf2e6ff9c91a7834c1ba4fdd244a5e8aa4e537bd38aeae4b073aa335b6040516001600160a01b03909116815260200160405180910390a1565b5f80546001600160a01b038381166001600160a01b0319831681178455604051919092169283917f8be0079c531659141344cd1fd0a4f28419497f9722a3daafe3b4186f6b6457e09190a35050565b6146f4613e42565b5f805460ff60a01b1916600160a01b1790557f62e78cea01bee320cd4e420270b5ea74000d11b0c9f74754ebdbfc544b05a2586146803390565b7f9b779b17422d0df92223018b32b4d1fa46e071723d6817e2486d003becc55f0054600203611b3057604051633ee5aeb560e01b815260040160405180910390fd5b5f54600160a01b900460ff16611b3057604051638dfc202b60e01b815260040160405180910390fd5b6001600160a01b0381168114611799575f5ffd5b5f5f5f5f5f60a086880312156147c1575f5ffd5b85356147cc81614799565b97602087013597506040870135966060810135965060800135945092505050565b5f602082840312156147fd575f5ffd5b5035919050565b5f5f5f5f5f60808688031215614818575f5ffd5b853561482381614799565b9450602086013561483381614799565b935060408601359250606086013567ffffffffffffffff811115614855575f5ffd5b8601601f81018813614865575f5ffd5b803567ffffffffffffffff81111561487b575f5ffd5b88602082840101111561488c575f5ffd5b959894975092955050506020019190565b5f602082840312156148ad575f5ffd5b813561352a81614799565b5f5f5f5f608085870312156148cb575f5ffd5b84356148d681614799565b966020860135965060408601359560600135945092505050565b5f5f60408385031215614901575f5ffd5b82359150602083013560ff81168114614918575f5ffd5b809150509250929050565b5f5f5f60608486031215614935575f5ffd5b833561494081614799565b95602085013595506040909401359392505050565b5f5f60408385031215614966575f5ffd5b50508035926020909101359150565b5f5f5f5f5f5f60c0878903121561498a575f5ffd5b863561499581614799565b955060208701356149a581614799565b94506040870135935060608701356149bc81614799565b9598949750929560808101359460a0909101359350915050565b5f5f83601f8401126149e6575f5ffd5b50813567ffffffffffffffff8111156149fd575f5ffd5b6020830191508360208260051b8501011115614a17575f5ffd5b9250929050565b5f5f5f5f5f5f5f6080888a031215614a34575f5ffd5b8735614a3f81614799565b9650602088013567ffffffffffffffff811115614a5a575f5ffd5b614a668a828b016149d6565b909750955050604088013567ffffffffffffffff811115614a85575f5ffd5b614a918a828b016149d6565b909550935050606088013567ffffffffffffffff811115614ab0575f5ffd5b614abc8a828b016149d6565b989b979a50959850939692959293505050565b602080825282518282018190525f918401906040840190835b81811015614b06578351835260209384019390920191600101614ae8565b509095945050505050565b5f5f60408385031215614b22575f5ffd5b82359150602083013561491881614799565b5f60208284031215614b44575f5ffd5b815161352a81614799565b5f60208284031215614b5f575f5ffd5b8151801515811461352a575f5ffd5b6001600160a01b039384168152919092166020820152604081019190915260600190565b634e487b7160e01b5f52601160045260245ffd5b5f60018201614bb757614bb7614b92565b5060010190565b80820180821115614bd157614bd1614b92565b92915050565b81810381811115614bd157614bd1614b92565b8082028115828204841417614bd157614bd1614b92565b5f82614c1b57634e487b7160e01b5f52601260045260245ffd5b500490565b634e487b7160e01b5f52604160045260245ffd5b634e487b7160e01b5f52603260045260245ffd5b5f5f60408385031215614c59575f5ffd5b8251614c6481614799565b6020939093015192949293505050565b5f5f60408385031215614c85575f5ffd5b50508051602090910151909290915056fea2646970667358221220253f36c3344c8fbe94fabc37ae1e8466f3a15f81ce47589ff4360384fbf7c2f664736f6c634300081c0033","opcodes":"PUSH1 0x80 PUSH1 0x40 MSTORE PUSH1 0xFA PUSH1 0x2 SSTORE CALLVALUE DUP1 ISZERO PUSH1 0x13 JUMPI PUSH0 PUSH0 REVERT JUMPDEST POP CALLER DUP1 PUSH1 0x38 JUMPI PUSH1 0x40 MLOAD PUSH4 0x1E4FBDF7 PUSH1 0xE0 SHL DUP2 MSTORE PUSH0 PUSH1 0x4 DUP3 ADD MSTORE PUSH1 0x24 ADD PUSH1 0x40 MLOAD DUP1 SWAP2 SUB SWAP1 REVERT JUMPDEST PUSH1 0x3F DUP2 PUSH1 0x68 JUMP JUMPDEST POP PUSH1 0x1 PUSH32 0x9B779B17422D0DF92223018B32B4D1FA46E071723D6817E2486D003BECC55F00 SSTORE PUSH1 0xB7 JUMP JUMPDEST PUSH0 DUP1 SLOAD PUSH1 0x1 PUSH1 0x1 PUSH1 0xA0 SHL SUB DUP4 DUP2 AND PUSH1 0x1 PUSH1 0x1 PUSH1 0xA0 SHL SUB NOT DUP4 AND DUP2 OR DUP5 SSTORE PUSH1 0x40 MLOAD SWAP2 SWAP1 SWAP3 AND SWAP3 DUP4 SWAP2 PUSH32 0x8BE0079C531659141344CD1FD0A4F28419497F9722A3DAAFE3B4186F6B6457E0 SWAP2 SWAP1 LOG3 POP POP JUMP JUMPDEST PUSH2 0x4CCC DUP1 PUSH2 0xC4 PUSH0 CODECOPY PUSH0 RETURN INVALID PUSH1 0x80 PUSH1 0x40 MSTORE PUSH1 0x4 CALLDATASIZE LT PUSH2 0x3C9 JUMPI PUSH0 CALLDATALOAD PUSH1 0xE0 SHR DUP1 PUSH4 0x8DA5CB5B GT PUSH2 0x1F4 JUMPI DUP1 PUSH4 0xC4604943 GT PUSH2 0x113 JUMPI DUP1 PUSH4 0xDE74E57B GT PUSH2 0xA8 JUMPI DUP1 PUSH4 0xF09C5829 GT PUSH2 0x78 JUMPI DUP1 PUSH4 0xF09C5829 EQ PUSH2 0xD26 JUMPI DUP1 PUSH4 0xF2AB2FC0 EQ PUSH2 0xDF8 JUMPI DUP1 PUSH4 0xF2FDE38B EQ PUSH2 0xEAC JUMPI DUP1 PUSH4 0xF3F43703 EQ PUSH2 0xECB JUMPI DUP1 PUSH4 0xF65A56DA EQ PUSH2 0xEF6 JUMPI PUSH0 PUSH0 REVERT JUMPDEST DUP1 PUSH4 0xDE74E57B EQ PUSH2 0xC0E JUMPI DUP1 PUSH4 0xE1A45218 EQ PUSH2 0xCA7 JUMPI DUP1 PUSH4 0xEB1B0C97 EQ PUSH2 0xCBC JUMPI DUP1 PUSH4 0xEF706ADF EQ PUSH2 0xD07 JUMPI PUSH0 PUSH0 REVERT JUMPDEST DUP1 PUSH4 0xD048DB37 GT PUSH2 0xE3 JUMPI DUP1 PUSH4 0xD048DB37 EQ PUSH2 0xBB3 JUMPI DUP1 PUSH4 0xD12314AE EQ PUSH2 0xBC7 JUMPI DUP1 PUSH4 0xD81671BC EQ PUSH2 0xBDB JUMPI DUP1 PUSH4 0xDDEE8433 EQ PUSH2 0xBEF JUMPI PUSH0 PUSH0 REVERT JUMPDEST DUP1 PUSH4 0xC4604943 EQ PUSH2 0xB42 JUMPI DUP1 PUSH4 0xC815729D EQ PUSH2 0xB61 JUMPI DUP1 PUSH4 0xCB91EC4F EQ PUSH2 0xB80 JUMPI DUP1 PUSH4 0xCFDBF254 EQ PUSH2 0xB9F JUMPI PUSH0 PUSH0 REVERT JUMPDEST DUP1 PUSH4 0xA7CD11F0 GT PUSH2 0x189 JUMPI DUP1 PUSH4 0xBC063E1A GT PUSH2 0x159 JUMPI DUP1 PUSH4 0xBC063E1A EQ PUSH2 0xAF0 JUMPI DUP1 PUSH4 0xBCC872AA EQ PUSH2 0xB05 JUMPI DUP1 PUSH4 0xC2F50A7A EQ PUSH2 0xB19 JUMPI DUP1 PUSH4 0xC44E6640 EQ PUSH2 0xB2E JUMPI PUSH0 PUSH0 REVERT JUMPDEST DUP1 PUSH4 0xA7CD11F0 EQ PUSH2 0xA73 JUMPI DUP1 PUSH4 0xADB1FD06 EQ PUSH2 0xA86 JUMPI DUP1 PUSH4 0xB50250A3 EQ PUSH2 0xAB2 JUMPI DUP1 PUSH4 0xB9A2DE3A EQ PUSH2 0xAD1 JUMPI PUSH0 PUSH0 REVERT JUMPDEST DUP1 PUSH4 0x9979EF45 GT PUSH2 0x1C4 JUMPI DUP1 PUSH4 0x9979EF45 EQ PUSH2 0x9F0 JUMPI DUP1 PUSH4 0x9C89A0E2 EQ PUSH2 0xA03 JUMPI DUP1 PUSH4 0x9F720C62 EQ PUSH2 0xA37 JUMPI DUP1 PUSH4 0xA1F0F438 EQ PUSH2 0xA54 JUMPI PUSH0 PUSH0 REVERT JUMPDEST DUP1 PUSH4 0x8DA5CB5B EQ PUSH2 0x98D JUMPI DUP1 PUSH4 0x93B2D6A0 EQ PUSH2 0x9A9 JUMPI DUP1 PUSH4 0x95EAE396 EQ PUSH2 0x9BC JUMPI DUP1 PUSH4 0x96B5A755 EQ PUSH2 0x9D1 JUMPI PUSH0 PUSH0 REVERT JUMPDEST DUP1 PUSH4 0x51ED8288 GT PUSH2 0x2EB JUMPI DUP1 PUSH4 0x77F8BB6D GT PUSH2 0x280 JUMPI DUP1 PUSH4 0x7DE3BD07 GT PUSH2 0x250 JUMPI DUP1 PUSH4 0x7DE3BD07 EQ PUSH2 0x8D5 JUMPI DUP1 PUSH4 0x8456CB59 EQ PUSH2 0x8E8 JUMPI DUP1 PUSH4 0x85AD53CD EQ PUSH2 0x8FC JUMPI DUP1 PUSH4 0x87ED92D7 EQ PUSH2 0x91B JUMPI DUP1 PUSH4 0x8A72EA6A EQ PUSH2 0x92F JUMPI PUSH0 PUSH0 REVERT JUMPDEST DUP1 PUSH4 0x77F8BB6D EQ PUSH2 0x7C8 JUMPI DUP1 PUSH4 0x7ADBF973 EQ PUSH2 0x7DC JUMPI DUP1 PUSH4 0x7C6E5FBA EQ PUSH2 0x7FB JUMPI DUP1 PUSH4 0x7DC0D1D0 EQ PUSH2 0x89E JUMPI PUSH0 PUSH0 REVERT JUMPDEST DUP1 PUSH4 0x61BEB1D7 GT PUSH2 0x2BB JUMPI DUP1 PUSH4 0x61BEB1D7 EQ PUSH2 0x762 JUMPI DUP1 PUSH4 0x6941C810 EQ PUSH2 0x781 JUMPI DUP1 PUSH4 0x715018A6 EQ PUSH2 0x7A0 JUMPI DUP1 PUSH4 0x722D7154 EQ PUSH2 0x7B4 JUMPI PUSH0 PUSH0 REVERT JUMPDEST DUP1 PUSH4 0x51ED8288 EQ PUSH2 0x649 JUMPI DUP1 PUSH4 0x54D6A2B7 EQ PUSH2 0x65C JUMPI DUP1 PUSH4 0x571A26A0 EQ PUSH2 0x67B JUMPI DUP1 PUSH4 0x5C975ABB EQ PUSH2 0x739 JUMPI PUSH0 PUSH0 REVERT JUMPDEST DUP1 PUSH4 0x25481F5F GT PUSH2 0x361 JUMPI DUP1 PUSH4 0x3F4BA83A GT PUSH2 0x331 JUMPI DUP1 PUSH4 0x3F4BA83A EQ PUSH2 0x55C JUMPI DUP1 PUSH4 0x3FB35178 EQ PUSH2 0x570 JUMPI DUP1 PUSH4 0x4934F4A1 EQ PUSH2 0x586 JUMPI DUP1 PUSH4 0x50D061CB EQ PUSH2 0x61E JUMPI PUSH0 PUSH0 REVERT JUMPDEST DUP1 PUSH4 0x25481F5F EQ PUSH2 0x4F7 JUMPI DUP1 PUSH4 0x305A67A8 EQ PUSH2 0x50A JUMPI DUP1 PUSH4 0x3C44A5F0 EQ PUSH2 0x529 JUMPI DUP1 PUSH4 0x3CCFD60B EQ PUSH2 0x548 JUMPI PUSH0 PUSH0 REVERT JUMPDEST DUP1 PUSH4 0x1BE66284 GT PUSH2 0x39C JUMPI DUP1 PUSH4 0x1BE66284 EQ PUSH2 0x479 JUMPI DUP1 PUSH4 0x1BF33004 EQ PUSH2 0x498 JUMPI DUP1 PUSH4 0x22DCD13E EQ PUSH2 0x4B7 JUMPI DUP1 PUSH4 0x2404165E EQ PUSH2 0x4CC JUMPI PUSH0 PUSH0 REVERT JUMPDEST DUP1 PUSH4 0x65DA698 EQ PUSH2 0x3CD JUMPI DUP1 PUSH4 0x12E8E2C3 EQ PUSH2 0x3FF JUMPI DUP1 PUSH4 0x14414CC0 EQ PUSH2 0x420 JUMPI DUP1 PUSH4 0x150B7A02 EQ PUSH2 0x435 JUMPI JUMPDEST PUSH0 PUSH0 REVERT JUMPDEST CALLVALUE DUP1 ISZERO PUSH2 0x3D8 JUMPI PUSH0 PUSH0 REVERT JUMPDEST POP PUSH2 0x3EC PUSH2 0x3E7 CALLDATASIZE PUSH1 0x4 PUSH2 0x47AD JUMP JUMPDEST PUSH2 0xF15 JUMP JUMPDEST PUSH1 0x40 MLOAD SWAP1 DUP2 MSTORE PUSH1 0x20 ADD JUMPDEST PUSH1 0x40 MLOAD DUP1 SWAP2 SUB SWAP1 RETURN JUMPDEST CALLVALUE DUP1 ISZERO PUSH2 0x40A JUMPI PUSH0 PUSH0 REVERT JUMPDEST POP PUSH2 0x41E PUSH2 0x419 CALLDATASIZE PUSH1 0x4 PUSH2 0x47ED JUMP JUMPDEST PUSH2 0x12E5 JUMP JUMPDEST STOP JUMPDEST CALLVALUE DUP1 ISZERO PUSH2 0x42B JUMPI PUSH0 PUSH0 REVERT JUMPDEST POP PUSH2 0x3EC PUSH2 0x1F4 DUP2 JUMP JUMPDEST CALLVALUE DUP1 ISZERO PUSH2 0x440 JUMPI PUSH0 PUSH0 REVERT JUMPDEST POP PUSH2 0x460 PUSH2 0x44F CALLDATASIZE PUSH1 0x4 PUSH2 0x4804 JUMP JUMPDEST PUSH4 0xA85BD01 PUSH1 0xE1 SHL SWAP6 SWAP5 POP POP POP POP POP JUMP JUMPDEST PUSH1 0x40 MLOAD PUSH1 0x1 PUSH1 0x1 PUSH1 0xE0 SHL SUB NOT SWAP1 SWAP2 AND DUP2 MSTORE PUSH1 0x20 ADD PUSH2 0x3F6 JUMP JUMPDEST CALLVALUE DUP1 ISZERO PUSH2 0x484 JUMPI PUSH0 PUSH0 REVERT JUMPDEST POP PUSH2 0x3EC PUSH2 0x493 CALLDATASIZE PUSH1 0x4 PUSH2 0x47ED JUMP JUMPDEST PUSH2 0x134B JUMP JUMPDEST CALLVALUE DUP1 ISZERO PUSH2 0x4A3 JUMPI PUSH0 PUSH0 REVERT JUMPDEST POP PUSH2 0x41E PUSH2 0x4B2 CALLDATASIZE PUSH1 0x4 PUSH2 0x47ED JUMP JUMPDEST PUSH2 0x13DE JUMP JUMPDEST CALLVALUE DUP1 ISZERO PUSH2 0x4C2 JUMPI PUSH0 PUSH0 REVERT JUMPDEST POP PUSH2 0x3EC PUSH1 0x2 SLOAD DUP2 JUMP JUMPDEST CALLVALUE DUP1 ISZERO PUSH2 0x4D7 JUMPI PUSH0 PUSH0 REVERT JUMPDEST POP PUSH2 0x3EC PUSH2 0x4E6 CALLDATASIZE PUSH1 0x4 PUSH2 0x489D JUMP JUMPDEST PUSH1 0x13 PUSH1 0x20 MSTORE PUSH0 SWAP1 DUP2 MSTORE PUSH1 0x40 SWAP1 KECCAK256 SLOAD DUP2 JUMP JUMPDEST PUSH2 0x41E PUSH2 0x505 CALLDATASIZE PUSH1 0x4 PUSH2 0x47ED JUMP JUMPDEST PUSH2 0x179C JUMP JUMPDEST CALLVALUE DUP1 ISZERO PUSH2 0x515 JUMPI PUSH0 PUSH0 REVERT JUMPDEST POP PUSH2 0x41E PUSH2 0x524 CALLDATASIZE PUSH1 0x4 PUSH2 0x47ED JUMP JUMPDEST PUSH2 0x1986 JUMP JUMPDEST CALLVALUE DUP1 ISZERO PUSH2 0x534 JUMPI PUSH0 PUSH0 REVERT JUMPDEST POP PUSH2 0x3EC PUSH2 0x543 CALLDATASIZE PUSH1 0x4 PUSH2 0x48B8 JUMP JUMPDEST PUSH2 0x1A24 JUMP JUMPDEST CALLVALUE DUP1 ISZERO PUSH2 0x553 JUMPI PUSH0 PUSH0 REVERT JUMPDEST POP PUSH2 0x41E PUSH2 0x1A44 JUMP JUMPDEST CALLVALUE DUP1 ISZERO PUSH2 0x567 JUMPI PUSH0 PUSH0 REVERT JUMPDEST POP PUSH2 0x41E PUSH2 0x1B32 JUMP JUMPDEST CALLVALUE DUP1 ISZERO PUSH2 0x57B JUMPI PUSH0 PUSH0 REVERT JUMPDEST POP PUSH2 0x3EC PUSH3 0x93A80 DUP2 JUMP JUMPDEST CALLVALUE DUP1 ISZERO PUSH2 0x591 JUMPI PUSH0 PUSH0 REVERT JUMPDEST POP PUSH2 0x5E4 PUSH2 0x5A0 CALLDATASIZE PUSH1 0x4 PUSH2 0x47ED JUMP JUMPDEST PUSH1 0xF PUSH1 0x20 MSTORE PUSH0 SWAP1 DUP2 MSTORE PUSH1 0x40 SWAP1 KECCAK256 DUP1 SLOAD PUSH1 0x1 DUP3 ADD SLOAD PUSH1 0x2 DUP4 ADD SLOAD PUSH1 0x3 DUP5 ADD SLOAD PUSH1 0x4 DUP6 ADD SLOAD PUSH1 0x5 SWAP1 SWAP6 ADD SLOAD PUSH1 0x1 PUSH1 0x1 PUSH1 0xA0 SHL SUB SWAP5 DUP6 AND SWAP6 SWAP4 SWAP1 SWAP5 AND SWAP4 SWAP2 SWAP3 SWAP1 SWAP2 PUSH1 0xFF AND DUP7 JUMP JUMPDEST PUSH1 0x40 DUP1 MLOAD PUSH1 0x1 PUSH1 0x1 PUSH1 0xA0 SHL SUB SWAP8 DUP9 AND DUP2 MSTORE SWAP7 SWAP1 SWAP6 AND PUSH1 0x20 DUP8 ADD MSTORE SWAP4 DUP6 ADD SWAP3 SWAP1 SWAP3 MSTORE PUSH1 0x60 DUP5 ADD MSTORE PUSH1 0x80 DUP4 ADD MSTORE ISZERO ISZERO PUSH1 0xA0 DUP3 ADD MSTORE PUSH1 0xC0 ADD PUSH2 0x3F6 JUMP JUMPDEST CALLVALUE DUP1 ISZERO PUSH2 0x629 JUMPI PUSH0 PUSH0 REVERT JUMPDEST POP PUSH2 0x3EC PUSH2 0x638 CALLDATASIZE PUSH1 0x4 PUSH2 0x489D JUMP JUMPDEST PUSH1 0x12 PUSH1 0x20 MSTORE PUSH0 SWAP1 DUP2 MSTORE PUSH1 0x40 SWAP1 KECCAK256 SLOAD DUP2 JUMP JUMPDEST PUSH2 0x41E PUSH2 0x657 CALLDATASIZE PUSH1 0x4 PUSH2 0x47ED JUMP JUMPDEST PUSH2 0x1B42 JUMP JUMPDEST CALLVALUE DUP1 ISZERO PUSH2 0x667 JUMPI PUSH0 PUSH0 REVERT JUMPDEST POP PUSH2 0x41E PUSH2 0x676 CALLDATASIZE PUSH1 0x4 PUSH2 0x47ED JUMP JUMPDEST PUSH2 0x1D86 JUMP JUMPDEST CALLVALUE DUP1 ISZERO PUSH2 0x686 JUMPI PUSH0 PUSH0 REVERT JUMPDEST POP PUSH2 0x6E9 PUSH2 0x695 CALLDATASIZE PUSH1 0x4 PUSH2 0x47ED JUMP JUMPDEST PUSH1 0xB PUSH1 0x20 MSTORE PUSH0 SWAP1 DUP2 MSTORE PUSH1 0x40 SWAP1 KECCAK256 DUP1 SLOAD PUSH1 0x1 DUP3 ADD SLOAD PUSH1 0x2 DUP4 ADD SLOAD PUSH1 0x3 DUP5 ADD SLOAD PUSH1 0x4 DUP6 ADD SLOAD PUSH1 0x5 DUP7 ADD SLOAD PUSH1 0x6 DUP8 ADD SLOAD PUSH1 0x7 SWAP1 SWAP8 ADD SLOAD PUSH1 0x1 PUSH1 0x1 PUSH1 0xA0 SHL SUB SWAP7 DUP8 AND SWAP8 SWAP6 DUP8 AND SWAP7 SWAP5 SWAP6 SWAP4 SWAP5 SWAP3 SWAP4 SWAP2 SWAP1 SWAP3 AND SWAP2 PUSH1 0xFF AND DUP9 JUMP JUMPDEST PUSH1 0x40 DUP1 MLOAD PUSH1 0x1 PUSH1 0x1 PUSH1 0xA0 SHL SUB SWAP10 DUP11 AND DUP2 MSTORE SWAP8 DUP10 AND PUSH1 0x20 DUP10 ADD MSTORE DUP8 ADD SWAP6 SWAP1 SWAP6 MSTORE PUSH1 0x60 DUP7 ADD SWAP4 SWAP1 SWAP4 MSTORE PUSH1 0x80 DUP6 ADD SWAP2 SWAP1 SWAP2 MSTORE SWAP1 SWAP4 AND PUSH1 0xA0 DUP4 ADD MSTORE PUSH1 0xC0 DUP3 ADD SWAP3 SWAP1 SWAP3 MSTORE SWAP1 ISZERO ISZERO PUSH1 0xE0 DUP3 ADD MSTORE PUSH2 0x100 ADD PUSH2 0x3F6 JUMP JUMPDEST CALLVALUE DUP1 ISZERO PUSH2 0x744 JUMPI PUSH0 PUSH0 REVERT JUMPDEST POP PUSH0 SLOAD PUSH1 0x1 PUSH1 0xA0 SHL SWAP1 DIV PUSH1 0xFF AND JUMPDEST PUSH1 0x40 MLOAD SWAP1 ISZERO ISZERO DUP2 MSTORE PUSH1 0x20 ADD PUSH2 0x3F6 JUMP JUMPDEST CALLVALUE DUP1 ISZERO PUSH2 0x76D JUMPI PUSH0 PUSH0 REVERT JUMPDEST POP PUSH2 0x3EC PUSH2 0x77C CALLDATASIZE PUSH1 0x4 PUSH2 0x48B8 JUMP JUMPDEST PUSH2 0x1ED1 JUMP JUMPDEST CALLVALUE DUP1 ISZERO PUSH2 0x78C JUMPI PUSH0 PUSH0 REVERT JUMPDEST POP PUSH2 0x41E PUSH2 0x79B CALLDATASIZE PUSH1 0x4 PUSH2 0x48F0 JUMP JUMPDEST PUSH2 0x2280 JUMP JUMPDEST CALLVALUE DUP1 ISZERO PUSH2 0x7AB JUMPI PUSH0 PUSH0 REVERT JUMPDEST POP PUSH2 0x41E PUSH2 0x2451 JUMP JUMPDEST CALLVALUE DUP1 ISZERO PUSH2 0x7BF JUMPI PUSH0 PUSH0 REVERT JUMPDEST POP PUSH1 0x8 SLOAD PUSH2 0x3EC JUMP JUMPDEST CALLVALUE DUP1 ISZERO PUSH2 0x7D3 JUMPI PUSH0 PUSH0 REVERT JUMPDEST POP PUSH2 0x3EC PUSH1 0xC8 DUP2 JUMP JUMPDEST CALLVALUE DUP1 ISZERO PUSH2 0x7E7 JUMPI PUSH0 PUSH0 REVERT JUMPDEST POP PUSH2 0x41E PUSH2 0x7F6 CALLDATASIZE PUSH1 0x4 PUSH2 0x489D JUMP JUMPDEST PUSH2 0x2462 JUMP JUMPDEST CALLVALUE DUP1 ISZERO PUSH2 0x806 JUMPI PUSH0 PUSH0 REVERT JUMPDEST POP PUSH2 0x85D PUSH2 0x815 CALLDATASIZE PUSH1 0x4 PUSH2 0x47ED JUMP JUMPDEST PUSH1 0x10 PUSH1 0x20 MSTORE PUSH0 SWAP1 DUP2 MSTORE PUSH1 0x40 SWAP1 KECCAK256 DUP1 SLOAD PUSH1 0x1 DUP3 ADD SLOAD PUSH1 0x2 DUP4 ADD SLOAD PUSH1 0x3 DUP5 ADD SLOAD PUSH1 0x4 DUP6 ADD SLOAD PUSH1 0x5 SWAP1 SWAP6 ADD SLOAD PUSH1 0x1 PUSH1 0x1 PUSH1 0xA0 SHL SUB SWAP5 DUP6 AND SWAP6 SWAP4 DUP6 AND SWAP5 SWAP1 SWAP3 AND SWAP3 SWAP1 SWAP2 PUSH1 0xFF SWAP1 SWAP2 AND SWAP1 DUP7 JUMP JUMPDEST PUSH1 0x40 DUP1 MLOAD PUSH1 0x1 PUSH1 0x1 PUSH1 0xA0 SHL SUB SWAP8 DUP9 AND DUP2 MSTORE SWAP6 DUP8 AND PUSH1 0x20 DUP8 ADD MSTORE SWAP4 SWAP1 SWAP6 AND SWAP3 DUP5 ADD SWAP3 SWAP1 SWAP3 MSTORE PUSH1 0x60 DUP4 ADD MSTORE PUSH1 0xFF AND PUSH1 0x80 DUP3 ADD MSTORE PUSH1 0xA0 DUP2 ADD SWAP2 SWAP1 SWAP2 MSTORE PUSH1 0xC0 ADD PUSH2 0x3F6 JUMP JUMPDEST CALLVALUE DUP1 ISZERO PUSH2 0x8A9 JUMPI PUSH0 PUSH0 REVERT JUMPDEST POP PUSH1 0x1 SLOAD PUSH2 0x8BD SWAP1 PUSH1 0x1 PUSH1 0x1 PUSH1 0xA0 SHL SUB AND DUP2 JUMP JUMPDEST PUSH1 0x40 MLOAD PUSH1 0x1 PUSH1 0x1 PUSH1 0xA0 SHL SUB SWAP1 SWAP2 AND DUP2 MSTORE PUSH1 0x20 ADD PUSH2 0x3F6 JUMP JUMPDEST PUSH2 0x3EC PUSH2 0x8E3 CALLDATASIZE PUSH1 0x4 PUSH2 0x4923 JUMP JUMPDEST PUSH2 0x24DA JUMP JUMPDEST CALLVALUE DUP1 ISZERO PUSH2 0x8F3 JUMPI PUSH0 PUSH0 REVERT JUMPDEST POP PUSH2 0x41E PUSH2 0x2669 JUMP JUMPDEST CALLVALUE DUP1 ISZERO PUSH2 0x907 JUMPI PUSH0 PUSH0 REVERT JUMPDEST POP PUSH2 0x3EC PUSH2 0x916 CALLDATASIZE PUSH1 0x4 PUSH2 0x48B8 JUMP JUMPDEST PUSH2 0x2679 JUMP JUMPDEST CALLVALUE DUP1 ISZERO PUSH2 0x926 JUMPI PUSH0 PUSH0 REVERT JUMPDEST POP PUSH1 0x3 SLOAD PUSH2 0x3EC JUMP JUMPDEST CALLVALUE DUP1 ISZERO PUSH2 0x93A JUMPI PUSH0 PUSH0 REVERT JUMPDEST POP PUSH2 0x5E4 PUSH2 0x949 CALLDATASIZE PUSH1 0x4 PUSH2 0x47ED JUMP JUMPDEST PUSH1 0xD PUSH1 0x20 MSTORE PUSH0 SWAP1 DUP2 MSTORE PUSH1 0x40 SWAP1 KECCAK256 DUP1 SLOAD PUSH1 0x1 DUP3 ADD SLOAD PUSH1 0x2 DUP4 ADD SLOAD PUSH1 0x3 DUP5 ADD SLOAD PUSH1 0x4 DUP6 ADD SLOAD PUSH1 0x5 SWAP1 SWAP6 ADD SLOAD PUSH1 0x1 PUSH1 0x1 PUSH1 0xA0 SHL SUB SWAP5 DUP6 AND SWAP6 SWAP4 SWAP1 SWAP5 AND SWAP4 SWAP2 SWAP3 SWAP1 SWAP2 PUSH1 0xFF AND DUP7 JUMP JUMPDEST CALLVALUE DUP1 ISZERO PUSH2 0x998 JUMPI PUSH0 PUSH0 REVERT JUMPDEST POP PUSH0 SLOAD PUSH1 0x1 PUSH1 0x1 PUSH1 0xA0 SHL SUB AND PUSH2 0x8BD JUMP JUMPDEST PUSH2 0x41E PUSH2 0x9B7 CALLDATASIZE PUSH1 0x4 PUSH2 0x4955 JUMP JUMPDEST PUSH2 0x297D JUMP JUMPDEST CALLVALUE DUP1 ISZERO PUSH2 0x9C7 JUMPI PUSH0 PUSH0 REVERT JUMPDEST POP PUSH2 0x3EC PUSH2 0x12C DUP2 JUMP JUMPDEST CALLVALUE DUP1 ISZERO PUSH2 0x9DC JUMPI PUSH0 PUSH0 REVERT JUMPDEST POP PUSH2 0x41E PUSH2 0x9EB CALLDATASIZE PUSH1 0x4 PUSH2 0x47ED JUMP JUMPDEST PUSH2 0x2BFE JUMP JUMPDEST PUSH2 0x41E PUSH2 0x9FE CALLDATASIZE PUSH1 0x4 PUSH2 0x47ED JUMP JUMPDEST PUSH2 0x2D31 JUMP JUMPDEST CALLVALUE DUP1 ISZERO PUSH2 0xA0E JUMPI PUSH0 PUSH0 REVERT JUMPDEST POP PUSH2 0xA22 PUSH2 0xA1D CALLDATASIZE PUSH1 0x4 PUSH2 0x489D JUMP JUMPDEST PUSH2 0x2F4C JUMP JUMPDEST PUSH1 0x40 DUP1 MLOAD SWAP3 DUP4 MSTORE PUSH1 0x20 DUP4 ADD SWAP2 SWAP1 SWAP2 MSTORE ADD PUSH2 0x3F6 JUMP JUMPDEST CALLVALUE DUP1 ISZERO PUSH2 0xA42 JUMPI PUSH0 PUSH0 REVERT JUMPDEST POP PUSH2 0x3EC PUSH10 0xD3C21BCECCEDA1000000 DUP2 JUMP JUMPDEST CALLVALUE DUP1 ISZERO PUSH2 0xA5F JUMPI PUSH0 PUSH0 REVERT JUMPDEST POP PUSH2 0xA22 PUSH2 0xA6E CALLDATASIZE PUSH1 0x4 PUSH2 0x47ED JUMP JUMPDEST PUSH2 0x2FAB JUMP JUMPDEST PUSH2 0x3EC PUSH2 0xA81 CALLDATASIZE PUSH1 0x4 PUSH2 0x4975 JUMP JUMPDEST PUSH2 0x2FEE JUMP JUMPDEST CALLVALUE DUP1 ISZERO PUSH2 0xA91 JUMPI PUSH0 PUSH0 REVERT JUMPDEST POP PUSH2 0xAA5 PUSH2 0xAA0 CALLDATASIZE PUSH1 0x4 PUSH2 0x4A1E JUMP JUMPDEST PUSH2 0x3395 JUMP JUMPDEST PUSH1 0x40 MLOAD PUSH2 0x3F6 SWAP2 SWAP1 PUSH2 0x4ACF JUMP JUMPDEST CALLVALUE DUP1 ISZERO PUSH2 0xABD JUMPI PUSH0 PUSH0 REVERT JUMPDEST POP PUSH2 0x752 PUSH2 0xACC CALLDATASIZE PUSH1 0x4 PUSH2 0x47ED JUMP JUMPDEST PUSH2 0x3507 JUMP JUMPDEST CALLVALUE DUP1 ISZERO PUSH2 0xADC JUMPI PUSH0 PUSH0 REVERT JUMPDEST POP PUSH2 0x41E PUSH2 0xAEB CALLDATASIZE PUSH1 0x4 PUSH2 0x47ED JUMP JUMPDEST PUSH2 0x3531 JUMP JUMPDEST CALLVALUE DUP1 ISZERO PUSH2 0xAFB JUMPI PUSH0 PUSH0 REVERT JUMPDEST POP PUSH2 0x3EC PUSH2 0x3E8 DUP2 JUMP JUMPDEST CALLVALUE DUP1 ISZERO PUSH2 0xB10 JUMPI PUSH0 PUSH0 REVERT JUMPDEST POP PUSH1 0x5 SLOAD PUSH2 0x3EC JUMP JUMPDEST CALLVALUE DUP1 ISZERO PUSH2 0xB24 JUMPI PUSH0 PUSH0 REVERT JUMPDEST POP PUSH2 0x3EC PUSH2 0xE10 DUP2 JUMP JUMPDEST CALLVALUE DUP1 ISZERO PUSH2 0xB39 JUMPI PUSH0 PUSH0 REVERT JUMPDEST POP PUSH1 0x4 SLOAD PUSH2 0x3EC JUMP JUMPDEST CALLVALUE DUP1 ISZERO PUSH2 0xB4D JUMPI PUSH0 PUSH0 REVERT JUMPDEST POP PUSH2 0x41E PUSH2 0xB5C CALLDATASIZE PUSH1 0x4 PUSH2 0x4955 JUMP JUMPDEST PUSH2 0x376F JUMP JUMPDEST CALLVALUE DUP1 ISZERO PUSH2 0xB6C JUMPI PUSH0 PUSH0 REVERT JUMPDEST POP PUSH2 0x41E PUSH2 0xB7B CALLDATASIZE PUSH1 0x4 PUSH2 0x47ED JUMP JUMPDEST PUSH2 0x383E JUMP JUMPDEST CALLVALUE DUP1 ISZERO PUSH2 0xB8B JUMPI PUSH0 PUSH0 REVERT JUMPDEST POP PUSH2 0xA22 PUSH2 0xB9A CALLDATASIZE PUSH1 0x4 PUSH2 0x47ED JUMP JUMPDEST PUSH2 0x3B4F JUMP JUMPDEST CALLVALUE DUP1 ISZERO PUSH2 0xBAA JUMPI PUSH0 PUSH0 REVERT JUMPDEST POP PUSH2 0x3EC PUSH1 0x14 DUP2 JUMP JUMPDEST CALLVALUE DUP1 ISZERO PUSH2 0xBBE JUMPI PUSH0 PUSH0 REVERT JUMPDEST POP PUSH1 0x6 SLOAD PUSH2 0x3EC JUMP JUMPDEST CALLVALUE DUP1 ISZERO PUSH2 0xBD2 JUMPI PUSH0 PUSH0 REVERT JUMPDEST POP PUSH1 0x9 SLOAD PUSH2 0x3EC JUMP JUMPDEST CALLVALUE DUP1 ISZERO PUSH2 0xBE6 JUMPI PUSH0 PUSH0 REVERT JUMPDEST POP PUSH1 0x7 SLOAD PUSH2 0x3EC JUMP JUMPDEST CALLVALUE DUP1 ISZERO PUSH2 0xBFA JUMPI PUSH0 PUSH0 REVERT JUMPDEST POP PUSH2 0x41E PUSH2 0xC09 CALLDATASIZE PUSH1 0x4 PUSH2 0x47ED JUMP JUMPDEST PUSH2 0x3B6D JUMP JUMPDEST CALLVALUE DUP1 ISZERO PUSH2 0xC19 JUMPI PUSH0 PUSH0 REVERT JUMPDEST POP PUSH2 0xC6D PUSH2 0xC28 CALLDATASIZE PUSH1 0x4 PUSH2 0x47ED JUMP JUMPDEST PUSH1 0xA PUSH1 0x20 MSTORE PUSH0 SWAP1 DUP2 MSTORE PUSH1 0x40 SWAP1 KECCAK256 DUP1 SLOAD PUSH1 0x1 DUP3 ADD SLOAD PUSH1 0x2 DUP4 ADD SLOAD PUSH1 0x3 DUP5 ADD SLOAD PUSH1 0x4 DUP6 ADD SLOAD PUSH1 0x5 SWAP1 SWAP6 ADD SLOAD PUSH1 0x1 PUSH1 0x1 PUSH1 0xA0 SHL SUB SWAP5 DUP6 AND SWAP6 SWAP5 SWAP1 SWAP4 AND SWAP4 SWAP2 SWAP3 SWAP1 SWAP2 PUSH1 0xFF AND SWAP1 DUP7 JUMP JUMPDEST PUSH1 0x40 DUP1 MLOAD PUSH1 0x1 PUSH1 0x1 PUSH1 0xA0 SHL SUB SWAP8 DUP9 AND DUP2 MSTORE SWAP7 SWAP1 SWAP6 AND PUSH1 0x20 DUP8 ADD MSTORE SWAP4 DUP6 ADD SWAP3 SWAP1 SWAP3 MSTORE PUSH1 0x60 DUP5 ADD MSTORE ISZERO ISZERO PUSH1 0x80 DUP4 ADD MSTORE PUSH1 0xA0 DUP3 ADD MSTORE PUSH1 0xC0 ADD PUSH2 0x3F6 JUMP JUMPDEST CALLVALUE DUP1 ISZERO PUSH2 0xCB2 JUMPI PUSH0 PUSH0 REVERT JUMPDEST POP PUSH2 0x3EC PUSH2 0x2710 DUP2 JUMP JUMPDEST CALLVALUE DUP1 ISZERO PUSH2 0xCC7 JUMPI PUSH0 PUSH0 REVERT JUMPDEST POP PUSH2 0xCF5 PUSH2 0xCD6 CALLDATASIZE PUSH1 0x4 PUSH2 0x4B11 JUMP JUMPDEST PUSH1 0x11 PUSH1 0x20 SWAP1 DUP2 MSTORE PUSH0 SWAP3 DUP4 MSTORE PUSH1 0x40 DUP1 DUP5 KECCAK256 SWAP1 SWAP2 MSTORE SWAP1 DUP3 MSTORE SWAP1 KECCAK256 SLOAD PUSH1 0xFF AND DUP2 JUMP JUMPDEST PUSH1 0x40 MLOAD PUSH1 0xFF SWAP1 SWAP2 AND DUP2 MSTORE PUSH1 0x20 ADD PUSH2 0x3F6 JUMP JUMPDEST CALLVALUE DUP1 ISZERO PUSH2 0xD12 JUMPI PUSH0 PUSH0 REVERT JUMPDEST POP PUSH2 0x41E PUSH2 0xD21 CALLDATASIZE PUSH1 0x4 PUSH2 0x47ED JUMP JUMPDEST PUSH2 0x3C81 JUMP JUMPDEST CALLVALUE DUP1 ISZERO PUSH2 0xD31 JUMPI PUSH0 PUSH0 REVERT JUMPDEST POP PUSH2 0xD9D PUSH2 0xD40 CALLDATASIZE PUSH1 0x4 PUSH2 0x47ED JUMP JUMPDEST PUSH1 0xE PUSH1 0x20 MSTORE PUSH0 SWAP1 DUP2 MSTORE PUSH1 0x40 SWAP1 KECCAK256 DUP1 SLOAD PUSH1 0x1 DUP3 ADD SLOAD PUSH1 0x2 DUP4 ADD SLOAD PUSH1 0x3 DUP5 ADD SLOAD PUSH1 0x4 DUP6 ADD SLOAD PUSH1 0x5 DUP7 ADD SLOAD PUSH1 0x6 DUP8 ADD SLOAD PUSH1 0x7 DUP9 ADD SLOAD PUSH1 0x8 SWAP1 SWAP9 ADD SLOAD PUSH1 0x1 PUSH1 0x1 PUSH1 0xA0 SHL SUB SWAP8 DUP9 AND SWAP9 SWAP7 DUP9 AND SWAP8 SWAP6 DUP7 AND SWAP7 SWAP5 SWAP6 SWAP1 SWAP4 AND SWAP4 SWAP2 SWAP3 SWAP1 SWAP2 SWAP1 PUSH1 0xFF AND DUP10 JUMP JUMPDEST PUSH1 0x40 DUP1 MLOAD PUSH1 0x1 PUSH1 0x1 PUSH1 0xA0 SHL SUB SWAP11 DUP12 AND DUP2 MSTORE SWAP9 DUP11 AND PUSH1 0x20 DUP11 ADD MSTORE SWAP7 DUP10 AND SWAP7 DUP9 ADD SWAP7 SWAP1 SWAP7 MSTORE PUSH1 0x60 DUP8 ADD SWAP5 SWAP1 SWAP5 MSTORE SWAP6 SWAP1 SWAP2 AND PUSH1 0x80 DUP6 ADD MSTORE PUSH1 0xA0 DUP5 ADD MSTORE PUSH1 0xC0 DUP4 ADD SWAP4 SWAP1 SWAP4 MSTORE PUSH1 0xE0 DUP3 ADD SWAP3 SWAP1 SWAP3 MSTORE SWAP1 ISZERO ISZERO PUSH2 0x100 DUP3 ADD MSTORE PUSH2 0x120 ADD PUSH2 0x3F6 JUMP JUMPDEST CALLVALUE DUP1 ISZERO PUSH2 0xE03 JUMPI PUSH0 PUSH0 REVERT JUMPDEST POP PUSH2 0xE64 PUSH2 0xE12 CALLDATASIZE PUSH1 0x4 PUSH2 0x47ED JUMP JUMPDEST PUSH1 0xC PUSH1 0x20 MSTORE PUSH0 SWAP1 DUP2 MSTORE PUSH1 0x40 SWAP1 KECCAK256 DUP1 SLOAD PUSH1 0x1 DUP3 ADD SLOAD PUSH1 0x2 DUP4 ADD SLOAD PUSH1 0x3 DUP5 ADD SLOAD PUSH1 0x4 DUP6 ADD SLOAD PUSH1 0x5 DUP7 ADD SLOAD PUSH1 0x6 DUP8 ADD SLOAD PUSH1 0x7 SWAP1 SWAP8 ADD SLOAD PUSH1 0x1 PUSH1 0x1 PUSH1 0xA0 SHL SUB SWAP7 DUP8 AND SWAP8 SWAP6 SWAP1 SWAP7 AND SWAP6 SWAP4 SWAP5 SWAP3 SWAP4 SWAP2 SWAP3 SWAP1 SWAP2 PUSH1 0xFF AND DUP9 JUMP JUMPDEST PUSH1 0x40 DUP1 MLOAD PUSH1 0x1 PUSH1 0x1 PUSH1 0xA0 SHL SUB SWAP10 DUP11 AND DUP2 MSTORE SWAP9 SWAP1 SWAP8 AND PUSH1 0x20 DUP10 ADD MSTORE SWAP6 DUP8 ADD SWAP5 SWAP1 SWAP5 MSTORE PUSH1 0x60 DUP7 ADD SWAP3 SWAP1 SWAP3 MSTORE PUSH1 0x80 DUP6 ADD MSTORE PUSH1 0xA0 DUP5 ADD MSTORE PUSH1 0xC0 DUP4 ADD MSTORE ISZERO ISZERO PUSH1 0xE0 DUP3 ADD MSTORE PUSH2 0x100 ADD PUSH2 0x3F6 JUMP JUMPDEST CALLVALUE DUP1 ISZERO PUSH2 0xEB7 JUMPI PUSH0 PUSH0 REVERT JUMPDEST POP PUSH2 0x41E PUSH2 0xEC6 CALLDATASIZE PUSH1 0x4 PUSH2 0x489D JUMP JUMPDEST PUSH2 0x3D3F JUMP JUMPDEST CALLVALUE DUP1 ISZERO PUSH2 0xED6 JUMPI PUSH0 PUSH0 REVERT JUMPDEST POP PUSH2 0x3EC PUSH2 0xEE5 CALLDATASIZE PUSH1 0x4 PUSH2 0x489D JUMP JUMPDEST PUSH1 0x14 PUSH1 0x20 MSTORE PUSH0 SWAP1 DUP2 MSTORE PUSH1 0x40 SWAP1 KECCAK256 SLOAD DUP2 JUMP JUMPDEST CALLVALUE DUP1 ISZERO PUSH2 0xF01 JUMPI PUSH0 PUSH0 REVERT JUMPDEST POP PUSH2 0x41E PUSH2 0xF10 CALLDATASIZE PUSH1 0x4 PUSH2 0x47ED JUMP JUMPDEST PUSH2 0x3D7E JUMP JUMPDEST PUSH0 PUSH2 0xF1E PUSH2 0x3E14 JUMP JUMPDEST PUSH2 0xF26 PUSH2 0x3E42 JUMP JUMPDEST DUP4 PUSH0 SUB PUSH2 0xF46 JUMPI PUSH1 0x40 MLOAD PUSH4 0x7294708F PUSH1 0xE1 SHL DUP2 MSTORE PUSH1 0x4 ADD PUSH1 0x40 MLOAD DUP1 SWAP2 SUB SWAP1 REVERT JUMPDEST DUP4 DUP4 LT PUSH2 0xF66 JUMPI PUSH1 0x40 MLOAD PUSH4 0x5E9E0DFD PUSH1 0xE0 SHL DUP2 MSTORE PUSH1 0x4 ADD PUSH1 0x40 MLOAD DUP1 SWAP2 SUB SWAP1 REVERT JUMPDEST PUSH2 0xE10 DUP3 LT DUP1 PUSH2 0xF78 JUMPI POP PUSH3 0x93A80 DUP3 GT JUMPDEST ISZERO PUSH2 0xF96 JUMPI PUSH1 0x40 MLOAD PUSH4 0x76166401 PUSH1 0xE0 SHL DUP2 MSTORE PUSH1 0x4 ADD PUSH1 0x40 MLOAD DUP1 SWAP2 SUB SWAP1 REVERT JUMPDEST PUSH1 0x40 MLOAD PUSH4 0x31A9108F PUSH1 0xE1 SHL DUP2 MSTORE PUSH1 0x4 DUP2 ADD DUP7 SWAP1 MSTORE DUP7 SWAP1 CALLER SWAP1 PUSH1 0x1 PUSH1 0x1 PUSH1 0xA0 SHL SUB DUP4 AND SWAP1 PUSH4 0x6352211E SWAP1 PUSH1 0x24 ADD PUSH1 0x20 PUSH1 0x40 MLOAD DUP1 DUP4 SUB DUP2 DUP7 GAS STATICCALL ISZERO DUP1 ISZERO PUSH2 0xFDD JUMPI RETURNDATASIZE PUSH0 PUSH0 RETURNDATACOPY RETURNDATASIZE PUSH0 REVERT JUMPDEST POP POP POP POP PUSH1 0x40 MLOAD RETURNDATASIZE PUSH1 0x1F NOT PUSH1 0x1F DUP3 ADD AND DUP3 ADD DUP1 PUSH1 0x40 MSTORE POP DUP2 ADD SWAP1 PUSH2 0x1001 SWAP2 SWAP1 PUSH2 0x4B34 JUMP JUMPDEST PUSH1 0x1 PUSH1 0x1 PUSH1 0xA0 SHL SUB AND EQ PUSH2 0x1028 JUMPI PUSH1 0x40 MLOAD PUSH4 0x59DC379F PUSH1 0xE0 SHL DUP2 MSTORE PUSH1 0x4 ADD PUSH1 0x40 MLOAD DUP1 SWAP2 SUB SWAP1 REVERT JUMPDEST PUSH1 0x40 MLOAD PUSH4 0x20604BF PUSH1 0xE2 SHL DUP2 MSTORE PUSH1 0x4 DUP2 ADD DUP8 SWAP1 MSTORE ADDRESS SWAP1 PUSH1 0x1 PUSH1 0x1 PUSH1 0xA0 SHL SUB DUP4 AND SWAP1 PUSH4 0x81812FC SWAP1 PUSH1 0x24 ADD PUSH1 0x20 PUSH1 0x40 MLOAD DUP1 DUP4 SUB DUP2 DUP7 GAS STATICCALL ISZERO DUP1 ISZERO PUSH2 0x106D JUMPI RETURNDATASIZE PUSH0 PUSH0 RETURNDATACOPY RETURNDATASIZE PUSH0 REVERT JUMPDEST POP POP POP POP PUSH1 0x40 MLOAD RETURNDATASIZE PUSH1 0x1F NOT PUSH1 0x1F DUP3 ADD AND DUP3 ADD DUP1 PUSH1 0x40 MSTORE POP DUP2 ADD SWAP1 PUSH2 0x1091 SWAP2 SWAP1 PUSH2 0x4B34 JUMP JUMPDEST PUSH1 0x1 PUSH1 0x1 PUSH1 0xA0 SHL SUB AND EQ ISZERO DUP1 ISZERO PUSH2 0x1111 JUMPI POP PUSH1 0x40 MLOAD PUSH4 0xE985E9C5 PUSH1 0xE0 SHL DUP2 MSTORE CALLER PUSH1 0x4 DUP3 ADD MSTORE ADDRESS PUSH1 0x24 DUP3 ADD MSTORE PUSH1 0x1 PUSH1 0x1 PUSH1 0xA0 SHL SUB DUP3 AND SWAP1 PUSH4 0xE985E9C5 SWAP1 PUSH1 0x44 ADD PUSH1 0x20 PUSH1 0x40 MLOAD DUP1 DUP4 SUB DUP2 DUP7 GAS STATICCALL ISZERO DUP1 ISZERO PUSH2 0x10EB JUMPI RETURNDATASIZE PUSH0 PUSH0 RETURNDATACOPY RETURNDATASIZE PUSH0 REVERT JUMPDEST POP POP POP POP PUSH1 0x40 MLOAD RETURNDATASIZE PUSH1 0x1F NOT PUSH1 0x1F DUP3 ADD AND DUP3 ADD DUP1 PUSH1 0x40 MSTORE POP DUP2 ADD SWAP1 PUSH2 0x110F SWAP2 SWAP1 PUSH2 0x4B4F JUMP JUMPDEST ISZERO JUMPDEST ISZERO PUSH2 0x112F JUMPI PUSH1 0x40 MLOAD PUSH4 0xA9248D25 PUSH1 0xE0 SHL DUP2 MSTORE PUSH1 0x4 ADD PUSH1 0x40 MLOAD DUP1 SWAP2 SUB SWAP1 REVERT JUMPDEST PUSH1 0x40 MLOAD PUSH4 0x23B872DD PUSH1 0xE0 SHL DUP2 MSTORE PUSH1 0x1 PUSH1 0x1 PUSH1 0xA0 SHL SUB DUP3 AND SWAP1 PUSH4 0x23B872DD SWAP1 PUSH2 0x115F SWAP1 CALLER SWAP1 ADDRESS SWAP1 DUP12 SWAP1 PUSH1 0x4 ADD PUSH2 0x4B6E JUMP JUMPDEST PUSH0 PUSH1 0x40 MLOAD DUP1 DUP4 SUB DUP2 PUSH0 DUP8 DUP1 EXTCODESIZE ISZERO DUP1 ISZERO PUSH2 0x1176 JUMPI PUSH0 PUSH0 REVERT JUMPDEST POP GAS CALL ISZERO DUP1 ISZERO PUSH2 0x1188 JUMPI RETURNDATASIZE PUSH0 PUSH0 RETURNDATACOPY RETURNDATASIZE PUSH0 REVERT JUMPDEST POP POP PUSH1 0x5 DUP1 SLOAD PUSH0 SWAP4 POP SWAP2 POP DUP3 PUSH2 0x119D DUP4 PUSH2 0x4BA6 JUMP JUMPDEST SWAP2 SWAP1 POP SSTORE SWAP1 POP PUSH1 0x40 MLOAD DUP1 PUSH2 0x100 ADD PUSH1 0x40 MSTORE DUP1 CALLER PUSH1 0x1 PUSH1 0x1 PUSH1 0xA0 SHL SUB AND DUP2 MSTORE PUSH1 0x20 ADD DUP10 PUSH1 0x1 PUSH1 0x1 PUSH1 0xA0 SHL SUB AND DUP2 MSTORE PUSH1 0x20 ADD DUP9 DUP2 MSTORE PUSH1 0x20 ADD DUP8 DUP2 MSTORE PUSH1 0x20 ADD DUP7 DUP2 MSTORE PUSH1 0x20 ADD TIMESTAMP DUP2 MSTORE PUSH1 0x20 ADD DUP6 TIMESTAMP PUSH2 0x11F1 SWAP2 SWAP1 PUSH2 0x4BBE JUMP JUMPDEST DUP2 MSTORE PUSH0 PUSH1 0x20 SWAP2 DUP3 ADD DUP2 SWAP1 MSTORE DUP4 DUP2 MSTORE PUSH1 0xC DUP3 MSTORE PUSH1 0x40 SWAP1 DUP2 SWAP1 KECCAK256 DUP4 MLOAD DUP2 SLOAD PUSH1 0x1 PUSH1 0x1 PUSH1 0xA0 SHL SUB NOT SWAP1 DUP2 AND PUSH1 0x1 PUSH1 0x1 PUSH1 0xA0 SHL SUB SWAP3 DUP4 AND OR DUP4 SSTORE SWAP4 DUP6 ADD MLOAD PUSH1 0x1 DUP4 ADD DUP1 SLOAD SWAP1 SWAP6 AND SWAP2 AND OR SWAP1 SWAP3 SSTORE DUP3 ADD MLOAD PUSH1 0x2 DUP3 ADD SSTORE PUSH1 0x60 DUP3 ADD MLOAD PUSH1 0x3 DUP3 ADD SSTORE PUSH1 0x80 DUP3 ADD MLOAD PUSH1 0x4 DUP3 ADD SSTORE PUSH1 0xA0 DUP3 ADD MLOAD PUSH1 0x5 DUP3 ADD SSTORE PUSH1 0xC0 DUP3 ADD MLOAD PUSH1 0x6 DUP3 ADD SSTORE PUSH1 0xE0 SWAP1 SWAP2 ADD MLOAD PUSH1 0x7 SWAP1 SWAP2 ADD DUP1 SLOAD PUSH1 0xFF NOT AND SWAP2 ISZERO ISZERO SWAP2 SWAP1 SWAP2 OR SWAP1 SSTORE CALLER DUP2 PUSH32 0x35FCDD210845C48FEBF8DC54033B59CADF5F93C028FB1230842033E4EA689799 DUP9 DUP9 PUSH2 0x12B3 DUP10 TIMESTAMP PUSH2 0x4BBE JUMP JUMPDEST PUSH1 0x40 DUP1 MLOAD SWAP4 DUP5 MSTORE PUSH1 0x20 DUP5 ADD SWAP3 SWAP1 SWAP3 MSTORE SWAP1 DUP3 ADD MSTORE PUSH1 0x60 ADD PUSH1 0x40 MLOAD DUP1 SWAP2 SUB SWAP1 LOG3 SWAP2 POP POP PUSH2 0x12DC PUSH2 0x3E6C JUMP JUMPDEST SWAP6 SWAP5 POP POP POP POP POP JUMP JUMPDEST PUSH2 0x12ED PUSH2 0x3E92 JUMP JUMPDEST PUSH2 0x3E8 DUP2 GT ISZERO PUSH2 0x1310 JUMPI PUSH1 0x40 MLOAD PUSH4 0xCD4E6167 PUSH1 0xE0 SHL DUP2 MSTORE PUSH1 0x4 ADD PUSH1 0x40 MLOAD DUP1 SWAP2 SUB SWAP1 REVERT JUMPDEST PUSH1 0x2 DUP2 SWAP1 SSTORE PUSH1 0x40 MLOAD DUP2 DUP2 MSTORE PUSH32 0x45610D581145924DD7090A5017E5F2B1D6F42213BB2E95707FF86846BBFCB1CA SWAP1 PUSH1 0x20 ADD PUSH1 0x40 MLOAD DUP1 SWAP2 SUB SWAP1 LOG1 POP JUMP JUMPDEST PUSH0 DUP2 DUP2 MSTORE PUSH1 0xC PUSH1 0x20 MSTORE PUSH1 0x40 DUP2 KECCAK256 PUSH1 0x6 DUP2 ADD SLOAD TIMESTAMP LT PUSH2 0x136D JUMPI PUSH1 0x4 ADD SLOAD SWAP3 SWAP2 POP POP JUMP JUMPDEST PUSH0 DUP2 PUSH1 0x5 ADD SLOAD TIMESTAMP PUSH2 0x137E SWAP2 SWAP1 PUSH2 0x4BD7 JUMP JUMPDEST SWAP1 POP PUSH0 DUP3 PUSH1 0x5 ADD SLOAD DUP4 PUSH1 0x6 ADD SLOAD PUSH2 0x1395 SWAP2 SWAP1 PUSH2 0x4BD7 JUMP JUMPDEST SWAP1 POP PUSH0 DUP2 DUP4 DUP6 PUSH1 0x4 ADD SLOAD DUP7 PUSH1 0x3 ADD SLOAD PUSH2 0x13AE SWAP2 SWAP1 PUSH2 0x4BD7 JUMP JUMPDEST PUSH2 0x13B8 SWAP2 SWAP1 PUSH2 0x4BEA JUMP JUMPDEST PUSH2 0x13C2 SWAP2 SWAP1 PUSH2 0x4C01 JUMP JUMPDEST SWAP1 POP DUP1 DUP5 PUSH1 0x3 ADD SLOAD PUSH2 0x13D4 SWAP2 SWAP1 PUSH2 0x4BD7 JUMP JUMPDEST SWAP7 SWAP6 POP POP POP POP POP POP JUMP JUMPDEST PUSH2 0x13E6 PUSH2 0x3E14 JUMP JUMPDEST PUSH2 0x13EE PUSH2 0x3E42 JUMP JUMPDEST PUSH0 DUP2 DUP2 MSTORE PUSH1 0xE PUSH1 0x20 MSTORE PUSH1 0x40 SWAP1 KECCAK256 PUSH1 0x8 DUP2 ADD SLOAD PUSH1 0xFF AND PUSH2 0x1420 JUMPI PUSH1 0x40 MLOAD PUSH4 0xCAC0F49D PUSH1 0xE0 SHL DUP2 MSTORE PUSH1 0x4 ADD PUSH1 0x40 MLOAD DUP1 SWAP2 SUB SWAP1 REVERT JUMPDEST PUSH1 0x1 DUP2 ADD SLOAD PUSH1 0x1 PUSH1 0x1 PUSH1 0xA0 SHL SUB AND CALLER EQ PUSH2 0x144D JUMPI PUSH1 0x40 MLOAD PUSH4 0x89F5AD61 PUSH1 0xE0 SHL DUP2 MSTORE PUSH1 0x4 ADD PUSH1 0x40 MLOAD DUP1 SWAP2 SUB SWAP1 REVERT JUMPDEST DUP1 PUSH1 0x7 ADD SLOAD TIMESTAMP GT ISZERO PUSH2 0x1472 JUMPI PUSH1 0x40 MLOAD PUSH4 0x2B32713D PUSH1 0xE0 SHL DUP2 MSTORE PUSH1 0x4 ADD PUSH1 0x40 MLOAD DUP1 SWAP2 SUB SWAP1 REVERT JUMPDEST PUSH1 0x4 DUP2 DUP2 ADD SLOAD PUSH1 0x5 DUP4 ADD SLOAD PUSH1 0x40 MLOAD PUSH4 0x31A9108F PUSH1 0xE1 SHL DUP2 MSTORE SWAP3 DUP4 ADD MSTORE PUSH1 0x1 PUSH1 0x1 PUSH1 0xA0 SHL SUB AND SWAP1 CALLER SWAP1 DUP3 SWAP1 PUSH4 0x6352211E SWAP1 PUSH1 0x24 ADD PUSH1 0x20 PUSH1 0x40 MLOAD DUP1 DUP4 SUB DUP2 DUP7 GAS STATICCALL ISZERO DUP1 ISZERO PUSH2 0x14C0 JUMPI RETURNDATASIZE PUSH0 PUSH0 RETURNDATACOPY RETURNDATASIZE PUSH0 REVERT JUMPDEST POP POP POP POP PUSH1 0x40 MLOAD RETURNDATASIZE PUSH1 0x1F NOT PUSH1 0x1F DUP3 ADD AND DUP3 ADD DUP1 PUSH1 0x40 MSTORE POP DUP2 ADD SWAP1 PUSH2 0x14E4 SWAP2 SWAP1 PUSH2 0x4B34 JUMP JUMPDEST PUSH1 0x1 PUSH1 0x1 PUSH1 0xA0 SHL SUB AND EQ PUSH2 0x150B JUMPI PUSH1 0x40 MLOAD PUSH4 0x59DC379F PUSH1 0xE0 SHL DUP2 MSTORE PUSH1 0x4 ADD PUSH1 0x40 MLOAD DUP1 SWAP2 SUB SWAP1 REVERT JUMPDEST PUSH1 0x5 DUP3 ADD SLOAD PUSH1 0x40 MLOAD PUSH4 0x20604BF PUSH1 0xE2 SHL DUP2 MSTORE ADDRESS SWAP2 PUSH1 0x1 PUSH1 0x1 PUSH1 0xA0 SHL SUB DUP5 AND SWAP2 PUSH4 0x81812FC SWAP2 PUSH2 0x1540 SWAP2 PUSH1 0x4 ADD SWAP1 DUP2 MSTORE PUSH1 0x20 ADD SWAP1 JUMP JUMPDEST PUSH1 0x20 PUSH1 0x40 MLOAD DUP1 DUP4 SUB DUP2 DUP7 GAS STATICCALL ISZERO DUP1 ISZERO PUSH2 0x155B JUMPI RETURNDATASIZE PUSH0 PUSH0 RETURNDATACOPY RETURNDATASIZE PUSH0 REVERT JUMPDEST POP POP POP POP PUSH1 0x40 MLOAD RETURNDATASIZE PUSH1 0x1F NOT PUSH1 0x1F DUP3 ADD AND DUP3 ADD DUP1 PUSH1 0x40 MSTORE POP DUP2 ADD SWAP1 PUSH2 0x157F SWAP2 SWAP1 PUSH2 0x4B34 JUMP JUMPDEST PUSH1 0x1 PUSH1 0x1 PUSH1 0xA0 SHL SUB AND EQ ISZERO DUP1 ISZERO PUSH2 0x15FF JUMPI POP PUSH1 0x40 MLOAD PUSH4 0xE985E9C5 PUSH1 0xE0 SHL DUP2 MSTORE CALLER PUSH1 0x4 DUP3 ADD MSTORE ADDRESS PUSH1 0x24 DUP3 ADD MSTORE PUSH1 0x1 PUSH1 0x1 PUSH1 0xA0 SHL SUB DUP3 AND SWAP1 PUSH4 0xE985E9C5 SWAP1 PUSH1 0x44 ADD PUSH1 0x20 PUSH1 0x40 MLOAD DUP1 DUP4 SUB DUP2 DUP7 GAS STATICCALL ISZERO DUP1 ISZERO PUSH2 0x15D9 JUMPI RETURNDATASIZE PUSH0 PUSH0 RETURNDATACOPY RETURNDATASIZE PUSH0 REVERT JUMPDEST POP POP POP POP PUSH1 0x40 MLOAD RETURNDATASIZE PUSH1 0x1F NOT PUSH1 0x1F DUP3 ADD AND DUP3 ADD DUP1 PUSH1 0x40 MSTORE POP DUP2 ADD SWAP1 PUSH2 0x15FD SWAP2 SWAP1 PUSH2 0x4B4F JUMP JUMPDEST ISZERO JUMPDEST ISZERO PUSH2 0x161D JUMPI PUSH1 0x40 MLOAD PUSH4 0xA9248D25 PUSH1 0xE0 SHL DUP2 MSTORE PUSH1 0x4 ADD PUSH1 0x40 MLOAD DUP1 SWAP2 SUB SWAP1 REVERT JUMPDEST PUSH1 0x8 DUP3 ADD DUP1 SLOAD PUSH1 0xFF NOT AND SWAP1 SSTORE PUSH1 0x6 DUP3 ADD SLOAD ISZERO PUSH2 0x165F JUMPI PUSH1 0x4 DUP3 ADD SLOAD PUSH1 0x5 DUP4 ADD SLOAD PUSH1 0x1 DUP5 ADD SLOAD PUSH1 0x6 DUP6 ADD SLOAD PUSH2 0x165F SWAP4 PUSH1 0x1 PUSH1 0x1 PUSH1 0xA0 SHL SUB SWAP1 DUP2 AND SWAP4 SWAP3 AND SWAP1 PUSH2 0x3EBE JUMP JUMPDEST PUSH1 0x2 DUP3 ADD SLOAD PUSH1 0x1 DUP4 ADD SLOAD PUSH1 0x3 DUP5 ADD SLOAD PUSH1 0x40 MLOAD PUSH4 0x21421707 PUSH1 0xE1 SHL DUP2 MSTORE PUSH1 0x1 PUSH1 0x1 PUSH1 0xA0 SHL SUB SWAP4 DUP5 AND SWAP4 PUSH4 0x42842E0E SWAP4 PUSH2 0x16A0 SWAP4 ADDRESS SWAP4 SWAP3 SWAP1 SWAP2 AND SWAP2 PUSH1 0x4 ADD PUSH2 0x4B6E JUMP JUMPDEST PUSH0 PUSH1 0x40 MLOAD DUP1 DUP4 SUB DUP2 PUSH0 DUP8 DUP1 EXTCODESIZE ISZERO DUP1 ISZERO PUSH2 0x16B7 JUMPI PUSH0 PUSH0 REVERT JUMPDEST POP GAS CALL ISZERO DUP1 ISZERO PUSH2 0x16C9 JUMPI RETURNDATASIZE PUSH0 PUSH0 RETURNDATACOPY RETURNDATASIZE PUSH0 REVERT JUMPDEST POP POP POP PUSH1 0x1 DUP4 ADD SLOAD DUP4 SLOAD PUSH1 0x5 DUP6 ADD SLOAD PUSH1 0x40 MLOAD PUSH4 0x21421707 PUSH1 0xE1 SHL DUP2 MSTORE PUSH1 0x1 PUSH1 0x1 PUSH1 0xA0 SHL SUB DUP1 DUP8 AND SWAP6 POP PUSH4 0x42842E0E SWAP5 PUSH2 0x170B SWAP5 SWAP1 DUP3 AND SWAP4 SWAP2 AND SWAP2 PUSH1 0x4 ADD PUSH2 0x4B6E JUMP JUMPDEST PUSH0 PUSH1 0x40 MLOAD DUP1 DUP4 SUB DUP2 PUSH0 DUP8 DUP1 EXTCODESIZE ISZERO DUP1 ISZERO PUSH2 0x1722 JUMPI PUSH0 PUSH0 REVERT JUMPDEST POP GAS CALL ISZERO DUP1 ISZERO PUSH2 0x1734 JUMPI RETURNDATASIZE PUSH0 PUSH0 RETURNDATACOPY RETURNDATASIZE PUSH0 REVERT JUMPDEST POP POP POP POP PUSH1 0x1 DUP3 ADD SLOAD DUP3 SLOAD PUSH1 0x2 DUP5 ADD SLOAD PUSH1 0x3 DUP6 ADD SLOAD PUSH2 0x1765 SWAP4 PUSH1 0x1 PUSH1 0x1 PUSH1 0xA0 SHL SUB SWAP1 DUP2 AND SWAP4 DUP2 AND SWAP3 AND SWAP1 PUSH1 0x4 PUSH2 0x4163 JUMP JUMPDEST PUSH1 0x40 MLOAD DUP4 SWAP1 PUSH32 0x8D92C805C252261FCFFF21EE60740EB8A38922469A7E6EE396976D57C22FC1C9 SWAP1 PUSH0 SWAP1 LOG2 POP POP PUSH2 0x1799 PUSH2 0x3E6C JUMP JUMPDEST POP JUMP JUMPDEST PUSH2 0x17A4 PUSH2 0x3E14 JUMP JUMPDEST PUSH2 0x17AC PUSH2 0x3E42 JUMP JUMPDEST PUSH0 DUP2 DUP2 MSTORE PUSH1 0xC PUSH1 0x20 MSTORE PUSH1 0x40 SWAP1 KECCAK256 PUSH1 0x7 DUP2 ADD SLOAD PUSH1 0xFF AND ISZERO PUSH2 0x17DF JUMPI PUSH1 0x40 MLOAD PUSH4 0x4B74DC97 PUSH1 0xE1 SHL DUP2 MSTORE PUSH1 0x4 ADD PUSH1 0x40 MLOAD DUP1 SWAP2 SUB SWAP1 REVERT JUMPDEST DUP1 SLOAD PUSH1 0x1 PUSH1 0x1 PUSH1 0xA0 SHL SUB AND CALLER SUB PUSH2 0x1809 JUMPI PUSH1 0x40 MLOAD PUSH4 0x2AA3C9E9 PUSH1 0xE0 SHL DUP2 MSTORE PUSH1 0x4 ADD PUSH1 0x40 MLOAD DUP1 SWAP2 SUB SWAP1 REVERT JUMPDEST PUSH0 PUSH2 0x1813 DUP4 PUSH2 0x134B JUMP JUMPDEST SWAP1 POP PUSH0 PUSH2 0x181F DUP3 PUSH2 0x4274 JUMP JUMPDEST SWAP1 POP DUP1 CALLVALUE LT ISZERO PUSH2 0x1842 JUMPI PUSH1 0x40 MLOAD PUSH4 0xCD1C8867 PUSH1 0xE0 SHL DUP2 MSTORE PUSH1 0x4 ADD PUSH1 0x40 MLOAD DUP1 SWAP2 SUB SWAP1 REVERT JUMPDEST PUSH1 0x7 DUP4 ADD DUP1 SLOAD PUSH1 0xFF NOT AND PUSH1 0x1 SWAP1 DUP2 OR SWAP1 SWAP2 SSTORE DUP4 ADD SLOAD PUSH1 0x2 DUP5 ADD SLOAD DUP5 SLOAD PUSH2 0x1876 SWAP3 PUSH1 0x1 PUSH1 0x1 PUSH1 0xA0 SHL SUB SWAP1 DUP2 AND SWAP3 SWAP2 AND DUP5 PUSH2 0x3EBE JUMP JUMPDEST PUSH0 PUSH2 0x1881 DUP3 CALLVALUE PUSH2 0x4BD7 JUMP JUMPDEST SWAP1 POP DUP1 ISZERO PUSH2 0x18AD JUMPI CALLER PUSH0 SWAP1 DUP2 MSTORE PUSH1 0x14 PUSH1 0x20 MSTORE PUSH1 0x40 DUP2 KECCAK256 DUP1 SLOAD DUP4 SWAP3 SWAP1 PUSH2 0x18A7 SWAP1 DUP5 SWAP1 PUSH2 0x4BBE JUMP JUMPDEST SWAP1 SWAP2 SSTORE POP POP JUMPDEST PUSH1 0x1 DUP5 ADD SLOAD PUSH1 0x2 DUP6 ADD SLOAD PUSH1 0x40 MLOAD PUSH4 0x21421707 PUSH1 0xE1 SHL DUP2 MSTORE PUSH1 0x1 PUSH1 0x1 PUSH1 0xA0 SHL SUB SWAP1 SWAP3 AND SWAP2 PUSH4 0x42842E0E SWAP2 PUSH2 0x18E6 SWAP2 ADDRESS SWAP2 CALLER SWAP2 PUSH1 0x4 ADD PUSH2 0x4B6E JUMP JUMPDEST PUSH0 PUSH1 0x40 MLOAD DUP1 DUP4 SUB DUP2 PUSH0 DUP8 DUP1 EXTCODESIZE ISZERO DUP1 ISZERO PUSH2 0x18FD JUMPI PUSH0 PUSH0 REVERT JUMPDEST POP GAS CALL ISZERO DUP1 ISZERO PUSH2 0x190F JUMPI RETURNDATASIZE PUSH0 PUSH0 RETURNDATACOPY RETURNDATASIZE PUSH0 REVERT JUMPDEST POP POP DUP6 SLOAD PUSH1 0x1 DUP8 ADD SLOAD PUSH1 0x2 DUP1 DUP10 ADD SLOAD PUSH2 0x193C SWAP6 POP CALLER SWAP5 POP PUSH1 0x1 PUSH1 0x1 PUSH1 0xA0 SHL SUB SWAP4 DUP5 AND SWAP4 SWAP1 SWAP3 AND SWAP2 SWAP1 PUSH2 0x4163 JUMP JUMPDEST PUSH1 0x40 DUP1 MLOAD DUP5 DUP2 MSTORE PUSH1 0x20 DUP2 ADD DUP5 SWAP1 MSTORE CALLER SWAP2 DUP8 SWAP2 PUSH32 0x8AF6336C121868ADF8C691A0FF68A8D1F4A926EFDECA3B662FBC6C7931B370A SWAP2 ADD JUMPDEST PUSH1 0x40 MLOAD DUP1 SWAP2 SUB SWAP1 LOG3 POP POP POP POP PUSH2 0x1799 PUSH2 0x3E6C JUMP JUMPDEST PUSH2 0x198E PUSH2 0x3E42 JUMP JUMPDEST PUSH0 DUP2 DUP2 MSTORE PUSH1 0xA PUSH1 0x20 MSTORE PUSH1 0x40 SWAP1 KECCAK256 PUSH1 0x4 DUP2 ADD SLOAD PUSH1 0xFF AND PUSH2 0x19C0 JUMPI PUSH1 0x40 MLOAD PUSH4 0x66CB03E9 PUSH1 0xE0 SHL DUP2 MSTORE PUSH1 0x4 ADD PUSH1 0x40 MLOAD DUP1 SWAP2 SUB SWAP1 REVERT JUMPDEST DUP1 SLOAD PUSH1 0x1 PUSH1 0x1 PUSH1 0xA0 SHL SUB AND CALLER EQ PUSH2 0x19EA JUMPI PUSH1 0x40 MLOAD PUSH4 0x22087F49 PUSH1 0xE1 SHL DUP2 MSTORE PUSH1 0x4 ADD PUSH1 0x40 MLOAD DUP1 SWAP2 SUB SWAP1 REVERT JUMPDEST PUSH1 0x4 DUP2 ADD DUP1 SLOAD PUSH1 0xFF NOT AND SWAP1 SSTORE PUSH1 0x40 MLOAD DUP3 SWAP1 PUSH32 0x411AEE90354C51B1B04CD563FCAB2617142A9D50DA19232D888547C8A1B7FD8A SWAP1 PUSH0 SWAP1 LOG2 POP POP JUMP JUMPDEST PUSH0 PUSH2 0x1A2D PUSH2 0x3E42 JUMP JUMPDEST PUSH2 0x1A39 DUP6 DUP6 DUP6 DUP6 PUSH2 0x435F JUMP JUMPDEST SWAP1 POP JUMPDEST SWAP5 SWAP4 POP POP POP POP JUMP JUMPDEST PUSH2 0x1A4C PUSH2 0x3E14 JUMP JUMPDEST CALLER PUSH0 SWAP1 DUP2 MSTORE PUSH1 0x14 PUSH1 0x20 MSTORE PUSH1 0x40 DUP2 KECCAK256 SLOAD SWAP1 DUP2 SWAP1 SUB PUSH2 0x1A7C JUMPI PUSH1 0x40 MLOAD PUSH4 0x686827B PUSH1 0xE5 SHL DUP2 MSTORE PUSH1 0x4 ADD PUSH1 0x40 MLOAD DUP1 SWAP2 SUB SWAP1 REVERT JUMPDEST CALLER PUSH0 DUP2 DUP2 MSTORE PUSH1 0x14 PUSH1 0x20 MSTORE PUSH1 0x40 DUP1 DUP3 KECCAK256 DUP3 SWAP1 SSTORE MLOAD SWAP1 SWAP2 SWAP1 DUP4 SWAP1 DUP4 DUP2 DUP2 DUP2 DUP6 DUP8 GAS CALL SWAP3 POP POP POP RETURNDATASIZE DUP1 PUSH0 DUP2 EQ PUSH2 0x1ACA JUMPI PUSH1 0x40 MLOAD SWAP2 POP PUSH1 0x1F NOT PUSH1 0x3F RETURNDATASIZE ADD AND DUP3 ADD PUSH1 0x40 MSTORE RETURNDATASIZE DUP3 MSTORE RETURNDATASIZE PUSH0 PUSH1 0x20 DUP5 ADD RETURNDATACOPY PUSH2 0x1ACF JUMP JUMPDEST PUSH1 0x60 SWAP2 POP JUMPDEST POP POP SWAP1 POP DUP1 PUSH2 0x1AF1 JUMPI PUSH1 0x40 MLOAD PUSH4 0x12171D83 PUSH1 0xE3 SHL DUP2 MSTORE PUSH1 0x4 ADD PUSH1 0x40 MLOAD DUP1 SWAP2 SUB SWAP1 REVERT JUMPDEST PUSH1 0x40 MLOAD DUP3 DUP2 MSTORE CALLER SWAP1 PUSH32 0x7084F5476618D8E60B11EF0D7D3F06914655ADB8793E28FF7F018D4C76D505D5 SWAP1 PUSH1 0x20 ADD PUSH1 0x40 MLOAD DUP1 SWAP2 SUB SWAP1 LOG2 POP POP PUSH2 0x1B30 PUSH2 0x3E6C JUMP JUMPDEST JUMP JUMPDEST PUSH2 0x1B3A PUSH2 0x3E92 JUMP JUMPDEST PUSH2 0x1B30 PUSH2 0x4649 JUMP JUMPDEST PUSH2 0x1B4A PUSH2 0x3E14 JUMP JUMPDEST PUSH2 0x1B52 PUSH2 0x3E42 JUMP JUMPDEST PUSH0 DUP2 DUP2 MSTORE PUSH1 0xA PUSH1 0x20 MSTORE PUSH1 0x40 SWAP1 KECCAK256 PUSH1 0x4 DUP2 ADD SLOAD PUSH1 0xFF AND PUSH2 0x1B84 JUMPI PUSH1 0x40 MLOAD PUSH4 0x66CB03E9 PUSH1 0xE0 SHL DUP2 MSTORE PUSH1 0x4 ADD PUSH1 0x40 MLOAD DUP1 SWAP2 SUB SWAP1 REVERT JUMPDEST PUSH1 0x5 DUP2 ADD SLOAD ISZERO DUP1 ISZERO SWAP1 PUSH2 0x1B9A JUMPI POP DUP1 PUSH1 0x5 ADD SLOAD TIMESTAMP GT JUMPDEST ISZERO PUSH2 0x1BB8 JUMPI PUSH1 0x40 MLOAD PUSH4 0x2EB19F9D PUSH1 0xE0 SHL DUP2 MSTORE PUSH1 0x4 ADD PUSH1 0x40 MLOAD DUP1 SWAP2 SUB SWAP1 REVERT JUMPDEST DUP1 SLOAD PUSH1 0x1 PUSH1 0x1 PUSH1 0xA0 SHL SUB AND CALLER SUB PUSH2 0x1BE2 JUMPI PUSH1 0x40 MLOAD PUSH4 0x2AA3C9E9 PUSH1 0xE0 SHL DUP2 MSTORE PUSH1 0x4 ADD PUSH1 0x40 MLOAD DUP1 SWAP2 SUB SWAP1 REVERT JUMPDEST PUSH0 PUSH2 0x1BF0 DUP3 PUSH1 0x3 ADD SLOAD PUSH2 0x4274 JUMP JUMPDEST SWAP1 POP DUP1 CALLVALUE LT ISZERO PUSH2 0x1C13 JUMPI PUSH1 0x40 MLOAD PUSH4 0xCD1C8867 PUSH1 0xE0 SHL DUP2 MSTORE PUSH1 0x4 ADD PUSH1 0x40 MLOAD DUP1 SWAP2 SUB SWAP1 REVERT JUMPDEST PUSH0 PUSH2 0x2710 PUSH2 0x1C22 PUSH1 0xC8 DUP5 PUSH2 0x4BEA JUMP JUMPDEST PUSH2 0x1C2C SWAP2 SWAP1 PUSH2 0x4C01 JUMP JUMPDEST PUSH2 0x1C36 SWAP1 DUP4 PUSH2 0x4BBE JUMP JUMPDEST SWAP1 POP DUP1 CALLVALUE GT ISZERO PUSH2 0x1C59 JUMPI PUSH1 0x40 MLOAD PUSH4 0x1E334873 PUSH1 0xE1 SHL DUP2 MSTORE PUSH1 0x4 ADD PUSH1 0x40 MLOAD DUP1 SWAP2 SUB SWAP1 REVERT JUMPDEST PUSH1 0x4 DUP4 ADD DUP1 SLOAD PUSH1 0xFF NOT AND SWAP1 SSTORE PUSH1 0x1 DUP4 ADD SLOAD PUSH1 0x2 DUP5 ADD SLOAD DUP5 SLOAD PUSH2 0x1C89 SWAP3 PUSH1 0x1 PUSH1 0x1 PUSH1 0xA0 SHL SUB SWAP1 DUP2 AND SWAP3 SWAP2 AND DUP6 PUSH2 0x3EBE JUMP JUMPDEST PUSH0 PUSH2 0x1C94 DUP4 CALLVALUE PUSH2 0x4BD7 JUMP JUMPDEST SWAP1 POP DUP1 ISZERO PUSH2 0x1CC0 JUMPI CALLER PUSH0 SWAP1 DUP2 MSTORE PUSH1 0x14 PUSH1 0x20 MSTORE PUSH1 0x40 DUP2 KECCAK256 DUP1 SLOAD DUP4 SWAP3 SWAP1 PUSH2 0x1CBA SWAP1 DUP5 SWAP1 PUSH2 0x4BBE JUMP JUMPDEST SWAP1 SWAP2 SSTORE POP POP JUMPDEST PUSH1 0x1 DUP5 ADD SLOAD DUP5 SLOAD PUSH1 0x2 DUP7 ADD SLOAD PUSH1 0x40 MLOAD PUSH4 0x21421707 PUSH1 0xE1 SHL DUP2 MSTORE PUSH1 0x1 PUSH1 0x1 PUSH1 0xA0 SHL SUB SWAP4 DUP5 AND SWAP4 PUSH4 0x42842E0E SWAP4 PUSH2 0x1CFD SWAP4 SWAP2 AND SWAP2 CALLER SWAP2 SWAP1 PUSH1 0x4 ADD PUSH2 0x4B6E JUMP JUMPDEST PUSH0 PUSH1 0x40 MLOAD DUP1 DUP4 SUB DUP2 PUSH0 DUP8 DUP1 EXTCODESIZE ISZERO DUP1 ISZERO PUSH2 0x1D14 JUMPI PUSH0 PUSH0 REVERT JUMPDEST POP GAS CALL ISZERO DUP1 ISZERO PUSH2 0x1D26 JUMPI RETURNDATASIZE PUSH0 PUSH0 RETURNDATACOPY RETURNDATASIZE PUSH0 REVERT JUMPDEST POP POP DUP6 SLOAD PUSH1 0x1 DUP8 ADD SLOAD PUSH1 0x2 DUP9 ADD SLOAD PUSH2 0x1D52 SWAP5 POP CALLER SWAP4 POP PUSH1 0x1 PUSH1 0x1 PUSH1 0xA0 SHL SUB SWAP3 DUP4 AND SWAP3 SWAP1 SWAP2 AND SWAP1 PUSH0 PUSH2 0x4163 JUMP JUMPDEST PUSH1 0x40 MLOAD DUP4 DUP2 MSTORE CALLER SWAP1 DUP7 SWAP1 PUSH32 0x66F5CD880EDF48CDDE6C966E5DA0784FCC4C5E85572B8B3B62C4357798D447D7 SWAP1 PUSH1 0x20 ADD PUSH2 0x1972 JUMP JUMPDEST PUSH2 0x1D8E PUSH2 0x3E14 JUMP JUMPDEST PUSH0 DUP2 DUP2 MSTORE PUSH1 0xE PUSH1 0x20 MSTORE PUSH1 0x40 SWAP1 KECCAK256 PUSH1 0x8 DUP2 ADD SLOAD PUSH1 0xFF AND PUSH2 0x1DC0 JUMPI PUSH1 0x40 MLOAD PUSH4 0xCAC0F49D PUSH1 0xE0 SHL DUP2 MSTORE PUSH1 0x4 ADD PUSH1 0x40 MLOAD DUP1 SWAP2 SUB SWAP1 REVERT JUMPDEST DUP1 SLOAD PUSH1 0x1 PUSH1 0x1 PUSH1 0xA0 SHL SUB AND CALLER EQ PUSH2 0x1DEA JUMPI PUSH1 0x40 MLOAD PUSH4 0x22087F49 PUSH1 0xE1 SHL DUP2 MSTORE PUSH1 0x4 ADD PUSH1 0x40 MLOAD DUP1 SWAP2 SUB SWAP1 REVERT JUMPDEST PUSH1 0x8 DUP2 ADD DUP1 SLOAD PUSH1 0xFF NOT AND SWAP1 SSTORE PUSH1 0x2 DUP2 ADD SLOAD DUP2 SLOAD PUSH1 0x3 DUP4 ADD SLOAD PUSH1 0x40 MLOAD PUSH4 0x21421707 PUSH1 0xE1 SHL DUP2 MSTORE PUSH1 0x1 PUSH1 0x1 PUSH1 0xA0 SHL SUB SWAP4 DUP5 AND SWAP4 PUSH4 0x42842E0E SWAP4 PUSH2 0x1E34 SWAP4 ADDRESS SWAP4 SWAP3 SWAP1 SWAP2 AND SWAP2 PUSH1 0x4 ADD PUSH2 0x4B6E JUMP JUMPDEST PUSH0 PUSH1 0x40 MLOAD DUP1 DUP4 SUB DUP2 PUSH0 DUP8 DUP1 EXTCODESIZE ISZERO DUP1 ISZERO PUSH2 0x1E4B JUMPI PUSH0 PUSH0 REVERT JUMPDEST POP GAS CALL ISZERO DUP1 ISZERO PUSH2 0x1E5D JUMPI RETURNDATASIZE PUSH0 PUSH0 RETURNDATACOPY RETURNDATASIZE PUSH0 REVERT JUMPDEST POP POP POP POP PUSH1 0x6 DUP2 ADD SLOAD ISZERO PUSH2 0x1E9E JUMPI PUSH1 0x6 DUP2 ADD SLOAD DUP2 SLOAD PUSH1 0x1 PUSH1 0x1 PUSH1 0xA0 SHL SUB AND PUSH0 SWAP1 DUP2 MSTORE PUSH1 0x14 PUSH1 0x20 MSTORE PUSH1 0x40 DUP2 KECCAK256 DUP1 SLOAD SWAP1 SWAP2 SWAP1 PUSH2 0x1E98 SWAP1 DUP5 SWAP1 PUSH2 0x4BBE JUMP JUMPDEST SWAP1 SWAP2 SSTORE POP POP JUMPDEST PUSH1 0x40 MLOAD DUP3 SWAP1 PUSH32 0xF6B6B4F7A13F02512C1B3AA8DCC4A07D7775A6A4BECBD439EFCBD37C5408E67F SWAP1 PUSH0 SWAP1 LOG2 POP PUSH2 0x1799 PUSH2 0x3E6C JUMP JUMPDEST PUSH0 PUSH2 0x1EDA PUSH2 0x3E14 JUMP JUMPDEST PUSH2 0x1EE2 PUSH2 0x3E42 JUMP JUMPDEST DUP3 PUSH0 SUB PUSH2 0x1F02 JUMPI PUSH1 0x40 MLOAD PUSH4 0x7294708F PUSH1 0xE1 SHL DUP2 MSTORE PUSH1 0x4 ADD PUSH1 0x40 MLOAD DUP1 SWAP2 SUB SWAP1 REVERT JUMPDEST PUSH2 0xE10 DUP3 LT DUP1 PUSH2 0x1F14 JUMPI POP PUSH3 0x93A80 DUP3 GT JUMPDEST ISZERO PUSH2 0x1F32 JUMPI PUSH1 0x40 MLOAD PUSH4 0x76166401 PUSH1 0xE0 SHL DUP2 MSTORE PUSH1 0x4 ADD PUSH1 0x40 MLOAD DUP1 SWAP2 SUB SWAP1 REVERT JUMPDEST PUSH1 0x40 MLOAD PUSH4 0x31A9108F PUSH1 0xE1 SHL DUP2 MSTORE PUSH1 0x4 DUP2 ADD DUP6 SWAP1 MSTORE DUP6 SWAP1 CALLER SWAP1 PUSH1 0x1 PUSH1 0x1 PUSH1 0xA0 SHL SUB DUP4 AND SWAP1 PUSH4 0x6352211E SWAP1 PUSH1 0x24 ADD PUSH1 0x20 PUSH1 0x40 MLOAD DUP1 DUP4 SUB DUP2 DUP7 GAS STATICCALL ISZERO DUP1 ISZERO PUSH2 0x1F79 JUMPI RETURNDATASIZE PUSH0 PUSH0 RETURNDATACOPY RETURNDATASIZE PUSH0 REVERT JUMPDEST POP POP POP POP PUSH1 0x40 MLOAD RETURNDATASIZE PUSH1 0x1F NOT PUSH1 0x1F DUP3 ADD AND DUP3 ADD DUP1 PUSH1 0x40 MSTORE POP DUP2 ADD SWAP1 PUSH2 0x1F9D SWAP2 SWAP1 PUSH2 0x4B34 JUMP JUMPDEST PUSH1 0x1 PUSH1 0x1 PUSH1 0xA0 SHL SUB AND EQ PUSH2 0x1FC4 JUMPI PUSH1 0x40 MLOAD PUSH4 0x59DC379F PUSH1 0xE0 SHL DUP2 MSTORE PUSH1 0x4 ADD PUSH1 0x40 MLOAD DUP1 SWAP2 SUB SWAP1 REVERT JUMPDEST PUSH1 0x40 MLOAD PUSH4 0x20604BF PUSH1 0xE2 SHL DUP2 MSTORE PUSH1 0x4 DUP2 ADD DUP7 SWAP1 MSTORE ADDRESS SWAP1 PUSH1 0x1 PUSH1 0x1 PUSH1 0xA0 SHL SUB DUP4 AND SWAP1 PUSH4 0x81812FC SWAP1 PUSH1 0x24 ADD PUSH1 0x20 PUSH1 0x40 MLOAD DUP1 DUP4 SUB DUP2 DUP7 GAS STATICCALL ISZERO DUP1 ISZERO PUSH2 0x2009 JUMPI RETURNDATASIZE PUSH0 PUSH0 RETURNDATACOPY RETURNDATASIZE PUSH0 REVERT JUMPDEST POP POP POP POP PUSH1 0x40 MLOAD RETURNDATASIZE PUSH1 0x1F NOT PUSH1 0x1F DUP3 ADD AND DUP3 ADD DUP1 PUSH1 0x40 MSTORE POP DUP2 ADD SWAP1 PUSH2 0x202D SWAP2 SWAP1 PUSH2 0x4B34 JUMP JUMPDEST PUSH1 0x1 PUSH1 0x1 PUSH1 0xA0 SHL SUB AND EQ ISZERO DUP1 ISZERO PUSH2 0x20AD JUMPI POP PUSH1 0x40 MLOAD PUSH4 0xE985E9C5 PUSH1 0xE0 SHL DUP2 MSTORE CALLER PUSH1 0x4 DUP3 ADD MSTORE ADDRESS PUSH1 0x24 DUP3 ADD MSTORE PUSH1 0x1 PUSH1 0x1 PUSH1 0xA0 SHL SUB DUP3 AND SWAP1 PUSH4 0xE985E9C5 SWAP1 PUSH1 0x44 ADD PUSH1 0x20 PUSH1 0x40 MLOAD DUP1 DUP4 SUB DUP2 DUP7 GAS STATICCALL ISZERO DUP1 ISZERO PUSH2 0x2087 JUMPI RETURNDATASIZE PUSH0 PUSH0 RETURNDATACOPY RETURNDATASIZE PUSH0 REVERT JUMPDEST POP POP POP POP PUSH1 0x40 MLOAD RETURNDATASIZE PUSH1 0x1F NOT PUSH1 0x1F DUP3 ADD AND DUP3 ADD DUP1 PUSH1 0x40 MSTORE POP DUP2 ADD SWAP1 PUSH2 0x20AB SWAP2 SWAP1 PUSH2 0x4B4F JUMP JUMPDEST ISZERO JUMPDEST ISZERO PUSH2 0x20CB JUMPI PUSH1 0x40 MLOAD PUSH4 0xA9248D25 PUSH1 0xE0 SHL DUP2 MSTORE PUSH1 0x4 ADD PUSH1 0x40 MLOAD DUP1 SWAP2 SUB SWAP1 REVERT JUMPDEST PUSH1 0x40 MLOAD PUSH4 0x23B872DD PUSH1 0xE0 SHL DUP2 MSTORE PUSH1 0x1 PUSH1 0x1 PUSH1 0xA0 SHL SUB DUP3 AND SWAP1 PUSH4 0x23B872DD SWAP1 PUSH2 0x20FB SWAP1 CALLER SWAP1 ADDRESS SWAP1 DUP11 SWAP1 PUSH1 0x4 ADD PUSH2 0x4B6E JUMP JUMPDEST PUSH0 PUSH1 0x40 MLOAD DUP1 DUP4 SUB DUP2 PUSH0 DUP8 DUP1 EXTCODESIZE ISZERO DUP1 ISZERO PUSH2 0x2112 JUMPI PUSH0 PUSH0 REVERT JUMPDEST POP GAS CALL ISZERO DUP1 ISZERO PUSH2 0x2124 JUMPI RETURNDATASIZE PUSH0 PUSH0 RETURNDATACOPY RETURNDATASIZE PUSH0 REVERT JUMPDEST POP POP PUSH1 0x4 DUP1 SLOAD PUSH0 SWAP4 POP SWAP2 POP DUP3 PUSH2 0x2139 DUP4 PUSH2 0x4BA6 JUMP JUMPDEST SWAP1 SWAP2 SSTORE POP PUSH1 0x40 DUP1 MLOAD PUSH2 0x100 DUP2 ADD DUP3 MSTORE CALLER DUP2 MSTORE PUSH1 0x1 PUSH1 0x1 PUSH1 0xA0 SHL SUB DUP11 AND PUSH1 0x20 DUP3 ADD MSTORE SWAP1 DUP2 ADD DUP9 SWAP1 MSTORE PUSH1 0x60 DUP2 ADD DUP8 SWAP1 MSTORE PUSH0 PUSH1 0x80 DUP3 ADD DUP2 SWAP1 MSTORE PUSH1 0xA0 DUP3 ADD MSTORE SWAP1 SWAP2 POP PUSH1 0xC0 DUP2 ADD PUSH2 0x2185 DUP7 TIMESTAMP PUSH2 0x4BBE JUMP JUMPDEST DUP2 MSTORE PUSH0 PUSH1 0x20 SWAP2 DUP3 ADD DUP2 SWAP1 MSTORE DUP4 DUP2 MSTORE PUSH1 0xB DUP3 MSTORE PUSH1 0x40 SWAP1 DUP2 SWAP1 KECCAK256 DUP4 MLOAD DUP2 SLOAD PUSH1 0x1 PUSH1 0x1 PUSH1 0xA0 SHL SUB NOT SWAP1 DUP2 AND PUSH1 0x1 PUSH1 0x1 PUSH1 0xA0 SHL SUB SWAP3 DUP4 AND OR DUP4 SSTORE SWAP4 DUP6 ADD MLOAD PUSH1 0x1 DUP4 ADD DUP1 SLOAD DUP7 AND SWAP2 DUP4 AND SWAP2 SWAP1 SWAP2 OR SWAP1 SSTORE SWAP2 DUP5 ADD MLOAD PUSH1 0x2 DUP3 ADD SSTORE PUSH1 0x60 DUP5 ADD MLOAD PUSH1 0x3 DUP3 ADD SSTORE PUSH1 0x80 DUP5 ADD MLOAD PUSH1 0x4 DUP3 ADD SSTORE PUSH1 0xA0 DUP5 ADD MLOAD PUSH1 0x5 DUP3 ADD DUP1 SLOAD SWAP1 SWAP5 AND SWAP1 DUP4 AND OR SWAP1 SWAP3 SSTORE PUSH1 0xC0 DUP4 ADD MLOAD PUSH1 0x6 DUP4 ADD SSTORE PUSH1 0xE0 SWAP1 SWAP3 ADD MLOAD PUSH1 0x7 SWAP1 SWAP2 ADD DUP1 SLOAD PUSH1 0xFF NOT AND SWAP2 ISZERO ISZERO SWAP2 SWAP1 SWAP2 OR SWAP1 SSTORE DUP8 AND CALLER DUP3 PUSH32 0x6B9E486C68303EB64052E0493F906F3D93A1B7149B6B8DCFF221AEBD16C3513 DUP10 DUP10 PUSH2 0x2257 DUP11 TIMESTAMP PUSH2 0x4BBE JUMP JUMPDEST PUSH1 0x40 DUP1 MLOAD SWAP4 DUP5 MSTORE PUSH1 0x20 DUP5 ADD SWAP3 SWAP1 SWAP3 MSTORE SWAP1 DUP3 ADD MSTORE PUSH1 0x60 ADD PUSH1 0x40 MLOAD DUP1 SWAP2 SUB SWAP1 LOG4 SWAP2 POP POP PUSH2 0x1A3C PUSH2 0x3E6C JUMP JUMPDEST PUSH1 0x9 SLOAD DUP3 LT PUSH2 0x22A2 JUMPI PUSH1 0x40 MLOAD PUSH4 0x71A2DE73 PUSH1 0xE1 SHL DUP2 MSTORE PUSH1 0x4 ADD PUSH1 0x40 MLOAD DUP1 SWAP2 SUB SWAP1 REVERT JUMPDEST PUSH1 0x1 DUP2 PUSH1 0xFF AND LT DUP1 PUSH2 0x22B7 JUMPI POP PUSH1 0x5 DUP2 PUSH1 0xFF AND GT JUMPDEST ISZERO PUSH2 0x22D5 JUMPI PUSH1 0x40 MLOAD PUSH4 0xD29DF2DD PUSH1 0xE0 SHL DUP2 MSTORE PUSH1 0x4 ADD PUSH1 0x40 MLOAD DUP1 SWAP2 SUB SWAP1 REVERT JUMPDEST PUSH0 DUP3 DUP2 MSTORE PUSH1 0x10 PUSH1 0x20 MSTORE PUSH1 0x40 SWAP1 KECCAK256 DUP1 SLOAD PUSH1 0x1 PUSH1 0x1 PUSH1 0xA0 SHL SUB AND CALLER EQ DUP1 ISZERO SWAP1 PUSH2 0x2309 JUMPI POP PUSH1 0x1 DUP2 ADD SLOAD PUSH1 0x1 PUSH1 0x1 PUSH1 0xA0 SHL SUB AND CALLER EQ ISZERO JUMPDEST ISZERO PUSH2 0x2327 JUMPI PUSH1 0x40 MLOAD PUSH4 0x3A77C795 PUSH1 0xE0 SHL DUP2 MSTORE PUSH1 0x4 ADD PUSH1 0x40 MLOAD DUP1 SWAP2 SUB SWAP1 REVERT JUMPDEST PUSH0 DUP4 DUP2 MSTORE PUSH1 0x11 PUSH1 0x20 SWAP1 DUP2 MSTORE PUSH1 0x40 DUP1 DUP4 KECCAK256 CALLER DUP5 MSTORE SWAP1 SWAP2 MSTORE SWAP1 KECCAK256 SLOAD PUSH1 0xFF AND ISZERO PUSH2 0x2361 JUMPI PUSH1 0x40 MLOAD PUSH4 0x894B2E9 PUSH1 0xE3 SHL DUP2 MSTORE PUSH1 0x4 ADD PUSH1 0x40 MLOAD DUP1 SWAP2 SUB SWAP1 REVERT JUMPDEST PUSH0 DUP4 DUP2 MSTORE PUSH1 0x11 PUSH1 0x20 SWAP1 DUP2 MSTORE PUSH1 0x40 DUP1 DUP4 KECCAK256 CALLER DUP1 DUP6 MSTORE SWAP3 MSTORE DUP3 KECCAK256 DUP1 SLOAD PUSH1 0xFF NOT AND PUSH1 0xFF DUP7 AND OR SWAP1 SSTORE DUP3 SLOAD PUSH1 0x1 PUSH1 0x1 PUSH1 0xA0 SHL SUB AND EQ PUSH2 0x23A6 JUMPI DUP2 SLOAD PUSH1 0x1 PUSH1 0x1 PUSH1 0xA0 SHL SUB AND PUSH2 0x23B5 JUMP JUMPDEST PUSH1 0x1 DUP3 ADD SLOAD PUSH1 0x1 PUSH1 0x1 PUSH1 0xA0 SHL SUB AND JUMPDEST PUSH1 0x1 PUSH1 0x1 PUSH1 0xA0 SHL SUB DUP2 AND PUSH0 SWAP1 DUP2 MSTORE PUSH1 0x12 PUSH1 0x20 MSTORE PUSH1 0x40 DUP2 KECCAK256 DUP1 SLOAD SWAP3 SWAP4 POP PUSH1 0xFF DUP7 AND SWAP3 SWAP1 SWAP2 SWAP1 PUSH2 0x23E4 SWAP1 DUP5 SWAP1 PUSH2 0x4BBE JUMP JUMPDEST SWAP1 SWAP2 SSTORE POP POP PUSH1 0x1 PUSH1 0x1 PUSH1 0xA0 SHL SUB DUP2 AND PUSH0 SWAP1 DUP2 MSTORE PUSH1 0x13 PUSH1 0x20 MSTORE PUSH1 0x40 DUP2 KECCAK256 DUP1 SLOAD SWAP2 PUSH2 0x240C DUP4 PUSH2 0x4BA6 JUMP JUMPDEST SWAP1 SWAP2 SSTORE POP POP PUSH1 0x40 MLOAD PUSH1 0xFF DUP5 AND DUP2 MSTORE CALLER SWAP1 DUP6 SWAP1 PUSH32 0x83B6602B03E2F268ED881C9E0005168DDAF87439D1C711F59C4B50AAF799DBA SWAP1 PUSH1 0x20 ADD PUSH1 0x40 MLOAD DUP1 SWAP2 SUB SWAP1 LOG3 POP POP POP POP JUMP JUMPDEST PUSH2 0x2459 PUSH2 0x3E92 JUMP JUMPDEST PUSH2 0x1B30 PUSH0 PUSH2 0x469D JUMP JUMPDEST PUSH2 0x246A PUSH2 0x3E92 JUMP JUMPDEST PUSH1 0x1 PUSH1 0x1 PUSH1 0xA0 SHL SUB DUP2 AND PUSH2 0x2491 JUMPI PUSH1 0x40 MLOAD PUSH4 0x3E1E5381 PUSH1 0xE2 SHL DUP2 MSTORE PUSH1 0x4 ADD PUSH1 0x40 MLOAD DUP1 SWAP2 SUB SWAP1 REVERT JUMPDEST PUSH1 0x1 DUP1 SLOAD PUSH1 0x1 PUSH1 0x1 PUSH1 0xA0 SHL SUB NOT AND PUSH1 0x1 PUSH1 0x1 PUSH1 0xA0 SHL SUB DUP4 AND SWAP1 DUP2 OR SWAP1 SWAP2 SSTORE PUSH1 0x40 MLOAD PUSH32 0x3DF77BEB5DB05FCDD70A30FC8ADF3F83F9501B68579455ADBD100B8180940394 SWAP1 PUSH0 SWAP1 LOG2 POP JUMP JUMPDEST PUSH0 PUSH2 0x24E3 PUSH2 0x3E42 JUMP JUMPDEST CALLVALUE PUSH0 SUB PUSH2 0x2503 JUMPI PUSH1 0x40 MLOAD PUSH4 0x7294708F PUSH1 0xE1 SHL DUP2 MSTORE PUSH1 0x4 ADD PUSH1 0x40 MLOAD DUP1 SWAP2 SUB SWAP1 REVERT JUMPDEST PUSH2 0xE10 DUP3 LT DUP1 PUSH2 0x2515 JUMPI POP PUSH3 0x93A80 DUP3 GT JUMPDEST ISZERO PUSH2 0x2533 JUMPI PUSH1 0x40 MLOAD PUSH4 0x76166401 PUSH1 0xE0 SHL DUP2 MSTORE PUSH1 0x4 ADD PUSH1 0x40 MLOAD DUP1 SWAP2 SUB SWAP1 REVERT JUMPDEST PUSH1 0x6 DUP1 SLOAD PUSH0 SWAP2 DUP3 PUSH2 0x2543 DUP4 PUSH2 0x4BA6 JUMP JUMPDEST SWAP1 SWAP2 SSTORE POP PUSH1 0x40 DUP1 MLOAD PUSH1 0xC0 DUP2 ADD DUP3 MSTORE CALLER DUP2 MSTORE PUSH1 0x1 PUSH1 0x1 PUSH1 0xA0 SHL SUB DUP9 AND PUSH1 0x20 DUP3 ADD MSTORE SWAP1 DUP2 ADD DUP7 SWAP1 MSTORE CALLVALUE PUSH1 0x60 DUP3 ADD MSTORE SWAP1 SWAP2 POP PUSH1 0x80 DUP2 ADD PUSH2 0x2580 DUP6 TIMESTAMP PUSH2 0x4BBE JUMP JUMPDEST DUP2 MSTORE PUSH1 0x1 PUSH1 0x20 SWAP2 DUP3 ADD DUP2 SWAP1 MSTORE PUSH0 DUP5 DUP2 MSTORE PUSH1 0xD DUP4 MSTORE PUSH1 0x40 SWAP1 DUP2 SWAP1 KECCAK256 DUP5 MLOAD DUP2 SLOAD PUSH1 0x1 PUSH1 0x1 PUSH1 0xA0 SHL SUB NOT SWAP1 DUP2 AND PUSH1 0x1 PUSH1 0x1 PUSH1 0xA0 SHL SUB SWAP3 DUP4 AND OR DUP4 SSTORE SWAP5 DUP7 ADD MLOAD SWAP4 DUP3 ADD DUP1 SLOAD SWAP1 SWAP6 AND SWAP4 AND SWAP3 SWAP1 SWAP3 OR SWAP1 SWAP3 SSTORE SWAP1 DUP3 ADD MLOAD PUSH1 0x2 DUP3 ADD SSTORE PUSH1 0x60 DUP3 ADD MLOAD PUSH1 0x3 DUP3 ADD SSTORE PUSH1 0x80 DUP3 ADD MLOAD PUSH1 0x4 DUP3 ADD SSTORE PUSH1 0xA0 SWAP1 SWAP2 ADD MLOAD PUSH1 0x5 SWAP1 SWAP2 ADD DUP1 SLOAD PUSH1 0xFF NOT AND SWAP2 ISZERO ISZERO SWAP2 SWAP1 SWAP2 OR SWAP1 SSTORE CALLER DUP2 PUSH32 0x1A8E4806E9C3198B224BF5FD328BA7488EE72334BA823076CF52DBFCE562FFAE DUP8 DUP8 CALLVALUE PUSH2 0x2634 DUP10 TIMESTAMP PUSH2 0x4BBE JUMP JUMPDEST PUSH1 0x40 DUP1 MLOAD PUSH1 0x1 PUSH1 0x1 PUSH1 0xA0 SHL SUB SWAP1 SWAP6 AND DUP6 MSTORE PUSH1 0x20 DUP6 ADD SWAP4 SWAP1 SWAP4 MSTORE SWAP2 DUP4 ADD MSTORE PUSH1 0x60 DUP3 ADD MSTORE PUSH1 0x80 ADD PUSH1 0x40 MLOAD DUP1 SWAP2 SUB SWAP1 LOG3 SWAP5 SWAP4 POP POP POP POP JUMP JUMPDEST PUSH2 0x2671 PUSH2 0x3E92 JUMP JUMPDEST PUSH2 0x1B30 PUSH2 0x46EC JUMP JUMPDEST PUSH0 PUSH2 0x2682 PUSH2 0x3E42 JUMP JUMPDEST DUP3 PUSH0 SUB PUSH2 0x26A2 JUMPI PUSH1 0x40 MLOAD PUSH4 0x7294708F PUSH1 0xE1 SHL DUP2 MSTORE PUSH1 0x4 ADD PUSH1 0x40 MLOAD DUP1 SWAP2 SUB SWAP1 REVERT JUMPDEST DUP2 PUSH0 SUB PUSH2 0x26C2 JUMPI PUSH1 0x40 MLOAD PUSH4 0x1EE18907 PUSH1 0xE1 SHL DUP2 MSTORE PUSH1 0x4 ADD PUSH1 0x40 MLOAD DUP1 SWAP2 SUB SWAP1 REVERT JUMPDEST PUSH1 0x40 MLOAD PUSH4 0x31A9108F PUSH1 0xE1 SHL DUP2 MSTORE PUSH1 0x4 DUP2 ADD DUP6 SWAP1 MSTORE DUP6 SWAP1 CALLER SWAP1 PUSH1 0x1 PUSH1 0x1 PUSH1 0xA0 SHL SUB DUP4 AND SWAP1 PUSH4 0x6352211E SWAP1 PUSH1 0x24 ADD PUSH1 0x20 PUSH1 0x40 MLOAD DUP1 DUP4 SUB DUP2 DUP7 GAS STATICCALL ISZERO DUP1 ISZERO PUSH2 0x2709 JUMPI RETURNDATASIZE PUSH0 PUSH0 RETURNDATACOPY RETURNDATASIZE PUSH0 REVERT JUMPDEST POP POP POP POP PUSH1 0x40 MLOAD RETURNDATASIZE PUSH1 0x1F NOT PUSH1 0x1F DUP3 ADD AND DUP3 ADD DUP1 PUSH1 0x40 MSTORE POP DUP2 ADD SWAP1 PUSH2 0x272D SWAP2 SWAP1 PUSH2 0x4B34 JUMP JUMPDEST PUSH1 0x1 PUSH1 0x1 PUSH1 0xA0 SHL SUB AND EQ PUSH2 0x2754 JUMPI PUSH1 0x40 MLOAD PUSH4 0x59DC379F PUSH1 0xE0 SHL DUP2 MSTORE PUSH1 0x4 ADD PUSH1 0x40 MLOAD DUP1 SWAP2 SUB SWAP1 REVERT JUMPDEST PUSH1 0x40 MLOAD PUSH4 0x20604BF PUSH1 0xE2 SHL DUP2 MSTORE PUSH1 0x4 DUP2 ADD DUP7 SWAP1 MSTORE ADDRESS SWAP1 PUSH1 0x1 PUSH1 0x1 PUSH1 0xA0 SHL SUB DUP4 AND SWAP1 PUSH4 0x81812FC SWAP1 PUSH1 0x24 ADD PUSH1 0x20 PUSH1 0x40 MLOAD DUP1 DUP4 SUB DUP2 DUP7 GAS STATICCALL ISZERO DUP1 ISZERO PUSH2 0x2799 JUMPI RETURNDATASIZE PUSH0 PUSH0 RETURNDATACOPY RETURNDATASIZE PUSH0 REVERT JUMPDEST POP POP POP POP PUSH1 0x40 MLOAD RETURNDATASIZE PUSH1 0x1F NOT PUSH1 0x1F DUP3 ADD AND DUP3 ADD DUP1 PUSH1 0x40 MSTORE POP DUP2 ADD SWAP1 PUSH2 0x27BD SWAP2 SWAP1 PUSH2 0x4B34 JUMP JUMPDEST PUSH1 0x1 PUSH1 0x1 PUSH1 0xA0 SHL SUB AND EQ ISZERO DUP1 ISZERO PUSH2 0x283D JUMPI POP PUSH1 0x40 MLOAD PUSH4 0xE985E9C5 PUSH1 0xE0 SHL DUP2 MSTORE CALLER PUSH1 0x4 DUP3 ADD MSTORE ADDRESS PUSH1 0x24 DUP3 ADD MSTORE PUSH1 0x1 PUSH1 0x1 PUSH1 0xA0 SHL SUB DUP3 AND SWAP1 PUSH4 0xE985E9C5 SWAP1 PUSH1 0x44 ADD PUSH1 0x20 PUSH1 0x40 MLOAD DUP1 DUP4 SUB DUP2 DUP7 GAS STATICCALL ISZERO DUP1 ISZERO PUSH2 0x2817 JUMPI RETURNDATASIZE PUSH0 PUSH0 RETURNDATACOPY RETURNDATASIZE PUSH0 REVERT JUMPDEST POP POP POP POP PUSH1 0x40 MLOAD RETURNDATASIZE PUSH1 0x1F NOT PUSH1 0x1F DUP3 ADD AND DUP3 ADD DUP1 PUSH1 0x40 MSTORE POP DUP2 ADD SWAP1 PUSH2 0x283B SWAP2 SWAP1 PUSH2 0x4B4F JUMP JUMPDEST ISZERO JUMPDEST ISZERO PUSH2 0x285B JUMPI PUSH1 0x40 MLOAD PUSH4 0xA9248D25 PUSH1 0xE0 SHL DUP2 MSTORE PUSH1 0x4 ADD PUSH1 0x40 MLOAD DUP1 SWAP2 SUB SWAP1 REVERT JUMPDEST PUSH1 0x8 DUP1 SLOAD PUSH0 SWAP2 DUP3 PUSH2 0x286B DUP4 PUSH2 0x4BA6 JUMP JUMPDEST SWAP1 SWAP2 SSTORE POP PUSH1 0x40 DUP1 MLOAD PUSH1 0xC0 DUP2 ADD DUP3 MSTORE CALLER DUP1 DUP3 MSTORE PUSH1 0x1 PUSH1 0x1 PUSH1 0xA0 SHL SUB DUP12 DUP2 AND PUSH1 0x20 DUP1 DUP6 ADD SWAP2 DUP3 MSTORE DUP5 DUP7 ADD DUP14 DUP2 MSTORE PUSH1 0x60 DUP7 ADD DUP14 DUP2 MSTORE PUSH1 0x80 DUP8 ADD DUP14 DUP2 MSTORE PUSH1 0x1 PUSH1 0xA0 DUP10 ADD DUP2 DUP2 MSTORE PUSH0 DUP13 DUP2 MSTORE PUSH1 0xF SWAP1 SWAP7 MSTORE SWAP5 DUP11 SWAP1 KECCAK256 SWAP9 MLOAD DUP10 SLOAD SWAP1 DUP9 AND PUSH1 0x1 PUSH1 0x1 PUSH1 0xA0 SHL SUB NOT SWAP2 DUP3 AND OR DUP11 SSTORE SWAP6 MLOAD SWAP1 DUP10 ADD DUP1 SLOAD SWAP2 SWAP1 SWAP8 AND SWAP6 AND SWAP5 SWAP1 SWAP5 OR SWAP1 SWAP5 SSTORE MLOAD PUSH1 0x2 DUP7 ADD SSTORE SWAP2 MLOAD PUSH1 0x3 DUP6 ADD SSTORE MLOAD PUSH1 0x4 DUP5 ADD SSTORE MLOAD PUSH1 0x5 SWAP1 SWAP3 ADD DUP1 SLOAD SWAP3 ISZERO ISZERO PUSH1 0xFF NOT SWAP1 SWAP4 AND SWAP3 SWAP1 SWAP3 OR SWAP1 SWAP2 SSTORE SWAP1 MLOAD SWAP2 SWAP3 POP SWAP1 DUP3 SWAP1 PUSH32 0xF151287B445D27402A6FEDC75B6FDA02B446255392606788F176A0ABC6E80184 SWAP1 PUSH2 0x296B SWAP1 DUP12 SWAP1 DUP12 SWAP1 DUP12 SWAP1 DUP12 SWAP1 PUSH1 0x1 PUSH1 0x1 PUSH1 0xA0 SHL SUB SWAP5 SWAP1 SWAP5 AND DUP5 MSTORE PUSH1 0x20 DUP5 ADD SWAP3 SWAP1 SWAP3 MSTORE PUSH1 0x40 DUP4 ADD MSTORE PUSH1 0x60 DUP3 ADD MSTORE PUSH1 0x80 ADD SWAP1 JUMP JUMPDEST PUSH1 0x40 MLOAD DUP1 SWAP2 SUB SWAP1 LOG3 SWAP7 SWAP6 POP POP POP POP POP POP JUMP JUMPDEST PUSH2 0x2985 PUSH2 0x3E14 JUMP JUMPDEST PUSH2 0x298D PUSH2 0x3E42 JUMP JUMPDEST PUSH0 DUP3 DUP2 MSTORE PUSH1 0xF PUSH1 0x20 MSTORE PUSH1 0x40 SWAP1 KECCAK256 PUSH1 0x5 DUP2 ADD SLOAD PUSH1 0xFF AND PUSH2 0x29BF JUMPI PUSH1 0x40 MLOAD PUSH4 0x24868747 PUSH1 0xE0 SHL DUP2 MSTORE PUSH1 0x4 ADD PUSH1 0x40 MLOAD DUP1 SWAP2 SUB SWAP1 REVERT JUMPDEST DUP2 ISZERO DUP1 PUSH2 0x29CF JUMPI POP DUP1 PUSH1 0x4 ADD SLOAD DUP3 GT JUMPDEST ISZERO PUSH2 0x29ED JUMPI PUSH1 0x40 MLOAD PUSH4 0x1EE18907 PUSH1 0xE1 SHL DUP2 MSTORE PUSH1 0x4 ADD PUSH1 0x40 MLOAD DUP1 SWAP2 SUB SWAP1 REVERT JUMPDEST DUP1 SLOAD PUSH1 0x1 PUSH1 0x1 PUSH1 0xA0 SHL SUB AND CALLER SUB PUSH2 0x2A17 JUMPI PUSH1 0x40 MLOAD PUSH4 0x2AA3C9E9 PUSH1 0xE0 SHL DUP2 MSTORE PUSH1 0x4 ADD PUSH1 0x40 MLOAD DUP1 SWAP2 SUB SWAP1 REVERT JUMPDEST PUSH0 DUP3 DUP3 PUSH1 0x3 ADD SLOAD PUSH2 0x2A28 SWAP2 SWAP1 PUSH2 0x4BEA JUMP JUMPDEST SWAP1 POP PUSH0 PUSH2 0x2A34 DUP3 PUSH2 0x4274 JUMP JUMPDEST SWAP1 POP DUP1 CALLVALUE LT ISZERO PUSH2 0x2A57 JUMPI PUSH1 0x40 MLOAD PUSH4 0xCD1C8867 PUSH1 0xE0 SHL DUP2 MSTORE PUSH1 0x4 ADD PUSH1 0x40 MLOAD DUP1 SWAP2 SUB SWAP1 REVERT JUMPDEST PUSH0 PUSH2 0x2710 PUSH2 0x2A66 PUSH1 0xC8 DUP5 PUSH2 0x4BEA JUMP JUMPDEST PUSH2 0x2A70 SWAP2 SWAP1 PUSH2 0x4C01 JUMP JUMPDEST PUSH2 0x2A7A SWAP1 DUP4 PUSH2 0x4BBE JUMP JUMPDEST SWAP1 POP DUP1 CALLVALUE GT ISZERO PUSH2 0x2A9D JUMPI PUSH1 0x40 MLOAD PUSH4 0x1E334873 PUSH1 0xE1 SHL DUP2 MSTORE PUSH1 0x4 ADD PUSH1 0x40 MLOAD DUP1 SWAP2 SUB SWAP1 REVERT JUMPDEST PUSH0 PUSH2 0x2AAB DUP7 PUSH3 0x15180 PUSH2 0x4BEA JUMP JUMPDEST PUSH2 0x2AB5 SWAP1 TIMESTAMP PUSH2 0x4BBE JUMP JUMPDEST PUSH1 0x1 DUP7 ADD SLOAD PUSH1 0x2 DUP8 ADD SLOAD PUSH1 0x40 MLOAD PUSH4 0x70182B2F PUSH1 0xE1 SHL DUP2 MSTORE PUSH1 0x4 DUP2 ADD SWAP2 SWAP1 SWAP2 MSTORE CALLER PUSH1 0x24 DUP3 ADD MSTORE PUSH8 0xFFFFFFFFFFFFFFFF DUP4 AND PUSH1 0x44 DUP3 ADD MSTORE SWAP2 SWAP3 POP PUSH1 0x1 PUSH1 0x1 PUSH1 0xA0 SHL SUB AND SWAP1 PUSH4 0xE030565E SWAP1 PUSH1 0x64 ADD PUSH0 PUSH1 0x40 MLOAD DUP1 DUP4 SUB DUP2 PUSH0 DUP8 DUP1 EXTCODESIZE ISZERO DUP1 ISZERO PUSH2 0x2B17 JUMPI PUSH0 PUSH0 REVERT JUMPDEST POP GAS CALL ISZERO DUP1 ISZERO PUSH2 0x2B29 JUMPI RETURNDATASIZE PUSH0 PUSH0 RETURNDATACOPY RETURNDATASIZE PUSH0 REVERT JUMPDEST POP POP POP PUSH1 0x1 DUP7 ADD SLOAD PUSH1 0x2 DUP8 ADD SLOAD DUP8 SLOAD PUSH2 0x2B50 SWAP4 POP PUSH1 0x1 PUSH1 0x1 PUSH1 0xA0 SHL SUB SWAP3 DUP4 AND SWAP3 AND DUP7 PUSH2 0x3EBE JUMP JUMPDEST PUSH0 PUSH2 0x2B5B DUP5 CALLVALUE PUSH2 0x4BD7 JUMP JUMPDEST SWAP1 POP DUP1 ISZERO PUSH2 0x2B87 JUMPI CALLER PUSH0 SWAP1 DUP2 MSTORE PUSH1 0x14 PUSH1 0x20 MSTORE PUSH1 0x40 DUP2 KECCAK256 DUP1 SLOAD DUP4 SWAP3 SWAP1 PUSH2 0x2B81 SWAP1 DUP5 SWAP1 PUSH2 0x4BBE JUMP JUMPDEST SWAP1 SWAP2 SSTORE POP POP JUMPDEST DUP6 SLOAD PUSH1 0x1 DUP8 ADD SLOAD PUSH1 0x2 DUP9 ADD SLOAD PUSH2 0x2BAF SWAP3 CALLER SWAP3 PUSH1 0x1 PUSH1 0x1 PUSH1 0xA0 SHL SUB SWAP2 DUP3 AND SWAP3 SWAP2 AND SWAP1 PUSH1 0x5 PUSH2 0x4163 JUMP JUMPDEST PUSH1 0x40 DUP1 MLOAD DUP9 DUP2 MSTORE PUSH1 0x20 DUP2 ADD DUP7 SWAP1 MSTORE CALLER SWAP2 DUP11 SWAP2 PUSH32 0x540E39B4120DC879102357B1015E8BD642C62615C854E26DF377834EBCD23657 SWAP2 ADD PUSH1 0x40 MLOAD DUP1 SWAP2 SUB SWAP1 LOG3 POP POP POP POP POP POP PUSH2 0x2BFA PUSH2 0x3E6C JUMP JUMPDEST POP POP JUMP JUMPDEST PUSH0 DUP2 DUP2 MSTORE PUSH1 0xB PUSH1 0x20 MSTORE PUSH1 0x40 SWAP1 KECCAK256 PUSH1 0x7 DUP2 ADD SLOAD PUSH1 0xFF AND ISZERO PUSH2 0x2C31 JUMPI PUSH1 0x40 MLOAD PUSH4 0xD02E774D PUSH1 0xE0 SHL DUP2 MSTORE PUSH1 0x4 ADD PUSH1 0x40 MLOAD DUP1 SWAP2 SUB SWAP1 REVERT JUMPDEST DUP1 SLOAD PUSH1 0x1 PUSH1 0x1 PUSH1 0xA0 SHL SUB AND CALLER EQ PUSH2 0x2C5B JUMPI PUSH1 0x40 MLOAD PUSH4 0x22087F49 PUSH1 0xE1 SHL DUP2 MSTORE PUSH1 0x4 ADD PUSH1 0x40 MLOAD DUP1 SWAP2 SUB SWAP1 REVERT JUMPDEST PUSH1 0x5 DUP2 ADD SLOAD PUSH1 0x1 PUSH1 0x1 PUSH1 0xA0 SHL SUB AND ISZERO PUSH2 0x2C87 JUMPI PUSH1 0x40 MLOAD PUSH4 0x35473ACB PUSH1 0xE0 SHL DUP2 MSTORE PUSH1 0x4 ADD PUSH1 0x40 MLOAD DUP1 SWAP2 SUB SWAP1 REVERT JUMPDEST PUSH1 0x7 DUP2 ADD DUP1 SLOAD PUSH1 0xFF NOT AND PUSH1 0x1 SWAP1 DUP2 OR SWAP1 SWAP2 SSTORE DUP2 ADD SLOAD DUP2 SLOAD PUSH1 0x2 DUP4 ADD SLOAD PUSH1 0x40 MLOAD PUSH4 0x21421707 PUSH1 0xE1 SHL DUP2 MSTORE PUSH1 0x1 PUSH1 0x1 PUSH1 0xA0 SHL SUB SWAP4 DUP5 AND SWAP4 PUSH4 0x42842E0E SWAP4 PUSH2 0x2CD6 SWAP4 ADDRESS SWAP4 SWAP2 SWAP1 SWAP3 AND SWAP2 SWAP1 PUSH1 0x4 ADD PUSH2 0x4B6E JUMP JUMPDEST PUSH0 PUSH1 0x40 MLOAD DUP1 DUP4 SUB DUP2 PUSH0 DUP8 DUP1 EXTCODESIZE ISZERO DUP1 ISZERO PUSH2 0x2CED JUMPI PUSH0 PUSH0 REVERT JUMPDEST POP GAS CALL ISZERO DUP1 ISZERO PUSH2 0x2CFF JUMPI RETURNDATASIZE PUSH0 PUSH0 RETURNDATACOPY RETURNDATASIZE PUSH0 REVERT JUMPDEST POP POP PUSH1 0x40 MLOAD DUP5 SWAP3 POP PUSH32 0x2809C7E17BF978FBC7194C0A694B638C4215E9140CACC6C38CA36010B45697DF SWAP2 POP PUSH0 SWAP1 LOG2 POP POP JUMP JUMPDEST PUSH2 0x2D39 PUSH2 0x3E14 JUMP JUMPDEST PUSH2 0x2D41 PUSH2 0x3E42 JUMP JUMPDEST PUSH0 DUP2 DUP2 MSTORE PUSH1 0xB PUSH1 0x20 MSTORE PUSH1 0x40 SWAP1 KECCAK256 PUSH1 0x7 DUP2 ADD SLOAD PUSH1 0xFF AND ISZERO PUSH2 0x2D74 JUMPI PUSH1 0x40 MLOAD PUSH4 0xD02E774D PUSH1 0xE0 SHL DUP2 MSTORE PUSH1 0x4 ADD PUSH1 0x40 MLOAD DUP1 SWAP2 SUB SWAP1 REVERT JUMPDEST DUP1 PUSH1 0x6 ADD SLOAD TIMESTAMP LT PUSH2 0x2D98 JUMPI PUSH1 0x40 MLOAD PUSH4 0x129799F PUSH1 0xE2 SHL DUP2 MSTORE PUSH1 0x4 ADD PUSH1 0x40 MLOAD DUP1 SWAP2 SUB SWAP1 REVERT JUMPDEST DUP1 SLOAD PUSH1 0x1 PUSH1 0x1 PUSH1 0xA0 SHL SUB AND CALLER SUB PUSH2 0x2DC2 JUMPI PUSH1 0x40 MLOAD PUSH4 0xEF025889 PUSH1 0xE0 SHL DUP2 MSTORE PUSH1 0x4 ADD PUSH1 0x40 MLOAD DUP1 SWAP2 SUB SWAP1 REVERT JUMPDEST DUP1 PUSH1 0x3 ADD SLOAD CALLVALUE LT ISZERO PUSH2 0x2DE7 JUMPI PUSH1 0x40 MLOAD PUSH4 0x6CDFBD73 PUSH1 0xE0 SHL DUP2 MSTORE PUSH1 0x4 ADD PUSH1 0x40 MLOAD DUP1 SWAP2 SUB SWAP1 REVERT JUMPDEST PUSH1 0x4 DUP2 ADD SLOAD ISZERO PUSH2 0x2E45 JUMPI PUSH0 PUSH2 0x2710 PUSH2 0x1F4 DUP4 PUSH1 0x4 ADD SLOAD PUSH2 0x2E07 SWAP2 SWAP1 PUSH2 0x4BEA JUMP JUMPDEST PUSH2 0x2E11 SWAP2 SWAP1 PUSH2 0x4C01 JUMP JUMPDEST DUP3 PUSH1 0x4 ADD SLOAD PUSH2 0x2E20 SWAP2 SWAP1 PUSH2 0x4BBE JUMP JUMPDEST SWAP1 POP DUP1 CALLVALUE LT ISZERO PUSH2 0x2E43 JUMPI PUSH1 0x40 MLOAD PUSH4 0xEC4B5EB PUSH1 0xE3 SHL DUP2 MSTORE PUSH1 0x4 ADD PUSH1 0x40 MLOAD DUP1 SWAP2 SUB SWAP1 REVERT JUMPDEST POP JUMPDEST PUSH1 0x5 DUP2 ADD SLOAD PUSH1 0x1 PUSH1 0x1 PUSH1 0xA0 SHL SUB AND ISZERO PUSH2 0x2E8E JUMPI PUSH1 0x4 DUP2 ADD SLOAD PUSH1 0x5 DUP3 ADD SLOAD PUSH1 0x1 PUSH1 0x1 PUSH1 0xA0 SHL SUB AND PUSH0 SWAP1 DUP2 MSTORE PUSH1 0x14 PUSH1 0x20 MSTORE PUSH1 0x40 DUP2 KECCAK256 DUP1 SLOAD SWAP1 SWAP2 SWAP1 PUSH2 0x2E88 SWAP1 DUP5 SWAP1 PUSH2 0x4BBE JUMP JUMPDEST SWAP1 SWAP2 SSTORE POP POP JUMPDEST CALLVALUE PUSH1 0x4 DUP3 ADD SSTORE PUSH1 0x5 DUP2 ADD DUP1 SLOAD PUSH1 0x1 PUSH1 0x1 PUSH1 0xA0 SHL SUB NOT AND CALLER OR SWAP1 SSTORE PUSH1 0x6 DUP2 ADD SLOAD PUSH2 0x12C SWAP1 PUSH2 0x2EBC SWAP1 TIMESTAMP SWAP1 PUSH2 0x4BD7 JUMP JUMPDEST LT ISZERO PUSH2 0x2F0B JUMPI PUSH2 0x2ECE PUSH2 0x12C TIMESTAMP PUSH2 0x4BBE JUMP JUMPDEST PUSH1 0x6 DUP3 ADD DUP2 SWAP1 SSTORE PUSH1 0x40 MLOAD SWAP1 DUP2 MSTORE DUP3 SWAP1 PUSH32 0x6E912A3A9105BDD2AF817BA5ADC14E6C127C1035B5B648FAA29CA0D58AB8FF4E SWAP1 PUSH1 0x20 ADD PUSH1 0x40 MLOAD DUP1 SWAP2 SUB SWAP1 LOG2 JUMPDEST PUSH1 0x40 MLOAD CALLVALUE DUP2 MSTORE CALLER SWAP1 DUP4 SWAP1 PUSH32 0xE54EFF26401BF69B81B26F60BD85EF47F5D85275C1D268D84F68D6897431C47 SWAP1 PUSH1 0x20 ADD JUMPDEST PUSH1 0x40 MLOAD DUP1 SWAP2 SUB SWAP1 LOG3 POP PUSH2 0x1799 PUSH2 0x3E6C JUMP JUMPDEST PUSH1 0x1 PUSH1 0x1 PUSH1 0xA0 SHL SUB DUP2 AND PUSH0 SWAP1 DUP2 MSTORE PUSH1 0x13 PUSH1 0x20 MSTORE PUSH1 0x40 DUP2 KECCAK256 SLOAD DUP1 DUP3 SUB PUSH2 0x2F75 JUMPI POP PUSH0 SWAP3 DUP4 SWAP3 POP SWAP1 POP JUMP JUMPDEST PUSH1 0x1 PUSH1 0x1 PUSH1 0xA0 SHL SUB DUP4 AND PUSH0 SWAP1 DUP2 MSTORE PUSH1 0x12 PUSH1 0x20 MSTORE PUSH1 0x40 SWAP1 KECCAK256 SLOAD DUP2 SWAP1 PUSH2 0x2F9A SWAP1 PUSH1 0x64 PUSH2 0x4BEA JUMP JUMPDEST PUSH2 0x2FA4 SWAP2 SWAP1 PUSH2 0x4C01 JUMP JUMPDEST SWAP2 POP SWAP2 POP SWAP2 JUMP JUMPDEST PUSH0 PUSH0 PUSH0 PUSH2 0x2FB7 DUP5 PUSH2 0x134B JUMP JUMPDEST SWAP1 POP PUSH2 0x2FC2 DUP2 PUSH2 0x4274 JUMP JUMPDEST SWAP3 POP PUSH2 0x2710 PUSH2 0x2FD2 PUSH1 0xC8 DUP6 PUSH2 0x4BEA JUMP JUMPDEST PUSH2 0x2FDC SWAP2 SWAP1 PUSH2 0x4C01 JUMP JUMPDEST PUSH2 0x2FE6 SWAP1 DUP5 PUSH2 0x4BBE JUMP JUMPDEST SWAP2 POP POP SWAP2 POP SWAP2 JUMP JUMPDEST PUSH0 PUSH2 0x2FF7 PUSH2 0x3E14 JUMP JUMPDEST PUSH2 0x2FFF PUSH2 0x3E42 JUMP JUMPDEST PUSH2 0xE10 DUP3 LT DUP1 PUSH2 0x3011 JUMPI POP PUSH3 0x93A80 DUP3 GT JUMPDEST ISZERO PUSH2 0x302F JUMPI PUSH1 0x40 MLOAD PUSH4 0x76166401 PUSH1 0xE0 SHL DUP2 MSTORE PUSH1 0x4 ADD PUSH1 0x40 MLOAD DUP1 SWAP2 SUB SWAP1 REVERT JUMPDEST PUSH1 0x40 MLOAD PUSH4 0x31A9108F PUSH1 0xE1 SHL DUP2 MSTORE PUSH1 0x4 DUP2 ADD DUP7 SWAP1 MSTORE DUP7 SWAP1 CALLER SWAP1 PUSH1 0x1 PUSH1 0x1 PUSH1 0xA0 SHL SUB DUP4 AND SWAP1 PUSH4 0x6352211E SWAP1 PUSH1 0x24 ADD PUSH1 0x20 PUSH1 0x40 MLOAD DUP1 DUP4 SUB DUP2 DUP7 GAS STATICCALL ISZERO DUP1 ISZERO PUSH2 0x3076 JUMPI RETURNDATASIZE PUSH0 PUSH0 RETURNDATACOPY RETURNDATASIZE PUSH0 REVERT JUMPDEST POP POP POP POP PUSH1 0x40 MLOAD RETURNDATASIZE PUSH1 0x1F NOT PUSH1 0x1F DUP3 ADD AND DUP3 ADD DUP1 PUSH1 0x40 MSTORE POP DUP2 ADD SWAP1 PUSH2 0x309A SWAP2 SWAP1 PUSH2 0x4B34 JUMP JUMPDEST PUSH1 0x1 PUSH1 0x1 PUSH1 0xA0 SHL SUB AND EQ PUSH2 0x30C1 JUMPI PUSH1 0x40 MLOAD PUSH4 0x59DC379F PUSH1 0xE0 SHL DUP2 MSTORE PUSH1 0x4 ADD PUSH1 0x40 MLOAD DUP1 SWAP2 SUB SWAP1 REVERT JUMPDEST PUSH1 0x40 MLOAD PUSH4 0x20604BF PUSH1 0xE2 SHL DUP2 MSTORE PUSH1 0x4 DUP2 ADD DUP8 SWAP1 MSTORE ADDRESS SWAP1 PUSH1 0x1 PUSH1 0x1 PUSH1 0xA0 SHL SUB DUP4 AND SWAP1 PUSH4 0x81812FC SWAP1 PUSH1 0x24 ADD PUSH1 0x20 PUSH1 0x40 MLOAD DUP1 DUP4 SUB DUP2 DUP7 GAS STATICCALL ISZERO DUP1 ISZERO PUSH2 0x3106 JUMPI RETURNDATASIZE PUSH0 PUSH0 RETURNDATACOPY RETURNDATASIZE PUSH0 REVERT JUMPDEST POP POP POP POP PUSH1 0x40 MLOAD RETURNDATASIZE PUSH1 0x1F NOT PUSH1 0x1F DUP3 ADD AND DUP3 ADD DUP1 PUSH1 0x40 MSTORE POP DUP2 ADD SWAP1 PUSH2 0x312A SWAP2 SWAP1 PUSH2 0x4B34 JUMP JUMPDEST PUSH1 0x1 PUSH1 0x1 PUSH1 0xA0 SHL SUB AND EQ ISZERO DUP1 ISZERO PUSH2 0x31AA JUMPI POP PUSH1 0x40 MLOAD PUSH4 0xE985E9C5 PUSH1 0xE0 SHL DUP2 MSTORE CALLER PUSH1 0x4 DUP3 ADD MSTORE ADDRESS PUSH1 0x24 DUP3 ADD MSTORE PUSH1 0x1 PUSH1 0x1 PUSH1 0xA0 SHL SUB DUP3 AND SWAP1 PUSH4 0xE985E9C5 SWAP1 PUSH1 0x44 ADD PUSH1 0x20 PUSH1 0x40 MLOAD DUP1 DUP4 SUB DUP2 DUP7 GAS STATICCALL ISZERO DUP1 ISZERO PUSH2 0x3184 JUMPI RETURNDATASIZE PUSH0 PUSH0 RETURNDATACOPY RETURNDATASIZE PUSH0 REVERT JUMPDEST POP POP POP POP PUSH1 0x40 MLOAD RETURNDATASIZE PUSH1 0x1F NOT PUSH1 0x1F DUP3 ADD AND DUP3 ADD DUP1 PUSH1 0x40 MSTORE POP DUP2 ADD SWAP1 PUSH2 0x31A8 SWAP2 SWAP1 PUSH2 0x4B4F JUMP JUMPDEST ISZERO JUMPDEST ISZERO PUSH2 0x31C8 JUMPI PUSH1 0x40 MLOAD PUSH4 0xA9248D25 PUSH1 0xE0 SHL DUP2 MSTORE PUSH1 0x4 ADD PUSH1 0x40 MLOAD DUP1 SWAP2 SUB SWAP1 REVERT JUMPDEST PUSH1 0x40 MLOAD PUSH4 0x23B872DD PUSH1 0xE0 SHL DUP2 MSTORE PUSH1 0x1 PUSH1 0x1 PUSH1 0xA0 SHL SUB DUP3 AND SWAP1 PUSH4 0x23B872DD SWAP1 PUSH2 0x31F8 SWAP1 CALLER SWAP1 ADDRESS SWAP1 DUP12 SWAP1 PUSH1 0x4 ADD PUSH2 0x4B6E JUMP JUMPDEST PUSH0 PUSH1 0x40 MLOAD DUP1 DUP4 SUB DUP2 PUSH0 DUP8 DUP1 EXTCODESIZE ISZERO DUP1 ISZERO PUSH2 0x320F JUMPI PUSH0 PUSH0 REVERT JUMPDEST POP GAS CALL ISZERO DUP1 ISZERO PUSH2 0x3221 JUMPI RETURNDATASIZE PUSH0 PUSH0 RETURNDATACOPY RETURNDATASIZE PUSH0 REVERT JUMPDEST POP POP PUSH1 0x7 DUP1 SLOAD PUSH0 SWAP4 POP SWAP2 POP DUP3 PUSH2 0x3236 DUP4 PUSH2 0x4BA6 JUMP JUMPDEST SWAP2 SWAP1 POP SSTORE SWAP1 POP PUSH1 0x40 MLOAD DUP1 PUSH2 0x120 ADD PUSH1 0x40 MSTORE DUP1 CALLER PUSH1 0x1 PUSH1 0x1 PUSH1 0xA0 SHL SUB AND DUP2 MSTORE PUSH1 0x20 ADD DUP11 PUSH1 0x1 PUSH1 0x1 PUSH1 0xA0 SHL SUB AND DUP2 MSTORE PUSH1 0x20 ADD DUP10 PUSH1 0x1 PUSH1 0x1 PUSH1 0xA0 SHL SUB AND DUP2 MSTORE PUSH1 0x20 ADD DUP9 DUP2 MSTORE PUSH1 0x20 ADD DUP8 PUSH1 0x1 PUSH1 0x1 PUSH1 0xA0 SHL SUB AND DUP2 MSTORE PUSH1 0x20 ADD DUP7 DUP2 MSTORE PUSH1 0x20 ADD CALLVALUE DUP2 MSTORE PUSH1 0x20 ADD DUP6 TIMESTAMP PUSH2 0x32A2 SWAP2 SWAP1 PUSH2 0x4BBE JUMP JUMPDEST DUP2 MSTORE PUSH1 0x1 PUSH1 0x20 SWAP2 DUP3 ADD DUP2 SWAP1 MSTORE PUSH0 DUP5 DUP2 MSTORE PUSH1 0xE DUP4 MSTORE PUSH1 0x40 DUP1 DUP3 KECCAK256 DUP6 MLOAD DUP2 SLOAD PUSH1 0x1 PUSH1 0x1 PUSH1 0xA0 SHL SUB NOT SWAP1 DUP2 AND PUSH1 0x1 PUSH1 0x1 PUSH1 0xA0 SHL SUB SWAP3 DUP4 AND OR DUP4 SSTORE SWAP6 DUP8 ADD MLOAD SWAP5 DUP3 ADD DUP1 SLOAD DUP8 AND SWAP6 DUP3 AND SWAP6 SWAP1 SWAP6 OR SWAP1 SWAP5 SSTORE DUP6 DUP3 ADD MLOAD PUSH1 0x2 DUP3 ADD DUP1 SLOAD DUP8 AND SWAP2 DUP7 AND SWAP2 SWAP1 SWAP2 OR SWAP1 SSTORE PUSH1 0x60 DUP7 ADD MLOAD PUSH1 0x3 DUP3 ADD SSTORE PUSH1 0x80 DUP7 ADD MLOAD PUSH1 0x4 DUP3 ADD DUP1 SLOAD SWAP1 SWAP7 AND SWAP1 DUP6 AND OR SWAP1 SWAP5 SSTORE PUSH1 0xA0 DUP6 ADD MLOAD PUSH1 0x5 DUP6 ADD SSTORE PUSH1 0xC0 DUP6 ADD MLOAD PUSH1 0x6 DUP6 ADD SSTORE PUSH1 0xE0 DUP6 ADD MLOAD PUSH1 0x7 DUP6 ADD SSTORE PUSH2 0x100 SWAP1 SWAP5 ADD MLOAD PUSH1 0x8 SWAP1 SWAP4 ADD DUP1 SLOAD PUSH1 0xFF NOT AND SWAP4 ISZERO ISZERO SWAP4 SWAP1 SWAP4 OR SWAP1 SWAP3 SSTORE SWAP2 MLOAD SWAP2 DUP12 AND SWAP2 CALLER SWAP2 DUP5 SWAP2 PUSH32 0x39D8683E02D07786A66EB86F938B372FD826475E504C6CE2819A6316FDA99789 SWAP2 SWAP1 LOG4 SWAP2 POP POP PUSH2 0x13D4 PUSH2 0x3E6C JUMP JUMPDEST PUSH1 0x60 PUSH2 0x339F PUSH2 0x3E42 JUMP JUMPDEST DUP6 DUP5 DUP2 EQ ISZERO DUP1 PUSH2 0x33AF JUMPI POP DUP1 DUP4 EQ ISZERO JUMPDEST ISZERO PUSH2 0x33CD JUMPI PUSH1 0x40 MLOAD PUSH4 0x512509D3 PUSH1 0xE1 SHL DUP2 MSTORE PUSH1 0x4 ADD PUSH1 0x40 MLOAD DUP1 SWAP2 SUB SWAP1 REVERT JUMPDEST PUSH1 0x14 DUP2 GT ISZERO PUSH2 0x33EF JUMPI PUSH1 0x40 MLOAD PUSH4 0x5BEB171 PUSH1 0xE1 SHL DUP2 MSTORE PUSH1 0x4 ADD PUSH1 0x40 MLOAD DUP1 SWAP2 SUB SWAP1 REVERT JUMPDEST PUSH0 DUP2 PUSH8 0xFFFFFFFFFFFFFFFF DUP2 GT ISZERO PUSH2 0x3409 JUMPI PUSH2 0x3409 PUSH2 0x4C20 JUMP JUMPDEST PUSH1 0x40 MLOAD SWAP1 DUP1 DUP3 MSTORE DUP1 PUSH1 0x20 MUL PUSH1 0x20 ADD DUP3 ADD PUSH1 0x40 MSTORE DUP1 ISZERO PUSH2 0x3432 JUMPI DUP2 PUSH1 0x20 ADD PUSH1 0x20 DUP3 MUL DUP1 CALLDATASIZE DUP4 CALLDATACOPY ADD SWAP1 POP JUMPDEST POP SWAP1 POP PUSH0 JUMPDEST DUP3 DUP2 LT ISZERO PUSH2 0x34B8 JUMPI PUSH2 0x3493 DUP12 DUP12 DUP12 DUP5 DUP2 DUP2 LT PUSH2 0x3455 JUMPI PUSH2 0x3455 PUSH2 0x4C34 JUMP JUMPDEST SWAP1 POP PUSH1 0x20 MUL ADD CALLDATALOAD DUP11 DUP11 DUP6 DUP2 DUP2 LT PUSH2 0x346E JUMPI PUSH2 0x346E PUSH2 0x4C34 JUMP JUMPDEST SWAP1 POP PUSH1 0x20 MUL ADD CALLDATALOAD DUP10 DUP10 DUP7 DUP2 DUP2 LT PUSH2 0x3487 JUMPI PUSH2 0x3487 PUSH2 0x4C34 JUMP JUMPDEST SWAP1 POP PUSH1 0x20 MUL ADD CALLDATALOAD PUSH2 0x435F JUMP JUMPDEST DUP3 DUP3 DUP2 MLOAD DUP2 LT PUSH2 0x34A5 JUMPI PUSH2 0x34A5 PUSH2 0x4C34 JUMP JUMPDEST PUSH1 0x20 SWAP1 DUP2 MUL SWAP2 SWAP1 SWAP2 ADD ADD MSTORE PUSH1 0x1 ADD PUSH2 0x3437 JUMP JUMPDEST POP CALLER PUSH1 0x1 PUSH1 0x1 PUSH1 0xA0 SHL SUB AND PUSH32 0x20BAB890E3C2B44BEBB771F1DFD0DE19C2B0E5635E15C42D1C08E7AB45795CC3 DUP3 PUSH1 0x40 MLOAD PUSH2 0x34F2 SWAP2 SWAP1 PUSH2 0x4ACF JUMP JUMPDEST PUSH1 0x40 MLOAD DUP1 SWAP2 SUB SWAP1 LOG2 SWAP10 SWAP9 POP POP POP POP POP POP POP POP POP JUMP JUMPDEST PUSH0 DUP2 DUP2 MSTORE PUSH1 0xA PUSH1 0x20 MSTORE PUSH1 0x40 DUP2 KECCAK256 PUSH1 0x5 DUP2 ADD SLOAD ISZERO DUP1 ISZERO SWAP1 PUSH2 0x352A JUMPI POP DUP1 PUSH1 0x5 ADD SLOAD TIMESTAMP GT JUMPDEST SWAP4 SWAP3 POP POP POP JUMP JUMPDEST PUSH2 0x3539 PUSH2 0x3E14 JUMP JUMPDEST PUSH0 DUP2 DUP2 MSTORE PUSH1 0xB PUSH1 0x20 MSTORE PUSH1 0x40 SWAP1 KECCAK256 PUSH1 0x7 DUP2 ADD SLOAD PUSH1 0xFF AND ISZERO PUSH2 0x356C JUMPI PUSH1 0x40 MLOAD PUSH4 0xD02E774D PUSH1 0xE0 SHL DUP2 MSTORE PUSH1 0x4 ADD PUSH1 0x40 MLOAD DUP1 SWAP2 SUB SWAP1 REVERT JUMPDEST DUP1 PUSH1 0x6 ADD SLOAD TIMESTAMP LT ISZERO PUSH2 0x3591 JUMPI PUSH1 0x40 MLOAD PUSH4 0x9EAFE1B7 PUSH1 0xE0 SHL DUP2 MSTORE PUSH1 0x4 ADD PUSH1 0x40 MLOAD DUP1 SWAP2 SUB SWAP1 REVERT JUMPDEST PUSH1 0x7 DUP2 ADD DUP1 SLOAD PUSH1 0xFF NOT AND PUSH1 0x1 OR SWAP1 SSTORE PUSH1 0x5 DUP2 ADD SLOAD PUSH1 0x1 PUSH1 0x1 PUSH1 0xA0 SHL SUB AND ISZERO PUSH2 0x36C7 JUMPI PUSH1 0x1 DUP2 ADD SLOAD PUSH1 0x2 DUP3 ADD SLOAD DUP3 SLOAD PUSH1 0x4 DUP5 ADD SLOAD PUSH2 0x35DC SWAP4 PUSH1 0x1 PUSH1 0x1 PUSH1 0xA0 SHL SUB SWAP1 DUP2 AND SWAP4 SWAP3 AND SWAP1 PUSH2 0x3EBE JUMP JUMPDEST PUSH1 0x1 DUP2 ADD SLOAD PUSH1 0x5 DUP3 ADD SLOAD PUSH1 0x2 DUP4 ADD SLOAD PUSH1 0x40 MLOAD PUSH4 0x21421707 PUSH1 0xE1 SHL DUP2 MSTORE PUSH1 0x1 PUSH1 0x1 PUSH1 0xA0 SHL SUB SWAP4 DUP5 AND SWAP4 PUSH4 0x42842E0E SWAP4 PUSH2 0x361D SWAP4 ADDRESS SWAP4 SWAP3 SWAP1 SWAP2 AND SWAP2 PUSH1 0x4 ADD PUSH2 0x4B6E JUMP JUMPDEST PUSH0 PUSH1 0x40 MLOAD DUP1 DUP4 SUB DUP2 PUSH0 DUP8 DUP1 EXTCODESIZE ISZERO DUP1 ISZERO PUSH2 0x3634 JUMPI PUSH0 PUSH0 REVERT JUMPDEST POP GAS CALL ISZERO DUP1 ISZERO PUSH2 0x3646 JUMPI RETURNDATASIZE PUSH0 PUSH0 RETURNDATACOPY RETURNDATASIZE PUSH0 REVERT JUMPDEST POP POP POP POP PUSH1 0x5 DUP2 ADD SLOAD DUP2 SLOAD PUSH1 0x1 DUP1 DUP5 ADD SLOAD PUSH1 0x2 DUP6 ADD SLOAD PUSH2 0x3677 SWAP5 PUSH1 0x1 PUSH1 0x1 PUSH1 0xA0 SHL SUB SWAP1 DUP2 AND SWAP5 DUP2 AND SWAP4 SWAP3 AND SWAP2 PUSH2 0x4163 JUMP JUMPDEST PUSH1 0x5 DUP2 ADD SLOAD PUSH1 0x4 DUP3 ADD SLOAD PUSH1 0x40 MLOAD SWAP1 DUP2 MSTORE PUSH1 0x1 PUSH1 0x1 PUSH1 0xA0 SHL SUB SWAP1 SWAP2 AND SWAP1 DUP4 SWAP1 PUSH32 0xD2AA34A4FDBBC6DFF6A3E56F46E0F3AE2A31D7785FF3487AA5C95C642ACEA501 SWAP1 PUSH1 0x20 ADD PUSH1 0x40 MLOAD DUP1 SWAP2 SUB SWAP1 LOG3 PUSH2 0x3766 JUMP JUMPDEST PUSH1 0x1 DUP2 ADD SLOAD DUP2 SLOAD PUSH1 0x2 DUP4 ADD SLOAD PUSH1 0x40 MLOAD PUSH4 0x21421707 PUSH1 0xE1 SHL DUP2 MSTORE PUSH1 0x1 PUSH1 0x1 PUSH1 0xA0 SHL SUB SWAP4 DUP5 AND SWAP4 PUSH4 0x42842E0E SWAP4 PUSH2 0x3705 SWAP4 ADDRESS SWAP4 SWAP3 SWAP1 SWAP2 AND SWAP2 PUSH1 0x4 ADD PUSH2 0x4B6E JUMP JUMPDEST PUSH0 PUSH1 0x40 MLOAD DUP1 DUP4 SUB DUP2 PUSH0 DUP8 DUP1 EXTCODESIZE ISZERO DUP1 ISZERO PUSH2 0x371C JUMPI PUSH0 PUSH0 REVERT JUMPDEST POP GAS CALL ISZERO DUP1 ISZERO PUSH2 0x372E JUMPI RETURNDATASIZE PUSH0 PUSH0 RETURNDATACOPY RETURNDATASIZE PUSH0 REVERT JUMPDEST POP POP PUSH1 0x40 MLOAD PUSH0 DUP1 DUP3 MSTORE SWAP3 POP DUP5 SWAP2 POP PUSH32 0xD2AA34A4FDBBC6DFF6A3E56F46E0F3AE2A31D7785FF3487AA5C95C642ACEA501 SWAP1 PUSH1 0x20 ADD PUSH2 0x2F3B JUMP JUMPDEST POP PUSH2 0x1799 PUSH2 0x3E6C JUMP JUMPDEST PUSH2 0x3777 PUSH2 0x3E42 JUMP JUMPDEST PUSH0 DUP3 DUP2 MSTORE PUSH1 0xA PUSH1 0x20 MSTORE PUSH1 0x40 SWAP1 KECCAK256 PUSH1 0x4 DUP2 ADD SLOAD PUSH1 0xFF AND PUSH2 0x37A9 JUMPI PUSH1 0x40 MLOAD PUSH4 0x66CB03E9 PUSH1 0xE0 SHL DUP2 MSTORE PUSH1 0x4 ADD PUSH1 0x40 MLOAD DUP1 SWAP2 SUB SWAP1 REVERT JUMPDEST DUP1 SLOAD PUSH1 0x1 PUSH1 0x1 PUSH1 0xA0 SHL SUB AND CALLER EQ PUSH2 0x37D3 JUMPI PUSH1 0x40 MLOAD PUSH4 0x22087F49 PUSH1 0xE1 SHL DUP2 MSTORE PUSH1 0x4 ADD PUSH1 0x40 MLOAD DUP1 SWAP2 SUB SWAP1 REVERT JUMPDEST DUP2 PUSH0 SUB PUSH2 0x37F3 JUMPI PUSH1 0x40 MLOAD PUSH4 0x7294708F PUSH1 0xE1 SHL DUP2 MSTORE PUSH1 0x4 ADD PUSH1 0x40 MLOAD DUP1 SWAP2 SUB SWAP1 REVERT JUMPDEST PUSH1 0x3 DUP2 ADD DUP1 SLOAD SWAP1 DUP4 SWAP1 SSTORE PUSH1 0x40 DUP1 MLOAD DUP3 DUP2 MSTORE PUSH1 0x20 DUP2 ADD DUP6 SWAP1 MSTORE DUP6 SWAP2 PUSH32 0x36CFE22DFCF2D3781D9DE6B307D67A5431B45492DAD5E70E53DD4AF34C25B849 SWAP2 ADD PUSH1 0x40 MLOAD DUP1 SWAP2 SUB SWAP1 LOG2 POP POP POP POP JUMP JUMPDEST PUSH2 0x3846 PUSH2 0x3E14 JUMP JUMPDEST PUSH2 0x384E PUSH2 0x3E42 JUMP JUMPDEST PUSH0 DUP2 DUP2 MSTORE PUSH1 0xD PUSH1 0x20 MSTORE PUSH1 0x40 SWAP1 KECCAK256 PUSH1 0x5 DUP2 ADD SLOAD PUSH1 0xFF AND PUSH2 0x3880 JUMPI PUSH1 0x40 MLOAD PUSH4 0x4D80826B PUSH1 0xE1 SHL DUP2 MSTORE PUSH1 0x4 ADD PUSH1 0x40 MLOAD DUP1 SWAP2 SUB SWAP1 REVERT JUMPDEST DUP1 PUSH1 0x4 ADD SLOAD TIMESTAMP GT ISZERO PUSH2 0x38A5 JUMPI PUSH1 0x40 MLOAD PUSH4 0x9CB13087 PUSH1 0xE0 SHL DUP2 MSTORE PUSH1 0x4 ADD PUSH1 0x40 MLOAD DUP1 SWAP2 SUB SWAP1 REVERT JUMPDEST PUSH1 0x1 DUP2 ADD SLOAD PUSH1 0x2 DUP3 ADD SLOAD PUSH1 0x40 MLOAD PUSH4 0x31A9108F PUSH1 0xE1 SHL DUP2 MSTORE PUSH1 0x1 PUSH1 0x1 PUSH1 0xA0 SHL SUB SWAP1 SWAP3 AND SWAP2 CALLER SWAP2 DUP4 SWAP2 PUSH4 0x6352211E SWAP2 PUSH2 0x38E2 SWAP2 PUSH1 0x4 ADD SWAP1 DUP2 MSTORE PUSH1 0x20 ADD SWAP1 JUMP JUMPDEST PUSH1 0x20 PUSH1 0x40 MLOAD DUP1 DUP4 SUB DUP2 DUP7 GAS STATICCALL ISZERO DUP1 ISZERO PUSH2 0x38FD JUMPI RETURNDATASIZE PUSH0 PUSH0 RETURNDATACOPY RETURNDATASIZE PUSH0 REVERT JUMPDEST POP POP POP POP PUSH1 0x40 MLOAD RETURNDATASIZE PUSH1 0x1F NOT PUSH1 0x1F DUP3 ADD AND DUP3 ADD DUP1 PUSH1 0x40 MSTORE POP DUP2 ADD SWAP1 PUSH2 0x3921 SWAP2 SWAP1 PUSH2 0x4B34 JUMP JUMPDEST PUSH1 0x1 PUSH1 0x1 PUSH1 0xA0 SHL SUB AND EQ PUSH2 0x3948 JUMPI PUSH1 0x40 MLOAD PUSH4 0x59DC379F PUSH1 0xE0 SHL DUP2 MSTORE PUSH1 0x4 ADD PUSH1 0x40 MLOAD DUP1 SWAP2 SUB SWAP1 REVERT JUMPDEST PUSH1 0x2 DUP3 ADD SLOAD PUSH1 0x40 MLOAD PUSH4 0x20604BF PUSH1 0xE2 SHL DUP2 MSTORE ADDRESS SWAP2 PUSH1 0x1 PUSH1 0x1 PUSH1 0xA0 SHL SUB DUP5 AND SWAP2 PUSH4 0x81812FC SWAP2 PUSH2 0x397D SWAP2 PUSH1 0x4 ADD SWAP1 DUP2 MSTORE PUSH1 0x20 ADD SWAP1 JUMP JUMPDEST PUSH1 0x20 PUSH1 0x40 MLOAD DUP1 DUP4 SUB DUP2 DUP7 GAS STATICCALL ISZERO DUP1 ISZERO PUSH2 0x3998 JUMPI RETURNDATASIZE PUSH0 PUSH0 RETURNDATACOPY RETURNDATASIZE PUSH0 REVERT JUMPDEST POP POP POP POP PUSH1 0x40 MLOAD RETURNDATASIZE PUSH1 0x1F NOT PUSH1 0x1F DUP3 ADD AND DUP3 ADD DUP1 PUSH1 0x40 MSTORE POP DUP2 ADD SWAP1 PUSH2 0x39BC SWAP2 SWAP1 PUSH2 0x4B34 JUMP JUMPDEST PUSH1 0x1 PUSH1 0x1 PUSH1 0xA0 SHL SUB AND EQ ISZERO DUP1 ISZERO PUSH2 0x3A3C JUMPI POP PUSH1 0x40 MLOAD PUSH4 0xE985E9C5 PUSH1 0xE0 SHL DUP2 MSTORE CALLER PUSH1 0x4 DUP3 ADD MSTORE ADDRESS PUSH1 0x24 DUP3 ADD MSTORE PUSH1 0x1 PUSH1 0x1 PUSH1 0xA0 SHL SUB DUP3 AND SWAP1 PUSH4 0xE985E9C5 SWAP1 PUSH1 0x44 ADD PUSH1 0x20 PUSH1 0x40 MLOAD DUP1 DUP4 SUB DUP2 DUP7 GAS STATICCALL ISZERO DUP1 ISZERO PUSH2 0x3A16 JUMPI RETURNDATASIZE PUSH0 PUSH0 RETURNDATACOPY RETURNDATASIZE PUSH0 REVERT JUMPDEST POP POP POP POP PUSH1 0x40 MLOAD RETURNDATASIZE PUSH1 0x1F NOT PUSH1 0x1F DUP3 ADD AND DUP3 ADD DUP1 PUSH1 0x40 MSTORE POP DUP2 ADD SWAP1 PUSH2 0x3A3A SWAP2 SWAP1 PUSH2 0x4B4F JUMP JUMPDEST ISZERO JUMPDEST ISZERO PUSH2 0x3A5A JUMPI PUSH1 0x40 MLOAD PUSH4 0xA9248D25 PUSH1 0xE0 SHL DUP2 MSTORE PUSH1 0x4 ADD PUSH1 0x40 MLOAD DUP1 SWAP2 SUB SWAP1 REVERT JUMPDEST PUSH1 0x5 DUP3 ADD DUP1 SLOAD PUSH1 0xFF NOT AND SWAP1 SSTORE PUSH1 0x1 DUP3 ADD SLOAD PUSH1 0x2 DUP4 ADD SLOAD PUSH1 0x3 DUP5 ADD SLOAD PUSH2 0x3A8B SWAP3 PUSH1 0x1 PUSH1 0x1 PUSH1 0xA0 SHL SUB AND SWAP2 SWAP1 CALLER SWAP1 PUSH2 0x3EBE JUMP JUMPDEST DUP2 SLOAD PUSH1 0x2 DUP4 ADD SLOAD PUSH1 0x40 MLOAD PUSH4 0x21421707 PUSH1 0xE1 SHL DUP2 MSTORE PUSH1 0x1 PUSH1 0x1 PUSH1 0xA0 SHL SUB DUP5 DUP2 AND SWAP4 PUSH4 0x42842E0E SWAP4 PUSH2 0x3AC3 SWAP4 CALLER SWAP4 SWAP1 SWAP3 AND SWAP2 PUSH1 0x4 ADD PUSH2 0x4B6E JUMP JUMPDEST PUSH0 PUSH1 0x40 MLOAD DUP1 DUP4 SUB DUP2 PUSH0 DUP8 DUP1 EXTCODESIZE ISZERO DUP1 ISZERO PUSH2 0x3ADA JUMPI PUSH0 PUSH0 REVERT JUMPDEST POP GAS CALL ISZERO DUP1 ISZERO PUSH2 0x3AEC JUMPI RETURNDATASIZE PUSH0 PUSH0 RETURNDATACOPY RETURNDATASIZE PUSH0 REVERT JUMPDEST POP POP DUP4 SLOAD PUSH1 0x1 DUP6 ADD SLOAD PUSH1 0x2 DUP7 ADD SLOAD PUSH2 0x3B19 SWAP5 POP PUSH1 0x1 PUSH1 0x1 PUSH1 0xA0 SHL SUB SWAP3 DUP4 AND SWAP4 POP CALLER SWAP3 SWAP1 SWAP2 AND SWAP1 PUSH1 0x3 PUSH2 0x4163 JUMP JUMPDEST PUSH1 0x40 MLOAD CALLER SWAP1 DUP5 SWAP1 PUSH32 0xA7A40AF5A1D0C10A3EB94AF90CB008170915E8A71A6AAFF052794CD762C72FC0 SWAP1 PUSH0 SWAP1 LOG3 POP POP PUSH2 0x1799 PUSH2 0x3E6C JUMP JUMPDEST PUSH0 DUP2 DUP2 MSTORE PUSH1 0xA PUSH1 0x20 MSTORE PUSH1 0x40 DUP2 KECCAK256 PUSH1 0x3 DUP2 ADD SLOAD DUP3 SWAP2 SWAP1 PUSH2 0x2FC2 SWAP1 PUSH2 0x4274 JUMP JUMPDEST PUSH2 0x3B75 PUSH2 0x3E14 JUMP JUMPDEST PUSH0 DUP2 DUP2 MSTORE PUSH1 0xC PUSH1 0x20 MSTORE PUSH1 0x40 SWAP1 KECCAK256 PUSH1 0x7 DUP2 ADD SLOAD PUSH1 0xFF AND ISZERO PUSH2 0x3BA8 JUMPI PUSH1 0x40 MLOAD PUSH4 0x4B74DC97 PUSH1 0xE1 SHL DUP2 MSTORE PUSH1 0x4 ADD PUSH1 0x40 MLOAD DUP1 SWAP2 SUB SWAP1 REVERT JUMPDEST DUP1 SLOAD PUSH1 0x1 PUSH1 0x1 PUSH1 0xA0 SHL SUB AND CALLER EQ PUSH2 0x3BD2 JUMPI PUSH1 0x40 MLOAD PUSH4 0x22087F49 PUSH1 0xE1 SHL DUP2 MSTORE PUSH1 0x4 ADD PUSH1 0x40 MLOAD DUP1 SWAP2 SUB SWAP1 REVERT JUMPDEST PUSH1 0x7 DUP2 ADD DUP1 SLOAD PUSH1 0xFF NOT AND PUSH1 0x1 SWAP1 DUP2 OR SWAP1 SWAP2 SSTORE DUP2 ADD SLOAD DUP2 SLOAD PUSH1 0x2 DUP4 ADD SLOAD PUSH1 0x40 MLOAD PUSH4 0x21421707 PUSH1 0xE1 SHL DUP2 MSTORE PUSH1 0x1 PUSH1 0x1 PUSH1 0xA0 SHL SUB SWAP4 DUP5 AND SWAP4 PUSH4 0x42842E0E SWAP4 PUSH2 0x3C21 SWAP4 ADDRESS SWAP4 SWAP2 SWAP1 SWAP3 AND SWAP2 SWAP1 PUSH1 0x4 ADD PUSH2 0x4B6E JUMP JUMPDEST PUSH0 PUSH1 0x40 MLOAD DUP1 DUP4 SUB DUP2 PUSH0 DUP8 DUP1 EXTCODESIZE ISZERO DUP1 ISZERO PUSH2 0x3C38 JUMPI PUSH0 PUSH0 REVERT JUMPDEST POP GAS CALL ISZERO DUP1 ISZERO PUSH2 0x3C4A JUMPI RETURNDATASIZE PUSH0 PUSH0 RETURNDATACOPY RETURNDATASIZE PUSH0 REVERT JUMPDEST POP POP PUSH1 0x40 MLOAD DUP5 SWAP3 POP PUSH32 0x2E78756868081FAE5204BBE1E151C8934C2D7DCF6F4CDBA38A18C3EE09F97670 SWAP2 POP PUSH0 SWAP1 LOG2 POP PUSH2 0x1799 PUSH2 0x3E6C JUMP JUMPDEST PUSH0 DUP2 DUP2 MSTORE PUSH1 0xD PUSH1 0x20 MSTORE PUSH1 0x40 SWAP1 KECCAK256 PUSH1 0x5 DUP2 ADD SLOAD PUSH1 0xFF AND PUSH2 0x3CB3 JUMPI PUSH1 0x40 MLOAD PUSH4 0x4D80826B PUSH1 0xE1 SHL DUP2 MSTORE PUSH1 0x4 ADD PUSH1 0x40 MLOAD DUP1 SWAP2 SUB SWAP1 REVERT JUMPDEST DUP1 SLOAD PUSH1 0x1 PUSH1 0x1 PUSH1 0xA0 SHL SUB AND CALLER EQ PUSH2 0x3CDD JUMPI PUSH1 0x40 MLOAD PUSH4 0x22087F49 PUSH1 0xE1 SHL DUP2 MSTORE PUSH1 0x4 ADD PUSH1 0x40 MLOAD DUP1 SWAP2 SUB SWAP1 REVERT JUMPDEST PUSH1 0x5 DUP2 ADD DUP1 SLOAD PUSH1 0xFF NOT AND SWAP1 SSTORE PUSH1 0x3 DUP2 ADD SLOAD CALLER PUSH0 SWAP1 DUP2 MSTORE PUSH1 0x14 PUSH1 0x20 MSTORE PUSH1 0x40 DUP2 KECCAK256 DUP1 SLOAD SWAP1 SWAP2 SWAP1 PUSH2 0x3D0C SWAP1 DUP5 SWAP1 PUSH2 0x4BBE JUMP JUMPDEST SWAP1 SWAP2 SSTORE POP POP PUSH1 0x40 MLOAD DUP3 SWAP1 PUSH32 0xC28B4AED030BFACC245C0501326E1BEB8C0EF0D60E4EDC21067FDEB52DA2A7AA SWAP1 PUSH0 SWAP1 LOG2 POP POP JUMP JUMPDEST PUSH2 0x3D47 PUSH2 0x3E92 JUMP JUMPDEST PUSH1 0x1 PUSH1 0x1 PUSH1 0xA0 SHL SUB DUP2 AND PUSH2 0x3D75 JUMPI PUSH1 0x40 MLOAD PUSH4 0x1E4FBDF7 PUSH1 0xE0 SHL DUP2 MSTORE PUSH0 PUSH1 0x4 DUP3 ADD MSTORE PUSH1 0x24 ADD JUMPDEST PUSH1 0x40 MLOAD DUP1 SWAP2 SUB SWAP1 REVERT JUMPDEST PUSH2 0x1799 DUP2 PUSH2 0x469D JUMP JUMPDEST PUSH0 DUP2 DUP2 MSTORE PUSH1 0xF PUSH1 0x20 MSTORE PUSH1 0x40 SWAP1 KECCAK256 PUSH1 0x5 DUP2 ADD SLOAD PUSH1 0xFF AND PUSH2 0x3DB0 JUMPI PUSH1 0x40 MLOAD PUSH4 0x24868747 PUSH1 0xE0 SHL DUP2 MSTORE PUSH1 0x4 ADD PUSH1 0x40 MLOAD DUP1 SWAP2 SUB SWAP1 REVERT JUMPDEST DUP1 SLOAD PUSH1 0x1 PUSH1 0x1 PUSH1 0xA0 SHL SUB AND CALLER EQ PUSH2 0x3DDA JUMPI PUSH1 0x40 MLOAD PUSH4 0x22087F49 PUSH1 0xE1 SHL DUP2 MSTORE PUSH1 0x4 ADD PUSH1 0x40 MLOAD DUP1 SWAP2 SUB SWAP1 REVERT JUMPDEST PUSH1 0x5 DUP2 ADD DUP1 SLOAD PUSH1 0xFF NOT AND SWAP1 SSTORE PUSH1 0x40 MLOAD DUP3 SWAP1 PUSH32 0xBA6BF99531D1F4BE033F1B60C3438D405A32BA8003A13BE82CCBC5AEF6B80A57 SWAP1 PUSH0 SWAP1 LOG2 POP POP JUMP JUMPDEST PUSH2 0x3E1C PUSH2 0x472E JUMP JUMPDEST PUSH1 0x2 PUSH32 0x9B779B17422D0DF92223018B32B4D1FA46E071723D6817E2486D003BECC55F00 SSTORE JUMP JUMPDEST PUSH0 SLOAD PUSH1 0x1 PUSH1 0xA0 SHL SWAP1 DIV PUSH1 0xFF AND ISZERO PUSH2 0x1B30 JUMPI PUSH1 0x40 MLOAD PUSH4 0xD93C0665 PUSH1 0xE0 SHL DUP2 MSTORE PUSH1 0x4 ADD PUSH1 0x40 MLOAD DUP1 SWAP2 SUB SWAP1 REVERT JUMPDEST PUSH1 0x1 PUSH32 0x9B779B17422D0DF92223018B32B4D1FA46E071723D6817E2486D003BECC55F00 SSTORE JUMP JUMPDEST PUSH0 SLOAD PUSH1 0x1 PUSH1 0x1 PUSH1 0xA0 SHL SUB AND CALLER EQ PUSH2 0x1B30 JUMPI PUSH1 0x40 MLOAD PUSH4 0x118CDAA7 PUSH1 0xE0 SHL DUP2 MSTORE CALLER PUSH1 0x4 DUP3 ADD MSTORE PUSH1 0x24 ADD PUSH2 0x3D6C JUMP JUMPDEST PUSH0 PUSH2 0x2710 PUSH1 0x2 SLOAD DUP4 PUSH2 0x3ED0 SWAP2 SWAP1 PUSH2 0x4BEA JUMP JUMPDEST PUSH2 0x3EDA SWAP2 SWAP1 PUSH2 0x4C01 JUMP JUMPDEST PUSH1 0x40 MLOAD PUSH4 0x152A902D PUSH1 0xE1 SHL DUP2 MSTORE PUSH1 0x4 DUP2 ADD DUP7 SWAP1 MSTORE PUSH1 0x24 DUP2 ADD DUP5 SWAP1 MSTORE SWAP1 SWAP2 POP PUSH0 SWAP1 DUP2 SWAP1 PUSH1 0x1 PUSH1 0x1 PUSH1 0xA0 SHL SUB DUP9 AND SWAP1 PUSH4 0x2A55205A SWAP1 PUSH1 0x44 ADD PUSH1 0x40 DUP1 MLOAD DUP1 DUP4 SUB DUP2 DUP7 GAS STATICCALL SWAP3 POP POP POP DUP1 ISZERO PUSH2 0x3F48 JUMPI POP PUSH1 0x40 DUP1 MLOAD PUSH1 0x1F RETURNDATASIZE SWAP1 DUP2 ADD PUSH1 0x1F NOT AND DUP3 ADD SWAP1 SWAP3 MSTORE PUSH2 0x3F45 SWAP2 DUP2 ADD SWAP1 PUSH2 0x4C48 JUMP JUMPDEST PUSH1 0x1 JUMPDEST ISZERO PUSH2 0x3F52 JUMPI SWAP3 POP SWAP1 POP JUMPDEST PUSH1 0x1 PUSH1 0x1 PUSH1 0xA0 SHL SUB DUP2 AND PUSH2 0x3F64 JUMPI PUSH0 SWAP2 POP JUMPDEST DUP4 PUSH2 0x3F6F DUP4 DUP6 PUSH2 0x4BBE JUMP JUMPDEST GT ISZERO PUSH2 0x3F7B JUMPI POP PUSH0 SWAP1 POP DUP1 JUMPDEST PUSH0 DUP3 PUSH2 0x3F87 DUP6 DUP8 PUSH2 0x4BD7 JUMP JUMPDEST PUSH2 0x3F91 SWAP2 SWAP1 PUSH2 0x4BD7 JUMP JUMPDEST SWAP1 POP DUP4 ISZERO PUSH2 0x3FE1 JUMPI DUP4 PUSH1 0x14 PUSH0 PUSH2 0x3FAE PUSH0 SLOAD PUSH1 0x1 PUSH1 0x1 PUSH1 0xA0 SHL SUB AND SWAP1 JUMP JUMPDEST PUSH1 0x1 PUSH1 0x1 PUSH1 0xA0 SHL SUB AND PUSH1 0x1 PUSH1 0x1 PUSH1 0xA0 SHL SUB AND DUP2 MSTORE PUSH1 0x20 ADD SWAP1 DUP2 MSTORE PUSH1 0x20 ADD PUSH0 KECCAK256 PUSH0 DUP3 DUP3 SLOAD PUSH2 0x3FDB SWAP2 SWAP1 PUSH2 0x4BBE JUMP JUMPDEST SWAP1 SWAP2 SSTORE POP POP JUMPDEST PUSH0 DUP4 GT DUP1 ISZERO PUSH2 0x3FF8 JUMPI POP PUSH1 0x1 PUSH1 0x1 PUSH1 0xA0 SHL SUB DUP3 AND ISZERO ISZERO JUMPDEST ISZERO PUSH2 0x4126 JUMPI PUSH1 0x40 MLOAD PUSH4 0xC484F311 PUSH1 0xE0 SHL DUP2 MSTORE PUSH1 0x4 DUP2 ADD DUP9 SWAP1 MSTORE PUSH1 0x1 PUSH1 0x1 PUSH1 0xA0 SHL SUB DUP10 AND SWAP1 PUSH4 0xC484F311 SWAP1 PUSH1 0x24 ADD PUSH1 0x20 PUSH1 0x40 MLOAD DUP1 DUP4 SUB DUP2 DUP7 GAS STATICCALL SWAP3 POP POP POP DUP1 ISZERO PUSH2 0x405E JUMPI POP PUSH1 0x40 DUP1 MLOAD PUSH1 0x1F RETURNDATASIZE SWAP1 DUP2 ADD PUSH1 0x1F NOT AND DUP3 ADD SWAP1 SWAP3 MSTORE PUSH2 0x405B SWAP2 DUP2 ADD SWAP1 PUSH2 0x4B4F JUMP JUMPDEST PUSH1 0x1 JUMPDEST PUSH2 0x4094 JUMPI PUSH1 0x1 PUSH1 0x1 PUSH1 0xA0 SHL SUB DUP3 AND PUSH0 SWAP1 DUP2 MSTORE PUSH1 0x14 PUSH1 0x20 MSTORE PUSH1 0x40 DUP2 KECCAK256 DUP1 SLOAD DUP6 SWAP3 SWAP1 PUSH2 0x4089 SWAP1 DUP5 SWAP1 PUSH2 0x4BBE JUMP JUMPDEST SWAP1 SWAP2 SSTORE POP PUSH2 0x4126 SWAP1 POP JUMP JUMPDEST DUP1 ISZERO PUSH2 0x40F7 JUMPI PUSH1 0x40 MLOAD PUSH4 0x4CC575A9 PUSH1 0xE0 SHL DUP2 MSTORE PUSH1 0x4 DUP2 ADD DUP10 SWAP1 MSTORE PUSH1 0x1 PUSH1 0x1 PUSH1 0xA0 SHL SUB DUP11 AND SWAP1 PUSH4 0x4CC575A9 SWAP1 DUP7 SWAP1 PUSH1 0x24 ADD PUSH0 PUSH1 0x40 MLOAD DUP1 DUP4 SUB DUP2 DUP6 DUP9 DUP1 EXTCODESIZE ISZERO DUP1 ISZERO PUSH2 0x40DB JUMPI PUSH0 PUSH0 REVERT JUMPDEST POP GAS CALL ISZERO DUP1 ISZERO PUSH2 0x40ED JUMPI RETURNDATASIZE PUSH0 PUSH0 RETURNDATACOPY RETURNDATASIZE PUSH0 REVERT JUMPDEST POP POP POP POP POP PUSH2 0x4124 JUMP JUMPDEST PUSH1 0x1 PUSH1 0x1 PUSH1 0xA0 SHL SUB DUP4 AND PUSH0 SWAP1 DUP2 MSTORE PUSH1 0x14 PUSH1 0x20 MSTORE PUSH1 0x40 DUP2 KECCAK256 DUP1 SLOAD DUP7 SWAP3 SWAP1 PUSH2 0x411E SWAP1 DUP5 SWAP1 PUSH2 0x4BBE JUMP JUMPDEST SWAP1 SWAP2 SSTORE POP POP JUMPDEST POP JUMPDEST DUP1 ISZERO PUSH2 0x4159 JUMPI PUSH1 0x1 PUSH1 0x1 PUSH1 0xA0 SHL SUB DUP7 AND PUSH0 SWAP1 DUP2 MSTORE PUSH1 0x14 PUSH1 0x20 MSTORE PUSH1 0x40 DUP2 KECCAK256 DUP1 SLOAD DUP4 SWAP3 SWAP1 PUSH2 0x4153 SWAP1 DUP5 SWAP1 PUSH2 0x4BBE JUMP JUMPDEST SWAP1 SWAP2 SSTORE POP POP JUMPDEST POP POP POP POP POP POP POP POP JUMP JUMPDEST PUSH1 0x9 DUP1 SLOAD PUSH0 SWAP2 DUP3 PUSH2 0x4173 DUP4 PUSH2 0x4BA6 JUMP JUMPDEST SWAP1 SWAP2 SSTORE POP PUSH1 0x40 DUP1 MLOAD PUSH1 0xC0 DUP2 ADD DUP3 MSTORE PUSH1 0x1 PUSH1 0x1 PUSH1 0xA0 SHL SUB DUP10 DUP2 AND DUP1 DUP4 MSTORE DUP10 DUP3 AND PUSH1 0x20 DUP1 DUP6 ADD DUP3 DUP2 MSTORE DUP12 DUP6 AND DUP7 DUP9 ADD SWAP1 DUP2 MSTORE PUSH1 0x60 DUP1 DUP9 ADD DUP14 DUP2 MSTORE PUSH1 0xFF DUP14 DUP2 AND PUSH1 0x80 DUP12 ADD DUP2 DUP2 MSTORE TIMESTAMP PUSH1 0xA0 DUP14 ADD SWAP1 DUP2 MSTORE PUSH0 DUP16 DUP2 MSTORE PUSH1 0x10 DUP11 MSTORE DUP15 SWAP1 KECCAK256 SWAP13 MLOAD DUP14 SLOAD SWAP1 DUP14 AND PUSH1 0x1 PUSH1 0x1 PUSH1 0xA0 SHL SUB NOT SWAP2 DUP3 AND OR DUP15 SSTORE SWAP8 MLOAD PUSH1 0x1 DUP15 ADD DUP1 SLOAD SWAP2 DUP15 AND SWAP2 DUP11 AND SWAP2 SWAP1 SWAP2 OR SWAP1 SSTORE SWAP6 MLOAD PUSH1 0x2 DUP14 ADD DUP1 SLOAD SWAP2 SWAP1 SWAP13 AND SWAP8 AND SWAP7 SWAP1 SWAP7 OR SWAP1 SWAP10 SSTORE SWAP1 MLOAD PUSH1 0x3 DUP11 ADD SSTORE SWAP3 MLOAD PUSH1 0x4 DUP10 ADD DUP1 SLOAD SWAP2 SWAP1 SWAP5 AND PUSH1 0xFF NOT SWAP1 SWAP2 AND OR SWAP1 SWAP3 SSTORE MLOAD PUSH1 0x5 SWAP1 SWAP7 ADD SWAP6 SWAP1 SWAP6 SSTORE DUP6 MLOAD SWAP3 DUP4 MSTORE DUP3 ADD MSTORE SWAP3 DUP4 ADD MSTORE SWAP2 SWAP3 POP DUP3 SWAP2 PUSH32 0xF3B44E28D69C0A0D474484B9345EB23E108B3E437FB66DA405F5B82401DA499E SWAP2 ADD PUSH1 0x40 MLOAD DUP1 SWAP2 SUB SWAP1 LOG2 POP POP POP POP POP POP JUMP JUMPDEST PUSH1 0x1 SLOAD PUSH0 SWAP1 PUSH1 0x1 PUSH1 0x1 PUSH1 0xA0 SHL SUB AND PUSH2 0x429F JUMPI PUSH1 0x40 MLOAD PUSH4 0x3E1E5381 PUSH1 0xE2 SHL DUP2 MSTORE PUSH1 0x4 ADD PUSH1 0x40 MLOAD DUP1 SWAP2 SUB SWAP1 REVERT JUMPDEST PUSH1 0x1 SLOAD PUSH1 0x40 DUP1 MLOAD PUSH4 0x8E15F473 PUSH1 0xE0 SHL DUP2 MSTORE DUP2 MLOAD PUSH0 SWAP4 PUSH1 0x1 PUSH1 0x1 PUSH1 0xA0 SHL SUB AND SWAP3 PUSH4 0x8E15F473 SWAP3 PUSH1 0x4 DUP1 DUP3 ADD SWAP4 SWAP2 DUP3 SWAP1 SUB ADD DUP2 DUP7 GAS STATICCALL ISZERO DUP1 ISZERO PUSH2 0x42E2 JUMPI RETURNDATASIZE PUSH0 PUSH0 RETURNDATACOPY RETURNDATASIZE PUSH0 REVERT JUMPDEST POP POP POP POP PUSH1 0x40 MLOAD RETURNDATASIZE PUSH1 0x1F NOT PUSH1 0x1F DUP3 ADD AND DUP3 ADD DUP1 PUSH1 0x40 MSTORE POP DUP2 ADD SWAP1 PUSH2 0x4306 SWAP2 SWAP1 PUSH2 0x4C74 JUMP JUMPDEST POP SWAP1 POP DUP1 PUSH0 SUB PUSH2 0x4329 JUMPI PUSH1 0x40 MLOAD PUSH4 0x3E1E5381 PUSH1 0xE2 SHL DUP2 MSTORE PUSH1 0x4 ADD PUSH1 0x40 MLOAD DUP1 SWAP2 SUB SWAP1 REVERT JUMPDEST DUP1 PUSH1 0x1 DUP2 PUSH2 0x4341 PUSH10 0xD3C21BCECCEDA1000000 DUP8 PUSH2 0x4BEA JUMP JUMPDEST PUSH2 0x434B SWAP2 SWAP1 PUSH2 0x4BBE JUMP JUMPDEST PUSH2 0x4355 SWAP2 SWAP1 PUSH2 0x4BD7 JUMP JUMPDEST PUSH2 0x352A SWAP2 SWAP1 PUSH2 0x4C01 JUMP JUMPDEST PUSH0 DUP3 PUSH0 SUB PUSH2 0x4380 JUMPI PUSH1 0x40 MLOAD PUSH4 0x7294708F PUSH1 0xE1 SHL DUP2 MSTORE PUSH1 0x4 ADD PUSH1 0x40 MLOAD DUP1 SWAP2 SUB SWAP1 REVERT JUMPDEST PUSH1 0x40 MLOAD PUSH4 0x31A9108F PUSH1 0xE1 SHL DUP2 MSTORE PUSH1 0x4 DUP2 ADD DUP6 SWAP1 MSTORE DUP6 SWAP1 CALLER SWAP1 PUSH1 0x1 PUSH1 0x1 PUSH1 0xA0 SHL SUB DUP4 AND SWAP1 PUSH4 0x6352211E SWAP1 PUSH1 0x24 ADD PUSH1 0x20 PUSH1 0x40 MLOAD DUP1 DUP4 SUB DUP2 DUP7 GAS STATICCALL ISZERO DUP1 ISZERO PUSH2 0x43C7 JUMPI RETURNDATASIZE PUSH0 PUSH0 RETURNDATACOPY RETURNDATASIZE PUSH0 REVERT JUMPDEST POP POP POP POP PUSH1 0x40 MLOAD RETURNDATASIZE PUSH1 0x1F NOT PUSH1 0x1F DUP3 ADD AND DUP3 ADD DUP1 PUSH1 0x40 MSTORE POP DUP2 ADD SWAP1 PUSH2 0x43EB SWAP2 SWAP1 PUSH2 0x4B34 JUMP JUMPDEST PUSH1 0x1 PUSH1 0x1 PUSH1 0xA0 SHL SUB AND EQ PUSH2 0x4412 JUMPI PUSH1 0x40 MLOAD PUSH4 0x59DC379F PUSH1 0xE0 SHL DUP2 MSTORE PUSH1 0x4 ADD PUSH1 0x40 MLOAD DUP1 SWAP2 SUB SWAP1 REVERT JUMPDEST PUSH1 0x40 MLOAD PUSH4 0x20604BF PUSH1 0xE2 SHL DUP2 MSTORE PUSH1 0x4 DUP2 ADD DUP7 SWAP1 MSTORE ADDRESS SWAP1 PUSH1 0x1 PUSH1 0x1 PUSH1 0xA0 SHL SUB DUP4 AND SWAP1 PUSH4 0x81812FC SWAP1 PUSH1 0x24 ADD PUSH1 0x20 PUSH1 0x40 MLOAD DUP1 DUP4 SUB DUP2 DUP7 GAS STATICCALL ISZERO DUP1 ISZERO PUSH2 0x4457 JUMPI RETURNDATASIZE PUSH0 PUSH0 RETURNDATACOPY RETURNDATASIZE PUSH0 REVERT JUMPDEST POP POP POP POP PUSH1 0x40 MLOAD RETURNDATASIZE PUSH1 0x1F NOT PUSH1 0x1F DUP3 ADD AND DUP3 ADD DUP1 PUSH1 0x40 MSTORE POP DUP2 ADD SWAP1 PUSH2 0x447B SWAP2 SWAP1 PUSH2 0x4B34 JUMP JUMPDEST PUSH1 0x1 PUSH1 0x1 PUSH1 0xA0 SHL SUB AND EQ ISZERO DUP1 ISZERO PUSH2 0x44FB JUMPI POP PUSH1 0x40 MLOAD PUSH4 0xE985E9C5 PUSH1 0xE0 SHL DUP2 MSTORE CALLER PUSH1 0x4 DUP3 ADD MSTORE ADDRESS PUSH1 0x24 DUP3 ADD MSTORE PUSH1 0x1 PUSH1 0x1 PUSH1 0xA0 SHL SUB DUP3 AND SWAP1 PUSH4 0xE985E9C5 SWAP1 PUSH1 0x44 ADD PUSH1 0x20 PUSH1 0x40 MLOAD DUP1 DUP4 SUB DUP2 DUP7 GAS STATICCALL ISZERO DUP1 ISZERO PUSH2 0x44D5 JUMPI RETURNDATASIZE PUSH0 PUSH0 RETURNDATACOPY RETURNDATASIZE PUSH0 REVERT JUMPDEST POP POP POP POP PUSH1 0x40 MLOAD RETURNDATASIZE PUSH1 0x1F NOT PUSH1 0x1F DUP3 ADD AND DUP3 ADD DUP1 PUSH1 0x40 MSTORE POP DUP2 ADD SWAP1 PUSH2 0x44F9 SWAP2 SWAP1 PUSH2 0x4B4F JUMP JUMPDEST ISZERO JUMPDEST ISZERO PUSH2 0x4519 JUMPI PUSH1 0x40 MLOAD PUSH4 0xA9248D25 PUSH1 0xE0 SHL DUP2 MSTORE PUSH1 0x4 ADD PUSH1 0x40 MLOAD DUP1 SWAP2 SUB SWAP1 REVERT JUMPDEST PUSH0 DUP4 ISZERO PUSH2 0x452F JUMPI PUSH2 0x452A DUP5 TIMESTAMP PUSH2 0x4BBE JUMP JUMPDEST PUSH2 0x4531 JUMP JUMPDEST PUSH0 JUMPDEST PUSH1 0x3 DUP1 SLOAD SWAP2 SWAP3 POP PUSH0 SWAP2 SWAP1 DUP3 PUSH2 0x4545 DUP4 PUSH2 0x4BA6 JUMP JUMPDEST SWAP1 SWAP2 SSTORE POP PUSH1 0x40 DUP1 MLOAD PUSH1 0xC0 DUP2 ADD DUP3 MSTORE CALLER DUP1 DUP3 MSTORE PUSH1 0x1 PUSH1 0x1 PUSH1 0xA0 SHL SUB DUP13 DUP2 AND PUSH1 0x20 DUP1 DUP6 ADD DUP3 DUP2 MSTORE DUP6 DUP8 ADD DUP16 DUP2 MSTORE PUSH1 0x60 DUP8 ADD DUP16 DUP2 MSTORE PUSH1 0x1 PUSH1 0x80 DUP10 ADD DUP2 DUP2 MSTORE PUSH1 0xA0 DUP11 ADD DUP15 DUP2 MSTORE PUSH0 DUP14 DUP2 MSTORE PUSH1 0xA SWAP1 SWAP8 MSTORE SWAP6 DUP12 SWAP1 KECCAK256 SWAP10 MLOAD DUP11 SLOAD SWAP1 DUP10 AND PUSH1 0x1 PUSH1 0x1 PUSH1 0xA0 SHL SUB NOT SWAP2 DUP3 AND OR DUP12 SSTORE SWAP5 MLOAD SWAP2 DUP11 ADD DUP1 SLOAD SWAP3 SWAP1 SWAP9 AND SWAP2 SWAP1 SWAP5 AND OR SWAP1 SWAP6 SSTORE MLOAD PUSH1 0x2 DUP8 ADD SSTORE SWAP3 MLOAD PUSH1 0x3 DUP7 ADD SSTORE SWAP2 MLOAD PUSH1 0x4 DUP6 ADD DUP1 SLOAD SWAP2 ISZERO ISZERO PUSH1 0xFF NOT SWAP1 SWAP3 AND SWAP2 SWAP1 SWAP2 OR SWAP1 SSTORE SWAP1 MLOAD PUSH1 0x5 SWAP1 SWAP4 ADD SWAP3 SWAP1 SWAP3 SSTORE SWAP2 MLOAD SWAP3 SWAP4 POP SWAP2 DUP4 SWAP1 PUSH32 0x1D2286580411F12056775BF9E0FD10101148B09A6FCA67C9F426FB113A28D1F8 SWAP1 PUSH2 0x4636 SWAP1 DUP13 SWAP1 DUP13 SWAP1 DUP10 SWAP1 SWAP3 DUP4 MSTORE PUSH1 0x20 DUP4 ADD SWAP2 SWAP1 SWAP2 MSTORE PUSH1 0x40 DUP3 ADD MSTORE PUSH1 0x60 ADD SWAP1 JUMP JUMPDEST PUSH1 0x40 MLOAD DUP1 SWAP2 SUB SWAP1 LOG4 SWAP8 SWAP7 POP POP POP POP POP POP POP JUMP JUMPDEST PUSH2 0x4651 PUSH2 0x4770 JUMP JUMPDEST PUSH0 DUP1 SLOAD PUSH1 0xFF PUSH1 0xA0 SHL NOT AND SWAP1 SSTORE PUSH32 0x5DB9EE0A495BF2E6FF9C91A7834C1BA4FDD244A5E8AA4E537BD38AEAE4B073AA CALLER JUMPDEST PUSH1 0x40 MLOAD PUSH1 0x1 PUSH1 0x1 PUSH1 0xA0 SHL SUB SWAP1 SWAP2 AND DUP2 MSTORE PUSH1 0x20 ADD PUSH1 0x40 MLOAD DUP1 SWAP2 SUB SWAP1 LOG1 JUMP JUMPDEST PUSH0 DUP1 SLOAD PUSH1 0x1 PUSH1 0x1 PUSH1 0xA0 SHL SUB DUP4 DUP2 AND PUSH1 0x1 PUSH1 0x1 PUSH1 0xA0 SHL SUB NOT DUP4 AND DUP2 OR DUP5 SSTORE PUSH1 0x40 MLOAD SWAP2 SWAP1 SWAP3 AND SWAP3 DUP4 SWAP2 PUSH32 0x8BE0079C531659141344CD1FD0A4F28419497F9722A3DAAFE3B4186F6B6457E0 SWAP2 SWAP1 LOG3 POP POP JUMP JUMPDEST PUSH2 0x46F4 PUSH2 0x3E42 JUMP JUMPDEST PUSH0 DUP1 SLOAD PUSH1 0xFF PUSH1 0xA0 SHL NOT AND PUSH1 0x1 PUSH1 0xA0 SHL OR SWAP1 SSTORE PUSH32 0x62E78CEA01BEE320CD4E420270B5EA74000D11B0C9F74754EBDBFC544B05A258 PUSH2 0x4680 CALLER SWAP1 JUMP JUMPDEST PUSH32 0x9B779B17422D0DF92223018B32B4D1FA46E071723D6817E2486D003BECC55F00 SLOAD PUSH1 0x2 SUB PUSH2 0x1B30 JUMPI PUSH1 0x40 MLOAD PUSH4 0x3EE5AEB5 PUSH1 0xE0 SHL DUP2 MSTORE PUSH1 0x4 ADD PUSH1 0x40 MLOAD DUP1 SWAP2 SUB SWAP1 REVERT JUMPDEST PUSH0 SLOAD PUSH1 0x1 PUSH1 0xA0 SHL SWAP1 DIV PUSH1 0xFF AND PUSH2 0x1B30 JUMPI PUSH1 0x40 MLOAD PUSH4 0x8DFC202B PUSH1 0xE0 SHL DUP2 MSTORE PUSH1 0x4 ADD PUSH1 0x40 MLOAD DUP1 SWAP2 SUB SWAP1 REVERT JUMPDEST PUSH1 0x1 PUSH1 0x1 PUSH1 0xA0 SHL SUB DUP2 AND DUP2 EQ PUSH2 0x1799 JUMPI PUSH0 PUSH0 REVERT JUMPDEST PUSH0 PUSH0 PUSH0 PUSH0 PUSH0 PUSH1 0xA0 DUP7 DUP9 SUB SLT ISZERO PUSH2 0x47C1 JUMPI PUSH0 PUSH0 REVERT JUMPDEST DUP6 CALLDATALOAD PUSH2 0x47CC DUP2 PUSH2 0x4799 JUMP JUMPDEST SWAP8 PUSH1 0x20 DUP8 ADD CALLDATALOAD SWAP8 POP PUSH1 0x40 DUP8 ADD CALLDATALOAD SWAP7 PUSH1 0x60 DUP2 ADD CALLDATALOAD SWAP7 POP PUSH1 0x80 ADD CALLDATALOAD SWAP5 POP SWAP3 POP POP POP JUMP JUMPDEST PUSH0 PUSH1 0x20 DUP3 DUP5 SUB SLT ISZERO PUSH2 0x47FD JUMPI PUSH0 PUSH0 REVERT JUMPDEST POP CALLDATALOAD SWAP2 SWAP1 POP JUMP JUMPDEST PUSH0 PUSH0 PUSH0 PUSH0 PUSH0 PUSH1 0x80 DUP7 DUP9 SUB SLT ISZERO PUSH2 0x4818 JUMPI PUSH0 PUSH0 REVERT JUMPDEST DUP6 CALLDATALOAD PUSH2 0x4823 DUP2 PUSH2 0x4799 JUMP JUMPDEST SWAP5 POP PUSH1 0x20 DUP7 ADD CALLDATALOAD PUSH2 0x4833 DUP2 PUSH2 0x4799 JUMP JUMPDEST SWAP4 POP PUSH1 0x40 DUP7 ADD CALLDATALOAD SWAP3 POP PUSH1 0x60 DUP7 ADD CALLDATALOAD PUSH8 0xFFFFFFFFFFFFFFFF DUP2 GT ISZERO PUSH2 0x4855 JUMPI PUSH0 PUSH0 REVERT JUMPDEST DUP7 ADD PUSH1 0x1F DUP2 ADD DUP9 SGT PUSH2 0x4865 JUMPI PUSH0 PUSH0 REVERT JUMPDEST DUP1 CALLDATALOAD PUSH8 0xFFFFFFFFFFFFFFFF DUP2 GT ISZERO PUSH2 0x487B JUMPI PUSH0 PUSH0 REVERT JUMPDEST DUP9 PUSH1 0x20 DUP3 DUP5 ADD ADD GT ISZERO PUSH2 0x488C JUMPI PUSH0 PUSH0 REVERT JUMPDEST SWAP6 SWAP9 SWAP5 SWAP8 POP SWAP3 SWAP6 POP POP POP PUSH1 0x20 ADD SWAP2 SWAP1 JUMP JUMPDEST PUSH0 PUSH1 0x20 DUP3 DUP5 SUB SLT ISZERO PUSH2 0x48AD JUMPI PUSH0 PUSH0 REVERT JUMPDEST DUP2 CALLDATALOAD PUSH2 0x352A DUP2 PUSH2 0x4799 JUMP JUMPDEST PUSH0 PUSH0 PUSH0 PUSH0 PUSH1 0x80 DUP6 DUP8 SUB SLT ISZERO PUSH2 0x48CB JUMPI PUSH0 PUSH0 REVERT JUMPDEST DUP5 CALLDATALOAD PUSH2 0x48D6 DUP2 PUSH2 0x4799 JUMP JUMPDEST SWAP7 PUSH1 0x20 DUP7 ADD CALLDATALOAD SWAP7 POP PUSH1 0x40 DUP7 ADD CALLDATALOAD SWAP6 PUSH1 0x60 ADD CALLDATALOAD SWAP5 POP SWAP3 POP POP POP JUMP JUMPDEST PUSH0 PUSH0 PUSH1 0x40 DUP4 DUP6 SUB SLT ISZERO PUSH2 0x4901 JUMPI PUSH0 PUSH0 REVERT JUMPDEST DUP3 CALLDATALOAD SWAP2 POP PUSH1 0x20 DUP4 ADD CALLDATALOAD PUSH1 0xFF DUP2 AND DUP2 EQ PUSH2 0x4918 JUMPI PUSH0 PUSH0 REVERT JUMPDEST DUP1 SWAP2 POP POP SWAP3 POP SWAP3 SWAP1 POP JUMP JUMPDEST PUSH0 PUSH0 PUSH0 PUSH1 0x60 DUP5 DUP7 SUB SLT ISZERO PUSH2 0x4935 JUMPI PUSH0 PUSH0 REVERT JUMPDEST DUP4 CALLDATALOAD PUSH2 0x4940 DUP2 PUSH2 0x4799 JUMP JUMPDEST SWAP6 PUSH1 0x20 DUP6 ADD CALLDATALOAD SWAP6 POP PUSH1 0x40 SWAP1 SWAP5 ADD CALLDATALOAD SWAP4 SWAP3 POP POP POP JUMP JUMPDEST PUSH0 PUSH0 PUSH1 0x40 DUP4 DUP6 SUB SLT ISZERO PUSH2 0x4966 JUMPI PUSH0 PUSH0 REVERT JUMPDEST POP POP DUP1 CALLDATALOAD SWAP3 PUSH1 0x20 SWAP1 SWAP2 ADD CALLDATALOAD SWAP2 POP JUMP JUMPDEST PUSH0 PUSH0 PUSH0 PUSH0 PUSH0 PUSH0 PUSH1 0xC0 DUP8 DUP10 SUB SLT ISZERO PUSH2 0x498A JUMPI PUSH0 PUSH0 REVERT JUMPDEST DUP7 CALLDATALOAD PUSH2 0x4995 DUP2 PUSH2 0x4799 JUMP JUMPDEST SWAP6 POP PUSH1 0x20 DUP8 ADD CALLDATALOAD PUSH2 0x49A5 DUP2 PUSH2 0x4799 JUMP JUMPDEST SWAP5 POP PUSH1 0x40 DUP8 ADD CALLDATALOAD SWAP4 POP PUSH1 0x60 DUP8 ADD CALLDATALOAD PUSH2 0x49BC DUP2 PUSH2 0x4799 JUMP JUMPDEST SWAP6 SWAP9 SWAP5 SWAP8 POP SWAP3 SWAP6 PUSH1 0x80 DUP2 ADD CALLDATALOAD SWAP5 PUSH1 0xA0 SWAP1 SWAP2 ADD CALLDATALOAD SWAP4 POP SWAP2 POP POP JUMP JUMPDEST PUSH0 PUSH0 DUP4 PUSH1 0x1F DUP5 ADD SLT PUSH2 0x49E6 JUMPI PUSH0 PUSH0 REVERT JUMPDEST POP DUP2 CALLDATALOAD PUSH8 0xFFFFFFFFFFFFFFFF DUP2 GT ISZERO PUSH2 0x49FD JUMPI PUSH0 PUSH0 REVERT JUMPDEST PUSH1 0x20 DUP4 ADD SWAP2 POP DUP4 PUSH1 0x20 DUP3 PUSH1 0x5 SHL DUP6 ADD ADD GT ISZERO PUSH2 0x4A17 JUMPI PUSH0 PUSH0 REVERT JUMPDEST SWAP3 POP SWAP3 SWAP1 POP JUMP JUMPDEST PUSH0 PUSH0 PUSH0 PUSH0 PUSH0 PUSH0 PUSH0 PUSH1 0x80 DUP9 DUP11 SUB SLT ISZERO PUSH2 0x4A34 JUMPI PUSH0 PUSH0 REVERT JUMPDEST DUP8 CALLDATALOAD PUSH2 0x4A3F DUP2 PUSH2 0x4799 JUMP JUMPDEST SWAP7 POP PUSH1 0x20 DUP9 ADD CALLDATALOAD PUSH8 0xFFFFFFFFFFFFFFFF DUP2 GT ISZERO PUSH2 0x4A5A JUMPI PUSH0 PUSH0 REVERT JUMPDEST PUSH2 0x4A66 DUP11 DUP3 DUP12 ADD PUSH2 0x49D6 JUMP JUMPDEST SWAP1 SWAP8 POP SWAP6 POP POP PUSH1 0x40 DUP9 ADD CALLDATALOAD PUSH8 0xFFFFFFFFFFFFFFFF DUP2 GT ISZERO PUSH2 0x4A85 JUMPI PUSH0 PUSH0 REVERT JUMPDEST PUSH2 0x4A91 DUP11 DUP3 DUP12 ADD PUSH2 0x49D6 JUMP JUMPDEST SWAP1 SWAP6 POP SWAP4 POP POP PUSH1 0x60 DUP9 ADD CALLDATALOAD PUSH8 0xFFFFFFFFFFFFFFFF DUP2 GT ISZERO PUSH2 0x4AB0 JUMPI PUSH0 PUSH0 REVERT JUMPDEST PUSH2 0x4ABC DUP11 DUP3 DUP12 ADD PUSH2 0x49D6 JUMP JUMPDEST SWAP9 SWAP12 SWAP8 SWAP11 POP SWAP6 SWAP9 POP SWAP4 SWAP7 SWAP3 SWAP6 SWAP3 SWAP4 POP POP POP JUMP JUMPDEST PUSH1 0x20 DUP1 DUP3 MSTORE DUP3 MLOAD DUP3 DUP3 ADD DUP2 SWAP1 MSTORE PUSH0 SWAP2 DUP5 ADD SWAP1 PUSH1 0x40 DUP5 ADD SWAP1 DUP4 JUMPDEST DUP2 DUP2 LT ISZERO PUSH2 0x4B06 JUMPI DUP4 MLOAD DUP4 MSTORE PUSH1 0x20 SWAP4 DUP5 ADD SWAP4 SWAP1 SWAP3 ADD SWAP2 PUSH1 0x1 ADD PUSH2 0x4AE8 JUMP JUMPDEST POP SWAP1 SWAP6 SWAP5 POP POP POP POP POP JUMP JUMPDEST PUSH0 PUSH0 PUSH1 0x40 DUP4 DUP6 SUB SLT ISZERO PUSH2 0x4B22 JUMPI PUSH0 PUSH0 REVERT JUMPDEST DUP3 CALLDATALOAD SWAP2 POP PUSH1 0x20 DUP4 ADD CALLDATALOAD PUSH2 0x4918 DUP2 PUSH2 0x4799 JUMP JUMPDEST PUSH0 PUSH1 0x20 DUP3 DUP5 SUB SLT ISZERO PUSH2 0x4B44 JUMPI PUSH0 PUSH0 REVERT JUMPDEST DUP2 MLOAD PUSH2 0x352A DUP2 PUSH2 0x4799 JUMP JUMPDEST PUSH0 PUSH1 0x20 DUP3 DUP5 SUB SLT ISZERO PUSH2 0x4B5F JUMPI PUSH0 PUSH0 REVERT JUMPDEST DUP2 MLOAD DUP1 ISZERO ISZERO DUP2 EQ PUSH2 0x352A JUMPI PUSH0 PUSH0 REVERT JUMPDEST PUSH1 0x1 PUSH1 0x1 PUSH1 0xA0 SHL SUB SWAP4 DUP5 AND DUP2 MSTORE SWAP2 SWAP1 SWAP3 AND PUSH1 0x20 DUP3 ADD MSTORE PUSH1 0x40 DUP2 ADD SWAP2 SWAP1 SWAP2 MSTORE PUSH1 0x60 ADD SWAP1 JUMP JUMPDEST PUSH4 0x4E487B71 PUSH1 0xE0 SHL PUSH0 MSTORE PUSH1 0x11 PUSH1 0x4 MSTORE PUSH1 0x24 PUSH0 REVERT JUMPDEST PUSH0 PUSH1 0x1 DUP3 ADD PUSH2 0x4BB7 JUMPI PUSH2 0x4BB7 PUSH2 0x4B92 JUMP JUMPDEST POP PUSH1 0x1 ADD SWAP1 JUMP JUMPDEST DUP1 DUP3 ADD DUP1 DUP3 GT ISZERO PUSH2 0x4BD1 JUMPI PUSH2 0x4BD1 PUSH2 0x4B92 JUMP JUMPDEST SWAP3 SWAP2 POP POP JUMP JUMPDEST DUP2 DUP2 SUB DUP2 DUP2 GT ISZERO PUSH2 0x4BD1 JUMPI PUSH2 0x4BD1 PUSH2 0x4B92 JUMP JUMPDEST DUP1 DUP3 MUL DUP2 ISZERO DUP3 DUP3 DIV DUP5 EQ OR PUSH2 0x4BD1 JUMPI PUSH2 0x4BD1 PUSH2 0x4B92 JUMP JUMPDEST PUSH0 DUP3 PUSH2 0x4C1B JUMPI PUSH4 0x4E487B71 PUSH1 0xE0 SHL PUSH0 MSTORE PUSH1 0x12 PUSH1 0x4 MSTORE PUSH1 0x24 PUSH0 REVERT JUMPDEST POP DIV SWAP1 JUMP JUMPDEST PUSH4 0x4E487B71 PUSH1 0xE0 SHL PUSH0 MSTORE PUSH1 0x41 PUSH1 0x4 MSTORE PUSH1 0x24 PUSH0 REVERT JUMPDEST PUSH4 0x4E487B71 PUSH1 0xE0 SHL PUSH0 MSTORE PUSH1 0x32 PUSH1 0x4 MSTORE PUSH1 0x24 PUSH0 REVERT JUMPDEST PUSH0 PUSH0 PUSH1 0x40 DUP4 DUP6 SUB SLT ISZERO PUSH2 0x4C59 JUMPI PUSH0 PUSH0 REVERT JUMPDEST DUP3 MLOAD PUSH2 0x4C64 DUP2 PUSH2 0x4799 JUMP JUMPDEST PUSH1 0x20 SWAP4 SWAP1 SWAP4 ADD MLOAD SWAP3 SWAP5 SWAP3 SWAP4 POP POP POP JUMP JUMPDEST PUSH0 PUSH0 PUSH1 0x40 DUP4 DUP6 SUB SLT ISZERO PUSH2 0x4C85 JUMPI PUSH0 PUSH0 REVERT JUMPDEST POP POP DUP1 MLOAD PUSH1 0x20 SWAP1 SWAP2 ADD MLOAD SWAP1 SWAP3 SWAP1 SWAP2 POP JUMP INVALID LOG2 PUSH5 0x6970667358 0x22 SLT KECCAK256 0x25 EXTCODEHASH CALLDATASIZE 0xC3 CALLVALUE 0x4C DUP16 0xBE SWAP5 STATICCALL 0xBC CALLDATACOPY 0xAE 0x1E DUP5 PUSH7 0xF3A15F81CE4758 SWAP16 DELEGATECALL CALLDATASIZE SUB DUP5 0xFB 0xF7 0xC2 0xF6 PUSH5 0x736F6C6343 STOP ADDMOD SHR STOP CALLER "},"methodIdentifiers":{"ANTI_SNIPE_DURATION()":"95eae396","BPS_DENOMINATOR()":"e1a45218","MAX_AUCTION_DURATION()":"3fb35178","MAX_BATCH_SIZE()":"cfdbf254","MAX_FEE()":"bc063e1a","MIN_AUCTION_DURATION()":"c2f50a7a","MIN_BID_INCREMENT_BPS()":"14414cc0","SLIPPAGE_BPS()":"77f8bb6d","USD_WEI_FACTOR()":"9f720c62","acceptOffer(uint256)":"c815729d","acceptSwap(uint256)":"1bf33004","auctions(uint256)":"571a26a0","batchListNFT(address,uint256[],uint256[],uint256[])":"adb1fd06","buyDutchAuction(uint256)":"25481f5f","buyNFT(uint256)":"51ed8288","cancelAuction(uint256)":"96b5a755","cancelDutchAuction(uint256)":"ddee8433","cancelListing(uint256)":"305a67a8","cancelOffer(uint256)":"ef706adf","cancelRentalListing(uint256)":"f65a56da","cancelSwap(uint256)":"54d6a2b7","completedTxs(uint256)":"7c6e5fba","createAuction(address,uint256,uint256,uint256)":"61beb1d7","createDutchAuction(address,uint256,uint256,uint256,uint256)":"065da698","dutchAuctions(uint256)":"f2ab2fc0","endAuction(uint256)":"b9a2de3a","getAuctionCount()":"c44e6640","getCompletedTxCount()":"d12314ae","getDutchAuctionCount()":"bcc872aa","getDutchAuctionCurrentPrice(uint256)":"1be66284","getDutchAuctionPriceInWei(uint256)":"a1f0f438","getListingCount()":"87ed92d7","getListingPriceInWei(uint256)":"cb91ec4f","getOfferCount()":"d048db37","getRentalListingCount()":"722d7154","getReputation(address)":"9c89a0e2","getSwapCount()":"d81671bc","isListingExpired(uint256)":"b50250a3","listForRent(address,uint256,uint256,uint256)":"85ad53cd","listNFT(address,uint256,uint256,uint256)":"3c44a5f0","listings(uint256)":"de74e57b","makeOffer(address,uint256,uint256)":"7de3bd07","offers(uint256)":"8a72ea6a","onERC721Received(address,address,uint256,bytes)":"150b7a02","oracle()":"7dc0d1d0","owner()":"8da5cb5b","pause()":"8456cb59","paused()":"5c975abb","pendingWithdrawals(address)":"f3f43703","placeBid(uint256)":"9979ef45","platformFeeBps()":"22dcd13e","proposeSwap(address,address,uint256,address,uint256,uint256)":"a7cd11f0","rateTransaction(uint256,uint8)":"6941c810","ratingCount(address)":"2404165e","renounceOwnership()":"715018a6","rentNFT(uint256,uint256)":"93b2d6a0","rentalListings(uint256)":"4934f4a1","reputationScore(address)":"50d061cb","setOracle(address)":"7adbf973","setPlatformFee(uint256)":"12e8e2c3","swaps(uint256)":"f09c5829","transferOwnership(address)":"f2fde38b","txRatings(uint256,address)":"eb1b0c97","unpause()":"3f4ba83a","updateListingPrice(uint256,uint256)":"c4604943","withdraw()":"3ccfd60b"}}}}}