{"contracts/PriceOracle.sol":{"PriceOracle":{"abi":[{"inputs":[],"stateMutability":"nonpayable","type":"constructor"},{"inputs":[],"name":"AlreadySubmitted","type":"error"},{"inputs":[],"name":"InsufficientStake","type":"error"},{"inputs":[],"name":"NoPrice","type":"error"},{"inputs":[],"name":"NoStakeToWithdraw","type":"error"},{"inputs":[],"name":"NotAuthorizedReporter","type":"error"},{"inputs":[{"internalType":"address","name":"owner","type":"address"}],"name":"OwnableInvalidOwner","type":"error"},{"inputs":[{"internalType":"address","name":"account","type":"address"}],"name":"OwnableUnauthorizedAccount","type":"error"},{"inputs":[],"name":"PriceDeviationTooHigh","type":"error"},{"inputs":[],"name":"ReentrancyGuardReentrantCall","type":"error"},{"inputs":[],"name":"RoundTooFrequent","type":"error"},{"inputs":[],"name":"StalePrice","type":"error"},{"inputs":[],"name":"TransferFailed","type":"error"},{"inputs":[],"name":"UnstakeDuringRound","type":"error"},{"anonymous":false,"inputs":[{"indexed":false,"internalType":"uint256","name":"price","type":"uint256"},{"indexed":false,"internalType":"uint256","name":"timestamp","type":"uint256"}],"name":"EmergencyPriceSet","type":"event"},{"anonymous":false,"inputs":[{"indexed":false,"internalType":"uint256","name":"newInterval","type":"uint256"}],"name":"MinRoundIntervalUpdated","type":"event"},{"anonymous":false,"inputs":[{"indexed":true,"internalType":"address","name":"previousOwner","type":"address"},{"indexed":true,"internalType":"address","name":"newOwner","type":"address"}],"name":"OwnershipTransferred","type":"event"},{"anonymous":false,"inputs":[{"indexed":true,"internalType":"uint256","name":"roundId","type":"uint256"},{"indexed":true,"internalType":"address","name":"reporter","type":"address"},{"indexed":false,"internalType":"uint256","name":"price","type":"uint256"}],"name":"PriceSubmitted","type":"event"},{"anonymous":false,"inputs":[{"indexed":true,"internalType":"uint256","name":"roundId","type":"uint256"},{"indexed":false,"internalType":"uint256","name":"price","type":"uint256"},{"indexed":false,"internalType":"uint256","name":"timestamp","type":"uint256"}],"name":"PriceUpdated","type":"event"},{"anonymous":false,"inputs":[{"indexed":true,"internalType":"address","name":"reporter","type":"address"}],"name":"ReporterAdded","type":"event"},{"anonymous":false,"inputs":[{"indexed":true,"internalType":"address","name":"reporter","type":"address"}],"name":"ReporterRemoved","type":"event"},{"anonymous":false,"inputs":[{"indexed":true,"internalType":"address","name":"reporter","type":"address"},{"indexed":false,"internalType":"uint256","name":"slashAmount","type":"uint256"},{"indexed":false,"internalType":"uint256","name":"reportedPrice","type":"uint256"},{"indexed":false,"internalType":"uint256","name":"medianPrice","type":"uint256"}],"name":"ReporterSlashed","type":"event"},{"anonymous":false,"inputs":[{"indexed":true,"internalType":"address","name":"reporter","type":"address"},{"indexed":false,"internalType":"uint256","name":"amount","type":"uint256"},{"indexed":false,"internalType":"uint256","name":"totalStake","type":"uint256"}],"name":"ReporterStaked","type":"event"},{"anonymous":false,"inputs":[{"indexed":true,"internalType":"address","name":"reporter","type":"address"},{"indexed":false,"internalType":"uint256","name":"amount","type":"uint256"},{"indexed":false,"internalType":"uint256","name":"totalStake","type":"uint256"}],"name":"ReporterUnstaked","type":"event"},{"anonymous":false,"inputs":[{"indexed":true,"internalType":"address","name":"recipient","type":"address"},{"indexed":false,"internalType":"uint256","name":"amount","type":"uint256"}],"name":"SlashedFundsClaimed","type":"event"},{"inputs":[],"name":"DECIMALS","outputs":[{"internalType":"uint256","name":"","type":"uint256"}],"stateMutability":"view","type":"function"},{"inputs":[],"name":"MAX_HISTORY","outputs":[{"internalType":"uint256","name":"","type":"uint256"}],"stateMutability":"view","type":"function"},{"inputs":[],"name":"MIN_REPORTERS","outputs":[{"internalType":"uint256","name":"","type":"uint256"}],"stateMutability":"view","type":"function"},{"inputs":[],"name":"MIN_STAKE","outputs":[{"internalType":"uint256","name":"","type":"uint256"}],"stateMutability":"view","type":"function"},{"inputs":[],"name":"SLASH_PENALTY_BPS","outputs":[{"internalType":"uint256","name":"","type":"uint256"}],"stateMutability":"view","type":"function"},{"inputs":[],"name":"SLASH_THRESHOLD_BPS","outputs":[{"internalType":"uint256","name":"","type":"uint256"}],"stateMutability":"view","type":"function"},{"inputs":[],"name":"STALENESS_THRESHOLD","outputs":[{"internalType":"uint256","name":"","type":"uint256"}],"stateMutability":"view","type":"function"},{"inputs":[{"internalType":"address","name":"reporter","type":"address"}],"name":"addReporter","outputs":[],"stateMutability":"nonpayable","type":"function"},{"inputs":[{"internalType":"address","name":"","type":"address"}],"name":"authorizedReporters","outputs":[{"internalType":"bool","name":"","type":"bool"}],"stateMutability":"view","type":"function"},{"inputs":[],"name":"claimSlashedFunds","outputs":[],"stateMutability":"nonpayable","type":"function"},{"inputs":[],"name":"currentRoundId","outputs":[{"internalType":"uint256","name":"","type":"uint256"}],"stateMutability":"view","type":"function"},{"inputs":[],"name":"decimals","outputs":[{"internalType":"uint8","name":"","type":"uint8"}],"stateMutability":"pure","type":"function"},{"inputs":[],"name":"description","outputs":[{"internalType":"string","name":"","type":"string"}],"stateMutability":"pure","type":"function"},{"inputs":[],"name":"emergencyPriceActive","outputs":[{"internalType":"bool","name":"","type":"bool"}],"stateMutability":"view","type":"function"},{"inputs":[{"internalType":"uint256","name":"price","type":"uint256"}],"name":"emergencySetPrice","outputs":[],"stateMutability":"nonpayable","type":"function"},{"inputs":[],"name":"forceAdvanceRound","outputs":[],"stateMutability":"nonpayable","type":"function"},{"inputs":[],"name":"getCurrentRoundSubmissions","outputs":[{"internalType":"uint256","name":"","type":"uint256"}],"stateMutability":"view","type":"function"},{"inputs":[],"name":"getLatestPrice","outputs":[{"internalType":"uint256","name":"price","type":"uint256"},{"internalType":"uint256","name":"timestamp","type":"uint256"}],"stateMutability":"view","type":"function"},{"inputs":[],"name":"getLatestPriceUnsafe","outputs":[{"internalType":"uint256","name":"price","type":"uint256"},{"internalType":"uint256","name":"timestamp","type":"uint256"},{"internalType":"uint256","name":"reporters","type":"uint256"}],"stateMutability":"view","type":"function"},{"inputs":[],"name":"getPriceHistory","outputs":[{"components":[{"internalType":"uint256","name":"price","type":"uint256"},{"internalType":"uint256","name":"timestamp","type":"uint256"},{"internalType":"uint256","name":"reporterCount","type":"uint256"}],"internalType":"struct PriceOracle.PriceRound[]","name":"","type":"tuple[]"}],"stateMutability":"view","type":"function"},{"inputs":[],"name":"getPriceHistoryLength","outputs":[{"internalType":"uint256","name":"","type":"uint256"}],"stateMutability":"view","type":"function"},{"inputs":[],"name":"getTWAP","outputs":[{"internalType":"uint256","name":"twapPrice","type":"uint256"},{"internalType":"uint256","name":"sampleCount","type":"uint256"}],"stateMutability":"view","type":"function"},{"inputs":[],"name":"getVolatility","outputs":[{"internalType":"uint256","name":"volatilityBps","type":"uint256"},{"internalType":"uint256","name":"sampleCount","type":"uint256"}],"stateMutability":"view","type":"function"},{"inputs":[{"internalType":"address","name":"reporter","type":"address"}],"name":"hasSubmitted","outputs":[{"internalType":"bool","name":"","type":"bool"}],"stateMutability":"view","type":"function"},{"inputs":[],"name":"latestRound","outputs":[{"internalType":"uint256","name":"price","type":"uint256"},{"internalType":"uint256","name":"timestamp","type":"uint256"},{"internalType":"uint256","name":"reporterCount","type":"uint256"}],"stateMutability":"view","type":"function"},{"inputs":[],"name":"latestRoundData","outputs":[{"internalType":"uint80","name":"roundId","type":"uint80"},{"internalType":"int256","name":"answer","type":"int256"},{"internalType":"uint256","name":"startedAt","type":"uint256"},{"internalType":"uint256","name":"updatedAt","type":"uint256"},{"internalType":"uint80","name":"answeredInRound","type":"uint80"}],"stateMutability":"view","type":"function"},{"inputs":[],"name":"minRoundInterval","outputs":[{"internalType":"uint256","name":"","type":"uint256"}],"stateMutability":"view","type":"function"},{"inputs":[],"name":"owner","outputs":[{"internalType":"address","name":"","type":"address"}],"stateMutability":"view","type":"function"},{"inputs":[{"internalType":"uint256","name":"","type":"uint256"}],"name":"priceHistory","outputs":[{"internalType":"uint256","name":"price","type":"uint256"},{"internalType":"uint256","name":"timestamp","type":"uint256"},{"internalType":"uint256","name":"reporterCount","type":"uint256"}],"stateMutability":"view","type":"function"},{"inputs":[{"internalType":"address","name":"reporter","type":"address"}],"name":"removeReporter","outputs":[],"stateMutability":"nonpayable","type":"function"},{"inputs":[],"name":"renounceOwnership","outputs":[],"stateMutability":"nonpayable","type":"function"},{"inputs":[],"name":"reporterCount","outputs":[{"internalType":"uint256","name":"","type":"uint256"}],"stateMutability":"view","type":"function"},{"inputs":[{"internalType":"address","name":"","type":"address"}],"name":"reporterStakes","outputs":[{"internalType":"uint256","name":"","type":"uint256"}],"stateMutability":"view","type":"function"},{"inputs":[{"internalType":"address","name":"","type":"address"}],"name":"reporterSubmissions","outputs":[{"internalType":"uint256","name":"","type":"uint256"}],"stateMutability":"view","type":"function"},{"inputs":[{"internalType":"uint256","name":"interval","type":"uint256"}],"name":"setMinRoundInterval","outputs":[],"stateMutability":"nonpayable","type":"function"},{"inputs":[],"name":"slashedFundsPool","outputs":[{"internalType":"uint256","name":"","type":"uint256"}],"stateMutability":"view","type":"function"},{"inputs":[],"name":"stake","outputs":[],"stateMutability":"payable","type":"function"},{"inputs":[{"internalType":"uint256","name":"price","type":"uint256"}],"name":"submitPrice","outputs":[],"stateMutability":"nonpayable","type":"function"},{"inputs":[{"internalType":"address","name":"newOwner","type":"address"}],"name":"transferOwnership","outputs":[],"stateMutability":"nonpayable","type":"function"},{"inputs":[{"internalType":"uint256","name":"amount","type":"uint256"}],"name":"unstake","outputs":[],"stateMutability":"nonpayable","type":"function"},{"inputs":[],"name":"version","outputs":[{"internalType":"uint256","name":"","type":"uint256"}],"stateMutability":"pure","type":"function"}],"evm":{"bytecode":{"linkReferences":{},"object":"6080604052348015600e575f5ffd5b503380603357604051631e4fbdf760e01b81525f600482015260240160405180910390fd5b603a816063565b5060017f9b779b17422d0df92223018b32b4d1fa46e071723d6817e2486d003becc55f005560b2565b5f80546001600160a01b038381166001600160a01b0319831681178455604051919092169283917f8be0079c531659141344cd1fd0a4f28419497f9722a3daafe3b4186f6b6457e09190a35050565b611b9e806100bf5f395ff3fe60806040526004361061023e575f3560e01c80637284e41611610134578063b27a0484116100b3578063dd8755f211610078578063dd8755f214610668578063f2fde38b14610687578063f42e9808146106a6578063f9c9fc5b146106bb578063fe9bd8cc146106d0578063feaf968c146106e4575f5ffd5b8063b27a0484146105e7578063cb1c2b5c14610606578063da6a031e14610620578063db44567014610634578063dc04478414610649575f5ffd5b8063929f0379116100f9578063929f03791461056a578063986fcbe91461058b578063999ad67d146105aa5780639cbe5efd146105be578063a524c7ea146105d3575f5ffd5b80637284e416146104cc578063850e3c4814610501578063867df156146105165780638da5cb5b146105305780638e15f47314610556575f5ffd5b80633a4b66f1116101c05780635de5c212116101855780635de5c2121461043757806361dc8ecb14610456578063668a0f021461046a578063715018a6146104a35780637215b0bf146104b7575f5ffd5b80633a4b66f1146103be5780633af2888b146103c65780633d17ad3a146103da578063514454fb146103f957806354fd4d5014610424575f5ffd5b80632e0f2625116102065780632e0f2625146102fb5780632e17de781461030f578063313ce56714610330578063388044b31461034b5780633a41429a14610390575f5ffd5b806305ecd003146102425780630b2855631461027057806313545a02146102935780631628de68146102a7578063163b4cd4146102d2575b5f5ffd5b34801561024d575f5ffd5b5061025661072f565b604080519283526020830191909152015b60405180910390f35b34801561027b575f5ffd5b506102856103e881565b604051908152602001610267565b34801561029e575f5ffd5b50610285600a81565b3480156102b2575f5ffd5b506102856102c136600461199f565b600e6020525f908152604090205481565b3480156102dd575f5ffd5b506010546102eb9060ff1681565b6040519015158152602001610267565b348015610306575f5ffd5b50610285600881565b34801561031a575f5ffd5b5061032e6103293660046119cc565b610925565b005b34801561033b575f5ffd5b5060405160088152602001610267565b348015610356575f5ffd5b506102eb61036536600461199f565b6006545f9081526008602090815260408083206001600160a01b039094168352929052205460ff1690565b34801561039b575f5ffd5b506102eb6103aa36600461199f565b60016020525f908152604090205460ff1681565b61032e610a83565b3480156103d1575f5ffd5b50610256610b1e565b3480156103e5575f5ffd5b5061032e6103f43660046119cc565b610bdf565b348015610404575f5ffd5b5061028561041336600461199f565b600d6020525f908152604090205481565b34801561042f575f5ffd5b506001610285565b348015610442575f5ffd5b5061032e61045136600461199f565b610d61565b348015610461575f5ffd5b5061032e610df1565b348015610475575f5ffd5b5060035460045460055461048892919083565b60408051938452602084019290925290820152606001610267565b3480156104ae575f5ffd5b5061032e610e2c565b3480156104c2575f5ffd5b50610285610e1081565b3480156104d7575f5ffd5b5060408051808201825260078152661155120bd554d160ca1b6020820152905161026791906119e3565b34801561050c575f5ffd5b5061028560025481565b348015610521575f5ffd5b50600354600454600554610488565b34801561053b575f5ffd5b505f546040516001600160a01b039091168152602001610267565b348015610561575f5ffd5b50610256610e3d565b348015610575575f5ffd5b5061057e610ea0565b6040516102679190611a18565b348015610596575f5ffd5b5061032e6105a53660046119cc565b610f19565b3480156105b5575f5ffd5b50610285600381565b3480156105c9575f5ffd5b5061028560065481565b3480156105de575f5ffd5b50600754610285565b3480156105f2575f5ffd5b506104886106013660046119cc565b61114b565b348015610611575f5ffd5b5061028566b1a2bc2ec5000081565b34801561062b575f5ffd5b5061032e61117c565b34801561063f575f5ffd5b50610285600f5481565b348015610654575f5ffd5b5061032e6106633660046119cc565b61128b565b348015610673575f5ffd5b5061032e61068236600461199f565b6112c8565b348015610692575f5ffd5b5061032e6106a136600461199f565b61135c565b3480156106b1575f5ffd5b5061028560115481565b3480156106c6575f5ffd5b506102856107d081565b3480156106db575f5ffd5b50600954610285565b3480156106ef575f5ffd5b506106f861139b565b6040805169ffffffffffffffffffff968716815260208101959095528401929092526060830152909116608082015260a001610267565b6007545f908082036107545760405163c149905d60e01b815260040160405180910390fd5b806001036107885760075f8154811061076f5761076f611a76565b905f5260205f2090600302015f01546001915091509091565b5f80805b610797600185611a9e565b81101561084b575f600782815481106107b2576107b2611a76565b905f5260205f2090600302016001015460078360016107d19190611ab7565b815481106107e1576107e1611a76565b905f5260205f209060030201600101546107fb9190611a9e565b9050806007838154811061081157610811611a76565b905f5260205f2090600302015f015461082a9190611aca565b6108349085611ab7565b93506108408184611ab7565b92505060010161078c565b505f600761085a600186611a9e565b8154811061086a5761086a611a76565b905f5260205f20906003020160010154426108859190611a9e565b9050806007610895600187611a9e565b815481106108a5576108a5611a76565b905f5260205f2090600302015f01546108be9190611aca565b6108c89084611ab7565b92506108d48183611ab7565b9150815f036109125760076108ea600186611a9e565b815481106108fa576108fa611a76565b905f5260205f2090600302015f015494505050509091565b61091c8284611af5565b94505050509091565b61092d6113d8565b335f908152600e602052604090205481111561095c57604051630c8b4ebb60e01b815260040160405180910390fd5b6006545f90815260086020908152604080832033845290915290205460ff161561099957604051631c9c805760e21b815260040160405180910390fd5b335f908152600e6020526040812080548392906109b7908490611a9e565b90915550506040515f90339083908381818185875af1925050503d805f81146109fb576040519150601f19603f3d011682016040523d82523d5f602084013e610a00565b606091505b5050905080610a22576040516312171d8360e31b815260040160405180910390fd5b335f818152600e6020908152604091829020548251868152918201527f10e3516c79b8db29fb8ff034be455802bbdd250f842e35a480e4cc1f05f44d86910160405180910390a250610a8060015f516020611b495f395f51905f5255565b50565b335f9081526001602052604090205460ff16610ab257604051631c833d8160e21b815260040160405180910390fd5b335f908152600e602052604081208054349290610ad0908490611ab7565b9091555050335f818152600e6020908152604091829020548251348152918201527f645b9a96a9cbb4aaad25e6260145499fe1edee495e67649fc2b2d5cc1e7506d1910160405180910390a2565b6007545f906002811015610b33575f91509091565b5f195f80805b84811015610b93575f60078281548110610b5557610b55611a76565b905f5260205f2090600302015f0154905084811015610b72578094505b83811115610b7e578093505b610b888184611ab7565b925050600101610b39565b505f610b9f8583611af5565b9050805f03610bb3575f9550505050509091565b80612710610bc18686611a9e565b610bcb9190611aca565b610bd59190611af5565b9550505050509091565b610be76113f3565b805f03610c075760405163c149905d60e01b815260040160405180910390fd5b6040805160608101825282815242602082018190525f9190920181905260038390556004919091556005556010805460ff19166001179055600754600a1115610cda57600780546001810182555f919091526003805491027fa66cc928b5edb82af9bd49922954155ab7b0942694bea4ce44661d9a8736c6888101919091556004547fa66cc928b5edb82af9bd49922954155ab7b0942694bea4ce44661d9a8736c6898201556005547fa66cc928b5edb82af9bd49922954155ab7b0942694bea4ce44661d9a8736c68a90910155610d25565b60036007600a600654610ced9190611b08565b81548110610cfd57610cfd611a76565b5f91825260209091208254600390920201908155600180830154908201556002918201549101555b604080518281524260208201527f0cdb493324e99e83676e2826356d9387f491cb8b0d60a6d0cdbf3f28166d7b6591015b60405180910390a150565b610d696113f3565b6001600160a01b0381165f9081526001602052604090205460ff1615610a80576001600160a01b0381165f908152600160205260408120805460ff191690556002805491610db683611b1b565b90915550506040516001600160a01b038216907ff125aa5e6cb22c17ea0de4e1f86d2ff289ddd6a37e791b9ad29d0091cba06ac8905f90a250565b610df96113f3565b60068054905f610e0883611b30565b90915550505f6009819055610e1f90600a90611971565b610e2a600b5f611971565b565b610e346113f3565b610e2a5f61141f565b5f5f6003600101545f03610e645760405163c149905d60e01b815260040160405180910390fd5b600454610e1090610e759042611a9e565b1115610e9457604051630cd5fa0760e11b815260040160405180910390fd5b50506003546004549091565b60606007805480602002602001604051908101604052809291908181526020015f905b82821015610f10578382905f5260205f2090600302016040518060600160405290815f82015481526020016001820154815260200160028201548152505081526020019060010190610ec3565b50505050905090565b335f9081526001602052604090205460ff16610f4857604051631c833d8160e21b815260040160405180910390fd5b6006545f90815260086020908152604080832033845290915290205460ff1615610f8557604051639fbfc58960e01b815260040160405180910390fd5b335f908152600e602052604090205466b1a2bc2ec500001115610fbb576040516378de4a6960e11b815260040160405180910390fd5b60045415611021576003545f818311610fdd57610fd88383611a9e565b610fe7565b610fe78284611a9e565b9050610ff4826032611aca565b610fff826064611aca565b111561101e576040516369e2517960e11b815260040160405180910390fd5b50505b600680545f90815260086020908152604080832033808552908352818420805460ff19166001908117909155600a80548083019091557fc65a7bb8d6351c1cf70c95a316cc6a92839c986682d98bc35f958f4883f9d2a801879055600b805491820190557f0175b7a638427703f0dbe7bb9bbf987a2551717b34e79f33b5b1008d1fa01db90180546001600160a01b0319168217905593548352600c825280832093835292905290812082905560098054916110dc83611b30565b9091555050335f908152600d602052604081208054916110fb83611b30565b90915550506006546040518281523391907f2655941ef0e01e05d55a873609115593db7df65cd101451b9f7e89ede1613ec99060200160405180910390a3600360095410610a8057610a8061146e565b6007818154811061115a575f80fd5b5f91825260209091206003909102018054600182015460029092015490925083565b6111846113f3565b61118c6113d8565b600f545f8190036111b057604051630c8b4ebb60e01b815260040160405180910390fd5b5f600f81905580546040516001600160a01b039091169083908381818185875af1925050503d805f81146111ff576040519150601f19603f3d011682016040523d82523d5f602084013e611204565b606091505b5050905080611226576040516312171d8360e31b815260040160405180910390fd5b5f546001600160a01b03166001600160a01b03167f032e3d998e55dc2251643d1a15bbf2d4cce90df87fb929f01499d1670bab7e588360405161126b91815260200190565b60405180910390a25050610e2a60015f516020611b495f395f51905f5255565b6112936113f3565b60118190556040518181527f60123b8789d68d6a3a4b1592f2b8be4211b24c63398e83e66ab7748a5feb3f9e90602001610d56565b6112d06113f3565b6001600160a01b0381165f9081526001602052604090205460ff16610a80576001600160a01b0381165f9081526001602081905260408220805460ff19169091179055600280549161132183611b30565b90915550506040516001600160a01b038216907f52824c4a4d431c73d6d24a91f775d722860111c6d30da30b0b21e062fb4c7365905f90a250565b6113646113f3565b6001600160a01b03811661139257604051631e4fbdf760e01b81525f60048201526024015b60405180910390fd5b610a808161141f565b5f5f5f5f5f5f5f600654116113b0575f6113bf565b60016006546113bf9190611a9e565b6003546004549198909750909550859450879350915050565b6113e0611863565b60025f516020611b495f395f51905f5255565b5f546001600160a01b03163314610e2a5760405163118cdaa760e01b8152336004820152602401611389565b5f80546001600160a01b038381166001600160a01b0319831681178455604051919092169283917f8be0079c531659141344cd1fd0a4f28419497f9722a3daafe3b4186f6b6457e09190a35050565b5f601154118015611480575060045415155b156114b4576011546004546114959042611a9e565b10156114b4576040516307bc94db60e51b815260040160405180910390fd5b5f600a8054806020026020016040519081016040528092919081815260200182805480156114ff57602002820191905f5260205f20905b8154815260200190600101908083116114eb575b5050505050905061150f81611892565b5f816002835161151f9190611af5565b8151811061152f5761152f611a76565b602002602001015190505f8111156116d6575f6127106115516103e884611aca565b61155b9190611af5565b90505f5b600b548110156116d3575f600b828154811061157d5761157d611a76565b5f9182526020808320909101546006548352600c825260408084206001600160a01b039092168085529190925290822054909250908582116115c8576115c38287611a9e565b6115d2565b6115d28683611a9e565b905084811180156115f957506001600160a01b0383165f908152600e602052604090205415155b156116c8576001600160a01b0383165f908152600e602052604081205461271090611627906107d090611aca565b6116319190611af5565b6001600160a01b0385165f908152600e602052604081208054929350839290919061165d908490611a9e565b9250508190555080600f5f8282546116759190611ab7565b909155505060408051828152602081018590529081018890526001600160a01b038516907fc4eec5017cb65d25a0a476be2b85af63d4eb3201b221ca742bc1d35e9f36ac289060600160405180910390a2505b50505060010161155f565b50505b604080516060810182528281524260208201819052600954919092018190526003839055600491909155600555600754600a111561179e57600780546001810182555f919091526003805491027fa66cc928b5edb82af9bd49922954155ab7b0942694bea4ce44661d9a8736c6888101919091556004547fa66cc928b5edb82af9bd49922954155ab7b0942694bea4ce44661d9a8736c6898201556005547fa66cc928b5edb82af9bd49922954155ab7b0942694bea4ce44661d9a8736c68a909101556117e9565b60036007600a6006546117b19190611b08565b815481106117c1576117c1611a76565b5f91825260209091208254600390920201908155600180830154908201556002918201549101555b6010805460ff19169055600654604080518381524260208201527f15819dd2fd9f6418b142e798d08a18d0bf06ea368f4480b7b0d3f75bd966bc48910160405180910390a260068054905f61183d83611b30565b90915550505f600981905561185490600a90611971565b61185f600b5f611971565b5050565b5f516020611b495f395f51905f5254600203610e2a57604051633ee5aeb560e01b815260040160405180910390fd5b60015b815181101561185f575f8282815181106118b1576118b1611a76565b602002602001015190505f8290505b5f811180156118f1575081846118d7600184611a9e565b815181106118e7576118e7611a76565b6020026020010151115b156119495783611902600183611a9e565b8151811061191257611912611a76565b602002602001015184828151811061192c5761192c611a76565b60209081029190910101528061194181611b1b565b9150506118c0565b8184828151811061195c5761195c611a76565b60209081029190910101525050600101611895565b5080545f8255905f5260205f2090810190610a8091905b8082111561199b575f8155600101611988565b5090565b5f602082840312156119af575f5ffd5b81356001600160a01b03811681146119c5575f5ffd5b9392505050565b5f602082840312156119dc575f5ffd5b5035919050565b602081525f82518060208401528060208501604085015e5f604082850101526040601f19601f83011684010191505092915050565b602080825282518282018190525f918401906040840190835b81811015611a6b57835180518452602081015160208501526040810151604085015250606083019250602084019350600181019050611a31565b509095945050505050565b634e487b7160e01b5f52603260045260245ffd5b634e487b7160e01b5f52601160045260245ffd5b81810381811115611ab157611ab1611a8a565b92915050565b80820180821115611ab157611ab1611a8a565b8082028115828204841417611ab157611ab1611a8a565b634e487b7160e01b5f52601260045260245ffd5b5f82611b0357611b03611ae1565b500490565b5f82611b1657611b16611ae1565b500690565b5f81611b2957611b29611a8a565b505f190190565b5f60018201611b4157611b41611a8a565b506001019056fe9b779b17422d0df92223018b32b4d1fa46e071723d6817e2486d003becc55f00a2646970667358221220bb2a27e613727db972e07ca9f60c873ad9101b45c4db469144a9df30f518f11064736f6c634300081c0033","opcodes":"PUSH1 0x80 PUSH1 0x40 MSTORE CALLVALUE DUP1 ISZERO PUSH1 0xE JUMPI PUSH0 PUSH0 REVERT JUMPDEST POP CALLER DUP1 PUSH1 0x33 JUMPI PUSH1 0x40 MLOAD PUSH4 0x1E4FBDF7 PUSH1 0xE0 SHL DUP2 MSTORE PUSH0 PUSH1 0x4 DUP3 ADD MSTORE PUSH1 0x24 ADD PUSH1 0x40 MLOAD DUP1 SWAP2 SUB SWAP1 REVERT JUMPDEST PUSH1 0x3A DUP2 PUSH1 0x63 JUMP JUMPDEST POP PUSH1 0x1 PUSH32 0x9B779B17422D0DF92223018B32B4D1FA46E071723D6817E2486D003BECC55F00 SSTORE PUSH1 0xB2 JUMP JUMPDEST PUSH0 DUP1 SLOAD PUSH1 0x1 PUSH1 0x1 PUSH1 0xA0 SHL SUB DUP4 DUP2 AND PUSH1 0x1 PUSH1 0x1 PUSH1 0xA0 SHL SUB NOT DUP4 AND DUP2 OR DUP5 SSTORE PUSH1 0x40 MLOAD SWAP2 SWAP1 SWAP3 AND SWAP3 DUP4 SWAP2 PUSH32 0x8BE0079C531659141344CD1FD0A4F28419497F9722A3DAAFE3B4186F6B6457E0 SWAP2 SWAP1 LOG3 POP POP JUMP JUMPDEST PUSH2 0x1B9E DUP1 PUSH2 0xBF PUSH0 CODECOPY PUSH0 RETURN INVALID PUSH1 0x80 PUSH1 0x40 MSTORE PUSH1 0x4 CALLDATASIZE LT PUSH2 0x23E JUMPI PUSH0 CALLDATALOAD PUSH1 0xE0 SHR DUP1 PUSH4 0x7284E416 GT PUSH2 0x134 JUMPI DUP1 PUSH4 0xB27A0484 GT PUSH2 0xB3 JUMPI DUP1 PUSH4 0xDD8755F2 GT PUSH2 0x78 JUMPI DUP1 PUSH4 0xDD8755F2 EQ PUSH2 0x668 JUMPI DUP1 PUSH4 0xF2FDE38B EQ PUSH2 0x687 JUMPI DUP1 PUSH4 0xF42E9808 EQ PUSH2 0x6A6 JUMPI DUP1 PUSH4 0xF9C9FC5B EQ PUSH2 0x6BB JUMPI DUP1 PUSH4 0xFE9BD8CC EQ PUSH2 0x6D0 JUMPI DUP1 PUSH4 0xFEAF968C EQ PUSH2 0x6E4 JUMPI PUSH0 PUSH0 REVERT JUMPDEST DUP1 PUSH4 0xB27A0484 EQ PUSH2 0x5E7 JUMPI DUP1 PUSH4 0xCB1C2B5C EQ PUSH2 0x606 JUMPI DUP1 PUSH4 0xDA6A031E EQ PUSH2 0x620 JUMPI DUP1 PUSH4 0xDB445670 EQ PUSH2 0x634 JUMPI DUP1 PUSH4 0xDC044784 EQ PUSH2 0x649 JUMPI PUSH0 PUSH0 REVERT JUMPDEST DUP1 PUSH4 0x929F0379 GT PUSH2 0xF9 JUMPI DUP1 PUSH4 0x929F0379 EQ PUSH2 0x56A JUMPI DUP1 PUSH4 0x986FCBE9 EQ PUSH2 0x58B JUMPI DUP1 PUSH4 0x999AD67D EQ PUSH2 0x5AA JUMPI DUP1 PUSH4 0x9CBE5EFD EQ PUSH2 0x5BE JUMPI DUP1 PUSH4 0xA524C7EA EQ PUSH2 0x5D3 JUMPI PUSH0 PUSH0 REVERT JUMPDEST DUP1 PUSH4 0x7284E416 EQ PUSH2 0x4CC JUMPI DUP1 PUSH4 0x850E3C48 EQ PUSH2 0x501 JUMPI DUP1 PUSH4 0x867DF156 EQ PUSH2 0x516 JUMPI DUP1 PUSH4 0x8DA5CB5B EQ PUSH2 0x530 JUMPI DUP1 PUSH4 0x8E15F473 EQ PUSH2 0x556 JUMPI PUSH0 PUSH0 REVERT JUMPDEST DUP1 PUSH4 0x3A4B66F1 GT PUSH2 0x1C0 JUMPI DUP1 PUSH4 0x5DE5C212 GT PUSH2 0x185 JUMPI DUP1 PUSH4 0x5DE5C212 EQ PUSH2 0x437 JUMPI DUP1 PUSH4 0x61DC8ECB EQ PUSH2 0x456 JUMPI DUP1 PUSH4 0x668A0F02 EQ PUSH2 0x46A JUMPI DUP1 PUSH4 0x715018A6 EQ PUSH2 0x4A3 JUMPI DUP1 PUSH4 0x7215B0BF EQ PUSH2 0x4B7 JUMPI PUSH0 PUSH0 REVERT JUMPDEST DUP1 PUSH4 0x3A4B66F1 EQ PUSH2 0x3BE JUMPI DUP1 PUSH4 0x3AF2888B EQ PUSH2 0x3C6 JUMPI DUP1 PUSH4 0x3D17AD3A EQ PUSH2 0x3DA JUMPI DUP1 PUSH4 0x514454FB EQ PUSH2 0x3F9 JUMPI DUP1 PUSH4 0x54FD4D50 EQ PUSH2 0x424 JUMPI PUSH0 PUSH0 REVERT JUMPDEST DUP1 PUSH4 0x2E0F2625 GT PUSH2 0x206 JUMPI DUP1 PUSH4 0x2E0F2625 EQ PUSH2 0x2FB JUMPI DUP1 PUSH4 0x2E17DE78 EQ PUSH2 0x30F JUMPI DUP1 PUSH4 0x313CE567 EQ PUSH2 0x330 JUMPI DUP1 PUSH4 0x388044B3 EQ PUSH2 0x34B JUMPI DUP1 PUSH4 0x3A41429A EQ PUSH2 0x390 JUMPI PUSH0 PUSH0 REVERT JUMPDEST DUP1 PUSH4 0x5ECD003 EQ PUSH2 0x242 JUMPI DUP1 PUSH4 0xB285563 EQ PUSH2 0x270 JUMPI DUP1 PUSH4 0x13545A02 EQ PUSH2 0x293 JUMPI DUP1 PUSH4 0x1628DE68 EQ PUSH2 0x2A7 JUMPI DUP1 PUSH4 0x163B4CD4 EQ PUSH2 0x2D2 JUMPI JUMPDEST PUSH0 PUSH0 REVERT JUMPDEST CALLVALUE DUP1 ISZERO PUSH2 0x24D JUMPI PUSH0 PUSH0 REVERT JUMPDEST POP PUSH2 0x256 PUSH2 0x72F JUMP JUMPDEST PUSH1 0x40 DUP1 MLOAD SWAP3 DUP4 MSTORE PUSH1 0x20 DUP4 ADD SWAP2 SWAP1 SWAP2 MSTORE ADD JUMPDEST PUSH1 0x40 MLOAD DUP1 SWAP2 SUB SWAP1 RETURN JUMPDEST CALLVALUE DUP1 ISZERO PUSH2 0x27B JUMPI PUSH0 PUSH0 REVERT JUMPDEST POP PUSH2 0x285 PUSH2 0x3E8 DUP2 JUMP JUMPDEST PUSH1 0x40 MLOAD SWAP1 DUP2 MSTORE PUSH1 0x20 ADD PUSH2 0x267 JUMP JUMPDEST CALLVALUE DUP1 ISZERO PUSH2 0x29E JUMPI PUSH0 PUSH0 REVERT JUMPDEST POP PUSH2 0x285 PUSH1 0xA DUP2 JUMP JUMPDEST CALLVALUE DUP1 ISZERO PUSH2 0x2B2 JUMPI PUSH0 PUSH0 REVERT JUMPDEST POP PUSH2 0x285 PUSH2 0x2C1 CALLDATASIZE PUSH1 0x4 PUSH2 0x199F JUMP JUMPDEST PUSH1 0xE PUSH1 0x20 MSTORE PUSH0 SWAP1 DUP2 MSTORE PUSH1 0x40 SWAP1 KECCAK256 SLOAD DUP2 JUMP JUMPDEST CALLVALUE DUP1 ISZERO PUSH2 0x2DD JUMPI PUSH0 PUSH0 REVERT JUMPDEST POP PUSH1 0x10 SLOAD PUSH2 0x2EB SWAP1 PUSH1 0xFF AND DUP2 JUMP JUMPDEST PUSH1 0x40 MLOAD SWAP1 ISZERO ISZERO DUP2 MSTORE PUSH1 0x20 ADD PUSH2 0x267 JUMP JUMPDEST CALLVALUE DUP1 ISZERO PUSH2 0x306 JUMPI PUSH0 PUSH0 REVERT JUMPDEST POP PUSH2 0x285 PUSH1 0x8 DUP2 JUMP JUMPDEST CALLVALUE DUP1 ISZERO PUSH2 0x31A JUMPI PUSH0 PUSH0 REVERT JUMPDEST POP PUSH2 0x32E PUSH2 0x329 CALLDATASIZE PUSH1 0x4 PUSH2 0x19CC JUMP JUMPDEST PUSH2 0x925 JUMP JUMPDEST STOP JUMPDEST CALLVALUE DUP1 ISZERO PUSH2 0x33B JUMPI PUSH0 PUSH0 REVERT JUMPDEST POP PUSH1 0x40 MLOAD PUSH1 0x8 DUP2 MSTORE PUSH1 0x20 ADD PUSH2 0x267 JUMP JUMPDEST CALLVALUE DUP1 ISZERO PUSH2 0x356 JUMPI PUSH0 PUSH0 REVERT JUMPDEST POP PUSH2 0x2EB PUSH2 0x365 CALLDATASIZE PUSH1 0x4 PUSH2 0x199F JUMP JUMPDEST PUSH1 0x6 SLOAD PUSH0 SWAP1 DUP2 MSTORE PUSH1 0x8 PUSH1 0x20 SWAP1 DUP2 MSTORE PUSH1 0x40 DUP1 DUP4 KECCAK256 PUSH1 0x1 PUSH1 0x1 PUSH1 0xA0 SHL SUB SWAP1 SWAP5 AND DUP4 MSTORE SWAP3 SWAP1 MSTORE KECCAK256 SLOAD PUSH1 0xFF AND SWAP1 JUMP JUMPDEST CALLVALUE DUP1 ISZERO PUSH2 0x39B JUMPI PUSH0 PUSH0 REVERT JUMPDEST POP PUSH2 0x2EB PUSH2 0x3AA CALLDATASIZE PUSH1 0x4 PUSH2 0x199F JUMP JUMPDEST PUSH1 0x1 PUSH1 0x20 MSTORE PUSH0 SWAP1 DUP2 MSTORE PUSH1 0x40 SWAP1 KECCAK256 SLOAD PUSH1 0xFF AND DUP2 JUMP JUMPDEST PUSH2 0x32E PUSH2 0xA83 JUMP JUMPDEST CALLVALUE DUP1 ISZERO PUSH2 0x3D1 JUMPI PUSH0 PUSH0 REVERT JUMPDEST POP PUSH2 0x256 PUSH2 0xB1E JUMP JUMPDEST CALLVALUE DUP1 ISZERO PUSH2 0x3E5 JUMPI PUSH0 PUSH0 REVERT JUMPDEST POP PUSH2 0x32E PUSH2 0x3F4 CALLDATASIZE PUSH1 0x4 PUSH2 0x19CC JUMP JUMPDEST PUSH2 0xBDF JUMP JUMPDEST CALLVALUE DUP1 ISZERO PUSH2 0x404 JUMPI PUSH0 PUSH0 REVERT JUMPDEST POP PUSH2 0x285 PUSH2 0x413 CALLDATASIZE PUSH1 0x4 PUSH2 0x199F JUMP JUMPDEST PUSH1 0xD PUSH1 0x20 MSTORE PUSH0 SWAP1 DUP2 MSTORE PUSH1 0x40 SWAP1 KECCAK256 SLOAD DUP2 JUMP JUMPDEST CALLVALUE DUP1 ISZERO PUSH2 0x42F JUMPI PUSH0 PUSH0 REVERT JUMPDEST POP PUSH1 0x1 PUSH2 0x285 JUMP JUMPDEST CALLVALUE DUP1 ISZERO PUSH2 0x442 JUMPI PUSH0 PUSH0 REVERT JUMPDEST POP PUSH2 0x32E PUSH2 0x451 CALLDATASIZE PUSH1 0x4 PUSH2 0x199F JUMP JUMPDEST PUSH2 0xD61 JUMP JUMPDEST CALLVALUE DUP1 ISZERO PUSH2 0x461 JUMPI PUSH0 PUSH0 REVERT JUMPDEST POP PUSH2 0x32E PUSH2 0xDF1 JUMP JUMPDEST CALLVALUE DUP1 ISZERO PUSH2 0x475 JUMPI PUSH0 PUSH0 REVERT JUMPDEST POP PUSH1 0x3 SLOAD PUSH1 0x4 SLOAD PUSH1 0x5 SLOAD PUSH2 0x488 SWAP3 SWAP2 SWAP1 DUP4 JUMP JUMPDEST PUSH1 0x40 DUP1 MLOAD SWAP4 DUP5 MSTORE PUSH1 0x20 DUP5 ADD SWAP3 SWAP1 SWAP3 MSTORE SWAP1 DUP3 ADD MSTORE PUSH1 0x60 ADD PUSH2 0x267 JUMP JUMPDEST CALLVALUE DUP1 ISZERO PUSH2 0x4AE JUMPI PUSH0 PUSH0 REVERT JUMPDEST POP PUSH2 0x32E PUSH2 0xE2C JUMP JUMPDEST CALLVALUE DUP1 ISZERO PUSH2 0x4C2 JUMPI PUSH0 PUSH0 REVERT JUMPDEST POP PUSH2 0x285 PUSH2 0xE10 DUP2 JUMP JUMPDEST CALLVALUE DUP1 ISZERO PUSH2 0x4D7 JUMPI PUSH0 PUSH0 REVERT JUMPDEST POP PUSH1 0x40 DUP1 MLOAD DUP1 DUP3 ADD DUP3 MSTORE PUSH1 0x7 DUP2 MSTORE PUSH7 0x1155120BD554D1 PUSH1 0xCA SHL PUSH1 0x20 DUP3 ADD MSTORE SWAP1 MLOAD PUSH2 0x267 SWAP2 SWAP1 PUSH2 0x19E3 JUMP JUMPDEST CALLVALUE DUP1 ISZERO PUSH2 0x50C JUMPI PUSH0 PUSH0 REVERT JUMPDEST POP PUSH2 0x285 PUSH1 0x2 SLOAD DUP2 JUMP JUMPDEST CALLVALUE DUP1 ISZERO PUSH2 0x521 JUMPI PUSH0 PUSH0 REVERT JUMPDEST POP PUSH1 0x3 SLOAD PUSH1 0x4 SLOAD PUSH1 0x5 SLOAD PUSH2 0x488 JUMP JUMPDEST CALLVALUE DUP1 ISZERO PUSH2 0x53B JUMPI PUSH0 PUSH0 REVERT JUMPDEST POP PUSH0 SLOAD PUSH1 0x40 MLOAD PUSH1 0x1 PUSH1 0x1 PUSH1 0xA0 SHL SUB SWAP1 SWAP2 AND DUP2 MSTORE PUSH1 0x20 ADD PUSH2 0x267 JUMP JUMPDEST CALLVALUE DUP1 ISZERO PUSH2 0x561 JUMPI PUSH0 PUSH0 REVERT JUMPDEST POP PUSH2 0x256 PUSH2 0xE3D JUMP JUMPDEST CALLVALUE DUP1 ISZERO PUSH2 0x575 JUMPI PUSH0 PUSH0 REVERT JUMPDEST POP PUSH2 0x57E PUSH2 0xEA0 JUMP JUMPDEST PUSH1 0x40 MLOAD PUSH2 0x267 SWAP2 SWAP1 PUSH2 0x1A18 JUMP JUMPDEST CALLVALUE DUP1 ISZERO PUSH2 0x596 JUMPI PUSH0 PUSH0 REVERT JUMPDEST POP PUSH2 0x32E PUSH2 0x5A5 CALLDATASIZE PUSH1 0x4 PUSH2 0x19CC JUMP JUMPDEST PUSH2 0xF19 JUMP JUMPDEST CALLVALUE DUP1 ISZERO PUSH2 0x5B5 JUMPI PUSH0 PUSH0 REVERT JUMPDEST POP PUSH2 0x285 PUSH1 0x3 DUP2 JUMP JUMPDEST CALLVALUE DUP1 ISZERO PUSH2 0x5C9 JUMPI PUSH0 PUSH0 REVERT JUMPDEST POP PUSH2 0x285 PUSH1 0x6 SLOAD DUP2 JUMP JUMPDEST CALLVALUE DUP1 ISZERO PUSH2 0x5DE JUMPI PUSH0 PUSH0 REVERT JUMPDEST POP PUSH1 0x7 SLOAD PUSH2 0x285 JUMP JUMPDEST CALLVALUE DUP1 ISZERO PUSH2 0x5F2 JUMPI PUSH0 PUSH0 REVERT JUMPDEST POP PUSH2 0x488 PUSH2 0x601 CALLDATASIZE PUSH1 0x4 PUSH2 0x19CC JUMP JUMPDEST PUSH2 0x114B JUMP JUMPDEST CALLVALUE DUP1 ISZERO PUSH2 0x611 JUMPI PUSH0 PUSH0 REVERT JUMPDEST POP PUSH2 0x285 PUSH7 0xB1A2BC2EC50000 DUP2 JUMP JUMPDEST CALLVALUE DUP1 ISZERO PUSH2 0x62B JUMPI PUSH0 PUSH0 REVERT JUMPDEST POP PUSH2 0x32E PUSH2 0x117C JUMP JUMPDEST CALLVALUE DUP1 ISZERO PUSH2 0x63F JUMPI PUSH0 PUSH0 REVERT JUMPDEST POP PUSH2 0x285 PUSH1 0xF SLOAD DUP2 JUMP JUMPDEST CALLVALUE DUP1 ISZERO PUSH2 0x654 JUMPI PUSH0 PUSH0 REVERT JUMPDEST POP PUSH2 0x32E PUSH2 0x663 CALLDATASIZE PUSH1 0x4 PUSH2 0x19CC JUMP JUMPDEST PUSH2 0x128B JUMP JUMPDEST CALLVALUE DUP1 ISZERO PUSH2 0x673 JUMPI PUSH0 PUSH0 REVERT JUMPDEST POP PUSH2 0x32E PUSH2 0x682 CALLDATASIZE PUSH1 0x4 PUSH2 0x199F JUMP JUMPDEST PUSH2 0x12C8 JUMP JUMPDEST CALLVALUE DUP1 ISZERO PUSH2 0x692 JUMPI PUSH0 PUSH0 REVERT JUMPDEST POP PUSH2 0x32E PUSH2 0x6A1 CALLDATASIZE PUSH1 0x4 PUSH2 0x199F JUMP JUMPDEST PUSH2 0x135C JUMP JUMPDEST CALLVALUE DUP1 ISZERO PUSH2 0x6B1 JUMPI PUSH0 PUSH0 REVERT JUMPDEST POP PUSH2 0x285 PUSH1 0x11 SLOAD DUP2 JUMP JUMPDEST CALLVALUE DUP1 ISZERO PUSH2 0x6C6 JUMPI PUSH0 PUSH0 REVERT JUMPDEST POP PUSH2 0x285 PUSH2 0x7D0 DUP2 JUMP JUMPDEST CALLVALUE DUP1 ISZERO PUSH2 0x6DB JUMPI PUSH0 PUSH0 REVERT JUMPDEST POP PUSH1 0x9 SLOAD PUSH2 0x285 JUMP JUMPDEST CALLVALUE DUP1 ISZERO PUSH2 0x6EF JUMPI PUSH0 PUSH0 REVERT JUMPDEST POP PUSH2 0x6F8 PUSH2 0x139B JUMP JUMPDEST PUSH1 0x40 DUP1 MLOAD PUSH10 0xFFFFFFFFFFFFFFFFFFFF SWAP7 DUP8 AND DUP2 MSTORE PUSH1 0x20 DUP2 ADD SWAP6 SWAP1 SWAP6 MSTORE DUP5 ADD SWAP3 SWAP1 SWAP3 MSTORE PUSH1 0x60 DUP4 ADD MSTORE SWAP1 SWAP2 AND PUSH1 0x80 DUP3 ADD MSTORE PUSH1 0xA0 ADD PUSH2 0x267 JUMP JUMPDEST PUSH1 0x7 SLOAD PUSH0 SWAP1 DUP1 DUP3 SUB PUSH2 0x754 JUMPI PUSH1 0x40 MLOAD PUSH4 0xC149905D PUSH1 0xE0 SHL DUP2 MSTORE PUSH1 0x4 ADD PUSH1 0x40 MLOAD DUP1 SWAP2 SUB SWAP1 REVERT JUMPDEST DUP1 PUSH1 0x1 SUB PUSH2 0x788 JUMPI PUSH1 0x7 PUSH0 DUP2 SLOAD DUP2 LT PUSH2 0x76F JUMPI PUSH2 0x76F PUSH2 0x1A76 JUMP JUMPDEST SWAP1 PUSH0 MSTORE PUSH1 0x20 PUSH0 KECCAK256 SWAP1 PUSH1 0x3 MUL ADD PUSH0 ADD SLOAD PUSH1 0x1 SWAP2 POP SWAP2 POP SWAP1 SWAP2 JUMP JUMPDEST PUSH0 DUP1 DUP1 JUMPDEST PUSH2 0x797 PUSH1 0x1 DUP6 PUSH2 0x1A9E JUMP JUMPDEST DUP2 LT ISZERO PUSH2 0x84B JUMPI PUSH0 PUSH1 0x7 DUP3 DUP2 SLOAD DUP2 LT PUSH2 0x7B2 JUMPI PUSH2 0x7B2 PUSH2 0x1A76 JUMP JUMPDEST SWAP1 PUSH0 MSTORE PUSH1 0x20 PUSH0 KECCAK256 SWAP1 PUSH1 0x3 MUL ADD PUSH1 0x1 ADD SLOAD PUSH1 0x7 DUP4 PUSH1 0x1 PUSH2 0x7D1 SWAP2 SWAP1 PUSH2 0x1AB7 JUMP JUMPDEST DUP2 SLOAD DUP2 LT PUSH2 0x7E1 JUMPI PUSH2 0x7E1 PUSH2 0x1A76 JUMP JUMPDEST SWAP1 PUSH0 MSTORE PUSH1 0x20 PUSH0 KECCAK256 SWAP1 PUSH1 0x3 MUL ADD PUSH1 0x1 ADD SLOAD PUSH2 0x7FB SWAP2 SWAP1 PUSH2 0x1A9E JUMP JUMPDEST SWAP1 POP DUP1 PUSH1 0x7 DUP4 DUP2 SLOAD DUP2 LT PUSH2 0x811 JUMPI PUSH2 0x811 PUSH2 0x1A76 JUMP JUMPDEST SWAP1 PUSH0 MSTORE PUSH1 0x20 PUSH0 KECCAK256 SWAP1 PUSH1 0x3 MUL ADD PUSH0 ADD SLOAD PUSH2 0x82A SWAP2 SWAP1 PUSH2 0x1ACA JUMP JUMPDEST PUSH2 0x834 SWAP1 DUP6 PUSH2 0x1AB7 JUMP JUMPDEST SWAP4 POP PUSH2 0x840 DUP2 DUP5 PUSH2 0x1AB7 JUMP JUMPDEST SWAP3 POP POP PUSH1 0x1 ADD PUSH2 0x78C JUMP JUMPDEST POP PUSH0 PUSH1 0x7 PUSH2 0x85A PUSH1 0x1 DUP7 PUSH2 0x1A9E JUMP JUMPDEST DUP2 SLOAD DUP2 LT PUSH2 0x86A JUMPI PUSH2 0x86A PUSH2 0x1A76 JUMP JUMPDEST SWAP1 PUSH0 MSTORE PUSH1 0x20 PUSH0 KECCAK256 SWAP1 PUSH1 0x3 MUL ADD PUSH1 0x1 ADD SLOAD TIMESTAMP PUSH2 0x885 SWAP2 SWAP1 PUSH2 0x1A9E JUMP JUMPDEST SWAP1 POP DUP1 PUSH1 0x7 PUSH2 0x895 PUSH1 0x1 DUP8 PUSH2 0x1A9E JUMP JUMPDEST DUP2 SLOAD DUP2 LT PUSH2 0x8A5 JUMPI PUSH2 0x8A5 PUSH2 0x1A76 JUMP JUMPDEST SWAP1 PUSH0 MSTORE PUSH1 0x20 PUSH0 KECCAK256 SWAP1 PUSH1 0x3 MUL ADD PUSH0 ADD SLOAD PUSH2 0x8BE SWAP2 SWAP1 PUSH2 0x1ACA JUMP JUMPDEST PUSH2 0x8C8 SWAP1 DUP5 PUSH2 0x1AB7 JUMP JUMPDEST SWAP3 POP PUSH2 0x8D4 DUP2 DUP4 PUSH2 0x1AB7 JUMP JUMPDEST SWAP2 POP DUP2 PUSH0 SUB PUSH2 0x912 JUMPI PUSH1 0x7 PUSH2 0x8EA PUSH1 0x1 DUP7 PUSH2 0x1A9E JUMP JUMPDEST DUP2 SLOAD DUP2 LT PUSH2 0x8FA JUMPI PUSH2 0x8FA PUSH2 0x1A76 JUMP JUMPDEST SWAP1 PUSH0 MSTORE PUSH1 0x20 PUSH0 KECCAK256 SWAP1 PUSH1 0x3 MUL ADD PUSH0 ADD SLOAD SWAP5 POP POP POP POP SWAP1 SWAP2 JUMP JUMPDEST PUSH2 0x91C DUP3 DUP5 PUSH2 0x1AF5 JUMP JUMPDEST SWAP5 POP POP POP POP SWAP1 SWAP2 JUMP JUMPDEST PUSH2 0x92D PUSH2 0x13D8 JUMP JUMPDEST CALLER PUSH0 SWAP1 DUP2 MSTORE PUSH1 0xE PUSH1 0x20 MSTORE PUSH1 0x40 SWAP1 KECCAK256 SLOAD DUP2 GT ISZERO PUSH2 0x95C JUMPI PUSH1 0x40 MLOAD PUSH4 0xC8B4EBB PUSH1 0xE0 SHL DUP2 MSTORE PUSH1 0x4 ADD PUSH1 0x40 MLOAD DUP1 SWAP2 SUB SWAP1 REVERT JUMPDEST PUSH1 0x6 SLOAD PUSH0 SWAP1 DUP2 MSTORE PUSH1 0x8 PUSH1 0x20 SWAP1 DUP2 MSTORE PUSH1 0x40 DUP1 DUP4 KECCAK256 CALLER DUP5 MSTORE SWAP1 SWAP2 MSTORE SWAP1 KECCAK256 SLOAD PUSH1 0xFF AND ISZERO PUSH2 0x999 JUMPI PUSH1 0x40 MLOAD PUSH4 0x1C9C8057 PUSH1 0xE2 SHL DUP2 MSTORE PUSH1 0x4 ADD PUSH1 0x40 MLOAD DUP1 SWAP2 SUB SWAP1 REVERT JUMPDEST CALLER PUSH0 SWAP1 DUP2 MSTORE PUSH1 0xE PUSH1 0x20 MSTORE PUSH1 0x40 DUP2 KECCAK256 DUP1 SLOAD DUP4 SWAP3 SWAP1 PUSH2 0x9B7 SWAP1 DUP5 SWAP1 PUSH2 0x1A9E JUMP JUMPDEST SWAP1 SWAP2 SSTORE POP POP PUSH1 0x40 MLOAD PUSH0 SWAP1 CALLER SWAP1 DUP4 SWAP1 DUP4 DUP2 DUP2 DUP2 DUP6 DUP8 GAS CALL SWAP3 POP POP POP RETURNDATASIZE DUP1 PUSH0 DUP2 EQ PUSH2 0x9FB JUMPI PUSH1 0x40 MLOAD SWAP2 POP PUSH1 0x1F NOT PUSH1 0x3F RETURNDATASIZE ADD AND DUP3 ADD PUSH1 0x40 MSTORE RETURNDATASIZE DUP3 MSTORE RETURNDATASIZE PUSH0 PUSH1 0x20 DUP5 ADD RETURNDATACOPY PUSH2 0xA00 JUMP JUMPDEST PUSH1 0x60 SWAP2 POP JUMPDEST POP POP SWAP1 POP DUP1 PUSH2 0xA22 JUMPI PUSH1 0x40 MLOAD PUSH4 0x12171D83 PUSH1 0xE3 SHL DUP2 MSTORE PUSH1 0x4 ADD PUSH1 0x40 MLOAD DUP1 SWAP2 SUB SWAP1 REVERT JUMPDEST CALLER PUSH0 DUP2 DUP2 MSTORE PUSH1 0xE PUSH1 0x20 SWAP1 DUP2 MSTORE PUSH1 0x40 SWAP2 DUP3 SWAP1 KECCAK256 SLOAD DUP3 MLOAD DUP7 DUP2 MSTORE SWAP2 DUP3 ADD MSTORE PUSH32 0x10E3516C79B8DB29FB8FF034BE455802BBDD250F842E35A480E4CC1F05F44D86 SWAP2 ADD PUSH1 0x40 MLOAD DUP1 SWAP2 SUB SWAP1 LOG2 POP PUSH2 0xA80 PUSH1 0x1 PUSH0 MLOAD PUSH1 0x20 PUSH2 0x1B49 PUSH0 CODECOPY PUSH0 MLOAD SWAP1 PUSH0 MSTORE SSTORE JUMP JUMPDEST POP JUMP JUMPDEST CALLER PUSH0 SWAP1 DUP2 MSTORE PUSH1 0x1 PUSH1 0x20 MSTORE PUSH1 0x40 SWAP1 KECCAK256 SLOAD PUSH1 0xFF AND PUSH2 0xAB2 JUMPI PUSH1 0x40 MLOAD PUSH4 0x1C833D81 PUSH1 0xE2 SHL DUP2 MSTORE PUSH1 0x4 ADD PUSH1 0x40 MLOAD DUP1 SWAP2 SUB SWAP1 REVERT JUMPDEST CALLER PUSH0 SWAP1 DUP2 MSTORE PUSH1 0xE PUSH1 0x20 MSTORE PUSH1 0x40 DUP2 KECCAK256 DUP1 SLOAD CALLVALUE SWAP3 SWAP1 PUSH2 0xAD0 SWAP1 DUP5 SWAP1 PUSH2 0x1AB7 JUMP JUMPDEST SWAP1 SWAP2 SSTORE POP POP CALLER PUSH0 DUP2 DUP2 MSTORE PUSH1 0xE PUSH1 0x20 SWAP1 DUP2 MSTORE PUSH1 0x40 SWAP2 DUP3 SWAP1 KECCAK256 SLOAD DUP3 MLOAD CALLVALUE DUP2 MSTORE SWAP2 DUP3 ADD MSTORE PUSH32 0x645B9A96A9CBB4AAAD25E6260145499FE1EDEE495E67649FC2B2D5CC1E7506D1 SWAP2 ADD PUSH1 0x40 MLOAD DUP1 SWAP2 SUB SWAP1 LOG2 JUMP JUMPDEST PUSH1 0x7 SLOAD PUSH0 SWAP1 PUSH1 0x2 DUP2 LT ISZERO PUSH2 0xB33 JUMPI PUSH0 SWAP2 POP SWAP1 SWAP2 JUMP JUMPDEST PUSH0 NOT PUSH0 DUP1 DUP1 JUMPDEST DUP5 DUP2 LT ISZERO PUSH2 0xB93 JUMPI PUSH0 PUSH1 0x7 DUP3 DUP2 SLOAD DUP2 LT PUSH2 0xB55 JUMPI PUSH2 0xB55 PUSH2 0x1A76 JUMP JUMPDEST SWAP1 PUSH0 MSTORE PUSH1 0x20 PUSH0 KECCAK256 SWAP1 PUSH1 0x3 MUL ADD PUSH0 ADD SLOAD SWAP1 POP DUP5 DUP2 LT ISZERO PUSH2 0xB72 JUMPI DUP1 SWAP5 POP JUMPDEST DUP4 DUP2 GT ISZERO PUSH2 0xB7E JUMPI DUP1 SWAP4 POP JUMPDEST PUSH2 0xB88 DUP2 DUP5 PUSH2 0x1AB7 JUMP JUMPDEST SWAP3 POP POP PUSH1 0x1 ADD PUSH2 0xB39 JUMP JUMPDEST POP PUSH0 PUSH2 0xB9F DUP6 DUP4 PUSH2 0x1AF5 JUMP JUMPDEST SWAP1 POP DUP1 PUSH0 SUB PUSH2 0xBB3 JUMPI PUSH0 SWAP6 POP POP POP POP POP SWAP1 SWAP2 JUMP JUMPDEST DUP1 PUSH2 0x2710 PUSH2 0xBC1 DUP7 DUP7 PUSH2 0x1A9E JUMP JUMPDEST PUSH2 0xBCB SWAP2 SWAP1 PUSH2 0x1ACA JUMP JUMPDEST PUSH2 0xBD5 SWAP2 SWAP1 PUSH2 0x1AF5 JUMP JUMPDEST SWAP6 POP POP POP POP POP SWAP1 SWAP2 JUMP JUMPDEST PUSH2 0xBE7 PUSH2 0x13F3 JUMP JUMPDEST DUP1 PUSH0 SUB PUSH2 0xC07 JUMPI PUSH1 0x40 MLOAD PUSH4 0xC149905D PUSH1 0xE0 SHL DUP2 MSTORE PUSH1 0x4 ADD PUSH1 0x40 MLOAD DUP1 SWAP2 SUB SWAP1 REVERT JUMPDEST PUSH1 0x40 DUP1 MLOAD PUSH1 0x60 DUP2 ADD DUP3 MSTORE DUP3 DUP2 MSTORE TIMESTAMP PUSH1 0x20 DUP3 ADD DUP2 SWAP1 MSTORE PUSH0 SWAP2 SWAP1 SWAP3 ADD DUP2 SWAP1 MSTORE PUSH1 0x3 DUP4 SWAP1 SSTORE PUSH1 0x4 SWAP2 SWAP1 SWAP2 SSTORE PUSH1 0x5 SSTORE PUSH1 0x10 DUP1 SLOAD PUSH1 0xFF NOT AND PUSH1 0x1 OR SWAP1 SSTORE PUSH1 0x7 SLOAD PUSH1 0xA GT ISZERO PUSH2 0xCDA JUMPI PUSH1 0x7 DUP1 SLOAD PUSH1 0x1 DUP2 ADD DUP3 SSTORE PUSH0 SWAP2 SWAP1 SWAP2 MSTORE PUSH1 0x3 DUP1 SLOAD SWAP2 MUL PUSH32 0xA66CC928B5EDB82AF9BD49922954155AB7B0942694BEA4CE44661D9A8736C688 DUP2 ADD SWAP2 SWAP1 SWAP2 SSTORE PUSH1 0x4 SLOAD PUSH32 0xA66CC928B5EDB82AF9BD49922954155AB7B0942694BEA4CE44661D9A8736C689 DUP3 ADD SSTORE PUSH1 0x5 SLOAD PUSH32 0xA66CC928B5EDB82AF9BD49922954155AB7B0942694BEA4CE44661D9A8736C68A SWAP1 SWAP2 ADD SSTORE PUSH2 0xD25 JUMP JUMPDEST PUSH1 0x3 PUSH1 0x7 PUSH1 0xA PUSH1 0x6 SLOAD PUSH2 0xCED SWAP2 SWAP1 PUSH2 0x1B08 JUMP JUMPDEST DUP2 SLOAD DUP2 LT PUSH2 0xCFD JUMPI PUSH2 0xCFD PUSH2 0x1A76 JUMP JUMPDEST PUSH0 SWAP2 DUP3 MSTORE PUSH1 0x20 SWAP1 SWAP2 KECCAK256 DUP3 SLOAD PUSH1 0x3 SWAP1 SWAP3 MUL ADD SWAP1 DUP2 SSTORE PUSH1 0x1 DUP1 DUP4 ADD SLOAD SWAP1 DUP3 ADD SSTORE PUSH1 0x2 SWAP2 DUP3 ADD SLOAD SWAP2 ADD SSTORE JUMPDEST PUSH1 0x40 DUP1 MLOAD DUP3 DUP2 MSTORE TIMESTAMP PUSH1 0x20 DUP3 ADD MSTORE PUSH32 0xCDB493324E99E83676E2826356D9387F491CB8B0D60A6D0CDBF3F28166D7B65 SWAP2 ADD JUMPDEST PUSH1 0x40 MLOAD DUP1 SWAP2 SUB SWAP1 LOG1 POP JUMP JUMPDEST PUSH2 0xD69 PUSH2 0x13F3 JUMP JUMPDEST PUSH1 0x1 PUSH1 0x1 PUSH1 0xA0 SHL SUB DUP2 AND PUSH0 SWAP1 DUP2 MSTORE PUSH1 0x1 PUSH1 0x20 MSTORE PUSH1 0x40 SWAP1 KECCAK256 SLOAD PUSH1 0xFF AND ISZERO PUSH2 0xA80 JUMPI PUSH1 0x1 PUSH1 0x1 PUSH1 0xA0 SHL SUB DUP2 AND PUSH0 SWAP1 DUP2 MSTORE PUSH1 0x1 PUSH1 0x20 MSTORE PUSH1 0x40 DUP2 KECCAK256 DUP1 SLOAD PUSH1 0xFF NOT AND SWAP1 SSTORE PUSH1 0x2 DUP1 SLOAD SWAP2 PUSH2 0xDB6 DUP4 PUSH2 0x1B1B JUMP JUMPDEST SWAP1 SWAP2 SSTORE POP POP PUSH1 0x40 MLOAD PUSH1 0x1 PUSH1 0x1 PUSH1 0xA0 SHL SUB DUP3 AND SWAP1 PUSH32 0xF125AA5E6CB22C17EA0DE4E1F86D2FF289DDD6A37E791B9AD29D0091CBA06AC8 SWAP1 PUSH0 SWAP1 LOG2 POP JUMP JUMPDEST PUSH2 0xDF9 PUSH2 0x13F3 JUMP JUMPDEST PUSH1 0x6 DUP1 SLOAD SWAP1 PUSH0 PUSH2 0xE08 DUP4 PUSH2 0x1B30 JUMP JUMPDEST SWAP1 SWAP2 SSTORE POP POP PUSH0 PUSH1 0x9 DUP2 SWAP1 SSTORE PUSH2 0xE1F SWAP1 PUSH1 0xA SWAP1 PUSH2 0x1971 JUMP JUMPDEST PUSH2 0xE2A PUSH1 0xB PUSH0 PUSH2 0x1971 JUMP JUMPDEST JUMP JUMPDEST PUSH2 0xE34 PUSH2 0x13F3 JUMP JUMPDEST PUSH2 0xE2A PUSH0 PUSH2 0x141F JUMP JUMPDEST PUSH0 PUSH0 PUSH1 0x3 PUSH1 0x1 ADD SLOAD PUSH0 SUB PUSH2 0xE64 JUMPI PUSH1 0x40 MLOAD PUSH4 0xC149905D PUSH1 0xE0 SHL DUP2 MSTORE PUSH1 0x4 ADD PUSH1 0x40 MLOAD DUP1 SWAP2 SUB SWAP1 REVERT JUMPDEST PUSH1 0x4 SLOAD PUSH2 0xE10 SWAP1 PUSH2 0xE75 SWAP1 TIMESTAMP PUSH2 0x1A9E JUMP JUMPDEST GT ISZERO PUSH2 0xE94 JUMPI PUSH1 0x40 MLOAD PUSH4 0xCD5FA07 PUSH1 0xE1 SHL DUP2 MSTORE PUSH1 0x4 ADD PUSH1 0x40 MLOAD DUP1 SWAP2 SUB SWAP1 REVERT JUMPDEST POP POP PUSH1 0x3 SLOAD PUSH1 0x4 SLOAD SWAP1 SWAP2 JUMP JUMPDEST PUSH1 0x60 PUSH1 0x7 DUP1 SLOAD DUP1 PUSH1 0x20 MUL PUSH1 0x20 ADD PUSH1 0x40 MLOAD SWAP1 DUP2 ADD PUSH1 0x40 MSTORE DUP1 SWAP3 SWAP2 SWAP1 DUP2 DUP2 MSTORE PUSH1 0x20 ADD PUSH0 SWAP1 JUMPDEST DUP3 DUP3 LT ISZERO PUSH2 0xF10 JUMPI DUP4 DUP3 SWAP1 PUSH0 MSTORE PUSH1 0x20 PUSH0 KECCAK256 SWAP1 PUSH1 0x3 MUL ADD PUSH1 0x40 MLOAD DUP1 PUSH1 0x60 ADD PUSH1 0x40 MSTORE SWAP1 DUP2 PUSH0 DUP3 ADD SLOAD DUP2 MSTORE PUSH1 0x20 ADD PUSH1 0x1 DUP3 ADD SLOAD DUP2 MSTORE PUSH1 0x20 ADD PUSH1 0x2 DUP3 ADD SLOAD DUP2 MSTORE POP POP DUP2 MSTORE PUSH1 0x20 ADD SWAP1 PUSH1 0x1 ADD SWAP1 PUSH2 0xEC3 JUMP JUMPDEST POP POP POP POP SWAP1 POP SWAP1 JUMP JUMPDEST CALLER PUSH0 SWAP1 DUP2 MSTORE PUSH1 0x1 PUSH1 0x20 MSTORE PUSH1 0x40 SWAP1 KECCAK256 SLOAD PUSH1 0xFF AND PUSH2 0xF48 JUMPI PUSH1 0x40 MLOAD PUSH4 0x1C833D81 PUSH1 0xE2 SHL DUP2 MSTORE PUSH1 0x4 ADD PUSH1 0x40 MLOAD DUP1 SWAP2 SUB SWAP1 REVERT JUMPDEST PUSH1 0x6 SLOAD PUSH0 SWAP1 DUP2 MSTORE PUSH1 0x8 PUSH1 0x20 SWAP1 DUP2 MSTORE PUSH1 0x40 DUP1 DUP4 KECCAK256 CALLER DUP5 MSTORE SWAP1 SWAP2 MSTORE SWAP1 KECCAK256 SLOAD PUSH1 0xFF AND ISZERO PUSH2 0xF85 JUMPI PUSH1 0x40 MLOAD PUSH4 0x9FBFC589 PUSH1 0xE0 SHL DUP2 MSTORE PUSH1 0x4 ADD PUSH1 0x40 MLOAD DUP1 SWAP2 SUB SWAP1 REVERT JUMPDEST CALLER PUSH0 SWAP1 DUP2 MSTORE PUSH1 0xE PUSH1 0x20 MSTORE PUSH1 0x40 SWAP1 KECCAK256 SLOAD PUSH7 0xB1A2BC2EC50000 GT ISZERO PUSH2 0xFBB JUMPI PUSH1 0x40 MLOAD PUSH4 0x78DE4A69 PUSH1 0xE1 SHL DUP2 MSTORE PUSH1 0x4 ADD PUSH1 0x40 MLOAD DUP1 SWAP2 SUB SWAP1 REVERT JUMPDEST PUSH1 0x4 SLOAD ISZERO PUSH2 0x1021 JUMPI PUSH1 0x3 SLOAD PUSH0 DUP2 DUP4 GT PUSH2 0xFDD JUMPI PUSH2 0xFD8 DUP4 DUP4 PUSH2 0x1A9E JUMP JUMPDEST PUSH2 0xFE7 JUMP JUMPDEST PUSH2 0xFE7 DUP3 DUP5 PUSH2 0x1A9E JUMP JUMPDEST SWAP1 POP PUSH2 0xFF4 DUP3 PUSH1 0x32 PUSH2 0x1ACA JUMP JUMPDEST PUSH2 0xFFF DUP3 PUSH1 0x64 PUSH2 0x1ACA JUMP JUMPDEST GT ISZERO PUSH2 0x101E JUMPI PUSH1 0x40 MLOAD PUSH4 0x69E25179 PUSH1 0xE1 SHL DUP2 MSTORE PUSH1 0x4 ADD PUSH1 0x40 MLOAD DUP1 SWAP2 SUB SWAP1 REVERT JUMPDEST POP POP JUMPDEST PUSH1 0x6 DUP1 SLOAD PUSH0 SWAP1 DUP2 MSTORE PUSH1 0x8 PUSH1 0x20 SWAP1 DUP2 MSTORE PUSH1 0x40 DUP1 DUP4 KECCAK256 CALLER DUP1 DUP6 MSTORE SWAP1 DUP4 MSTORE DUP2 DUP5 KECCAK256 DUP1 SLOAD PUSH1 0xFF NOT AND PUSH1 0x1 SWAP1 DUP2 OR SWAP1 SWAP2 SSTORE PUSH1 0xA DUP1 SLOAD DUP1 DUP4 ADD SWAP1 SWAP2 SSTORE PUSH32 0xC65A7BB8D6351C1CF70C95A316CC6A92839C986682D98BC35F958F4883F9D2A8 ADD DUP8 SWAP1 SSTORE PUSH1 0xB DUP1 SLOAD SWAP2 DUP3 ADD SWAP1 SSTORE PUSH32 0x175B7A638427703F0DBE7BB9BBF987A2551717B34E79F33B5B1008D1FA01DB9 ADD DUP1 SLOAD PUSH1 0x1 PUSH1 0x1 PUSH1 0xA0 SHL SUB NOT AND DUP3 OR SWAP1 SSTORE SWAP4 SLOAD DUP4 MSTORE PUSH1 0xC DUP3 MSTORE DUP1 DUP4 KECCAK256 SWAP4 DUP4 MSTORE SWAP3 SWAP1 MSTORE SWAP1 DUP2 KECCAK256 DUP3 SWAP1 SSTORE PUSH1 0x9 DUP1 SLOAD SWAP2 PUSH2 0x10DC DUP4 PUSH2 0x1B30 JUMP JUMPDEST SWAP1 SWAP2 SSTORE POP POP CALLER PUSH0 SWAP1 DUP2 MSTORE PUSH1 0xD PUSH1 0x20 MSTORE PUSH1 0x40 DUP2 KECCAK256 DUP1 SLOAD SWAP2 PUSH2 0x10FB DUP4 PUSH2 0x1B30 JUMP JUMPDEST SWAP1 SWAP2 SSTORE POP POP PUSH1 0x6 SLOAD PUSH1 0x40 MLOAD DUP3 DUP2 MSTORE CALLER SWAP2 SWAP1 PUSH32 0x2655941EF0E01E05D55A873609115593DB7DF65CD101451B9F7E89EDE1613EC9 SWAP1 PUSH1 0x20 ADD PUSH1 0x40 MLOAD DUP1 SWAP2 SUB SWAP1 LOG3 PUSH1 0x3 PUSH1 0x9 SLOAD LT PUSH2 0xA80 JUMPI PUSH2 0xA80 PUSH2 0x146E JUMP JUMPDEST PUSH1 0x7 DUP2 DUP2 SLOAD DUP2 LT PUSH2 0x115A JUMPI PUSH0 DUP1 REVERT JUMPDEST PUSH0 SWAP2 DUP3 MSTORE PUSH1 0x20 SWAP1 SWAP2 KECCAK256 PUSH1 0x3 SWAP1 SWAP2 MUL ADD DUP1 SLOAD PUSH1 0x1 DUP3 ADD SLOAD PUSH1 0x2 SWAP1 SWAP3 ADD SLOAD SWAP1 SWAP3 POP DUP4 JUMP JUMPDEST PUSH2 0x1184 PUSH2 0x13F3 JUMP JUMPDEST PUSH2 0x118C PUSH2 0x13D8 JUMP JUMPDEST PUSH1 0xF SLOAD PUSH0 DUP2 SWAP1 SUB PUSH2 0x11B0 JUMPI PUSH1 0x40 MLOAD PUSH4 0xC8B4EBB PUSH1 0xE0 SHL DUP2 MSTORE PUSH1 0x4 ADD PUSH1 0x40 MLOAD DUP1 SWAP2 SUB SWAP1 REVERT JUMPDEST PUSH0 PUSH1 0xF DUP2 SWAP1 SSTORE DUP1 SLOAD PUSH1 0x40 MLOAD PUSH1 0x1 PUSH1 0x1 PUSH1 0xA0 SHL SUB SWAP1 SWAP2 AND SWAP1 DUP4 SWAP1 DUP4 DUP2 DUP2 DUP2 DUP6 DUP8 GAS CALL SWAP3 POP POP POP RETURNDATASIZE DUP1 PUSH0 DUP2 EQ PUSH2 0x11FF JUMPI PUSH1 0x40 MLOAD SWAP2 POP PUSH1 0x1F NOT PUSH1 0x3F RETURNDATASIZE ADD AND DUP3 ADD PUSH1 0x40 MSTORE RETURNDATASIZE DUP3 MSTORE RETURNDATASIZE PUSH0 PUSH1 0x20 DUP5 ADD RETURNDATACOPY PUSH2 0x1204 JUMP JUMPDEST PUSH1 0x60 SWAP2 POP JUMPDEST POP POP SWAP1 POP DUP1 PUSH2 0x1226 JUMPI PUSH1 0x40 MLOAD PUSH4 0x12171D83 PUSH1 0xE3 SHL DUP2 MSTORE PUSH1 0x4 ADD PUSH1 0x40 MLOAD DUP1 SWAP2 SUB SWAP1 REVERT JUMPDEST PUSH0 SLOAD PUSH1 0x1 PUSH1 0x1 PUSH1 0xA0 SHL SUB AND PUSH1 0x1 PUSH1 0x1 PUSH1 0xA0 SHL SUB AND PUSH32 0x32E3D998E55DC2251643D1A15BBF2D4CCE90DF87FB929F01499D1670BAB7E58 DUP4 PUSH1 0x40 MLOAD PUSH2 0x126B SWAP2 DUP2 MSTORE PUSH1 0x20 ADD SWAP1 JUMP JUMPDEST PUSH1 0x40 MLOAD DUP1 SWAP2 SUB SWAP1 LOG2 POP POP PUSH2 0xE2A PUSH1 0x1 PUSH0 MLOAD PUSH1 0x20 PUSH2 0x1B49 PUSH0 CODECOPY PUSH0 MLOAD SWAP1 PUSH0 MSTORE SSTORE JUMP JUMPDEST PUSH2 0x1293 PUSH2 0x13F3 JUMP JUMPDEST PUSH1 0x11 DUP2 SWAP1 SSTORE PUSH1 0x40 MLOAD DUP2 DUP2 MSTORE PUSH32 0x60123B8789D68D6A3A4B1592F2B8BE4211B24C63398E83E66AB7748A5FEB3F9E SWAP1 PUSH1 0x20 ADD PUSH2 0xD56 JUMP JUMPDEST PUSH2 0x12D0 PUSH2 0x13F3 JUMP JUMPDEST PUSH1 0x1 PUSH1 0x1 PUSH1 0xA0 SHL SUB DUP2 AND PUSH0 SWAP1 DUP2 MSTORE PUSH1 0x1 PUSH1 0x20 MSTORE PUSH1 0x40 SWAP1 KECCAK256 SLOAD PUSH1 0xFF AND PUSH2 0xA80 JUMPI PUSH1 0x1 PUSH1 0x1 PUSH1 0xA0 SHL SUB DUP2 AND PUSH0 SWAP1 DUP2 MSTORE PUSH1 0x1 PUSH1 0x20 DUP2 SWAP1 MSTORE PUSH1 0x40 DUP3 KECCAK256 DUP1 SLOAD PUSH1 0xFF NOT AND SWAP1 SWAP2 OR SWAP1 SSTORE PUSH1 0x2 DUP1 SLOAD SWAP2 PUSH2 0x1321 DUP4 PUSH2 0x1B30 JUMP JUMPDEST SWAP1 SWAP2 SSTORE POP POP PUSH1 0x40 MLOAD PUSH1 0x1 PUSH1 0x1 PUSH1 0xA0 SHL SUB DUP3 AND SWAP1 PUSH32 0x52824C4A4D431C73D6D24A91F775D722860111C6D30DA30B0B21E062FB4C7365 SWAP1 PUSH0 SWAP1 LOG2 POP JUMP JUMPDEST PUSH2 0x1364 PUSH2 0x13F3 JUMP JUMPDEST PUSH1 0x1 PUSH1 0x1 PUSH1 0xA0 SHL SUB DUP2 AND PUSH2 0x1392 JUMPI PUSH1 0x40 MLOAD PUSH4 0x1E4FBDF7 PUSH1 0xE0 SHL DUP2 MSTORE PUSH0 PUSH1 0x4 DUP3 ADD MSTORE PUSH1 0x24 ADD JUMPDEST PUSH1 0x40 MLOAD DUP1 SWAP2 SUB SWAP1 REVERT JUMPDEST PUSH2 0xA80 DUP2 PUSH2 0x141F JUMP JUMPDEST PUSH0 PUSH0 PUSH0 PUSH0 PUSH0 PUSH0 PUSH0 PUSH1 0x6 SLOAD GT PUSH2 0x13B0 JUMPI PUSH0 PUSH2 0x13BF JUMP JUMPDEST PUSH1 0x1 PUSH1 0x6 SLOAD PUSH2 0x13BF SWAP2 SWAP1 PUSH2 0x1A9E JUMP JUMPDEST PUSH1 0x3 SLOAD PUSH1 0x4 SLOAD SWAP2 SWAP9 SWAP1 SWAP8 POP SWAP1 SWAP6 POP DUP6 SWAP5 POP DUP8 SWAP4 POP SWAP2 POP POP JUMP JUMPDEST PUSH2 0x13E0 PUSH2 0x1863 JUMP JUMPDEST PUSH1 0x2 PUSH0 MLOAD PUSH1 0x20 PUSH2 0x1B49 PUSH0 CODECOPY PUSH0 MLOAD SWAP1 PUSH0 MSTORE SSTORE JUMP JUMPDEST PUSH0 SLOAD PUSH1 0x1 PUSH1 0x1 PUSH1 0xA0 SHL SUB AND CALLER EQ PUSH2 0xE2A JUMPI PUSH1 0x40 MLOAD PUSH4 0x118CDAA7 PUSH1 0xE0 SHL DUP2 MSTORE CALLER PUSH1 0x4 DUP3 ADD MSTORE PUSH1 0x24 ADD PUSH2 0x1389 JUMP JUMPDEST PUSH0 DUP1 SLOAD PUSH1 0x1 PUSH1 0x1 PUSH1 0xA0 SHL SUB DUP4 DUP2 AND PUSH1 0x1 PUSH1 0x1 PUSH1 0xA0 SHL SUB NOT DUP4 AND DUP2 OR DUP5 SSTORE PUSH1 0x40 MLOAD SWAP2 SWAP1 SWAP3 AND SWAP3 DUP4 SWAP2 PUSH32 0x8BE0079C531659141344CD1FD0A4F28419497F9722A3DAAFE3B4186F6B6457E0 SWAP2 SWAP1 LOG3 POP POP JUMP JUMPDEST PUSH0 PUSH1 0x11 SLOAD GT DUP1 ISZERO PUSH2 0x1480 JUMPI POP PUSH1 0x4 SLOAD ISZERO ISZERO JUMPDEST ISZERO PUSH2 0x14B4 JUMPI PUSH1 0x11 SLOAD PUSH1 0x4 SLOAD PUSH2 0x1495 SWAP1 TIMESTAMP PUSH2 0x1A9E JUMP JUMPDEST LT ISZERO PUSH2 0x14B4 JUMPI PUSH1 0x40 MLOAD PUSH4 0x7BC94DB PUSH1 0xE5 SHL DUP2 MSTORE PUSH1 0x4 ADD PUSH1 0x40 MLOAD DUP1 SWAP2 SUB SWAP1 REVERT JUMPDEST PUSH0 PUSH1 0xA DUP1 SLOAD DUP1 PUSH1 0x20 MUL PUSH1 0x20 ADD PUSH1 0x40 MLOAD SWAP1 DUP2 ADD PUSH1 0x40 MSTORE DUP1 SWAP3 SWAP2 SWAP1 DUP2 DUP2 MSTORE PUSH1 0x20 ADD DUP3 DUP1 SLOAD DUP1 ISZERO PUSH2 0x14FF JUMPI PUSH1 0x20 MUL DUP3 ADD SWAP2 SWAP1 PUSH0 MSTORE PUSH1 0x20 PUSH0 KECCAK256 SWAP1 JUMPDEST DUP2 SLOAD DUP2 MSTORE PUSH1 0x20 ADD SWAP1 PUSH1 0x1 ADD SWAP1 DUP1 DUP4 GT PUSH2 0x14EB JUMPI JUMPDEST POP POP POP POP POP SWAP1 POP PUSH2 0x150F DUP2 PUSH2 0x1892 JUMP JUMPDEST PUSH0 DUP2 PUSH1 0x2 DUP4 MLOAD PUSH2 0x151F SWAP2 SWAP1 PUSH2 0x1AF5 JUMP JUMPDEST DUP2 MLOAD DUP2 LT PUSH2 0x152F JUMPI PUSH2 0x152F PUSH2 0x1A76 JUMP JUMPDEST PUSH1 0x20 MUL PUSH1 0x20 ADD ADD MLOAD SWAP1 POP PUSH0 DUP2 GT ISZERO PUSH2 0x16D6 JUMPI PUSH0 PUSH2 0x2710 PUSH2 0x1551 PUSH2 0x3E8 DUP5 PUSH2 0x1ACA JUMP JUMPDEST PUSH2 0x155B SWAP2 SWAP1 PUSH2 0x1AF5 JUMP JUMPDEST SWAP1 POP PUSH0 JUMPDEST PUSH1 0xB SLOAD DUP2 LT ISZERO PUSH2 0x16D3 JUMPI PUSH0 PUSH1 0xB DUP3 DUP2 SLOAD DUP2 LT PUSH2 0x157D JUMPI PUSH2 0x157D PUSH2 0x1A76 JUMP JUMPDEST PUSH0 SWAP2 DUP3 MSTORE PUSH1 0x20 DUP1 DUP4 KECCAK256 SWAP1 SWAP2 ADD SLOAD PUSH1 0x6 SLOAD DUP4 MSTORE PUSH1 0xC DUP3 MSTORE PUSH1 0x40 DUP1 DUP5 KECCAK256 PUSH1 0x1 PUSH1 0x1 PUSH1 0xA0 SHL SUB SWAP1 SWAP3 AND DUP1 DUP6 MSTORE SWAP2 SWAP1 SWAP3 MSTORE SWAP1 DUP3 KECCAK256 SLOAD SWAP1 SWAP3 POP SWAP1 DUP6 DUP3 GT PUSH2 0x15C8 JUMPI PUSH2 0x15C3 DUP3 DUP8 PUSH2 0x1A9E JUMP JUMPDEST PUSH2 0x15D2 JUMP JUMPDEST PUSH2 0x15D2 DUP7 DUP4 PUSH2 0x1A9E JUMP JUMPDEST SWAP1 POP DUP5 DUP2 GT DUP1 ISZERO PUSH2 0x15F9 JUMPI POP PUSH1 0x1 PUSH1 0x1 PUSH1 0xA0 SHL SUB DUP4 AND PUSH0 SWAP1 DUP2 MSTORE PUSH1 0xE PUSH1 0x20 MSTORE PUSH1 0x40 SWAP1 KECCAK256 SLOAD ISZERO ISZERO JUMPDEST ISZERO PUSH2 0x16C8 JUMPI PUSH1 0x1 PUSH1 0x1 PUSH1 0xA0 SHL SUB DUP4 AND PUSH0 SWAP1 DUP2 MSTORE PUSH1 0xE PUSH1 0x20 MSTORE PUSH1 0x40 DUP2 KECCAK256 SLOAD PUSH2 0x2710 SWAP1 PUSH2 0x1627 SWAP1 PUSH2 0x7D0 SWAP1 PUSH2 0x1ACA JUMP JUMPDEST PUSH2 0x1631 SWAP2 SWAP1 PUSH2 0x1AF5 JUMP JUMPDEST PUSH1 0x1 PUSH1 0x1 PUSH1 0xA0 SHL SUB DUP6 AND PUSH0 SWAP1 DUP2 MSTORE PUSH1 0xE PUSH1 0x20 MSTORE PUSH1 0x40 DUP2 KECCAK256 DUP1 SLOAD SWAP3 SWAP4 POP DUP4 SWAP3 SWAP1 SWAP2 SWAP1 PUSH2 0x165D SWAP1 DUP5 SWAP1 PUSH2 0x1A9E JUMP JUMPDEST SWAP3 POP POP DUP2 SWAP1 SSTORE POP DUP1 PUSH1 0xF PUSH0 DUP3 DUP3 SLOAD PUSH2 0x1675 SWAP2 SWAP1 PUSH2 0x1AB7 JUMP JUMPDEST SWAP1 SWAP2 SSTORE POP POP PUSH1 0x40 DUP1 MLOAD DUP3 DUP2 MSTORE PUSH1 0x20 DUP2 ADD DUP6 SWAP1 MSTORE SWAP1 DUP2 ADD DUP9 SWAP1 MSTORE PUSH1 0x1 PUSH1 0x1 PUSH1 0xA0 SHL SUB DUP6 AND SWAP1 PUSH32 0xC4EEC5017CB65D25A0A476BE2B85AF63D4EB3201B221CA742BC1D35E9F36AC28 SWAP1 PUSH1 0x60 ADD PUSH1 0x40 MLOAD DUP1 SWAP2 SUB SWAP1 LOG2 POP JUMPDEST POP POP POP PUSH1 0x1 ADD PUSH2 0x155F JUMP JUMPDEST POP POP JUMPDEST PUSH1 0x40 DUP1 MLOAD PUSH1 0x60 DUP2 ADD DUP3 MSTORE DUP3 DUP2 MSTORE TIMESTAMP PUSH1 0x20 DUP3 ADD DUP2 SWAP1 MSTORE PUSH1 0x9 SLOAD SWAP2 SWAP1 SWAP3 ADD DUP2 SWAP1 MSTORE PUSH1 0x3 DUP4 SWAP1 SSTORE PUSH1 0x4 SWAP2 SWAP1 SWAP2 SSTORE PUSH1 0x5 SSTORE PUSH1 0x7 SLOAD PUSH1 0xA GT ISZERO PUSH2 0x179E JUMPI PUSH1 0x7 DUP1 SLOAD PUSH1 0x1 DUP2 ADD DUP3 SSTORE PUSH0 SWAP2 SWAP1 SWAP2 MSTORE PUSH1 0x3 DUP1 SLOAD SWAP2 MUL PUSH32 0xA66CC928B5EDB82AF9BD49922954155AB7B0942694BEA4CE44661D9A8736C688 DUP2 ADD SWAP2 SWAP1 SWAP2 SSTORE PUSH1 0x4 SLOAD PUSH32 0xA66CC928B5EDB82AF9BD49922954155AB7B0942694BEA4CE44661D9A8736C689 DUP3 ADD SSTORE PUSH1 0x5 SLOAD PUSH32 0xA66CC928B5EDB82AF9BD49922954155AB7B0942694BEA4CE44661D9A8736C68A SWAP1 SWAP2 ADD SSTORE PUSH2 0x17E9 JUMP JUMPDEST PUSH1 0x3 PUSH1 0x7 PUSH1 0xA PUSH1 0x6 SLOAD PUSH2 0x17B1 SWAP2 SWAP1 PUSH2 0x1B08 JUMP JUMPDEST DUP2 SLOAD DUP2 LT PUSH2 0x17C1 JUMPI PUSH2 0x17C1 PUSH2 0x1A76 JUMP JUMPDEST PUSH0 SWAP2 DUP3 MSTORE PUSH1 0x20 SWAP1 SWAP2 KECCAK256 DUP3 SLOAD PUSH1 0x3 SWAP1 SWAP3 MUL ADD SWAP1 DUP2 SSTORE PUSH1 0x1 DUP1 DUP4 ADD SLOAD SWAP1 DUP3 ADD SSTORE PUSH1 0x2 SWAP2 DUP3 ADD SLOAD SWAP2 ADD SSTORE JUMPDEST PUSH1 0x10 DUP1 SLOAD PUSH1 0xFF NOT AND SWAP1 SSTORE PUSH1 0x6 SLOAD PUSH1 0x40 DUP1 MLOAD DUP4 DUP2 MSTORE TIMESTAMP PUSH1 0x20 DUP3 ADD MSTORE PUSH32 0x15819DD2FD9F6418B142E798D08A18D0BF06EA368F4480B7B0D3F75BD966BC48 SWAP2 ADD PUSH1 0x40 MLOAD DUP1 SWAP2 SUB SWAP1 LOG2 PUSH1 0x6 DUP1 SLOAD SWAP1 PUSH0 PUSH2 0x183D DUP4 PUSH2 0x1B30 JUMP JUMPDEST SWAP1 SWAP2 SSTORE POP POP PUSH0 PUSH1 0x9 DUP2 SWAP1 SSTORE PUSH2 0x1854 SWAP1 PUSH1 0xA SWAP1 PUSH2 0x1971 JUMP JUMPDEST PUSH2 0x185F PUSH1 0xB PUSH0 PUSH2 0x1971 JUMP JUMPDEST POP POP JUMP JUMPDEST PUSH0 MLOAD PUSH1 0x20 PUSH2 0x1B49 PUSH0 CODECOPY PUSH0 MLOAD SWAP1 PUSH0 MSTORE SLOAD PUSH1 0x2 SUB PUSH2 0xE2A JUMPI PUSH1 0x40 MLOAD PUSH4 0x3EE5AEB5 PUSH1 0xE0 SHL DUP2 MSTORE PUSH1 0x4 ADD PUSH1 0x40 MLOAD DUP1 SWAP2 SUB SWAP1 REVERT JUMPDEST PUSH1 0x1 JUMPDEST DUP2 MLOAD DUP2 LT ISZERO PUSH2 0x185F JUMPI PUSH0 DUP3 DUP3 DUP2 MLOAD DUP2 LT PUSH2 0x18B1 JUMPI PUSH2 0x18B1 PUSH2 0x1A76 JUMP JUMPDEST PUSH1 0x20 MUL PUSH1 0x20 ADD ADD MLOAD SWAP1 POP PUSH0 DUP3 SWAP1 POP JUMPDEST PUSH0 DUP2 GT DUP1 ISZERO PUSH2 0x18F1 JUMPI POP DUP2 DUP5 PUSH2 0x18D7 PUSH1 0x1 DUP5 PUSH2 0x1A9E JUMP JUMPDEST DUP2 MLOAD DUP2 LT PUSH2 0x18E7 JUMPI PUSH2 0x18E7 PUSH2 0x1A76 JUMP JUMPDEST PUSH1 0x20 MUL PUSH1 0x20 ADD ADD MLOAD GT JUMPDEST ISZERO PUSH2 0x1949 JUMPI DUP4 PUSH2 0x1902 PUSH1 0x1 DUP4 PUSH2 0x1A9E JUMP JUMPDEST DUP2 MLOAD DUP2 LT PUSH2 0x1912 JUMPI PUSH2 0x1912 PUSH2 0x1A76 JUMP JUMPDEST PUSH1 0x20 MUL PUSH1 0x20 ADD ADD MLOAD DUP5 DUP3 DUP2 MLOAD DUP2 LT PUSH2 0x192C JUMPI PUSH2 0x192C PUSH2 0x1A76 JUMP JUMPDEST PUSH1 0x20 SWAP1 DUP2 MUL SWAP2 SWAP1 SWAP2 ADD ADD MSTORE DUP1 PUSH2 0x1941 DUP2 PUSH2 0x1B1B JUMP JUMPDEST SWAP2 POP POP PUSH2 0x18C0 JUMP JUMPDEST DUP2 DUP5 DUP3 DUP2 MLOAD DUP2 LT PUSH2 0x195C JUMPI PUSH2 0x195C PUSH2 0x1A76 JUMP JUMPDEST PUSH1 0x20 SWAP1 DUP2 MUL SWAP2 SWAP1 SWAP2 ADD ADD MSTORE POP POP PUSH1 0x1 ADD PUSH2 0x1895 JUMP JUMPDEST POP DUP1 SLOAD PUSH0 DUP3 SSTORE SWAP1 PUSH0 MSTORE PUSH1 0x20 PUSH0 KECCAK256 SWAP1 DUP2 ADD SWAP1 PUSH2 0xA80 SWAP2 SWAP1 JUMPDEST DUP1 DUP3 GT ISZERO PUSH2 0x199B JUMPI PUSH0 DUP2 SSTORE PUSH1 0x1 ADD PUSH2 0x1988 JUMP JUMPDEST POP SWAP1 JUMP JUMPDEST PUSH0 PUSH1 0x20 DUP3 DUP5 SUB SLT ISZERO PUSH2 0x19AF JUMPI PUSH0 PUSH0 REVERT JUMPDEST DUP2 CALLDATALOAD PUSH1 0x1 PUSH1 0x1 PUSH1 0xA0 SHL SUB DUP2 AND DUP2 EQ PUSH2 0x19C5 JUMPI PUSH0 PUSH0 REVERT JUMPDEST SWAP4 SWAP3 POP POP POP JUMP JUMPDEST PUSH0 PUSH1 0x20 DUP3 DUP5 SUB SLT ISZERO PUSH2 0x19DC JUMPI PUSH0 PUSH0 REVERT JUMPDEST POP CALLDATALOAD SWAP2 SWAP1 POP JUMP JUMPDEST PUSH1 0x20 DUP2 MSTORE PUSH0 DUP3 MLOAD DUP1 PUSH1 0x20 DUP5 ADD MSTORE DUP1 PUSH1 0x20 DUP6 ADD PUSH1 0x40 DUP6 ADD MCOPY PUSH0 PUSH1 0x40 DUP3 DUP6 ADD ADD MSTORE PUSH1 0x40 PUSH1 0x1F NOT PUSH1 0x1F DUP4 ADD AND DUP5 ADD ADD SWAP2 POP POP SWAP3 SWAP2 POP POP JUMP JUMPDEST PUSH1 0x20 DUP1 DUP3 MSTORE DUP3 MLOAD DUP3 DUP3 ADD DUP2 SWAP1 MSTORE PUSH0 SWAP2 DUP5 ADD SWAP1 PUSH1 0x40 DUP5 ADD SWAP1 DUP4 JUMPDEST DUP2 DUP2 LT ISZERO PUSH2 0x1A6B JUMPI DUP4 MLOAD DUP1 MLOAD DUP5 MSTORE PUSH1 0x20 DUP2 ADD MLOAD PUSH1 0x20 DUP6 ADD MSTORE PUSH1 0x40 DUP2 ADD MLOAD PUSH1 0x40 DUP6 ADD MSTORE POP PUSH1 0x60 DUP4 ADD SWAP3 POP PUSH1 0x20 DUP5 ADD SWAP4 POP PUSH1 0x1 DUP2 ADD SWAP1 POP PUSH2 0x1A31 JUMP JUMPDEST POP SWAP1 SWAP6 SWAP5 POP POP POP POP POP JUMP JUMPDEST PUSH4 0x4E487B71 PUSH1 0xE0 SHL PUSH0 MSTORE PUSH1 0x32 PUSH1 0x4 MSTORE PUSH1 0x24 PUSH0 REVERT JUMPDEST PUSH4 0x4E487B71 PUSH1 0xE0 SHL PUSH0 MSTORE PUSH1 0x11 PUSH1 0x4 MSTORE PUSH1 0x24 PUSH0 REVERT JUMPDEST DUP2 DUP2 SUB DUP2 DUP2 GT ISZERO PUSH2 0x1AB1 JUMPI PUSH2 0x1AB1 PUSH2 0x1A8A JUMP JUMPDEST SWAP3 SWAP2 POP POP JUMP JUMPDEST DUP1 DUP3 ADD DUP1 DUP3 GT ISZERO PUSH2 0x1AB1 JUMPI PUSH2 0x1AB1 PUSH2 0x1A8A JUMP JUMPDEST DUP1 DUP3 MUL DUP2 ISZERO DUP3 DUP3 DIV DUP5 EQ OR PUSH2 0x1AB1 JUMPI PUSH2 0x1AB1 PUSH2 0x1A8A JUMP JUMPDEST PUSH4 0x4E487B71 PUSH1 0xE0 SHL PUSH0 MSTORE PUSH1 0x12 PUSH1 0x4 MSTORE PUSH1 0x24 PUSH0 REVERT JUMPDEST PUSH0 DUP3 PUSH2 0x1B03 JUMPI PUSH2 0x1B03 PUSH2 0x1AE1 JUMP JUMPDEST POP DIV SWAP1 JUMP JUMPDEST PUSH0 DUP3 PUSH2 0x1B16 JUMPI PUSH2 0x1B16 PUSH2 0x1AE1 JUMP JUMPDEST POP MOD SWAP1 JUMP JUMPDEST PUSH0 DUP2 PUSH2 0x1B29 JUMPI PUSH2 0x1B29 PUSH2 0x1A8A JUMP JUMPDEST POP PUSH0 NOT ADD SWAP1 JUMP JUMPDEST PUSH0 PUSH1 0x1 DUP3 ADD PUSH2 0x1B41 JUMPI PUSH2 0x1B41 PUSH2 0x1A8A JUMP JUMPDEST POP PUSH1 0x1 ADD SWAP1 JUMP INVALID SWAP12 PUSH24 0x9B17422D0DF92223018B32B4D1FA46E071723D6817E2486D STOP EXTCODESIZE 0xEC 0xC5 PUSH0 STOP LOG2 PUSH5 0x6970667358 0x22 SLT KECCAK256 0xBB 0x2A 0x27 0xE6 SGT PUSH19 0x7DB972E07CA9F60C873AD9101B45C4DB469144 0xA9 0xDF ADDRESS CREATE2 XOR CALL LT PUSH5 0x736F6C6343 STOP ADDMOD SHR STOP CALLER "},"methodIdentifiers":{"DECIMALS()":"2e0f2625","MAX_HISTORY()":"13545a02","MIN_REPORTERS()":"999ad67d","MIN_STAKE()":"cb1c2b5c","SLASH_PENALTY_BPS()":"f9c9fc5b","SLASH_THRESHOLD_BPS()":"0b285563","STALENESS_THRESHOLD()":"7215b0bf","addReporter(address)":"dd8755f2","authorizedReporters(address)":"3a41429a","claimSlashedFunds()":"da6a031e","currentRoundId()":"9cbe5efd","decimals()":"313ce567","description()":"7284e416","emergencyPriceActive()":"163b4cd4","emergencySetPrice(uint256)":"3d17ad3a","forceAdvanceRound()":"61dc8ecb","getCurrentRoundSubmissions()":"fe9bd8cc","getLatestPrice()":"8e15f473","getLatestPriceUnsafe()":"867df156","getPriceHistory()":"929f0379","getPriceHistoryLength()":"a524c7ea","getTWAP()":"05ecd003","getVolatility()":"3af2888b","hasSubmitted(address)":"388044b3","latestRound()":"668a0f02","latestRoundData()":"feaf968c","minRoundInterval()":"f42e9808","owner()":"8da5cb5b","priceHistory(uint256)":"b27a0484","removeReporter(address)":"5de5c212","renounceOwnership()":"715018a6","reporterCount()":"850e3c48","reporterStakes(address)":"1628de68","reporterSubmissions(address)":"514454fb","setMinRoundInterval(uint256)":"dc044784","slashedFundsPool()":"db445670","stake()":"3a4b66f1","submitPrice(uint256)":"986fcbe9","transferOwnership(address)":"f2fde38b","unstake(uint256)":"2e17de78","version()":"54fd4d50"}}}}}