{"contracts/SimpleOracle.sol":{"SimpleOracle":{"abi":[{"inputs":[],"stateMutability":"nonpayable","type":"constructor"},{"inputs":[],"name":"AlreadySubmitted","type":"error"},{"inputs":[],"name":"NoPrice","type":"error"},{"inputs":[],"name":"NotAuthorizedReporter","type":"error"},{"inputs":[{"internalType":"address","name":"owner","type":"address"}],"name":"OwnableInvalidOwner","type":"error"},{"inputs":[{"internalType":"address","name":"account","type":"address"}],"name":"OwnableUnauthorizedAccount","type":"error"},{"inputs":[],"name":"PriceDeviationTooHigh","type":"error"},{"inputs":[],"name":"StalePrice","type":"error"},{"anonymous":false,"inputs":[{"indexed":true,"internalType":"address","name":"previousOwner","type":"address"},{"indexed":true,"internalType":"address","name":"newOwner","type":"address"}],"name":"OwnershipTransferred","type":"event"},{"anonymous":false,"inputs":[{"indexed":true,"internalType":"uint256","name":"roundId","type":"uint256"},{"indexed":true,"internalType":"address","name":"reporter","type":"address"},{"indexed":false,"internalType":"uint256","name":"price","type":"uint256"}],"name":"PriceSubmitted","type":"event"},{"anonymous":false,"inputs":[{"indexed":true,"internalType":"uint256","name":"roundId","type":"uint256"},{"indexed":false,"internalType":"uint256","name":"price","type":"uint256"},{"indexed":false,"internalType":"uint256","name":"timestamp","type":"uint256"}],"name":"PriceUpdated","type":"event"},{"anonymous":false,"inputs":[{"indexed":true,"internalType":"address","name":"reporter","type":"address"}],"name":"ReporterAdded","type":"event"},{"anonymous":false,"inputs":[{"indexed":true,"internalType":"address","name":"reporter","type":"address"}],"name":"ReporterRemoved","type":"event"},{"inputs":[],"name":"DECIMALS","outputs":[{"internalType":"uint256","name":"","type":"uint256"}],"stateMutability":"view","type":"function"},{"inputs":[],"name":"MIN_REPORTERS","outputs":[{"internalType":"uint256","name":"","type":"uint256"}],"stateMutability":"view","type":"function"},{"inputs":[],"name":"STALENESS_THRESHOLD","outputs":[{"internalType":"uint256","name":"","type":"uint256"}],"stateMutability":"view","type":"function"},{"inputs":[{"internalType":"address","name":"reporter","type":"address"}],"name":"addReporter","outputs":[],"stateMutability":"nonpayable","type":"function"},{"inputs":[{"internalType":"address","name":"","type":"address"}],"name":"authorizedReporters","outputs":[{"internalType":"bool","name":"","type":"bool"}],"stateMutability":"view","type":"function"},{"inputs":[],"name":"currentRoundId","outputs":[{"internalType":"uint256","name":"","type":"uint256"}],"stateMutability":"view","type":"function"},{"inputs":[],"name":"forceAdvanceRound","outputs":[],"stateMutability":"nonpayable","type":"function"},{"inputs":[],"name":"getCurrentRoundSubmissions","outputs":[{"internalType":"uint256","name":"","type":"uint256"}],"stateMutability":"view","type":"function"},{"inputs":[],"name":"getLatestPrice","outputs":[{"internalType":"uint256","name":"price","type":"uint256"},{"internalType":"uint256","name":"timestamp","type":"uint256"}],"stateMutability":"view","type":"function"},{"inputs":[],"name":"getLatestPriceUnsafe","outputs":[{"internalType":"uint256","name":"price","type":"uint256"},{"internalType":"uint256","name":"timestamp","type":"uint256"},{"internalType":"uint256","name":"reporters","type":"uint256"}],"stateMutability":"view","type":"function"},{"inputs":[{"internalType":"address","name":"reporter","type":"address"}],"name":"hasSubmitted","outputs":[{"internalType":"bool","name":"","type":"bool"}],"stateMutability":"view","type":"function"},{"inputs":[],"name":"latestRound","outputs":[{"internalType":"uint256","name":"price","type":"uint256"},{"internalType":"uint256","name":"timestamp","type":"uint256"},{"internalType":"uint256","name":"reporterCount","type":"uint256"}],"stateMutability":"view","type":"function"},{"inputs":[],"name":"owner","outputs":[{"internalType":"address","name":"","type":"address"}],"stateMutability":"view","type":"function"},{"inputs":[{"internalType":"address","name":"reporter","type":"address"}],"name":"removeReporter","outputs":[],"stateMutability":"nonpayable","type":"function"},{"inputs":[],"name":"renounceOwnership","outputs":[],"stateMutability":"nonpayable","type":"function"},{"inputs":[],"name":"reporterCount","outputs":[{"internalType":"uint256","name":"","type":"uint256"}],"stateMutability":"view","type":"function"},{"inputs":[{"internalType":"uint256","name":"price","type":"uint256"}],"name":"submitPrice","outputs":[],"stateMutability":"nonpayable","type":"function"},{"inputs":[{"internalType":"address","name":"newOwner","type":"address"}],"name":"transferOwnership","outputs":[],"stateMutability":"nonpayable","type":"function"}],"evm":{"bytecode":{"linkReferences":{},"object":"6080604052348015600e575f5ffd5b503380603357604051631e4fbdf760e01b81525f600482015260240160405180910390fd5b603a81603f565b50608e565b5f80546001600160a01b038381166001600160a01b0319831681178455604051919092169283917f8be0079c531659141344cd1fd0a4f28419497f9722a3daafe3b4186f6b6457e09190a35050565b6109ed8061009b5f395ff3fe608060405234801561000f575f5ffd5b5060043610610111575f3560e01c8063867df1561161009e578063999ad67d1161006e578063999ad67d146102575780639cbe5efd1461025f578063dd8755f214610268578063f2fde38b1461027b578063fe9bd8cc1461028e575f5ffd5b8063867df156146101ff5780638da5cb5b1461020d5780638e15f47314610227578063986fcbe914610244575f5ffd5b806361dc8ecb116100e457806361dc8ecb146101b0578063668a0f02146101b8578063715018a6146101e55780637215b0bf146101ed578063850e3c48146101f6575f5ffd5b80632e0f262514610115578063388044b3146101305780633a41429a146101795780635de5c2121461019b575b5f5ffd5b61011d600881565b6040519081526020015b60405180910390f35b61016961013e3660046108cf565b6006545f9081526007602090815260408083206001600160a01b039094168352929052205460ff1690565b6040519015158152602001610127565b6101696101873660046108cf565b60016020525f908152604090205460ff1681565b6101ae6101a93660046108cf565b610296565b005b6101ae610327565b6003546004546005546101ca92919083565b60408051938452602084019290925290820152606001610127565b6101ae610357565b61011d610e1081565b61011d60025481565b6003546004546005546101ca565b5f546040516001600160a01b039091168152602001610127565b61022f610368565b60408051928352602083019190915201610127565b6101ae6102523660046108fc565b6103cb565b61011d600381565b61011d60065481565b6101ae6102763660046108cf565b610554565b6101ae6102893660046108cf565b6105e8565b60085461011d565b61029e610627565b6001600160a01b0381165f9081526001602052604090205460ff1615610324576001600160a01b0381165f908152600160205260408120805460ff1916905560028054916102eb83610927565b90915550506040516001600160a01b038216907ff125aa5e6cb22c17ea0de4e1f86d2ff289ddd6a37e791b9ad29d0091cba06ac8905f90a25b50565b61032f610627565b60068054905f61033e8361093c565b90915550505f6008819055610355906009906108a1565b565b61035f610627565b6103555f610653565b5f5f6003600101545f0361038f5760405163c149905d60e01b815260040160405180910390fd5b600454610e10906103a09042610954565b11156103bf57604051630cd5fa0760e11b815260040160405180910390fd5b50506003546004549091565b335f9081526001602052604090205460ff166103fa57604051631c833d8160e21b815260040160405180910390fd5b6006545f90815260076020908152604080832033845290915290205460ff161561043757604051639fbfc58960e01b815260040160405180910390fd5b6004541561049d576003545f818311610459576104548383610954565b610463565b6104638284610954565b905061047082603261096d565b61047b82606461096d565b111561049a576040516369e2517960e11b815260040160405180910390fd5b50505b6006545f9081526007602090815260408083203384529091528120805460ff1916600190811790915560098054918201815582527f6e1540171b6c0c960b71a7020d9f60077f6af931a8bbf590da0223dacf75c7af0182905560088054916105048361093c565b90915550506006546040518281523391907f2655941ef0e01e05d55a873609115593db7df65cd101451b9f7e89ede1613ec99060200160405180910390a3600360085410610324576103246106a2565b61055c610627565b6001600160a01b0381165f9081526001602052604090205460ff16610324576001600160a01b0381165f9081526001602081905260408220805460ff1916909117905560028054916105ad8361093c565b90915550506040516001600160a01b038216907f52824c4a4d431c73d6d24a91f775d722860111c6d30da30b0b21e062fb4c7365905f90a250565b6105f0610627565b6001600160a01b03811661061e57604051631e4fbdf760e01b81525f60048201526024015b60405180910390fd5b61032481610653565b5f546001600160a01b031633146103555760405163118cdaa760e01b8152336004820152602401610615565b5f80546001600160a01b038381166001600160a01b0319831681178455604051919092169283917f8be0079c531659141344cd1fd0a4f28419497f9722a3daafe3b4186f6b6457e09190a35050565b5f60098054806020026020016040519081016040528092919081815260200182805480156106ed57602002820191905f5260205f20905b8154815260200190600101908083116106d9575b505050505090506106fd816107c2565b5f816002835161070d9190610984565b8151811061071d5761071d6109a3565b6020908102919091018101516040805160608101825282815242938101849052600854908201819052600383905560048490556005556006549051919350917f15819dd2fd9f6418b142e798d08a18d0bf06ea368f4480b7b0d3f75bd966bc489161079091858252602082015260400190565b60405180910390a260068054905f6107a78361093c565b90915550505f60088190556107be906009906108a1565b5050565b60015b81518110156107be575f8282815181106107e1576107e16109a3565b602002602001015190505f8290505b5f8111801561082157508184610807600184610954565b81518110610817576108176109a3565b6020026020010151115b156108795783610832600183610954565b81518110610842576108426109a3565b602002602001015184828151811061085c5761085c6109a3565b60209081029190910101528061087181610927565b9150506107f0565b8184828151811061088c5761088c6109a3565b602090810291909101015250506001016107c5565b5080545f8255905f5260205f209081019061032491905b808211156108cb575f81556001016108b8565b5090565b5f602082840312156108df575f5ffd5b81356001600160a01b03811681146108f5575f5ffd5b9392505050565b5f6020828403121561090c575f5ffd5b5035919050565b634e487b7160e01b5f52601160045260245ffd5b5f8161093557610935610913565b505f190190565b5f6001820161094d5761094d610913565b5060010190565b8181038181111561096757610967610913565b92915050565b808202811582820484141761096757610967610913565b5f8261099e57634e487b7160e01b5f52601260045260245ffd5b500490565b634e487b7160e01b5f52603260045260245ffdfea2646970667358221220f9f0f3aeb1d71313435338359499dfad6c95bec9cd48ea1b2479f253ae35c4c164736f6c634300081c0033","opcodes":"PUSH1 0x80 PUSH1 0x40 MSTORE CALLVALUE DUP1 ISZERO PUSH1 0xE JUMPI PUSH0 PUSH0 REVERT JUMPDEST POP CALLER DUP1 PUSH1 0x33 JUMPI PUSH1 0x40 MLOAD PUSH4 0x1E4FBDF7 PUSH1 0xE0 SHL DUP2 MSTORE PUSH0 PUSH1 0x4 DUP3 ADD MSTORE PUSH1 0x24 ADD PUSH1 0x40 MLOAD DUP1 SWAP2 SUB SWAP1 REVERT JUMPDEST PUSH1 0x3A DUP2 PUSH1 0x3F JUMP JUMPDEST POP PUSH1 0x8E JUMP JUMPDEST PUSH0 DUP1 SLOAD PUSH1 0x1 PUSH1 0x1 PUSH1 0xA0 SHL SUB DUP4 DUP2 AND PUSH1 0x1 PUSH1 0x1 PUSH1 0xA0 SHL SUB NOT DUP4 AND DUP2 OR DUP5 SSTORE PUSH1 0x40 MLOAD SWAP2 SWAP1 SWAP3 AND SWAP3 DUP4 SWAP2 PUSH32 0x8BE0079C531659141344CD1FD0A4F28419497F9722A3DAAFE3B4186F6B6457E0 SWAP2 SWAP1 LOG3 POP POP JUMP JUMPDEST PUSH2 0x9ED DUP1 PUSH2 0x9B PUSH0 CODECOPY PUSH0 RETURN INVALID PUSH1 0x80 PUSH1 0x40 MSTORE CALLVALUE DUP1 ISZERO PUSH2 0xF JUMPI PUSH0 PUSH0 REVERT JUMPDEST POP PUSH1 0x4 CALLDATASIZE LT PUSH2 0x111 JUMPI PUSH0 CALLDATALOAD PUSH1 0xE0 SHR DUP1 PUSH4 0x867DF156 GT PUSH2 0x9E JUMPI DUP1 PUSH4 0x999AD67D GT PUSH2 0x6E JUMPI DUP1 PUSH4 0x999AD67D EQ PUSH2 0x257 JUMPI DUP1 PUSH4 0x9CBE5EFD EQ PUSH2 0x25F JUMPI DUP1 PUSH4 0xDD8755F2 EQ PUSH2 0x268 JUMPI DUP1 PUSH4 0xF2FDE38B EQ PUSH2 0x27B JUMPI DUP1 PUSH4 0xFE9BD8CC EQ PUSH2 0x28E JUMPI PUSH0 PUSH0 REVERT JUMPDEST DUP1 PUSH4 0x867DF156 EQ PUSH2 0x1FF JUMPI DUP1 PUSH4 0x8DA5CB5B EQ PUSH2 0x20D JUMPI DUP1 PUSH4 0x8E15F473 EQ PUSH2 0x227 JUMPI DUP1 PUSH4 0x986FCBE9 EQ PUSH2 0x244 JUMPI PUSH0 PUSH0 REVERT JUMPDEST DUP1 PUSH4 0x61DC8ECB GT PUSH2 0xE4 JUMPI DUP1 PUSH4 0x61DC8ECB EQ PUSH2 0x1B0 JUMPI DUP1 PUSH4 0x668A0F02 EQ PUSH2 0x1B8 JUMPI DUP1 PUSH4 0x715018A6 EQ PUSH2 0x1E5 JUMPI DUP1 PUSH4 0x7215B0BF EQ PUSH2 0x1ED JUMPI DUP1 PUSH4 0x850E3C48 EQ PUSH2 0x1F6 JUMPI PUSH0 PUSH0 REVERT JUMPDEST DUP1 PUSH4 0x2E0F2625 EQ PUSH2 0x115 JUMPI DUP1 PUSH4 0x388044B3 EQ PUSH2 0x130 JUMPI DUP1 PUSH4 0x3A41429A EQ PUSH2 0x179 JUMPI DUP1 PUSH4 0x5DE5C212 EQ PUSH2 0x19B JUMPI JUMPDEST PUSH0 PUSH0 REVERT JUMPDEST PUSH2 0x11D PUSH1 0x8 DUP2 JUMP JUMPDEST PUSH1 0x40 MLOAD SWAP1 DUP2 MSTORE PUSH1 0x20 ADD JUMPDEST PUSH1 0x40 MLOAD DUP1 SWAP2 SUB SWAP1 RETURN JUMPDEST PUSH2 0x169 PUSH2 0x13E CALLDATASIZE PUSH1 0x4 PUSH2 0x8CF JUMP JUMPDEST PUSH1 0x6 SLOAD PUSH0 SWAP1 DUP2 MSTORE PUSH1 0x7 PUSH1 0x20 SWAP1 DUP2 MSTORE PUSH1 0x40 DUP1 DUP4 KECCAK256 PUSH1 0x1 PUSH1 0x1 PUSH1 0xA0 SHL SUB SWAP1 SWAP5 AND DUP4 MSTORE SWAP3 SWAP1 MSTORE KECCAK256 SLOAD PUSH1 0xFF AND SWAP1 JUMP JUMPDEST PUSH1 0x40 MLOAD SWAP1 ISZERO ISZERO DUP2 MSTORE PUSH1 0x20 ADD PUSH2 0x127 JUMP JUMPDEST PUSH2 0x169 PUSH2 0x187 CALLDATASIZE PUSH1 0x4 PUSH2 0x8CF JUMP JUMPDEST PUSH1 0x1 PUSH1 0x20 MSTORE PUSH0 SWAP1 DUP2 MSTORE PUSH1 0x40 SWAP1 KECCAK256 SLOAD PUSH1 0xFF AND DUP2 JUMP JUMPDEST PUSH2 0x1AE PUSH2 0x1A9 CALLDATASIZE PUSH1 0x4 PUSH2 0x8CF JUMP JUMPDEST PUSH2 0x296 JUMP JUMPDEST STOP JUMPDEST PUSH2 0x1AE PUSH2 0x327 JUMP JUMPDEST PUSH1 0x3 SLOAD PUSH1 0x4 SLOAD PUSH1 0x5 SLOAD PUSH2 0x1CA SWAP3 SWAP2 SWAP1 DUP4 JUMP JUMPDEST PUSH1 0x40 DUP1 MLOAD SWAP4 DUP5 MSTORE PUSH1 0x20 DUP5 ADD SWAP3 SWAP1 SWAP3 MSTORE SWAP1 DUP3 ADD MSTORE PUSH1 0x60 ADD PUSH2 0x127 JUMP JUMPDEST PUSH2 0x1AE PUSH2 0x357 JUMP JUMPDEST PUSH2 0x11D PUSH2 0xE10 DUP2 JUMP JUMPDEST PUSH2 0x11D PUSH1 0x2 SLOAD DUP2 JUMP JUMPDEST PUSH1 0x3 SLOAD PUSH1 0x4 SLOAD PUSH1 0x5 SLOAD PUSH2 0x1CA JUMP JUMPDEST PUSH0 SLOAD PUSH1 0x40 MLOAD PUSH1 0x1 PUSH1 0x1 PUSH1 0xA0 SHL SUB SWAP1 SWAP2 AND DUP2 MSTORE PUSH1 0x20 ADD PUSH2 0x127 JUMP JUMPDEST PUSH2 0x22F PUSH2 0x368 JUMP JUMPDEST PUSH1 0x40 DUP1 MLOAD SWAP3 DUP4 MSTORE PUSH1 0x20 DUP4 ADD SWAP2 SWAP1 SWAP2 MSTORE ADD PUSH2 0x127 JUMP JUMPDEST PUSH2 0x1AE PUSH2 0x252 CALLDATASIZE PUSH1 0x4 PUSH2 0x8FC JUMP JUMPDEST PUSH2 0x3CB JUMP JUMPDEST PUSH2 0x11D PUSH1 0x3 DUP2 JUMP JUMPDEST PUSH2 0x11D PUSH1 0x6 SLOAD DUP2 JUMP JUMPDEST PUSH2 0x1AE PUSH2 0x276 CALLDATASIZE PUSH1 0x4 PUSH2 0x8CF JUMP JUMPDEST PUSH2 0x554 JUMP JUMPDEST PUSH2 0x1AE PUSH2 0x289 CALLDATASIZE PUSH1 0x4 PUSH2 0x8CF JUMP JUMPDEST PUSH2 0x5E8 JUMP JUMPDEST PUSH1 0x8 SLOAD PUSH2 0x11D JUMP JUMPDEST PUSH2 0x29E PUSH2 0x627 JUMP JUMPDEST PUSH1 0x1 PUSH1 0x1 PUSH1 0xA0 SHL SUB DUP2 AND PUSH0 SWAP1 DUP2 MSTORE PUSH1 0x1 PUSH1 0x20 MSTORE PUSH1 0x40 SWAP1 KECCAK256 SLOAD PUSH1 0xFF AND ISZERO PUSH2 0x324 JUMPI PUSH1 0x1 PUSH1 0x1 PUSH1 0xA0 SHL SUB DUP2 AND PUSH0 SWAP1 DUP2 MSTORE PUSH1 0x1 PUSH1 0x20 MSTORE PUSH1 0x40 DUP2 KECCAK256 DUP1 SLOAD PUSH1 0xFF NOT AND SWAP1 SSTORE PUSH1 0x2 DUP1 SLOAD SWAP2 PUSH2 0x2EB DUP4 PUSH2 0x927 JUMP JUMPDEST SWAP1 SWAP2 SSTORE POP POP PUSH1 0x40 MLOAD PUSH1 0x1 PUSH1 0x1 PUSH1 0xA0 SHL SUB DUP3 AND SWAP1 PUSH32 0xF125AA5E6CB22C17EA0DE4E1F86D2FF289DDD6A37E791B9AD29D0091CBA06AC8 SWAP1 PUSH0 SWAP1 LOG2 JUMPDEST POP JUMP JUMPDEST PUSH2 0x32F PUSH2 0x627 JUMP JUMPDEST PUSH1 0x6 DUP1 SLOAD SWAP1 PUSH0 PUSH2 0x33E DUP4 PUSH2 0x93C JUMP JUMPDEST SWAP1 SWAP2 SSTORE POP POP PUSH0 PUSH1 0x8 DUP2 SWAP1 SSTORE PUSH2 0x355 SWAP1 PUSH1 0x9 SWAP1 PUSH2 0x8A1 JUMP JUMPDEST JUMP JUMPDEST PUSH2 0x35F PUSH2 0x627 JUMP JUMPDEST PUSH2 0x355 PUSH0 PUSH2 0x653 JUMP JUMPDEST PUSH0 PUSH0 PUSH1 0x3 PUSH1 0x1 ADD SLOAD PUSH0 SUB PUSH2 0x38F JUMPI PUSH1 0x40 MLOAD PUSH4 0xC149905D PUSH1 0xE0 SHL DUP2 MSTORE PUSH1 0x4 ADD PUSH1 0x40 MLOAD DUP1 SWAP2 SUB SWAP1 REVERT JUMPDEST PUSH1 0x4 SLOAD PUSH2 0xE10 SWAP1 PUSH2 0x3A0 SWAP1 TIMESTAMP PUSH2 0x954 JUMP JUMPDEST GT ISZERO PUSH2 0x3BF JUMPI PUSH1 0x40 MLOAD PUSH4 0xCD5FA07 PUSH1 0xE1 SHL DUP2 MSTORE PUSH1 0x4 ADD PUSH1 0x40 MLOAD DUP1 SWAP2 SUB SWAP1 REVERT JUMPDEST POP POP PUSH1 0x3 SLOAD PUSH1 0x4 SLOAD SWAP1 SWAP2 JUMP JUMPDEST CALLER PUSH0 SWAP1 DUP2 MSTORE PUSH1 0x1 PUSH1 0x20 MSTORE PUSH1 0x40 SWAP1 KECCAK256 SLOAD PUSH1 0xFF AND PUSH2 0x3FA JUMPI PUSH1 0x40 MLOAD PUSH4 0x1C833D81 PUSH1 0xE2 SHL DUP2 MSTORE PUSH1 0x4 ADD PUSH1 0x40 MLOAD DUP1 SWAP2 SUB SWAP1 REVERT JUMPDEST PUSH1 0x6 SLOAD PUSH0 SWAP1 DUP2 MSTORE PUSH1 0x7 PUSH1 0x20 SWAP1 DUP2 MSTORE PUSH1 0x40 DUP1 DUP4 KECCAK256 CALLER DUP5 MSTORE SWAP1 SWAP2 MSTORE SWAP1 KECCAK256 SLOAD PUSH1 0xFF AND ISZERO PUSH2 0x437 JUMPI PUSH1 0x40 MLOAD PUSH4 0x9FBFC589 PUSH1 0xE0 SHL DUP2 MSTORE PUSH1 0x4 ADD PUSH1 0x40 MLOAD DUP1 SWAP2 SUB SWAP1 REVERT JUMPDEST PUSH1 0x4 SLOAD ISZERO PUSH2 0x49D JUMPI PUSH1 0x3 SLOAD PUSH0 DUP2 DUP4 GT PUSH2 0x459 JUMPI PUSH2 0x454 DUP4 DUP4 PUSH2 0x954 JUMP JUMPDEST PUSH2 0x463 JUMP JUMPDEST PUSH2 0x463 DUP3 DUP5 PUSH2 0x954 JUMP JUMPDEST SWAP1 POP PUSH2 0x470 DUP3 PUSH1 0x32 PUSH2 0x96D JUMP JUMPDEST PUSH2 0x47B DUP3 PUSH1 0x64 PUSH2 0x96D JUMP JUMPDEST GT ISZERO PUSH2 0x49A JUMPI PUSH1 0x40 MLOAD PUSH4 0x69E25179 PUSH1 0xE1 SHL DUP2 MSTORE PUSH1 0x4 ADD PUSH1 0x40 MLOAD DUP1 SWAP2 SUB SWAP1 REVERT JUMPDEST POP POP JUMPDEST PUSH1 0x6 SLOAD PUSH0 SWAP1 DUP2 MSTORE PUSH1 0x7 PUSH1 0x20 SWAP1 DUP2 MSTORE PUSH1 0x40 DUP1 DUP4 KECCAK256 CALLER DUP5 MSTORE SWAP1 SWAP2 MSTORE DUP2 KECCAK256 DUP1 SLOAD PUSH1 0xFF NOT AND PUSH1 0x1 SWAP1 DUP2 OR SWAP1 SWAP2 SSTORE PUSH1 0x9 DUP1 SLOAD SWAP2 DUP3 ADD DUP2 SSTORE DUP3 MSTORE PUSH32 0x6E1540171B6C0C960B71A7020D9F60077F6AF931A8BBF590DA0223DACF75C7AF ADD DUP3 SWAP1 SSTORE PUSH1 0x8 DUP1 SLOAD SWAP2 PUSH2 0x504 DUP4 PUSH2 0x93C JUMP JUMPDEST SWAP1 SWAP2 SSTORE POP POP PUSH1 0x6 SLOAD PUSH1 0x40 MLOAD DUP3 DUP2 MSTORE CALLER SWAP2 SWAP1 PUSH32 0x2655941EF0E01E05D55A873609115593DB7DF65CD101451B9F7E89EDE1613EC9 SWAP1 PUSH1 0x20 ADD PUSH1 0x40 MLOAD DUP1 SWAP2 SUB SWAP1 LOG3 PUSH1 0x3 PUSH1 0x8 SLOAD LT PUSH2 0x324 JUMPI PUSH2 0x324 PUSH2 0x6A2 JUMP JUMPDEST PUSH2 0x55C PUSH2 0x627 JUMP JUMPDEST PUSH1 0x1 PUSH1 0x1 PUSH1 0xA0 SHL SUB DUP2 AND PUSH0 SWAP1 DUP2 MSTORE PUSH1 0x1 PUSH1 0x20 MSTORE PUSH1 0x40 SWAP1 KECCAK256 SLOAD PUSH1 0xFF AND PUSH2 0x324 JUMPI PUSH1 0x1 PUSH1 0x1 PUSH1 0xA0 SHL SUB DUP2 AND PUSH0 SWAP1 DUP2 MSTORE PUSH1 0x1 PUSH1 0x20 DUP2 SWAP1 MSTORE PUSH1 0x40 DUP3 KECCAK256 DUP1 SLOAD PUSH1 0xFF NOT AND SWAP1 SWAP2 OR SWAP1 SSTORE PUSH1 0x2 DUP1 SLOAD SWAP2 PUSH2 0x5AD DUP4 PUSH2 0x93C JUMP JUMPDEST SWAP1 SWAP2 SSTORE POP POP PUSH1 0x40 MLOAD PUSH1 0x1 PUSH1 0x1 PUSH1 0xA0 SHL SUB DUP3 AND SWAP1 PUSH32 0x52824C4A4D431C73D6D24A91F775D722860111C6D30DA30B0B21E062FB4C7365 SWAP1 PUSH0 SWAP1 LOG2 POP JUMP JUMPDEST PUSH2 0x5F0 PUSH2 0x627 JUMP JUMPDEST PUSH1 0x1 PUSH1 0x1 PUSH1 0xA0 SHL SUB DUP2 AND PUSH2 0x61E JUMPI PUSH1 0x40 MLOAD PUSH4 0x1E4FBDF7 PUSH1 0xE0 SHL DUP2 MSTORE PUSH0 PUSH1 0x4 DUP3 ADD MSTORE PUSH1 0x24 ADD JUMPDEST PUSH1 0x40 MLOAD DUP1 SWAP2 SUB SWAP1 REVERT JUMPDEST PUSH2 0x324 DUP2 PUSH2 0x653 JUMP JUMPDEST PUSH0 SLOAD PUSH1 0x1 PUSH1 0x1 PUSH1 0xA0 SHL SUB AND CALLER EQ PUSH2 0x355 JUMPI PUSH1 0x40 MLOAD PUSH4 0x118CDAA7 PUSH1 0xE0 SHL DUP2 MSTORE CALLER PUSH1 0x4 DUP3 ADD MSTORE PUSH1 0x24 ADD PUSH2 0x615 JUMP JUMPDEST PUSH0 DUP1 SLOAD PUSH1 0x1 PUSH1 0x1 PUSH1 0xA0 SHL SUB DUP4 DUP2 AND PUSH1 0x1 PUSH1 0x1 PUSH1 0xA0 SHL SUB NOT DUP4 AND DUP2 OR DUP5 SSTORE PUSH1 0x40 MLOAD SWAP2 SWAP1 SWAP3 AND SWAP3 DUP4 SWAP2 PUSH32 0x8BE0079C531659141344CD1FD0A4F28419497F9722A3DAAFE3B4186F6B6457E0 SWAP2 SWAP1 LOG3 POP POP JUMP JUMPDEST PUSH0 PUSH1 0x9 DUP1 SLOAD DUP1 PUSH1 0x20 MUL PUSH1 0x20 ADD PUSH1 0x40 MLOAD SWAP1 DUP2 ADD PUSH1 0x40 MSTORE DUP1 SWAP3 SWAP2 SWAP1 DUP2 DUP2 MSTORE PUSH1 0x20 ADD DUP3 DUP1 SLOAD DUP1 ISZERO PUSH2 0x6ED JUMPI PUSH1 0x20 MUL DUP3 ADD SWAP2 SWAP1 PUSH0 MSTORE PUSH1 0x20 PUSH0 KECCAK256 SWAP1 JUMPDEST DUP2 SLOAD DUP2 MSTORE PUSH1 0x20 ADD SWAP1 PUSH1 0x1 ADD SWAP1 DUP1 DUP4 GT PUSH2 0x6D9 JUMPI JUMPDEST POP POP POP POP POP SWAP1 POP PUSH2 0x6FD DUP2 PUSH2 0x7C2 JUMP JUMPDEST PUSH0 DUP2 PUSH1 0x2 DUP4 MLOAD PUSH2 0x70D SWAP2 SWAP1 PUSH2 0x984 JUMP JUMPDEST DUP2 MLOAD DUP2 LT PUSH2 0x71D JUMPI PUSH2 0x71D PUSH2 0x9A3 JUMP JUMPDEST PUSH1 0x20 SWAP1 DUP2 MUL SWAP2 SWAP1 SWAP2 ADD DUP2 ADD MLOAD PUSH1 0x40 DUP1 MLOAD PUSH1 0x60 DUP2 ADD DUP3 MSTORE DUP3 DUP2 MSTORE TIMESTAMP SWAP4 DUP2 ADD DUP5 SWAP1 MSTORE PUSH1 0x8 SLOAD SWAP1 DUP3 ADD DUP2 SWAP1 MSTORE PUSH1 0x3 DUP4 SWAP1 SSTORE PUSH1 0x4 DUP5 SWAP1 SSTORE PUSH1 0x5 SSTORE PUSH1 0x6 SLOAD SWAP1 MLOAD SWAP2 SWAP4 POP SWAP2 PUSH32 0x15819DD2FD9F6418B142E798D08A18D0BF06EA368F4480B7B0D3F75BD966BC48 SWAP2 PUSH2 0x790 SWAP2 DUP6 DUP3 MSTORE PUSH1 0x20 DUP3 ADD MSTORE PUSH1 0x40 ADD SWAP1 JUMP JUMPDEST PUSH1 0x40 MLOAD DUP1 SWAP2 SUB SWAP1 LOG2 PUSH1 0x6 DUP1 SLOAD SWAP1 PUSH0 PUSH2 0x7A7 DUP4 PUSH2 0x93C JUMP JUMPDEST SWAP1 SWAP2 SSTORE POP POP PUSH0 PUSH1 0x8 DUP2 SWAP1 SSTORE PUSH2 0x7BE SWAP1 PUSH1 0x9 SWAP1 PUSH2 0x8A1 JUMP JUMPDEST POP POP JUMP JUMPDEST PUSH1 0x1 JUMPDEST DUP2 MLOAD DUP2 LT ISZERO PUSH2 0x7BE JUMPI PUSH0 DUP3 DUP3 DUP2 MLOAD DUP2 LT PUSH2 0x7E1 JUMPI PUSH2 0x7E1 PUSH2 0x9A3 JUMP JUMPDEST PUSH1 0x20 MUL PUSH1 0x20 ADD ADD MLOAD SWAP1 POP PUSH0 DUP3 SWAP1 POP JUMPDEST PUSH0 DUP2 GT DUP1 ISZERO PUSH2 0x821 JUMPI POP DUP2 DUP5 PUSH2 0x807 PUSH1 0x1 DUP5 PUSH2 0x954 JUMP JUMPDEST DUP2 MLOAD DUP2 LT PUSH2 0x817 JUMPI PUSH2 0x817 PUSH2 0x9A3 JUMP JUMPDEST PUSH1 0x20 MUL PUSH1 0x20 ADD ADD MLOAD GT JUMPDEST ISZERO PUSH2 0x879 JUMPI DUP4 PUSH2 0x832 PUSH1 0x1 DUP4 PUSH2 0x954 JUMP JUMPDEST DUP2 MLOAD DUP2 LT PUSH2 0x842 JUMPI PUSH2 0x842 PUSH2 0x9A3 JUMP JUMPDEST PUSH1 0x20 MUL PUSH1 0x20 ADD ADD MLOAD DUP5 DUP3 DUP2 MLOAD DUP2 LT PUSH2 0x85C JUMPI PUSH2 0x85C PUSH2 0x9A3 JUMP JUMPDEST PUSH1 0x20 SWAP1 DUP2 MUL SWAP2 SWAP1 SWAP2 ADD ADD MSTORE DUP1 PUSH2 0x871 DUP2 PUSH2 0x927 JUMP JUMPDEST SWAP2 POP POP PUSH2 0x7F0 JUMP JUMPDEST DUP2 DUP5 DUP3 DUP2 MLOAD DUP2 LT PUSH2 0x88C JUMPI PUSH2 0x88C PUSH2 0x9A3 JUMP JUMPDEST PUSH1 0x20 SWAP1 DUP2 MUL SWAP2 SWAP1 SWAP2 ADD ADD MSTORE POP POP PUSH1 0x1 ADD PUSH2 0x7C5 JUMP JUMPDEST POP DUP1 SLOAD PUSH0 DUP3 SSTORE SWAP1 PUSH0 MSTORE PUSH1 0x20 PUSH0 KECCAK256 SWAP1 DUP2 ADD SWAP1 PUSH2 0x324 SWAP2 SWAP1 JUMPDEST DUP1 DUP3 GT ISZERO PUSH2 0x8CB JUMPI PUSH0 DUP2 SSTORE PUSH1 0x1 ADD PUSH2 0x8B8 JUMP JUMPDEST POP SWAP1 JUMP JUMPDEST PUSH0 PUSH1 0x20 DUP3 DUP5 SUB SLT ISZERO PUSH2 0x8DF JUMPI PUSH0 PUSH0 REVERT JUMPDEST DUP2 CALLDATALOAD PUSH1 0x1 PUSH1 0x1 PUSH1 0xA0 SHL SUB DUP2 AND DUP2 EQ PUSH2 0x8F5 JUMPI PUSH0 PUSH0 REVERT JUMPDEST SWAP4 SWAP3 POP POP POP JUMP JUMPDEST PUSH0 PUSH1 0x20 DUP3 DUP5 SUB SLT ISZERO PUSH2 0x90C JUMPI PUSH0 PUSH0 REVERT JUMPDEST POP CALLDATALOAD SWAP2 SWAP1 POP JUMP JUMPDEST PUSH4 0x4E487B71 PUSH1 0xE0 SHL PUSH0 MSTORE PUSH1 0x11 PUSH1 0x4 MSTORE PUSH1 0x24 PUSH0 REVERT JUMPDEST PUSH0 DUP2 PUSH2 0x935 JUMPI PUSH2 0x935 PUSH2 0x913 JUMP JUMPDEST POP PUSH0 NOT ADD SWAP1 JUMP JUMPDEST PUSH0 PUSH1 0x1 DUP3 ADD PUSH2 0x94D JUMPI PUSH2 0x94D PUSH2 0x913 JUMP JUMPDEST POP PUSH1 0x1 ADD SWAP1 JUMP JUMPDEST DUP2 DUP2 SUB DUP2 DUP2 GT ISZERO PUSH2 0x967 JUMPI PUSH2 0x967 PUSH2 0x913 JUMP JUMPDEST SWAP3 SWAP2 POP POP JUMP JUMPDEST DUP1 DUP3 MUL DUP2 ISZERO DUP3 DUP3 DIV DUP5 EQ OR PUSH2 0x967 JUMPI PUSH2 0x967 PUSH2 0x913 JUMP JUMPDEST PUSH0 DUP3 PUSH2 0x99E JUMPI PUSH4 0x4E487B71 PUSH1 0xE0 SHL PUSH0 MSTORE PUSH1 0x12 PUSH1 0x4 MSTORE PUSH1 0x24 PUSH0 REVERT JUMPDEST POP DIV SWAP1 JUMP JUMPDEST PUSH4 0x4E487B71 PUSH1 0xE0 SHL PUSH0 MSTORE PUSH1 0x32 PUSH1 0x4 MSTORE PUSH1 0x24 PUSH0 REVERT INVALID LOG2 PUSH5 0x6970667358 0x22 SLT KECCAK256 0xF9 CREATE RETURN 0xAE 0xB1 0xD7 SGT SGT NUMBER MSTORE8 CODESIZE CALLDATALOAD SWAP5 SWAP10 0xDF 0xAD PUSH13 0x95BEC9CD48EA1B2479F253AE35 0xC4 0xC1 PUSH5 0x736F6C6343 STOP ADDMOD SHR STOP CALLER "},"methodIdentifiers":{"DECIMALS()":"2e0f2625","MIN_REPORTERS()":"999ad67d","STALENESS_THRESHOLD()":"7215b0bf","addReporter(address)":"dd8755f2","authorizedReporters(address)":"3a41429a","currentRoundId()":"9cbe5efd","forceAdvanceRound()":"61dc8ecb","getCurrentRoundSubmissions()":"fe9bd8cc","getLatestPrice()":"8e15f473","getLatestPriceUnsafe()":"867df156","hasSubmitted(address)":"388044b3","latestRound()":"668a0f02","owner()":"8da5cb5b","removeReporter(address)":"5de5c212","renounceOwnership()":"715018a6","reporterCount()":"850e3c48","submitPrice(uint256)":"986fcbe9","transferOwnership(address)":"f2fde38b"}}}}}