{"contracts/NFTMarketplace.sol":{"NFTMarketplace":{"abi":[{"inputs":[],"stateMutability":"nonpayable","type":"constructor"},{"inputs":[],"name":"ArrayLengthMismatch","type":"error"},{"inputs":[],"name":"AuctionAlreadyEnded","type":"error"},{"inputs":[],"name":"AuctionExpired","type":"error"},{"inputs":[],"name":"AuctionHasBids","type":"error"},{"inputs":[],"name":"AuctionNotExpired","type":"error"},{"inputs":[],"name":"BatchTooLarge","type":"error"},{"inputs":[],"name":"BidBelowStartPrice","type":"error"},{"inputs":[],"name":"BidIncrementTooLow","type":"error"},{"inputs":[],"name":"BidTooLow","type":"error"},{"inputs":[],"name":"DutchAuctionEnded","type":"error"},{"inputs":[],"name":"EndPriceTooHigh","type":"error"},{"inputs":[],"name":"EnforcedPause","type":"error"},{"inputs":[],"name":"ExcessivePayment","type":"error"},{"inputs":[],"name":"ExpectedPause","type":"error"},{"inputs":[],"name":"FeeTooHigh","type":"error"},{"inputs":[],"name":"InsufficientPayment","type":"error"},{"inputs":[],"name":"InvalidDuration","type":"error"},{"inputs":[],"name":"ListingExpiredError","type":"error"},{"inputs":[],"name":"ListingNotActive","type":"error"},{"inputs":[],"name":"MarketplaceNotApproved","type":"error"},{"inputs":[],"name":"NotCounterparty","type":"error"},{"inputs":[],"name":"NotTheSeller","type":"error"},{"inputs":[],"name":"NotTokenOwner","type":"error"},{"inputs":[],"name":"NothingToWithdraw","type":"error"},{"inputs":[],"name":"OfferExpired","type":"error"},{"inputs":[],"name":"OfferNotActive","type":"error"},{"inputs":[],"name":"OracleNotSet","type":"error"},{"inputs":[{"internalType":"address","name":"owner","type":"address"}],"name":"OwnableInvalidOwner","type":"error"},{"inputs":[{"internalType":"address","name":"account","type":"address"}],"name":"OwnableUnauthorizedAccount","type":"error"},{"inputs":[],"name":"PriceZero","type":"error"},{"inputs":[],"name":"ReentrancyGuardReentrantCall","type":"error"},{"inputs":[],"name":"SellerCannotBid","type":"error"},{"inputs":[],"name":"SellerCannotBuy","type":"error"},{"inputs":[],"name":"SwapExpired","type":"error"},{"inputs":[],"name":"SwapNotActive","type":"error"},{"inputs":[],"name":"TransferFailed","type":"error"},{"anonymous":false,"inputs":[{"indexed":true,"internalType":"uint256","name":"auctionId","type":"uint256"}],"name":"AuctionCancelled","type":"event"},{"anonymous":false,"inputs":[{"indexed":true,"internalType":"uint256","name":"auctionId","type":"uint256"},{"indexed":true,"internalType":"address","name":"seller","type":"address"},{"indexed":true,"internalType":"address","name":"nftContract","type":"address"},{"indexed":false,"internalType":"uint256","name":"tokenId","type":"uint256"},{"indexed":false,"internalType":"uint256","name":"startPrice","type":"uint256"},{"indexed":false,"internalType":"uint256","name":"endTime","type":"uint256"}],"name":"AuctionCreated","type":"event"},{"anonymous":false,"inputs":[{"indexed":true,"internalType":"uint256","name":"auctionId","type":"uint256"},{"indexed":true,"internalType":"address","name":"winner","type":"address"},{"indexed":false,"internalType":"uint256","name":"amount","type":"uint256"}],"name":"AuctionEnded","type":"event"},{"anonymous":false,"inputs":[{"indexed":true,"internalType":"uint256","name":"auctionId","type":"uint256"},{"indexed":false,"internalType":"uint256","name":"newEndTime","type":"uint256"}],"name":"AuctionExtended","type":"event"},{"anonymous":false,"inputs":[{"indexed":false,"internalType":"uint256[]","name":"listingIds","type":"uint256[]"},{"indexed":true,"internalType":"address","name":"seller","type":"address"}],"name":"BatchListed","type":"event"},{"anonymous":false,"inputs":[{"indexed":true,"internalType":"uint256","name":"auctionId","type":"uint256"},{"indexed":true,"internalType":"address","name":"bidder","type":"address"},{"indexed":false,"internalType":"uint256","name":"amount","type":"uint256"}],"name":"BidPlaced","type":"event"},{"anonymous":false,"inputs":[{"indexed":true,"internalType":"uint256","name":"auctionId","type":"uint256"}],"name":"DutchAuctionCancelled","type":"event"},{"anonymous":false,"inputs":[{"indexed":true,"internalType":"uint256","name":"auctionId","type":"uint256"},{"indexed":true,"internalType":"address","name":"seller","type":"address"},{"indexed":false,"internalType":"uint256","name":"startPriceUsdCents","type":"uint256"},{"indexed":false,"internalType":"uint256","name":"endPriceUsdCents","type":"uint256"},{"indexed":false,"internalType":"uint256","name":"endTime","type":"uint256"}],"name":"DutchAuctionCreated","type":"event"},{"anonymous":false,"inputs":[{"indexed":true,"internalType":"uint256","name":"auctionId","type":"uint256"},{"indexed":true,"internalType":"address","name":"buyer","type":"address"},{"indexed":false,"internalType":"uint256","name":"priceUsdCents","type":"uint256"},{"indexed":false,"internalType":"uint256","name":"paidWei","type":"uint256"}],"name":"DutchAuctionSold","type":"event"},{"anonymous":false,"inputs":[{"indexed":true,"internalType":"uint256","name":"listingId","type":"uint256"},{"indexed":true,"internalType":"address","name":"seller","type":"address"},{"indexed":true,"internalType":"address","name":"nftContract","type":"address"},{"indexed":false,"internalType":"uint256","name":"tokenId","type":"uint256"},{"indexed":false,"internalType":"uint256","name":"priceUsdCents","type":"uint256"},{"indexed":false,"internalType":"uint256","name":"expiration","type":"uint256"}],"name":"Listed","type":"event"},{"anonymous":false,"inputs":[{"indexed":true,"internalType":"uint256","name":"listingId","type":"uint256"}],"name":"ListingCancelled","type":"event"},{"anonymous":false,"inputs":[{"indexed":true,"internalType":"uint256","name":"listingId","type":"uint256"},{"indexed":false,"internalType":"uint256","name":"oldPrice","type":"uint256"},{"indexed":false,"internalType":"uint256","name":"newPrice","type":"uint256"}],"name":"ListingPriceUpdated","type":"event"},{"anonymous":false,"inputs":[{"indexed":true,"internalType":"uint256","name":"offerId","type":"uint256"},{"indexed":true,"internalType":"address","name":"seller","type":"address"}],"name":"OfferAccepted","type":"event"},{"anonymous":false,"inputs":[{"indexed":true,"internalType":"uint256","name":"offerId","type":"uint256"}],"name":"OfferCancelled","type":"event"},{"anonymous":false,"inputs":[{"indexed":true,"internalType":"uint256","name":"offerId","type":"uint256"},{"indexed":true,"internalType":"address","name":"buyer","type":"address"},{"indexed":false,"internalType":"address","name":"nftContract","type":"address"},{"indexed":false,"internalType":"uint256","name":"tokenId","type":"uint256"},{"indexed":false,"internalType":"uint256","name":"amount","type":"uint256"},{"indexed":false,"internalType":"uint256","name":"expiration","type":"uint256"}],"name":"OfferMade","type":"event"},{"anonymous":false,"inputs":[{"indexed":true,"internalType":"address","name":"newOracle","type":"address"}],"name":"OracleUpdated","type":"event"},{"anonymous":false,"inputs":[{"indexed":true,"internalType":"address","name":"previousOwner","type":"address"},{"indexed":true,"internalType":"address","name":"newOwner","type":"address"}],"name":"OwnershipTransferred","type":"event"},{"anonymous":false,"inputs":[{"indexed":false,"internalType":"address","name":"account","type":"address"}],"name":"Paused","type":"event"},{"anonymous":false,"inputs":[{"indexed":false,"internalType":"uint256","name":"newFeeBps","type":"uint256"}],"name":"PlatformFeeUpdated","type":"event"},{"anonymous":false,"inputs":[{"indexed":true,"internalType":"uint256","name":"listingId","type":"uint256"},{"indexed":true,"internalType":"address","name":"buyer","type":"address"},{"indexed":false,"internalType":"uint256","name":"paidWei","type":"uint256"}],"name":"Sold","type":"event"},{"anonymous":false,"inputs":[{"indexed":true,"internalType":"uint256","name":"swapId","type":"uint256"}],"name":"SwapCancelled","type":"event"},{"anonymous":false,"inputs":[{"indexed":true,"internalType":"uint256","name":"swapId","type":"uint256"}],"name":"SwapExecuted","type":"event"},{"anonymous":false,"inputs":[{"indexed":true,"internalType":"uint256","name":"swapId","type":"uint256"},{"indexed":true,"internalType":"address","name":"proposer","type":"address"},{"indexed":true,"internalType":"address","name":"counterparty","type":"address"}],"name":"SwapProposed","type":"event"},{"anonymous":false,"inputs":[{"indexed":false,"internalType":"address","name":"account","type":"address"}],"name":"Unpaused","type":"event"},{"anonymous":false,"inputs":[{"indexed":true,"internalType":"address","name":"payee","type":"address"},{"indexed":false,"internalType":"uint256","name":"amount","type":"uint256"}],"name":"Withdrawn","type":"event"},{"inputs":[],"name":"ANTI_SNIPE_DURATION","outputs":[{"internalType":"uint256","name":"","type":"uint256"}],"stateMutability":"view","type":"function"},{"inputs":[],"name":"BPS_DENOMINATOR","outputs":[{"internalType":"uint256","name":"","type":"uint256"}],"stateMutability":"view","type":"function"},{"inputs":[],"name":"MAX_AUCTION_DURATION","outputs":[{"internalType":"uint256","name":"","type":"uint256"}],"stateMutability":"view","type":"function"},{"inputs":[],"name":"MAX_BATCH_SIZE","outputs":[{"internalType":"uint256","name":"","type":"uint256"}],"stateMutability":"view","type":"function"},{"inputs":[],"name":"MAX_FEE","outputs":[{"internalType":"uint256","name":"","type":"uint256"}],"stateMutability":"view","type":"function"},{"inputs":[],"name":"MIN_AUCTION_DURATION","outputs":[{"internalType":"uint256","name":"","type":"uint256"}],"stateMutability":"view","type":"function"},{"inputs":[],"name":"MIN_BID_INCREMENT_BPS","outputs":[{"internalType":"uint256","name":"","type":"uint256"}],"stateMutability":"view","type":"function"},{"inputs":[],"name":"SLIPPAGE_BPS","outputs":[{"internalType":"uint256","name":"","type":"uint256"}],"stateMutability":"view","type":"function"},{"inputs":[],"name":"USD_WEI_FACTOR","outputs":[{"internalType":"uint256","name":"","type":"uint256"}],"stateMutability":"view","type":"function"},{"inputs":[{"internalType":"uint256","name":"offerId","type":"uint256"}],"name":"acceptOffer","outputs":[],"stateMutability":"nonpayable","type":"function"},{"inputs":[{"internalType":"uint256","name":"swapId","type":"uint256"}],"name":"acceptSwap","outputs":[],"stateMutability":"nonpayable","type":"function"},{"inputs":[{"internalType":"uint256","name":"","type":"uint256"}],"name":"auctions","outputs":[{"internalType":"address","name":"seller","type":"address"},{"internalType":"address","name":"nftContract","type":"address"},{"internalType":"uint256","name":"tokenId","type":"uint256"},{"internalType":"uint256","name":"startPrice","type":"uint256"},{"internalType":"uint256","name":"highestBid","type":"uint256"},{"internalType":"address","name":"highestBidder","type":"address"},{"internalType":"uint256","name":"endTime","type":"uint256"},{"internalType":"bool","name":"ended","type":"bool"}],"stateMutability":"view","type":"function"},{"inputs":[{"internalType":"address","name":"nftContract","type":"address"},{"internalType":"uint256[]","name":"tokenIds","type":"uint256[]"},{"internalType":"uint256[]","name":"pricesUsdCents","type":"uint256[]"},{"internalType":"uint256[]","name":"durations","type":"uint256[]"}],"name":"batchListNFT","outputs":[{"internalType":"uint256[]","name":"","type":"uint256[]"}],"stateMutability":"nonpayable","type":"function"},{"inputs":[{"internalType":"uint256","name":"auctionId","type":"uint256"}],"name":"buyDutchAuction","outputs":[],"stateMutability":"payable","type":"function"},{"inputs":[{"internalType":"uint256","name":"listingId","type":"uint256"}],"name":"buyNFT","outputs":[],"stateMutability":"payable","type":"function"},{"inputs":[{"internalType":"uint256","name":"auctionId","type":"uint256"}],"name":"cancelAuction","outputs":[],"stateMutability":"nonpayable","type":"function"},{"inputs":[{"internalType":"uint256","name":"auctionId","type":"uint256"}],"name":"cancelDutchAuction","outputs":[],"stateMutability":"nonpayable","type":"function"},{"inputs":[{"internalType":"uint256","name":"listingId","type":"uint256"}],"name":"cancelListing","outputs":[],"stateMutability":"nonpayable","type":"function"},{"inputs":[{"internalType":"uint256","name":"offerId","type":"uint256"}],"name":"cancelOffer","outputs":[],"stateMutability":"nonpayable","type":"function"},{"inputs":[{"internalType":"uint256","name":"swapId","type":"uint256"}],"name":"cancelSwap","outputs":[],"stateMutability":"nonpayable","type":"function"},{"inputs":[{"internalType":"address","name":"nftContract","type":"address"},{"internalType":"uint256","name":"tokenId","type":"uint256"},{"internalType":"uint256","name":"startPrice","type":"uint256"},{"internalType":"uint256","name":"duration","type":"uint256"}],"name":"createAuction","outputs":[{"internalType":"uint256","name":"","type":"uint256"}],"stateMutability":"nonpayable","type":"function"},{"inputs":[{"internalType":"address","name":"nftContract","type":"address"},{"internalType":"uint256","name":"tokenId","type":"uint256"},{"internalType":"uint256","name":"startPriceUsdCents","type":"uint256"},{"internalType":"uint256","name":"endPriceUsdCents","type":"uint256"},{"internalType":"uint256","name":"duration","type":"uint256"}],"name":"createDutchAuction","outputs":[{"internalType":"uint256","name":"","type":"uint256"}],"stateMutability":"nonpayable","type":"function"},{"inputs":[{"internalType":"uint256","name":"","type":"uint256"}],"name":"dutchAuctions","outputs":[{"internalType":"address","name":"seller","type":"address"},{"internalType":"address","name":"nftContract","type":"address"},{"internalType":"uint256","name":"tokenId","type":"uint256"},{"internalType":"uint256","name":"startPriceUsdCents","type":"uint256"},{"internalType":"uint256","name":"endPriceUsdCents","type":"uint256"},{"internalType":"uint256","name":"startTime","type":"uint256"},{"internalType":"uint256","name":"endTime","type":"uint256"},{"internalType":"bool","name":"sold","type":"bool"}],"stateMutability":"view","type":"function"},{"inputs":[{"internalType":"uint256","name":"auctionId","type":"uint256"}],"name":"endAuction","outputs":[],"stateMutability":"nonpayable","type":"function"},{"inputs":[],"name":"getAuctionCount","outputs":[{"internalType":"uint256","name":"","type":"uint256"}],"stateMutability":"view","type":"function"},{"inputs":[],"name":"getDutchAuctionCount","outputs":[{"internalType":"uint256","name":"","type":"uint256"}],"stateMutability":"view","type":"function"},{"inputs":[{"internalType":"uint256","name":"auctionId","type":"uint256"}],"name":"getDutchAuctionCurrentPrice","outputs":[{"internalType":"uint256","name":"","type":"uint256"}],"stateMutability":"view","type":"function"},{"inputs":[{"internalType":"uint256","name":"auctionId","type":"uint256"}],"name":"getDutchAuctionPriceInWei","outputs":[{"internalType":"uint256","name":"requiredWei","type":"uint256"},{"internalType":"uint256","name":"maxWei","type":"uint256"}],"stateMutability":"view","type":"function"},{"inputs":[],"name":"getListingCount","outputs":[{"internalType":"uint256","name":"","type":"uint256"}],"stateMutability":"view","type":"function"},{"inputs":[{"internalType":"uint256","name":"listingId","type":"uint256"}],"name":"getListingPriceInWei","outputs":[{"internalType":"uint256","name":"requiredWei","type":"uint256"},{"internalType":"uint256","name":"maxWei","type":"uint256"}],"stateMutability":"view","type":"function"},{"inputs":[],"name":"getOfferCount","outputs":[{"internalType":"uint256","name":"","type":"uint256"}],"stateMutability":"view","type":"function"},{"inputs":[],"name":"getSwapCount","outputs":[{"internalType":"uint256","name":"","type":"uint256"}],"stateMutability":"view","type":"function"},{"inputs":[{"internalType":"uint256","name":"listingId","type":"uint256"}],"name":"isListingExpired","outputs":[{"internalType":"bool","name":"","type":"bool"}],"stateMutability":"view","type":"function"},{"inputs":[{"internalType":"address","name":"nftContract","type":"address"},{"internalType":"uint256","name":"tokenId","type":"uint256"},{"internalType":"uint256","name":"priceUsdCents","type":"uint256"},{"internalType":"uint256","name":"duration","type":"uint256"}],"name":"listNFT","outputs":[{"internalType":"uint256","name":"","type":"uint256"}],"stateMutability":"nonpayable","type":"function"},{"inputs":[{"internalType":"uint256","name":"","type":"uint256"}],"name":"listings","outputs":[{"internalType":"address","name":"seller","type":"address"},{"internalType":"address","name":"nftContract","type":"address"},{"internalType":"uint256","name":"tokenId","type":"uint256"},{"internalType":"uint256","name":"priceUsdCents","type":"uint256"},{"internalType":"bool","name":"active","type":"bool"},{"internalType":"uint256","name":"expiration","type":"uint256"}],"stateMutability":"view","type":"function"},{"inputs":[{"internalType":"address","name":"nftContract","type":"address"},{"internalType":"uint256","name":"tokenId","type":"uint256"},{"internalType":"uint256","name":"duration","type":"uint256"}],"name":"makeOffer","outputs":[{"internalType":"uint256","name":"","type":"uint256"}],"stateMutability":"payable","type":"function"},{"inputs":[{"internalType":"uint256","name":"","type":"uint256"}],"name":"offers","outputs":[{"internalType":"address","name":"buyer","type":"address"},{"internalType":"address","name":"nftContract","type":"address"},{"internalType":"uint256","name":"tokenId","type":"uint256"},{"internalType":"uint256","name":"amount","type":"uint256"},{"internalType":"uint256","name":"expiration","type":"uint256"},{"internalType":"bool","name":"active","type":"bool"}],"stateMutability":"view","type":"function"},{"inputs":[{"internalType":"address","name":"","type":"address"},{"internalType":"address","name":"","type":"address"},{"internalType":"uint256","name":"","type":"uint256"},{"internalType":"bytes","name":"","type":"bytes"}],"name":"onERC721Received","outputs":[{"internalType":"bytes4","name":"","type":"bytes4"}],"stateMutability":"pure","type":"function"},{"inputs":[],"name":"oracle","outputs":[{"internalType":"contract ISimpleOracle","name":"","type":"address"}],"stateMutability":"view","type":"function"},{"inputs":[],"name":"owner","outputs":[{"internalType":"address","name":"","type":"address"}],"stateMutability":"view","type":"function"},{"inputs":[],"name":"pause","outputs":[],"stateMutability":"nonpayable","type":"function"},{"inputs":[],"name":"paused","outputs":[{"internalType":"bool","name":"","type":"bool"}],"stateMutability":"view","type":"function"},{"inputs":[{"internalType":"address","name":"","type":"address"}],"name":"pendingWithdrawals","outputs":[{"internalType":"uint256","name":"","type":"uint256"}],"stateMutability":"view","type":"function"},{"inputs":[{"internalType":"uint256","name":"auctionId","type":"uint256"}],"name":"placeBid","outputs":[],"stateMutability":"payable","type":"function"},{"inputs":[],"name":"platformFeeBps","outputs":[{"internalType":"uint256","name":"","type":"uint256"}],"stateMutability":"view","type":"function"},{"inputs":[{"internalType":"address","name":"counterparty","type":"address"},{"internalType":"address","name":"proposerNftContract","type":"address"},{"internalType":"uint256","name":"proposerTokenId","type":"uint256"},{"internalType":"address","name":"counterpartyNftContract","type":"address"},{"internalType":"uint256","name":"counterpartyTokenId","type":"uint256"},{"internalType":"uint256","name":"duration","type":"uint256"}],"name":"proposeSwap","outputs":[{"internalType":"uint256","name":"","type":"uint256"}],"stateMutability":"payable","type":"function"},{"inputs":[],"name":"renounceOwnership","outputs":[],"stateMutability":"nonpayable","type":"function"},{"inputs":[{"internalType":"address","name":"_oracle","type":"address"}],"name":"setOracle","outputs":[],"stateMutability":"nonpayable","type":"function"},{"inputs":[{"internalType":"uint256","name":"feeBps","type":"uint256"}],"name":"setPlatformFee","outputs":[],"stateMutability":"nonpayable","type":"function"},{"inputs":[{"internalType":"uint256","name":"","type":"uint256"}],"name":"swaps","outputs":[{"internalType":"address","name":"proposer","type":"address"},{"internalType":"address","name":"counterparty","type":"address"},{"internalType":"address","name":"proposerNftContract","type":"address"},{"internalType":"uint256","name":"proposerTokenId","type":"uint256"},{"internalType":"address","name":"counterpartyNftContract","type":"address"},{"internalType":"uint256","name":"counterpartyTokenId","type":"uint256"},{"internalType":"uint256","name":"ethTopUp","type":"uint256"},{"internalType":"uint256","name":"expiration","type":"uint256"},{"internalType":"bool","name":"active","type":"bool"}],"stateMutability":"view","type":"function"},{"inputs":[{"internalType":"address","name":"newOwner","type":"address"}],"name":"transferOwnership","outputs":[],"stateMutability":"nonpayable","type":"function"},{"inputs":[],"name":"unpause","outputs":[],"stateMutability":"nonpayable","type":"function"},{"inputs":[{"internalType":"uint256","name":"listingId","type":"uint256"},{"internalType":"uint256","name":"newPriceUsdCents","type":"uint256"}],"name":"updateListingPrice","outputs":[],"stateMutability":"nonpayable","type":"function"},{"inputs":[],"name":"withdraw","outputs":[],"stateMutability":"nonpayable","type":"function"}],"evm":{"bytecode":{"linkReferences":{},"object":"608060405260fa6002553480156013575f5ffd5b503380603857604051631e4fbdf760e01b81525f600482015260240160405180910390fd5b603f816068565b5060017f9b779b17422d0df92223018b32b4d1fa46e071723d6817e2486d003becc55f005560b7565b5f80546001600160a01b038381166001600160a01b0319831681178455604051919092169283917f8be0079c531659141344cd1fd0a4f28419497f9722a3daafe3b4186f6b6457e09190a35050565b613e87806100c45f395ff3fe608060405260043610610327575f3560e01c806395eae396116101a3578063c4604943116100f2578063de74e57b11610092578063f09c58291161006d578063f09c582914610a4a578063f2ab2fc014610b1c578063f2fde38b14610bd0578063f3f4370314610bef575f5ffd5b8063de74e57b1461097d578063e1a4521814610a16578063ef706adf14610a2b575f5ffd5b8063cfdbf254116100cd578063cfdbf25414610922578063d048db3714610936578063d81671bc1461094a578063ddee84331461095e575f5ffd5b8063c4604943146108c5578063c815729d146108e4578063cb91ec4f14610903575f5ffd5b8063adb1fd061161015d578063bc063e1a11610138578063bc063e1a14610873578063bcc872aa14610888578063c2f50a7a1461089c578063c44e6640146108b1575f5ffd5b8063adb1fd0614610809578063b50250a314610835578063b9a2de3a14610854575f5ffd5b806395eae3961461075e57806396b5a755146107735780639979ef45146107925780639f720c62146107a5578063a1f0f438146107c2578063a7cd11f0146107f6575f5ffd5b806351ed8288116102795780637adbf973116102195780638456cb59116101f45780638456cb591461068257806387ed92d7146106965780638a72ea6a146106aa5780638da5cb5b14610742575f5ffd5b80637adbf973146106195780637dc0d1d0146106385780637de3bd071461066f575f5ffd5b80635c975abb116102545780635c975abb146105a957806361beb1d7146105d2578063715018a6146105f157806377f8bb6d14610605575f5ffd5b806351ed8288146104b957806354d6a2b7146104cc578063571a26a0146104eb575f5ffd5b806322dcd13e116102e45780633c44a5f0116102bf5780633c44a5f01461045c5780633ccfd60b1461047b5780633f4ba83a1461048f5780633fb35178146104a3575f5ffd5b806322dcd13e1461041557806325481f5f1461042a578063305a67a81461043d575f5ffd5b8063065da6981461032b57806312e8e2c31461035d57806314414cc01461037e578063150b7a02146103935780631be66284146103d75780631bf33004146103f6575b5f5ffd5b348015610336575f5ffd5b5061034a61034536600461399e565b610c1a565b6040519081526020015b60405180910390f35b348015610368575f5ffd5b5061037c6103773660046139de565b610ff8565b005b348015610389575f5ffd5b5061034a6101f481565b34801561039e575f5ffd5b506103be6103ad3660046139f5565b630a85bd0160e11b95945050505050565b6040516001600160e01b03199091168152602001610354565b3480156103e2575f5ffd5b5061034a6103f13660046139de565b61105e565b348015610401575f5ffd5b5061037c6104103660046139de565b6110f1565b348015610420575f5ffd5b5061034a60025481565b61037c6104383660046139de565b611490565b348015610448575f5ffd5b5061037c6104573660046139de565b61165f565b348015610467575f5ffd5b5061034a610476366004613a8e565b6116fd565b348015610486575f5ffd5b5061037c61171d565b34801561049a575f5ffd5b5061037c611819565b3480156104ae575f5ffd5b5061034a62093a8081565b61037c6104c73660046139de565b611829565b3480156104d7575f5ffd5b5061037c6104e63660046139de565b611a45565b3480156104f6575f5ffd5b506105596105053660046139de565b60096020525f9081526040902080546001820154600283015460038401546004850154600586015460068701546007909701546001600160a01b039687169795871696949593949293919092169160ff1688565b604080516001600160a01b03998a16815297891660208901528701959095526060860193909352608085019190915290931660a083015260c082019290925290151560e082015261010001610354565b3480156105b4575f5ffd5b505f54600160a01b900460ff165b6040519015158152602001610354565b3480156105dd575f5ffd5b5061034a6105ec366004613a8e565b611b83565b3480156105fc575f5ffd5b5061037c611f40565b348015610610575f5ffd5b5061034a60c881565b348015610624575f5ffd5b5061037c610633366004613ac6565b611f51565b348015610643575f5ffd5b50600154610657906001600160a01b031681565b6040516001600160a01b039091168152602001610354565b61034a61067d366004613ae1565b611fc9565b34801561068d575f5ffd5b5061037c612158565b3480156106a1575f5ffd5b5060035461034a565b3480156106b5575f5ffd5b506107086106c43660046139de565b600b6020525f90815260409020805460018201546002830154600384015460048501546005909501546001600160a01b039485169593909416939192909160ff1686565b604080516001600160a01b0397881681529690951660208701529385019290925260608401526080830152151560a082015260c001610354565b34801561074d575f5ffd5b505f546001600160a01b0316610657565b348015610769575f5ffd5b5061034a61012c81565b34801561077e575f5ffd5b5061037c61078d3660046139de565b612168565b61037c6107a03660046139de565b61229b565b3480156107b0575f5ffd5b5061034a69d3c21bcecceda100000081565b3480156107cd575f5ffd5b506107e16107dc3660046139de565b6124c4565b60408051928352602083019190915201610354565b61034a610804366004613b13565b612507565b348015610814575f5ffd5b50610828610823366004613bbc565b6128bc565b6040516103549190613c6d565b348015610840575f5ffd5b506105c261084f3660046139de565b612a2e565b34801561085f575f5ffd5b5061037c61086e3660046139de565b612a58565b34801561087e575f5ffd5b5061034a6103e881565b348015610893575f5ffd5b5060055461034a565b3480156108a7575f5ffd5b5061034a610e1081565b3480156108bc575f5ffd5b5060045461034a565b3480156108d0575f5ffd5b5061037c6108df366004613caf565b612c77565b3480156108ef575f5ffd5b5061037c6108fe3660046139de565b612d46565b34801561090e575f5ffd5b506107e161091d3660046139de565b61303c565b34801561092d575f5ffd5b5061034a601481565b348015610941575f5ffd5b5060065461034a565b348015610955575f5ffd5b5060075461034a565b348015610969575f5ffd5b5061037c6109783660046139de565b61305a565b348015610988575f5ffd5b506109dc6109973660046139de565b60086020525f90815260409020805460018201546002830154600384015460048501546005909501546001600160a01b039485169594909316939192909160ff169086565b604080516001600160a01b0397881681529690951660208701529385019290925260608401521515608083015260a082015260c001610354565b348015610a21575f5ffd5b5061034a61271081565b348015610a36575f5ffd5b5061037c610a453660046139de565b613161565b348015610a55575f5ffd5b50610ac1610a643660046139de565b600c6020525f90815260409020805460018201546002830154600384015460048501546005860154600687015460078801546008909801546001600160a01b03978816989688169795861696949590931693919290919060ff1689565b604080516001600160a01b039a8b168152988a1660208a015296891696880196909652606087019490945295909116608085015260a084015260c083019390935260e082019290925290151561010082015261012001610354565b348015610b27575f5ffd5b50610b88610b363660046139de565b600a6020525f9081526040902080546001820154600283015460038401546004850154600586015460068701546007909701546001600160a01b03968716979590961695939492939192909160ff1688565b604080516001600160a01b03998a168152989097166020890152958701949094526060860192909252608085015260a084015260c0830152151560e082015261010001610354565b348015610bdb575f5ffd5b5061037c610bea366004613ac6565b61321f565b348015610bfa575f5ffd5b5061034a610c09366004613ac6565b600d6020525f908152604090205481565b5f610c2361325e565b610c2b613279565b835f03610c4b57604051637294708f60e11b815260040160405180910390fd5b838310610c6b57604051635e9e0dfd60e01b815260040160405180910390fd5b610e10821080610c7d575062093a8082115b15610c9b57604051637616640160e01b815260040160405180910390fd5b6040516331a9108f60e11b815260048101869052869033906001600160a01b03831690636352211e90602401602060405180830381865afa158015610ce2573d5f5f3e3d5ffd5b505050506040513d601f19601f82011682018060405250810190610d069190613ccf565b6001600160a01b031614610d2d576040516359dc379f60e01b815260040160405180910390fd5b60405163020604bf60e21b81526004810187905230906001600160a01b0383169063081812fc90602401602060405180830381865afa158015610d72573d5f5f3e3d5ffd5b505050506040513d601f19601f82011682018060405250810190610d969190613ccf565b6001600160a01b031614158015610e16575060405163e985e9c560e01b81523360048201523060248201526001600160a01b0382169063e985e9c590604401602060405180830381865afa158015610df0573d5f5f3e3d5ffd5b505050506040513d601f19601f82011682018060405250810190610e149190613cea565b155b15610e345760405163a9248d2560e01b815260040160405180910390fd5b6040516323b872dd60e01b81526001600160a01b038216906323b872dd90610e6490339030908b90600401613d09565b5f604051808303815f87803b158015610e7b575f5ffd5b505af1158015610e8d573d5f5f3e3d5ffd5b5050600580545f9350915082610ea283613d41565b919050559050604051806101000160405280336001600160a01b03168152602001896001600160a01b031681526020018881526020018781526020018681526020014281526020018542610ef69190613d59565b81525f6020918201819052838152600a8252604090819020835181546001600160a01b03199081166001600160a01b03928316178355938501516001830180549095169116179092558201516002820155606082015160038201556080820151600482015560a0820151600582015560c0820151600682015560e0909101516007909101805460ff191691151591909117905533817f35fcdd210845c48febf8dc54033b59cadf5f93c028fb1230842033e4ea6897998888610fb88942613d59565b6040805193845260208401929092529082015260600160405180910390a3915050610fef60015f516020613e325f395f51905f5255565b95945050505050565b6110006132a3565b6103e88111156110235760405163cd4e616760e01b815260040160405180910390fd5b60028190556040518181527f45610d581145924dd7090a5017e5f2b1d6f42213bb2e95707ff86846bbfcb1ca9060200160405180910390a150565b5f818152600a6020526040812060068101544210611080576004015492915050565b5f8160050154426110919190613d72565b90505f826005015483600601546110a89190613d72565b90505f8183856004015486600301546110c19190613d72565b6110cb9190613d85565b6110d59190613d9c565b90508084600301546110e79190613d72565b9695505050505050565b6110f961325e565b611101613279565b5f818152600c60205260409020600881015460ff166111335760405163cac0f49d60e01b815260040160405180910390fd5b60018101546001600160a01b03163314611160576040516389f5ad6160e01b815260040160405180910390fd5b806007015442111561118557604051632b32713d60e01b815260040160405180910390fd5b60048181015460058301546040516331a9108f60e11b8152928301526001600160a01b03169033908290636352211e90602401602060405180830381865afa1580156111d3573d5f5f3e3d5ffd5b505050506040513d601f19601f820116820180604052508101906111f79190613ccf565b6001600160a01b03161461121e576040516359dc379f60e01b815260040160405180910390fd5b600582015460405163020604bf60e21b815230916001600160a01b0384169163081812fc916112539160040190815260200190565b602060405180830381865afa15801561126e573d5f5f3e3d5ffd5b505050506040513d601f19601f820116820180604052508101906112929190613ccf565b6001600160a01b031614158015611312575060405163e985e9c560e01b81523360048201523060248201526001600160a01b0382169063e985e9c590604401602060405180830381865afa1580156112ec573d5f5f3e3d5ffd5b505050506040513d601f19601f820116820180604052508101906113109190613cea565b155b156113305760405163a9248d2560e01b815260040160405180910390fd5b60088201805460ff19169055600682015415611372576004820154600583015460018401546006850154611372936001600160a01b03908116939216906132cf565b600282015460018301546003840154604051632142170760e11b81526001600160a01b03938416936342842e0e936113b39330939290911691600401613d09565b5f604051808303815f87803b1580156113ca575f5ffd5b505af11580156113dc573d5f5f3e3d5ffd5b505050600183015483546005850154604051632142170760e11b81526001600160a01b0380871695506342842e0e9461141e9490821693911691600401613d09565b5f604051808303815f87803b158015611435575f5ffd5b505af1158015611447573d5f5f3e3d5ffd5b50506040518592507f8d92c805c252261fcfff21ee60740eb8a38922469a7e6ee396976d57c22fc1c991505f90a2505061148d60015f516020613e325f395f51905f5255565b50565b61149861325e565b6114a0613279565b5f818152600a60205260409020600781015460ff16156114d357604051634b74dc9760e11b815260040160405180910390fd5b80546001600160a01b031633036114fd57604051632aa3c9e960e01b815260040160405180910390fd5b5f6115078361105e565b90505f61151382613478565b9050803410156115365760405163cd1c886760e01b815260040160405180910390fd5b60078301805460ff191660019081179091558301546002840154845461156a926001600160a01b03908116929116846132cf565b5f6115758234613d72565b905080156115a157335f908152600d60205260408120805483929061159b908490613d59565b90915550505b60018401546002850154604051632142170760e11b81526001600160a01b03909216916342842e0e916115da9130913391600401613d09565b5f604051808303815f87803b1580156115f1575f5ffd5b505af1158015611603573d5f5f3e3d5ffd5b505060408051868152602081018690523393508892507f08af6336c121868adf8c691a0ff68a8d1f4a926efdeca3b662fbc6c7931b370a91015b60405180910390a35050505061148d60015f516020613e325f395f51905f5255565b611667613279565b5f818152600860205260409020600481015460ff16611699576040516366cb03e960e01b815260040160405180910390fd5b80546001600160a01b031633146116c3576040516322087f4960e11b815260040160405180910390fd5b60048101805460ff1916905560405182907f411aee90354c51b1b04cd563fcab2617142a9d50da19232d888547c8a1b7fd8a905f90a25050565b5f611706613279565b61171285858585613563565b90505b949350505050565b61172561325e565b335f908152600d60205260408120549081900361175557604051630686827b60e51b815260040160405180910390fd5b335f818152600d60205260408082208290555190919083908381818185875af1925050503d805f81146117a3576040519150601f19603f3d011682016040523d82523d5f602084013e6117a8565b606091505b50509050806117ca576040516312171d8360e31b815260040160405180910390fd5b60405182815233907f7084f5476618d8e60b11ef0d7d3f06914655adb8793e28ff7f018d4c76d505d59060200160405180910390a2505061181760015f516020613e325f395f51905f5255565b565b6118216132a3565b61181761384d565b61183161325e565b611839613279565b5f818152600860205260409020600481015460ff1661186b576040516366cb03e960e01b815260040160405180910390fd5b6005810154158015906118815750806005015442115b1561189f57604051632eb19f9d60e01b815260040160405180910390fd5b80546001600160a01b031633036118c957604051632aa3c9e960e01b815260040160405180910390fd5b5f6118d78260030154613478565b9050803410156118fa5760405163cd1c886760e01b815260040160405180910390fd5b5f61271061190960c884613d85565b6119139190613d9c565b61191d9083613d59565b90508034111561194057604051631e33487360e11b815260040160405180910390fd5b60048301805460ff19169055600183015460028401548454611970926001600160a01b03908116929116856132cf565b5f61197b8334613d72565b905080156119a757335f908152600d6020526040812080548392906119a1908490613d59565b90915550505b600184015484546002860154604051632142170760e11b81526001600160a01b03938416936342842e0e936119e493911691339190600401613d09565b5f604051808303815f87803b1580156119fb575f5ffd5b505af1158015611a0d573d5f5f3e3d5ffd5b50506040518581523392508791507f66f5cd880edf48cdde6c966e5da0784fcc4c5e85572b8b3b62c4357798d447d79060200161163d565b5f818152600c60205260409020600881015460ff16611a775760405163cac0f49d60e01b815260040160405180910390fd5b80546001600160a01b03163314611aa1576040516322087f4960e11b815260040160405180910390fd5b60088101805460ff19169055600281015481546003830154604051632142170760e11b81526001600160a01b03938416936342842e0e93611aeb9330939290911691600401613d09565b5f604051808303815f87803b158015611b02575f5ffd5b505af1158015611b14573d5f5f3e3d5ffd5b50505050600681015415611b5557600681015481546001600160a01b03165f908152600d602052604081208054909190611b4f908490613d59565b90915550505b60405182907ff6b6b4f7a13f02512c1b3aa8dcc4a07d7775a6a4becbd439efcbd37c5408e67f905f90a25050565b5f611b8c61325e565b611b94613279565b825f03611bb457604051637294708f60e11b815260040160405180910390fd5b610e10821080611bc6575062093a8082115b15611be457604051637616640160e01b815260040160405180910390fd5b6040516331a9108f60e11b815260048101859052859033906001600160a01b03831690636352211e90602401602060405180830381865afa158015611c2b573d5f5f3e3d5ffd5b505050506040513d601f19601f82011682018060405250810190611c4f9190613ccf565b6001600160a01b031614611c76576040516359dc379f60e01b815260040160405180910390fd5b60405163020604bf60e21b81526004810186905230906001600160a01b0383169063081812fc90602401602060405180830381865afa158015611cbb573d5f5f3e3d5ffd5b505050506040513d601f19601f82011682018060405250810190611cdf9190613ccf565b6001600160a01b031614158015611d5f575060405163e985e9c560e01b81523360048201523060248201526001600160a01b0382169063e985e9c590604401602060405180830381865afa158015611d39573d5f5f3e3d5ffd5b505050506040513d601f19601f82011682018060405250810190611d5d9190613cea565b155b15611d7d5760405163a9248d2560e01b815260040160405180910390fd5b6040516323b872dd60e01b81526001600160a01b038216906323b872dd90611dad90339030908a90600401613d09565b5f604051808303815f87803b158015611dc4575f5ffd5b505af1158015611dd6573d5f5f3e3d5ffd5b5050600480545f9350915082611deb83613d41565b9091555060408051610100810182523381526001600160a01b038a166020820152908101889052606081018790525f6080820181905260a082015290915060c08101611e378642613d59565b81525f602091820181905283815260098252604090819020835181546001600160a01b03199081166001600160a01b03928316178355938501516001830180548616918316919091179055918401516002820155606084015160038201556080840151600482015560a08401516005820180549094169083161790925560c0830151600683015560e0909201516007909101805460ff1916911515919091179055871633827f06b9e486c68303eb64052e0493f906f3d93a1b7149b6b8dcff221aebd16c35138989611f098a42613d59565b6040805193845260208401929092529082015260600160405180910390a491505061171560015f516020613e325f395f51905f5255565b611f486132a3565b6118175f6138a1565b611f596132a3565b6001600160a01b038116611f8057604051633e1e538160e21b815260040160405180910390fd5b600180546001600160a01b0319166001600160a01b0383169081179091556040517f3df77beb5db05fcdd70a30fc8adf3f83f9501b68579455adbd100b8180940394905f90a250565b5f611fd2613279565b345f03611ff257604051637294708f60e11b815260040160405180910390fd5b610e10821080612004575062093a8082115b1561202257604051637616640160e01b815260040160405180910390fd5b600680545f918261203283613d41565b909155506040805160c0810182523381526001600160a01b03881660208201529081018690523460608201529091506080810161206f8542613d59565b8152600160209182018190525f848152600b8352604090819020845181546001600160a01b03199081166001600160a01b03928316178355948601519382018054909516931692909217909255908201516002820155606082015160038201556080820151600482015560a0909101516005909101805460ff191691151591909117905533817f1a8e4806e9c3198b224bf5fd328ba7488ee72334ba823076cf52dbfce562ffae8787346121238942613d59565b604080516001600160a01b039095168552602085019390935291830152606082015260800160405180910390a3949350505050565b6121606132a3565b6118176138f0565b5f818152600960205260409020600781015460ff161561219b5760405163d02e774d60e01b815260040160405180910390fd5b80546001600160a01b031633146121c5576040516322087f4960e11b815260040160405180910390fd5b60058101546001600160a01b0316156121f1576040516335473acb60e01b815260040160405180910390fd5b60078101805460ff1916600190811790915581015481546002830154604051632142170760e11b81526001600160a01b03938416936342842e0e93612240933093919092169190600401613d09565b5f604051808303815f87803b158015612257575f5ffd5b505af1158015612269573d5f5f3e3d5ffd5b50506040518492507f2809c7e17bf978fbc7194c0a694b638c4215e9140cacc6c38ca36010b45697df91505f90a25050565b6122a361325e565b6122ab613279565b5f818152600960205260409020600781015460ff16156122de5760405163d02e774d60e01b815260040160405180910390fd5b8060060154421061230257604051630129799f60e21b815260040160405180910390fd5b80546001600160a01b0316330361232c5760405163ef02588960e01b815260040160405180910390fd5b806003015434101561235157604051636cdfbd7360e01b815260040160405180910390fd5b6004810154156123af575f6127106101f483600401546123719190613d85565b61237b9190613d9c565b826004015461238a9190613d59565b9050803410156123ad57604051630ec4b5eb60e31b815260040160405180910390fd5b505b60058101546001600160a01b0316156123f857600481015460058201546001600160a01b03165f908152600d6020526040812080549091906123f2908490613d59565b90915550505b3460048201556005810180546001600160a01b03191633179055600681015461012c90612426904290613d72565b10156124755761243861012c42613d59565b6006820181905560405190815282907f6e912a3a9105bdd2af817ba5adc14e6c127c1035b5b648faa29ca0d58ab8ff4e9060200160405180910390a25b604051348152339083907f0e54eff26401bf69b81b26f60bd85ef47f5d85275c1d268d84f68d6897431c47906020015b60405180910390a35061148d60015f516020613e325f395f51905f5255565b5f5f5f6124d08461105e565b90506124db81613478565b92506127106124eb60c885613d85565b6124f59190613d9c565b6124ff9084613d59565b915050915091565b5f61251061325e565b612518613279565b610e1082108061252a575062093a8082115b1561254857604051637616640160e01b815260040160405180910390fd5b6040516331a9108f60e11b815260048101869052869033906001600160a01b03831690636352211e90602401602060405180830381865afa15801561258f573d5f5f3e3d5ffd5b505050506040513d601f19601f820116820180604052508101906125b39190613ccf565b6001600160a01b0316146125da576040516359dc379f60e01b815260040160405180910390fd5b60405163020604bf60e21b81526004810187905230906001600160a01b0383169063081812fc90602401602060405180830381865afa15801561261f573d5f5f3e3d5ffd5b505050506040513d601f19601f820116820180604052508101906126439190613ccf565b6001600160a01b0316141580156126c3575060405163e985e9c560e01b81523360048201523060248201526001600160a01b0382169063e985e9c590604401602060405180830381865afa15801561269d573d5f5f3e3d5ffd5b505050506040513d601f19601f820116820180604052508101906126c19190613cea565b155b156126e15760405163a9248d2560e01b815260040160405180910390fd5b6040516323b872dd60e01b81526001600160a01b038216906323b872dd9061271190339030908b90600401613d09565b5f604051808303815f87803b158015612728575f5ffd5b505af115801561273a573d5f5f3e3d5ffd5b5050600780545f935091508261274f83613d41565b919050559050604051806101200160405280336001600160a01b031681526020018a6001600160a01b03168152602001896001600160a01b03168152602001888152602001876001600160a01b0316815260200186815260200134815260200185426127bb9190613d59565b8152600160209182018190525f848152600c83526040808220855181546001600160a01b03199081166001600160a01b039283161783559587015194820180548716958216959095179094558582015160028201805487169186169190911790556060860151600382015560808601516004820180549096169085161790945560a0850151600585015560c0850151600685015560e08501516007850155610100909401516008909301805460ff1916931515939093179092559151918b1691339184917f39d8683e02d07786a66eb86f938b372fd826475e504c6ce2819a6316fda997899190a49150506110e760015f516020613e325f395f51905f5255565b60606128c6613279565b8584811415806128d65750808314155b156128f45760405163512509d360e11b815260040160405180910390fd5b6014811115612916576040516305beb17160e11b815260040160405180910390fd5b5f8167ffffffffffffffff81111561293057612930613dbb565b604051908082528060200260200182016040528015612959578160200160208202803683370190505b5090505f5b828110156129df576129ba8b8b8b8481811061297c5761297c613dcf565b905060200201358a8a8581811061299557612995613dcf565b905060200201358989868181106129ae576129ae613dcf565b90506020020135613563565b8282815181106129cc576129cc613dcf565b602090810291909101015260010161295e565b50336001600160a01b03167f20bab890e3c2b44bebb771f1dfd0de19c2b0e5635e15c42d1c08e7ab45795cc382604051612a199190613c6d565b60405180910390a29998505050505050505050565b5f818152600860205260408120600581015415801590612a515750806005015442115b9392505050565b612a6061325e565b5f818152600960205260409020600781015460ff1615612a935760405163d02e774d60e01b815260040160405180910390fd5b8060060154421015612ab857604051639eafe1b760e01b815260040160405180910390fd5b60078101805460ff1916600117905560058101546001600160a01b031615612bc1576001810154600282015482546004840154612b03936001600160a01b03908116939216906132cf565b600181015460058201546002830154604051632142170760e11b81526001600160a01b03938416936342842e0e93612b449330939290911691600401613d09565b5f604051808303815f87803b158015612b5b575f5ffd5b505af1158015612b6d573d5f5f3e3d5ffd5b50505050600581015460048201546040519081526001600160a01b039091169083907fd2aa34a4fdbbc6dff6a3e56f46e0f3ae2a31d7785ff3487aa5c95c642acea5019060200160405180910390a3612c60565b600181015481546002830154604051632142170760e11b81526001600160a01b03938416936342842e0e93612bff9330939290911691600401613d09565b5f604051808303815f87803b158015612c16575f5ffd5b505af1158015612c28573d5f5f3e3d5ffd5b50506040515f80825292508491507fd2aa34a4fdbbc6dff6a3e56f46e0f3ae2a31d7785ff3487aa5c95c642acea501906020016124a5565b5061148d60015f516020613e325f395f51905f5255565b612c7f613279565b5f828152600860205260409020600481015460ff16612cb1576040516366cb03e960e01b815260040160405180910390fd5b80546001600160a01b03163314612cdb576040516322087f4960e11b815260040160405180910390fd5b815f03612cfb57604051637294708f60e11b815260040160405180910390fd5b60038101805490839055604080518281526020810185905285917f36cfe22dfcf2d3781d9de6b307d67a5431b45492dad5e70e53dd4af34c25b849910160405180910390a250505050565b612d4e61325e565b612d56613279565b5f818152600b60205260409020600581015460ff16612d8857604051634d80826b60e11b815260040160405180910390fd5b8060040154421115612dad57604051639cb1308760e01b815260040160405180910390fd5b600181015460028201546040516331a9108f60e11b81526001600160a01b039092169133918391636352211e91612dea9160040190815260200190565b602060405180830381865afa158015612e05573d5f5f3e3d5ffd5b505050506040513d601f19601f82011682018060405250810190612e299190613ccf565b6001600160a01b031614612e50576040516359dc379f60e01b815260040160405180910390fd5b600282015460405163020604bf60e21b815230916001600160a01b0384169163081812fc91612e859160040190815260200190565b602060405180830381865afa158015612ea0573d5f5f3e3d5ffd5b505050506040513d601f19601f82011682018060405250810190612ec49190613ccf565b6001600160a01b031614158015612f44575060405163e985e9c560e01b81523360048201523060248201526001600160a01b0382169063e985e9c590604401602060405180830381865afa158015612f1e573d5f5f3e3d5ffd5b505050506040513d601f19601f82011682018060405250810190612f429190613cea565b155b15612f625760405163a9248d2560e01b815260040160405180910390fd5b60058201805460ff19169055600182015460028301546003840154612f93926001600160a01b0316919033906132cf565b81546002830154604051632142170760e11b81526001600160a01b03848116936342842e0e93612fcb93339390921691600401613d09565b5f604051808303815f87803b158015612fe2575f5ffd5b505af1158015612ff4573d5f5f3e3d5ffd5b50506040513392508591507fa7a40af5a1d0c10a3eb94af90cb008170915e8a71a6aaff052794cd762c72fc0905f90a3505061148d60015f516020613e325f395f51905f5255565b5f81815260086020526040812060038101548291906124db90613478565b5f818152600a60205260409020600781015460ff161561308d57604051634b74dc9760e11b815260040160405180910390fd5b80546001600160a01b031633146130b7576040516322087f4960e11b815260040160405180910390fd5b60078101805460ff1916600190811790915581015481546002830154604051632142170760e11b81526001600160a01b03938416936342842e0e93613106933093919092169190600401613d09565b5f604051808303815f87803b15801561311d575f5ffd5b505af115801561312f573d5f5f3e3d5ffd5b50506040518492507f2e78756868081fae5204bbe1e151c8934c2d7dcf6f4cdba38a18c3ee09f9767091505f90a25050565b5f818152600b60205260409020600581015460ff1661319357604051634d80826b60e11b815260040160405180910390fd5b80546001600160a01b031633146131bd576040516322087f4960e11b815260040160405180910390fd5b60058101805460ff191690556003810154335f908152600d6020526040812080549091906131ec908490613d59565b909155505060405182907fc28b4aed030bfacc245c0501326e1beb8c0ef0d60e4edc21067fdeb52da2a7aa905f90a25050565b6132276132a3565b6001600160a01b03811661325557604051631e4fbdf760e01b81525f60048201526024015b60405180910390fd5b61148d816138a1565b613266613932565b60025f516020613e325f395f51905f5255565b5f54600160a01b900460ff16156118175760405163d93c066560e01b815260040160405180910390fd5b5f546001600160a01b031633146118175760405163118cdaa760e01b815233600482015260240161324c565b5f612710600254836132e19190613d85565b6132eb9190613d9c565b60405163152a902d60e11b815260048101869052602481018490529091505f9081906001600160a01b03881690632a55205a906044016040805180830381865afa925050508015613359575060408051601f3d908101601f1916820190925261335691810190613de3565b60015b1561336357925090505b6001600160a01b038116613375575f91505b836133808385613d59565b111561338c57505f9050805b5f826133988587613d72565b6133a29190613d72565b905083156133f25783600d5f6133bf5f546001600160a01b031690565b6001600160a01b03166001600160a01b031681526020019081526020015f205f8282546133ec9190613d59565b90915550505b5f8311801561340957506001600160a01b03821615155b1561343b576001600160a01b0382165f908152600d602052604081208054859290613435908490613d59565b90915550505b801561346e576001600160a01b0386165f908152600d602052604081208054839290613468908490613d59565b90915550505b5050505050505050565b6001545f906001600160a01b03166134a357604051633e1e538160e21b815260040160405180910390fd5b60015460408051638e15f47360e01b815281515f936001600160a01b031692638e15f47392600480820193918290030181865afa1580156134e6573d5f5f3e3d5ffd5b505050506040513d601f19601f8201168201806040525081019061350a9190613e0f565b509050805f0361352d57604051633e1e538160e21b815260040160405180910390fd5b8060018161354569d3c21bcecceda100000087613d85565b61354f9190613d59565b6135599190613d72565b612a519190613d9c565b5f825f0361358457604051637294708f60e11b815260040160405180910390fd5b6040516331a9108f60e11b815260048101859052859033906001600160a01b03831690636352211e90602401602060405180830381865afa1580156135cb573d5f5f3e3d5ffd5b505050506040513d601f19601f820116820180604052508101906135ef9190613ccf565b6001600160a01b031614613616576040516359dc379f60e01b815260040160405180910390fd5b60405163020604bf60e21b81526004810186905230906001600160a01b0383169063081812fc90602401602060405180830381865afa15801561365b573d5f5f3e3d5ffd5b505050506040513d601f19601f8201168201806040525081019061367f9190613ccf565b6001600160a01b0316141580156136ff575060405163e985e9c560e01b81523360048201523060248201526001600160a01b0382169063e985e9c590604401602060405180830381865afa1580156136d9573d5f5f3e3d5ffd5b505050506040513d601f19601f820116820180604052508101906136fd9190613cea565b155b1561371d5760405163a9248d2560e01b815260040160405180910390fd5b5f83156137335761372e8442613d59565b613735565b5f5b600380549192505f91908261374983613d41565b909155506040805160c081018252338082526001600160a01b038c811660208085018281528587018f8152606087018f815260016080890181815260a08a018e81525f8d81526008909752958b902099518a549089166001600160a01b0319918216178b559451918a01805492909816919094161790955551600287015592516003860155915160048501805491151560ff19909216919091179055905160059093019290925591519293509183907f1d2286580411f12056775bf9e0fd10101148b09a6fca67c9f426fb113a28d1f89061383a908c908c9089909283526020830191909152604082015260600190565b60405180910390a4979650505050505050565b613855613961565b5f805460ff60a01b191690557f5db9ee0a495bf2e6ff9c91a7834c1ba4fdd244a5e8aa4e537bd38aeae4b073aa335b6040516001600160a01b03909116815260200160405180910390a1565b5f80546001600160a01b038381166001600160a01b0319831681178455604051919092169283917f8be0079c531659141344cd1fd0a4f28419497f9722a3daafe3b4186f6b6457e09190a35050565b6138f8613279565b5f805460ff60a01b1916600160a01b1790557f62e78cea01bee320cd4e420270b5ea74000d11b0c9f74754ebdbfc544b05a2586138843390565b5f516020613e325f395f51905f525460020361181757604051633ee5aeb560e01b815260040160405180910390fd5b5f54600160a01b900460ff1661181757604051638dfc202b60e01b815260040160405180910390fd5b6001600160a01b038116811461148d575f5ffd5b5f5f5f5f5f60a086880312156139b2575f5ffd5b85356139bd8161398a565b97602087013597506040870135966060810135965060800135945092505050565b5f602082840312156139ee575f5ffd5b5035919050565b5f5f5f5f5f60808688031215613a09575f5ffd5b8535613a148161398a565b94506020860135613a248161398a565b935060408601359250606086013567ffffffffffffffff811115613a46575f5ffd5b8601601f81018813613a56575f5ffd5b803567ffffffffffffffff811115613a6c575f5ffd5b886020828401011115613a7d575f5ffd5b959894975092955050506020019190565b5f5f5f5f60808587031215613aa1575f5ffd5b8435613aac8161398a565b966020860135965060408601359560600135945092505050565b5f60208284031215613ad6575f5ffd5b8135612a518161398a565b5f5f5f60608486031215613af3575f5ffd5b8335613afe8161398a565b95602085013595506040909401359392505050565b5f5f5f5f5f5f60c08789031215613b28575f5ffd5b8635613b338161398a565b95506020870135613b438161398a565b9450604087013593506060870135613b5a8161398a565b9598949750929560808101359460a0909101359350915050565b5f5f83601f840112613b84575f5ffd5b50813567ffffffffffffffff811115613b9b575f5ffd5b6020830191508360208260051b8501011115613bb5575f5ffd5b9250929050565b5f5f5f5f5f5f5f6080888a031215613bd2575f5ffd5b8735613bdd8161398a565b9650602088013567ffffffffffffffff811115613bf8575f5ffd5b613c048a828b01613b74565b909750955050604088013567ffffffffffffffff811115613c23575f5ffd5b613c2f8a828b01613b74565b909550935050606088013567ffffffffffffffff811115613c4e575f5ffd5b613c5a8a828b01613b74565b989b979a50959850939692959293505050565b602080825282518282018190525f918401906040840190835b81811015613ca4578351835260209384019390920191600101613c86565b509095945050505050565b5f5f60408385031215613cc0575f5ffd5b50508035926020909101359150565b5f60208284031215613cdf575f5ffd5b8151612a518161398a565b5f60208284031215613cfa575f5ffd5b81518015158114612a51575f5ffd5b6001600160a01b039384168152919092166020820152604081019190915260600190565b634e487b7160e01b5f52601160045260245ffd5b5f60018201613d5257613d52613d2d565b5060010190565b80820180821115613d6c57613d6c613d2d565b92915050565b81810381811115613d6c57613d6c613d2d565b8082028115828204841417613d6c57613d6c613d2d565b5f82613db657634e487b7160e01b5f52601260045260245ffd5b500490565b634e487b7160e01b5f52604160045260245ffd5b634e487b7160e01b5f52603260045260245ffd5b5f5f60408385031215613df4575f5ffd5b8251613dff8161398a565b6020939093015192949293505050565b5f5f60408385031215613e20575f5ffd5b50508051602090910151909290915056fe9b779b17422d0df92223018b32b4d1fa46e071723d6817e2486d003becc55f00a2646970667358221220705e5992ab1d63374d3da50bd281fcdc5bd7a5c3c4b256f9bebdbfd6cf4203b364736f6c634300081c0033","opcodes":"PUSH1 0x80 PUSH1 0x40 MSTORE PUSH1 0xFA PUSH1 0x2 SSTORE CALLVALUE DUP1 ISZERO PUSH1 0x13 JUMPI PUSH0 PUSH0 REVERT JUMPDEST POP CALLER DUP1 PUSH1 0x38 JUMPI PUSH1 0x40 MLOAD PUSH4 0x1E4FBDF7 PUSH1 0xE0 SHL DUP2 MSTORE PUSH0 PUSH1 0x4 DUP3 ADD MSTORE PUSH1 0x24 ADD PUSH1 0x40 MLOAD DUP1 SWAP2 SUB SWAP1 REVERT JUMPDEST PUSH1 0x3F DUP2 PUSH1 0x68 JUMP JUMPDEST POP PUSH1 0x1 PUSH32 0x9B779B17422D0DF92223018B32B4D1FA46E071723D6817E2486D003BECC55F00 SSTORE PUSH1 0xB7 JUMP JUMPDEST PUSH0 DUP1 SLOAD PUSH1 0x1 PUSH1 0x1 PUSH1 0xA0 SHL SUB DUP4 DUP2 AND PUSH1 0x1 PUSH1 0x1 PUSH1 0xA0 SHL SUB NOT DUP4 AND DUP2 OR DUP5 SSTORE PUSH1 0x40 MLOAD SWAP2 SWAP1 SWAP3 AND SWAP3 DUP4 SWAP2 PUSH32 0x8BE0079C531659141344CD1FD0A4F28419497F9722A3DAAFE3B4186F6B6457E0 SWAP2 SWAP1 LOG3 POP POP JUMP JUMPDEST PUSH2 0x3E87 DUP1 PUSH2 0xC4 PUSH0 CODECOPY PUSH0 RETURN INVALID PUSH1 0x80 PUSH1 0x40 MSTORE PUSH1 0x4 CALLDATASIZE LT PUSH2 0x327 JUMPI PUSH0 CALLDATALOAD PUSH1 0xE0 SHR DUP1 PUSH4 0x95EAE396 GT PUSH2 0x1A3 JUMPI DUP1 PUSH4 0xC4604943 GT PUSH2 0xF2 JUMPI DUP1 PUSH4 0xDE74E57B GT PUSH2 0x92 JUMPI DUP1 PUSH4 0xF09C5829 GT PUSH2 0x6D JUMPI DUP1 PUSH4 0xF09C5829 EQ PUSH2 0xA4A JUMPI DUP1 PUSH4 0xF2AB2FC0 EQ PUSH2 0xB1C JUMPI DUP1 PUSH4 0xF2FDE38B EQ PUSH2 0xBD0 JUMPI DUP1 PUSH4 0xF3F43703 EQ PUSH2 0xBEF JUMPI PUSH0 PUSH0 REVERT JUMPDEST DUP1 PUSH4 0xDE74E57B EQ PUSH2 0x97D JUMPI DUP1 PUSH4 0xE1A45218 EQ PUSH2 0xA16 JUMPI DUP1 PUSH4 0xEF706ADF EQ PUSH2 0xA2B JUMPI PUSH0 PUSH0 REVERT JUMPDEST DUP1 PUSH4 0xCFDBF254 GT PUSH2 0xCD JUMPI DUP1 PUSH4 0xCFDBF254 EQ PUSH2 0x922 JUMPI DUP1 PUSH4 0xD048DB37 EQ PUSH2 0x936 JUMPI DUP1 PUSH4 0xD81671BC EQ PUSH2 0x94A JUMPI DUP1 PUSH4 0xDDEE8433 EQ PUSH2 0x95E JUMPI PUSH0 PUSH0 REVERT JUMPDEST DUP1 PUSH4 0xC4604943 EQ PUSH2 0x8C5 JUMPI DUP1 PUSH4 0xC815729D EQ PUSH2 0x8E4 JUMPI DUP1 PUSH4 0xCB91EC4F EQ PUSH2 0x903 JUMPI PUSH0 PUSH0 REVERT JUMPDEST DUP1 PUSH4 0xADB1FD06 GT PUSH2 0x15D JUMPI DUP1 PUSH4 0xBC063E1A GT PUSH2 0x138 JUMPI DUP1 PUSH4 0xBC063E1A EQ PUSH2 0x873 JUMPI DUP1 PUSH4 0xBCC872AA EQ PUSH2 0x888 JUMPI DUP1 PUSH4 0xC2F50A7A EQ PUSH2 0x89C JUMPI DUP1 PUSH4 0xC44E6640 EQ PUSH2 0x8B1 JUMPI PUSH0 PUSH0 REVERT JUMPDEST DUP1 PUSH4 0xADB1FD06 EQ PUSH2 0x809 JUMPI DUP1 PUSH4 0xB50250A3 EQ PUSH2 0x835 JUMPI DUP1 PUSH4 0xB9A2DE3A EQ PUSH2 0x854 JUMPI PUSH0 PUSH0 REVERT JUMPDEST DUP1 PUSH4 0x95EAE396 EQ PUSH2 0x75E JUMPI DUP1 PUSH4 0x96B5A755 EQ PUSH2 0x773 JUMPI DUP1 PUSH4 0x9979EF45 EQ PUSH2 0x792 JUMPI DUP1 PUSH4 0x9F720C62 EQ PUSH2 0x7A5 JUMPI DUP1 PUSH4 0xA1F0F438 EQ PUSH2 0x7C2 JUMPI DUP1 PUSH4 0xA7CD11F0 EQ PUSH2 0x7F6 JUMPI PUSH0 PUSH0 REVERT JUMPDEST DUP1 PUSH4 0x51ED8288 GT PUSH2 0x279 JUMPI DUP1 PUSH4 0x7ADBF973 GT PUSH2 0x219 JUMPI DUP1 PUSH4 0x8456CB59 GT PUSH2 0x1F4 JUMPI DUP1 PUSH4 0x8456CB59 EQ PUSH2 0x682 JUMPI DUP1 PUSH4 0x87ED92D7 EQ PUSH2 0x696 JUMPI DUP1 PUSH4 0x8A72EA6A EQ PUSH2 0x6AA JUMPI DUP1 PUSH4 0x8DA5CB5B EQ PUSH2 0x742 JUMPI PUSH0 PUSH0 REVERT JUMPDEST DUP1 PUSH4 0x7ADBF973 EQ PUSH2 0x619 JUMPI DUP1 PUSH4 0x7DC0D1D0 EQ PUSH2 0x638 JUMPI DUP1 PUSH4 0x7DE3BD07 EQ PUSH2 0x66F JUMPI PUSH0 PUSH0 REVERT JUMPDEST DUP1 PUSH4 0x5C975ABB GT PUSH2 0x254 JUMPI DUP1 PUSH4 0x5C975ABB EQ PUSH2 0x5A9 JUMPI DUP1 PUSH4 0x61BEB1D7 EQ PUSH2 0x5D2 JUMPI DUP1 PUSH4 0x715018A6 EQ PUSH2 0x5F1 JUMPI DUP1 PUSH4 0x77F8BB6D EQ PUSH2 0x605 JUMPI PUSH0 PUSH0 REVERT JUMPDEST DUP1 PUSH4 0x51ED8288 EQ PUSH2 0x4B9 JUMPI DUP1 PUSH4 0x54D6A2B7 EQ PUSH2 0x4CC JUMPI DUP1 PUSH4 0x571A26A0 EQ PUSH2 0x4EB JUMPI PUSH0 PUSH0 REVERT JUMPDEST DUP1 PUSH4 0x22DCD13E GT PUSH2 0x2E4 JUMPI DUP1 PUSH4 0x3C44A5F0 GT PUSH2 0x2BF JUMPI DUP1 PUSH4 0x3C44A5F0 EQ PUSH2 0x45C JUMPI DUP1 PUSH4 0x3CCFD60B EQ PUSH2 0x47B JUMPI DUP1 PUSH4 0x3F4BA83A EQ PUSH2 0x48F JUMPI DUP1 PUSH4 0x3FB35178 EQ PUSH2 0x4A3 JUMPI PUSH0 PUSH0 REVERT JUMPDEST DUP1 PUSH4 0x22DCD13E EQ PUSH2 0x415 JUMPI DUP1 PUSH4 0x25481F5F EQ PUSH2 0x42A JUMPI DUP1 PUSH4 0x305A67A8 EQ PUSH2 0x43D JUMPI PUSH0 PUSH0 REVERT JUMPDEST DUP1 PUSH4 0x65DA698 EQ PUSH2 0x32B JUMPI DUP1 PUSH4 0x12E8E2C3 EQ PUSH2 0x35D JUMPI DUP1 PUSH4 0x14414CC0 EQ PUSH2 0x37E JUMPI DUP1 PUSH4 0x150B7A02 EQ PUSH2 0x393 JUMPI DUP1 PUSH4 0x1BE66284 EQ PUSH2 0x3D7 JUMPI DUP1 PUSH4 0x1BF33004 EQ PUSH2 0x3F6 JUMPI JUMPDEST PUSH0 PUSH0 REVERT JUMPDEST CALLVALUE DUP1 ISZERO PUSH2 0x336 JUMPI PUSH0 PUSH0 REVERT JUMPDEST POP PUSH2 0x34A PUSH2 0x345 CALLDATASIZE PUSH1 0x4 PUSH2 0x399E JUMP JUMPDEST PUSH2 0xC1A JUMP JUMPDEST PUSH1 0x40 MLOAD SWAP1 DUP2 MSTORE PUSH1 0x20 ADD JUMPDEST PUSH1 0x40 MLOAD DUP1 SWAP2 SUB SWAP1 RETURN JUMPDEST CALLVALUE DUP1 ISZERO PUSH2 0x368 JUMPI PUSH0 PUSH0 REVERT JUMPDEST POP PUSH2 0x37C PUSH2 0x377 CALLDATASIZE PUSH1 0x4 PUSH2 0x39DE JUMP JUMPDEST PUSH2 0xFF8 JUMP JUMPDEST STOP JUMPDEST CALLVALUE DUP1 ISZERO PUSH2 0x389 JUMPI PUSH0 PUSH0 REVERT JUMPDEST POP PUSH2 0x34A PUSH2 0x1F4 DUP2 JUMP JUMPDEST CALLVALUE DUP1 ISZERO PUSH2 0x39E JUMPI PUSH0 PUSH0 REVERT JUMPDEST POP PUSH2 0x3BE PUSH2 0x3AD CALLDATASIZE PUSH1 0x4 PUSH2 0x39F5 JUMP JUMPDEST PUSH4 0xA85BD01 PUSH1 0xE1 SHL SWAP6 SWAP5 POP POP POP POP POP JUMP JUMPDEST PUSH1 0x40 MLOAD PUSH1 0x1 PUSH1 0x1 PUSH1 0xE0 SHL SUB NOT SWAP1 SWAP2 AND DUP2 MSTORE PUSH1 0x20 ADD PUSH2 0x354 JUMP JUMPDEST CALLVALUE DUP1 ISZERO PUSH2 0x3E2 JUMPI PUSH0 PUSH0 REVERT JUMPDEST POP PUSH2 0x34A PUSH2 0x3F1 CALLDATASIZE PUSH1 0x4 PUSH2 0x39DE JUMP JUMPDEST PUSH2 0x105E JUMP JUMPDEST CALLVALUE DUP1 ISZERO PUSH2 0x401 JUMPI PUSH0 PUSH0 REVERT JUMPDEST POP PUSH2 0x37C PUSH2 0x410 CALLDATASIZE PUSH1 0x4 PUSH2 0x39DE JUMP JUMPDEST PUSH2 0x10F1 JUMP JUMPDEST CALLVALUE DUP1 ISZERO PUSH2 0x420 JUMPI PUSH0 PUSH0 REVERT JUMPDEST POP PUSH2 0x34A PUSH1 0x2 SLOAD DUP2 JUMP JUMPDEST PUSH2 0x37C PUSH2 0x438 CALLDATASIZE PUSH1 0x4 PUSH2 0x39DE JUMP JUMPDEST PUSH2 0x1490 JUMP JUMPDEST CALLVALUE DUP1 ISZERO PUSH2 0x448 JUMPI PUSH0 PUSH0 REVERT JUMPDEST POP PUSH2 0x37C PUSH2 0x457 CALLDATASIZE PUSH1 0x4 PUSH2 0x39DE JUMP JUMPDEST PUSH2 0x165F JUMP JUMPDEST CALLVALUE DUP1 ISZERO PUSH2 0x467 JUMPI PUSH0 PUSH0 REVERT JUMPDEST POP PUSH2 0x34A PUSH2 0x476 CALLDATASIZE PUSH1 0x4 PUSH2 0x3A8E JUMP JUMPDEST PUSH2 0x16FD JUMP JUMPDEST CALLVALUE DUP1 ISZERO PUSH2 0x486 JUMPI PUSH0 PUSH0 REVERT JUMPDEST POP PUSH2 0x37C PUSH2 0x171D JUMP JUMPDEST CALLVALUE DUP1 ISZERO PUSH2 0x49A JUMPI PUSH0 PUSH0 REVERT JUMPDEST POP PUSH2 0x37C PUSH2 0x1819 JUMP JUMPDEST CALLVALUE DUP1 ISZERO PUSH2 0x4AE JUMPI PUSH0 PUSH0 REVERT JUMPDEST POP PUSH2 0x34A PUSH3 0x93A80 DUP2 JUMP JUMPDEST PUSH2 0x37C PUSH2 0x4C7 CALLDATASIZE PUSH1 0x4 PUSH2 0x39DE JUMP JUMPDEST PUSH2 0x1829 JUMP JUMPDEST CALLVALUE DUP1 ISZERO PUSH2 0x4D7 JUMPI PUSH0 PUSH0 REVERT JUMPDEST POP PUSH2 0x37C PUSH2 0x4E6 CALLDATASIZE PUSH1 0x4 PUSH2 0x39DE JUMP JUMPDEST PUSH2 0x1A45 JUMP JUMPDEST CALLVALUE DUP1 ISZERO PUSH2 0x4F6 JUMPI PUSH0 PUSH0 REVERT JUMPDEST POP PUSH2 0x559 PUSH2 0x505 CALLDATASIZE PUSH1 0x4 PUSH2 0x39DE JUMP JUMPDEST PUSH1 0x9 PUSH1 0x20 MSTORE PUSH0 SWAP1 DUP2 MSTORE PUSH1 0x40 SWAP1 KECCAK256 DUP1 SLOAD PUSH1 0x1 DUP3 ADD SLOAD PUSH1 0x2 DUP4 ADD SLOAD PUSH1 0x3 DUP5 ADD SLOAD PUSH1 0x4 DUP6 ADD SLOAD PUSH1 0x5 DUP7 ADD SLOAD PUSH1 0x6 DUP8 ADD SLOAD PUSH1 0x7 SWAP1 SWAP8 ADD SLOAD PUSH1 0x1 PUSH1 0x1 PUSH1 0xA0 SHL SUB SWAP7 DUP8 AND SWAP8 SWAP6 DUP8 AND SWAP7 SWAP5 SWAP6 SWAP4 SWAP5 SWAP3 SWAP4 SWAP2 SWAP1 SWAP3 AND SWAP2 PUSH1 0xFF AND DUP9 JUMP JUMPDEST PUSH1 0x40 DUP1 MLOAD PUSH1 0x1 PUSH1 0x1 PUSH1 0xA0 SHL SUB SWAP10 DUP11 AND DUP2 MSTORE SWAP8 DUP10 AND PUSH1 0x20 DUP10 ADD MSTORE DUP8 ADD SWAP6 SWAP1 SWAP6 MSTORE PUSH1 0x60 DUP7 ADD SWAP4 SWAP1 SWAP4 MSTORE PUSH1 0x80 DUP6 ADD SWAP2 SWAP1 SWAP2 MSTORE SWAP1 SWAP4 AND PUSH1 0xA0 DUP4 ADD MSTORE PUSH1 0xC0 DUP3 ADD SWAP3 SWAP1 SWAP3 MSTORE SWAP1 ISZERO ISZERO PUSH1 0xE0 DUP3 ADD MSTORE PUSH2 0x100 ADD PUSH2 0x354 JUMP JUMPDEST CALLVALUE DUP1 ISZERO PUSH2 0x5B4 JUMPI PUSH0 PUSH0 REVERT JUMPDEST POP PUSH0 SLOAD PUSH1 0x1 PUSH1 0xA0 SHL SWAP1 DIV PUSH1 0xFF AND JUMPDEST PUSH1 0x40 MLOAD SWAP1 ISZERO ISZERO DUP2 MSTORE PUSH1 0x20 ADD PUSH2 0x354 JUMP JUMPDEST CALLVALUE DUP1 ISZERO PUSH2 0x5DD JUMPI PUSH0 PUSH0 REVERT JUMPDEST POP PUSH2 0x34A PUSH2 0x5EC CALLDATASIZE PUSH1 0x4 PUSH2 0x3A8E JUMP JUMPDEST PUSH2 0x1B83 JUMP JUMPDEST CALLVALUE DUP1 ISZERO PUSH2 0x5FC JUMPI PUSH0 PUSH0 REVERT JUMPDEST POP PUSH2 0x37C PUSH2 0x1F40 JUMP JUMPDEST CALLVALUE DUP1 ISZERO PUSH2 0x610 JUMPI PUSH0 PUSH0 REVERT JUMPDEST POP PUSH2 0x34A PUSH1 0xC8 DUP2 JUMP JUMPDEST CALLVALUE DUP1 ISZERO PUSH2 0x624 JUMPI PUSH0 PUSH0 REVERT JUMPDEST POP PUSH2 0x37C PUSH2 0x633 CALLDATASIZE PUSH1 0x4 PUSH2 0x3AC6 JUMP JUMPDEST PUSH2 0x1F51 JUMP JUMPDEST CALLVALUE DUP1 ISZERO PUSH2 0x643 JUMPI PUSH0 PUSH0 REVERT JUMPDEST POP PUSH1 0x1 SLOAD PUSH2 0x657 SWAP1 PUSH1 0x1 PUSH1 0x1 PUSH1 0xA0 SHL SUB AND DUP2 JUMP JUMPDEST PUSH1 0x40 MLOAD PUSH1 0x1 PUSH1 0x1 PUSH1 0xA0 SHL SUB SWAP1 SWAP2 AND DUP2 MSTORE PUSH1 0x20 ADD PUSH2 0x354 JUMP JUMPDEST PUSH2 0x34A PUSH2 0x67D CALLDATASIZE PUSH1 0x4 PUSH2 0x3AE1 JUMP JUMPDEST PUSH2 0x1FC9 JUMP JUMPDEST CALLVALUE DUP1 ISZERO PUSH2 0x68D JUMPI PUSH0 PUSH0 REVERT JUMPDEST POP PUSH2 0x37C PUSH2 0x2158 JUMP JUMPDEST CALLVALUE DUP1 ISZERO PUSH2 0x6A1 JUMPI PUSH0 PUSH0 REVERT JUMPDEST POP PUSH1 0x3 SLOAD PUSH2 0x34A JUMP JUMPDEST CALLVALUE DUP1 ISZERO PUSH2 0x6B5 JUMPI PUSH0 PUSH0 REVERT JUMPDEST POP PUSH2 0x708 PUSH2 0x6C4 CALLDATASIZE PUSH1 0x4 PUSH2 0x39DE JUMP JUMPDEST PUSH1 0xB PUSH1 0x20 MSTORE PUSH0 SWAP1 DUP2 MSTORE PUSH1 0x40 SWAP1 KECCAK256 DUP1 SLOAD PUSH1 0x1 DUP3 ADD SLOAD PUSH1 0x2 DUP4 ADD SLOAD PUSH1 0x3 DUP5 ADD SLOAD PUSH1 0x4 DUP6 ADD SLOAD PUSH1 0x5 SWAP1 SWAP6 ADD SLOAD PUSH1 0x1 PUSH1 0x1 PUSH1 0xA0 SHL SUB SWAP5 DUP6 AND SWAP6 SWAP4 SWAP1 SWAP5 AND SWAP4 SWAP2 SWAP3 SWAP1 SWAP2 PUSH1 0xFF AND DUP7 JUMP JUMPDEST PUSH1 0x40 DUP1 MLOAD PUSH1 0x1 PUSH1 0x1 PUSH1 0xA0 SHL SUB SWAP8 DUP9 AND DUP2 MSTORE SWAP7 SWAP1 SWAP6 AND PUSH1 0x20 DUP8 ADD MSTORE SWAP4 DUP6 ADD SWAP3 SWAP1 SWAP3 MSTORE PUSH1 0x60 DUP5 ADD MSTORE PUSH1 0x80 DUP4 ADD MSTORE ISZERO ISZERO PUSH1 0xA0 DUP3 ADD MSTORE PUSH1 0xC0 ADD PUSH2 0x354 JUMP JUMPDEST CALLVALUE DUP1 ISZERO PUSH2 0x74D JUMPI PUSH0 PUSH0 REVERT JUMPDEST POP PUSH0 SLOAD PUSH1 0x1 PUSH1 0x1 PUSH1 0xA0 SHL SUB AND PUSH2 0x657 JUMP JUMPDEST CALLVALUE DUP1 ISZERO PUSH2 0x769 JUMPI PUSH0 PUSH0 REVERT JUMPDEST POP PUSH2 0x34A PUSH2 0x12C DUP2 JUMP JUMPDEST CALLVALUE DUP1 ISZERO PUSH2 0x77E JUMPI PUSH0 PUSH0 REVERT JUMPDEST POP PUSH2 0x37C PUSH2 0x78D CALLDATASIZE PUSH1 0x4 PUSH2 0x39DE JUMP JUMPDEST PUSH2 0x2168 JUMP JUMPDEST PUSH2 0x37C PUSH2 0x7A0 CALLDATASIZE PUSH1 0x4 PUSH2 0x39DE JUMP JUMPDEST PUSH2 0x229B JUMP JUMPDEST CALLVALUE DUP1 ISZERO PUSH2 0x7B0 JUMPI PUSH0 PUSH0 REVERT JUMPDEST POP PUSH2 0x34A PUSH10 0xD3C21BCECCEDA1000000 DUP2 JUMP JUMPDEST CALLVALUE DUP1 ISZERO PUSH2 0x7CD JUMPI PUSH0 PUSH0 REVERT JUMPDEST POP PUSH2 0x7E1 PUSH2 0x7DC CALLDATASIZE PUSH1 0x4 PUSH2 0x39DE JUMP JUMPDEST PUSH2 0x24C4 JUMP JUMPDEST PUSH1 0x40 DUP1 MLOAD SWAP3 DUP4 MSTORE PUSH1 0x20 DUP4 ADD SWAP2 SWAP1 SWAP2 MSTORE ADD PUSH2 0x354 JUMP JUMPDEST PUSH2 0x34A PUSH2 0x804 CALLDATASIZE PUSH1 0x4 PUSH2 0x3B13 JUMP JUMPDEST PUSH2 0x2507 JUMP JUMPDEST CALLVALUE DUP1 ISZERO PUSH2 0x814 JUMPI PUSH0 PUSH0 REVERT JUMPDEST POP PUSH2 0x828 PUSH2 0x823 CALLDATASIZE PUSH1 0x4 PUSH2 0x3BBC JUMP JUMPDEST PUSH2 0x28BC JUMP JUMPDEST PUSH1 0x40 MLOAD PUSH2 0x354 SWAP2 SWAP1 PUSH2 0x3C6D JUMP JUMPDEST CALLVALUE DUP1 ISZERO PUSH2 0x840 JUMPI PUSH0 PUSH0 REVERT JUMPDEST POP PUSH2 0x5C2 PUSH2 0x84F CALLDATASIZE PUSH1 0x4 PUSH2 0x39DE JUMP JUMPDEST PUSH2 0x2A2E JUMP JUMPDEST CALLVALUE DUP1 ISZERO PUSH2 0x85F JUMPI PUSH0 PUSH0 REVERT JUMPDEST POP PUSH2 0x37C PUSH2 0x86E CALLDATASIZE PUSH1 0x4 PUSH2 0x39DE JUMP JUMPDEST PUSH2 0x2A58 JUMP JUMPDEST CALLVALUE DUP1 ISZERO PUSH2 0x87E JUMPI PUSH0 PUSH0 REVERT JUMPDEST POP PUSH2 0x34A PUSH2 0x3E8 DUP2 JUMP JUMPDEST CALLVALUE DUP1 ISZERO PUSH2 0x893 JUMPI PUSH0 PUSH0 REVERT JUMPDEST POP PUSH1 0x5 SLOAD PUSH2 0x34A JUMP JUMPDEST CALLVALUE DUP1 ISZERO PUSH2 0x8A7 JUMPI PUSH0 PUSH0 REVERT JUMPDEST POP PUSH2 0x34A PUSH2 0xE10 DUP2 JUMP JUMPDEST CALLVALUE DUP1 ISZERO PUSH2 0x8BC JUMPI PUSH0 PUSH0 REVERT JUMPDEST POP PUSH1 0x4 SLOAD PUSH2 0x34A JUMP JUMPDEST CALLVALUE DUP1 ISZERO PUSH2 0x8D0 JUMPI PUSH0 PUSH0 REVERT JUMPDEST POP PUSH2 0x37C PUSH2 0x8DF CALLDATASIZE PUSH1 0x4 PUSH2 0x3CAF JUMP JUMPDEST PUSH2 0x2C77 JUMP JUMPDEST CALLVALUE DUP1 ISZERO PUSH2 0x8EF JUMPI PUSH0 PUSH0 REVERT JUMPDEST POP PUSH2 0x37C PUSH2 0x8FE CALLDATASIZE PUSH1 0x4 PUSH2 0x39DE JUMP JUMPDEST PUSH2 0x2D46 JUMP JUMPDEST CALLVALUE DUP1 ISZERO PUSH2 0x90E JUMPI PUSH0 PUSH0 REVERT JUMPDEST POP PUSH2 0x7E1 PUSH2 0x91D CALLDATASIZE PUSH1 0x4 PUSH2 0x39DE JUMP JUMPDEST PUSH2 0x303C JUMP JUMPDEST CALLVALUE DUP1 ISZERO PUSH2 0x92D JUMPI PUSH0 PUSH0 REVERT JUMPDEST POP PUSH2 0x34A PUSH1 0x14 DUP2 JUMP JUMPDEST CALLVALUE DUP1 ISZERO PUSH2 0x941 JUMPI PUSH0 PUSH0 REVERT JUMPDEST POP PUSH1 0x6 SLOAD PUSH2 0x34A JUMP JUMPDEST CALLVALUE DUP1 ISZERO PUSH2 0x955 JUMPI PUSH0 PUSH0 REVERT JUMPDEST POP PUSH1 0x7 SLOAD PUSH2 0x34A JUMP JUMPDEST CALLVALUE DUP1 ISZERO PUSH2 0x969 JUMPI PUSH0 PUSH0 REVERT JUMPDEST POP PUSH2 0x37C PUSH2 0x978 CALLDATASIZE PUSH1 0x4 PUSH2 0x39DE JUMP JUMPDEST PUSH2 0x305A JUMP JUMPDEST CALLVALUE DUP1 ISZERO PUSH2 0x988 JUMPI PUSH0 PUSH0 REVERT JUMPDEST POP PUSH2 0x9DC PUSH2 0x997 CALLDATASIZE PUSH1 0x4 PUSH2 0x39DE JUMP JUMPDEST PUSH1 0x8 PUSH1 0x20 MSTORE PUSH0 SWAP1 DUP2 MSTORE PUSH1 0x40 SWAP1 KECCAK256 DUP1 SLOAD PUSH1 0x1 DUP3 ADD SLOAD PUSH1 0x2 DUP4 ADD SLOAD PUSH1 0x3 DUP5 ADD SLOAD PUSH1 0x4 DUP6 ADD SLOAD PUSH1 0x5 SWAP1 SWAP6 ADD SLOAD PUSH1 0x1 PUSH1 0x1 PUSH1 0xA0 SHL SUB SWAP5 DUP6 AND SWAP6 SWAP5 SWAP1 SWAP4 AND SWAP4 SWAP2 SWAP3 SWAP1 SWAP2 PUSH1 0xFF AND SWAP1 DUP7 JUMP JUMPDEST PUSH1 0x40 DUP1 MLOAD PUSH1 0x1 PUSH1 0x1 PUSH1 0xA0 SHL SUB SWAP8 DUP9 AND DUP2 MSTORE SWAP7 SWAP1 SWAP6 AND PUSH1 0x20 DUP8 ADD MSTORE SWAP4 DUP6 ADD SWAP3 SWAP1 SWAP3 MSTORE PUSH1 0x60 DUP5 ADD MSTORE ISZERO ISZERO PUSH1 0x80 DUP4 ADD MSTORE PUSH1 0xA0 DUP3 ADD MSTORE PUSH1 0xC0 ADD PUSH2 0x354 JUMP JUMPDEST CALLVALUE DUP1 ISZERO PUSH2 0xA21 JUMPI PUSH0 PUSH0 REVERT JUMPDEST POP PUSH2 0x34A PUSH2 0x2710 DUP2 JUMP JUMPDEST CALLVALUE DUP1 ISZERO PUSH2 0xA36 JUMPI PUSH0 PUSH0 REVERT JUMPDEST POP PUSH2 0x37C PUSH2 0xA45 CALLDATASIZE PUSH1 0x4 PUSH2 0x39DE JUMP JUMPDEST PUSH2 0x3161 JUMP JUMPDEST CALLVALUE DUP1 ISZERO PUSH2 0xA55 JUMPI PUSH0 PUSH0 REVERT JUMPDEST POP PUSH2 0xAC1 PUSH2 0xA64 CALLDATASIZE PUSH1 0x4 PUSH2 0x39DE JUMP JUMPDEST PUSH1 0xC PUSH1 0x20 MSTORE PUSH0 SWAP1 DUP2 MSTORE PUSH1 0x40 SWAP1 KECCAK256 DUP1 SLOAD PUSH1 0x1 DUP3 ADD SLOAD PUSH1 0x2 DUP4 ADD SLOAD PUSH1 0x3 DUP5 ADD SLOAD PUSH1 0x4 DUP6 ADD SLOAD PUSH1 0x5 DUP7 ADD SLOAD PUSH1 0x6 DUP8 ADD SLOAD PUSH1 0x7 DUP9 ADD SLOAD PUSH1 0x8 SWAP1 SWAP9 ADD SLOAD PUSH1 0x1 PUSH1 0x1 PUSH1 0xA0 SHL SUB SWAP8 DUP9 AND SWAP9 SWAP7 DUP9 AND SWAP8 SWAP6 DUP7 AND SWAP7 SWAP5 SWAP6 SWAP1 SWAP4 AND SWAP4 SWAP2 SWAP3 SWAP1 SWAP2 SWAP1 PUSH1 0xFF AND DUP10 JUMP JUMPDEST PUSH1 0x40 DUP1 MLOAD PUSH1 0x1 PUSH1 0x1 PUSH1 0xA0 SHL SUB SWAP11 DUP12 AND DUP2 MSTORE SWAP9 DUP11 AND PUSH1 0x20 DUP11 ADD MSTORE SWAP7 DUP10 AND SWAP7 DUP9 ADD SWAP7 SWAP1 SWAP7 MSTORE PUSH1 0x60 DUP8 ADD SWAP5 SWAP1 SWAP5 MSTORE SWAP6 SWAP1 SWAP2 AND PUSH1 0x80 DUP6 ADD MSTORE PUSH1 0xA0 DUP5 ADD MSTORE PUSH1 0xC0 DUP4 ADD SWAP4 SWAP1 SWAP4 MSTORE PUSH1 0xE0 DUP3 ADD SWAP3 SWAP1 SWAP3 MSTORE SWAP1 ISZERO ISZERO PUSH2 0x100 DUP3 ADD MSTORE PUSH2 0x120 ADD PUSH2 0x354 JUMP JUMPDEST CALLVALUE DUP1 ISZERO PUSH2 0xB27 JUMPI PUSH0 PUSH0 REVERT JUMPDEST POP PUSH2 0xB88 PUSH2 0xB36 CALLDATASIZE PUSH1 0x4 PUSH2 0x39DE JUMP JUMPDEST PUSH1 0xA PUSH1 0x20 MSTORE PUSH0 SWAP1 DUP2 MSTORE PUSH1 0x40 SWAP1 KECCAK256 DUP1 SLOAD PUSH1 0x1 DUP3 ADD SLOAD PUSH1 0x2 DUP4 ADD SLOAD PUSH1 0x3 DUP5 ADD SLOAD PUSH1 0x4 DUP6 ADD SLOAD PUSH1 0x5 DUP7 ADD SLOAD PUSH1 0x6 DUP8 ADD SLOAD PUSH1 0x7 SWAP1 SWAP8 ADD SLOAD PUSH1 0x1 PUSH1 0x1 PUSH1 0xA0 SHL SUB SWAP7 DUP8 AND SWAP8 SWAP6 SWAP1 SWAP7 AND SWAP6 SWAP4 SWAP5 SWAP3 SWAP4 SWAP2 SWAP3 SWAP1 SWAP2 PUSH1 0xFF AND DUP9 JUMP JUMPDEST PUSH1 0x40 DUP1 MLOAD PUSH1 0x1 PUSH1 0x1 PUSH1 0xA0 SHL SUB SWAP10 DUP11 AND DUP2 MSTORE SWAP9 SWAP1 SWAP8 AND PUSH1 0x20 DUP10 ADD MSTORE SWAP6 DUP8 ADD SWAP5 SWAP1 SWAP5 MSTORE PUSH1 0x60 DUP7 ADD SWAP3 SWAP1 SWAP3 MSTORE PUSH1 0x80 DUP6 ADD MSTORE PUSH1 0xA0 DUP5 ADD MSTORE PUSH1 0xC0 DUP4 ADD MSTORE ISZERO ISZERO PUSH1 0xE0 DUP3 ADD MSTORE PUSH2 0x100 ADD PUSH2 0x354 JUMP JUMPDEST CALLVALUE DUP1 ISZERO PUSH2 0xBDB JUMPI PUSH0 PUSH0 REVERT JUMPDEST POP PUSH2 0x37C PUSH2 0xBEA CALLDATASIZE PUSH1 0x4 PUSH2 0x3AC6 JUMP JUMPDEST PUSH2 0x321F JUMP JUMPDEST CALLVALUE DUP1 ISZERO PUSH2 0xBFA JUMPI PUSH0 PUSH0 REVERT JUMPDEST POP PUSH2 0x34A PUSH2 0xC09 CALLDATASIZE PUSH1 0x4 PUSH2 0x3AC6 JUMP JUMPDEST PUSH1 0xD PUSH1 0x20 MSTORE PUSH0 SWAP1 DUP2 MSTORE PUSH1 0x40 SWAP1 KECCAK256 SLOAD DUP2 JUMP JUMPDEST PUSH0 PUSH2 0xC23 PUSH2 0x325E JUMP JUMPDEST PUSH2 0xC2B PUSH2 0x3279 JUMP JUMPDEST DUP4 PUSH0 SUB PUSH2 0xC4B JUMPI PUSH1 0x40 MLOAD PUSH4 0x7294708F PUSH1 0xE1 SHL DUP2 MSTORE PUSH1 0x4 ADD PUSH1 0x40 MLOAD DUP1 SWAP2 SUB SWAP1 REVERT JUMPDEST DUP4 DUP4 LT PUSH2 0xC6B JUMPI PUSH1 0x40 MLOAD PUSH4 0x5E9E0DFD PUSH1 0xE0 SHL DUP2 MSTORE PUSH1 0x4 ADD PUSH1 0x40 MLOAD DUP1 SWAP2 SUB SWAP1 REVERT JUMPDEST PUSH2 0xE10 DUP3 LT DUP1 PUSH2 0xC7D JUMPI POP PUSH3 0x93A80 DUP3 GT JUMPDEST ISZERO PUSH2 0xC9B JUMPI PUSH1 0x40 MLOAD PUSH4 0x76166401 PUSH1 0xE0 SHL DUP2 MSTORE PUSH1 0x4 ADD PUSH1 0x40 MLOAD DUP1 SWAP2 SUB SWAP1 REVERT JUMPDEST PUSH1 0x40 MLOAD PUSH4 0x31A9108F PUSH1 0xE1 SHL DUP2 MSTORE PUSH1 0x4 DUP2 ADD DUP7 SWAP1 MSTORE DUP7 SWAP1 CALLER SWAP1 PUSH1 0x1 PUSH1 0x1 PUSH1 0xA0 SHL SUB DUP4 AND SWAP1 PUSH4 0x6352211E SWAP1 PUSH1 0x24 ADD PUSH1 0x20 PUSH1 0x40 MLOAD DUP1 DUP4 SUB DUP2 DUP7 GAS STATICCALL ISZERO DUP1 ISZERO PUSH2 0xCE2 JUMPI RETURNDATASIZE PUSH0 PUSH0 RETURNDATACOPY RETURNDATASIZE PUSH0 REVERT JUMPDEST POP POP POP POP PUSH1 0x40 MLOAD RETURNDATASIZE PUSH1 0x1F NOT PUSH1 0x1F DUP3 ADD AND DUP3 ADD DUP1 PUSH1 0x40 MSTORE POP DUP2 ADD SWAP1 PUSH2 0xD06 SWAP2 SWAP1 PUSH2 0x3CCF JUMP JUMPDEST PUSH1 0x1 PUSH1 0x1 PUSH1 0xA0 SHL SUB AND EQ PUSH2 0xD2D JUMPI PUSH1 0x40 MLOAD PUSH4 0x59DC379F PUSH1 0xE0 SHL DUP2 MSTORE PUSH1 0x4 ADD PUSH1 0x40 MLOAD DUP1 SWAP2 SUB SWAP1 REVERT JUMPDEST PUSH1 0x40 MLOAD PUSH4 0x20604BF PUSH1 0xE2 SHL DUP2 MSTORE PUSH1 0x4 DUP2 ADD DUP8 SWAP1 MSTORE ADDRESS SWAP1 PUSH1 0x1 PUSH1 0x1 PUSH1 0xA0 SHL SUB DUP4 AND SWAP1 PUSH4 0x81812FC SWAP1 PUSH1 0x24 ADD PUSH1 0x20 PUSH1 0x40 MLOAD DUP1 DUP4 SUB DUP2 DUP7 GAS STATICCALL ISZERO DUP1 ISZERO PUSH2 0xD72 JUMPI RETURNDATASIZE PUSH0 PUSH0 RETURNDATACOPY RETURNDATASIZE PUSH0 REVERT JUMPDEST POP POP POP POP PUSH1 0x40 MLOAD RETURNDATASIZE PUSH1 0x1F NOT PUSH1 0x1F DUP3 ADD AND DUP3 ADD DUP1 PUSH1 0x40 MSTORE POP DUP2 ADD SWAP1 PUSH2 0xD96 SWAP2 SWAP1 PUSH2 0x3CCF JUMP JUMPDEST PUSH1 0x1 PUSH1 0x1 PUSH1 0xA0 SHL SUB AND EQ ISZERO DUP1 ISZERO PUSH2 0xE16 JUMPI POP PUSH1 0x40 MLOAD PUSH4 0xE985E9C5 PUSH1 0xE0 SHL DUP2 MSTORE CALLER PUSH1 0x4 DUP3 ADD MSTORE ADDRESS PUSH1 0x24 DUP3 ADD MSTORE PUSH1 0x1 PUSH1 0x1 PUSH1 0xA0 SHL SUB DUP3 AND SWAP1 PUSH4 0xE985E9C5 SWAP1 PUSH1 0x44 ADD PUSH1 0x20 PUSH1 0x40 MLOAD DUP1 DUP4 SUB DUP2 DUP7 GAS STATICCALL ISZERO DUP1 ISZERO PUSH2 0xDF0 JUMPI RETURNDATASIZE PUSH0 PUSH0 RETURNDATACOPY RETURNDATASIZE PUSH0 REVERT JUMPDEST POP POP POP POP PUSH1 0x40 MLOAD RETURNDATASIZE PUSH1 0x1F NOT PUSH1 0x1F DUP3 ADD AND DUP3 ADD DUP1 PUSH1 0x40 MSTORE POP DUP2 ADD SWAP1 PUSH2 0xE14 SWAP2 SWAP1 PUSH2 0x3CEA JUMP JUMPDEST ISZERO JUMPDEST ISZERO PUSH2 0xE34 JUMPI PUSH1 0x40 MLOAD PUSH4 0xA9248D25 PUSH1 0xE0 SHL DUP2 MSTORE PUSH1 0x4 ADD PUSH1 0x40 MLOAD DUP1 SWAP2 SUB SWAP1 REVERT JUMPDEST PUSH1 0x40 MLOAD PUSH4 0x23B872DD PUSH1 0xE0 SHL DUP2 MSTORE PUSH1 0x1 PUSH1 0x1 PUSH1 0xA0 SHL SUB DUP3 AND SWAP1 PUSH4 0x23B872DD SWAP1 PUSH2 0xE64 SWAP1 CALLER SWAP1 ADDRESS SWAP1 DUP12 SWAP1 PUSH1 0x4 ADD PUSH2 0x3D09 JUMP JUMPDEST PUSH0 PUSH1 0x40 MLOAD DUP1 DUP4 SUB DUP2 PUSH0 DUP8 DUP1 EXTCODESIZE ISZERO DUP1 ISZERO PUSH2 0xE7B JUMPI PUSH0 PUSH0 REVERT JUMPDEST POP GAS CALL ISZERO DUP1 ISZERO PUSH2 0xE8D JUMPI RETURNDATASIZE PUSH0 PUSH0 RETURNDATACOPY RETURNDATASIZE PUSH0 REVERT JUMPDEST POP POP PUSH1 0x5 DUP1 SLOAD PUSH0 SWAP4 POP SWAP2 POP DUP3 PUSH2 0xEA2 DUP4 PUSH2 0x3D41 JUMP JUMPDEST SWAP2 SWAP1 POP SSTORE SWAP1 POP PUSH1 0x40 MLOAD DUP1 PUSH2 0x100 ADD PUSH1 0x40 MSTORE DUP1 CALLER PUSH1 0x1 PUSH1 0x1 PUSH1 0xA0 SHL SUB AND DUP2 MSTORE PUSH1 0x20 ADD DUP10 PUSH1 0x1 PUSH1 0x1 PUSH1 0xA0 SHL SUB AND DUP2 MSTORE PUSH1 0x20 ADD DUP9 DUP2 MSTORE PUSH1 0x20 ADD DUP8 DUP2 MSTORE PUSH1 0x20 ADD DUP7 DUP2 MSTORE PUSH1 0x20 ADD TIMESTAMP DUP2 MSTORE PUSH1 0x20 ADD DUP6 TIMESTAMP PUSH2 0xEF6 SWAP2 SWAP1 PUSH2 0x3D59 JUMP JUMPDEST DUP2 MSTORE PUSH0 PUSH1 0x20 SWAP2 DUP3 ADD DUP2 SWAP1 MSTORE DUP4 DUP2 MSTORE PUSH1 0xA DUP3 MSTORE PUSH1 0x40 SWAP1 DUP2 SWAP1 KECCAK256 DUP4 MLOAD DUP2 SLOAD PUSH1 0x1 PUSH1 0x1 PUSH1 0xA0 SHL SUB NOT SWAP1 DUP2 AND PUSH1 0x1 PUSH1 0x1 PUSH1 0xA0 SHL SUB SWAP3 DUP4 AND OR DUP4 SSTORE SWAP4 DUP6 ADD MLOAD PUSH1 0x1 DUP4 ADD DUP1 SLOAD SWAP1 SWAP6 AND SWAP2 AND OR SWAP1 SWAP3 SSTORE DUP3 ADD MLOAD PUSH1 0x2 DUP3 ADD SSTORE PUSH1 0x60 DUP3 ADD MLOAD PUSH1 0x3 DUP3 ADD SSTORE PUSH1 0x80 DUP3 ADD MLOAD PUSH1 0x4 DUP3 ADD SSTORE PUSH1 0xA0 DUP3 ADD MLOAD PUSH1 0x5 DUP3 ADD SSTORE PUSH1 0xC0 DUP3 ADD MLOAD PUSH1 0x6 DUP3 ADD SSTORE PUSH1 0xE0 SWAP1 SWAP2 ADD MLOAD PUSH1 0x7 SWAP1 SWAP2 ADD DUP1 SLOAD PUSH1 0xFF NOT AND SWAP2 ISZERO ISZERO SWAP2 SWAP1 SWAP2 OR SWAP1 SSTORE CALLER DUP2 PUSH32 0x35FCDD210845C48FEBF8DC54033B59CADF5F93C028FB1230842033E4EA689799 DUP9 DUP9 PUSH2 0xFB8 DUP10 TIMESTAMP PUSH2 0x3D59 JUMP JUMPDEST PUSH1 0x40 DUP1 MLOAD SWAP4 DUP5 MSTORE PUSH1 0x20 DUP5 ADD SWAP3 SWAP1 SWAP3 MSTORE SWAP1 DUP3 ADD MSTORE PUSH1 0x60 ADD PUSH1 0x40 MLOAD DUP1 SWAP2 SUB SWAP1 LOG3 SWAP2 POP POP PUSH2 0xFEF PUSH1 0x1 PUSH0 MLOAD PUSH1 0x20 PUSH2 0x3E32 PUSH0 CODECOPY PUSH0 MLOAD SWAP1 PUSH0 MSTORE SSTORE JUMP JUMPDEST SWAP6 SWAP5 POP POP POP POP POP JUMP JUMPDEST PUSH2 0x1000 PUSH2 0x32A3 JUMP JUMPDEST PUSH2 0x3E8 DUP2 GT ISZERO PUSH2 0x1023 JUMPI PUSH1 0x40 MLOAD PUSH4 0xCD4E6167 PUSH1 0xE0 SHL DUP2 MSTORE PUSH1 0x4 ADD PUSH1 0x40 MLOAD DUP1 SWAP2 SUB SWAP1 REVERT JUMPDEST PUSH1 0x2 DUP2 SWAP1 SSTORE PUSH1 0x40 MLOAD DUP2 DUP2 MSTORE PUSH32 0x45610D581145924DD7090A5017E5F2B1D6F42213BB2E95707FF86846BBFCB1CA SWAP1 PUSH1 0x20 ADD PUSH1 0x40 MLOAD DUP1 SWAP2 SUB SWAP1 LOG1 POP JUMP JUMPDEST PUSH0 DUP2 DUP2 MSTORE PUSH1 0xA PUSH1 0x20 MSTORE PUSH1 0x40 DUP2 KECCAK256 PUSH1 0x6 DUP2 ADD SLOAD TIMESTAMP LT PUSH2 0x1080 JUMPI PUSH1 0x4 ADD SLOAD SWAP3 SWAP2 POP POP JUMP JUMPDEST PUSH0 DUP2 PUSH1 0x5 ADD SLOAD TIMESTAMP PUSH2 0x1091 SWAP2 SWAP1 PUSH2 0x3D72 JUMP JUMPDEST SWAP1 POP PUSH0 DUP3 PUSH1 0x5 ADD SLOAD DUP4 PUSH1 0x6 ADD SLOAD PUSH2 0x10A8 SWAP2 SWAP1 PUSH2 0x3D72 JUMP JUMPDEST SWAP1 POP PUSH0 DUP2 DUP4 DUP6 PUSH1 0x4 ADD SLOAD DUP7 PUSH1 0x3 ADD SLOAD PUSH2 0x10C1 SWAP2 SWAP1 PUSH2 0x3D72 JUMP JUMPDEST PUSH2 0x10CB SWAP2 SWAP1 PUSH2 0x3D85 JUMP JUMPDEST PUSH2 0x10D5 SWAP2 SWAP1 PUSH2 0x3D9C JUMP JUMPDEST SWAP1 POP DUP1 DUP5 PUSH1 0x3 ADD SLOAD PUSH2 0x10E7 SWAP2 SWAP1 PUSH2 0x3D72 JUMP JUMPDEST SWAP7 SWAP6 POP POP POP POP POP POP JUMP JUMPDEST PUSH2 0x10F9 PUSH2 0x325E JUMP JUMPDEST PUSH2 0x1101 PUSH2 0x3279 JUMP JUMPDEST PUSH0 DUP2 DUP2 MSTORE PUSH1 0xC PUSH1 0x20 MSTORE PUSH1 0x40 SWAP1 KECCAK256 PUSH1 0x8 DUP2 ADD SLOAD PUSH1 0xFF AND PUSH2 0x1133 JUMPI PUSH1 0x40 MLOAD PUSH4 0xCAC0F49D PUSH1 0xE0 SHL DUP2 MSTORE PUSH1 0x4 ADD PUSH1 0x40 MLOAD DUP1 SWAP2 SUB SWAP1 REVERT JUMPDEST PUSH1 0x1 DUP2 ADD SLOAD PUSH1 0x1 PUSH1 0x1 PUSH1 0xA0 SHL SUB AND CALLER EQ PUSH2 0x1160 JUMPI PUSH1 0x40 MLOAD PUSH4 0x89F5AD61 PUSH1 0xE0 SHL DUP2 MSTORE PUSH1 0x4 ADD PUSH1 0x40 MLOAD DUP1 SWAP2 SUB SWAP1 REVERT JUMPDEST DUP1 PUSH1 0x7 ADD SLOAD TIMESTAMP GT ISZERO PUSH2 0x1185 JUMPI PUSH1 0x40 MLOAD PUSH4 0x2B32713D PUSH1 0xE0 SHL DUP2 MSTORE PUSH1 0x4 ADD PUSH1 0x40 MLOAD DUP1 SWAP2 SUB SWAP1 REVERT JUMPDEST PUSH1 0x4 DUP2 DUP2 ADD SLOAD PUSH1 0x5 DUP4 ADD SLOAD PUSH1 0x40 MLOAD PUSH4 0x31A9108F PUSH1 0xE1 SHL DUP2 MSTORE SWAP3 DUP4 ADD MSTORE PUSH1 0x1 PUSH1 0x1 PUSH1 0xA0 SHL SUB AND SWAP1 CALLER SWAP1 DUP3 SWAP1 PUSH4 0x6352211E SWAP1 PUSH1 0x24 ADD PUSH1 0x20 PUSH1 0x40 MLOAD DUP1 DUP4 SUB DUP2 DUP7 GAS STATICCALL ISZERO DUP1 ISZERO PUSH2 0x11D3 JUMPI RETURNDATASIZE PUSH0 PUSH0 RETURNDATACOPY RETURNDATASIZE PUSH0 REVERT JUMPDEST POP POP POP POP PUSH1 0x40 MLOAD RETURNDATASIZE PUSH1 0x1F NOT PUSH1 0x1F DUP3 ADD AND DUP3 ADD DUP1 PUSH1 0x40 MSTORE POP DUP2 ADD SWAP1 PUSH2 0x11F7 SWAP2 SWAP1 PUSH2 0x3CCF JUMP JUMPDEST PUSH1 0x1 PUSH1 0x1 PUSH1 0xA0 SHL SUB AND EQ PUSH2 0x121E JUMPI PUSH1 0x40 MLOAD PUSH4 0x59DC379F PUSH1 0xE0 SHL DUP2 MSTORE PUSH1 0x4 ADD PUSH1 0x40 MLOAD DUP1 SWAP2 SUB SWAP1 REVERT JUMPDEST PUSH1 0x5 DUP3 ADD SLOAD PUSH1 0x40 MLOAD PUSH4 0x20604BF PUSH1 0xE2 SHL DUP2 MSTORE ADDRESS SWAP2 PUSH1 0x1 PUSH1 0x1 PUSH1 0xA0 SHL SUB DUP5 AND SWAP2 PUSH4 0x81812FC SWAP2 PUSH2 0x1253 SWAP2 PUSH1 0x4 ADD SWAP1 DUP2 MSTORE PUSH1 0x20 ADD SWAP1 JUMP JUMPDEST PUSH1 0x20 PUSH1 0x40 MLOAD DUP1 DUP4 SUB DUP2 DUP7 GAS STATICCALL ISZERO DUP1 ISZERO PUSH2 0x126E JUMPI RETURNDATASIZE PUSH0 PUSH0 RETURNDATACOPY RETURNDATASIZE PUSH0 REVERT JUMPDEST POP POP POP POP PUSH1 0x40 MLOAD RETURNDATASIZE PUSH1 0x1F NOT PUSH1 0x1F DUP3 ADD AND DUP3 ADD DUP1 PUSH1 0x40 MSTORE POP DUP2 ADD SWAP1 PUSH2 0x1292 SWAP2 SWAP1 PUSH2 0x3CCF JUMP JUMPDEST PUSH1 0x1 PUSH1 0x1 PUSH1 0xA0 SHL SUB AND EQ ISZERO DUP1 ISZERO PUSH2 0x1312 JUMPI POP PUSH1 0x40 MLOAD PUSH4 0xE985E9C5 PUSH1 0xE0 SHL DUP2 MSTORE CALLER PUSH1 0x4 DUP3 ADD MSTORE ADDRESS PUSH1 0x24 DUP3 ADD MSTORE PUSH1 0x1 PUSH1 0x1 PUSH1 0xA0 SHL SUB DUP3 AND SWAP1 PUSH4 0xE985E9C5 SWAP1 PUSH1 0x44 ADD PUSH1 0x20 PUSH1 0x40 MLOAD DUP1 DUP4 SUB DUP2 DUP7 GAS STATICCALL ISZERO DUP1 ISZERO PUSH2 0x12EC JUMPI RETURNDATASIZE PUSH0 PUSH0 RETURNDATACOPY RETURNDATASIZE PUSH0 REVERT JUMPDEST POP POP POP POP PUSH1 0x40 MLOAD RETURNDATASIZE PUSH1 0x1F NOT PUSH1 0x1F DUP3 ADD AND DUP3 ADD DUP1 PUSH1 0x40 MSTORE POP DUP2 ADD SWAP1 PUSH2 0x1310 SWAP2 SWAP1 PUSH2 0x3CEA JUMP JUMPDEST ISZERO JUMPDEST ISZERO PUSH2 0x1330 JUMPI PUSH1 0x40 MLOAD PUSH4 0xA9248D25 PUSH1 0xE0 SHL DUP2 MSTORE PUSH1 0x4 ADD PUSH1 0x40 MLOAD DUP1 SWAP2 SUB SWAP1 REVERT JUMPDEST PUSH1 0x8 DUP3 ADD DUP1 SLOAD PUSH1 0xFF NOT AND SWAP1 SSTORE PUSH1 0x6 DUP3 ADD SLOAD ISZERO PUSH2 0x1372 JUMPI PUSH1 0x4 DUP3 ADD SLOAD PUSH1 0x5 DUP4 ADD SLOAD PUSH1 0x1 DUP5 ADD SLOAD PUSH1 0x6 DUP6 ADD SLOAD PUSH2 0x1372 SWAP4 PUSH1 0x1 PUSH1 0x1 PUSH1 0xA0 SHL SUB SWAP1 DUP2 AND SWAP4 SWAP3 AND SWAP1 PUSH2 0x32CF JUMP JUMPDEST PUSH1 0x2 DUP3 ADD SLOAD PUSH1 0x1 DUP4 ADD SLOAD PUSH1 0x3 DUP5 ADD SLOAD PUSH1 0x40 MLOAD PUSH4 0x21421707 PUSH1 0xE1 SHL DUP2 MSTORE PUSH1 0x1 PUSH1 0x1 PUSH1 0xA0 SHL SUB SWAP4 DUP5 AND SWAP4 PUSH4 0x42842E0E SWAP4 PUSH2 0x13B3 SWAP4 ADDRESS SWAP4 SWAP3 SWAP1 SWAP2 AND SWAP2 PUSH1 0x4 ADD PUSH2 0x3D09 JUMP JUMPDEST PUSH0 PUSH1 0x40 MLOAD DUP1 DUP4 SUB DUP2 PUSH0 DUP8 DUP1 EXTCODESIZE ISZERO DUP1 ISZERO PUSH2 0x13CA JUMPI PUSH0 PUSH0 REVERT JUMPDEST POP GAS CALL ISZERO DUP1 ISZERO PUSH2 0x13DC JUMPI RETURNDATASIZE PUSH0 PUSH0 RETURNDATACOPY RETURNDATASIZE PUSH0 REVERT JUMPDEST POP POP POP PUSH1 0x1 DUP4 ADD SLOAD DUP4 SLOAD PUSH1 0x5 DUP6 ADD SLOAD PUSH1 0x40 MLOAD PUSH4 0x21421707 PUSH1 0xE1 SHL DUP2 MSTORE PUSH1 0x1 PUSH1 0x1 PUSH1 0xA0 SHL SUB DUP1 DUP8 AND SWAP6 POP PUSH4 0x42842E0E SWAP5 PUSH2 0x141E SWAP5 SWAP1 DUP3 AND SWAP4 SWAP2 AND SWAP2 PUSH1 0x4 ADD PUSH2 0x3D09 JUMP JUMPDEST PUSH0 PUSH1 0x40 MLOAD DUP1 DUP4 SUB DUP2 PUSH0 DUP8 DUP1 EXTCODESIZE ISZERO DUP1 ISZERO PUSH2 0x1435 JUMPI PUSH0 PUSH0 REVERT JUMPDEST POP GAS CALL ISZERO DUP1 ISZERO PUSH2 0x1447 JUMPI RETURNDATASIZE PUSH0 PUSH0 RETURNDATACOPY RETURNDATASIZE PUSH0 REVERT JUMPDEST POP POP PUSH1 0x40 MLOAD DUP6 SWAP3 POP PUSH32 0x8D92C805C252261FCFFF21EE60740EB8A38922469A7E6EE396976D57C22FC1C9 SWAP2 POP PUSH0 SWAP1 LOG2 POP POP PUSH2 0x148D PUSH1 0x1 PUSH0 MLOAD PUSH1 0x20 PUSH2 0x3E32 PUSH0 CODECOPY PUSH0 MLOAD SWAP1 PUSH0 MSTORE SSTORE JUMP JUMPDEST POP JUMP JUMPDEST PUSH2 0x1498 PUSH2 0x325E JUMP JUMPDEST PUSH2 0x14A0 PUSH2 0x3279 JUMP JUMPDEST PUSH0 DUP2 DUP2 MSTORE PUSH1 0xA PUSH1 0x20 MSTORE PUSH1 0x40 SWAP1 KECCAK256 PUSH1 0x7 DUP2 ADD SLOAD PUSH1 0xFF AND ISZERO PUSH2 0x14D3 JUMPI PUSH1 0x40 MLOAD PUSH4 0x4B74DC97 PUSH1 0xE1 SHL DUP2 MSTORE PUSH1 0x4 ADD PUSH1 0x40 MLOAD DUP1 SWAP2 SUB SWAP1 REVERT JUMPDEST DUP1 SLOAD PUSH1 0x1 PUSH1 0x1 PUSH1 0xA0 SHL SUB AND CALLER SUB PUSH2 0x14FD JUMPI PUSH1 0x40 MLOAD PUSH4 0x2AA3C9E9 PUSH1 0xE0 SHL DUP2 MSTORE PUSH1 0x4 ADD PUSH1 0x40 MLOAD DUP1 SWAP2 SUB SWAP1 REVERT JUMPDEST PUSH0 PUSH2 0x1507 DUP4 PUSH2 0x105E JUMP JUMPDEST SWAP1 POP PUSH0 PUSH2 0x1513 DUP3 PUSH2 0x3478 JUMP JUMPDEST SWAP1 POP DUP1 CALLVALUE LT ISZERO PUSH2 0x1536 JUMPI PUSH1 0x40 MLOAD PUSH4 0xCD1C8867 PUSH1 0xE0 SHL DUP2 MSTORE PUSH1 0x4 ADD PUSH1 0x40 MLOAD DUP1 SWAP2 SUB SWAP1 REVERT JUMPDEST PUSH1 0x7 DUP4 ADD DUP1 SLOAD PUSH1 0xFF NOT AND PUSH1 0x1 SWAP1 DUP2 OR SWAP1 SWAP2 SSTORE DUP4 ADD SLOAD PUSH1 0x2 DUP5 ADD SLOAD DUP5 SLOAD PUSH2 0x156A SWAP3 PUSH1 0x1 PUSH1 0x1 PUSH1 0xA0 SHL SUB SWAP1 DUP2 AND SWAP3 SWAP2 AND DUP5 PUSH2 0x32CF JUMP JUMPDEST PUSH0 PUSH2 0x1575 DUP3 CALLVALUE PUSH2 0x3D72 JUMP JUMPDEST SWAP1 POP DUP1 ISZERO PUSH2 0x15A1 JUMPI CALLER PUSH0 SWAP1 DUP2 MSTORE PUSH1 0xD PUSH1 0x20 MSTORE PUSH1 0x40 DUP2 KECCAK256 DUP1 SLOAD DUP4 SWAP3 SWAP1 PUSH2 0x159B SWAP1 DUP5 SWAP1 PUSH2 0x3D59 JUMP JUMPDEST SWAP1 SWAP2 SSTORE POP POP JUMPDEST PUSH1 0x1 DUP5 ADD SLOAD PUSH1 0x2 DUP6 ADD SLOAD PUSH1 0x40 MLOAD PUSH4 0x21421707 PUSH1 0xE1 SHL DUP2 MSTORE PUSH1 0x1 PUSH1 0x1 PUSH1 0xA0 SHL SUB SWAP1 SWAP3 AND SWAP2 PUSH4 0x42842E0E SWAP2 PUSH2 0x15DA SWAP2 ADDRESS SWAP2 CALLER SWAP2 PUSH1 0x4 ADD PUSH2 0x3D09 JUMP JUMPDEST PUSH0 PUSH1 0x40 MLOAD DUP1 DUP4 SUB DUP2 PUSH0 DUP8 DUP1 EXTCODESIZE ISZERO DUP1 ISZERO PUSH2 0x15F1 JUMPI PUSH0 PUSH0 REVERT JUMPDEST POP GAS CALL ISZERO DUP1 ISZERO PUSH2 0x1603 JUMPI RETURNDATASIZE PUSH0 PUSH0 RETURNDATACOPY RETURNDATASIZE PUSH0 REVERT JUMPDEST POP POP PUSH1 0x40 DUP1 MLOAD DUP7 DUP2 MSTORE PUSH1 0x20 DUP2 ADD DUP7 SWAP1 MSTORE CALLER SWAP4 POP DUP9 SWAP3 POP PUSH32 0x8AF6336C121868ADF8C691A0FF68A8D1F4A926EFDECA3B662FBC6C7931B370A SWAP2 ADD JUMPDEST PUSH1 0x40 MLOAD DUP1 SWAP2 SUB SWAP1 LOG3 POP POP POP POP PUSH2 0x148D PUSH1 0x1 PUSH0 MLOAD PUSH1 0x20 PUSH2 0x3E32 PUSH0 CODECOPY PUSH0 MLOAD SWAP1 PUSH0 MSTORE SSTORE JUMP JUMPDEST PUSH2 0x1667 PUSH2 0x3279 JUMP JUMPDEST PUSH0 DUP2 DUP2 MSTORE PUSH1 0x8 PUSH1 0x20 MSTORE PUSH1 0x40 SWAP1 KECCAK256 PUSH1 0x4 DUP2 ADD SLOAD PUSH1 0xFF AND PUSH2 0x1699 JUMPI PUSH1 0x40 MLOAD PUSH4 0x66CB03E9 PUSH1 0xE0 SHL DUP2 MSTORE PUSH1 0x4 ADD PUSH1 0x40 MLOAD DUP1 SWAP2 SUB SWAP1 REVERT JUMPDEST DUP1 SLOAD PUSH1 0x1 PUSH1 0x1 PUSH1 0xA0 SHL SUB AND CALLER EQ PUSH2 0x16C3 JUMPI PUSH1 0x40 MLOAD PUSH4 0x22087F49 PUSH1 0xE1 SHL DUP2 MSTORE PUSH1 0x4 ADD PUSH1 0x40 MLOAD DUP1 SWAP2 SUB SWAP1 REVERT JUMPDEST PUSH1 0x4 DUP2 ADD DUP1 SLOAD PUSH1 0xFF NOT AND SWAP1 SSTORE PUSH1 0x40 MLOAD DUP3 SWAP1 PUSH32 0x411AEE90354C51B1B04CD563FCAB2617142A9D50DA19232D888547C8A1B7FD8A SWAP1 PUSH0 SWAP1 LOG2 POP POP JUMP JUMPDEST PUSH0 PUSH2 0x1706 PUSH2 0x3279 JUMP JUMPDEST PUSH2 0x1712 DUP6 DUP6 DUP6 DUP6 PUSH2 0x3563 JUMP JUMPDEST SWAP1 POP JUMPDEST SWAP5 SWAP4 POP POP POP POP JUMP JUMPDEST PUSH2 0x1725 PUSH2 0x325E JUMP JUMPDEST CALLER PUSH0 SWAP1 DUP2 MSTORE PUSH1 0xD PUSH1 0x20 MSTORE PUSH1 0x40 DUP2 KECCAK256 SLOAD SWAP1 DUP2 SWAP1 SUB PUSH2 0x1755 JUMPI PUSH1 0x40 MLOAD PUSH4 0x686827B PUSH1 0xE5 SHL DUP2 MSTORE PUSH1 0x4 ADD PUSH1 0x40 MLOAD DUP1 SWAP2 SUB SWAP1 REVERT JUMPDEST CALLER PUSH0 DUP2 DUP2 MSTORE PUSH1 0xD PUSH1 0x20 MSTORE PUSH1 0x40 DUP1 DUP3 KECCAK256 DUP3 SWAP1 SSTORE MLOAD SWAP1 SWAP2 SWAP1 DUP4 SWAP1 DUP4 DUP2 DUP2 DUP2 DUP6 DUP8 GAS CALL SWAP3 POP POP POP RETURNDATASIZE DUP1 PUSH0 DUP2 EQ PUSH2 0x17A3 JUMPI PUSH1 0x40 MLOAD SWAP2 POP PUSH1 0x1F NOT PUSH1 0x3F RETURNDATASIZE ADD AND DUP3 ADD PUSH1 0x40 MSTORE RETURNDATASIZE DUP3 MSTORE RETURNDATASIZE PUSH0 PUSH1 0x20 DUP5 ADD RETURNDATACOPY PUSH2 0x17A8 JUMP JUMPDEST PUSH1 0x60 SWAP2 POP JUMPDEST POP POP SWAP1 POP DUP1 PUSH2 0x17CA JUMPI PUSH1 0x40 MLOAD PUSH4 0x12171D83 PUSH1 0xE3 SHL DUP2 MSTORE PUSH1 0x4 ADD PUSH1 0x40 MLOAD DUP1 SWAP2 SUB SWAP1 REVERT JUMPDEST PUSH1 0x40 MLOAD DUP3 DUP2 MSTORE CALLER SWAP1 PUSH32 0x7084F5476618D8E60B11EF0D7D3F06914655ADB8793E28FF7F018D4C76D505D5 SWAP1 PUSH1 0x20 ADD PUSH1 0x40 MLOAD DUP1 SWAP2 SUB SWAP1 LOG2 POP POP PUSH2 0x1817 PUSH1 0x1 PUSH0 MLOAD PUSH1 0x20 PUSH2 0x3E32 PUSH0 CODECOPY PUSH0 MLOAD SWAP1 PUSH0 MSTORE SSTORE JUMP JUMPDEST JUMP JUMPDEST PUSH2 0x1821 PUSH2 0x32A3 JUMP JUMPDEST PUSH2 0x1817 PUSH2 0x384D JUMP JUMPDEST PUSH2 0x1831 PUSH2 0x325E JUMP JUMPDEST PUSH2 0x1839 PUSH2 0x3279 JUMP JUMPDEST PUSH0 DUP2 DUP2 MSTORE PUSH1 0x8 PUSH1 0x20 MSTORE PUSH1 0x40 SWAP1 KECCAK256 PUSH1 0x4 DUP2 ADD SLOAD PUSH1 0xFF AND PUSH2 0x186B JUMPI PUSH1 0x40 MLOAD PUSH4 0x66CB03E9 PUSH1 0xE0 SHL DUP2 MSTORE PUSH1 0x4 ADD PUSH1 0x40 MLOAD DUP1 SWAP2 SUB SWAP1 REVERT JUMPDEST PUSH1 0x5 DUP2 ADD SLOAD ISZERO DUP1 ISZERO SWAP1 PUSH2 0x1881 JUMPI POP DUP1 PUSH1 0x5 ADD SLOAD TIMESTAMP GT JUMPDEST ISZERO PUSH2 0x189F JUMPI PUSH1 0x40 MLOAD PUSH4 0x2EB19F9D PUSH1 0xE0 SHL DUP2 MSTORE PUSH1 0x4 ADD PUSH1 0x40 MLOAD DUP1 SWAP2 SUB SWAP1 REVERT JUMPDEST DUP1 SLOAD PUSH1 0x1 PUSH1 0x1 PUSH1 0xA0 SHL SUB AND CALLER SUB PUSH2 0x18C9 JUMPI PUSH1 0x40 MLOAD PUSH4 0x2AA3C9E9 PUSH1 0xE0 SHL DUP2 MSTORE PUSH1 0x4 ADD PUSH1 0x40 MLOAD DUP1 SWAP2 SUB SWAP1 REVERT JUMPDEST PUSH0 PUSH2 0x18D7 DUP3 PUSH1 0x3 ADD SLOAD PUSH2 0x3478 JUMP JUMPDEST SWAP1 POP DUP1 CALLVALUE LT ISZERO PUSH2 0x18FA JUMPI PUSH1 0x40 MLOAD PUSH4 0xCD1C8867 PUSH1 0xE0 SHL DUP2 MSTORE PUSH1 0x4 ADD PUSH1 0x40 MLOAD DUP1 SWAP2 SUB SWAP1 REVERT JUMPDEST PUSH0 PUSH2 0x2710 PUSH2 0x1909 PUSH1 0xC8 DUP5 PUSH2 0x3D85 JUMP JUMPDEST PUSH2 0x1913 SWAP2 SWAP1 PUSH2 0x3D9C JUMP JUMPDEST PUSH2 0x191D SWAP1 DUP4 PUSH2 0x3D59 JUMP JUMPDEST SWAP1 POP DUP1 CALLVALUE GT ISZERO PUSH2 0x1940 JUMPI PUSH1 0x40 MLOAD PUSH4 0x1E334873 PUSH1 0xE1 SHL DUP2 MSTORE PUSH1 0x4 ADD PUSH1 0x40 MLOAD DUP1 SWAP2 SUB SWAP1 REVERT JUMPDEST PUSH1 0x4 DUP4 ADD DUP1 SLOAD PUSH1 0xFF NOT AND SWAP1 SSTORE PUSH1 0x1 DUP4 ADD SLOAD PUSH1 0x2 DUP5 ADD SLOAD DUP5 SLOAD PUSH2 0x1970 SWAP3 PUSH1 0x1 PUSH1 0x1 PUSH1 0xA0 SHL SUB SWAP1 DUP2 AND SWAP3 SWAP2 AND DUP6 PUSH2 0x32CF JUMP JUMPDEST PUSH0 PUSH2 0x197B DUP4 CALLVALUE PUSH2 0x3D72 JUMP JUMPDEST SWAP1 POP DUP1 ISZERO PUSH2 0x19A7 JUMPI CALLER PUSH0 SWAP1 DUP2 MSTORE PUSH1 0xD PUSH1 0x20 MSTORE PUSH1 0x40 DUP2 KECCAK256 DUP1 SLOAD DUP4 SWAP3 SWAP1 PUSH2 0x19A1 SWAP1 DUP5 SWAP1 PUSH2 0x3D59 JUMP JUMPDEST SWAP1 SWAP2 SSTORE POP POP JUMPDEST PUSH1 0x1 DUP5 ADD SLOAD DUP5 SLOAD PUSH1 0x2 DUP7 ADD SLOAD PUSH1 0x40 MLOAD PUSH4 0x21421707 PUSH1 0xE1 SHL DUP2 MSTORE PUSH1 0x1 PUSH1 0x1 PUSH1 0xA0 SHL SUB SWAP4 DUP5 AND SWAP4 PUSH4 0x42842E0E SWAP4 PUSH2 0x19E4 SWAP4 SWAP2 AND SWAP2 CALLER SWAP2 SWAP1 PUSH1 0x4 ADD PUSH2 0x3D09 JUMP JUMPDEST PUSH0 PUSH1 0x40 MLOAD DUP1 DUP4 SUB DUP2 PUSH0 DUP8 DUP1 EXTCODESIZE ISZERO DUP1 ISZERO PUSH2 0x19FB JUMPI PUSH0 PUSH0 REVERT JUMPDEST POP GAS CALL ISZERO DUP1 ISZERO PUSH2 0x1A0D JUMPI RETURNDATASIZE PUSH0 PUSH0 RETURNDATACOPY RETURNDATASIZE PUSH0 REVERT JUMPDEST POP POP PUSH1 0x40 MLOAD DUP6 DUP2 MSTORE CALLER SWAP3 POP DUP8 SWAP2 POP PUSH32 0x66F5CD880EDF48CDDE6C966E5DA0784FCC4C5E85572B8B3B62C4357798D447D7 SWAP1 PUSH1 0x20 ADD PUSH2 0x163D JUMP JUMPDEST PUSH0 DUP2 DUP2 MSTORE PUSH1 0xC PUSH1 0x20 MSTORE PUSH1 0x40 SWAP1 KECCAK256 PUSH1 0x8 DUP2 ADD SLOAD PUSH1 0xFF AND PUSH2 0x1A77 JUMPI PUSH1 0x40 MLOAD PUSH4 0xCAC0F49D PUSH1 0xE0 SHL DUP2 MSTORE PUSH1 0x4 ADD PUSH1 0x40 MLOAD DUP1 SWAP2 SUB SWAP1 REVERT JUMPDEST DUP1 SLOAD PUSH1 0x1 PUSH1 0x1 PUSH1 0xA0 SHL SUB AND CALLER EQ PUSH2 0x1AA1 JUMPI PUSH1 0x40 MLOAD PUSH4 0x22087F49 PUSH1 0xE1 SHL DUP2 MSTORE PUSH1 0x4 ADD PUSH1 0x40 MLOAD DUP1 SWAP2 SUB SWAP1 REVERT JUMPDEST PUSH1 0x8 DUP2 ADD DUP1 SLOAD PUSH1 0xFF NOT AND SWAP1 SSTORE PUSH1 0x2 DUP2 ADD SLOAD DUP2 SLOAD PUSH1 0x3 DUP4 ADD SLOAD PUSH1 0x40 MLOAD PUSH4 0x21421707 PUSH1 0xE1 SHL DUP2 MSTORE PUSH1 0x1 PUSH1 0x1 PUSH1 0xA0 SHL SUB SWAP4 DUP5 AND SWAP4 PUSH4 0x42842E0E SWAP4 PUSH2 0x1AEB SWAP4 ADDRESS SWAP4 SWAP3 SWAP1 SWAP2 AND SWAP2 PUSH1 0x4 ADD PUSH2 0x3D09 JUMP JUMPDEST PUSH0 PUSH1 0x40 MLOAD DUP1 DUP4 SUB DUP2 PUSH0 DUP8 DUP1 EXTCODESIZE ISZERO DUP1 ISZERO PUSH2 0x1B02 JUMPI PUSH0 PUSH0 REVERT JUMPDEST POP GAS CALL ISZERO DUP1 ISZERO PUSH2 0x1B14 JUMPI RETURNDATASIZE PUSH0 PUSH0 RETURNDATACOPY RETURNDATASIZE PUSH0 REVERT JUMPDEST POP POP POP POP PUSH1 0x6 DUP2 ADD SLOAD ISZERO PUSH2 0x1B55 JUMPI PUSH1 0x6 DUP2 ADD SLOAD DUP2 SLOAD PUSH1 0x1 PUSH1 0x1 PUSH1 0xA0 SHL SUB AND PUSH0 SWAP1 DUP2 MSTORE PUSH1 0xD PUSH1 0x20 MSTORE PUSH1 0x40 DUP2 KECCAK256 DUP1 SLOAD SWAP1 SWAP2 SWAP1 PUSH2 0x1B4F SWAP1 DUP5 SWAP1 PUSH2 0x3D59 JUMP JUMPDEST SWAP1 SWAP2 SSTORE POP POP JUMPDEST PUSH1 0x40 MLOAD DUP3 SWAP1 PUSH32 0xF6B6B4F7A13F02512C1B3AA8DCC4A07D7775A6A4BECBD439EFCBD37C5408E67F SWAP1 PUSH0 SWAP1 LOG2 POP POP JUMP JUMPDEST PUSH0 PUSH2 0x1B8C PUSH2 0x325E JUMP JUMPDEST PUSH2 0x1B94 PUSH2 0x3279 JUMP JUMPDEST DUP3 PUSH0 SUB PUSH2 0x1BB4 JUMPI PUSH1 0x40 MLOAD PUSH4 0x7294708F PUSH1 0xE1 SHL DUP2 MSTORE PUSH1 0x4 ADD PUSH1 0x40 MLOAD DUP1 SWAP2 SUB SWAP1 REVERT JUMPDEST PUSH2 0xE10 DUP3 LT DUP1 PUSH2 0x1BC6 JUMPI POP PUSH3 0x93A80 DUP3 GT JUMPDEST ISZERO PUSH2 0x1BE4 JUMPI PUSH1 0x40 MLOAD PUSH4 0x76166401 PUSH1 0xE0 SHL DUP2 MSTORE PUSH1 0x4 ADD PUSH1 0x40 MLOAD DUP1 SWAP2 SUB SWAP1 REVERT JUMPDEST PUSH1 0x40 MLOAD PUSH4 0x31A9108F PUSH1 0xE1 SHL DUP2 MSTORE PUSH1 0x4 DUP2 ADD DUP6 SWAP1 MSTORE DUP6 SWAP1 CALLER SWAP1 PUSH1 0x1 PUSH1 0x1 PUSH1 0xA0 SHL SUB DUP4 AND SWAP1 PUSH4 0x6352211E SWAP1 PUSH1 0x24 ADD PUSH1 0x20 PUSH1 0x40 MLOAD DUP1 DUP4 SUB DUP2 DUP7 GAS STATICCALL ISZERO DUP1 ISZERO PUSH2 0x1C2B JUMPI RETURNDATASIZE PUSH0 PUSH0 RETURNDATACOPY RETURNDATASIZE PUSH0 REVERT JUMPDEST POP POP POP POP PUSH1 0x40 MLOAD RETURNDATASIZE PUSH1 0x1F NOT PUSH1 0x1F DUP3 ADD AND DUP3 ADD DUP1 PUSH1 0x40 MSTORE POP DUP2 ADD SWAP1 PUSH2 0x1C4F SWAP2 SWAP1 PUSH2 0x3CCF JUMP JUMPDEST PUSH1 0x1 PUSH1 0x1 PUSH1 0xA0 SHL SUB AND EQ PUSH2 0x1C76 JUMPI PUSH1 0x40 MLOAD PUSH4 0x59DC379F PUSH1 0xE0 SHL DUP2 MSTORE PUSH1 0x4 ADD PUSH1 0x40 MLOAD DUP1 SWAP2 SUB SWAP1 REVERT JUMPDEST PUSH1 0x40 MLOAD PUSH4 0x20604BF PUSH1 0xE2 SHL DUP2 MSTORE PUSH1 0x4 DUP2 ADD DUP7 SWAP1 MSTORE ADDRESS SWAP1 PUSH1 0x1 PUSH1 0x1 PUSH1 0xA0 SHL SUB DUP4 AND SWAP1 PUSH4 0x81812FC SWAP1 PUSH1 0x24 ADD PUSH1 0x20 PUSH1 0x40 MLOAD DUP1 DUP4 SUB DUP2 DUP7 GAS STATICCALL ISZERO DUP1 ISZERO PUSH2 0x1CBB JUMPI RETURNDATASIZE PUSH0 PUSH0 RETURNDATACOPY RETURNDATASIZE PUSH0 REVERT JUMPDEST POP POP POP POP PUSH1 0x40 MLOAD RETURNDATASIZE PUSH1 0x1F NOT PUSH1 0x1F DUP3 ADD AND DUP3 ADD DUP1 PUSH1 0x40 MSTORE POP DUP2 ADD SWAP1 PUSH2 0x1CDF SWAP2 SWAP1 PUSH2 0x3CCF JUMP JUMPDEST PUSH1 0x1 PUSH1 0x1 PUSH1 0xA0 SHL SUB AND EQ ISZERO DUP1 ISZERO PUSH2 0x1D5F JUMPI POP PUSH1 0x40 MLOAD PUSH4 0xE985E9C5 PUSH1 0xE0 SHL DUP2 MSTORE CALLER PUSH1 0x4 DUP3 ADD MSTORE ADDRESS PUSH1 0x24 DUP3 ADD MSTORE PUSH1 0x1 PUSH1 0x1 PUSH1 0xA0 SHL SUB DUP3 AND SWAP1 PUSH4 0xE985E9C5 SWAP1 PUSH1 0x44 ADD PUSH1 0x20 PUSH1 0x40 MLOAD DUP1 DUP4 SUB DUP2 DUP7 GAS STATICCALL ISZERO DUP1 ISZERO PUSH2 0x1D39 JUMPI RETURNDATASIZE PUSH0 PUSH0 RETURNDATACOPY RETURNDATASIZE PUSH0 REVERT JUMPDEST POP POP POP POP PUSH1 0x40 MLOAD RETURNDATASIZE PUSH1 0x1F NOT PUSH1 0x1F DUP3 ADD AND DUP3 ADD DUP1 PUSH1 0x40 MSTORE POP DUP2 ADD SWAP1 PUSH2 0x1D5D SWAP2 SWAP1 PUSH2 0x3CEA JUMP JUMPDEST ISZERO JUMPDEST ISZERO PUSH2 0x1D7D JUMPI PUSH1 0x40 MLOAD PUSH4 0xA9248D25 PUSH1 0xE0 SHL DUP2 MSTORE PUSH1 0x4 ADD PUSH1 0x40 MLOAD DUP1 SWAP2 SUB SWAP1 REVERT JUMPDEST PUSH1 0x40 MLOAD PUSH4 0x23B872DD PUSH1 0xE0 SHL DUP2 MSTORE PUSH1 0x1 PUSH1 0x1 PUSH1 0xA0 SHL SUB DUP3 AND SWAP1 PUSH4 0x23B872DD SWAP1 PUSH2 0x1DAD SWAP1 CALLER SWAP1 ADDRESS SWAP1 DUP11 SWAP1 PUSH1 0x4 ADD PUSH2 0x3D09 JUMP JUMPDEST PUSH0 PUSH1 0x40 MLOAD DUP1 DUP4 SUB DUP2 PUSH0 DUP8 DUP1 EXTCODESIZE ISZERO DUP1 ISZERO PUSH2 0x1DC4 JUMPI PUSH0 PUSH0 REVERT JUMPDEST POP GAS CALL ISZERO DUP1 ISZERO PUSH2 0x1DD6 JUMPI RETURNDATASIZE PUSH0 PUSH0 RETURNDATACOPY RETURNDATASIZE PUSH0 REVERT JUMPDEST POP POP PUSH1 0x4 DUP1 SLOAD PUSH0 SWAP4 POP SWAP2 POP DUP3 PUSH2 0x1DEB DUP4 PUSH2 0x3D41 JUMP JUMPDEST SWAP1 SWAP2 SSTORE POP PUSH1 0x40 DUP1 MLOAD PUSH2 0x100 DUP2 ADD DUP3 MSTORE CALLER DUP2 MSTORE PUSH1 0x1 PUSH1 0x1 PUSH1 0xA0 SHL SUB DUP11 AND PUSH1 0x20 DUP3 ADD MSTORE SWAP1 DUP2 ADD DUP9 SWAP1 MSTORE PUSH1 0x60 DUP2 ADD DUP8 SWAP1 MSTORE PUSH0 PUSH1 0x80 DUP3 ADD DUP2 SWAP1 MSTORE PUSH1 0xA0 DUP3 ADD MSTORE SWAP1 SWAP2 POP PUSH1 0xC0 DUP2 ADD PUSH2 0x1E37 DUP7 TIMESTAMP PUSH2 0x3D59 JUMP JUMPDEST DUP2 MSTORE PUSH0 PUSH1 0x20 SWAP2 DUP3 ADD DUP2 SWAP1 MSTORE DUP4 DUP2 MSTORE PUSH1 0x9 DUP3 MSTORE PUSH1 0x40 SWAP1 DUP2 SWAP1 KECCAK256 DUP4 MLOAD DUP2 SLOAD PUSH1 0x1 PUSH1 0x1 PUSH1 0xA0 SHL SUB NOT SWAP1 DUP2 AND PUSH1 0x1 PUSH1 0x1 PUSH1 0xA0 SHL SUB SWAP3 DUP4 AND OR DUP4 SSTORE SWAP4 DUP6 ADD MLOAD PUSH1 0x1 DUP4 ADD DUP1 SLOAD DUP7 AND SWAP2 DUP4 AND SWAP2 SWAP1 SWAP2 OR SWAP1 SSTORE SWAP2 DUP5 ADD MLOAD PUSH1 0x2 DUP3 ADD SSTORE PUSH1 0x60 DUP5 ADD MLOAD PUSH1 0x3 DUP3 ADD SSTORE PUSH1 0x80 DUP5 ADD MLOAD PUSH1 0x4 DUP3 ADD SSTORE PUSH1 0xA0 DUP5 ADD MLOAD PUSH1 0x5 DUP3 ADD DUP1 SLOAD SWAP1 SWAP5 AND SWAP1 DUP4 AND OR SWAP1 SWAP3 SSTORE PUSH1 0xC0 DUP4 ADD MLOAD PUSH1 0x6 DUP4 ADD SSTORE PUSH1 0xE0 SWAP1 SWAP3 ADD MLOAD PUSH1 0x7 SWAP1 SWAP2 ADD DUP1 SLOAD PUSH1 0xFF NOT AND SWAP2 ISZERO ISZERO SWAP2 SWAP1 SWAP2 OR SWAP1 SSTORE DUP8 AND CALLER DUP3 PUSH32 0x6B9E486C68303EB64052E0493F906F3D93A1B7149B6B8DCFF221AEBD16C3513 DUP10 DUP10 PUSH2 0x1F09 DUP11 TIMESTAMP PUSH2 0x3D59 JUMP JUMPDEST PUSH1 0x40 DUP1 MLOAD SWAP4 DUP5 MSTORE PUSH1 0x20 DUP5 ADD SWAP3 SWAP1 SWAP3 MSTORE SWAP1 DUP3 ADD MSTORE PUSH1 0x60 ADD PUSH1 0x40 MLOAD DUP1 SWAP2 SUB SWAP1 LOG4 SWAP2 POP POP PUSH2 0x1715 PUSH1 0x1 PUSH0 MLOAD PUSH1 0x20 PUSH2 0x3E32 PUSH0 CODECOPY PUSH0 MLOAD SWAP1 PUSH0 MSTORE SSTORE JUMP JUMPDEST PUSH2 0x1F48 PUSH2 0x32A3 JUMP JUMPDEST PUSH2 0x1817 PUSH0 PUSH2 0x38A1 JUMP JUMPDEST PUSH2 0x1F59 PUSH2 0x32A3 JUMP JUMPDEST PUSH1 0x1 PUSH1 0x1 PUSH1 0xA0 SHL SUB DUP2 AND PUSH2 0x1F80 JUMPI PUSH1 0x40 MLOAD PUSH4 0x3E1E5381 PUSH1 0xE2 SHL DUP2 MSTORE PUSH1 0x4 ADD PUSH1 0x40 MLOAD DUP1 SWAP2 SUB SWAP1 REVERT JUMPDEST PUSH1 0x1 DUP1 SLOAD PUSH1 0x1 PUSH1 0x1 PUSH1 0xA0 SHL SUB NOT AND PUSH1 0x1 PUSH1 0x1 PUSH1 0xA0 SHL SUB DUP4 AND SWAP1 DUP2 OR SWAP1 SWAP2 SSTORE PUSH1 0x40 MLOAD PUSH32 0x3DF77BEB5DB05FCDD70A30FC8ADF3F83F9501B68579455ADBD100B8180940394 SWAP1 PUSH0 SWAP1 LOG2 POP JUMP JUMPDEST PUSH0 PUSH2 0x1FD2 PUSH2 0x3279 JUMP JUMPDEST CALLVALUE PUSH0 SUB PUSH2 0x1FF2 JUMPI PUSH1 0x40 MLOAD PUSH4 0x7294708F PUSH1 0xE1 SHL DUP2 MSTORE PUSH1 0x4 ADD PUSH1 0x40 MLOAD DUP1 SWAP2 SUB SWAP1 REVERT JUMPDEST PUSH2 0xE10 DUP3 LT DUP1 PUSH2 0x2004 JUMPI POP PUSH3 0x93A80 DUP3 GT JUMPDEST ISZERO PUSH2 0x2022 JUMPI PUSH1 0x40 MLOAD PUSH4 0x76166401 PUSH1 0xE0 SHL DUP2 MSTORE PUSH1 0x4 ADD PUSH1 0x40 MLOAD DUP1 SWAP2 SUB SWAP1 REVERT JUMPDEST PUSH1 0x6 DUP1 SLOAD PUSH0 SWAP2 DUP3 PUSH2 0x2032 DUP4 PUSH2 0x3D41 JUMP JUMPDEST SWAP1 SWAP2 SSTORE POP PUSH1 0x40 DUP1 MLOAD PUSH1 0xC0 DUP2 ADD DUP3 MSTORE CALLER DUP2 MSTORE PUSH1 0x1 PUSH1 0x1 PUSH1 0xA0 SHL SUB DUP9 AND PUSH1 0x20 DUP3 ADD MSTORE SWAP1 DUP2 ADD DUP7 SWAP1 MSTORE CALLVALUE PUSH1 0x60 DUP3 ADD MSTORE SWAP1 SWAP2 POP PUSH1 0x80 DUP2 ADD PUSH2 0x206F DUP6 TIMESTAMP PUSH2 0x3D59 JUMP JUMPDEST DUP2 MSTORE PUSH1 0x1 PUSH1 0x20 SWAP2 DUP3 ADD DUP2 SWAP1 MSTORE PUSH0 DUP5 DUP2 MSTORE PUSH1 0xB DUP4 MSTORE PUSH1 0x40 SWAP1 DUP2 SWAP1 KECCAK256 DUP5 MLOAD DUP2 SLOAD PUSH1 0x1 PUSH1 0x1 PUSH1 0xA0 SHL SUB NOT SWAP1 DUP2 AND PUSH1 0x1 PUSH1 0x1 PUSH1 0xA0 SHL SUB SWAP3 DUP4 AND OR DUP4 SSTORE SWAP5 DUP7 ADD MLOAD SWAP4 DUP3 ADD DUP1 SLOAD SWAP1 SWAP6 AND SWAP4 AND SWAP3 SWAP1 SWAP3 OR SWAP1 SWAP3 SSTORE SWAP1 DUP3 ADD MLOAD PUSH1 0x2 DUP3 ADD SSTORE PUSH1 0x60 DUP3 ADD MLOAD PUSH1 0x3 DUP3 ADD SSTORE PUSH1 0x80 DUP3 ADD MLOAD PUSH1 0x4 DUP3 ADD SSTORE PUSH1 0xA0 SWAP1 SWAP2 ADD MLOAD PUSH1 0x5 SWAP1 SWAP2 ADD DUP1 SLOAD PUSH1 0xFF NOT AND SWAP2 ISZERO ISZERO SWAP2 SWAP1 SWAP2 OR SWAP1 SSTORE CALLER DUP2 PUSH32 0x1A8E4806E9C3198B224BF5FD328BA7488EE72334BA823076CF52DBFCE562FFAE DUP8 DUP8 CALLVALUE PUSH2 0x2123 DUP10 TIMESTAMP PUSH2 0x3D59 JUMP JUMPDEST PUSH1 0x40 DUP1 MLOAD PUSH1 0x1 PUSH1 0x1 PUSH1 0xA0 SHL SUB SWAP1 SWAP6 AND DUP6 MSTORE PUSH1 0x20 DUP6 ADD SWAP4 SWAP1 SWAP4 MSTORE SWAP2 DUP4 ADD MSTORE PUSH1 0x60 DUP3 ADD MSTORE PUSH1 0x80 ADD PUSH1 0x40 MLOAD DUP1 SWAP2 SUB SWAP1 LOG3 SWAP5 SWAP4 POP POP POP POP JUMP JUMPDEST PUSH2 0x2160 PUSH2 0x32A3 JUMP JUMPDEST PUSH2 0x1817 PUSH2 0x38F0 JUMP JUMPDEST PUSH0 DUP2 DUP2 MSTORE PUSH1 0x9 PUSH1 0x20 MSTORE PUSH1 0x40 SWAP1 KECCAK256 PUSH1 0x7 DUP2 ADD SLOAD PUSH1 0xFF AND ISZERO PUSH2 0x219B JUMPI PUSH1 0x40 MLOAD PUSH4 0xD02E774D PUSH1 0xE0 SHL DUP2 MSTORE PUSH1 0x4 ADD PUSH1 0x40 MLOAD DUP1 SWAP2 SUB SWAP1 REVERT JUMPDEST DUP1 SLOAD PUSH1 0x1 PUSH1 0x1 PUSH1 0xA0 SHL SUB AND CALLER EQ PUSH2 0x21C5 JUMPI PUSH1 0x40 MLOAD PUSH4 0x22087F49 PUSH1 0xE1 SHL DUP2 MSTORE PUSH1 0x4 ADD PUSH1 0x40 MLOAD DUP1 SWAP2 SUB SWAP1 REVERT JUMPDEST PUSH1 0x5 DUP2 ADD SLOAD PUSH1 0x1 PUSH1 0x1 PUSH1 0xA0 SHL SUB AND ISZERO PUSH2 0x21F1 JUMPI PUSH1 0x40 MLOAD PUSH4 0x35473ACB PUSH1 0xE0 SHL DUP2 MSTORE PUSH1 0x4 ADD PUSH1 0x40 MLOAD DUP1 SWAP2 SUB SWAP1 REVERT JUMPDEST PUSH1 0x7 DUP2 ADD DUP1 SLOAD PUSH1 0xFF NOT AND PUSH1 0x1 SWAP1 DUP2 OR SWAP1 SWAP2 SSTORE DUP2 ADD SLOAD DUP2 SLOAD PUSH1 0x2 DUP4 ADD SLOAD PUSH1 0x40 MLOAD PUSH4 0x21421707 PUSH1 0xE1 SHL DUP2 MSTORE PUSH1 0x1 PUSH1 0x1 PUSH1 0xA0 SHL SUB SWAP4 DUP5 AND SWAP4 PUSH4 0x42842E0E SWAP4 PUSH2 0x2240 SWAP4 ADDRESS SWAP4 SWAP2 SWAP1 SWAP3 AND SWAP2 SWAP1 PUSH1 0x4 ADD PUSH2 0x3D09 JUMP JUMPDEST PUSH0 PUSH1 0x40 MLOAD DUP1 DUP4 SUB DUP2 PUSH0 DUP8 DUP1 EXTCODESIZE ISZERO DUP1 ISZERO PUSH2 0x2257 JUMPI PUSH0 PUSH0 REVERT JUMPDEST POP GAS CALL ISZERO DUP1 ISZERO PUSH2 0x2269 JUMPI RETURNDATASIZE PUSH0 PUSH0 RETURNDATACOPY RETURNDATASIZE PUSH0 REVERT JUMPDEST POP POP PUSH1 0x40 MLOAD DUP5 SWAP3 POP PUSH32 0x2809C7E17BF978FBC7194C0A694B638C4215E9140CACC6C38CA36010B45697DF SWAP2 POP PUSH0 SWAP1 LOG2 POP POP JUMP JUMPDEST PUSH2 0x22A3 PUSH2 0x325E JUMP JUMPDEST PUSH2 0x22AB PUSH2 0x3279 JUMP JUMPDEST PUSH0 DUP2 DUP2 MSTORE PUSH1 0x9 PUSH1 0x20 MSTORE PUSH1 0x40 SWAP1 KECCAK256 PUSH1 0x7 DUP2 ADD SLOAD PUSH1 0xFF AND ISZERO PUSH2 0x22DE JUMPI PUSH1 0x40 MLOAD PUSH4 0xD02E774D PUSH1 0xE0 SHL DUP2 MSTORE PUSH1 0x4 ADD PUSH1 0x40 MLOAD DUP1 SWAP2 SUB SWAP1 REVERT JUMPDEST DUP1 PUSH1 0x6 ADD SLOAD TIMESTAMP LT PUSH2 0x2302 JUMPI PUSH1 0x40 MLOAD PUSH4 0x129799F PUSH1 0xE2 SHL DUP2 MSTORE PUSH1 0x4 ADD PUSH1 0x40 MLOAD DUP1 SWAP2 SUB SWAP1 REVERT JUMPDEST DUP1 SLOAD PUSH1 0x1 PUSH1 0x1 PUSH1 0xA0 SHL SUB AND CALLER SUB PUSH2 0x232C JUMPI PUSH1 0x40 MLOAD PUSH4 0xEF025889 PUSH1 0xE0 SHL DUP2 MSTORE PUSH1 0x4 ADD PUSH1 0x40 MLOAD DUP1 SWAP2 SUB SWAP1 REVERT JUMPDEST DUP1 PUSH1 0x3 ADD SLOAD CALLVALUE LT ISZERO PUSH2 0x2351 JUMPI PUSH1 0x40 MLOAD PUSH4 0x6CDFBD73 PUSH1 0xE0 SHL DUP2 MSTORE PUSH1 0x4 ADD PUSH1 0x40 MLOAD DUP1 SWAP2 SUB SWAP1 REVERT JUMPDEST PUSH1 0x4 DUP2 ADD SLOAD ISZERO PUSH2 0x23AF JUMPI PUSH0 PUSH2 0x2710 PUSH2 0x1F4 DUP4 PUSH1 0x4 ADD SLOAD PUSH2 0x2371 SWAP2 SWAP1 PUSH2 0x3D85 JUMP JUMPDEST PUSH2 0x237B SWAP2 SWAP1 PUSH2 0x3D9C JUMP JUMPDEST DUP3 PUSH1 0x4 ADD SLOAD PUSH2 0x238A SWAP2 SWAP1 PUSH2 0x3D59 JUMP JUMPDEST SWAP1 POP DUP1 CALLVALUE LT ISZERO PUSH2 0x23AD JUMPI PUSH1 0x40 MLOAD PUSH4 0xEC4B5EB PUSH1 0xE3 SHL DUP2 MSTORE PUSH1 0x4 ADD PUSH1 0x40 MLOAD DUP1 SWAP2 SUB SWAP1 REVERT JUMPDEST POP JUMPDEST PUSH1 0x5 DUP2 ADD SLOAD PUSH1 0x1 PUSH1 0x1 PUSH1 0xA0 SHL SUB AND ISZERO PUSH2 0x23F8 JUMPI PUSH1 0x4 DUP2 ADD SLOAD PUSH1 0x5 DUP3 ADD SLOAD PUSH1 0x1 PUSH1 0x1 PUSH1 0xA0 SHL SUB AND PUSH0 SWAP1 DUP2 MSTORE PUSH1 0xD PUSH1 0x20 MSTORE PUSH1 0x40 DUP2 KECCAK256 DUP1 SLOAD SWAP1 SWAP2 SWAP1 PUSH2 0x23F2 SWAP1 DUP5 SWAP1 PUSH2 0x3D59 JUMP JUMPDEST SWAP1 SWAP2 SSTORE POP POP JUMPDEST CALLVALUE PUSH1 0x4 DUP3 ADD SSTORE PUSH1 0x5 DUP2 ADD DUP1 SLOAD PUSH1 0x1 PUSH1 0x1 PUSH1 0xA0 SHL SUB NOT AND CALLER OR SWAP1 SSTORE PUSH1 0x6 DUP2 ADD SLOAD PUSH2 0x12C SWAP1 PUSH2 0x2426 SWAP1 TIMESTAMP SWAP1 PUSH2 0x3D72 JUMP JUMPDEST LT ISZERO PUSH2 0x2475 JUMPI PUSH2 0x2438 PUSH2 0x12C TIMESTAMP PUSH2 0x3D59 JUMP JUMPDEST PUSH1 0x6 DUP3 ADD DUP2 SWAP1 SSTORE PUSH1 0x40 MLOAD SWAP1 DUP2 MSTORE DUP3 SWAP1 PUSH32 0x6E912A3A9105BDD2AF817BA5ADC14E6C127C1035B5B648FAA29CA0D58AB8FF4E SWAP1 PUSH1 0x20 ADD PUSH1 0x40 MLOAD DUP1 SWAP2 SUB SWAP1 LOG2 JUMPDEST PUSH1 0x40 MLOAD CALLVALUE DUP2 MSTORE CALLER SWAP1 DUP4 SWAP1 PUSH32 0xE54EFF26401BF69B81B26F60BD85EF47F5D85275C1D268D84F68D6897431C47 SWAP1 PUSH1 0x20 ADD JUMPDEST PUSH1 0x40 MLOAD DUP1 SWAP2 SUB SWAP1 LOG3 POP PUSH2 0x148D PUSH1 0x1 PUSH0 MLOAD PUSH1 0x20 PUSH2 0x3E32 PUSH0 CODECOPY PUSH0 MLOAD SWAP1 PUSH0 MSTORE SSTORE JUMP JUMPDEST PUSH0 PUSH0 PUSH0 PUSH2 0x24D0 DUP5 PUSH2 0x105E JUMP JUMPDEST SWAP1 POP PUSH2 0x24DB DUP2 PUSH2 0x3478 JUMP JUMPDEST SWAP3 POP PUSH2 0x2710 PUSH2 0x24EB PUSH1 0xC8 DUP6 PUSH2 0x3D85 JUMP JUMPDEST PUSH2 0x24F5 SWAP2 SWAP1 PUSH2 0x3D9C JUMP JUMPDEST PUSH2 0x24FF SWAP1 DUP5 PUSH2 0x3D59 JUMP JUMPDEST SWAP2 POP POP SWAP2 POP SWAP2 JUMP JUMPDEST PUSH0 PUSH2 0x2510 PUSH2 0x325E JUMP JUMPDEST PUSH2 0x2518 PUSH2 0x3279 JUMP JUMPDEST PUSH2 0xE10 DUP3 LT DUP1 PUSH2 0x252A JUMPI POP PUSH3 0x93A80 DUP3 GT JUMPDEST ISZERO PUSH2 0x2548 JUMPI PUSH1 0x40 MLOAD PUSH4 0x76166401 PUSH1 0xE0 SHL DUP2 MSTORE PUSH1 0x4 ADD PUSH1 0x40 MLOAD DUP1 SWAP2 SUB SWAP1 REVERT JUMPDEST PUSH1 0x40 MLOAD PUSH4 0x31A9108F PUSH1 0xE1 SHL DUP2 MSTORE PUSH1 0x4 DUP2 ADD DUP7 SWAP1 MSTORE DUP7 SWAP1 CALLER SWAP1 PUSH1 0x1 PUSH1 0x1 PUSH1 0xA0 SHL SUB DUP4 AND SWAP1 PUSH4 0x6352211E SWAP1 PUSH1 0x24 ADD PUSH1 0x20 PUSH1 0x40 MLOAD DUP1 DUP4 SUB DUP2 DUP7 GAS STATICCALL ISZERO DUP1 ISZERO PUSH2 0x258F JUMPI RETURNDATASIZE PUSH0 PUSH0 RETURNDATACOPY RETURNDATASIZE PUSH0 REVERT JUMPDEST POP POP POP POP PUSH1 0x40 MLOAD RETURNDATASIZE PUSH1 0x1F NOT PUSH1 0x1F DUP3 ADD AND DUP3 ADD DUP1 PUSH1 0x40 MSTORE POP DUP2 ADD SWAP1 PUSH2 0x25B3 SWAP2 SWAP1 PUSH2 0x3CCF JUMP JUMPDEST PUSH1 0x1 PUSH1 0x1 PUSH1 0xA0 SHL SUB AND EQ PUSH2 0x25DA JUMPI PUSH1 0x40 MLOAD PUSH4 0x59DC379F PUSH1 0xE0 SHL DUP2 MSTORE PUSH1 0x4 ADD PUSH1 0x40 MLOAD DUP1 SWAP2 SUB SWAP1 REVERT JUMPDEST PUSH1 0x40 MLOAD PUSH4 0x20604BF PUSH1 0xE2 SHL DUP2 MSTORE PUSH1 0x4 DUP2 ADD DUP8 SWAP1 MSTORE ADDRESS SWAP1 PUSH1 0x1 PUSH1 0x1 PUSH1 0xA0 SHL SUB DUP4 AND SWAP1 PUSH4 0x81812FC SWAP1 PUSH1 0x24 ADD PUSH1 0x20 PUSH1 0x40 MLOAD DUP1 DUP4 SUB DUP2 DUP7 GAS STATICCALL ISZERO DUP1 ISZERO PUSH2 0x261F JUMPI RETURNDATASIZE PUSH0 PUSH0 RETURNDATACOPY RETURNDATASIZE PUSH0 REVERT JUMPDEST POP POP POP POP PUSH1 0x40 MLOAD RETURNDATASIZE PUSH1 0x1F NOT PUSH1 0x1F DUP3 ADD AND DUP3 ADD DUP1 PUSH1 0x40 MSTORE POP DUP2 ADD SWAP1 PUSH2 0x2643 SWAP2 SWAP1 PUSH2 0x3CCF JUMP JUMPDEST PUSH1 0x1 PUSH1 0x1 PUSH1 0xA0 SHL SUB AND EQ ISZERO DUP1 ISZERO PUSH2 0x26C3 JUMPI POP PUSH1 0x40 MLOAD PUSH4 0xE985E9C5 PUSH1 0xE0 SHL DUP2 MSTORE CALLER PUSH1 0x4 DUP3 ADD MSTORE ADDRESS PUSH1 0x24 DUP3 ADD MSTORE PUSH1 0x1 PUSH1 0x1 PUSH1 0xA0 SHL SUB DUP3 AND SWAP1 PUSH4 0xE985E9C5 SWAP1 PUSH1 0x44 ADD PUSH1 0x20 PUSH1 0x40 MLOAD DUP1 DUP4 SUB DUP2 DUP7 GAS STATICCALL ISZERO DUP1 ISZERO PUSH2 0x269D JUMPI RETURNDATASIZE PUSH0 PUSH0 RETURNDATACOPY RETURNDATASIZE PUSH0 REVERT JUMPDEST POP POP POP POP PUSH1 0x40 MLOAD RETURNDATASIZE PUSH1 0x1F NOT PUSH1 0x1F DUP3 ADD AND DUP3 ADD DUP1 PUSH1 0x40 MSTORE POP DUP2 ADD SWAP1 PUSH2 0x26C1 SWAP2 SWAP1 PUSH2 0x3CEA JUMP JUMPDEST ISZERO JUMPDEST ISZERO PUSH2 0x26E1 JUMPI PUSH1 0x40 MLOAD PUSH4 0xA9248D25 PUSH1 0xE0 SHL DUP2 MSTORE PUSH1 0x4 ADD PUSH1 0x40 MLOAD DUP1 SWAP2 SUB SWAP1 REVERT JUMPDEST PUSH1 0x40 MLOAD PUSH4 0x23B872DD PUSH1 0xE0 SHL DUP2 MSTORE PUSH1 0x1 PUSH1 0x1 PUSH1 0xA0 SHL SUB DUP3 AND SWAP1 PUSH4 0x23B872DD SWAP1 PUSH2 0x2711 SWAP1 CALLER SWAP1 ADDRESS SWAP1 DUP12 SWAP1 PUSH1 0x4 ADD PUSH2 0x3D09 JUMP JUMPDEST PUSH0 PUSH1 0x40 MLOAD DUP1 DUP4 SUB DUP2 PUSH0 DUP8 DUP1 EXTCODESIZE ISZERO DUP1 ISZERO PUSH2 0x2728 JUMPI PUSH0 PUSH0 REVERT JUMPDEST POP GAS CALL ISZERO DUP1 ISZERO PUSH2 0x273A JUMPI RETURNDATASIZE PUSH0 PUSH0 RETURNDATACOPY RETURNDATASIZE PUSH0 REVERT JUMPDEST POP POP PUSH1 0x7 DUP1 SLOAD PUSH0 SWAP4 POP SWAP2 POP DUP3 PUSH2 0x274F DUP4 PUSH2 0x3D41 JUMP JUMPDEST SWAP2 SWAP1 POP SSTORE SWAP1 POP PUSH1 0x40 MLOAD DUP1 PUSH2 0x120 ADD PUSH1 0x40 MSTORE DUP1 CALLER PUSH1 0x1 PUSH1 0x1 PUSH1 0xA0 SHL SUB AND DUP2 MSTORE PUSH1 0x20 ADD DUP11 PUSH1 0x1 PUSH1 0x1 PUSH1 0xA0 SHL SUB AND DUP2 MSTORE PUSH1 0x20 ADD DUP10 PUSH1 0x1 PUSH1 0x1 PUSH1 0xA0 SHL SUB AND DUP2 MSTORE PUSH1 0x20 ADD DUP9 DUP2 MSTORE PUSH1 0x20 ADD DUP8 PUSH1 0x1 PUSH1 0x1 PUSH1 0xA0 SHL SUB AND DUP2 MSTORE PUSH1 0x20 ADD DUP7 DUP2 MSTORE PUSH1 0x20 ADD CALLVALUE DUP2 MSTORE PUSH1 0x20 ADD DUP6 TIMESTAMP PUSH2 0x27BB SWAP2 SWAP1 PUSH2 0x3D59 JUMP JUMPDEST DUP2 MSTORE PUSH1 0x1 PUSH1 0x20 SWAP2 DUP3 ADD DUP2 SWAP1 MSTORE PUSH0 DUP5 DUP2 MSTORE PUSH1 0xC DUP4 MSTORE PUSH1 0x40 DUP1 DUP3 KECCAK256 DUP6 MLOAD DUP2 SLOAD PUSH1 0x1 PUSH1 0x1 PUSH1 0xA0 SHL SUB NOT SWAP1 DUP2 AND PUSH1 0x1 PUSH1 0x1 PUSH1 0xA0 SHL SUB SWAP3 DUP4 AND OR DUP4 SSTORE SWAP6 DUP8 ADD MLOAD SWAP5 DUP3 ADD DUP1 SLOAD DUP8 AND SWAP6 DUP3 AND SWAP6 SWAP1 SWAP6 OR SWAP1 SWAP5 SSTORE DUP6 DUP3 ADD MLOAD PUSH1 0x2 DUP3 ADD DUP1 SLOAD DUP8 AND SWAP2 DUP7 AND SWAP2 SWAP1 SWAP2 OR SWAP1 SSTORE PUSH1 0x60 DUP7 ADD MLOAD PUSH1 0x3 DUP3 ADD SSTORE PUSH1 0x80 DUP7 ADD MLOAD PUSH1 0x4 DUP3 ADD DUP1 SLOAD SWAP1 SWAP7 AND SWAP1 DUP6 AND OR SWAP1 SWAP5 SSTORE PUSH1 0xA0 DUP6 ADD MLOAD PUSH1 0x5 DUP6 ADD SSTORE PUSH1 0xC0 DUP6 ADD MLOAD PUSH1 0x6 DUP6 ADD SSTORE PUSH1 0xE0 DUP6 ADD MLOAD PUSH1 0x7 DUP6 ADD SSTORE PUSH2 0x100 SWAP1 SWAP5 ADD MLOAD PUSH1 0x8 SWAP1 SWAP4 ADD DUP1 SLOAD PUSH1 0xFF NOT AND SWAP4 ISZERO ISZERO SWAP4 SWAP1 SWAP4 OR SWAP1 SWAP3 SSTORE SWAP2 MLOAD SWAP2 DUP12 AND SWAP2 CALLER SWAP2 DUP5 SWAP2 PUSH32 0x39D8683E02D07786A66EB86F938B372FD826475E504C6CE2819A6316FDA99789 SWAP2 SWAP1 LOG4 SWAP2 POP POP PUSH2 0x10E7 PUSH1 0x1 PUSH0 MLOAD PUSH1 0x20 PUSH2 0x3E32 PUSH0 CODECOPY PUSH0 MLOAD SWAP1 PUSH0 MSTORE SSTORE JUMP JUMPDEST PUSH1 0x60 PUSH2 0x28C6 PUSH2 0x3279 JUMP JUMPDEST DUP6 DUP5 DUP2 EQ ISZERO DUP1 PUSH2 0x28D6 JUMPI POP DUP1 DUP4 EQ ISZERO JUMPDEST ISZERO PUSH2 0x28F4 JUMPI PUSH1 0x40 MLOAD PUSH4 0x512509D3 PUSH1 0xE1 SHL DUP2 MSTORE PUSH1 0x4 ADD PUSH1 0x40 MLOAD DUP1 SWAP2 SUB SWAP1 REVERT JUMPDEST PUSH1 0x14 DUP2 GT ISZERO PUSH2 0x2916 JUMPI PUSH1 0x40 MLOAD PUSH4 0x5BEB171 PUSH1 0xE1 SHL DUP2 MSTORE PUSH1 0x4 ADD PUSH1 0x40 MLOAD DUP1 SWAP2 SUB SWAP1 REVERT JUMPDEST PUSH0 DUP2 PUSH8 0xFFFFFFFFFFFFFFFF DUP2 GT ISZERO PUSH2 0x2930 JUMPI PUSH2 0x2930 PUSH2 0x3DBB JUMP JUMPDEST PUSH1 0x40 MLOAD SWAP1 DUP1 DUP3 MSTORE DUP1 PUSH1 0x20 MUL PUSH1 0x20 ADD DUP3 ADD PUSH1 0x40 MSTORE DUP1 ISZERO PUSH2 0x2959 JUMPI DUP2 PUSH1 0x20 ADD PUSH1 0x20 DUP3 MUL DUP1 CALLDATASIZE DUP4 CALLDATACOPY ADD SWAP1 POP JUMPDEST POP SWAP1 POP PUSH0 JUMPDEST DUP3 DUP2 LT ISZERO PUSH2 0x29DF JUMPI PUSH2 0x29BA DUP12 DUP12 DUP12 DUP5 DUP2 DUP2 LT PUSH2 0x297C JUMPI PUSH2 0x297C PUSH2 0x3DCF JUMP JUMPDEST SWAP1 POP PUSH1 0x20 MUL ADD CALLDATALOAD DUP11 DUP11 DUP6 DUP2 DUP2 LT PUSH2 0x2995 JUMPI PUSH2 0x2995 PUSH2 0x3DCF JUMP JUMPDEST SWAP1 POP PUSH1 0x20 MUL ADD CALLDATALOAD DUP10 DUP10 DUP7 DUP2 DUP2 LT PUSH2 0x29AE JUMPI PUSH2 0x29AE PUSH2 0x3DCF JUMP JUMPDEST SWAP1 POP PUSH1 0x20 MUL ADD CALLDATALOAD PUSH2 0x3563 JUMP JUMPDEST DUP3 DUP3 DUP2 MLOAD DUP2 LT PUSH2 0x29CC JUMPI PUSH2 0x29CC PUSH2 0x3DCF JUMP JUMPDEST PUSH1 0x20 SWAP1 DUP2 MUL SWAP2 SWAP1 SWAP2 ADD ADD MSTORE PUSH1 0x1 ADD PUSH2 0x295E JUMP JUMPDEST POP CALLER PUSH1 0x1 PUSH1 0x1 PUSH1 0xA0 SHL SUB AND PUSH32 0x20BAB890E3C2B44BEBB771F1DFD0DE19C2B0E5635E15C42D1C08E7AB45795CC3 DUP3 PUSH1 0x40 MLOAD PUSH2 0x2A19 SWAP2 SWAP1 PUSH2 0x3C6D JUMP JUMPDEST PUSH1 0x40 MLOAD DUP1 SWAP2 SUB SWAP1 LOG2 SWAP10 SWAP9 POP POP POP POP POP POP POP POP POP JUMP JUMPDEST PUSH0 DUP2 DUP2 MSTORE PUSH1 0x8 PUSH1 0x20 MSTORE PUSH1 0x40 DUP2 KECCAK256 PUSH1 0x5 DUP2 ADD SLOAD ISZERO DUP1 ISZERO SWAP1 PUSH2 0x2A51 JUMPI POP DUP1 PUSH1 0x5 ADD SLOAD TIMESTAMP GT JUMPDEST SWAP4 SWAP3 POP POP POP JUMP JUMPDEST PUSH2 0x2A60 PUSH2 0x325E JUMP JUMPDEST PUSH0 DUP2 DUP2 MSTORE PUSH1 0x9 PUSH1 0x20 MSTORE PUSH1 0x40 SWAP1 KECCAK256 PUSH1 0x7 DUP2 ADD SLOAD PUSH1 0xFF AND ISZERO PUSH2 0x2A93 JUMPI PUSH1 0x40 MLOAD PUSH4 0xD02E774D PUSH1 0xE0 SHL DUP2 MSTORE PUSH1 0x4 ADD PUSH1 0x40 MLOAD DUP1 SWAP2 SUB SWAP1 REVERT JUMPDEST DUP1 PUSH1 0x6 ADD SLOAD TIMESTAMP LT ISZERO PUSH2 0x2AB8 JUMPI PUSH1 0x40 MLOAD PUSH4 0x9EAFE1B7 PUSH1 0xE0 SHL DUP2 MSTORE PUSH1 0x4 ADD PUSH1 0x40 MLOAD DUP1 SWAP2 SUB SWAP1 REVERT JUMPDEST PUSH1 0x7 DUP2 ADD DUP1 SLOAD PUSH1 0xFF NOT AND PUSH1 0x1 OR SWAP1 SSTORE PUSH1 0x5 DUP2 ADD SLOAD PUSH1 0x1 PUSH1 0x1 PUSH1 0xA0 SHL SUB AND ISZERO PUSH2 0x2BC1 JUMPI PUSH1 0x1 DUP2 ADD SLOAD PUSH1 0x2 DUP3 ADD SLOAD DUP3 SLOAD PUSH1 0x4 DUP5 ADD SLOAD PUSH2 0x2B03 SWAP4 PUSH1 0x1 PUSH1 0x1 PUSH1 0xA0 SHL SUB SWAP1 DUP2 AND SWAP4 SWAP3 AND SWAP1 PUSH2 0x32CF JUMP JUMPDEST PUSH1 0x1 DUP2 ADD SLOAD PUSH1 0x5 DUP3 ADD SLOAD PUSH1 0x2 DUP4 ADD SLOAD PUSH1 0x40 MLOAD PUSH4 0x21421707 PUSH1 0xE1 SHL DUP2 MSTORE PUSH1 0x1 PUSH1 0x1 PUSH1 0xA0 SHL SUB SWAP4 DUP5 AND SWAP4 PUSH4 0x42842E0E SWAP4 PUSH2 0x2B44 SWAP4 ADDRESS SWAP4 SWAP3 SWAP1 SWAP2 AND SWAP2 PUSH1 0x4 ADD PUSH2 0x3D09 JUMP JUMPDEST PUSH0 PUSH1 0x40 MLOAD DUP1 DUP4 SUB DUP2 PUSH0 DUP8 DUP1 EXTCODESIZE ISZERO DUP1 ISZERO PUSH2 0x2B5B JUMPI PUSH0 PUSH0 REVERT JUMPDEST POP GAS CALL ISZERO DUP1 ISZERO PUSH2 0x2B6D JUMPI RETURNDATASIZE PUSH0 PUSH0 RETURNDATACOPY RETURNDATASIZE PUSH0 REVERT JUMPDEST POP POP POP POP PUSH1 0x5 DUP2 ADD SLOAD PUSH1 0x4 DUP3 ADD SLOAD PUSH1 0x40 MLOAD SWAP1 DUP2 MSTORE PUSH1 0x1 PUSH1 0x1 PUSH1 0xA0 SHL SUB SWAP1 SWAP2 AND SWAP1 DUP4 SWAP1 PUSH32 0xD2AA34A4FDBBC6DFF6A3E56F46E0F3AE2A31D7785FF3487AA5C95C642ACEA501 SWAP1 PUSH1 0x20 ADD PUSH1 0x40 MLOAD DUP1 SWAP2 SUB SWAP1 LOG3 PUSH2 0x2C60 JUMP JUMPDEST PUSH1 0x1 DUP2 ADD SLOAD DUP2 SLOAD PUSH1 0x2 DUP4 ADD SLOAD PUSH1 0x40 MLOAD PUSH4 0x21421707 PUSH1 0xE1 SHL DUP2 MSTORE PUSH1 0x1 PUSH1 0x1 PUSH1 0xA0 SHL SUB SWAP4 DUP5 AND SWAP4 PUSH4 0x42842E0E SWAP4 PUSH2 0x2BFF SWAP4 ADDRESS SWAP4 SWAP3 SWAP1 SWAP2 AND SWAP2 PUSH1 0x4 ADD PUSH2 0x3D09 JUMP JUMPDEST PUSH0 PUSH1 0x40 MLOAD DUP1 DUP4 SUB DUP2 PUSH0 DUP8 DUP1 EXTCODESIZE ISZERO DUP1 ISZERO PUSH2 0x2C16 JUMPI PUSH0 PUSH0 REVERT JUMPDEST POP GAS CALL ISZERO DUP1 ISZERO PUSH2 0x2C28 JUMPI RETURNDATASIZE PUSH0 PUSH0 RETURNDATACOPY RETURNDATASIZE PUSH0 REVERT JUMPDEST POP POP PUSH1 0x40 MLOAD PUSH0 DUP1 DUP3 MSTORE SWAP3 POP DUP5 SWAP2 POP PUSH32 0xD2AA34A4FDBBC6DFF6A3E56F46E0F3AE2A31D7785FF3487AA5C95C642ACEA501 SWAP1 PUSH1 0x20 ADD PUSH2 0x24A5 JUMP JUMPDEST POP PUSH2 0x148D PUSH1 0x1 PUSH0 MLOAD PUSH1 0x20 PUSH2 0x3E32 PUSH0 CODECOPY PUSH0 MLOAD SWAP1 PUSH0 MSTORE SSTORE JUMP JUMPDEST PUSH2 0x2C7F PUSH2 0x3279 JUMP JUMPDEST PUSH0 DUP3 DUP2 MSTORE PUSH1 0x8 PUSH1 0x20 MSTORE PUSH1 0x40 SWAP1 KECCAK256 PUSH1 0x4 DUP2 ADD SLOAD PUSH1 0xFF AND PUSH2 0x2CB1 JUMPI PUSH1 0x40 MLOAD PUSH4 0x66CB03E9 PUSH1 0xE0 SHL DUP2 MSTORE PUSH1 0x4 ADD PUSH1 0x40 MLOAD DUP1 SWAP2 SUB SWAP1 REVERT JUMPDEST DUP1 SLOAD PUSH1 0x1 PUSH1 0x1 PUSH1 0xA0 SHL SUB AND CALLER EQ PUSH2 0x2CDB JUMPI PUSH1 0x40 MLOAD PUSH4 0x22087F49 PUSH1 0xE1 SHL DUP2 MSTORE PUSH1 0x4 ADD PUSH1 0x40 MLOAD DUP1 SWAP2 SUB SWAP1 REVERT JUMPDEST DUP2 PUSH0 SUB PUSH2 0x2CFB JUMPI PUSH1 0x40 MLOAD PUSH4 0x7294708F PUSH1 0xE1 SHL DUP2 MSTORE PUSH1 0x4 ADD PUSH1 0x40 MLOAD DUP1 SWAP2 SUB SWAP1 REVERT JUMPDEST PUSH1 0x3 DUP2 ADD DUP1 SLOAD SWAP1 DUP4 SWAP1 SSTORE PUSH1 0x40 DUP1 MLOAD DUP3 DUP2 MSTORE PUSH1 0x20 DUP2 ADD DUP6 SWAP1 MSTORE DUP6 SWAP2 PUSH32 0x36CFE22DFCF2D3781D9DE6B307D67A5431B45492DAD5E70E53DD4AF34C25B849 SWAP2 ADD PUSH1 0x40 MLOAD DUP1 SWAP2 SUB SWAP1 LOG2 POP POP POP POP JUMP JUMPDEST PUSH2 0x2D4E PUSH2 0x325E JUMP JUMPDEST PUSH2 0x2D56 PUSH2 0x3279 JUMP JUMPDEST PUSH0 DUP2 DUP2 MSTORE PUSH1 0xB PUSH1 0x20 MSTORE PUSH1 0x40 SWAP1 KECCAK256 PUSH1 0x5 DUP2 ADD SLOAD PUSH1 0xFF AND PUSH2 0x2D88 JUMPI PUSH1 0x40 MLOAD PUSH4 0x4D80826B PUSH1 0xE1 SHL DUP2 MSTORE PUSH1 0x4 ADD PUSH1 0x40 MLOAD DUP1 SWAP2 SUB SWAP1 REVERT JUMPDEST DUP1 PUSH1 0x4 ADD SLOAD TIMESTAMP GT ISZERO PUSH2 0x2DAD JUMPI PUSH1 0x40 MLOAD PUSH4 0x9CB13087 PUSH1 0xE0 SHL DUP2 MSTORE PUSH1 0x4 ADD PUSH1 0x40 MLOAD DUP1 SWAP2 SUB SWAP1 REVERT JUMPDEST PUSH1 0x1 DUP2 ADD SLOAD PUSH1 0x2 DUP3 ADD SLOAD PUSH1 0x40 MLOAD PUSH4 0x31A9108F PUSH1 0xE1 SHL DUP2 MSTORE PUSH1 0x1 PUSH1 0x1 PUSH1 0xA0 SHL SUB SWAP1 SWAP3 AND SWAP2 CALLER SWAP2 DUP4 SWAP2 PUSH4 0x6352211E SWAP2 PUSH2 0x2DEA SWAP2 PUSH1 0x4 ADD SWAP1 DUP2 MSTORE PUSH1 0x20 ADD SWAP1 JUMP JUMPDEST PUSH1 0x20 PUSH1 0x40 MLOAD DUP1 DUP4 SUB DUP2 DUP7 GAS STATICCALL ISZERO DUP1 ISZERO PUSH2 0x2E05 JUMPI RETURNDATASIZE PUSH0 PUSH0 RETURNDATACOPY RETURNDATASIZE PUSH0 REVERT JUMPDEST POP POP POP POP PUSH1 0x40 MLOAD RETURNDATASIZE PUSH1 0x1F NOT PUSH1 0x1F DUP3 ADD AND DUP3 ADD DUP1 PUSH1 0x40 MSTORE POP DUP2 ADD SWAP1 PUSH2 0x2E29 SWAP2 SWAP1 PUSH2 0x3CCF JUMP JUMPDEST PUSH1 0x1 PUSH1 0x1 PUSH1 0xA0 SHL SUB AND EQ PUSH2 0x2E50 JUMPI PUSH1 0x40 MLOAD PUSH4 0x59DC379F PUSH1 0xE0 SHL DUP2 MSTORE PUSH1 0x4 ADD PUSH1 0x40 MLOAD DUP1 SWAP2 SUB SWAP1 REVERT JUMPDEST PUSH1 0x2 DUP3 ADD SLOAD PUSH1 0x40 MLOAD PUSH4 0x20604BF PUSH1 0xE2 SHL DUP2 MSTORE ADDRESS SWAP2 PUSH1 0x1 PUSH1 0x1 PUSH1 0xA0 SHL SUB DUP5 AND SWAP2 PUSH4 0x81812FC SWAP2 PUSH2 0x2E85 SWAP2 PUSH1 0x4 ADD SWAP1 DUP2 MSTORE PUSH1 0x20 ADD SWAP1 JUMP JUMPDEST PUSH1 0x20 PUSH1 0x40 MLOAD DUP1 DUP4 SUB DUP2 DUP7 GAS STATICCALL ISZERO DUP1 ISZERO PUSH2 0x2EA0 JUMPI RETURNDATASIZE PUSH0 PUSH0 RETURNDATACOPY RETURNDATASIZE PUSH0 REVERT JUMPDEST POP POP POP POP PUSH1 0x40 MLOAD RETURNDATASIZE PUSH1 0x1F NOT PUSH1 0x1F DUP3 ADD AND DUP3 ADD DUP1 PUSH1 0x40 MSTORE POP DUP2 ADD SWAP1 PUSH2 0x2EC4 SWAP2 SWAP1 PUSH2 0x3CCF JUMP JUMPDEST PUSH1 0x1 PUSH1 0x1 PUSH1 0xA0 SHL SUB AND EQ ISZERO DUP1 ISZERO PUSH2 0x2F44 JUMPI POP PUSH1 0x40 MLOAD PUSH4 0xE985E9C5 PUSH1 0xE0 SHL DUP2 MSTORE CALLER PUSH1 0x4 DUP3 ADD MSTORE ADDRESS PUSH1 0x24 DUP3 ADD MSTORE PUSH1 0x1 PUSH1 0x1 PUSH1 0xA0 SHL SUB DUP3 AND SWAP1 PUSH4 0xE985E9C5 SWAP1 PUSH1 0x44 ADD PUSH1 0x20 PUSH1 0x40 MLOAD DUP1 DUP4 SUB DUP2 DUP7 GAS STATICCALL ISZERO DUP1 ISZERO PUSH2 0x2F1E JUMPI RETURNDATASIZE PUSH0 PUSH0 RETURNDATACOPY RETURNDATASIZE PUSH0 REVERT JUMPDEST POP POP POP POP PUSH1 0x40 MLOAD RETURNDATASIZE PUSH1 0x1F NOT PUSH1 0x1F DUP3 ADD AND DUP3 ADD DUP1 PUSH1 0x40 MSTORE POP DUP2 ADD SWAP1 PUSH2 0x2F42 SWAP2 SWAP1 PUSH2 0x3CEA JUMP JUMPDEST ISZERO JUMPDEST ISZERO PUSH2 0x2F62 JUMPI PUSH1 0x40 MLOAD PUSH4 0xA9248D25 PUSH1 0xE0 SHL DUP2 MSTORE PUSH1 0x4 ADD PUSH1 0x40 MLOAD DUP1 SWAP2 SUB SWAP1 REVERT JUMPDEST PUSH1 0x5 DUP3 ADD DUP1 SLOAD PUSH1 0xFF NOT AND SWAP1 SSTORE PUSH1 0x1 DUP3 ADD SLOAD PUSH1 0x2 DUP4 ADD SLOAD PUSH1 0x3 DUP5 ADD SLOAD PUSH2 0x2F93 SWAP3 PUSH1 0x1 PUSH1 0x1 PUSH1 0xA0 SHL SUB AND SWAP2 SWAP1 CALLER SWAP1 PUSH2 0x32CF JUMP JUMPDEST DUP2 SLOAD PUSH1 0x2 DUP4 ADD SLOAD PUSH1 0x40 MLOAD PUSH4 0x21421707 PUSH1 0xE1 SHL DUP2 MSTORE PUSH1 0x1 PUSH1 0x1 PUSH1 0xA0 SHL SUB DUP5 DUP2 AND SWAP4 PUSH4 0x42842E0E SWAP4 PUSH2 0x2FCB SWAP4 CALLER SWAP4 SWAP1 SWAP3 AND SWAP2 PUSH1 0x4 ADD PUSH2 0x3D09 JUMP JUMPDEST PUSH0 PUSH1 0x40 MLOAD DUP1 DUP4 SUB DUP2 PUSH0 DUP8 DUP1 EXTCODESIZE ISZERO DUP1 ISZERO PUSH2 0x2FE2 JUMPI PUSH0 PUSH0 REVERT JUMPDEST POP GAS CALL ISZERO DUP1 ISZERO PUSH2 0x2FF4 JUMPI RETURNDATASIZE PUSH0 PUSH0 RETURNDATACOPY RETURNDATASIZE PUSH0 REVERT JUMPDEST POP POP PUSH1 0x40 MLOAD CALLER SWAP3 POP DUP6 SWAP2 POP PUSH32 0xA7A40AF5A1D0C10A3EB94AF90CB008170915E8A71A6AAFF052794CD762C72FC0 SWAP1 PUSH0 SWAP1 LOG3 POP POP PUSH2 0x148D PUSH1 0x1 PUSH0 MLOAD PUSH1 0x20 PUSH2 0x3E32 PUSH0 CODECOPY PUSH0 MLOAD SWAP1 PUSH0 MSTORE SSTORE JUMP JUMPDEST PUSH0 DUP2 DUP2 MSTORE PUSH1 0x8 PUSH1 0x20 MSTORE PUSH1 0x40 DUP2 KECCAK256 PUSH1 0x3 DUP2 ADD SLOAD DUP3 SWAP2 SWAP1 PUSH2 0x24DB SWAP1 PUSH2 0x3478 JUMP JUMPDEST PUSH0 DUP2 DUP2 MSTORE PUSH1 0xA PUSH1 0x20 MSTORE PUSH1 0x40 SWAP1 KECCAK256 PUSH1 0x7 DUP2 ADD SLOAD PUSH1 0xFF AND ISZERO PUSH2 0x308D JUMPI PUSH1 0x40 MLOAD PUSH4 0x4B74DC97 PUSH1 0xE1 SHL DUP2 MSTORE PUSH1 0x4 ADD PUSH1 0x40 MLOAD DUP1 SWAP2 SUB SWAP1 REVERT JUMPDEST DUP1 SLOAD PUSH1 0x1 PUSH1 0x1 PUSH1 0xA0 SHL SUB AND CALLER EQ PUSH2 0x30B7 JUMPI PUSH1 0x40 MLOAD PUSH4 0x22087F49 PUSH1 0xE1 SHL DUP2 MSTORE PUSH1 0x4 ADD PUSH1 0x40 MLOAD DUP1 SWAP2 SUB SWAP1 REVERT JUMPDEST PUSH1 0x7 DUP2 ADD DUP1 SLOAD PUSH1 0xFF NOT AND PUSH1 0x1 SWAP1 DUP2 OR SWAP1 SWAP2 SSTORE DUP2 ADD SLOAD DUP2 SLOAD PUSH1 0x2 DUP4 ADD SLOAD PUSH1 0x40 MLOAD PUSH4 0x21421707 PUSH1 0xE1 SHL DUP2 MSTORE PUSH1 0x1 PUSH1 0x1 PUSH1 0xA0 SHL SUB SWAP4 DUP5 AND SWAP4 PUSH4 0x42842E0E SWAP4 PUSH2 0x3106 SWAP4 ADDRESS SWAP4 SWAP2 SWAP1 SWAP3 AND SWAP2 SWAP1 PUSH1 0x4 ADD PUSH2 0x3D09 JUMP JUMPDEST PUSH0 PUSH1 0x40 MLOAD DUP1 DUP4 SUB DUP2 PUSH0 DUP8 DUP1 EXTCODESIZE ISZERO DUP1 ISZERO PUSH2 0x311D JUMPI PUSH0 PUSH0 REVERT JUMPDEST POP GAS CALL ISZERO DUP1 ISZERO PUSH2 0x312F JUMPI RETURNDATASIZE PUSH0 PUSH0 RETURNDATACOPY RETURNDATASIZE PUSH0 REVERT JUMPDEST POP POP PUSH1 0x40 MLOAD DUP5 SWAP3 POP PUSH32 0x2E78756868081FAE5204BBE1E151C8934C2D7DCF6F4CDBA38A18C3EE09F97670 SWAP2 POP PUSH0 SWAP1 LOG2 POP POP JUMP JUMPDEST PUSH0 DUP2 DUP2 MSTORE PUSH1 0xB PUSH1 0x20 MSTORE PUSH1 0x40 SWAP1 KECCAK256 PUSH1 0x5 DUP2 ADD SLOAD PUSH1 0xFF AND PUSH2 0x3193 JUMPI PUSH1 0x40 MLOAD PUSH4 0x4D80826B PUSH1 0xE1 SHL DUP2 MSTORE PUSH1 0x4 ADD PUSH1 0x40 MLOAD DUP1 SWAP2 SUB SWAP1 REVERT JUMPDEST DUP1 SLOAD PUSH1 0x1 PUSH1 0x1 PUSH1 0xA0 SHL SUB AND CALLER EQ PUSH2 0x31BD JUMPI PUSH1 0x40 MLOAD PUSH4 0x22087F49 PUSH1 0xE1 SHL DUP2 MSTORE PUSH1 0x4 ADD PUSH1 0x40 MLOAD DUP1 SWAP2 SUB SWAP1 REVERT JUMPDEST PUSH1 0x5 DUP2 ADD DUP1 SLOAD PUSH1 0xFF NOT AND SWAP1 SSTORE PUSH1 0x3 DUP2 ADD SLOAD CALLER PUSH0 SWAP1 DUP2 MSTORE PUSH1 0xD PUSH1 0x20 MSTORE PUSH1 0x40 DUP2 KECCAK256 DUP1 SLOAD SWAP1 SWAP2 SWAP1 PUSH2 0x31EC SWAP1 DUP5 SWAP1 PUSH2 0x3D59 JUMP JUMPDEST SWAP1 SWAP2 SSTORE POP POP PUSH1 0x40 MLOAD DUP3 SWAP1 PUSH32 0xC28B4AED030BFACC245C0501326E1BEB8C0EF0D60E4EDC21067FDEB52DA2A7AA SWAP1 PUSH0 SWAP1 LOG2 POP POP JUMP JUMPDEST PUSH2 0x3227 PUSH2 0x32A3 JUMP JUMPDEST PUSH1 0x1 PUSH1 0x1 PUSH1 0xA0 SHL SUB DUP2 AND PUSH2 0x3255 JUMPI PUSH1 0x40 MLOAD PUSH4 0x1E4FBDF7 PUSH1 0xE0 SHL DUP2 MSTORE PUSH0 PUSH1 0x4 DUP3 ADD MSTORE PUSH1 0x24 ADD JUMPDEST PUSH1 0x40 MLOAD DUP1 SWAP2 SUB SWAP1 REVERT JUMPDEST PUSH2 0x148D DUP2 PUSH2 0x38A1 JUMP JUMPDEST PUSH2 0x3266 PUSH2 0x3932 JUMP JUMPDEST PUSH1 0x2 PUSH0 MLOAD PUSH1 0x20 PUSH2 0x3E32 PUSH0 CODECOPY PUSH0 MLOAD SWAP1 PUSH0 MSTORE SSTORE JUMP JUMPDEST PUSH0 SLOAD PUSH1 0x1 PUSH1 0xA0 SHL SWAP1 DIV PUSH1 0xFF AND ISZERO PUSH2 0x1817 JUMPI PUSH1 0x40 MLOAD PUSH4 0xD93C0665 PUSH1 0xE0 SHL DUP2 MSTORE PUSH1 0x4 ADD PUSH1 0x40 MLOAD DUP1 SWAP2 SUB SWAP1 REVERT JUMPDEST PUSH0 SLOAD PUSH1 0x1 PUSH1 0x1 PUSH1 0xA0 SHL SUB AND CALLER EQ PUSH2 0x1817 JUMPI PUSH1 0x40 MLOAD PUSH4 0x118CDAA7 PUSH1 0xE0 SHL DUP2 MSTORE CALLER PUSH1 0x4 DUP3 ADD MSTORE PUSH1 0x24 ADD PUSH2 0x324C JUMP JUMPDEST PUSH0 PUSH2 0x2710 PUSH1 0x2 SLOAD DUP4 PUSH2 0x32E1 SWAP2 SWAP1 PUSH2 0x3D85 JUMP JUMPDEST PUSH2 0x32EB SWAP2 SWAP1 PUSH2 0x3D9C JUMP JUMPDEST PUSH1 0x40 MLOAD PUSH4 0x152A902D PUSH1 0xE1 SHL DUP2 MSTORE PUSH1 0x4 DUP2 ADD DUP7 SWAP1 MSTORE PUSH1 0x24 DUP2 ADD DUP5 SWAP1 MSTORE SWAP1 SWAP2 POP PUSH0 SWAP1 DUP2 SWAP1 PUSH1 0x1 PUSH1 0x1 PUSH1 0xA0 SHL SUB DUP9 AND SWAP1 PUSH4 0x2A55205A SWAP1 PUSH1 0x44 ADD PUSH1 0x40 DUP1 MLOAD DUP1 DUP4 SUB DUP2 DUP7 GAS STATICCALL SWAP3 POP POP POP DUP1 ISZERO PUSH2 0x3359 JUMPI POP PUSH1 0x40 DUP1 MLOAD PUSH1 0x1F RETURNDATASIZE SWAP1 DUP2 ADD PUSH1 0x1F NOT AND DUP3 ADD SWAP1 SWAP3 MSTORE PUSH2 0x3356 SWAP2 DUP2 ADD SWAP1 PUSH2 0x3DE3 JUMP JUMPDEST PUSH1 0x1 JUMPDEST ISZERO PUSH2 0x3363 JUMPI SWAP3 POP SWAP1 POP JUMPDEST PUSH1 0x1 PUSH1 0x1 PUSH1 0xA0 SHL SUB DUP2 AND PUSH2 0x3375 JUMPI PUSH0 SWAP2 POP JUMPDEST DUP4 PUSH2 0x3380 DUP4 DUP6 PUSH2 0x3D59 JUMP JUMPDEST GT ISZERO PUSH2 0x338C JUMPI POP PUSH0 SWAP1 POP DUP1 JUMPDEST PUSH0 DUP3 PUSH2 0x3398 DUP6 DUP8 PUSH2 0x3D72 JUMP JUMPDEST PUSH2 0x33A2 SWAP2 SWAP1 PUSH2 0x3D72 JUMP JUMPDEST SWAP1 POP DUP4 ISZERO PUSH2 0x33F2 JUMPI DUP4 PUSH1 0xD PUSH0 PUSH2 0x33BF PUSH0 SLOAD PUSH1 0x1 PUSH1 0x1 PUSH1 0xA0 SHL SUB AND SWAP1 JUMP JUMPDEST PUSH1 0x1 PUSH1 0x1 PUSH1 0xA0 SHL SUB AND PUSH1 0x1 PUSH1 0x1 PUSH1 0xA0 SHL SUB AND DUP2 MSTORE PUSH1 0x20 ADD SWAP1 DUP2 MSTORE PUSH1 0x20 ADD PUSH0 KECCAK256 PUSH0 DUP3 DUP3 SLOAD PUSH2 0x33EC SWAP2 SWAP1 PUSH2 0x3D59 JUMP JUMPDEST SWAP1 SWAP2 SSTORE POP POP JUMPDEST PUSH0 DUP4 GT DUP1 ISZERO PUSH2 0x3409 JUMPI POP PUSH1 0x1 PUSH1 0x1 PUSH1 0xA0 SHL SUB DUP3 AND ISZERO ISZERO JUMPDEST ISZERO PUSH2 0x343B JUMPI PUSH1 0x1 PUSH1 0x1 PUSH1 0xA0 SHL SUB DUP3 AND PUSH0 SWAP1 DUP2 MSTORE PUSH1 0xD PUSH1 0x20 MSTORE PUSH1 0x40 DUP2 KECCAK256 DUP1 SLOAD DUP6 SWAP3 SWAP1 PUSH2 0x3435 SWAP1 DUP5 SWAP1 PUSH2 0x3D59 JUMP JUMPDEST SWAP1 SWAP2 SSTORE POP POP JUMPDEST DUP1 ISZERO PUSH2 0x346E JUMPI PUSH1 0x1 PUSH1 0x1 PUSH1 0xA0 SHL SUB DUP7 AND PUSH0 SWAP1 DUP2 MSTORE PUSH1 0xD PUSH1 0x20 MSTORE PUSH1 0x40 DUP2 KECCAK256 DUP1 SLOAD DUP4 SWAP3 SWAP1 PUSH2 0x3468 SWAP1 DUP5 SWAP1 PUSH2 0x3D59 JUMP JUMPDEST SWAP1 SWAP2 SSTORE POP POP JUMPDEST POP POP POP POP POP POP POP POP JUMP JUMPDEST PUSH1 0x1 SLOAD PUSH0 SWAP1 PUSH1 0x1 PUSH1 0x1 PUSH1 0xA0 SHL SUB AND PUSH2 0x34A3 JUMPI PUSH1 0x40 MLOAD PUSH4 0x3E1E5381 PUSH1 0xE2 SHL DUP2 MSTORE PUSH1 0x4 ADD PUSH1 0x40 MLOAD DUP1 SWAP2 SUB SWAP1 REVERT JUMPDEST PUSH1 0x1 SLOAD PUSH1 0x40 DUP1 MLOAD PUSH4 0x8E15F473 PUSH1 0xE0 SHL DUP2 MSTORE DUP2 MLOAD PUSH0 SWAP4 PUSH1 0x1 PUSH1 0x1 PUSH1 0xA0 SHL SUB AND SWAP3 PUSH4 0x8E15F473 SWAP3 PUSH1 0x4 DUP1 DUP3 ADD SWAP4 SWAP2 DUP3 SWAP1 SUB ADD DUP2 DUP7 GAS STATICCALL ISZERO DUP1 ISZERO PUSH2 0x34E6 JUMPI RETURNDATASIZE PUSH0 PUSH0 RETURNDATACOPY RETURNDATASIZE PUSH0 REVERT JUMPDEST POP POP POP POP PUSH1 0x40 MLOAD RETURNDATASIZE PUSH1 0x1F NOT PUSH1 0x1F DUP3 ADD AND DUP3 ADD DUP1 PUSH1 0x40 MSTORE POP DUP2 ADD SWAP1 PUSH2 0x350A SWAP2 SWAP1 PUSH2 0x3E0F JUMP JUMPDEST POP SWAP1 POP DUP1 PUSH0 SUB PUSH2 0x352D JUMPI PUSH1 0x40 MLOAD PUSH4 0x3E1E5381 PUSH1 0xE2 SHL DUP2 MSTORE PUSH1 0x4 ADD PUSH1 0x40 MLOAD DUP1 SWAP2 SUB SWAP1 REVERT JUMPDEST DUP1 PUSH1 0x1 DUP2 PUSH2 0x3545 PUSH10 0xD3C21BCECCEDA1000000 DUP8 PUSH2 0x3D85 JUMP JUMPDEST PUSH2 0x354F SWAP2 SWAP1 PUSH2 0x3D59 JUMP JUMPDEST PUSH2 0x3559 SWAP2 SWAP1 PUSH2 0x3D72 JUMP JUMPDEST PUSH2 0x2A51 SWAP2 SWAP1 PUSH2 0x3D9C JUMP JUMPDEST PUSH0 DUP3 PUSH0 SUB PUSH2 0x3584 JUMPI PUSH1 0x40 MLOAD PUSH4 0x7294708F PUSH1 0xE1 SHL DUP2 MSTORE PUSH1 0x4 ADD PUSH1 0x40 MLOAD DUP1 SWAP2 SUB SWAP1 REVERT JUMPDEST PUSH1 0x40 MLOAD PUSH4 0x31A9108F PUSH1 0xE1 SHL DUP2 MSTORE PUSH1 0x4 DUP2 ADD DUP6 SWAP1 MSTORE DUP6 SWAP1 CALLER SWAP1 PUSH1 0x1 PUSH1 0x1 PUSH1 0xA0 SHL SUB DUP4 AND SWAP1 PUSH4 0x6352211E SWAP1 PUSH1 0x24 ADD PUSH1 0x20 PUSH1 0x40 MLOAD DUP1 DUP4 SUB DUP2 DUP7 GAS STATICCALL ISZERO DUP1 ISZERO PUSH2 0x35CB JUMPI RETURNDATASIZE PUSH0 PUSH0 RETURNDATACOPY RETURNDATASIZE PUSH0 REVERT JUMPDEST POP POP POP POP PUSH1 0x40 MLOAD RETURNDATASIZE PUSH1 0x1F NOT PUSH1 0x1F DUP3 ADD AND DUP3 ADD DUP1 PUSH1 0x40 MSTORE POP DUP2 ADD SWAP1 PUSH2 0x35EF SWAP2 SWAP1 PUSH2 0x3CCF JUMP JUMPDEST PUSH1 0x1 PUSH1 0x1 PUSH1 0xA0 SHL SUB AND EQ PUSH2 0x3616 JUMPI PUSH1 0x40 MLOAD PUSH4 0x59DC379F PUSH1 0xE0 SHL DUP2 MSTORE PUSH1 0x4 ADD PUSH1 0x40 MLOAD DUP1 SWAP2 SUB SWAP1 REVERT JUMPDEST PUSH1 0x40 MLOAD PUSH4 0x20604BF PUSH1 0xE2 SHL DUP2 MSTORE PUSH1 0x4 DUP2 ADD DUP7 SWAP1 MSTORE ADDRESS SWAP1 PUSH1 0x1 PUSH1 0x1 PUSH1 0xA0 SHL SUB DUP4 AND SWAP1 PUSH4 0x81812FC SWAP1 PUSH1 0x24 ADD PUSH1 0x20 PUSH1 0x40 MLOAD DUP1 DUP4 SUB DUP2 DUP7 GAS STATICCALL ISZERO DUP1 ISZERO PUSH2 0x365B JUMPI RETURNDATASIZE PUSH0 PUSH0 RETURNDATACOPY RETURNDATASIZE PUSH0 REVERT JUMPDEST POP POP POP POP PUSH1 0x40 MLOAD RETURNDATASIZE PUSH1 0x1F NOT PUSH1 0x1F DUP3 ADD AND DUP3 ADD DUP1 PUSH1 0x40 MSTORE POP DUP2 ADD SWAP1 PUSH2 0x367F SWAP2 SWAP1 PUSH2 0x3CCF JUMP JUMPDEST PUSH1 0x1 PUSH1 0x1 PUSH1 0xA0 SHL SUB AND EQ ISZERO DUP1 ISZERO PUSH2 0x36FF JUMPI POP PUSH1 0x40 MLOAD PUSH4 0xE985E9C5 PUSH1 0xE0 SHL DUP2 MSTORE CALLER PUSH1 0x4 DUP3 ADD MSTORE ADDRESS PUSH1 0x24 DUP3 ADD MSTORE PUSH1 0x1 PUSH1 0x1 PUSH1 0xA0 SHL SUB DUP3 AND SWAP1 PUSH4 0xE985E9C5 SWAP1 PUSH1 0x44 ADD PUSH1 0x20 PUSH1 0x40 MLOAD DUP1 DUP4 SUB DUP2 DUP7 GAS STATICCALL ISZERO DUP1 ISZERO PUSH2 0x36D9 JUMPI RETURNDATASIZE PUSH0 PUSH0 RETURNDATACOPY RETURNDATASIZE PUSH0 REVERT JUMPDEST POP POP POP POP PUSH1 0x40 MLOAD RETURNDATASIZE PUSH1 0x1F NOT PUSH1 0x1F DUP3 ADD AND DUP3 ADD DUP1 PUSH1 0x40 MSTORE POP DUP2 ADD SWAP1 PUSH2 0x36FD SWAP2 SWAP1 PUSH2 0x3CEA JUMP JUMPDEST ISZERO JUMPDEST ISZERO PUSH2 0x371D JUMPI PUSH1 0x40 MLOAD PUSH4 0xA9248D25 PUSH1 0xE0 SHL DUP2 MSTORE PUSH1 0x4 ADD PUSH1 0x40 MLOAD DUP1 SWAP2 SUB SWAP1 REVERT JUMPDEST PUSH0 DUP4 ISZERO PUSH2 0x3733 JUMPI PUSH2 0x372E DUP5 TIMESTAMP PUSH2 0x3D59 JUMP JUMPDEST PUSH2 0x3735 JUMP JUMPDEST PUSH0 JUMPDEST PUSH1 0x3 DUP1 SLOAD SWAP2 SWAP3 POP PUSH0 SWAP2 SWAP1 DUP3 PUSH2 0x3749 DUP4 PUSH2 0x3D41 JUMP JUMPDEST SWAP1 SWAP2 SSTORE POP PUSH1 0x40 DUP1 MLOAD PUSH1 0xC0 DUP2 ADD DUP3 MSTORE CALLER DUP1 DUP3 MSTORE PUSH1 0x1 PUSH1 0x1 PUSH1 0xA0 SHL SUB DUP13 DUP2 AND PUSH1 0x20 DUP1 DUP6 ADD DUP3 DUP2 MSTORE DUP6 DUP8 ADD DUP16 DUP2 MSTORE PUSH1 0x60 DUP8 ADD DUP16 DUP2 MSTORE PUSH1 0x1 PUSH1 0x80 DUP10 ADD DUP2 DUP2 MSTORE PUSH1 0xA0 DUP11 ADD DUP15 DUP2 MSTORE PUSH0 DUP14 DUP2 MSTORE PUSH1 0x8 SWAP1 SWAP8 MSTORE SWAP6 DUP12 SWAP1 KECCAK256 SWAP10 MLOAD DUP11 SLOAD SWAP1 DUP10 AND PUSH1 0x1 PUSH1 0x1 PUSH1 0xA0 SHL SUB NOT SWAP2 DUP3 AND OR DUP12 SSTORE SWAP5 MLOAD SWAP2 DUP11 ADD DUP1 SLOAD SWAP3 SWAP1 SWAP9 AND SWAP2 SWAP1 SWAP5 AND OR SWAP1 SWAP6 SSTORE MLOAD PUSH1 0x2 DUP8 ADD SSTORE SWAP3 MLOAD PUSH1 0x3 DUP7 ADD SSTORE SWAP2 MLOAD PUSH1 0x4 DUP6 ADD DUP1 SLOAD SWAP2 ISZERO ISZERO PUSH1 0xFF NOT SWAP1 SWAP3 AND SWAP2 SWAP1 SWAP2 OR SWAP1 SSTORE SWAP1 MLOAD PUSH1 0x5 SWAP1 SWAP4 ADD SWAP3 SWAP1 SWAP3 SSTORE SWAP2 MLOAD SWAP3 SWAP4 POP SWAP2 DUP4 SWAP1 PUSH32 0x1D2286580411F12056775BF9E0FD10101148B09A6FCA67C9F426FB113A28D1F8 SWAP1 PUSH2 0x383A SWAP1 DUP13 SWAP1 DUP13 SWAP1 DUP10 SWAP1 SWAP3 DUP4 MSTORE PUSH1 0x20 DUP4 ADD SWAP2 SWAP1 SWAP2 MSTORE PUSH1 0x40 DUP3 ADD MSTORE PUSH1 0x60 ADD SWAP1 JUMP JUMPDEST PUSH1 0x40 MLOAD DUP1 SWAP2 SUB SWAP1 LOG4 SWAP8 SWAP7 POP POP POP POP POP POP POP JUMP JUMPDEST PUSH2 0x3855 PUSH2 0x3961 JUMP JUMPDEST PUSH0 DUP1 SLOAD PUSH1 0xFF PUSH1 0xA0 SHL NOT AND SWAP1 SSTORE PUSH32 0x5DB9EE0A495BF2E6FF9C91A7834C1BA4FDD244A5E8AA4E537BD38AEAE4B073AA CALLER JUMPDEST PUSH1 0x40 MLOAD PUSH1 0x1 PUSH1 0x1 PUSH1 0xA0 SHL SUB SWAP1 SWAP2 AND DUP2 MSTORE PUSH1 0x20 ADD PUSH1 0x40 MLOAD DUP1 SWAP2 SUB SWAP1 LOG1 JUMP JUMPDEST PUSH0 DUP1 SLOAD PUSH1 0x1 PUSH1 0x1 PUSH1 0xA0 SHL SUB DUP4 DUP2 AND PUSH1 0x1 PUSH1 0x1 PUSH1 0xA0 SHL SUB NOT DUP4 AND DUP2 OR DUP5 SSTORE PUSH1 0x40 MLOAD SWAP2 SWAP1 SWAP3 AND SWAP3 DUP4 SWAP2 PUSH32 0x8BE0079C531659141344CD1FD0A4F28419497F9722A3DAAFE3B4186F6B6457E0 SWAP2 SWAP1 LOG3 POP POP JUMP JUMPDEST PUSH2 0x38F8 PUSH2 0x3279 JUMP JUMPDEST PUSH0 DUP1 SLOAD PUSH1 0xFF PUSH1 0xA0 SHL NOT AND PUSH1 0x1 PUSH1 0xA0 SHL OR SWAP1 SSTORE PUSH32 0x62E78CEA01BEE320CD4E420270B5EA74000D11B0C9F74754EBDBFC544B05A258 PUSH2 0x3884 CALLER SWAP1 JUMP JUMPDEST PUSH0 MLOAD PUSH1 0x20 PUSH2 0x3E32 PUSH0 CODECOPY PUSH0 MLOAD SWAP1 PUSH0 MSTORE SLOAD PUSH1 0x2 SUB PUSH2 0x1817 JUMPI PUSH1 0x40 MLOAD PUSH4 0x3EE5AEB5 PUSH1 0xE0 SHL DUP2 MSTORE PUSH1 0x4 ADD PUSH1 0x40 MLOAD DUP1 SWAP2 SUB SWAP1 REVERT JUMPDEST PUSH0 SLOAD PUSH1 0x1 PUSH1 0xA0 SHL SWAP1 DIV PUSH1 0xFF AND PUSH2 0x1817 JUMPI PUSH1 0x40 MLOAD PUSH4 0x8DFC202B PUSH1 0xE0 SHL DUP2 MSTORE PUSH1 0x4 ADD PUSH1 0x40 MLOAD DUP1 SWAP2 SUB SWAP1 REVERT JUMPDEST PUSH1 0x1 PUSH1 0x1 PUSH1 0xA0 SHL SUB DUP2 AND DUP2 EQ PUSH2 0x148D JUMPI PUSH0 PUSH0 REVERT JUMPDEST PUSH0 PUSH0 PUSH0 PUSH0 PUSH0 PUSH1 0xA0 DUP7 DUP9 SUB SLT ISZERO PUSH2 0x39B2 JUMPI PUSH0 PUSH0 REVERT JUMPDEST DUP6 CALLDATALOAD PUSH2 0x39BD DUP2 PUSH2 0x398A JUMP JUMPDEST SWAP8 PUSH1 0x20 DUP8 ADD CALLDATALOAD SWAP8 POP PUSH1 0x40 DUP8 ADD CALLDATALOAD SWAP7 PUSH1 0x60 DUP2 ADD CALLDATALOAD SWAP7 POP PUSH1 0x80 ADD CALLDATALOAD SWAP5 POP SWAP3 POP POP POP JUMP JUMPDEST PUSH0 PUSH1 0x20 DUP3 DUP5 SUB SLT ISZERO PUSH2 0x39EE JUMPI PUSH0 PUSH0 REVERT JUMPDEST POP CALLDATALOAD SWAP2 SWAP1 POP JUMP JUMPDEST PUSH0 PUSH0 PUSH0 PUSH0 PUSH0 PUSH1 0x80 DUP7 DUP9 SUB SLT ISZERO PUSH2 0x3A09 JUMPI PUSH0 PUSH0 REVERT JUMPDEST DUP6 CALLDATALOAD PUSH2 0x3A14 DUP2 PUSH2 0x398A JUMP JUMPDEST SWAP5 POP PUSH1 0x20 DUP7 ADD CALLDATALOAD PUSH2 0x3A24 DUP2 PUSH2 0x398A JUMP JUMPDEST SWAP4 POP PUSH1 0x40 DUP7 ADD CALLDATALOAD SWAP3 POP PUSH1 0x60 DUP7 ADD CALLDATALOAD PUSH8 0xFFFFFFFFFFFFFFFF DUP2 GT ISZERO PUSH2 0x3A46 JUMPI PUSH0 PUSH0 REVERT JUMPDEST DUP7 ADD PUSH1 0x1F DUP2 ADD DUP9 SGT PUSH2 0x3A56 JUMPI PUSH0 PUSH0 REVERT JUMPDEST DUP1 CALLDATALOAD PUSH8 0xFFFFFFFFFFFFFFFF DUP2 GT ISZERO PUSH2 0x3A6C JUMPI PUSH0 PUSH0 REVERT JUMPDEST DUP9 PUSH1 0x20 DUP3 DUP5 ADD ADD GT ISZERO PUSH2 0x3A7D JUMPI PUSH0 PUSH0 REVERT JUMPDEST SWAP6 SWAP9 SWAP5 SWAP8 POP SWAP3 SWAP6 POP POP POP PUSH1 0x20 ADD SWAP2 SWAP1 JUMP JUMPDEST PUSH0 PUSH0 PUSH0 PUSH0 PUSH1 0x80 DUP6 DUP8 SUB SLT ISZERO PUSH2 0x3AA1 JUMPI PUSH0 PUSH0 REVERT JUMPDEST DUP5 CALLDATALOAD PUSH2 0x3AAC DUP2 PUSH2 0x398A JUMP JUMPDEST SWAP7 PUSH1 0x20 DUP7 ADD CALLDATALOAD SWAP7 POP PUSH1 0x40 DUP7 ADD CALLDATALOAD SWAP6 PUSH1 0x60 ADD CALLDATALOAD SWAP5 POP SWAP3 POP POP POP JUMP JUMPDEST PUSH0 PUSH1 0x20 DUP3 DUP5 SUB SLT ISZERO PUSH2 0x3AD6 JUMPI PUSH0 PUSH0 REVERT JUMPDEST DUP2 CALLDATALOAD PUSH2 0x2A51 DUP2 PUSH2 0x398A JUMP JUMPDEST PUSH0 PUSH0 PUSH0 PUSH1 0x60 DUP5 DUP7 SUB SLT ISZERO PUSH2 0x3AF3 JUMPI PUSH0 PUSH0 REVERT JUMPDEST DUP4 CALLDATALOAD PUSH2 0x3AFE DUP2 PUSH2 0x398A JUMP JUMPDEST SWAP6 PUSH1 0x20 DUP6 ADD CALLDATALOAD SWAP6 POP PUSH1 0x40 SWAP1 SWAP5 ADD CALLDATALOAD SWAP4 SWAP3 POP POP POP JUMP JUMPDEST PUSH0 PUSH0 PUSH0 PUSH0 PUSH0 PUSH0 PUSH1 0xC0 DUP8 DUP10 SUB SLT ISZERO PUSH2 0x3B28 JUMPI PUSH0 PUSH0 REVERT JUMPDEST DUP7 CALLDATALOAD PUSH2 0x3B33 DUP2 PUSH2 0x398A JUMP JUMPDEST SWAP6 POP PUSH1 0x20 DUP8 ADD CALLDATALOAD PUSH2 0x3B43 DUP2 PUSH2 0x398A JUMP JUMPDEST SWAP5 POP PUSH1 0x40 DUP8 ADD CALLDATALOAD SWAP4 POP PUSH1 0x60 DUP8 ADD CALLDATALOAD PUSH2 0x3B5A DUP2 PUSH2 0x398A JUMP JUMPDEST SWAP6 SWAP9 SWAP5 SWAP8 POP SWAP3 SWAP6 PUSH1 0x80 DUP2 ADD CALLDATALOAD SWAP5 PUSH1 0xA0 SWAP1 SWAP2 ADD CALLDATALOAD SWAP4 POP SWAP2 POP POP JUMP JUMPDEST PUSH0 PUSH0 DUP4 PUSH1 0x1F DUP5 ADD SLT PUSH2 0x3B84 JUMPI PUSH0 PUSH0 REVERT JUMPDEST POP DUP2 CALLDATALOAD PUSH8 0xFFFFFFFFFFFFFFFF DUP2 GT ISZERO PUSH2 0x3B9B JUMPI PUSH0 PUSH0 REVERT JUMPDEST PUSH1 0x20 DUP4 ADD SWAP2 POP DUP4 PUSH1 0x20 DUP3 PUSH1 0x5 SHL DUP6 ADD ADD GT ISZERO PUSH2 0x3BB5 JUMPI PUSH0 PUSH0 REVERT JUMPDEST SWAP3 POP SWAP3 SWAP1 POP JUMP JUMPDEST PUSH0 PUSH0 PUSH0 PUSH0 PUSH0 PUSH0 PUSH0 PUSH1 0x80 DUP9 DUP11 SUB SLT ISZERO PUSH2 0x3BD2 JUMPI PUSH0 PUSH0 REVERT JUMPDEST DUP8 CALLDATALOAD PUSH2 0x3BDD DUP2 PUSH2 0x398A JUMP JUMPDEST SWAP7 POP PUSH1 0x20 DUP9 ADD CALLDATALOAD PUSH8 0xFFFFFFFFFFFFFFFF DUP2 GT ISZERO PUSH2 0x3BF8 JUMPI PUSH0 PUSH0 REVERT JUMPDEST PUSH2 0x3C04 DUP11 DUP3 DUP12 ADD PUSH2 0x3B74 JUMP JUMPDEST SWAP1 SWAP8 POP SWAP6 POP POP PUSH1 0x40 DUP9 ADD CALLDATALOAD PUSH8 0xFFFFFFFFFFFFFFFF DUP2 GT ISZERO PUSH2 0x3C23 JUMPI PUSH0 PUSH0 REVERT JUMPDEST PUSH2 0x3C2F DUP11 DUP3 DUP12 ADD PUSH2 0x3B74 JUMP JUMPDEST SWAP1 SWAP6 POP SWAP4 POP POP PUSH1 0x60 DUP9 ADD CALLDATALOAD PUSH8 0xFFFFFFFFFFFFFFFF DUP2 GT ISZERO PUSH2 0x3C4E JUMPI PUSH0 PUSH0 REVERT JUMPDEST PUSH2 0x3C5A DUP11 DUP3 DUP12 ADD PUSH2 0x3B74 JUMP JUMPDEST SWAP9 SWAP12 SWAP8 SWAP11 POP SWAP6 SWAP9 POP SWAP4 SWAP7 SWAP3 SWAP6 SWAP3 SWAP4 POP POP POP JUMP JUMPDEST PUSH1 0x20 DUP1 DUP3 MSTORE DUP3 MLOAD DUP3 DUP3 ADD DUP2 SWAP1 MSTORE PUSH0 SWAP2 DUP5 ADD SWAP1 PUSH1 0x40 DUP5 ADD SWAP1 DUP4 JUMPDEST DUP2 DUP2 LT ISZERO PUSH2 0x3CA4 JUMPI DUP4 MLOAD DUP4 MSTORE PUSH1 0x20 SWAP4 DUP5 ADD SWAP4 SWAP1 SWAP3 ADD SWAP2 PUSH1 0x1 ADD PUSH2 0x3C86 JUMP JUMPDEST POP SWAP1 SWAP6 SWAP5 POP POP POP POP POP JUMP JUMPDEST PUSH0 PUSH0 PUSH1 0x40 DUP4 DUP6 SUB SLT ISZERO PUSH2 0x3CC0 JUMPI PUSH0 PUSH0 REVERT JUMPDEST POP POP DUP1 CALLDATALOAD SWAP3 PUSH1 0x20 SWAP1 SWAP2 ADD CALLDATALOAD SWAP2 POP JUMP JUMPDEST PUSH0 PUSH1 0x20 DUP3 DUP5 SUB SLT ISZERO PUSH2 0x3CDF JUMPI PUSH0 PUSH0 REVERT JUMPDEST DUP2 MLOAD PUSH2 0x2A51 DUP2 PUSH2 0x398A JUMP JUMPDEST PUSH0 PUSH1 0x20 DUP3 DUP5 SUB SLT ISZERO PUSH2 0x3CFA JUMPI PUSH0 PUSH0 REVERT JUMPDEST DUP2 MLOAD DUP1 ISZERO ISZERO DUP2 EQ PUSH2 0x2A51 JUMPI PUSH0 PUSH0 REVERT JUMPDEST PUSH1 0x1 PUSH1 0x1 PUSH1 0xA0 SHL SUB SWAP4 DUP5 AND DUP2 MSTORE SWAP2 SWAP1 SWAP3 AND PUSH1 0x20 DUP3 ADD MSTORE PUSH1 0x40 DUP2 ADD SWAP2 SWAP1 SWAP2 MSTORE PUSH1 0x60 ADD SWAP1 JUMP JUMPDEST PUSH4 0x4E487B71 PUSH1 0xE0 SHL PUSH0 MSTORE PUSH1 0x11 PUSH1 0x4 MSTORE PUSH1 0x24 PUSH0 REVERT JUMPDEST PUSH0 PUSH1 0x1 DUP3 ADD PUSH2 0x3D52 JUMPI PUSH2 0x3D52 PUSH2 0x3D2D JUMP JUMPDEST POP PUSH1 0x1 ADD SWAP1 JUMP JUMPDEST DUP1 DUP3 ADD DUP1 DUP3 GT ISZERO PUSH2 0x3D6C JUMPI PUSH2 0x3D6C PUSH2 0x3D2D JUMP JUMPDEST SWAP3 SWAP2 POP POP JUMP JUMPDEST DUP2 DUP2 SUB DUP2 DUP2 GT ISZERO PUSH2 0x3D6C JUMPI PUSH2 0x3D6C PUSH2 0x3D2D JUMP JUMPDEST DUP1 DUP3 MUL DUP2 ISZERO DUP3 DUP3 DIV DUP5 EQ OR PUSH2 0x3D6C JUMPI PUSH2 0x3D6C PUSH2 0x3D2D JUMP JUMPDEST PUSH0 DUP3 PUSH2 0x3DB6 JUMPI PUSH4 0x4E487B71 PUSH1 0xE0 SHL PUSH0 MSTORE PUSH1 0x12 PUSH1 0x4 MSTORE PUSH1 0x24 PUSH0 REVERT JUMPDEST POP DIV SWAP1 JUMP JUMPDEST PUSH4 0x4E487B71 PUSH1 0xE0 SHL PUSH0 MSTORE PUSH1 0x41 PUSH1 0x4 MSTORE PUSH1 0x24 PUSH0 REVERT JUMPDEST PUSH4 0x4E487B71 PUSH1 0xE0 SHL PUSH0 MSTORE PUSH1 0x32 PUSH1 0x4 MSTORE PUSH1 0x24 PUSH0 REVERT JUMPDEST PUSH0 PUSH0 PUSH1 0x40 DUP4 DUP6 SUB SLT ISZERO PUSH2 0x3DF4 JUMPI PUSH0 PUSH0 REVERT JUMPDEST DUP3 MLOAD PUSH2 0x3DFF DUP2 PUSH2 0x398A JUMP JUMPDEST PUSH1 0x20 SWAP4 SWAP1 SWAP4 ADD MLOAD SWAP3 SWAP5 SWAP3 SWAP4 POP POP POP JUMP JUMPDEST PUSH0 PUSH0 PUSH1 0x40 DUP4 DUP6 SUB SLT ISZERO PUSH2 0x3E20 JUMPI PUSH0 PUSH0 REVERT JUMPDEST POP POP DUP1 MLOAD PUSH1 0x20 SWAP1 SWAP2 ADD MLOAD SWAP1 SWAP3 SWAP1 SWAP2 POP JUMP INVALID SWAP12 PUSH24 0x9B17422D0DF92223018B32B4D1FA46E071723D6817E2486D STOP EXTCODESIZE 0xEC 0xC5 PUSH0 STOP LOG2 PUSH5 0x6970667358 0x22 SLT KECCAK256 PUSH17 0x5E5992AB1D63374D3DA50BD281FCDC5BD7 0xA5 0xC3 0xC4 0xB2 JUMP 0xF9 0xBE 0xBD 0xBF 0xD6 0xCF TIMESTAMP SUB 0xB3 PUSH5 0x736F6C6343 STOP ADDMOD SHR STOP CALLER "},"methodIdentifiers":{"ANTI_SNIPE_DURATION()":"95eae396","BPS_DENOMINATOR()":"e1a45218","MAX_AUCTION_DURATION()":"3fb35178","MAX_BATCH_SIZE()":"cfdbf254","MAX_FEE()":"bc063e1a","MIN_AUCTION_DURATION()":"c2f50a7a","MIN_BID_INCREMENT_BPS()":"14414cc0","SLIPPAGE_BPS()":"77f8bb6d","USD_WEI_FACTOR()":"9f720c62","acceptOffer(uint256)":"c815729d","acceptSwap(uint256)":"1bf33004","auctions(uint256)":"571a26a0","batchListNFT(address,uint256[],uint256[],uint256[])":"adb1fd06","buyDutchAuction(uint256)":"25481f5f","buyNFT(uint256)":"51ed8288","cancelAuction(uint256)":"96b5a755","cancelDutchAuction(uint256)":"ddee8433","cancelListing(uint256)":"305a67a8","cancelOffer(uint256)":"ef706adf","cancelSwap(uint256)":"54d6a2b7","createAuction(address,uint256,uint256,uint256)":"61beb1d7","createDutchAuction(address,uint256,uint256,uint256,uint256)":"065da698","dutchAuctions(uint256)":"f2ab2fc0","endAuction(uint256)":"b9a2de3a","getAuctionCount()":"c44e6640","getDutchAuctionCount()":"bcc872aa","getDutchAuctionCurrentPrice(uint256)":"1be66284","getDutchAuctionPriceInWei(uint256)":"a1f0f438","getListingCount()":"87ed92d7","getListingPriceInWei(uint256)":"cb91ec4f","getOfferCount()":"d048db37","getSwapCount()":"d81671bc","isListingExpired(uint256)":"b50250a3","listNFT(address,uint256,uint256,uint256)":"3c44a5f0","listings(uint256)":"de74e57b","makeOffer(address,uint256,uint256)":"7de3bd07","offers(uint256)":"8a72ea6a","onERC721Received(address,address,uint256,bytes)":"150b7a02","oracle()":"7dc0d1d0","owner()":"8da5cb5b","pause()":"8456cb59","paused()":"5c975abb","pendingWithdrawals(address)":"f3f43703","placeBid(uint256)":"9979ef45","platformFeeBps()":"22dcd13e","proposeSwap(address,address,uint256,address,uint256,uint256)":"a7cd11f0","renounceOwnership()":"715018a6","setOracle(address)":"7adbf973","setPlatformFee(uint256)":"12e8e2c3","swaps(uint256)":"f09c5829","transferOwnership(address)":"f2fde38b","unpause()":"3f4ba83a","updateListingPrice(uint256,uint256)":"c4604943","withdraw()":"3ccfd60b"}}}}}