{
  "_format": "hh-sol-artifact-1",
  "contractName": "NFTCollection",
  "sourceName": "contracts/NFTCollection.sol",
  "abi": [
    {
      "inputs": [],
      "stateMutability": "nonpayable",
      "type": "constructor"
    },
    {
      "inputs": [
        {
          "internalType": "uint256",
          "name": "numerator",
          "type": "uint256"
        },
        {
          "internalType": "uint256",
          "name": "denominator",
          "type": "uint256"
        }
      ],
      "name": "ERC2981InvalidDefaultRoyalty",
      "type": "error"
    },
    {
      "inputs": [
        {
          "internalType": "address",
          "name": "receiver",
          "type": "address"
        }
      ],
      "name": "ERC2981InvalidDefaultRoyaltyReceiver",
      "type": "error"
    },
    {
      "inputs": [
        {
          "internalType": "uint256",
          "name": "tokenId",
          "type": "uint256"
        },
        {
          "internalType": "uint256",
          "name": "numerator",
          "type": "uint256"
        },
        {
          "internalType": "uint256",
          "name": "denominator",
          "type": "uint256"
        }
      ],
      "name": "ERC2981InvalidTokenRoyalty",
      "type": "error"
    },
    {
      "inputs": [
        {
          "internalType": "uint256",
          "name": "tokenId",
          "type": "uint256"
        },
        {
          "internalType": "address",
          "name": "receiver",
          "type": "address"
        }
      ],
      "name": "ERC2981InvalidTokenRoyaltyReceiver",
      "type": "error"
    },
    {
      "inputs": [],
      "name": "ERC721EnumerableForbiddenBatchMint",
      "type": "error"
    },
    {
      "inputs": [
        {
          "internalType": "address",
          "name": "sender",
          "type": "address"
        },
        {
          "internalType": "uint256",
          "name": "tokenId",
          "type": "uint256"
        },
        {
          "internalType": "address",
          "name": "owner",
          "type": "address"
        }
      ],
      "name": "ERC721IncorrectOwner",
      "type": "error"
    },
    {
      "inputs": [
        {
          "internalType": "address",
          "name": "operator",
          "type": "address"
        },
        {
          "internalType": "uint256",
          "name": "tokenId",
          "type": "uint256"
        }
      ],
      "name": "ERC721InsufficientApproval",
      "type": "error"
    },
    {
      "inputs": [
        {
          "internalType": "address",
          "name": "approver",
          "type": "address"
        }
      ],
      "name": "ERC721InvalidApprover",
      "type": "error"
    },
    {
      "inputs": [
        {
          "internalType": "address",
          "name": "operator",
          "type": "address"
        }
      ],
      "name": "ERC721InvalidOperator",
      "type": "error"
    },
    {
      "inputs": [
        {
          "internalType": "address",
          "name": "owner",
          "type": "address"
        }
      ],
      "name": "ERC721InvalidOwner",
      "type": "error"
    },
    {
      "inputs": [
        {
          "internalType": "address",
          "name": "receiver",
          "type": "address"
        }
      ],
      "name": "ERC721InvalidReceiver",
      "type": "error"
    },
    {
      "inputs": [
        {
          "internalType": "address",
          "name": "sender",
          "type": "address"
        }
      ],
      "name": "ERC721InvalidSender",
      "type": "error"
    },
    {
      "inputs": [
        {
          "internalType": "uint256",
          "name": "tokenId",
          "type": "uint256"
        }
      ],
      "name": "ERC721NonexistentToken",
      "type": "error"
    },
    {
      "inputs": [
        {
          "internalType": "address",
          "name": "owner",
          "type": "address"
        },
        {
          "internalType": "uint256",
          "name": "index",
          "type": "uint256"
        }
      ],
      "name": "ERC721OutOfBoundsIndex",
      "type": "error"
    },
    {
      "inputs": [],
      "name": "RoyaltyFeeTooHigh",
      "type": "error"
    },
    {
      "anonymous": false,
      "inputs": [
        {
          "indexed": true,
          "internalType": "address",
          "name": "owner",
          "type": "address"
        },
        {
          "indexed": true,
          "internalType": "address",
          "name": "approved",
          "type": "address"
        },
        {
          "indexed": true,
          "internalType": "uint256",
          "name": "tokenId",
          "type": "uint256"
        }
      ],
      "name": "Approval",
      "type": "event"
    },
    {
      "anonymous": false,
      "inputs": [
        {
          "indexed": true,
          "internalType": "address",
          "name": "owner",
          "type": "address"
        },
        {
          "indexed": true,
          "internalType": "address",
          "name": "operator",
          "type": "address"
        },
        {
          "indexed": false,
          "internalType": "bool",
          "name": "approved",
          "type": "bool"
        }
      ],
      "name": "ApprovalForAll",
      "type": "event"
    },
    {
      "anonymous": false,
      "inputs": [
        {
          "indexed": false,
          "internalType": "uint256",
          "name": "_fromTokenId",
          "type": "uint256"
        },
        {
          "indexed": false,
          "internalType": "uint256",
          "name": "_toTokenId",
          "type": "uint256"
        }
      ],
      "name": "BatchMetadataUpdate",
      "type": "event"
    },
    {
      "anonymous": false,
      "inputs": [
        {
          "indexed": false,
          "internalType": "uint256",
          "name": "_tokenId",
          "type": "uint256"
        }
      ],
      "name": "MetadataUpdate",
      "type": "event"
    },
    {
      "anonymous": false,
      "inputs": [
        {
          "indexed": true,
          "internalType": "uint256",
          "name": "tokenId",
          "type": "uint256"
        },
        {
          "indexed": true,
          "internalType": "address",
          "name": "creator",
          "type": "address"
        },
        {
          "indexed": false,
          "internalType": "string",
          "name": "tokenURI",
          "type": "string"
        },
        {
          "indexed": false,
          "internalType": "uint96",
          "name": "royaltyFee",
          "type": "uint96"
        }
      ],
      "name": "NFTMinted",
      "type": "event"
    },
    {
      "anonymous": false,
      "inputs": [
        {
          "indexed": true,
          "internalType": "address",
          "name": "from",
          "type": "address"
        },
        {
          "indexed": true,
          "internalType": "address",
          "name": "to",
          "type": "address"
        },
        {
          "indexed": true,
          "internalType": "uint256",
          "name": "tokenId",
          "type": "uint256"
        }
      ],
      "name": "Transfer",
      "type": "event"
    },
    {
      "inputs": [],
      "name": "MAX_ROYALTY_FEE",
      "outputs": [
        {
          "internalType": "uint96",
          "name": "",
          "type": "uint96"
        }
      ],
      "stateMutability": "view",
      "type": "function"
    },
    {
      "inputs": [
        {
          "internalType": "address",
          "name": "to",
          "type": "address"
        },
        {
          "internalType": "uint256",
          "name": "tokenId",
          "type": "uint256"
        }
      ],
      "name": "approve",
      "outputs": [],
      "stateMutability": "nonpayable",
      "type": "function"
    },
    {
      "inputs": [
        {
          "internalType": "address",
          "name": "owner",
          "type": "address"
        }
      ],
      "name": "balanceOf",
      "outputs": [
        {
          "internalType": "uint256",
          "name": "",
          "type": "uint256"
        }
      ],
      "stateMutability": "view",
      "type": "function"
    },
    {
      "inputs": [
        {
          "internalType": "uint256",
          "name": "tokenId",
          "type": "uint256"
        }
      ],
      "name": "getApproved",
      "outputs": [
        {
          "internalType": "address",
          "name": "",
          "type": "address"
        }
      ],
      "stateMutability": "view",
      "type": "function"
    },
    {
      "inputs": [
        {
          "internalType": "uint256",
          "name": "tokenId",
          "type": "uint256"
        }
      ],
      "name": "getCreator",
      "outputs": [
        {
          "internalType": "address",
          "name": "",
          "type": "address"
        }
      ],
      "stateMutability": "view",
      "type": "function"
    },
    {
      "inputs": [
        {
          "internalType": "address",
          "name": "owner",
          "type": "address"
        },
        {
          "internalType": "address",
          "name": "operator",
          "type": "address"
        }
      ],
      "name": "isApprovedForAll",
      "outputs": [
        {
          "internalType": "bool",
          "name": "",
          "type": "bool"
        }
      ],
      "stateMutability": "view",
      "type": "function"
    },
    {
      "inputs": [
        {
          "internalType": "address",
          "name": "to",
          "type": "address"
        },
        {
          "internalType": "string",
          "name": "uri",
          "type": "string"
        },
        {
          "internalType": "uint96",
          "name": "royaltyFee",
          "type": "uint96"
        }
      ],
      "name": "mintNFT",
      "outputs": [
        {
          "internalType": "uint256",
          "name": "",
          "type": "uint256"
        }
      ],
      "stateMutability": "nonpayable",
      "type": "function"
    },
    {
      "inputs": [],
      "name": "name",
      "outputs": [
        {
          "internalType": "string",
          "name": "",
          "type": "string"
        }
      ],
      "stateMutability": "view",
      "type": "function"
    },
    {
      "inputs": [
        {
          "internalType": "uint256",
          "name": "tokenId",
          "type": "uint256"
        }
      ],
      "name": "ownerOf",
      "outputs": [
        {
          "internalType": "address",
          "name": "",
          "type": "address"
        }
      ],
      "stateMutability": "view",
      "type": "function"
    },
    {
      "inputs": [
        {
          "internalType": "uint256",
          "name": "tokenId",
          "type": "uint256"
        },
        {
          "internalType": "uint256",
          "name": "salePrice",
          "type": "uint256"
        }
      ],
      "name": "royaltyInfo",
      "outputs": [
        {
          "internalType": "address",
          "name": "receiver",
          "type": "address"
        },
        {
          "internalType": "uint256",
          "name": "amount",
          "type": "uint256"
        }
      ],
      "stateMutability": "view",
      "type": "function"
    },
    {
      "inputs": [
        {
          "internalType": "address",
          "name": "from",
          "type": "address"
        },
        {
          "internalType": "address",
          "name": "to",
          "type": "address"
        },
        {
          "internalType": "uint256",
          "name": "tokenId",
          "type": "uint256"
        }
      ],
      "name": "safeTransferFrom",
      "outputs": [],
      "stateMutability": "nonpayable",
      "type": "function"
    },
    {
      "inputs": [
        {
          "internalType": "address",
          "name": "from",
          "type": "address"
        },
        {
          "internalType": "address",
          "name": "to",
          "type": "address"
        },
        {
          "internalType": "uint256",
          "name": "tokenId",
          "type": "uint256"
        },
        {
          "internalType": "bytes",
          "name": "data",
          "type": "bytes"
        }
      ],
      "name": "safeTransferFrom",
      "outputs": [],
      "stateMutability": "nonpayable",
      "type": "function"
    },
    {
      "inputs": [
        {
          "internalType": "address",
          "name": "operator",
          "type": "address"
        },
        {
          "internalType": "bool",
          "name": "approved",
          "type": "bool"
        }
      ],
      "name": "setApprovalForAll",
      "outputs": [],
      "stateMutability": "nonpayable",
      "type": "function"
    },
    {
      "inputs": [
        {
          "internalType": "bytes4",
          "name": "interfaceId",
          "type": "bytes4"
        }
      ],
      "name": "supportsInterface",
      "outputs": [
        {
          "internalType": "bool",
          "name": "",
          "type": "bool"
        }
      ],
      "stateMutability": "view",
      "type": "function"
    },
    {
      "inputs": [],
      "name": "symbol",
      "outputs": [
        {
          "internalType": "string",
          "name": "",
          "type": "string"
        }
      ],
      "stateMutability": "view",
      "type": "function"
    },
    {
      "inputs": [
        {
          "internalType": "uint256",
          "name": "index",
          "type": "uint256"
        }
      ],
      "name": "tokenByIndex",
      "outputs": [
        {
          "internalType": "uint256",
          "name": "",
          "type": "uint256"
        }
      ],
      "stateMutability": "view",
      "type": "function"
    },
    {
      "inputs": [
        {
          "internalType": "address",
          "name": "owner",
          "type": "address"
        },
        {
          "internalType": "uint256",
          "name": "index",
          "type": "uint256"
        }
      ],
      "name": "tokenOfOwnerByIndex",
      "outputs": [
        {
          "internalType": "uint256",
          "name": "",
          "type": "uint256"
        }
      ],
      "stateMutability": "view",
      "type": "function"
    },
    {
      "inputs": [
        {
          "internalType": "uint256",
          "name": "tokenId",
          "type": "uint256"
        }
      ],
      "name": "tokenURI",
      "outputs": [
        {
          "internalType": "string",
          "name": "",
          "type": "string"
        }
      ],
      "stateMutability": "view",
      "type": "function"
    },
    {
      "inputs": [],
      "name": "totalSupply",
      "outputs": [
        {
          "internalType": "uint256",
          "name": "",
          "type": "uint256"
        }
      ],
      "stateMutability": "view",
      "type": "function"
    },
    {
      "inputs": [
        {
          "internalType": "address",
          "name": "from",
          "type": "address"
        },
        {
          "internalType": "address",
          "name": "to",
          "type": "address"
        },
        {
          "internalType": "uint256",
          "name": "tokenId",
          "type": "uint256"
        }
      ],
      "name": "transferFrom",
      "outputs": [],
      "stateMutability": "nonpayable",
      "type": "function"
    }
  ],
  "bytecode": "0x60806040526001600d55348015610014575f5ffd5b5060405180604001604052806012815260200171272aa99027232a1021b7b63632b1ba34b7b760711b81525060405180604001604052806006815260200165139554d3919560d21b815250815f908161006d919061011a565b50600161007a828261011a565b5050506101d4565b634e487b7160e01b5f52604160045260245ffd5b600181811c908216806100aa57607f821691505b6020821081036100c857634e487b7160e01b5f52602260045260245ffd5b50919050565b601f82111561011557805f5260205f20601f840160051c810160208510156100f35750805b601f840160051c820191505b81811015610112575f81556001016100ff565b50505b505050565b81516001600160401b0381111561013357610133610082565b610147816101418454610096565b846100ce565b6020601f821160018114610179575f83156101625750848201515b5f19600385901b1c1916600184901b178455610112565b5f84815260208120601f198516915b828110156101a85787850151825560209485019460019092019101610188565b50848210156101c557868401515f19600387901b60f8161c191681555b50505050600190811b01905550565b6119f7806101e15f395ff3fe608060405234801561000f575f5ffd5b5060043610610127575f3560e01c806342842e0e116100a9578063a22cb4651161006e578063a22cb4651461029a578063b88d4fde146102ad578063c87b56dd146102c0578063d48e638a146102d3578063e985e9c5146102e6575f5ffd5b806342842e0e146102465780634f6ccce7146102595780636352211e1461026c57806370a082311461027f57806395d89b4114610292575f5ffd5b806318160ddd116100ef57806318160ddd146101c957806323b872dd146101db5780632a55205a146101ee5780632f745c59146102205780633758933f14610233575f5ffd5b806301ffc9a71461012b57806306fdde0314610153578063081812fc14610168578063095ea7b31461019357806317e1f82e146101a8575b5f5ffd5b61013e61013936600461140c565b6102f9565b60405190151581526020015b60405180910390f35b61015b610309565b60405161014a9190611455565b61017b610176366004611467565b610398565b6040516001600160a01b03909116815260200161014a565b6101a66101a1366004611499565b6103bf565b005b6101b16103e881565b6040516001600160601b03909116815260200161014a565b6009545b60405190815260200161014a565b6101a66101e93660046114c1565b6103ce565b6102016101fc3660046114fb565b61045c565b604080516001600160a01b03909316835260208301919091520161014a565b6101cd61022e366004611499565b6104df565b6101cd61024136600461151b565b610542565b6101a66102543660046114c1565b610628565b6101cd610267366004611467565b610647565b61017b61027a366004611467565b61069c565b6101cd61028d3660046115b7565b6106a6565b61015b6106eb565b6101a66102a83660046115d0565b6106fa565b6101a66102bb36600461161d565b610705565b61015b6102ce366004611467565b61071d565b61017b6102e1366004611467565b610728565b61013e6102f43660046116fa565b61073c565b5f61030382610769565b92915050565b60605f80546103179061172b565b80601f01602080910402602001604051908101604052809291908181526020018280546103439061172b565b801561038e5780601f106103655761010080835404028352916020019161038e565b820191905f5260205f20905b81548152906001019060200180831161037157829003601f168201915b5050505050905090565b5f6103a28261078d565b505f828152600460205260409020546001600160a01b0316610303565b6103ca8282336107c5565b5050565b6001600160a01b0382166103fc57604051633250574960e11b81525f60048201526024015b60405180910390fd5b5f6104088383336107d2565b9050836001600160a01b0316816001600160a01b031614610456576040516364283d7b60e01b81526001600160a01b03808616600483015260248201849052821660448201526064016103f3565b50505050565b5f828152600c6020526040812080548291906001600160a01b03811690600160a01b90046001600160601b0316816104af575050600b546001600160a01b03811690600160a01b90046001600160601b03165b5f6127106104c66001600160601b03841689611777565b6104d0919061178e565b92989297509195505050505050565b5f6104e9836106a6565b821061051a5760405163295f44f760e21b81526001600160a01b0384166004820152602481018390526044016103f3565b506001600160a01b03919091165f908152600760209081526040808320938352929052205490565b5f6103e86001600160601b038316111561056f5760405163112e4ee960e21b815260040160405180910390fd5b600d80545f918261057f836117ad565b91905055905061058f86826107e6565b6105ce8186868080601f0160208091040260200160405190810160405280939291908181526020018383808284375f920191909152506107ff92505050565b6105d981338561084e565b336001600160a01b0316817fd305ddd0a4ca3207522e270c1d2564b12fd6177ef0681e30466c521a9ef974cf878787604051610617939291906117c5565b60405180910390a395945050505050565b61064283838360405180602001604052805f815250610705565b505050565b5f61065160095490565b82106106795760405163295f44f760e21b81525f6004820152602481018390526044016103f3565b6009828154811061068c5761068c611805565b905f5260205f2001549050919050565b5f6103038261078d565b5f6001600160a01b0382166106d0576040516322718ad960e21b81525f60048201526024016103f3565b506001600160a01b03165f9081526003602052604090205490565b6060600180546103179061172b565b6103ca33838361090e565b6107108484846103ce565b61045633858585856109d5565b606061030382610afd565b5f5f610734835f61045c565b509392505050565b6001600160a01b039182165f90815260056020908152604080832093909416825291909152205460ff1690565b5f6001600160e01b0319821663152a902d60e11b1480610303575061030382610b76565b5f818152600260205260408120546001600160a01b03168061030357604051637e27328960e01b8152600481018490526024016103f3565b6106428383836001610b9a565b5f6107de848484610c9e565b949350505050565b6103ca828260405180602001604052805f815250610d69565b5f828152600660205260409020610816828261185d565b506040518281527ff8e1a15aba9398e019f0b49df1a4fde98ee17ae345cb5f6b5e2c27f5033e8ce79060200160405180910390a15050565b6127106001600160601b0382168110156108945760405163dfd1fc1b60e01b8152600481018590526001600160601b0383166024820152604481018290526064016103f3565b6001600160a01b0383166108c457604051634b4f842960e11b8152600481018590525f60248201526044016103f3565b506040805180820182526001600160a01b0393841681526001600160601b0392831660208083019182525f968752600c90529190942093519051909116600160a01b029116179055565b6001600160a01b0383166109375760405163a9fbf51f60e01b81525f60048201526024016103f3565b6001600160a01b03821661096957604051630b61174360e31b81526001600160a01b03831660048201526024016103f3565b6001600160a01b038381165f81815260056020908152604080832094871680845294825291829020805460ff191686151590811790915591519182527f17307eab39ab6107e8899845ad3d59bd9653f200f220920489ca2b5937696c31910160405180910390a3505050565b6001600160a01b0383163b15610af657604051630a85bd0160e11b81526001600160a01b0384169063150b7a0290610a17908890889087908790600401611918565b6020604051808303815f875af1925050508015610a51575060408051601f3d908101601f19168201909252610a4e91810190611954565b60015b610ab8573d808015610a7e576040519150601f19603f3d011682016040523d82523d5f602084013e610a83565b606091505b5080515f03610ab057604051633250574960e11b81526001600160a01b03851660048201526024016103f3565b805160208201fd5b6001600160e01b03198116630a85bd0160e11b14610af457604051633250574960e11b81526001600160a01b03851660048201526024016103f3565b505b5050505050565b6060610b088261078d565b505f610b1e60408051602081019091525f815290565b90505f610b2a84610d80565b905081515f03610b3b579392505050565b805115610b6d578181604051602001610b55929190611986565b60405160208183030381529060405292505050919050565b6107de84610e1f565b5f6001600160e01b0319821663780e9d6360e01b1480610303575061030382610e90565b8080610bae57506001600160a01b03821615155b15610c6f575f610bbd8461078d565b90506001600160a01b03831615801590610be95750826001600160a01b0316816001600160a01b031614155b8015610bfc5750610bfa818461073c565b155b15610c255760405163a9fbf51f60e01b81526001600160a01b03841660048201526024016103f3565b8115610c6d5783856001600160a01b0316826001600160a01b03167f8c5be1e5ebec7d5bd14f71427d1e84f3dd0314c0f7b2291e5b200ac8c7c3b92560405160405180910390a45b505b50505f90815260046020526040902080546001600160a01b0319166001600160a01b0392909216919091179055565b5f5f610cab858585610eb4565b90506001600160a01b038116610d0757610d0284600980545f838152600a60205260408120829055600182018355919091527f6e1540171b6c0c960b71a7020d9f60077f6af931a8bbf590da0223dacf75c7af0155565b610d2a565b846001600160a01b0316816001600160a01b031614610d2a57610d2a8185610fa6565b6001600160a01b038516610d4657610d4184611023565b6107de565b846001600160a01b0316816001600160a01b0316146107de576107de85856110ca565b610d738383611118565b610642335f8585856109d5565b5f818152600660205260409020805460609190610d9c9061172b565b80601f0160208091040260200160405190810160405280929190818152602001828054610dc89061172b565b8015610e135780601f10610dea57610100808354040283529160200191610e13565b820191905f5260205f20905b815481529060010190602001808311610df657829003601f168201915b50505050509050919050565b6060610e2a8261078d565b505f610e4060408051602081019091525f815290565b90505f815111610e5e5760405180602001604052805f815250610e89565b80610e6884611179565b604051602001610e79929190611986565b6040516020818303038152906040525b9392505050565b5f6001600160e01b03198216632483248360e11b1480610303575061030382611209565b5f828152600260205260408120546001600160a01b0390811690831615610ee057610ee0818486611258565b6001600160a01b03811615610f1a57610efb5f855f5f610b9a565b6001600160a01b0381165f90815260036020526040902080545f190190555b6001600160a01b03851615610f48576001600160a01b0385165f908152600360205260409020805460010190555b5f8481526002602052604080822080546001600160a01b0319166001600160a01b0389811691821790925591518793918516917fddf252ad1be2c89b69c2b068fc378daa952ba7f163c4a11628f55a4df523b3ef91a4949350505050565b5f610fb0836106a6565b5f838152600860209081526040808320546001600160a01b0388168452600790925290912091925090818314611005575f83815260208281526040808320548584528184208190558352600890915290208290555b5f938452600860209081526040808620869055938552525081205550565b6009545f906110349060019061199a565b5f838152600a60205260408120546009805493945090928490811061105b5761105b611805565b905f5260205f2001549050806009838154811061107a5761107a611805565b5f918252602080832090910192909255828152600a909152604080822084905585825281205560098054806110b1576110b16119ad565b600190038181905f5260205f20015f9055905550505050565b5f60016110d6846106a6565b6110e0919061199a565b6001600160a01b039093165f908152600760209081526040808320868452825280832085905593825260089052919091209190915550565b6001600160a01b03821661114157604051633250574960e11b81525f60048201526024016103f3565b5f61114d83835f6107d2565b90506001600160a01b03811615610642576040516339e3563760e11b81525f60048201526024016103f3565b60605f611185836112bc565b60010190505f8167ffffffffffffffff8111156111a4576111a4611609565b6040519080825280601f01601f1916602001820160405280156111ce576020820181803683370190505b5090508181016020015b5f19016f181899199a1a9b1b9c1cb0b131b232b360811b600a86061a8153600a85049450846111d857509392505050565b5f6001600160e01b031982166380ac58cd60e01b148061123957506001600160e01b03198216635b5e139f60e01b145b8061030357506301ffc9a760e01b6001600160e01b0319831614610303565b611263838383611393565b610642576001600160a01b03831661129157604051637e27328960e01b8152600481018290526024016103f3565b60405163177e802f60e01b81526001600160a01b0383166004820152602481018290526044016103f3565b5f8072184f03e93ff9f4daa797ed6e38ed64bf6a1f0160401b83106112fa5772184f03e93ff9f4daa797ed6e38ed64bf6a1f0160401b830492506040015b6d04ee2d6d415b85acef81000000008310611326576d04ee2d6d415b85acef8100000000830492506020015b662386f26fc10000831061134457662386f26fc10000830492506010015b6305f5e100831061135c576305f5e100830492506008015b612710831061137057612710830492506004015b60648310611382576064830492506002015b600a83106103035760010192915050565b5f6001600160a01b038316158015906107de5750826001600160a01b0316846001600160a01b031614806113cc57506113cc848461073c565b806107de5750505f908152600460205260409020546001600160a01b03908116911614919050565b6001600160e01b031981168114611409575f5ffd5b50565b5f6020828403121561141c575f5ffd5b8135610e89816113f4565b5f81518084528060208401602086015e5f602082860101526020601f19601f83011685010191505092915050565b602081525f610e896020830184611427565b5f60208284031215611477575f5ffd5b5035919050565b80356001600160a01b0381168114611494575f5ffd5b919050565b5f5f604083850312156114aa575f5ffd5b6114b38361147e565b946020939093013593505050565b5f5f5f606084860312156114d3575f5ffd5b6114dc8461147e565b92506114ea6020850161147e565b929592945050506040919091013590565b5f5f6040838503121561150c575f5ffd5b50508035926020909101359150565b5f5f5f5f6060858703121561152e575f5ffd5b6115378561147e565b9350602085013567ffffffffffffffff811115611552575f5ffd5b8501601f81018713611562575f5ffd5b803567ffffffffffffffff811115611578575f5ffd5b876020828401011115611589575f5ffd5b6020919091019350915060408501356001600160601b03811681146115ac575f5ffd5b939692955090935050565b5f602082840312156115c7575f5ffd5b610e898261147e565b5f5f604083850312156115e1575f5ffd5b6115ea8361147e565b9150602083013580151581146115fe575f5ffd5b809150509250929050565b634e487b7160e01b5f52604160045260245ffd5b5f5f5f5f60808587031215611630575f5ffd5b6116398561147e565b93506116476020860161147e565b925060408501359150606085013567ffffffffffffffff811115611669575f5ffd5b8501601f81018713611679575f5ffd5b803567ffffffffffffffff81111561169357611693611609565b604051601f8201601f19908116603f0116810167ffffffffffffffff811182821017156116c2576116c2611609565b6040528181528282016020018910156116d9575f5ffd5b816020840160208301375f6020838301015280935050505092959194509250565b5f5f6040838503121561170b575f5ffd5b6117148361147e565b91506117226020840161147e565b90509250929050565b600181811c9082168061173f57607f821691505b60208210810361175d57634e487b7160e01b5f52602260045260245ffd5b50919050565b634e487b7160e01b5f52601160045260245ffd5b808202811582820484141761030357610303611763565b5f826117a857634e487b7160e01b5f52601260045260245ffd5b500490565b5f600182016117be576117be611763565b5060010190565b60408152826040820152828460608301375f606084830101525f6060601f19601f86011683010190506001600160601b0383166020830152949350505050565b634e487b7160e01b5f52603260045260245ffd5b601f82111561064257805f5260205f20601f840160051c8101602085101561183e5750805b601f840160051c820191505b81811015610af6575f815560010161184a565b815167ffffffffffffffff81111561187757611877611609565b61188b81611885845461172b565b84611819565b6020601f8211600181146118bd575f83156118a65750848201515b5f19600385901b1c1916600184901b178455610af6565b5f84815260208120601f198516915b828110156118ec57878501518255602094850194600190920191016118cc565b508482101561190957868401515f19600387901b60f8161c191681555b50505050600190811b01905550565b6001600160a01b03858116825284166020820152604081018390526080606082018190525f9061194a90830184611427565b9695505050505050565b5f60208284031215611964575f5ffd5b8151610e89816113f4565b5f81518060208401855e5f93019283525090919050565b5f6107de611994838661196f565b8461196f565b8181038181111561030357610303611763565b634e487b7160e01b5f52603160045260245ffdfea264697066735822122055c001cf35ff64e30177865c9467b7bc7fbc5ea39299375bf92804dc78bdf92f64736f6c634300081c0033",
  "linkReferences": {},
  "deployedLinkReferences": {}
}