{
  "_format": "hh-sol-artifact-1",
  "contractName": "NFTCollection",
  "sourceName": "contracts/NFTCollection.sol",
  "abi": [
    {
      "inputs": [],
      "stateMutability": "nonpayable",
      "type": "constructor"
    },
    {
      "inputs": [
        {
          "internalType": "uint256",
          "name": "numerator",
          "type": "uint256"
        },
        {
          "internalType": "uint256",
          "name": "denominator",
          "type": "uint256"
        }
      ],
      "name": "ERC2981InvalidDefaultRoyalty",
      "type": "error"
    },
    {
      "inputs": [
        {
          "internalType": "address",
          "name": "receiver",
          "type": "address"
        }
      ],
      "name": "ERC2981InvalidDefaultRoyaltyReceiver",
      "type": "error"
    },
    {
      "inputs": [
        {
          "internalType": "uint256",
          "name": "tokenId",
          "type": "uint256"
        },
        {
          "internalType": "uint256",
          "name": "numerator",
          "type": "uint256"
        },
        {
          "internalType": "uint256",
          "name": "denominator",
          "type": "uint256"
        }
      ],
      "name": "ERC2981InvalidTokenRoyalty",
      "type": "error"
    },
    {
      "inputs": [
        {
          "internalType": "uint256",
          "name": "tokenId",
          "type": "uint256"
        },
        {
          "internalType": "address",
          "name": "receiver",
          "type": "address"
        }
      ],
      "name": "ERC2981InvalidTokenRoyaltyReceiver",
      "type": "error"
    },
    {
      "inputs": [],
      "name": "ERC721EnumerableForbiddenBatchMint",
      "type": "error"
    },
    {
      "inputs": [
        {
          "internalType": "address",
          "name": "sender",
          "type": "address"
        },
        {
          "internalType": "uint256",
          "name": "tokenId",
          "type": "uint256"
        },
        {
          "internalType": "address",
          "name": "owner",
          "type": "address"
        }
      ],
      "name": "ERC721IncorrectOwner",
      "type": "error"
    },
    {
      "inputs": [
        {
          "internalType": "address",
          "name": "operator",
          "type": "address"
        },
        {
          "internalType": "uint256",
          "name": "tokenId",
          "type": "uint256"
        }
      ],
      "name": "ERC721InsufficientApproval",
      "type": "error"
    },
    {
      "inputs": [
        {
          "internalType": "address",
          "name": "approver",
          "type": "address"
        }
      ],
      "name": "ERC721InvalidApprover",
      "type": "error"
    },
    {
      "inputs": [
        {
          "internalType": "address",
          "name": "operator",
          "type": "address"
        }
      ],
      "name": "ERC721InvalidOperator",
      "type": "error"
    },
    {
      "inputs": [
        {
          "internalType": "address",
          "name": "owner",
          "type": "address"
        }
      ],
      "name": "ERC721InvalidOwner",
      "type": "error"
    },
    {
      "inputs": [
        {
          "internalType": "address",
          "name": "receiver",
          "type": "address"
        }
      ],
      "name": "ERC721InvalidReceiver",
      "type": "error"
    },
    {
      "inputs": [
        {
          "internalType": "address",
          "name": "sender",
          "type": "address"
        }
      ],
      "name": "ERC721InvalidSender",
      "type": "error"
    },
    {
      "inputs": [
        {
          "internalType": "uint256",
          "name": "tokenId",
          "type": "uint256"
        }
      ],
      "name": "ERC721NonexistentToken",
      "type": "error"
    },
    {
      "inputs": [
        {
          "internalType": "address",
          "name": "owner",
          "type": "address"
        },
        {
          "internalType": "uint256",
          "name": "index",
          "type": "uint256"
        }
      ],
      "name": "ERC721OutOfBoundsIndex",
      "type": "error"
    },
    {
      "inputs": [
        {
          "internalType": "address",
          "name": "owner",
          "type": "address"
        }
      ],
      "name": "OwnableInvalidOwner",
      "type": "error"
    },
    {
      "inputs": [
        {
          "internalType": "address",
          "name": "account",
          "type": "address"
        }
      ],
      "name": "OwnableUnauthorizedAccount",
      "type": "error"
    },
    {
      "inputs": [],
      "name": "RoyaltyFeeTooHigh",
      "type": "error"
    },
    {
      "anonymous": false,
      "inputs": [
        {
          "indexed": true,
          "internalType": "address",
          "name": "owner",
          "type": "address"
        },
        {
          "indexed": true,
          "internalType": "address",
          "name": "approved",
          "type": "address"
        },
        {
          "indexed": true,
          "internalType": "uint256",
          "name": "tokenId",
          "type": "uint256"
        }
      ],
      "name": "Approval",
      "type": "event"
    },
    {
      "anonymous": false,
      "inputs": [
        {
          "indexed": true,
          "internalType": "address",
          "name": "owner",
          "type": "address"
        },
        {
          "indexed": true,
          "internalType": "address",
          "name": "operator",
          "type": "address"
        },
        {
          "indexed": false,
          "internalType": "bool",
          "name": "approved",
          "type": "bool"
        }
      ],
      "name": "ApprovalForAll",
      "type": "event"
    },
    {
      "anonymous": false,
      "inputs": [
        {
          "indexed": false,
          "internalType": "uint256",
          "name": "_fromTokenId",
          "type": "uint256"
        },
        {
          "indexed": false,
          "internalType": "uint256",
          "name": "_toTokenId",
          "type": "uint256"
        }
      ],
      "name": "BatchMetadataUpdate",
      "type": "event"
    },
    {
      "anonymous": false,
      "inputs": [
        {
          "indexed": false,
          "internalType": "uint256",
          "name": "_tokenId",
          "type": "uint256"
        }
      ],
      "name": "MetadataUpdate",
      "type": "event"
    },
    {
      "anonymous": false,
      "inputs": [
        {
          "indexed": true,
          "internalType": "uint256",
          "name": "tokenId",
          "type": "uint256"
        },
        {
          "indexed": true,
          "internalType": "address",
          "name": "creator",
          "type": "address"
        },
        {
          "indexed": false,
          "internalType": "string",
          "name": "tokenURI",
          "type": "string"
        },
        {
          "indexed": false,
          "internalType": "uint96",
          "name": "royaltyFee",
          "type": "uint96"
        }
      ],
      "name": "NFTMinted",
      "type": "event"
    },
    {
      "anonymous": false,
      "inputs": [
        {
          "indexed": true,
          "internalType": "address",
          "name": "previousOwner",
          "type": "address"
        },
        {
          "indexed": true,
          "internalType": "address",
          "name": "newOwner",
          "type": "address"
        }
      ],
      "name": "OwnershipTransferred",
      "type": "event"
    },
    {
      "anonymous": false,
      "inputs": [
        {
          "indexed": true,
          "internalType": "address",
          "name": "from",
          "type": "address"
        },
        {
          "indexed": true,
          "internalType": "address",
          "name": "to",
          "type": "address"
        },
        {
          "indexed": true,
          "internalType": "uint256",
          "name": "tokenId",
          "type": "uint256"
        }
      ],
      "name": "Transfer",
      "type": "event"
    },
    {
      "inputs": [],
      "name": "MAX_ROYALTY_FEE",
      "outputs": [
        {
          "internalType": "uint96",
          "name": "",
          "type": "uint96"
        }
      ],
      "stateMutability": "view",
      "type": "function"
    },
    {
      "inputs": [
        {
          "internalType": "address",
          "name": "to",
          "type": "address"
        },
        {
          "internalType": "uint256",
          "name": "tokenId",
          "type": "uint256"
        }
      ],
      "name": "approve",
      "outputs": [],
      "stateMutability": "nonpayable",
      "type": "function"
    },
    {
      "inputs": [
        {
          "internalType": "address",
          "name": "owner",
          "type": "address"
        }
      ],
      "name": "balanceOf",
      "outputs": [
        {
          "internalType": "uint256",
          "name": "",
          "type": "uint256"
        }
      ],
      "stateMutability": "view",
      "type": "function"
    },
    {
      "inputs": [
        {
          "internalType": "uint256",
          "name": "tokenId",
          "type": "uint256"
        }
      ],
      "name": "getApproved",
      "outputs": [
        {
          "internalType": "address",
          "name": "",
          "type": "address"
        }
      ],
      "stateMutability": "view",
      "type": "function"
    },
    {
      "inputs": [
        {
          "internalType": "uint256",
          "name": "tokenId",
          "type": "uint256"
        }
      ],
      "name": "getCreator",
      "outputs": [
        {
          "internalType": "address",
          "name": "",
          "type": "address"
        }
      ],
      "stateMutability": "view",
      "type": "function"
    },
    {
      "inputs": [
        {
          "internalType": "address",
          "name": "owner",
          "type": "address"
        },
        {
          "internalType": "address",
          "name": "operator",
          "type": "address"
        }
      ],
      "name": "isApprovedForAll",
      "outputs": [
        {
          "internalType": "bool",
          "name": "",
          "type": "bool"
        }
      ],
      "stateMutability": "view",
      "type": "function"
    },
    {
      "inputs": [
        {
          "internalType": "address",
          "name": "to",
          "type": "address"
        },
        {
          "internalType": "string",
          "name": "uri",
          "type": "string"
        },
        {
          "internalType": "uint96",
          "name": "royaltyFee",
          "type": "uint96"
        }
      ],
      "name": "mintNFT",
      "outputs": [
        {
          "internalType": "uint256",
          "name": "",
          "type": "uint256"
        }
      ],
      "stateMutability": "nonpayable",
      "type": "function"
    },
    {
      "inputs": [],
      "name": "name",
      "outputs": [
        {
          "internalType": "string",
          "name": "",
          "type": "string"
        }
      ],
      "stateMutability": "view",
      "type": "function"
    },
    {
      "inputs": [],
      "name": "owner",
      "outputs": [
        {
          "internalType": "address",
          "name": "",
          "type": "address"
        }
      ],
      "stateMutability": "view",
      "type": "function"
    },
    {
      "inputs": [
        {
          "internalType": "uint256",
          "name": "tokenId",
          "type": "uint256"
        }
      ],
      "name": "ownerOf",
      "outputs": [
        {
          "internalType": "address",
          "name": "",
          "type": "address"
        }
      ],
      "stateMutability": "view",
      "type": "function"
    },
    {
      "inputs": [],
      "name": "renounceOwnership",
      "outputs": [],
      "stateMutability": "nonpayable",
      "type": "function"
    },
    {
      "inputs": [
        {
          "internalType": "uint256",
          "name": "tokenId",
          "type": "uint256"
        },
        {
          "internalType": "uint256",
          "name": "salePrice",
          "type": "uint256"
        }
      ],
      "name": "royaltyInfo",
      "outputs": [
        {
          "internalType": "address",
          "name": "receiver",
          "type": "address"
        },
        {
          "internalType": "uint256",
          "name": "amount",
          "type": "uint256"
        }
      ],
      "stateMutability": "view",
      "type": "function"
    },
    {
      "inputs": [
        {
          "internalType": "address",
          "name": "from",
          "type": "address"
        },
        {
          "internalType": "address",
          "name": "to",
          "type": "address"
        },
        {
          "internalType": "uint256",
          "name": "tokenId",
          "type": "uint256"
        }
      ],
      "name": "safeTransferFrom",
      "outputs": [],
      "stateMutability": "nonpayable",
      "type": "function"
    },
    {
      "inputs": [
        {
          "internalType": "address",
          "name": "from",
          "type": "address"
        },
        {
          "internalType": "address",
          "name": "to",
          "type": "address"
        },
        {
          "internalType": "uint256",
          "name": "tokenId",
          "type": "uint256"
        },
        {
          "internalType": "bytes",
          "name": "data",
          "type": "bytes"
        }
      ],
      "name": "safeTransferFrom",
      "outputs": [],
      "stateMutability": "nonpayable",
      "type": "function"
    },
    {
      "inputs": [
        {
          "internalType": "address",
          "name": "operator",
          "type": "address"
        },
        {
          "internalType": "bool",
          "name": "approved",
          "type": "bool"
        }
      ],
      "name": "setApprovalForAll",
      "outputs": [],
      "stateMutability": "nonpayable",
      "type": "function"
    },
    {
      "inputs": [
        {
          "internalType": "bytes4",
          "name": "interfaceId",
          "type": "bytes4"
        }
      ],
      "name": "supportsInterface",
      "outputs": [
        {
          "internalType": "bool",
          "name": "",
          "type": "bool"
        }
      ],
      "stateMutability": "view",
      "type": "function"
    },
    {
      "inputs": [],
      "name": "symbol",
      "outputs": [
        {
          "internalType": "string",
          "name": "",
          "type": "string"
        }
      ],
      "stateMutability": "view",
      "type": "function"
    },
    {
      "inputs": [
        {
          "internalType": "uint256",
          "name": "index",
          "type": "uint256"
        }
      ],
      "name": "tokenByIndex",
      "outputs": [
        {
          "internalType": "uint256",
          "name": "",
          "type": "uint256"
        }
      ],
      "stateMutability": "view",
      "type": "function"
    },
    {
      "inputs": [
        {
          "internalType": "address",
          "name": "owner",
          "type": "address"
        },
        {
          "internalType": "uint256",
          "name": "index",
          "type": "uint256"
        }
      ],
      "name": "tokenOfOwnerByIndex",
      "outputs": [
        {
          "internalType": "uint256",
          "name": "",
          "type": "uint256"
        }
      ],
      "stateMutability": "view",
      "type": "function"
    },
    {
      "inputs": [
        {
          "internalType": "uint256",
          "name": "tokenId",
          "type": "uint256"
        }
      ],
      "name": "tokenURI",
      "outputs": [
        {
          "internalType": "string",
          "name": "",
          "type": "string"
        }
      ],
      "stateMutability": "view",
      "type": "function"
    },
    {
      "inputs": [],
      "name": "totalSupply",
      "outputs": [
        {
          "internalType": "uint256",
          "name": "",
          "type": "uint256"
        }
      ],
      "stateMutability": "view",
      "type": "function"
    },
    {
      "inputs": [
        {
          "internalType": "address",
          "name": "from",
          "type": "address"
        },
        {
          "internalType": "address",
          "name": "to",
          "type": "address"
        },
        {
          "internalType": "uint256",
          "name": "tokenId",
          "type": "uint256"
        }
      ],
      "name": "transferFrom",
      "outputs": [],
      "stateMutability": "nonpayable",
      "type": "function"
    },
    {
      "inputs": [
        {
          "internalType": "address",
          "name": "newOwner",
          "type": "address"
        }
      ],
      "name": "transferOwnership",
      "outputs": [],
      "stateMutability": "nonpayable",
      "type": "function"
    }
  ],
  "bytecode": "0x608060405234801561000f575f5ffd5b503360405180604001604052806012815260200171272aa99027232a1021b7b63632b1ba34b7b760711b81525060405180604001604052806006815260200165139554d3919560d21b815250815f9081610069919061019e565b506001610076828261019e565b5050506001600160a01b0381166100a657604051631e4fbdf760e01b81525f600482015260240160405180910390fd5b6100af816100b5565b50610258565b600d80546001600160a01b038381166001600160a01b0319831681179093556040519116919082907f8be0079c531659141344cd1fd0a4f28419497f9722a3daafe3b4186f6b6457e0905f90a35050565b634e487b7160e01b5f52604160045260245ffd5b600181811c9082168061012e57607f821691505b60208210810361014c57634e487b7160e01b5f52602260045260245ffd5b50919050565b601f82111561019957805f5260205f20601f840160051c810160208510156101775750805b601f840160051c820191505b81811015610196575f8155600101610183565b50505b505050565b81516001600160401b038111156101b7576101b7610106565b6101cb816101c5845461011a565b84610152565b6020601f8211600181146101fd575f83156101e65750848201515b5f19600385901b1c1916600184901b178455610196565b5f84815260208120601f198516915b8281101561022c578785015182556020948501946001909201910161020c565b508482101561024957868401515f19600387901b60f8161c191681555b50505050600190811b01905550565b611b0f806102655f395ff3fe608060405234801561000f575f5ffd5b5060043610610148575f3560e01c80634f6ccce7116100bf578063a22cb46511610079578063a22cb465146102d4578063b88d4fde146102e7578063c87b56dd146102fa578063d48e638a1461030d578063e985e9c514610320578063f2fde38b14610333575f5ffd5b80634f6ccce71461027a5780636352211e1461028d57806370a08231146102a0578063715018a6146102b35780638da5cb5b146102bb57806395d89b41146102cc575f5ffd5b806318160ddd1161011057806318160ddd146101ea57806323b872dd146101fc5780632a55205a1461020f5780632f745c59146102415780633758933f1461025457806342842e0e14610267575f5ffd5b806301ffc9a71461014c57806306fdde0314610174578063081812fc14610189578063095ea7b3146101b457806317e1f82e146101c9575b5f5ffd5b61015f61015a366004611524565b610346565b60405190151581526020015b60405180910390f35b61017c610356565b60405161016b919061156d565b61019c61019736600461157f565b6103e5565b6040516001600160a01b03909116815260200161016b565b6101c76101c23660046115b1565b61040c565b005b6101d26103e881565b6040516001600160601b03909116815260200161016b565b6009545b60405190815260200161016b565b6101c761020a3660046115d9565b61041b565b61022261021d366004611613565b6104a9565b604080516001600160a01b03909316835260208301919091520161016b565b6101ee61024f3660046115b1565b61052c565b6101ee610262366004611633565b61058f565b6101c76102753660046115d9565b610675565b6101ee61028836600461157f565b610694565b61019c61029b36600461157f565b6106e9565b6101ee6102ae3660046116cf565b6106f3565b6101c7610738565b600d546001600160a01b031661019c565b61017c61074b565b6101c76102e23660046116e8565b61075a565b6101c76102f5366004611735565b610765565b61017c61030836600461157f565b61077d565b61019c61031b36600461157f565b610788565b61015f61032e366004611812565b61079c565b6101c76103413660046116cf565b6107c9565b5f61035082610806565b92915050565b60605f805461036490611843565b80601f016020809104026020016040519081016040528092919081815260200182805461039090611843565b80156103db5780601f106103b2576101008083540402835291602001916103db565b820191905f5260205f20905b8154815290600101906020018083116103be57829003601f168201915b5050505050905090565b5f6103ef8261082a565b505f828152600460205260409020546001600160a01b0316610350565b610417828233610862565b5050565b6001600160a01b03821661044957604051633250574960e11b81525f60048201526024015b60405180910390fd5b5f61045583833361086f565b9050836001600160a01b0316816001600160a01b0316146104a3576040516364283d7b60e01b81526001600160a01b0380861660048301526024820184905282166044820152606401610440565b50505050565b5f828152600c6020526040812080548291906001600160a01b03811690600160a01b90046001600160601b0316816104fc575050600b546001600160a01b03811690600160a01b90046001600160601b03165b5f6127106105136001600160601b0384168961188f565b61051d91906118a6565b92989297509195505050505050565b5f610536836106f3565b82106105675760405163295f44f760e21b81526001600160a01b038416600482015260248101839052604401610440565b506001600160a01b03919091165f908152600760209081526040808320938352929052205490565b5f6103e86001600160601b03831611156105bc5760405163112e4ee960e21b815260040160405180910390fd5b600e80545f91826105cc836118c5565b9190505590506105dc8682610883565b61061b8186868080601f0160208091040260200160405190810160405280939291908181526020018383808284375f9201919091525061089c92505050565b6106268133856108eb565b336001600160a01b0316817fd305ddd0a4ca3207522e270c1d2564b12fd6177ef0681e30466c521a9ef974cf878787604051610664939291906118dd565b60405180910390a395945050505050565b61068f83838360405180602001604052805f815250610765565b505050565b5f61069e60095490565b82106106c65760405163295f44f760e21b81525f600482015260248101839052604401610440565b600982815481106106d9576106d961191d565b905f5260205f2001549050919050565b5f6103508261082a565b5f6001600160a01b03821661071d576040516322718ad960e21b81525f6004820152602401610440565b506001600160a01b03165f9081526003602052604090205490565b6107406109ab565b6107495f6109d8565b565b60606001805461036490611843565b610417338383610a29565b61077084848461041b565b6104a33385858585610af0565b606061035082610c18565b5f5f610794835f6104a9565b509392505050565b6001600160a01b039182165f90815260056020908152604080832093909416825291909152205460ff1690565b6107d16109ab565b6001600160a01b0381166107fa57604051631e4fbdf760e01b81525f6004820152602401610440565b610803816109d8565b50565b5f6001600160e01b0319821663152a902d60e11b1480610350575061035082610c91565b5f818152600260205260408120546001600160a01b03168061035057604051637e27328960e01b815260048101849052602401610440565b61068f8383836001610cb5565b5f61087b848484610db9565b949350505050565b610417828260405180602001604052805f815250610e84565b5f8281526006602052604090206108b38282611975565b506040518281527ff8e1a15aba9398e019f0b49df1a4fde98ee17ae345cb5f6b5e2c27f5033e8ce79060200160405180910390a15050565b6127106001600160601b0382168110156109315760405163dfd1fc1b60e01b8152600481018590526001600160601b038316602482015260448101829052606401610440565b6001600160a01b03831661096157604051634b4f842960e11b8152600481018590525f6024820152604401610440565b506040805180820182526001600160a01b0393841681526001600160601b0392831660208083019182525f968752600c90529190942093519051909116600160a01b029116179055565b600d546001600160a01b031633146107495760405163118cdaa760e01b8152336004820152602401610440565b600d80546001600160a01b038381166001600160a01b0319831681179093556040519116919082907f8be0079c531659141344cd1fd0a4f28419497f9722a3daafe3b4186f6b6457e0905f90a35050565b6001600160a01b038316610a525760405163a9fbf51f60e01b81525f6004820152602401610440565b6001600160a01b038216610a8457604051630b61174360e31b81526001600160a01b0383166004820152602401610440565b6001600160a01b038381165f81815260056020908152604080832094871680845294825291829020805460ff191686151590811790915591519182527f17307eab39ab6107e8899845ad3d59bd9653f200f220920489ca2b5937696c31910160405180910390a3505050565b6001600160a01b0383163b15610c1157604051630a85bd0160e11b81526001600160a01b0384169063150b7a0290610b32908890889087908790600401611a30565b6020604051808303815f875af1925050508015610b6c575060408051601f3d908101601f19168201909252610b6991810190611a6c565b60015b610bd3573d808015610b99576040519150601f19603f3d011682016040523d82523d5f602084013e610b9e565b606091505b5080515f03610bcb57604051633250574960e11b81526001600160a01b0385166004820152602401610440565b805160208201fd5b6001600160e01b03198116630a85bd0160e11b14610c0f57604051633250574960e11b81526001600160a01b0385166004820152602401610440565b505b5050505050565b6060610c238261082a565b505f610c3960408051602081019091525f815290565b90505f610c4584610e9b565b905081515f03610c56579392505050565b805115610c88578181604051602001610c70929190611a9e565b60405160208183030381529060405292505050919050565b61087b84610f3a565b5f6001600160e01b0319821663780e9d6360e01b1480610350575061035082610fab565b8080610cc957506001600160a01b03821615155b15610d8a575f610cd88461082a565b90506001600160a01b03831615801590610d045750826001600160a01b0316816001600160a01b031614155b8015610d175750610d15818461079c565b155b15610d405760405163a9fbf51f60e01b81526001600160a01b0384166004820152602401610440565b8115610d885783856001600160a01b0316826001600160a01b03167f8c5be1e5ebec7d5bd14f71427d1e84f3dd0314c0f7b2291e5b200ac8c7c3b92560405160405180910390a45b505b50505f90815260046020526040902080546001600160a01b0319166001600160a01b0392909216919091179055565b5f5f610dc6858585610fcf565b90506001600160a01b038116610e2257610e1d84600980545f838152600a60205260408120829055600182018355919091527f6e1540171b6c0c960b71a7020d9f60077f6af931a8bbf590da0223dacf75c7af0155565b610e45565b846001600160a01b0316816001600160a01b031614610e4557610e4581856110c1565b6001600160a01b038516610e6157610e5c8461113e565b61087b565b846001600160a01b0316816001600160a01b03161461087b5761087b85856111e5565b610e8e8383611233565b61068f335f858585610af0565b5f818152600660205260409020805460609190610eb790611843565b80601f0160208091040260200160405190810160405280929190818152602001828054610ee390611843565b8015610f2e5780601f10610f0557610100808354040283529160200191610f2e565b820191905f5260205f20905b815481529060010190602001808311610f1157829003601f168201915b50505050509050919050565b6060610f458261082a565b505f610f5b60408051602081019091525f815290565b90505f815111610f795760405180602001604052805f815250610fa4565b80610f8384611294565b604051602001610f94929190611a9e565b6040516020818303038152906040525b9392505050565b5f6001600160e01b03198216632483248360e11b1480610350575061035082611324565b5f828152600260205260408120546001600160a01b0390811690831615610ffb57610ffb818486611373565b6001600160a01b03811615611035576110165f855f5f610cb5565b6001600160a01b0381165f90815260036020526040902080545f190190555b6001600160a01b03851615611063576001600160a01b0385165f908152600360205260409020805460010190555b5f8481526002602052604080822080546001600160a01b0319166001600160a01b0389811691821790925591518793918516917fddf252ad1be2c89b69c2b068fc378daa952ba7f163c4a11628f55a4df523b3ef91a4949350505050565b5f6110cb836106f3565b5f838152600860209081526040808320546001600160a01b0388168452600790925290912091925090818314611120575f83815260208281526040808320548584528184208190558352600890915290208290555b5f938452600860209081526040808620869055938552525081205550565b6009545f9061114f90600190611ab2565b5f838152600a6020526040812054600980549394509092849081106111765761117661191d565b905f5260205f200154905080600983815481106111955761119561191d565b5f918252602080832090910192909255828152600a909152604080822084905585825281205560098054806111cc576111cc611ac5565b600190038181905f5260205f20015f9055905550505050565b5f60016111f1846106f3565b6111fb9190611ab2565b6001600160a01b039093165f908152600760209081526040808320868452825280832085905593825260089052919091209190915550565b6001600160a01b03821661125c57604051633250574960e11b81525f6004820152602401610440565b5f61126883835f61086f565b90506001600160a01b0381161561068f576040516339e3563760e11b81525f6004820152602401610440565b60605f6112a0836113d7565b60010190505f8167ffffffffffffffff8111156112bf576112bf611721565b6040519080825280601f01601f1916602001820160405280156112e9576020820181803683370190505b5090508181016020015b5f19016f181899199a1a9b1b9c1cb0b131b232b360811b600a86061a8153600a85049450846112f357509392505050565b5f6001600160e01b031982166380ac58cd60e01b148061135457506001600160e01b03198216635b5e139f60e01b145b8061035057506301ffc9a760e01b6001600160e01b0319831614610350565b61137e8383836114ae565b61068f576001600160a01b0383166113ac57604051637e27328960e01b815260048101829052602401610440565b60405163177e802f60e01b81526001600160a01b038316600482015260248101829052604401610440565b5f8072184f03e93ff9f4daa797ed6e38ed64bf6a1f0160401b83106114155772184f03e93ff9f4daa797ed6e38ed64bf6a1f0160401b830492506040015b6d04ee2d6d415b85acef81000000008310611441576d04ee2d6d415b85acef8100000000830492506020015b662386f26fc10000831061145f57662386f26fc10000830492506010015b6305f5e1008310611477576305f5e100830492506008015b612710831061148b57612710830492506004015b6064831061149d576064830492506002015b600a83106103505760010192915050565b5f6001600160a01b0383161580159061087b5750826001600160a01b0316846001600160a01b031614806114e757506114e7848461079c565b8061087b5750505f908152600460205260409020546001600160a01b03908116911614919050565b6001600160e01b031981168114610803575f5ffd5b5f60208284031215611534575f5ffd5b8135610fa48161150f565b5f81518084528060208401602086015e5f602082860101526020601f19601f83011685010191505092915050565b602081525f610fa4602083018461153f565b5f6020828403121561158f575f5ffd5b5035919050565b80356001600160a01b03811681146115ac575f5ffd5b919050565b5f5f604083850312156115c2575f5ffd5b6115cb83611596565b946020939093013593505050565b5f5f5f606084860312156115eb575f5ffd5b6115f484611596565b925061160260208501611596565b929592945050506040919091013590565b5f5f60408385031215611624575f5ffd5b50508035926020909101359150565b5f5f5f5f60608587031215611646575f5ffd5b61164f85611596565b9350602085013567ffffffffffffffff81111561166a575f5ffd5b8501601f8101871361167a575f5ffd5b803567ffffffffffffffff811115611690575f5ffd5b8760208284010111156116a1575f5ffd5b6020919091019350915060408501356001600160601b03811681146116c4575f5ffd5b939692955090935050565b5f602082840312156116df575f5ffd5b610fa482611596565b5f5f604083850312156116f9575f5ffd5b61170283611596565b915060208301358015158114611716575f5ffd5b809150509250929050565b634e487b7160e01b5f52604160045260245ffd5b5f5f5f5f60808587031215611748575f5ffd5b61175185611596565b935061175f60208601611596565b925060408501359150606085013567ffffffffffffffff811115611781575f5ffd5b8501601f81018713611791575f5ffd5b803567ffffffffffffffff8111156117ab576117ab611721565b604051601f8201601f19908116603f0116810167ffffffffffffffff811182821017156117da576117da611721565b6040528181528282016020018910156117f1575f5ffd5b816020840160208301375f6020838301015280935050505092959194509250565b5f5f60408385031215611823575f5ffd5b61182c83611596565b915061183a60208401611596565b90509250929050565b600181811c9082168061185757607f821691505b60208210810361187557634e487b7160e01b5f52602260045260245ffd5b50919050565b634e487b7160e01b5f52601160045260245ffd5b80820281158282048414176103505761035061187b565b5f826118c057634e487b7160e01b5f52601260045260245ffd5b500490565b5f600182016118d6576118d661187b565b5060010190565b60408152826040820152828460608301375f606084830101525f6060601f19601f86011683010190506001600160601b0383166020830152949350505050565b634e487b7160e01b5f52603260045260245ffd5b601f82111561068f57805f5260205f20601f840160051c810160208510156119565750805b601f840160051c820191505b81811015610c11575f8155600101611962565b815167ffffffffffffffff81111561198f5761198f611721565b6119a38161199d8454611843565b84611931565b6020601f8211600181146119d5575f83156119be5750848201515b5f19600385901b1c1916600184901b178455610c11565b5f84815260208120601f198516915b82811015611a0457878501518255602094850194600190920191016119e4565b5084821015611a2157868401515f19600387901b60f8161c191681555b50505050600190811b01905550565b6001600160a01b03858116825284166020820152604081018390526080606082018190525f90611a629083018461153f565b9695505050505050565b5f60208284031215611a7c575f5ffd5b8151610fa48161150f565b5f81518060208401855e5f93019283525090919050565b5f61087b611aac8386611a87565b84611a87565b818103818111156103505761035061187b565b634e487b7160e01b5f52603160045260245ffdfea2646970667358221220e06abae9f788d893b053127e7af6f1846097540dd3512ea305a05f04dc0ac7ba64736f6c634300081c0033",
  "linkReferences": {},
  "deployedLinkReferences": {}
}