{
  "_format": "hh-sol-artifact-1",
  "contractName": "NFTCollection",
  "sourceName": "contracts/NFTCollection.sol",
  "abi": [
    {
      "inputs": [],
      "stateMutability": "nonpayable",
      "type": "constructor"
    },
    {
      "inputs": [],
      "name": "CreatorTransferFailed",
      "type": "error"
    },
    {
      "inputs": [
        {
          "internalType": "uint256",
          "name": "numerator",
          "type": "uint256"
        },
        {
          "internalType": "uint256",
          "name": "denominator",
          "type": "uint256"
        }
      ],
      "name": "ERC2981InvalidDefaultRoyalty",
      "type": "error"
    },
    {
      "inputs": [
        {
          "internalType": "address",
          "name": "receiver",
          "type": "address"
        }
      ],
      "name": "ERC2981InvalidDefaultRoyaltyReceiver",
      "type": "error"
    },
    {
      "inputs": [
        {
          "internalType": "uint256",
          "name": "tokenId",
          "type": "uint256"
        },
        {
          "internalType": "uint256",
          "name": "numerator",
          "type": "uint256"
        },
        {
          "internalType": "uint256",
          "name": "denominator",
          "type": "uint256"
        }
      ],
      "name": "ERC2981InvalidTokenRoyalty",
      "type": "error"
    },
    {
      "inputs": [
        {
          "internalType": "uint256",
          "name": "tokenId",
          "type": "uint256"
        },
        {
          "internalType": "address",
          "name": "receiver",
          "type": "address"
        }
      ],
      "name": "ERC2981InvalidTokenRoyaltyReceiver",
      "type": "error"
    },
    {
      "inputs": [],
      "name": "ERC721EnumerableForbiddenBatchMint",
      "type": "error"
    },
    {
      "inputs": [
        {
          "internalType": "address",
          "name": "sender",
          "type": "address"
        },
        {
          "internalType": "uint256",
          "name": "tokenId",
          "type": "uint256"
        },
        {
          "internalType": "address",
          "name": "owner",
          "type": "address"
        }
      ],
      "name": "ERC721IncorrectOwner",
      "type": "error"
    },
    {
      "inputs": [
        {
          "internalType": "address",
          "name": "operator",
          "type": "address"
        },
        {
          "internalType": "uint256",
          "name": "tokenId",
          "type": "uint256"
        }
      ],
      "name": "ERC721InsufficientApproval",
      "type": "error"
    },
    {
      "inputs": [
        {
          "internalType": "address",
          "name": "approver",
          "type": "address"
        }
      ],
      "name": "ERC721InvalidApprover",
      "type": "error"
    },
    {
      "inputs": [
        {
          "internalType": "address",
          "name": "operator",
          "type": "address"
        }
      ],
      "name": "ERC721InvalidOperator",
      "type": "error"
    },
    {
      "inputs": [
        {
          "internalType": "address",
          "name": "owner",
          "type": "address"
        }
      ],
      "name": "ERC721InvalidOwner",
      "type": "error"
    },
    {
      "inputs": [
        {
          "internalType": "address",
          "name": "receiver",
          "type": "address"
        }
      ],
      "name": "ERC721InvalidReceiver",
      "type": "error"
    },
    {
      "inputs": [
        {
          "internalType": "address",
          "name": "sender",
          "type": "address"
        }
      ],
      "name": "ERC721InvalidSender",
      "type": "error"
    },
    {
      "inputs": [
        {
          "internalType": "uint256",
          "name": "tokenId",
          "type": "uint256"
        }
      ],
      "name": "ERC721NonexistentToken",
      "type": "error"
    },
    {
      "inputs": [
        {
          "internalType": "address",
          "name": "owner",
          "type": "address"
        },
        {
          "internalType": "uint256",
          "name": "index",
          "type": "uint256"
        }
      ],
      "name": "ERC721OutOfBoundsIndex",
      "type": "error"
    },
    {
      "inputs": [],
      "name": "EmptyCreators",
      "type": "error"
    },
    {
      "inputs": [],
      "name": "InvalidSharesTotal",
      "type": "error"
    },
    {
      "inputs": [],
      "name": "NoRoyaltyToDistribute",
      "type": "error"
    },
    {
      "inputs": [],
      "name": "NotOwnerOrApproved",
      "type": "error"
    },
    {
      "inputs": [],
      "name": "RoyaltyFeeTooHigh",
      "type": "error"
    },
    {
      "inputs": [],
      "name": "SharesLengthMismatch",
      "type": "error"
    },
    {
      "anonymous": false,
      "inputs": [
        {
          "indexed": true,
          "internalType": "address",
          "name": "owner",
          "type": "address"
        },
        {
          "indexed": true,
          "internalType": "address",
          "name": "approved",
          "type": "address"
        },
        {
          "indexed": true,
          "internalType": "uint256",
          "name": "tokenId",
          "type": "uint256"
        }
      ],
      "name": "Approval",
      "type": "event"
    },
    {
      "anonymous": false,
      "inputs": [
        {
          "indexed": true,
          "internalType": "address",
          "name": "owner",
          "type": "address"
        },
        {
          "indexed": true,
          "internalType": "address",
          "name": "operator",
          "type": "address"
        },
        {
          "indexed": false,
          "internalType": "bool",
          "name": "approved",
          "type": "bool"
        }
      ],
      "name": "ApprovalForAll",
      "type": "event"
    },
    {
      "anonymous": false,
      "inputs": [
        {
          "indexed": false,
          "internalType": "uint256",
          "name": "_fromTokenId",
          "type": "uint256"
        },
        {
          "indexed": false,
          "internalType": "uint256",
          "name": "_toTokenId",
          "type": "uint256"
        }
      ],
      "name": "BatchMetadataUpdate",
      "type": "event"
    },
    {
      "anonymous": false,
      "inputs": [
        {
          "indexed": true,
          "internalType": "uint256",
          "name": "tokenId",
          "type": "uint256"
        },
        {
          "indexed": false,
          "internalType": "address[]",
          "name": "creators",
          "type": "address[]"
        },
        {
          "indexed": false,
          "internalType": "uint256[]",
          "name": "sharesBps",
          "type": "uint256[]"
        },
        {
          "indexed": false,
          "internalType": "uint96",
          "name": "royaltyFee",
          "type": "uint96"
        }
      ],
      "name": "CollaborativeMinted",
      "type": "event"
    },
    {
      "anonymous": false,
      "inputs": [
        {
          "indexed": true,
          "internalType": "address",
          "name": "creator",
          "type": "address"
        },
        {
          "indexed": false,
          "internalType": "uint256",
          "name": "amount",
          "type": "uint256"
        }
      ],
      "name": "CreatorPaymentWithdrawn",
      "type": "event"
    },
    {
      "anonymous": false,
      "inputs": [
        {
          "indexed": false,
          "internalType": "uint256",
          "name": "_tokenId",
          "type": "uint256"
        }
      ],
      "name": "MetadataUpdate",
      "type": "event"
    },
    {
      "anonymous": false,
      "inputs": [
        {
          "indexed": true,
          "internalType": "uint256",
          "name": "tokenId",
          "type": "uint256"
        },
        {
          "indexed": true,
          "internalType": "address",
          "name": "creator",
          "type": "address"
        },
        {
          "indexed": false,
          "internalType": "string",
          "name": "tokenURI",
          "type": "string"
        },
        {
          "indexed": false,
          "internalType": "uint96",
          "name": "royaltyFee",
          "type": "uint96"
        }
      ],
      "name": "NFTMinted",
      "type": "event"
    },
    {
      "anonymous": false,
      "inputs": [
        {
          "indexed": true,
          "internalType": "uint256",
          "name": "tokenId",
          "type": "uint256"
        },
        {
          "indexed": false,
          "internalType": "uint256",
          "name": "amount",
          "type": "uint256"
        }
      ],
      "name": "RoyaltyDistributed",
      "type": "event"
    },
    {
      "anonymous": false,
      "inputs": [
        {
          "indexed": true,
          "internalType": "address",
          "name": "from",
          "type": "address"
        },
        {
          "indexed": true,
          "internalType": "address",
          "name": "to",
          "type": "address"
        },
        {
          "indexed": true,
          "internalType": "uint256",
          "name": "tokenId",
          "type": "uint256"
        }
      ],
      "name": "Transfer",
      "type": "event"
    },
    {
      "anonymous": false,
      "inputs": [
        {
          "indexed": true,
          "internalType": "uint256",
          "name": "tokenId",
          "type": "uint256"
        },
        {
          "indexed": true,
          "internalType": "address",
          "name": "user",
          "type": "address"
        },
        {
          "indexed": false,
          "internalType": "uint64",
          "name": "expires",
          "type": "uint64"
        }
      ],
      "name": "UpdateUser",
      "type": "event"
    },
    {
      "inputs": [],
      "name": "MAX_ROYALTY_FEE",
      "outputs": [
        {
          "internalType": "uint96",
          "name": "",
          "type": "uint96"
        }
      ],
      "stateMutability": "view",
      "type": "function"
    },
    {
      "inputs": [
        {
          "internalType": "address",
          "name": "to",
          "type": "address"
        },
        {
          "internalType": "uint256",
          "name": "tokenId",
          "type": "uint256"
        }
      ],
      "name": "approve",
      "outputs": [],
      "stateMutability": "nonpayable",
      "type": "function"
    },
    {
      "inputs": [
        {
          "internalType": "address",
          "name": "owner",
          "type": "address"
        }
      ],
      "name": "balanceOf",
      "outputs": [
        {
          "internalType": "uint256",
          "name": "",
          "type": "uint256"
        }
      ],
      "stateMutability": "view",
      "type": "function"
    },
    {
      "inputs": [
        {
          "internalType": "address",
          "name": "to",
          "type": "address"
        },
        {
          "internalType": "string",
          "name": "uri",
          "type": "string"
        },
        {
          "internalType": "uint96",
          "name": "royaltyFee",
          "type": "uint96"
        },
        {
          "internalType": "address[]",
          "name": "creators",
          "type": "address[]"
        },
        {
          "internalType": "uint256[]",
          "name": "sharesBps",
          "type": "uint256[]"
        }
      ],
      "name": "collaborativeMint",
      "outputs": [
        {
          "internalType": "uint256",
          "name": "",
          "type": "uint256"
        }
      ],
      "stateMutability": "nonpayable",
      "type": "function"
    },
    {
      "inputs": [
        {
          "internalType": "uint256",
          "name": "tokenId",
          "type": "uint256"
        }
      ],
      "name": "distributeRoyalty",
      "outputs": [],
      "stateMutability": "payable",
      "type": "function"
    },
    {
      "inputs": [
        {
          "internalType": "uint256",
          "name": "tokenId",
          "type": "uint256"
        }
      ],
      "name": "getApproved",
      "outputs": [
        {
          "internalType": "address",
          "name": "",
          "type": "address"
        }
      ],
      "stateMutability": "view",
      "type": "function"
    },
    {
      "inputs": [
        {
          "internalType": "uint256",
          "name": "tokenId",
          "type": "uint256"
        }
      ],
      "name": "getCollabInfo",
      "outputs": [
        {
          "internalType": "address[]",
          "name": "creators",
          "type": "address[]"
        },
        {
          "internalType": "uint256[]",
          "name": "sharesBps",
          "type": "uint256[]"
        }
      ],
      "stateMutability": "view",
      "type": "function"
    },
    {
      "inputs": [
        {
          "internalType": "uint256",
          "name": "tokenId",
          "type": "uint256"
        }
      ],
      "name": "getCreator",
      "outputs": [
        {
          "internalType": "address",
          "name": "",
          "type": "address"
        }
      ],
      "stateMutability": "view",
      "type": "function"
    },
    {
      "inputs": [
        {
          "internalType": "address",
          "name": "owner",
          "type": "address"
        },
        {
          "internalType": "address",
          "name": "operator",
          "type": "address"
        }
      ],
      "name": "isApprovedForAll",
      "outputs": [
        {
          "internalType": "bool",
          "name": "",
          "type": "bool"
        }
      ],
      "stateMutability": "view",
      "type": "function"
    },
    {
      "inputs": [
        {
          "internalType": "uint256",
          "name": "",
          "type": "uint256"
        }
      ],
      "name": "isCollaborative",
      "outputs": [
        {
          "internalType": "bool",
          "name": "",
          "type": "bool"
        }
      ],
      "stateMutability": "view",
      "type": "function"
    },
    {
      "inputs": [
        {
          "internalType": "address",
          "name": "to",
          "type": "address"
        },
        {
          "internalType": "string",
          "name": "uri",
          "type": "string"
        },
        {
          "internalType": "uint96",
          "name": "royaltyFee",
          "type": "uint96"
        }
      ],
      "name": "mintNFT",
      "outputs": [
        {
          "internalType": "uint256",
          "name": "",
          "type": "uint256"
        }
      ],
      "stateMutability": "nonpayable",
      "type": "function"
    },
    {
      "inputs": [],
      "name": "name",
      "outputs": [
        {
          "internalType": "string",
          "name": "",
          "type": "string"
        }
      ],
      "stateMutability": "view",
      "type": "function"
    },
    {
      "inputs": [
        {
          "internalType": "uint256",
          "name": "tokenId",
          "type": "uint256"
        }
      ],
      "name": "ownerOf",
      "outputs": [
        {
          "internalType": "address",
          "name": "",
          "type": "address"
        }
      ],
      "stateMutability": "view",
      "type": "function"
    },
    {
      "inputs": [
        {
          "internalType": "address",
          "name": "",
          "type": "address"
        }
      ],
      "name": "pendingCreatorPayments",
      "outputs": [
        {
          "internalType": "uint256",
          "name": "",
          "type": "uint256"
        }
      ],
      "stateMutability": "view",
      "type": "function"
    },
    {
      "inputs": [
        {
          "internalType": "uint256",
          "name": "tokenId",
          "type": "uint256"
        },
        {
          "internalType": "uint256",
          "name": "salePrice",
          "type": "uint256"
        }
      ],
      "name": "royaltyInfo",
      "outputs": [
        {
          "internalType": "address",
          "name": "receiver",
          "type": "address"
        },
        {
          "internalType": "uint256",
          "name": "amount",
          "type": "uint256"
        }
      ],
      "stateMutability": "view",
      "type": "function"
    },
    {
      "inputs": [
        {
          "internalType": "address",
          "name": "from",
          "type": "address"
        },
        {
          "internalType": "address",
          "name": "to",
          "type": "address"
        },
        {
          "internalType": "uint256",
          "name": "tokenId",
          "type": "uint256"
        }
      ],
      "name": "safeTransferFrom",
      "outputs": [],
      "stateMutability": "nonpayable",
      "type": "function"
    },
    {
      "inputs": [
        {
          "internalType": "address",
          "name": "from",
          "type": "address"
        },
        {
          "internalType": "address",
          "name": "to",
          "type": "address"
        },
        {
          "internalType": "uint256",
          "name": "tokenId",
          "type": "uint256"
        },
        {
          "internalType": "bytes",
          "name": "data",
          "type": "bytes"
        }
      ],
      "name": "safeTransferFrom",
      "outputs": [],
      "stateMutability": "nonpayable",
      "type": "function"
    },
    {
      "inputs": [
        {
          "internalType": "address",
          "name": "operator",
          "type": "address"
        },
        {
          "internalType": "bool",
          "name": "approved",
          "type": "bool"
        }
      ],
      "name": "setApprovalForAll",
      "outputs": [],
      "stateMutability": "nonpayable",
      "type": "function"
    },
    {
      "inputs": [
        {
          "internalType": "uint256",
          "name": "tokenId",
          "type": "uint256"
        },
        {
          "internalType": "address",
          "name": "user",
          "type": "address"
        },
        {
          "internalType": "uint64",
          "name": "expires",
          "type": "uint64"
        }
      ],
      "name": "setUser",
      "outputs": [],
      "stateMutability": "nonpayable",
      "type": "function"
    },
    {
      "inputs": [
        {
          "internalType": "bytes4",
          "name": "interfaceId",
          "type": "bytes4"
        }
      ],
      "name": "supportsInterface",
      "outputs": [
        {
          "internalType": "bool",
          "name": "",
          "type": "bool"
        }
      ],
      "stateMutability": "view",
      "type": "function"
    },
    {
      "inputs": [],
      "name": "symbol",
      "outputs": [
        {
          "internalType": "string",
          "name": "",
          "type": "string"
        }
      ],
      "stateMutability": "view",
      "type": "function"
    },
    {
      "inputs": [
        {
          "internalType": "uint256",
          "name": "index",
          "type": "uint256"
        }
      ],
      "name": "tokenByIndex",
      "outputs": [
        {
          "internalType": "uint256",
          "name": "",
          "type": "uint256"
        }
      ],
      "stateMutability": "view",
      "type": "function"
    },
    {
      "inputs": [
        {
          "internalType": "address",
          "name": "owner",
          "type": "address"
        },
        {
          "internalType": "uint256",
          "name": "index",
          "type": "uint256"
        }
      ],
      "name": "tokenOfOwnerByIndex",
      "outputs": [
        {
          "internalType": "uint256",
          "name": "",
          "type": "uint256"
        }
      ],
      "stateMutability": "view",
      "type": "function"
    },
    {
      "inputs": [
        {
          "internalType": "uint256",
          "name": "tokenId",
          "type": "uint256"
        }
      ],
      "name": "tokenURI",
      "outputs": [
        {
          "internalType": "string",
          "name": "",
          "type": "string"
        }
      ],
      "stateMutability": "view",
      "type": "function"
    },
    {
      "inputs": [],
      "name": "totalSupply",
      "outputs": [
        {
          "internalType": "uint256",
          "name": "",
          "type": "uint256"
        }
      ],
      "stateMutability": "view",
      "type": "function"
    },
    {
      "inputs": [
        {
          "internalType": "address",
          "name": "from",
          "type": "address"
        },
        {
          "internalType": "address",
          "name": "to",
          "type": "address"
        },
        {
          "internalType": "uint256",
          "name": "tokenId",
          "type": "uint256"
        }
      ],
      "name": "transferFrom",
      "outputs": [],
      "stateMutability": "nonpayable",
      "type": "function"
    },
    {
      "inputs": [
        {
          "internalType": "uint256",
          "name": "tokenId",
          "type": "uint256"
        }
      ],
      "name": "userExpires",
      "outputs": [
        {
          "internalType": "uint256",
          "name": "",
          "type": "uint256"
        }
      ],
      "stateMutability": "view",
      "type": "function"
    },
    {
      "inputs": [
        {
          "internalType": "uint256",
          "name": "tokenId",
          "type": "uint256"
        }
      ],
      "name": "userOf",
      "outputs": [
        {
          "internalType": "address",
          "name": "",
          "type": "address"
        }
      ],
      "stateMutability": "view",
      "type": "function"
    },
    {
      "inputs": [],
      "name": "withdrawCreatorPayment",
      "outputs": [],
      "stateMutability": "nonpayable",
      "type": "function"
    },
    {
      "stateMutability": "payable",
      "type": "receive"
    }
  ],
  "bytecode": "0x60806040526001600d55348015610014575f5ffd5b5060405180604001604052806012815260200171272aa99027232a1021b7b63632b1ba34b7b760711b81525060405180604001604052806006815260200165139554d3919560d21b815250815f908161006d919061011a565b50600161007a828261011a565b5050506101d4565b634e487b7160e01b5f52604160045260245ffd5b600181811c908216806100aa57607f821691505b6020821081036100c857634e487b7160e01b5f52602260045260245ffd5b50919050565b601f82111561011557805f5260205f20601f840160051c810160208510156100f35750805b601f840160051c820191505b81811015610112575f81556001016100ff565b50505b505050565b81516001600160401b0381111561013357610133610082565b610147816101418454610096565b846100ce565b6020601f821160018114610179575f83156101625750848201515b5f19600385901b1c1916600184901b178455610112565b5f84815260208120601f198516915b828110156101a85787850151825560209485019460019092019101610188565b50848210156101c557868401515f19600387901b60f8161c191681555b50505050600190811b01905550565b612703806101e15f395ff3fe6080604052600436106101bd575f3560e01c80634f6ccce7116100f2578063b88d4fde11610092578063d48e638a11610062578063d48e638a14610543578063d98655e714610562578063e030565e1461058d578063e985e9c5146105ac575f5ffd5b8063b88d4fde146104b8578063c2f1f14a146104d7578063c484f311146104f6578063c87b56dd14610524575f5ffd5b806370a08231116100cd57806370a082311461042b5780638fc88c481461044a57806395d89b4114610485578063a22cb46514610499575f5ffd5b80634f6ccce7146103c05780636352211e146103df5780637033fb5e146103fe575f5ffd5b806323b872dd1161015d57806334601c021161013857806334601c02146103505780633758933f1461036f57806342842e0e1461038e5780634cc575a9146103ad575f5ffd5b806323b872dd146102d45780632a55205a146102f35780632f745c5914610331575f5ffd5b8063081812fc11610198578063081812fc14610233578063095ea7b31461026a57806317e1f82e1461028957806318160ddd146102b6575f5ffd5b806301189c38146101c857806301ffc9a7146101de57806306fdde0314610212575f5ffd5b366101c457005b5f5ffd5b3480156101d3575f5ffd5b506101dc6105cb565b005b3480156101e9575f5ffd5b506101fd6101f8366004611e9d565b6106aa565b60405190151581526020015b60405180910390f35b34801561021d575f5ffd5b506102266106d4565b6040516102099190611ee6565b34801561023e575f5ffd5b5061025261024d366004611ef8565b610763565b6040516001600160a01b039091168152602001610209565b348015610275575f5ffd5b506101dc610284366004611f2a565b61078a565b348015610294575f5ffd5b5061029e6103e881565b6040516001600160601b039091168152602001610209565b3480156102c1575f5ffd5b506009545b604051908152602001610209565b3480156102df575f5ffd5b506101dc6102ee366004611f52565b610799565b3480156102fe575f5ffd5b5061031261030d366004611f8c565b610827565b604080516001600160a01b039093168352602083019190915201610209565b34801561033c575f5ffd5b506102c661034b366004611f2a565b6108ac565b34801561035b575f5ffd5b506102c661036a36600461203f565b61090f565b34801561037a575f5ffd5b506102c66103893660046120fc565b610b61565b348015610399575f5ffd5b506101dc6103a8366004611f52565b610c47565b6101dc6103bb366004611ef8565b610c66565b3480156103cb575f5ffd5b506102c66103da366004611ef8565b610d8c565b3480156103ea575f5ffd5b506102526103f9366004611ef8565b610de1565b348015610409575f5ffd5b5061041d610418366004611ef8565b610deb565b60405161020992919061215c565b348015610436575f5ffd5b506102c66104453660046121e5565b610eb5565b348015610455575f5ffd5b506102c6610464366004611ef8565b5f908152600e6020526040902054600160a01b90046001600160401b031690565b348015610490575f5ffd5b50610226610efa565b3480156104a4575f5ffd5b506101dc6104b33660046121fe565b610f09565b3480156104c3575f5ffd5b506101dc6104d236600461224b565b610f14565b3480156104e2575f5ffd5b506102526104f1366004611ef8565b610f2c565b348015610501575f5ffd5b506101fd610510366004611ef8565b60106020525f908152604090205460ff1681565b34801561052f575f5ffd5b5061022661053e366004611ef8565b610f73565b34801561054e575f5ffd5b5061025261055d366004611ef8565b610f7e565b34801561056d575f5ffd5b506102c661057c3660046121e5565b60116020525f908152604090205481565b348015610598575f5ffd5b506101dc6105a7366004612325565b610f92565b3480156105b7575f5ffd5b506101fd6105c636600461236d565b61108f565b335f90815260116020526040812054908190036105fb57604051633cd67b0760e21b815260040160405180910390fd5b335f818152601160205260408082208290555190919083908381818185875af1925050503d805f8114610649576040519150601f19603f3d011682016040523d82523d5f602084013e61064e565b606091505b50509050806106705760405163234c051f60e11b815260040160405180910390fd5b60405182815233907f32d420b3723bf6ed5078856960b51fec1a138e612e75fe481a4102eb939ac9a6906020015b60405180910390a25050565b5f6001600160e01b03198216632b424ad760e21b14806106ce57506106ce826110bc565b92915050565b60605f80546106e29061239e565b80601f016020809104026020016040519081016040528092919081815260200182805461070e9061239e565b80156107595780601f1061073057610100808354040283529160200191610759565b820191905f5260205f20905b81548152906001019060200180831161073c57829003601f168201915b5050505050905090565b5f61076d826110e0565b505f828152600460205260409020546001600160a01b03166106ce565b610795828233611118565b5050565b6001600160a01b0382166107c757604051633250574960e11b81525f60048201526024015b60405180910390fd5b5f6107d3838333611125565b9050836001600160a01b0316816001600160a01b031614610821576040516364283d7b60e01b81526001600160a01b03808616600483015260248201849052821660448201526064016107be565b50505050565b5f828152600c6020526040812080548291906001600160a01b03811690600160a01b90046001600160601b03168161087a575050600b546001600160a01b03811690600160a01b90046001600160601b03165b5f6127106108916001600160601b038416896123ea565b61089b9190612401565b9295509193505050505b9250929050565b5f6108b683610eb5565b82106108e75760405163295f44f760e21b81526001600160a01b0384166004820152602481018390526044016107be565b506001600160a01b03919091165f908152600760209081526040808320938352929052205490565b5f6103e86001600160601b038716111561093c5760405163112e4ee960e21b815260040160405180910390fd5b5f84900361095d5760405163f1cc446b60e01b815260040160405180910390fd5b83821461097d576040516328658a1160e11b815260040160405180910390fd5b5f805b838110156109b65784848281811061099a5761099a612420565b90506020020135826109ac9190612434565b9150600101610980565b5080612710146109d9576040516331ee758760e11b815260040160405180910390fd5b600d80545f91826109e983612447565b9190505590506109f98b826111c8565b610a38818b8b8080601f0160208091040260200160405190810160405280939291908181526020018383808284375f920191909152506111e192505050565b610a4381308a611230565b60405180604001604052808888808060200260200160405190810160405280939291908181526020018383602002808284375f9201919091525050509082525060408051602088810282810182019093528882529283019290918991899182918501908490808284375f920182905250939094525050838152600f6020908152604090912083518051919350610add928492910190611dd5565b506020828101518051610af69260018501920190611e38565b5050505f8181526010602052604090819020805460ff191660011790555181907fa9ffc95af649ecf2fa5837483fbf0d35f86a480ce4066ffada5ad2e281f2df7490610b4b908a908a908a908a908f9061245f565b60405180910390a29a9950505050505050505050565b5f6103e86001600160601b0383161115610b8e5760405163112e4ee960e21b815260040160405180910390fd5b600d80545f9182610b9e83612447565b919050559050610bae86826111c8565b610bed8186868080601f0160208091040260200160405190810160405280939291908181526020018383808284375f920191909152506111e192505050565b610bf8813385611230565b336001600160a01b0316817fd305ddd0a4ca3207522e270c1d2564b12fd6177ef0681e30466c521a9ef974cf878787604051610c36939291906124f0565b60405180910390a395945050505050565b610c6183838360405180602001604052805f815250610f14565b505050565b345f03610c8657604051633cd67b0760e21b815260040160405180910390fd5b5f818152600f602052604081208054909103610cb557604051633cd67b0760e21b815260040160405180910390fd5b5f5b8154811015610d59575f612710836001018381548110610cd957610cd9612420565b905f5260205f20015434610ced91906123ea565b610cf79190612401565b90508015610d50578060115f855f018581548110610d1757610d17612420565b5f9182526020808320909101546001600160a01b0316835282019290925260400181208054909190610d4a908490612434565b90915550505b50600101610cb7565b50817f8ed3543c92c7106a56f0a6cdaa716fef62211f99d6630ecd4dc1231d9edae8113460405161069e91815260200190565b5f610d9660095490565b8210610dbe5760405163295f44f760e21b81525f6004820152602481018390526044016107be565b60098281548110610dd157610dd1612420565b905f5260205f2001549050919050565b5f6106ce826110e0565b5f818152600f6020908152604091829020805483518184028101840190945280845260609384938392600184019291849190830182828015610e5457602002820191905f5260205f20905b81546001600160a01b03168152600190910190602001808311610e36575b5050505050915080805480602002602001604051908101604052809291908181526020018280548015610ea457602002820191905f5260205f20905b815481526020019060010190808311610e90575b505050505090509250925050915091565b5f6001600160a01b038216610edf576040516322718ad960e21b81525f60048201526024016107be565b506001600160a01b03165f9081526003602052604090205490565b6060600180546106e29061239e565b6107953383836112f0565b610f1f848484610799565b61082133858585856113b7565b5f818152600e602052604081205442600160a01b9091046001600160401b031610610f6c57505f908152600e60205260409020546001600160a01b031690565b505f919050565b60606106ce826114df565b5f5f610f8a835f610827565b509392505050565b5f610f9c84610de1565b9050336001600160a01b03821614801590610fc8575033610fbc85610763565b6001600160a01b031614155b8015610fdb5750610fd9813361108f565b155b15610ff957604051636d8a29e760e11b815260040160405180910390fd5b6040805180820182526001600160a01b038581168083526001600160401b0386811660208086018281525f8c8152600e835288902096518754915196166001600160e01b031990911617600160a01b959093169490940291909117909355925191825286917f4e06b4e7000e659094299b3533b47b6aa8ad048e95e872d23d1f4ee55af89cfe910160405180910390a350505050565b6001600160a01b039182165f90815260056020908152604080832093909416825291909152205460ff1690565b5f6001600160e01b0319821663152a902d60e11b14806106ce57506106ce82611558565b5f818152600260205260408120546001600160a01b0316806106ce57604051637e27328960e01b8152600481018490526024016107be565b610c61838383600161157c565b5f5f611132858585611680565b9050846001600160a01b0316816001600160a01b03161415801561116b57505f848152600e60205260409020546001600160a01b031615155b156111c0575f848152600e6020908152604080832080546001600160e01b03191690555182815286917f4e06b4e7000e659094299b3533b47b6aa8ad048e95e872d23d1f4ee55af89cfe910160405180910390a35b949350505050565b610795828260405180602001604052805f81525061174b565b5f8281526006602052604090206111f88282612574565b506040518281527ff8e1a15aba9398e019f0b49df1a4fde98ee17ae345cb5f6b5e2c27f5033e8ce79060200160405180910390a15050565b6127106001600160601b0382168110156112765760405163dfd1fc1b60e01b8152600481018590526001600160601b0383166024820152604481018290526064016107be565b6001600160a01b0383166112a657604051634b4f842960e11b8152600481018590525f60248201526044016107be565b506040805180820182526001600160a01b0393841681526001600160601b0392831660208083019182525f968752600c90529190942093519051909116600160a01b029116179055565b6001600160a01b0383166113195760405163a9fbf51f60e01b81525f60048201526024016107be565b6001600160a01b03821661134b57604051630b61174360e31b81526001600160a01b03831660048201526024016107be565b6001600160a01b038381165f81815260056020908152604080832094871680845294825291829020805460ff191686151590811790915591519182527f17307eab39ab6107e8899845ad3d59bd9653f200f220920489ca2b5937696c31910160405180910390a3505050565b6001600160a01b0383163b156114d857604051630a85bd0160e11b81526001600160a01b0384169063150b7a02906113f990889088908790879060040161262e565b6020604051808303815f875af1925050508015611433575060408051601f3d908101601f1916820190925261143091810190612660565b60015b61149a573d808015611460576040519150601f19603f3d011682016040523d82523d5f602084013e611465565b606091505b5080515f0361149257604051633250574960e11b81526001600160a01b03851660048201526024016107be565b805160208201fd5b6001600160e01b03198116630a85bd0160e11b146114d657604051633250574960e11b81526001600160a01b03851660048201526024016107be565b505b5050505050565b60606114ea826110e0565b505f61150060408051602081019091525f815290565b90505f61150c84611762565b905081515f0361151d579392505050565b80511561154f578181604051602001611537929190612692565b60405160208183030381529060405292505050919050565b6111c084611801565b5f6001600160e01b0319821663780e9d6360e01b14806106ce57506106ce82611872565b808061159057506001600160a01b03821615155b15611651575f61159f846110e0565b90506001600160a01b038316158015906115cb5750826001600160a01b0316816001600160a01b031614155b80156115de57506115dc818461108f565b155b156116075760405163a9fbf51f60e01b81526001600160a01b03841660048201526024016107be565b811561164f5783856001600160a01b0316826001600160a01b03167f8c5be1e5ebec7d5bd14f71427d1e84f3dd0314c0f7b2291e5b200ac8c7c3b92560405160405180910390a45b505b50505f90815260046020526040902080546001600160a01b0319166001600160a01b0392909216919091179055565b5f5f61168d858585611896565b90506001600160a01b0381166116e9576116e484600980545f838152600a60205260408120829055600182018355919091527f6e1540171b6c0c960b71a7020d9f60077f6af931a8bbf590da0223dacf75c7af0155565b61170c565b846001600160a01b0316816001600160a01b03161461170c5761170c8185611988565b6001600160a01b0385166117285761172384611a05565b6111c0565b846001600160a01b0316816001600160a01b0316146111c0576111c08585611aac565b6117558383611afa565b610c61335f8585856113b7565b5f81815260066020526040902080546060919061177e9061239e565b80601f01602080910402602001604051908101604052809291908181526020018280546117aa9061239e565b80156117f55780601f106117cc576101008083540402835291602001916117f5565b820191905f5260205f20905b8154815290600101906020018083116117d857829003601f168201915b50505050509050919050565b606061180c826110e0565b505f61182260408051602081019091525f815290565b90505f8151116118405760405180602001604052805f81525061186b565b8061184a84611b5b565b60405160200161185b929190612692565b6040516020818303038152906040525b9392505050565b5f6001600160e01b03198216632483248360e11b14806106ce57506106ce82611bea565b5f828152600260205260408120546001600160a01b03908116908316156118c2576118c2818486611c39565b6001600160a01b038116156118fc576118dd5f855f5f61157c565b6001600160a01b0381165f90815260036020526040902080545f190190555b6001600160a01b0385161561192a576001600160a01b0385165f908152600360205260409020805460010190555b5f8481526002602052604080822080546001600160a01b0319166001600160a01b0389811691821790925591518793918516917fddf252ad1be2c89b69c2b068fc378daa952ba7f163c4a11628f55a4df523b3ef91a4949350505050565b5f61199283610eb5565b5f838152600860209081526040808320546001600160a01b03881684526007909252909120919250908183146119e7575f83815260208281526040808320548584528184208190558352600890915290208290555b5f938452600860209081526040808620869055938552525081205550565b6009545f90611a16906001906126a6565b5f838152600a602052604081205460098054939450909284908110611a3d57611a3d612420565b905f5260205f20015490508060098381548110611a5c57611a5c612420565b5f918252602080832090910192909255828152600a90915260408082208490558582528120556009805480611a9357611a936126b9565b600190038181905f5260205f20015f9055905550505050565b5f6001611ab884610eb5565b611ac291906126a6565b6001600160a01b039093165f908152600760209081526040808320868452825280832085905593825260089052919091209190915550565b6001600160a01b038216611b2357604051633250574960e11b81525f60048201526024016107be565b5f611b2f83835f611125565b90506001600160a01b03811615610c61576040516339e3563760e11b81525f60048201526024016107be565b60605f611b6783611c9d565b60010190505f816001600160401b03811115611b8557611b85612237565b6040519080825280601f01601f191660200182016040528015611baf576020820181803683370190505b5090508181016020015b5f19016f181899199a1a9b1b9c1cb0b131b232b360811b600a86061a8153600a8504945084611bb957509392505050565b5f6001600160e01b031982166380ac58cd60e01b1480611c1a57506001600160e01b03198216635b5e139f60e01b145b806106ce57506301ffc9a760e01b6001600160e01b03198316146106ce565b611c44838383611d74565b610c61576001600160a01b038316611c7257604051637e27328960e01b8152600481018290526024016107be565b60405163177e802f60e01b81526001600160a01b0383166004820152602481018290526044016107be565b5f8072184f03e93ff9f4daa797ed6e38ed64bf6a1f0160401b8310611cdb5772184f03e93ff9f4daa797ed6e38ed64bf6a1f0160401b830492506040015b6d04ee2d6d415b85acef81000000008310611d07576d04ee2d6d415b85acef8100000000830492506020015b662386f26fc100008310611d2557662386f26fc10000830492506010015b6305f5e1008310611d3d576305f5e100830492506008015b6127108310611d5157612710830492506004015b60648310611d63576064830492506002015b600a83106106ce5760010192915050565b5f6001600160a01b038316158015906111c05750826001600160a01b0316846001600160a01b03161480611dad5750611dad848461108f565b806111c05750505f908152600460205260409020546001600160a01b03908116911614919050565b828054828255905f5260205f20908101928215611e28579160200282015b82811115611e2857825182546001600160a01b0319166001600160a01b03909116178255602090920191600190910190611df3565b50611e34929150611e71565b5090565b828054828255905f5260205f20908101928215611e28579160200282015b82811115611e28578251825591602001919060010190611e56565b5b80821115611e34575f8155600101611e72565b6001600160e01b031981168114611e9a575f5ffd5b50565b5f60208284031215611ead575f5ffd5b813561186b81611e85565b5f81518084528060208401602086015e5f602082860101526020601f19601f83011685010191505092915050565b602081525f61186b6020830184611eb8565b5f60208284031215611f08575f5ffd5b5035919050565b80356001600160a01b0381168114611f25575f5ffd5b919050565b5f5f60408385031215611f3b575f5ffd5b611f4483611f0f565b946020939093013593505050565b5f5f5f60608486031215611f64575f5ffd5b611f6d84611f0f565b9250611f7b60208501611f0f565b929592945050506040919091013590565b5f5f60408385031215611f9d575f5ffd5b50508035926020909101359150565b5f5f83601f840112611fbc575f5ffd5b5081356001600160401b03811115611fd2575f5ffd5b6020830191508360208285010111156108a5575f5ffd5b80356001600160601b0381168114611f25575f5ffd5b5f5f83601f84011261200f575f5ffd5b5081356001600160401b03811115612025575f5ffd5b6020830191508360208260051b85010111156108a5575f5ffd5b5f5f5f5f5f5f5f5f60a0898b031215612056575f5ffd5b61205f89611f0f565b975060208901356001600160401b03811115612079575f5ffd5b6120858b828c01611fac565b9098509650612098905060408a01611fe9565b945060608901356001600160401b038111156120b2575f5ffd5b6120be8b828c01611fff565b90955093505060808901356001600160401b038111156120dc575f5ffd5b6120e88b828c01611fff565b999c989b5096995094979396929594505050565b5f5f5f5f6060858703121561210f575f5ffd5b61211885611f0f565b935060208501356001600160401b03811115612132575f5ffd5b61213e87828801611fac565b9094509250612151905060408601611fe9565b905092959194509250565b604080825283519082018190525f9060208501906060840190835b8181101561219e5783516001600160a01b0316835260209384019390920191600101612177565b5050838103602080860191909152855180835291810192508501905f5b818110156121d95782518452602093840193909201916001016121bb565b50919695505050505050565b5f602082840312156121f5575f5ffd5b61186b82611f0f565b5f5f6040838503121561220f575f5ffd5b61221883611f0f565b91506020830135801515811461222c575f5ffd5b809150509250929050565b634e487b7160e01b5f52604160045260245ffd5b5f5f5f5f6080858703121561225e575f5ffd5b61226785611f0f565b935061227560208601611f0f565b92506040850135915060608501356001600160401b03811115612296575f5ffd5b8501601f810187136122a6575f5ffd5b80356001600160401b038111156122bf576122bf612237565b604051601f8201601f19908116603f011681016001600160401b03811182821017156122ed576122ed612237565b604052818152828201602001891015612304575f5ffd5b816020840160208301375f6020838301015280935050505092959194509250565b5f5f5f60608486031215612337575f5ffd5b8335925061234760208501611f0f565b915060408401356001600160401b0381168114612362575f5ffd5b809150509250925092565b5f5f6040838503121561237e575f5ffd5b61238783611f0f565b915061239560208401611f0f565b90509250929050565b600181811c908216806123b257607f821691505b6020821081036123d057634e487b7160e01b5f52602260045260245ffd5b50919050565b634e487b7160e01b5f52601160045260245ffd5b80820281158282048414176106ce576106ce6123d6565b5f8261241b57634e487b7160e01b5f52601260045260245ffd5b500490565b634e487b7160e01b5f52603260045260245ffd5b808201808211156106ce576106ce6123d6565b5f60018201612458576124586123d6565b5060010190565b606080825281018590525f8660808301825b8881101561249f576001600160a01b0361248a84611f0f565b16825260209283019290910190600101612471565b5083810360208501528581526001600160fb1b038611156124be575f5ffd5b8560051b9150818760208301370160200190506124e660408301846001600160601b03169052565b9695505050505050565b60408152826040820152828460608301375f606084830101525f6060601f19601f86011683010190506001600160601b0383166020830152949350505050565b601f821115610c6157805f5260205f20601f840160051c810160208510156125555750805b601f840160051c820191505b818110156114d8575f8155600101612561565b81516001600160401b0381111561258d5761258d612237565b6125a18161259b845461239e565b84612530565b6020601f8211600181146125d3575f83156125bc5750848201515b5f19600385901b1c1916600184901b1784556114d8565b5f84815260208120601f198516915b8281101561260257878501518255602094850194600190920191016125e2565b508482101561261f57868401515f19600387901b60f8161c191681555b50505050600190811b01905550565b6001600160a01b03858116825284166020820152604081018390526080606082018190525f906124e690830184611eb8565b5f60208284031215612670575f5ffd5b815161186b81611e85565b5f81518060208401855e5f93019283525090919050565b5f6111c06126a0838661267b565b8461267b565b818103818111156106ce576106ce6123d6565b634e487b7160e01b5f52603160045260245ffdfea26469706673582212209a718fec75dfdb30c8a477c460903bd98575117b1cf71b867d548db954dd199664736f6c634300081c0033",
  "linkReferences": {},
  "deployedLinkReferences": {}
}