{
  "_format": "hh-sol-artifact-1",
  "contractName": "NFTCollection",
  "sourceName": "contracts/NFTCollection.sol",
  "abi": [
    {
      "inputs": [],
      "stateMutability": "nonpayable",
      "type": "constructor"
    },
    {
      "inputs": [
        {
          "internalType": "uint256",
          "name": "numerator",
          "type": "uint256"
        },
        {
          "internalType": "uint256",
          "name": "denominator",
          "type": "uint256"
        }
      ],
      "name": "ERC2981InvalidDefaultRoyalty",
      "type": "error"
    },
    {
      "inputs": [
        {
          "internalType": "address",
          "name": "receiver",
          "type": "address"
        }
      ],
      "name": "ERC2981InvalidDefaultRoyaltyReceiver",
      "type": "error"
    },
    {
      "inputs": [
        {
          "internalType": "uint256",
          "name": "tokenId",
          "type": "uint256"
        },
        {
          "internalType": "uint256",
          "name": "numerator",
          "type": "uint256"
        },
        {
          "internalType": "uint256",
          "name": "denominator",
          "type": "uint256"
        }
      ],
      "name": "ERC2981InvalidTokenRoyalty",
      "type": "error"
    },
    {
      "inputs": [
        {
          "internalType": "uint256",
          "name": "tokenId",
          "type": "uint256"
        },
        {
          "internalType": "address",
          "name": "receiver",
          "type": "address"
        }
      ],
      "name": "ERC2981InvalidTokenRoyaltyReceiver",
      "type": "error"
    },
    {
      "inputs": [],
      "name": "ERC721EnumerableForbiddenBatchMint",
      "type": "error"
    },
    {
      "inputs": [
        {
          "internalType": "address",
          "name": "sender",
          "type": "address"
        },
        {
          "internalType": "uint256",
          "name": "tokenId",
          "type": "uint256"
        },
        {
          "internalType": "address",
          "name": "owner",
          "type": "address"
        }
      ],
      "name": "ERC721IncorrectOwner",
      "type": "error"
    },
    {
      "inputs": [
        {
          "internalType": "address",
          "name": "operator",
          "type": "address"
        },
        {
          "internalType": "uint256",
          "name": "tokenId",
          "type": "uint256"
        }
      ],
      "name": "ERC721InsufficientApproval",
      "type": "error"
    },
    {
      "inputs": [
        {
          "internalType": "address",
          "name": "approver",
          "type": "address"
        }
      ],
      "name": "ERC721InvalidApprover",
      "type": "error"
    },
    {
      "inputs": [
        {
          "internalType": "address",
          "name": "operator",
          "type": "address"
        }
      ],
      "name": "ERC721InvalidOperator",
      "type": "error"
    },
    {
      "inputs": [
        {
          "internalType": "address",
          "name": "owner",
          "type": "address"
        }
      ],
      "name": "ERC721InvalidOwner",
      "type": "error"
    },
    {
      "inputs": [
        {
          "internalType": "address",
          "name": "receiver",
          "type": "address"
        }
      ],
      "name": "ERC721InvalidReceiver",
      "type": "error"
    },
    {
      "inputs": [
        {
          "internalType": "address",
          "name": "sender",
          "type": "address"
        }
      ],
      "name": "ERC721InvalidSender",
      "type": "error"
    },
    {
      "inputs": [
        {
          "internalType": "uint256",
          "name": "tokenId",
          "type": "uint256"
        }
      ],
      "name": "ERC721NonexistentToken",
      "type": "error"
    },
    {
      "inputs": [
        {
          "internalType": "address",
          "name": "owner",
          "type": "address"
        },
        {
          "internalType": "uint256",
          "name": "index",
          "type": "uint256"
        }
      ],
      "name": "ERC721OutOfBoundsIndex",
      "type": "error"
    },
    {
      "inputs": [
        {
          "internalType": "address",
          "name": "owner",
          "type": "address"
        }
      ],
      "name": "OwnableInvalidOwner",
      "type": "error"
    },
    {
      "inputs": [
        {
          "internalType": "address",
          "name": "account",
          "type": "address"
        }
      ],
      "name": "OwnableUnauthorizedAccount",
      "type": "error"
    },
    {
      "anonymous": false,
      "inputs": [
        {
          "indexed": true,
          "internalType": "address",
          "name": "owner",
          "type": "address"
        },
        {
          "indexed": true,
          "internalType": "address",
          "name": "approved",
          "type": "address"
        },
        {
          "indexed": true,
          "internalType": "uint256",
          "name": "tokenId",
          "type": "uint256"
        }
      ],
      "name": "Approval",
      "type": "event"
    },
    {
      "anonymous": false,
      "inputs": [
        {
          "indexed": true,
          "internalType": "address",
          "name": "owner",
          "type": "address"
        },
        {
          "indexed": true,
          "internalType": "address",
          "name": "operator",
          "type": "address"
        },
        {
          "indexed": false,
          "internalType": "bool",
          "name": "approved",
          "type": "bool"
        }
      ],
      "name": "ApprovalForAll",
      "type": "event"
    },
    {
      "anonymous": false,
      "inputs": [
        {
          "indexed": false,
          "internalType": "uint256",
          "name": "_fromTokenId",
          "type": "uint256"
        },
        {
          "indexed": false,
          "internalType": "uint256",
          "name": "_toTokenId",
          "type": "uint256"
        }
      ],
      "name": "BatchMetadataUpdate",
      "type": "event"
    },
    {
      "anonymous": false,
      "inputs": [
        {
          "indexed": false,
          "internalType": "uint256",
          "name": "_tokenId",
          "type": "uint256"
        }
      ],
      "name": "MetadataUpdate",
      "type": "event"
    },
    {
      "anonymous": false,
      "inputs": [
        {
          "indexed": true,
          "internalType": "uint256",
          "name": "tokenId",
          "type": "uint256"
        },
        {
          "indexed": true,
          "internalType": "address",
          "name": "creator",
          "type": "address"
        },
        {
          "indexed": false,
          "internalType": "string",
          "name": "tokenURI",
          "type": "string"
        },
        {
          "indexed": false,
          "internalType": "uint96",
          "name": "royaltyFee",
          "type": "uint96"
        }
      ],
      "name": "NFTMinted",
      "type": "event"
    },
    {
      "anonymous": false,
      "inputs": [
        {
          "indexed": true,
          "internalType": "address",
          "name": "previousOwner",
          "type": "address"
        },
        {
          "indexed": true,
          "internalType": "address",
          "name": "newOwner",
          "type": "address"
        }
      ],
      "name": "OwnershipTransferred",
      "type": "event"
    },
    {
      "anonymous": false,
      "inputs": [
        {
          "indexed": true,
          "internalType": "address",
          "name": "from",
          "type": "address"
        },
        {
          "indexed": true,
          "internalType": "address",
          "name": "to",
          "type": "address"
        },
        {
          "indexed": true,
          "internalType": "uint256",
          "name": "tokenId",
          "type": "uint256"
        }
      ],
      "name": "Transfer",
      "type": "event"
    },
    {
      "inputs": [],
      "name": "MAX_ROYALTY_FEE",
      "outputs": [
        {
          "internalType": "uint96",
          "name": "",
          "type": "uint96"
        }
      ],
      "stateMutability": "view",
      "type": "function"
    },
    {
      "inputs": [
        {
          "internalType": "address",
          "name": "to",
          "type": "address"
        },
        {
          "internalType": "uint256",
          "name": "tokenId",
          "type": "uint256"
        }
      ],
      "name": "approve",
      "outputs": [],
      "stateMutability": "nonpayable",
      "type": "function"
    },
    {
      "inputs": [
        {
          "internalType": "address",
          "name": "owner",
          "type": "address"
        }
      ],
      "name": "balanceOf",
      "outputs": [
        {
          "internalType": "uint256",
          "name": "",
          "type": "uint256"
        }
      ],
      "stateMutability": "view",
      "type": "function"
    },
    {
      "inputs": [
        {
          "internalType": "uint256",
          "name": "tokenId",
          "type": "uint256"
        }
      ],
      "name": "getApproved",
      "outputs": [
        {
          "internalType": "address",
          "name": "",
          "type": "address"
        }
      ],
      "stateMutability": "view",
      "type": "function"
    },
    {
      "inputs": [
        {
          "internalType": "uint256",
          "name": "tokenId",
          "type": "uint256"
        }
      ],
      "name": "getCreator",
      "outputs": [
        {
          "internalType": "address",
          "name": "",
          "type": "address"
        }
      ],
      "stateMutability": "view",
      "type": "function"
    },
    {
      "inputs": [
        {
          "internalType": "address",
          "name": "owner",
          "type": "address"
        },
        {
          "internalType": "address",
          "name": "operator",
          "type": "address"
        }
      ],
      "name": "isApprovedForAll",
      "outputs": [
        {
          "internalType": "bool",
          "name": "",
          "type": "bool"
        }
      ],
      "stateMutability": "view",
      "type": "function"
    },
    {
      "inputs": [
        {
          "internalType": "address",
          "name": "to",
          "type": "address"
        },
        {
          "internalType": "string",
          "name": "uri",
          "type": "string"
        },
        {
          "internalType": "uint96",
          "name": "royaltyFee",
          "type": "uint96"
        }
      ],
      "name": "mintNFT",
      "outputs": [
        {
          "internalType": "uint256",
          "name": "",
          "type": "uint256"
        }
      ],
      "stateMutability": "nonpayable",
      "type": "function"
    },
    {
      "inputs": [],
      "name": "name",
      "outputs": [
        {
          "internalType": "string",
          "name": "",
          "type": "string"
        }
      ],
      "stateMutability": "view",
      "type": "function"
    },
    {
      "inputs": [],
      "name": "owner",
      "outputs": [
        {
          "internalType": "address",
          "name": "",
          "type": "address"
        }
      ],
      "stateMutability": "view",
      "type": "function"
    },
    {
      "inputs": [
        {
          "internalType": "uint256",
          "name": "tokenId",
          "type": "uint256"
        }
      ],
      "name": "ownerOf",
      "outputs": [
        {
          "internalType": "address",
          "name": "",
          "type": "address"
        }
      ],
      "stateMutability": "view",
      "type": "function"
    },
    {
      "inputs": [],
      "name": "renounceOwnership",
      "outputs": [],
      "stateMutability": "nonpayable",
      "type": "function"
    },
    {
      "inputs": [
        {
          "internalType": "uint256",
          "name": "tokenId",
          "type": "uint256"
        },
        {
          "internalType": "uint256",
          "name": "salePrice",
          "type": "uint256"
        }
      ],
      "name": "royaltyInfo",
      "outputs": [
        {
          "internalType": "address",
          "name": "receiver",
          "type": "address"
        },
        {
          "internalType": "uint256",
          "name": "amount",
          "type": "uint256"
        }
      ],
      "stateMutability": "view",
      "type": "function"
    },
    {
      "inputs": [
        {
          "internalType": "address",
          "name": "from",
          "type": "address"
        },
        {
          "internalType": "address",
          "name": "to",
          "type": "address"
        },
        {
          "internalType": "uint256",
          "name": "tokenId",
          "type": "uint256"
        }
      ],
      "name": "safeTransferFrom",
      "outputs": [],
      "stateMutability": "nonpayable",
      "type": "function"
    },
    {
      "inputs": [
        {
          "internalType": "address",
          "name": "from",
          "type": "address"
        },
        {
          "internalType": "address",
          "name": "to",
          "type": "address"
        },
        {
          "internalType": "uint256",
          "name": "tokenId",
          "type": "uint256"
        },
        {
          "internalType": "bytes",
          "name": "data",
          "type": "bytes"
        }
      ],
      "name": "safeTransferFrom",
      "outputs": [],
      "stateMutability": "nonpayable",
      "type": "function"
    },
    {
      "inputs": [
        {
          "internalType": "address",
          "name": "operator",
          "type": "address"
        },
        {
          "internalType": "bool",
          "name": "approved",
          "type": "bool"
        }
      ],
      "name": "setApprovalForAll",
      "outputs": [],
      "stateMutability": "nonpayable",
      "type": "function"
    },
    {
      "inputs": [
        {
          "internalType": "bytes4",
          "name": "interfaceId",
          "type": "bytes4"
        }
      ],
      "name": "supportsInterface",
      "outputs": [
        {
          "internalType": "bool",
          "name": "",
          "type": "bool"
        }
      ],
      "stateMutability": "view",
      "type": "function"
    },
    {
      "inputs": [],
      "name": "symbol",
      "outputs": [
        {
          "internalType": "string",
          "name": "",
          "type": "string"
        }
      ],
      "stateMutability": "view",
      "type": "function"
    },
    {
      "inputs": [
        {
          "internalType": "uint256",
          "name": "index",
          "type": "uint256"
        }
      ],
      "name": "tokenByIndex",
      "outputs": [
        {
          "internalType": "uint256",
          "name": "",
          "type": "uint256"
        }
      ],
      "stateMutability": "view",
      "type": "function"
    },
    {
      "inputs": [
        {
          "internalType": "address",
          "name": "owner",
          "type": "address"
        },
        {
          "internalType": "uint256",
          "name": "index",
          "type": "uint256"
        }
      ],
      "name": "tokenOfOwnerByIndex",
      "outputs": [
        {
          "internalType": "uint256",
          "name": "",
          "type": "uint256"
        }
      ],
      "stateMutability": "view",
      "type": "function"
    },
    {
      "inputs": [
        {
          "internalType": "uint256",
          "name": "tokenId",
          "type": "uint256"
        }
      ],
      "name": "tokenURI",
      "outputs": [
        {
          "internalType": "string",
          "name": "",
          "type": "string"
        }
      ],
      "stateMutability": "view",
      "type": "function"
    },
    {
      "inputs": [],
      "name": "totalSupply",
      "outputs": [
        {
          "internalType": "uint256",
          "name": "",
          "type": "uint256"
        }
      ],
      "stateMutability": "view",
      "type": "function"
    },
    {
      "inputs": [
        {
          "internalType": "address",
          "name": "from",
          "type": "address"
        },
        {
          "internalType": "address",
          "name": "to",
          "type": "address"
        },
        {
          "internalType": "uint256",
          "name": "tokenId",
          "type": "uint256"
        }
      ],
      "name": "transferFrom",
      "outputs": [],
      "stateMutability": "nonpayable",
      "type": "function"
    },
    {
      "inputs": [
        {
          "internalType": "address",
          "name": "newOwner",
          "type": "address"
        }
      ],
      "name": "transferOwnership",
      "outputs": [],
      "stateMutability": "nonpayable",
      "type": "function"
    }
  ],
  "bytecode": "0x608060405234801561000f575f5ffd5b503360405180604001604052806012815260200171272aa99027232a1021b7b63632b1ba34b7b760711b81525060405180604001604052806006815260200165139554d3919560d21b815250815f9081610069919061019e565b506001610076828261019e565b5050506001600160a01b0381166100a657604051631e4fbdf760e01b81525f600482015260240160405180910390fd5b6100af816100b5565b50610258565b600d80546001600160a01b038381166001600160a01b0319831681179093556040519116919082907f8be0079c531659141344cd1fd0a4f28419497f9722a3daafe3b4186f6b6457e0905f90a35050565b634e487b7160e01b5f52604160045260245ffd5b600181811c9082168061012e57607f821691505b60208210810361014c57634e487b7160e01b5f52602260045260245ffd5b50919050565b601f82111561019957805f5260205f20601f840160051c810160208510156101775750805b601f840160051c820191505b81811015610196575f8155600101610183565b50505b505050565b81516001600160401b038111156101b7576101b7610106565b6101cb816101c5845461011a565b84610152565b6020601f8211600181146101fd575f83156101e65750848201515b5f19600385901b1c1916600184901b178455610196565b5f84815260208120601f198516915b8281101561022c578785015182556020948501946001909201910161020c565b508482101561024957868401515f19600387901b60f8161c191681555b50505050600190811b01905550565b611b35806102655f395ff3fe608060405234801561000f575f5ffd5b5060043610610148575f3560e01c80634f6ccce7116100bf578063a22cb46511610079578063a22cb465146102d4578063b88d4fde146102e7578063c87b56dd146102fa578063d48e638a1461030d578063e985e9c514610320578063f2fde38b14610333575f5ffd5b80634f6ccce71461027a5780636352211e1461028d57806370a08231146102a0578063715018a6146102b35780638da5cb5b146102bb57806395d89b41146102cc575f5ffd5b806318160ddd1161011057806318160ddd146101ea57806323b872dd146101fc5780632a55205a1461020f5780632f745c59146102415780633758933f1461025457806342842e0e14610267575f5ffd5b806301ffc9a71461014c57806306fdde0314610174578063081812fc14610189578063095ea7b3146101b457806317e1f82e146101c9575b5f5ffd5b61015f61015a36600461154a565b610346565b60405190151581526020015b60405180910390f35b61017c610356565b60405161016b9190611593565b61019c6101973660046115a5565b6103e5565b6040516001600160a01b03909116815260200161016b565b6101c76101c23660046115d7565b61040c565b005b6101d26103e881565b6040516001600160601b03909116815260200161016b565b6009545b60405190815260200161016b565b6101c761020a3660046115ff565b61041b565b61022261021d366004611639565b6104a9565b604080516001600160a01b03909316835260208301919091520161016b565b6101ee61024f3660046115d7565b61052c565b6101ee610262366004611659565b61058f565b6101c76102753660046115ff565b61069b565b6101ee6102883660046115a5565b6106ba565b61019c61029b3660046115a5565b61070f565b6101ee6102ae3660046116f5565b610719565b6101c761075e565b600d546001600160a01b031661019c565b61017c610771565b6101c76102e236600461170e565b610780565b6101c76102f536600461175b565b61078b565b61017c6103083660046115a5565b6107a3565b61019c61031b3660046115a5565b6107ae565b61015f61032e366004611838565b6107c2565b6101c76103413660046116f5565b6107ef565b5f6103508261082c565b92915050565b60605f805461036490611869565b80601f016020809104026020016040519081016040528092919081815260200182805461039090611869565b80156103db5780601f106103b2576101008083540402835291602001916103db565b820191905f5260205f20905b8154815290600101906020018083116103be57829003601f168201915b5050505050905090565b5f6103ef82610850565b505f828152600460205260409020546001600160a01b0316610350565b610417828233610888565b5050565b6001600160a01b03821661044957604051633250574960e11b81525f60048201526024015b60405180910390fd5b5f610455838333610895565b9050836001600160a01b0316816001600160a01b0316146104a3576040516364283d7b60e01b81526001600160a01b0380861660048301526024820184905282166044820152606401610440565b50505050565b5f828152600c6020526040812080548291906001600160a01b03811690600160a01b90046001600160601b0316816104fc575050600b546001600160a01b03811690600160a01b90046001600160601b03165b5f6127106105136001600160601b038416896118b5565b61051d91906118cc565b92989297509195505050505050565b5f61053683610719565b82106105675760405163295f44f760e21b81526001600160a01b038416600482015260248101839052604401610440565b506001600160a01b03919091165f908152600760209081526040808320938352929052205490565b5f6103e86001600160601b03831611156105e25760405162461bcd60e51b81526020600482015260146024820152730a4def2c2d8e8f240cccaca40e8dede40d0d2ced60631b6044820152606401610440565b600e80545f91826105f2836118eb565b91905055905061060286826108a9565b6106418186868080601f0160208091040260200160405190810160405280939291908181526020018383808284375f920191909152506108c292505050565b61064c813385610911565b336001600160a01b0316817fd305ddd0a4ca3207522e270c1d2564b12fd6177ef0681e30466c521a9ef974cf87878760405161068a93929190611903565b60405180910390a395945050505050565b6106b583838360405180602001604052805f81525061078b565b505050565b5f6106c460095490565b82106106ec5760405163295f44f760e21b81525f600482015260248101839052604401610440565b600982815481106106ff576106ff611943565b905f5260205f2001549050919050565b5f61035082610850565b5f6001600160a01b038216610743576040516322718ad960e21b81525f6004820152602401610440565b506001600160a01b03165f9081526003602052604090205490565b6107666109d1565b61076f5f6109fe565b565b60606001805461036490611869565b610417338383610a4f565b61079684848461041b565b6104a33385858585610b16565b606061035082610c3e565b5f5f6107ba835f6104a9565b509392505050565b6001600160a01b039182165f90815260056020908152604080832093909416825291909152205460ff1690565b6107f76109d1565b6001600160a01b03811661082057604051631e4fbdf760e01b81525f6004820152602401610440565b610829816109fe565b50565b5f6001600160e01b0319821663152a902d60e11b1480610350575061035082610cb7565b5f818152600260205260408120546001600160a01b03168061035057604051637e27328960e01b815260048101849052602401610440565b6106b58383836001610cdb565b5f6108a1848484610ddf565b949350505050565b610417828260405180602001604052805f815250610eaa565b5f8281526006602052604090206108d9828261199b565b506040518281527ff8e1a15aba9398e019f0b49df1a4fde98ee17ae345cb5f6b5e2c27f5033e8ce79060200160405180910390a15050565b6127106001600160601b0382168110156109575760405163dfd1fc1b60e01b8152600481018590526001600160601b038316602482015260448101829052606401610440565b6001600160a01b03831661098757604051634b4f842960e11b8152600481018590525f6024820152604401610440565b506040805180820182526001600160a01b0393841681526001600160601b0392831660208083019182525f968752600c90529190942093519051909116600160a01b029116179055565b600d546001600160a01b0316331461076f5760405163118cdaa760e01b8152336004820152602401610440565b600d80546001600160a01b038381166001600160a01b0319831681179093556040519116919082907f8be0079c531659141344cd1fd0a4f28419497f9722a3daafe3b4186f6b6457e0905f90a35050565b6001600160a01b038316610a785760405163a9fbf51f60e01b81525f6004820152602401610440565b6001600160a01b038216610aaa57604051630b61174360e31b81526001600160a01b0383166004820152602401610440565b6001600160a01b038381165f81815260056020908152604080832094871680845294825291829020805460ff191686151590811790915591519182527f17307eab39ab6107e8899845ad3d59bd9653f200f220920489ca2b5937696c31910160405180910390a3505050565b6001600160a01b0383163b15610c3757604051630a85bd0160e11b81526001600160a01b0384169063150b7a0290610b58908890889087908790600401611a56565b6020604051808303815f875af1925050508015610b92575060408051601f3d908101601f19168201909252610b8f91810190611a92565b60015b610bf9573d808015610bbf576040519150601f19603f3d011682016040523d82523d5f602084013e610bc4565b606091505b5080515f03610bf157604051633250574960e11b81526001600160a01b0385166004820152602401610440565b805160208201fd5b6001600160e01b03198116630a85bd0160e11b14610c3557604051633250574960e11b81526001600160a01b0385166004820152602401610440565b505b5050505050565b6060610c4982610850565b505f610c5f60408051602081019091525f815290565b90505f610c6b84610ec1565b905081515f03610c7c579392505050565b805115610cae578181604051602001610c96929190611ac4565b60405160208183030381529060405292505050919050565b6108a184610f60565b5f6001600160e01b0319821663780e9d6360e01b1480610350575061035082610fd1565b8080610cef57506001600160a01b03821615155b15610db0575f610cfe84610850565b90506001600160a01b03831615801590610d2a5750826001600160a01b0316816001600160a01b031614155b8015610d3d5750610d3b81846107c2565b155b15610d665760405163a9fbf51f60e01b81526001600160a01b0384166004820152602401610440565b8115610dae5783856001600160a01b0316826001600160a01b03167f8c5be1e5ebec7d5bd14f71427d1e84f3dd0314c0f7b2291e5b200ac8c7c3b92560405160405180910390a45b505b50505f90815260046020526040902080546001600160a01b0319166001600160a01b0392909216919091179055565b5f5f610dec858585610ff5565b90506001600160a01b038116610e4857610e4384600980545f838152600a60205260408120829055600182018355919091527f6e1540171b6c0c960b71a7020d9f60077f6af931a8bbf590da0223dacf75c7af0155565b610e6b565b846001600160a01b0316816001600160a01b031614610e6b57610e6b81856110e7565b6001600160a01b038516610e8757610e8284611164565b6108a1565b846001600160a01b0316816001600160a01b0316146108a1576108a1858561120b565b610eb48383611259565b6106b5335f858585610b16565b5f818152600660205260409020805460609190610edd90611869565b80601f0160208091040260200160405190810160405280929190818152602001828054610f0990611869565b8015610f545780601f10610f2b57610100808354040283529160200191610f54565b820191905f5260205f20905b815481529060010190602001808311610f3757829003601f168201915b50505050509050919050565b6060610f6b82610850565b505f610f8160408051602081019091525f815290565b90505f815111610f9f5760405180602001604052805f815250610fca565b80610fa9846112ba565b604051602001610fba929190611ac4565b6040516020818303038152906040525b9392505050565b5f6001600160e01b03198216632483248360e11b148061035057506103508261134a565b5f828152600260205260408120546001600160a01b039081169083161561102157611021818486611399565b6001600160a01b0381161561105b5761103c5f855f5f610cdb565b6001600160a01b0381165f90815260036020526040902080545f190190555b6001600160a01b03851615611089576001600160a01b0385165f908152600360205260409020805460010190555b5f8481526002602052604080822080546001600160a01b0319166001600160a01b0389811691821790925591518793918516917fddf252ad1be2c89b69c2b068fc378daa952ba7f163c4a11628f55a4df523b3ef91a4949350505050565b5f6110f183610719565b5f838152600860209081526040808320546001600160a01b0388168452600790925290912091925090818314611146575f83815260208281526040808320548584528184208190558352600890915290208290555b5f938452600860209081526040808620869055938552525081205550565b6009545f9061117590600190611ad8565b5f838152600a60205260408120546009805493945090928490811061119c5761119c611943565b905f5260205f200154905080600983815481106111bb576111bb611943565b5f918252602080832090910192909255828152600a909152604080822084905585825281205560098054806111f2576111f2611aeb565b600190038181905f5260205f20015f9055905550505050565b5f600161121784610719565b6112219190611ad8565b6001600160a01b039093165f908152600760209081526040808320868452825280832085905593825260089052919091209190915550565b6001600160a01b03821661128257604051633250574960e11b81525f6004820152602401610440565b5f61128e83835f610895565b90506001600160a01b038116156106b5576040516339e3563760e11b81525f6004820152602401610440565b60605f6112c6836113fd565b60010190505f8167ffffffffffffffff8111156112e5576112e5611747565b6040519080825280601f01601f19166020018201604052801561130f576020820181803683370190505b5090508181016020015b5f19016f181899199a1a9b1b9c1cb0b131b232b360811b600a86061a8153600a850494508461131957509392505050565b5f6001600160e01b031982166380ac58cd60e01b148061137a57506001600160e01b03198216635b5e139f60e01b145b8061035057506301ffc9a760e01b6001600160e01b0319831614610350565b6113a48383836114d4565b6106b5576001600160a01b0383166113d257604051637e27328960e01b815260048101829052602401610440565b60405163177e802f60e01b81526001600160a01b038316600482015260248101829052604401610440565b5f8072184f03e93ff9f4daa797ed6e38ed64bf6a1f0160401b831061143b5772184f03e93ff9f4daa797ed6e38ed64bf6a1f0160401b830492506040015b6d04ee2d6d415b85acef81000000008310611467576d04ee2d6d415b85acef8100000000830492506020015b662386f26fc10000831061148557662386f26fc10000830492506010015b6305f5e100831061149d576305f5e100830492506008015b61271083106114b157612710830492506004015b606483106114c3576064830492506002015b600a83106103505760010192915050565b5f6001600160a01b038316158015906108a15750826001600160a01b0316846001600160a01b0316148061150d575061150d84846107c2565b806108a15750505f908152600460205260409020546001600160a01b03908116911614919050565b6001600160e01b031981168114610829575f5ffd5b5f6020828403121561155a575f5ffd5b8135610fca81611535565b5f81518084528060208401602086015e5f602082860101526020601f19601f83011685010191505092915050565b602081525f610fca6020830184611565565b5f602082840312156115b5575f5ffd5b5035919050565b80356001600160a01b03811681146115d2575f5ffd5b919050565b5f5f604083850312156115e8575f5ffd5b6115f1836115bc565b946020939093013593505050565b5f5f5f60608486031215611611575f5ffd5b61161a846115bc565b9250611628602085016115bc565b929592945050506040919091013590565b5f5f6040838503121561164a575f5ffd5b50508035926020909101359150565b5f5f5f5f6060858703121561166c575f5ffd5b611675856115bc565b9350602085013567ffffffffffffffff811115611690575f5ffd5b8501601f810187136116a0575f5ffd5b803567ffffffffffffffff8111156116b6575f5ffd5b8760208284010111156116c7575f5ffd5b6020919091019350915060408501356001600160601b03811681146116ea575f5ffd5b939692955090935050565b5f60208284031215611705575f5ffd5b610fca826115bc565b5f5f6040838503121561171f575f5ffd5b611728836115bc565b91506020830135801515811461173c575f5ffd5b809150509250929050565b634e487b7160e01b5f52604160045260245ffd5b5f5f5f5f6080858703121561176e575f5ffd5b611777856115bc565b9350611785602086016115bc565b925060408501359150606085013567ffffffffffffffff8111156117a7575f5ffd5b8501601f810187136117b7575f5ffd5b803567ffffffffffffffff8111156117d1576117d1611747565b604051601f8201601f19908116603f0116810167ffffffffffffffff8111828210171561180057611800611747565b604052818152828201602001891015611817575f5ffd5b816020840160208301375f6020838301015280935050505092959194509250565b5f5f60408385031215611849575f5ffd5b611852836115bc565b9150611860602084016115bc565b90509250929050565b600181811c9082168061187d57607f821691505b60208210810361189b57634e487b7160e01b5f52602260045260245ffd5b50919050565b634e487b7160e01b5f52601160045260245ffd5b8082028115828204841417610350576103506118a1565b5f826118e657634e487b7160e01b5f52601260045260245ffd5b500490565b5f600182016118fc576118fc6118a1565b5060010190565b60408152826040820152828460608301375f606084830101525f6060601f19601f86011683010190506001600160601b0383166020830152949350505050565b634e487b7160e01b5f52603260045260245ffd5b601f8211156106b557805f5260205f20601f840160051c8101602085101561197c5750805b601f840160051c820191505b81811015610c37575f8155600101611988565b815167ffffffffffffffff8111156119b5576119b5611747565b6119c9816119c38454611869565b84611957565b6020601f8211600181146119fb575f83156119e45750848201515b5f19600385901b1c1916600184901b178455610c37565b5f84815260208120601f198516915b82811015611a2a5787850151825560209485019460019092019101611a0a565b5084821015611a4757868401515f19600387901b60f8161c191681555b50505050600190811b01905550565b6001600160a01b03858116825284166020820152604081018390526080606082018190525f90611a8890830184611565565b9695505050505050565b5f60208284031215611aa2575f5ffd5b8151610fca81611535565b5f81518060208401855e5f93019283525090919050565b5f6108a1611ad28386611aad565b84611aad565b81810381811115610350576103506118a1565b634e487b7160e01b5f52603160045260245ffdfea2646970667358221220b7e341e8bd8f75826d6d44f231e9e753d57e7b99541b184e062c23fc5abfca5564736f6c634300081c0033",
  "linkReferences": {},
  "deployedLinkReferences": {}
}